{
  "address": "0x2c2E3812742Ab2DA53a728A09F5DE670Aba584b6",
  "abi": [
    {
      "inputs": [
        {
          "internalType": "address",
          "name": "_messageBus",
          "type": "address"
        }
      ],
      "stateMutability": "nonpayable",
      "type": "constructor"
    },
    {
      "anonymous": false,
      "inputs": [
        {
          "indexed": false,
          "internalType": "bytes",
          "name": "sender",
          "type": "bytes"
        },
        {
          "indexed": false,
          "internalType": "uint64",
          "name": "srcChainId",
          "type": "uint64"
        },
        {
          "indexed": false,
          "internalType": "uint64",
          "name": "nonce",
          "type": "uint64"
        },
        {
          "indexed": false,
          "internalType": "bytes",
          "name": "message",
          "type": "bytes"
        }
      ],
      "name": "Message2Received",
      "type": "event"
    },
    {
      "anonymous": false,
      "inputs": [
        {
          "indexed": false,
          "internalType": "address",
          "name": "messageBus",
          "type": "address"
        }
      ],
      "name": "MessageBusUpdated",
      "type": "event"
    },
    {
      "anonymous": false,
      "inputs": [
        {
          "indexed": false,
          "internalType": "address",
          "name": "sender",
          "type": "address"
        },
        {
          "indexed": false,
          "internalType": "uint64",
          "name": "srcChainId",
          "type": "uint64"
        },
        {
          "indexed": false,
          "internalType": "uint64",
          "name": "nonce",
          "type": "uint64"
        },
        {
          "indexed": false,
          "internalType": "bytes",
          "name": "message",
          "type": "bytes"
        }
      ],
      "name": "MessageReceived",
      "type": "event"
    },
    {
      "anonymous": false,
      "inputs": [
        {
          "indexed": false,
          "internalType": "address",
          "name": "token",
          "type": "address"
        },
        {
          "indexed": false,
          "internalType": "uint256",
          "name": "amount",
          "type": "uint256"
        },
        {
          "indexed": false,
          "internalType": "address",
          "name": "sender",
          "type": "address"
        },
        {
          "indexed": false,
          "internalType": "uint64",
          "name": "srcChainId",
          "type": "uint64"
        },
        {
          "indexed": false,
          "internalType": "address",
          "name": "receiver",
          "type": "address"
        },
        {
          "indexed": false,
          "internalType": "bytes",
          "name": "message",
          "type": "bytes"
        }
      ],
      "name": "MessageReceivedWithTransfer",
      "type": "event"
    },
    {
      "anonymous": false,
      "inputs": [
        {
          "indexed": true,
          "internalType": "address",
          "name": "previousOwner",
          "type": "address"
        },
        {
          "indexed": true,
          "internalType": "address",
          "name": "newOwner",
          "type": "address"
        }
      ],
      "name": "OwnershipTransferred",
      "type": "event"
    },
    {
      "anonymous": false,
      "inputs": [
        {
          "indexed": false,
          "internalType": "address",
          "name": "receiver",
          "type": "address"
        },
        {
          "indexed": false,
          "internalType": "address",
          "name": "token",
          "type": "address"
        },
        {
          "indexed": false,
          "internalType": "uint256",
          "name": "amount",
          "type": "uint256"
        },
        {
          "indexed": false,
          "internalType": "bytes",
          "name": "message",
          "type": "bytes"
        }
      ],
      "name": "Refunded",
      "type": "event"
    },
    {
      "inputs": [
        {
          "internalType": "address",
          "name": "_token",
          "type": "address"
        },
        {
          "internalType": "uint256",
          "name": "_amount",
          "type": "uint256"
        }
      ],
      "name": "drainToken",
      "outputs": [],
      "stateMutability": "nonpayable",
      "type": "function"
    },
    {
      "inputs": [
        {
          "internalType": "bytes",
          "name": "_sender",
          "type": "bytes"
        },
        {
          "internalType": "uint64",
          "name": "_srcChainId",
          "type": "uint64"
        },
        {
          "internalType": "bytes",
          "name": "_message",
          "type": "bytes"
        },
        {
          "internalType": "address",
          "name": "",
          "type": "address"
        }
      ],
      "name": "executeMessage",
      "outputs": [
        {
          "internalType": "enum IMessageReceiverApp.ExecutionStatus",
          "name": "",
          "type": "uint8"
        }
      ],
      "stateMutability": "payable",
      "type": "function"
    },
    {
      "inputs": [
        {
          "internalType": "address",
          "name": "_sender",
          "type": "address"
        },
        {
          "internalType": "uint64",
          "name": "_srcChainId",
          "type": "uint64"
        },
        {
          "internalType": "bytes",
          "name": "_message",
          "type": "bytes"
        },
        {
          "internalType": "address",
          "name": "",
          "type": "address"
        }
      ],
      "name": "executeMessage",
      "outputs": [
        {
          "internalType": "enum IMessageReceiverApp.ExecutionStatus",
          "name": "",
          "type": "uint8"
        }
      ],
      "stateMutability": "payable",
      "type": "function"
    },
    {
      "inputs": [
        {
          "internalType": "address",
          "name": "_sender",
          "type": "address"
        },
        {
          "internalType": "address",
          "name": "_token",
          "type": "address"
        },
        {
          "internalType": "uint256",
          "name": "_amount",
          "type": "uint256"
        },
        {
          "internalType": "uint64",
          "name": "_srcChainId",
          "type": "uint64"
        },
        {
          "internalType": "bytes",
          "name": "_message",
          "type": "bytes"
        },
        {
          "internalType": "address",
          "name": "",
          "type": "address"
        }
      ],
      "name": "executeMessageWithTransfer",
      "outputs": [
        {
          "internalType": "enum IMessageReceiverApp.ExecutionStatus",
          "name": "",
          "type": "uint8"
        }
      ],
      "stateMutability": "payable",
      "type": "function"
    },
    {
      "inputs": [
        {
          "internalType": "address",
          "name": "_sender",
          "type": "address"
        },
        {
          "internalType": "address",
          "name": "_token",
          "type": "address"
        },
        {
          "internalType": "uint256",
          "name": "_amount",
          "type": "uint256"
        },
        {
          "internalType": "uint64",
          "name": "_srcChainId",
          "type": "uint64"
        },
        {
          "internalType": "bytes",
          "name": "_message",
          "type": "bytes"
        },
        {
          "internalType": "address",
          "name": "_executor",
          "type": "address"
        }
      ],
      "name": "executeMessageWithTransferFallback",
      "outputs": [
        {
          "internalType": "enum IMessageReceiverApp.ExecutionStatus",
          "name": "",
          "type": "uint8"
        }
      ],
      "stateMutability": "payable",
      "type": "function"
    },
    {
      "inputs": [
        {
          "internalType": "address",
          "name": "_token",
          "type": "address"
        },
        {
          "internalType": "uint256",
          "name": "_amount",
          "type": "uint256"
        },
        {
          "internalType": "bytes",
          "name": "_message",
          "type": "bytes"
        },
        {
          "internalType": "address",
          "name": "",
          "type": "address"
        }
      ],
      "name": "executeMessageWithTransferRefund",
      "outputs": [
        {
          "internalType": "enum IMessageReceiverApp.ExecutionStatus",
          "name": "",
          "type": "uint8"
        }
      ],
      "stateMutability": "payable",
      "type": "function"
    },
    {
      "inputs": [],
      "name": "messageBus",
      "outputs": [
        {
          "internalType": "address",
          "name": "",
          "type": "address"
        }
      ],
      "stateMutability": "view",
      "type": "function"
    },
    {
      "inputs": [],
      "name": "owner",
      "outputs": [
        {
          "internalType": "address",
          "name": "",
          "type": "address"
        }
      ],
      "stateMutability": "view",
      "type": "function"
    },
    {
      "inputs": [
        {
          "internalType": "bytes",
          "name": "_receiver",
          "type": "bytes"
        },
        {
          "internalType": "uint64",
          "name": "_dstChainId",
          "type": "uint64"
        },
        {
          "internalType": "bytes",
          "name": "_message",
          "type": "bytes"
        }
      ],
      "name": "sendMessage",
      "outputs": [],
      "stateMutability": "payable",
      "type": "function"
    },
    {
      "inputs": [
        {
          "internalType": "address",
          "name": "_receiver",
          "type": "address"
        },
        {
          "internalType": "uint64",
          "name": "_dstChainId",
          "type": "uint64"
        },
        {
          "internalType": "bytes",
          "name": "_message",
          "type": "bytes"
        }
      ],
      "name": "sendMessage",
      "outputs": [],
      "stateMutability": "payable",
      "type": "function"
    },
    {
      "inputs": [
        {
          "internalType": "address",
          "name": "_receiver",
          "type": "address"
        },
        {
          "internalType": "uint64",
          "name": "_dstChainId",
          "type": "uint64"
        },
        {
          "internalType": "bytes",
          "name": "_message",
          "type": "bytes"
        },
        {
          "internalType": "uint64",
          "name": "_nonce",
          "type": "uint64"
        }
      ],
      "name": "sendMessageWithNonce",
      "outputs": [],
      "stateMutability": "payable",
      "type": "function"
    },
    {
      "inputs": [
        {
          "internalType": "address",
          "name": "_receiver",
          "type": "address"
        },
        {
          "internalType": "address",
          "name": "_token",
          "type": "address"
        },
        {
          "internalType": "uint256",
          "name": "_amount",
          "type": "uint256"
        },
        {
          "internalType": "uint64",
          "name": "_dstChainId",
          "type": "uint64"
        },
        {
          "internalType": "uint32",
          "name": "_maxSlippage",
          "type": "uint32"
        },
        {
          "internalType": "bytes",
          "name": "_message",
          "type": "bytes"
        },
        {
          "internalType": "enum MsgDataTypes.BridgeSendType",
          "name": "_bridgeSendType",
          "type": "uint8"
        }
      ],
      "name": "sendMessageWithTransfer",
      "outputs": [],
      "stateMutability": "payable",
      "type": "function"
    },
    {
      "inputs": [
        {
          "internalType": "address",
          "name": "_receiver",
          "type": "address"
        },
        {
          "internalType": "uint64",
          "name": "_dstChainId",
          "type": "uint64"
        },
        {
          "internalType": "bytes[]",
          "name": "_messages",
          "type": "bytes[]"
        },
        {
          "internalType": "uint256[]",
          "name": "_fees",
          "type": "uint256[]"
        }
      ],
      "name": "sendMessages",
      "outputs": [],
      "stateMutability": "payable",
      "type": "function"
    },
    {
      "inputs": [
        {
          "internalType": "address",
          "name": "_messageBus",
          "type": "address"
        }
      ],
      "name": "setMessageBus",
      "outputs": [],
      "stateMutability": "nonpayable",
      "type": "function"
    },
    {
      "inputs": [
        {
          "internalType": "address",
          "name": "newOwner",
          "type": "address"
        }
      ],
      "name": "transferOwnership",
      "outputs": [],
      "stateMutability": "nonpayable",
      "type": "function"
    }
  ],
  "transactionHash": "0xfff78b30acd6514eb1861b9d2966ba193f51b86ca87ae9883c54d38fb2878010",
  "args": [
    "0xE48151964556381B33f93E05E36381Fd53Ec053E"
  ],
  "numDeployments": 1,
  "solcInputHash": "ffbdee6c682c61f546bf4e109278038d",
  "bytecode": "0x60806040523480156200001157600080fd5b5060405162002936380380620029368339810160408190526200003491620000b7565b80620000403362000067565b600180546001600160a01b0319166001600160a01b039290921691909117905550620000e9565b600080546001600160a01b038381166001600160a01b0319831681178455604051919092169283917f8be0079c531659141344cd1fd0a4f28419497f9722a3daafe3b4186f6b6457e09190a35050565b600060208284031215620000ca57600080fd5b81516001600160a01b0381168114620000e257600080fd5b9392505050565b61283d80620000f96000396000f3fe6080604052600436106100e85760003560e01c80637cd2bffc1161008a5780639d4323be116100595780639d4323be14610202578063a1a227fa14610222578063c81739cd14610242578063f2fde38b1461025557600080fd5b80637cd2bffc1461019757806386dfc3c8146101aa5780638da5cb5b146101bd5780639c649fdf146101ef57600080fd5b8063547cad12116100c6578063547cad121461013e5780635ab7afc61461015e5780637767b8d7146101715780637bcf9fe11461018457600080fd5b8063063ce4e5146100ed5780630bcb4982146101165780633c8790d714610129575b600080fd5b6101006100fb366004611c83565b610275565b60405161010d9190611d2e565b60405180910390f35b610100610124366004611d56565b610338565b61013c610137366004611e0d565b61040a565b005b34801561014a57600080fd5b5061013c610159366004611e9f565b6104fa565b61010061016c366004611ebc565b6105c4565b61013c61017f366004611f52565b61062c565b61013c610192366004612007565b6106e0565b6101006101a5366004612141565b61071c565b61013c6101b83660046121c2565b6107e2565b3480156101c957600080fd5b506000546001600160a01b03165b6040516001600160a01b03909116815260200161010d565b6101006101fd366004612245565b610874565b34801561020e57600080fd5b5061013c61021d366004612291565b610a2a565b34801561022e57600080fd5b506001546101d7906001600160a01b031681565b61013c6102503660046122bd565b610aab565b34801561026157600080fd5b5061013c610270366004611e9f565b610b43565b6001546000906001600160a01b031633146102d75760405162461bcd60e51b815260206004820152601960248201527f63616c6c6572206973206e6f74206d657373616765206275730000000000000060448201526064015b60405180910390fd5b6000806102e68587018761231f565b915091507f93bff870467428ead6659a7a554cb75cc2ca56d416714397a31d7dd90fdf3b9c89898985856040516103219594939291906123e5565b60405180910390a150600198975050505050505050565b6001546000906001600160a01b031633146103955760405162461bcd60e51b815260206004820152601960248201527f63616c6c6572206973206e6f74206d657373616765206275730000000000000060448201526064016102ce565b6000806103a48587018761242e565b90925090506103bd6001600160a01b0389168389610c34565b7f28b3e4c963e8ed6cdcdd38aa916a725939823a99bbfa73fe91297cbd65076ebd828989846040516103f2949392919061244c565b60405180910390a16001925050505b95945050505050565b60005b838110156104f157600154600090600160a01b90046001600160401b031686868481811061043d5761043d612488565b905060200281019061044f919061249e565b604051602001610461939291906124e4565b60408051808303601f1901815291905260018054919250600160a01b9091046001600160401b03169060146104958361251d565b91906101000a8154816001600160401b0302191690836001600160401b03160217905550506104de8888838787878181106104d2576104d2612488565b90506020020135610cc9565b50806104e981612543565b91505061040d565b50505050505050565b3361050d6000546001600160a01b031690565b6001600160a01b0316146105635760405162461bcd60e51b815260206004820181905260248201527f4f776e61626c653a2063616c6c6572206973206e6f7420746865206f776e657260448201526064016102ce565b6001805473ffffffffffffffffffffffffffffffffffffffff19166001600160a01b0383169081179091556040519081527f3f8223bcd8b3b875473e9f9e14e1ad075451a2b5ffd31591655da9a01516bf5e9060200160405180910390a150565b6001546000906001600160a01b031633146106215760405162461bcd60e51b815260206004820152601960248201527f63616c6c6572206973206e6f74206d657373616765206275730000000000000060448201526064016102ce565b979650505050505050565b6106416001600160a01b038816333089610ceb565b60003384846040516020016106589392919061255c565b604051602081830303815290604052905061068f89898989600160149054906101000a90046001600160401b03168a878934610d23565b5060018054600160a01b90046001600160401b03169060146106b08361251d565b91906101000a8154816001600160401b0302191690836001600160401b0316021790555050505050505050505050565b60008184846040516020016106f7939291906124e4565b604051602081830303815290604052905061071486868334610cc9565b505050505050565b6001546000906001600160a01b031633146107795760405162461bcd60e51b815260206004820152601960248201527f63616c6c6572206973206e6f74206d657373616765206275730000000000000060448201526064016102ce565b60008084806020019051810190610790919061257f565b90925090506107a96001600160a01b0389168389610c34565b7f853d38177348cfc87290e96c941a5fb96dc3da8a07c31163ddffe4da6661b76f88888b8986866040516103219695949392919061260b565b6000600160149054906101000a90046001600160401b0316838360405160200161080e939291906124e4565b60408051808303601f1901815291905260018054919250600160a01b9091046001600160401b03169060146108428361251d565b91906101000a8154816001600160401b0302191690836001600160401b03160217905550506107148686868434610d5a565b6001546000906001600160a01b031633146108d15760405162461bcd60e51b815260206004820152601960248201527f63616c6c6572206973206e6f74206d657373616765206275730000000000000060448201526064016102ce565b6000806108e08587018761231f565b91509150816001600160401b0316655af3107a4001036109325760405162461bcd60e51b815260206004820152600d60248201526c696e76616c6964206e6f6e636560981b60448201526064016102ce565b816001600160401b0316655af3107a40020361094d57600080fd5b816001600160401b0316655af3107a40030361096e57600292505050610401565b816001600160401b0316655af3107a400414156040518060400160405280600b81526020017f4d53473a3a41424f52543a0000000000000000000000000000000000000000008152506040516020016109c79190612654565b604051602081830303815290604052906109f45760405162461bcd60e51b81526004016102ce9190612685565b507f2bc20c63cdcc1b0e6aeb64fcaaf7ea3c8b999228a4a9ed2a2df1d2e17dd12520888884846040516103f29493929190612698565b33610a3d6000546001600160a01b031690565b6001600160a01b031614610a935760405162461bcd60e51b815260206004820181905260248201527f4f776e61626c653a2063616c6c6572206973206e6f7420746865206f776e657260448201526064016102ce565b610aa76001600160a01b0383163383610c34565b5050565b6000600160149054906101000a90046001600160401b03168383604051602001610ad7939291906124e4565b60408051808303601f1901815291905260018054919250600160a01b9091046001600160401b0316906014610b0b8361251d565b91906101000a8154816001600160401b0302191690836001600160401b0316021790555050610b3c85858334610cc9565b5050505050565b33610b566000546001600160a01b031690565b6001600160a01b031614610bac5760405162461bcd60e51b815260206004820181905260248201527f4f776e61626c653a2063616c6c6572206973206e6f7420746865206f776e657260448201526064016102ce565b6001600160a01b038116610c285760405162461bcd60e51b815260206004820152602660248201527f4f776e61626c653a206e6577206f776e657220697320746865207a65726f206160448201527f646472657373000000000000000000000000000000000000000000000000000060648201526084016102ce565b610c3181610d78565b50565b6040516001600160a01b038316602482015260448101829052610cc490849063a9059cbb60e01b906064015b60408051601f198184030181529190526020810180517bffffffffffffffffffffffffffffffffffffffffffffffffffffffff167fffffffff0000000000000000000000000000000000000000000000000000000090931692909217909152610dd5565b505050565b600154610ce5908590859085906001600160a01b031685610eba565b50505050565b6040516001600160a01b0380851660248301528316604482015260648101829052610ce59085906323b872dd60e01b90608401610c60565b6000610d4c8a8a8a8a8a8a8a8a600160009054906101000a90046001600160a01b03168b610f25565b9a9950505050505050505050565b600154610b3c9086908690869086906001600160a01b031686610fbe565b600080546001600160a01b0383811673ffffffffffffffffffffffffffffffffffffffff19831681178455604051919092169283917f8be0079c531659141344cd1fd0a4f28419497f9722a3daafe3b4186f6b6457e09190a35050565b6000610e2a826040518060400160405280602081526020017f5361666545524332303a206c6f772d6c6576656c2063616c6c206661696c6564815250856001600160a01b031661102c9092919063ffffffff16565b805190915015610cc45780806020019051810190610e4891906126d3565b610cc45760405162461bcd60e51b815260206004820152602a60248201527f5361666545524332303a204552433230206f7065726174696f6e20646964206e60448201527f6f7420737563636565640000000000000000000000000000000000000000000060648201526084016102ce565b604051634f9e72ad60e11b81526001600160a01b03831690639f3ce55a908390610eec908990899089906004016126f5565b6000604051808303818588803b158015610f0557600080fd5b505af1158015610f19573d6000803e3d6000fd5b50505050505050505050565b6000806000610f3a8d8d8d8d8d8d8c8c611045565b8851919350915015610fae57846001600160a01b0316634289fbb3858f8d85878d6040518763ffffffff1660e01b8152600401610f7b959493929190612726565b6000604051808303818588803b158015610f9457600080fd5b505af1158015610fa8573d6000803e3d6000fd5b50505050505b509b9a5050505050505050505050565b604051637d7a101d60e01b81526001600160a01b03831690637d7a101d908390610ff2908a908a908a908a90600401612767565b6000604051808303818588803b15801561100b57600080fd5b505af115801561101f573d6000803e3d6000fd5b5050505050505050505050565b606061103b84846000856117d0565b90505b9392505050565b600080600184600681111561105c5761105c611d18565b0361117a57826001600160a01b03166382980dc46040518163ffffffff1660e01b8152600401602060405180830381865afa15801561109f573d6000803e3d6000fd5b505050506040513d601f19601f820116820180604052508101906110c3919061279c565b90506110d96001600160a01b038a16828a61190d565b60405163a5977fbb60e01b81526001600160a01b038b811660048301528a81166024830152604482018a90526001600160401b03808a1660648401528816608483015263ffffffff871660a483015282169063a5977fbb9060c401600060405180830381600087803b15801561114e57600080fd5b505af1158015611162573d6000803e3d6000fd5b505050506111738a8a8a8a8a6119bf565b91506117c3565b600284600681111561118e5761118e611d18565b0361129957826001600160a01b031663d8257d176040518163ffffffff1660e01b8152600401602060405180830381865afa1580156111d1573d6000803e3d6000fd5b505050506040513d601f19601f820116820180604052508101906111f5919061279c565b905061120b6001600160a01b038a16828a61190d565b6040516308d18d8960e21b81526001600160a01b038a81166004830152602482018a90526001600160401b03808a1660448401528c821660648401528816608483015282169063234636249060a401600060405180830381600087803b15801561127457600080fd5b505af1158015611288573d6000803e3d6000fd5b505050506111738a8a8a8a8a611a47565b60038460068111156112ad576112ad611d18565b0361143357826001600160a01b031663dfa2dbaf6040518163ffffffff1660e01b8152600401602060405180830381865afa1580156112f0573d6000803e3d6000fd5b505050506040513d601f19601f82011682018060405250810190611314919061279c565b905061132a6001600160a01b038a16828a61190d565b604051636f3c863f60e11b81526001600160a01b038a81166004830152602482018a90528b811660448301526001600160401b038816606483015282169063de790c7e90608401600060405180830381600087803b15801561138b57600080fd5b505af115801561139f573d6000803e3d6000fd5b506113b9925050506001600160a01b038a16826000611ab5565b604080516bffffffffffffffffffffffff1930606090811b82166020808501919091528d821b83166034850152604884018d9052908e901b90911660688301526001600160c01b031960c08a811b8216607c85015246901b1660848301528251808303606c018152608c9092019092528051910120611173565b600484600681111561144757611447611d18565b0361155657826001600160a01b031663c66a9c5a6040518163ffffffff1660e01b8152600401602060405180830381865afa15801561148a573d6000803e3d6000fd5b505050506040513d601f19601f820116820180604052508101906114ae919061279c565b90506114c46001600160a01b038a16828a61190d565b6040516308d18d8960e21b81526001600160a01b038a81166004830152602482018a90526001600160401b03808a1660448401528c821660648401528816608483015282169063234636249060a4016020604051808303816000875af1158015611532573d6000803e3d6000fd5b505050506040513d601f19601f8201168201806040525081019061117391906127b9565b600584600681111561156a5761156a611d18565b0361169657826001600160a01b03166395b12c276040518163ffffffff1660e01b8152600401602060405180830381865afa1580156115ad573d6000803e3d6000fd5b505050506040513d601f19601f820116820180604052508101906115d1919061279c565b90506115e76001600160a01b038a16828a61190d565b60405163a002930160e01b81526001600160a01b038a81166004830152602482018a90526001600160401b03808a1660448401528c821660648401528816608483015282169063a00293019060a4015b6020604051808303816000875af1158015611656573d6000803e3d6000fd5b505050506040513d601f19601f8201168201806040525081019061167a91906127b9565b91506116916001600160a01b038a16826000611ab5565b6117c3565b60068460068111156116aa576116aa611d18565b0361177b57826001600160a01b03166395b12c276040518163ffffffff1660e01b8152600401602060405180830381865afa1580156116ed573d6000803e3d6000fd5b505050506040513d601f19601f82011682018060405250810190611711919061279c565b90506117276001600160a01b038a16828a61190d565b604051639e422c3360e01b81526001600160a01b038a81166004830152602482018a90526001600160401b03808a1660448401528c8216606484015288166084830152821690639e422c339060a401611637565b60405162461bcd60e51b815260206004820152601960248201527f6272696467652074797065206e6f7420737570706f727465640000000000000060448201526064016102ce565b9850989650505050505050565b6060824710156118485760405162461bcd60e51b815260206004820152602660248201527f416464726573733a20696e73756666696369656e742062616c616e636520666f60448201527f722063616c6c000000000000000000000000000000000000000000000000000060648201526084016102ce565b6001600160a01b0385163b61189f5760405162461bcd60e51b815260206004820152601d60248201527f416464726573733a2063616c6c20746f206e6f6e2d636f6e747261637400000060448201526064016102ce565b600080866001600160a01b031685876040516118bb91906127d2565b60006040518083038185875af1925050503d80600081146118f8576040519150601f19603f3d011682016040523d82523d6000602084013e6118fd565b606091505b5091509150610621828286611bd1565b604051636eb1769f60e11b81523060048201526001600160a01b038381166024830152600091839186169063dd62ed3e90604401602060405180830381865afa15801561195e573d6000803e3d6000fd5b505050506040513d601f19601f8201168201806040525081019061198291906127b9565b61198c91906127ee565b6040516001600160a01b038516602482015260448101829052909150610ce590859063095ea7b360e01b90606401610c60565b6040516bffffffffffffffffffffffff1930606090811b8216602084015287811b8216603484015286901b166048820152605c81018490526001600160c01b031960c084811b8216607c84015283811b8216608484015246901b16608c8201526000906094015b60405160208183030381529060405280519060200120905095945050505050565b6040516bffffffffffffffffffffffff1930606090811b8216602084015286811b82166034840152604883018690526001600160c01b031960c086811b821660688601529189901b909216607084015283811b8216608484015246901b16608c820152600090609401611a26565b801580611b2f5750604051636eb1769f60e11b81523060048201526001600160a01b03838116602483015284169063dd62ed3e90604401602060405180830381865afa158015611b09573d6000803e3d6000fd5b505050506040513d601f19601f82011682018060405250810190611b2d91906127b9565b155b611ba15760405162461bcd60e51b815260206004820152603660248201527f5361666545524332303a20617070726f76652066726f6d206e6f6e2d7a65726f60448201527f20746f206e6f6e2d7a65726f20616c6c6f77616e63650000000000000000000060648201526084016102ce565b6040516001600160a01b038316602482015260448101829052610cc490849063095ea7b360e01b90606401610c60565b60608315611be057508161103e565b825115611bf05782518084602001fd5b8160405162461bcd60e51b81526004016102ce9190612685565b60008083601f840112611c1c57600080fd5b5081356001600160401b03811115611c3357600080fd5b602083019150836020828501011115611c4b57600080fd5b9250929050565b80356001600160401b0381168114611c6957600080fd5b919050565b6001600160a01b0381168114610c3157600080fd5b60008060008060008060808789031215611c9c57600080fd5b86356001600160401b0380821115611cb357600080fd5b611cbf8a838b01611c0a565b9098509650869150611cd360208a01611c52565b95506040890135915080821115611ce957600080fd5b50611cf689828a01611c0a565b9094509250506060870135611d0a81611c6e565b809150509295509295509295565b634e487b7160e01b600052602160045260246000fd5b6020810160038310611d5057634e487b7160e01b600052602160045260246000fd5b91905290565b600080600080600060808688031215611d6e57600080fd5b8535611d7981611c6e565b94506020860135935060408601356001600160401b03811115611d9b57600080fd5b611da788828901611c0a565b9094509250506060860135611dbb81611c6e565b809150509295509295909350565b60008083601f840112611ddb57600080fd5b5081356001600160401b03811115611df257600080fd5b6020830191508360208260051b8501011115611c4b57600080fd5b60008060008060008060808789031215611e2657600080fd5b8635611e3181611c6e565b9550611e3f60208801611c52565b945060408701356001600160401b0380821115611e5b57600080fd5b611e678a838b01611dc9565b90965094506060890135915080821115611e8057600080fd5b50611e8d89828a01611dc9565b979a9699509497509295939492505050565b600060208284031215611eb157600080fd5b813561103e81611c6e565b600080600080600080600060c0888a031215611ed757600080fd5b8735611ee281611c6e565b96506020880135611ef281611c6e565b955060408801359450611f0760608901611c52565b935060808801356001600160401b03811115611f2257600080fd5b611f2e8a828b01611c0a565b90945092505060a0880135611f4281611c6e565b8091505092959891949750929550565b60008060008060008060008060e0898b031215611f6e57600080fd5b8835611f7981611c6e565b97506020890135611f8981611c6e565b965060408901359550611f9e60608a01611c52565b9450608089013563ffffffff81168114611fb757600080fd5b935060a08901356001600160401b03811115611fd257600080fd5b611fde8b828c01611c0a565b90945092505060c089013560078110611ff657600080fd5b809150509295985092959890939650565b60008060008060006080868803121561201f57600080fd5b853561202a81611c6e565b945061203860208701611c52565b935060408601356001600160401b0381111561205357600080fd5b61205f88828901611c0a565b9094509250612072905060608701611c52565b90509295509295909350565b634e487b7160e01b600052604160045260246000fd5b604051601f8201601f191681016001600160401b03811182821017156120bc576120bc61207e565b604052919050565b60006001600160401b038211156120dd576120dd61207e565b50601f01601f191660200190565b600082601f8301126120fc57600080fd5b813561210f61210a826120c4565b612094565b81815284602083860101111561212457600080fd5b816020850160208301376000918101602001919091529392505050565b60008060008060008060c0878903121561215a57600080fd5b863561216581611c6e565b9550602087013561217581611c6e565b94506040870135935061218a60608801611c52565b925060808701356001600160401b038111156121a557600080fd5b6121b189828a016120eb565b92505060a0870135611d0a81611c6e565b6000806000806000606086880312156121da57600080fd5b85356001600160401b03808211156121f157600080fd5b6121fd89838a01611c0a565b909750955085915061221160208901611c52565b9450604088013591508082111561222757600080fd5b5061223488828901611c0a565b969995985093965092949392505050565b60008060008060006080868803121561225d57600080fd5b853561226881611c6e565b945061227660208701611c52565b935060408601356001600160401b03811115611d9b57600080fd5b600080604083850312156122a457600080fd5b82356122af81611c6e565b946020939093013593505050565b600080600080606085870312156122d357600080fd5b84356122de81611c6e565b93506122ec60208601611c52565b925060408501356001600160401b0381111561230757600080fd5b61231387828801611c0a565b95989497509550505050565b6000806040838503121561233257600080fd5b61233b83611c52565b915060208301356001600160401b0381111561235657600080fd5b612362858286016120eb565b9150509250929050565b81835281816020850137506000828201602090810191909152601f909101601f19169091010190565b60005b838110156123b0578181015183820152602001612398565b50506000910152565b600081518084526123d1816020860160208601612395565b601f01601f19169290920160200192915050565b6080815260006123f960808301878961236c565b6001600160401b03868116602085015285166040840152828103606084015261242281856123b9565b98975050505050505050565b6000806040838503121561244157600080fd5b823561233b81611c6e565b60006001600160a01b0380871683528086166020840152508360408301526080606083015261247e60808301846123b9565b9695505050505050565b634e487b7160e01b600052603260045260246000fd5b6000808335601e198436030181126124b557600080fd5b8301803591506001600160401b038211156124cf57600080fd5b602001915036819003821315611c4b57600080fd5b6001600160401b038416815260406020820152600061040160408301848661236c565b634e487b7160e01b600052601160045260246000fd5b60006001600160401b0380831681810361253957612539612507565b6001019392505050565b60006001820161255557612555612507565b5060010190565b6001600160a01b038416815260406020820152600061040160408301848661236c565b6000806040838503121561259257600080fd5b825161259d81611c6e565b60208401519092506001600160401b038111156125b957600080fd5b8301601f810185136125ca57600080fd5b80516125d861210a826120c4565b8181528660208385010111156125ed57600080fd5b6125fe826020830160208601612395565b8093505050509250929050565b60006001600160a01b03808916835287602084015280871660408401526001600160401b038616606084015280851660808401525060c060a083015261242260c08301846123b9565b60008251612666818460208701612395565b6c696e76616c6964206e6f6e636560981b920191825250600d01919050565b60208152600061103e60208301846123b9565b6001600160a01b038516815260006001600160401b0380861660208401528085166040840152506080606083015261247e60808301846123b9565b6000602082840312156126e557600080fd5b8151801515811461103e57600080fd5b6001600160a01b03841681526001600160401b038316602082015260606040820152600061040160608301846123b9565b60006001600160a01b0380881683526001600160401b038716602084015280861660408401525083606083015260a0608083015261062160a08301846123b9565b60608152600061277b60608301868861236c565b6001600160401b0385166020840152828103604084015261062181856123b9565b6000602082840312156127ae57600080fd5b815161103e81611c6e565b6000602082840312156127cb57600080fd5b5051919050565b600082516127e4818460208701612395565b9190910192915050565b8082018082111561280157612801612507565b9291505056fea264697066735822122077be2d0438f7b24b1cb29ec11ab14510f4bf62c8d2b8b26fbf12997e8d615ce364736f6c63430008110033",
  "devdoc": {
    "kind": "dev",
    "methods": {
      "executeMessageWithTransferFallback(address,address,uint256,uint64,bytes,address)": {
        "params": {
          "_amount": "The amount of tokens received at this contract through the cross-chain bridge.",
          "_executor": "Address who called the MessageBus execution function",
          "_message": "Arbitrary message bytes originated from and encoded by the source app contract",
          "_sender": "The address of the source app contract",
          "_srcChainId": "The source chain ID where the transfer is originated from",
          "_token": "The address of the token that comes out of the bridge"
        }
      },
      "owner()": {
        "details": "Returns the address of the current owner."
      },
      "transferOwnership(address)": {
        "details": "Transfers ownership of the contract to a new account (`newOwner`). Can only be called by the current owner."
      }
    },
    "title": "Application to test message with transfer refund flow ",
    "version": 1
  },
  "userdoc": {
    "kind": "user",
    "methods": {
      "executeMessageWithTransferFallback(address,address,uint256,uint64,bytes,address)": {
        "notice": "Only called by MessageBus if         1. executeMessageWithTransfer reverts, or         2. executeMessageWithTransfer returns ExecutionStatus.Fail The contract is guaranteed to have received the right amount of tokens before this function is called."
      }
    },
    "version": 1
  },
  "storageLayout": {
    "storage": [
      {
        "astId": 28403,
        "contract": "contracts/message/apps/examples/MsgTest.sol:MsgTest",
        "label": "_owner",
        "offset": 0,
        "slot": "0",
        "type": "t_address"
      },
      {
        "astId": 19153,
        "contract": "contracts/message/apps/examples/MsgTest.sol:MsgTest",
        "label": "messageBus",
        "offset": 0,
        "slot": "1",
        "type": "t_address"
      },
      {
        "astId": 15858,
        "contract": "contracts/message/apps/examples/MsgTest.sol:MsgTest",
        "label": "nonce",
        "offset": 20,
        "slot": "1",
        "type": "t_uint64"
      }
    ],
    "types": {
      "t_address": {
        "encoding": "inplace",
        "label": "address",
        "numberOfBytes": "20"
      },
      "t_uint64": {
        "encoding": "inplace",
        "label": "uint64",
        "numberOfBytes": "8"
      }
    }
  }
}