{
  "address": "0x9bb46d5100d2db4608112026951c9c965b233f4d",
  "abi": [
    {
      "inputs": [
        {
          "internalType": "address",
          "name": "_msgbus",
          "type": "address"
        },
        {
          "internalType": "address",
          "name": "_supportedDex",
          "type": "address"
        },
        {
          "internalType": "address",
          "name": "_bridge",
          "type": "address"
        },
        {
          "internalType": "address",
          "name": "_bridgeToken",
          "type": "address"
        },
        {
          "internalType": "address",
          "name": "_nativeWrap",
          "type": "address"
        }
      ],
      "stateMutability": "nonpayable",
      "type": "constructor"
    },
    {
      "anonymous": false,
      "inputs": [
        {
          "indexed": false,
          "internalType": "bytes32",
          "name": "id",
          "type": "bytes32"
        },
        {
          "indexed": false,
          "internalType": "uint64",
          "name": "srcChainId",
          "type": "uint64"
        },
        {
          "indexed": false,
          "internalType": "uint256",
          "name": "amountIn",
          "type": "uint256"
        },
        {
          "indexed": false,
          "internalType": "address",
          "name": "tokenIn",
          "type": "address"
        },
        {
          "indexed": false,
          "internalType": "uint256",
          "name": "amountOut",
          "type": "uint256"
        },
        {
          "indexed": false,
          "internalType": "address",
          "name": "tokenOut",
          "type": "address"
        }
      ],
      "name": "DirectSwap",
      "type": "event"
    },
    {
      "anonymous": false,
      "inputs": [
        {
          "indexed": true,
          "internalType": "address",
          "name": "previousOwner",
          "type": "address"
        },
        {
          "indexed": true,
          "internalType": "address",
          "name": "newOwner",
          "type": "address"
        }
      ],
      "name": "OwnershipTransferred",
      "type": "event"
    },
    {
      "anonymous": false,
      "inputs": [
        {
          "indexed": false,
          "internalType": "bytes32",
          "name": "id",
          "type": "bytes32"
        },
        {
          "indexed": false,
          "internalType": "uint256",
          "name": "dstAmount",
          "type": "uint256"
        },
        {
          "indexed": false,
          "internalType": "enum TransferSwap.SwapStatus",
          "name": "status",
          "type": "uint8"
        }
      ],
      "name": "SwapRequestDone",
      "type": "event"
    },
    {
      "anonymous": false,
      "inputs": [
        {
          "indexed": false,
          "internalType": "bytes32",
          "name": "id",
          "type": "bytes32"
        },
        {
          "indexed": false,
          "internalType": "uint64",
          "name": "dstChainId",
          "type": "uint64"
        },
        {
          "indexed": false,
          "internalType": "uint256",
          "name": "srcAmount",
          "type": "uint256"
        },
        {
          "indexed": false,
          "internalType": "address",
          "name": "srcToken",
          "type": "address"
        },
        {
          "indexed": false,
          "internalType": "address",
          "name": "dstToken",
          "type": "address"
        }
      ],
      "name": "SwapRequestSent",
      "type": "event"
    },
    {
      "inputs": [
        {
          "internalType": "address",
          "name": "_sender",
          "type": "address"
        },
        {
          "internalType": "uint64",
          "name": "_srcChainId",
          "type": "uint64"
        },
        {
          "internalType": "bytes",
          "name": "_message",
          "type": "bytes"
        }
      ],
      "name": "executeMessage",
      "outputs": [],
      "stateMutability": "nonpayable",
      "type": "function"
    },
    {
      "inputs": [
        {
          "internalType": "address",
          "name": "",
          "type": "address"
        },
        {
          "internalType": "address",
          "name": "_token",
          "type": "address"
        },
        {
          "internalType": "uint256",
          "name": "_amount",
          "type": "uint256"
        },
        {
          "internalType": "uint64",
          "name": "_srcChainId",
          "type": "uint64"
        },
        {
          "internalType": "bytes",
          "name": "_message",
          "type": "bytes"
        }
      ],
      "name": "executeMessageWithTransfer",
      "outputs": [],
      "stateMutability": "nonpayable",
      "type": "function"
    },
    {
      "inputs": [
        {
          "internalType": "address",
          "name": "",
          "type": "address"
        },
        {
          "internalType": "address",
          "name": "",
          "type": "address"
        },
        {
          "internalType": "uint256",
          "name": "",
          "type": "uint256"
        },
        {
          "internalType": "uint64",
          "name": "_srcChainId",
          "type": "uint64"
        },
        {
          "internalType": "bytes",
          "name": "_message",
          "type": "bytes"
        }
      ],
      "name": "executeMessageWithTransferFallback",
      "outputs": [],
      "stateMutability": "nonpayable",
      "type": "function"
    },
    {
      "inputs": [],
      "name": "liquidityBridge",
      "outputs": [
        {
          "internalType": "address",
          "name": "",
          "type": "address"
        }
      ],
      "stateMutability": "view",
      "type": "function"
    },
    {
      "inputs": [
        {
          "internalType": "address",
          "name": "",
          "type": "address"
        }
      ],
      "name": "minSwapAmounts",
      "outputs": [
        {
          "internalType": "uint256",
          "name": "",
          "type": "uint256"
        }
      ],
      "stateMutability": "view",
      "type": "function"
    },
    {
      "inputs": [],
      "name": "msgBus",
      "outputs": [
        {
          "internalType": "address",
          "name": "",
          "type": "address"
        }
      ],
      "stateMutability": "view",
      "type": "function"
    },
    {
      "inputs": [],
      "name": "nativeWrap",
      "outputs": [
        {
          "internalType": "address",
          "name": "",
          "type": "address"
        }
      ],
      "stateMutability": "view",
      "type": "function"
    },
    {
      "inputs": [],
      "name": "owner",
      "outputs": [
        {
          "internalType": "address",
          "name": "",
          "type": "address"
        }
      ],
      "stateMutability": "view",
      "type": "function"
    },
    {
      "inputs": [],
      "name": "pegBridge",
      "outputs": [
        {
          "internalType": "address",
          "name": "",
          "type": "address"
        }
      ],
      "stateMutability": "view",
      "type": "function"
    },
    {
      "inputs": [],
      "name": "pegVault",
      "outputs": [
        {
          "internalType": "address",
          "name": "",
          "type": "address"
        }
      ],
      "stateMutability": "view",
      "type": "function"
    },
    {
      "inputs": [],
      "name": "renounceOwnership",
      "outputs": [],
      "stateMutability": "nonpayable",
      "type": "function"
    },
    {
      "inputs": [
        {
          "internalType": "address",
          "name": "_addr",
          "type": "address"
        }
      ],
      "name": "setLiquidityBridge",
      "outputs": [],
      "stateMutability": "nonpayable",
      "type": "function"
    },
    {
      "inputs": [
        {
          "internalType": "address",
          "name": "_token",
          "type": "address"
        },
        {
          "internalType": "uint256",
          "name": "_minSwapAmount",
          "type": "uint256"
        }
      ],
      "name": "setMinSwapAmount",
      "outputs": [],
      "stateMutability": "nonpayable",
      "type": "function"
    },
    {
      "inputs": [
        {
          "internalType": "address",
          "name": "_addr",
          "type": "address"
        }
      ],
      "name": "setMsgBus",
      "outputs": [],
      "stateMutability": "nonpayable",
      "type": "function"
    },
    {
      "inputs": [
        {
          "internalType": "address",
          "name": "_nativeWrap",
          "type": "address"
        }
      ],
      "name": "setNativeWrap",
      "outputs": [],
      "stateMutability": "nonpayable",
      "type": "function"
    },
    {
      "inputs": [
        {
          "internalType": "address",
          "name": "_addr",
          "type": "address"
        }
      ],
      "name": "setPegBridge",
      "outputs": [],
      "stateMutability": "nonpayable",
      "type": "function"
    },
    {
      "inputs": [
        {
          "internalType": "address",
          "name": "_addr",
          "type": "address"
        }
      ],
      "name": "setPegVault",
      "outputs": [],
      "stateMutability": "nonpayable",
      "type": "function"
    },
    {
      "inputs": [
        {
          "internalType": "address",
          "name": "_dex",
          "type": "address"
        },
        {
          "internalType": "bool",
          "name": "_enabled",
          "type": "bool"
        }
      ],
      "name": "setSupportedDex",
      "outputs": [],
      "stateMutability": "nonpayable",
      "type": "function"
    },
    {
      "inputs": [
        {
          "internalType": "address",
          "name": "_token",
          "type": "address"
        },
        {
          "internalType": "enum MsgSenderApp.BridgeType",
          "name": "bt",
          "type": "uint8"
        }
      ],
      "name": "setTokenBridgeType",
      "outputs": [],
      "stateMutability": "nonpayable",
      "type": "function"
    },
    {
      "inputs": [
        {
          "internalType": "address",
          "name": "",
          "type": "address"
        }
      ],
      "name": "tokenBridgeTypes",
      "outputs": [
        {
          "internalType": "enum MsgSenderApp.BridgeType",
          "name": "",
          "type": "uint8"
        }
      ],
      "stateMutability": "view",
      "type": "function"
    },
    {
      "inputs": [
        {
          "internalType": "address",
          "name": "newOwner",
          "type": "address"
        }
      ],
      "name": "transferOwnership",
      "outputs": [],
      "stateMutability": "nonpayable",
      "type": "function"
    },
    {
      "inputs": [
        {
          "internalType": "address",
          "name": "_receiver",
          "type": "address"
        },
        {
          "internalType": "uint256",
          "name": "_amountIn",
          "type": "uint256"
        },
        {
          "internalType": "uint64",
          "name": "_dstChainId",
          "type": "uint64"
        },
        {
          "components": [
            {
              "internalType": "address[]",
              "name": "path",
              "type": "address[]"
            },
            {
              "internalType": "address",
              "name": "dex",
              "type": "address"
            },
            {
              "internalType": "uint256",
              "name": "deadline",
              "type": "uint256"
            },
            {
              "internalType": "uint256",
              "name": "minRecvAmt",
              "type": "uint256"
            }
          ],
          "internalType": "struct TransferSwap.SwapInfo",
          "name": "_srcSwap",
          "type": "tuple"
        },
        {
          "components": [
            {
              "internalType": "address[]",
              "name": "path",
              "type": "address[]"
            },
            {
              "internalType": "address",
              "name": "dex",
              "type": "address"
            },
            {
              "internalType": "uint256",
              "name": "deadline",
              "type": "uint256"
            },
            {
              "internalType": "uint256",
              "name": "minRecvAmt",
              "type": "uint256"
            }
          ],
          "internalType": "struct TransferSwap.SwapInfo",
          "name": "_dstSwap",
          "type": "tuple"
        },
        {
          "internalType": "uint32",
          "name": "_maxBridgeSlippage",
          "type": "uint32"
        },
        {
          "internalType": "uint64",
          "name": "_nonce",
          "type": "uint64"
        }
      ],
      "name": "transferWithSwap",
      "outputs": [],
      "stateMutability": "nonpayable",
      "type": "function"
    },
    {
      "inputs": [
        {
          "internalType": "address",
          "name": "_receiver",
          "type": "address"
        },
        {
          "internalType": "uint256",
          "name": "_amountIn",
          "type": "uint256"
        },
        {
          "internalType": "uint64",
          "name": "_dstChainId",
          "type": "uint64"
        },
        {
          "components": [
            {
              "internalType": "address[]",
              "name": "path",
              "type": "address[]"
            },
            {
              "internalType": "address",
              "name": "dex",
              "type": "address"
            },
            {
              "internalType": "uint256",
              "name": "deadline",
              "type": "uint256"
            },
            {
              "internalType": "uint256",
              "name": "minRecvAmt",
              "type": "uint256"
            }
          ],
          "internalType": "struct TransferSwap.SwapInfo",
          "name": "_srcSwap",
          "type": "tuple"
        },
        {
          "components": [
            {
              "internalType": "address[]",
              "name": "path",
              "type": "address[]"
            },
            {
              "internalType": "address",
              "name": "dex",
              "type": "address"
            },
            {
              "internalType": "uint256",
              "name": "deadline",
              "type": "uint256"
            },
            {
              "internalType": "uint256",
              "name": "minRecvAmt",
              "type": "uint256"
            }
          ],
          "internalType": "struct TransferSwap.SwapInfo",
          "name": "_dstSwap",
          "type": "tuple"
        },
        {
          "internalType": "uint32",
          "name": "_maxBridgeSlippage",
          "type": "uint32"
        },
        {
          "internalType": "uint64",
          "name": "_nonce",
          "type": "uint64"
        },
        {
          "internalType": "bool",
          "name": "_nativeOut",
          "type": "bool"
        }
      ],
      "name": "transferWithSwapNative",
      "outputs": [],
      "stateMutability": "payable",
      "type": "function"
    },
    {
      "stateMutability": "payable",
      "type": "receive"
    }
  ],
  "transactionHash": "0x6b14a779c0e4916ac08d4d5a8ff247dc33dab84c2e8d4af76c6d72b0e21cdf86",
  "args": [
    "0x16365b45EB269B5B5dACB34B4a15399Ec79b95eB",
    "0x1b02dA8Cb0d097eB8D57A175b88c7D8b47997506",
    "0xB5df797468E6e8f2Cb293Cd6e32939366e0F8733",
    "0xc2132d05d31c914a87c6611c10748aeb04b58e8f",
    "0x0d500b1d8e8ef31e21c99d1db9a6444d3adf1270"
  ],
  "solcInputHash": "f3d7c4db4d5b75e39f4f3c7ab6094c81",
  "bytecode": "0x60806040523480156200001157600080fd5b5060405162002ca538038062002ca5833981016040819052620000349162000126565b6200003f33620000b9565b600180546001600160a01b03199081166001600160a01b039788161782559486166000908152600760209081526040808320805460ff199081168617909155600280548a16988b16989098179097559488168252600590529290922080549093169091179091556008805491909316911617905562000196565b600080546001600160a01b038381166001600160a01b0319831681178455604051919092169283917f8be0079c531659141344cd1fd0a4f28419497f9722a3daafe3b4186f6b6457e09190a35050565b80516001600160a01b03811681146200012157600080fd5b919050565b600080600080600060a086880312156200013f57600080fd5b6200014a8662000109565b94506200015a6020870162000109565b93506200016a6040870162000109565b92506200017a6060870162000109565b91506200018a6080870162000109565b90509295509295909350565b612aff80620001a66000396000f3fe6080604052600436106101845760003560e01c8063715018a6116100d6578063ce35dd9a1161007f578063dfa2dbaf11610059578063dfa2dbaf14610451578063f00f39ce14610471578063f2fde38b1461049157600080fd5b8063ce35dd9a146103f1578063d8257d1714610411578063d9b796de1461043157600080fd5b80638da5cb5b116100b05780638da5cb5b146103935780639b05a775146103b1578063a8a7e29c146103d157600080fd5b8063715018a61461033e5780637de805881461035357806382980dc41461037357600080fd5b806344f653eb11610138578063588be02b11610112578063588be02b146102eb5780635b5a66a71461030b5780635fdb3d8d1461032b57600080fd5b806344f653eb14610273578063457bfa2f14610293578063496dbfd9146102cb57600080fd5b806328c9c35e1161016957806328c9c35e146101d257806334e18125146102185780633f0bbc4c1461025357600080fd5b806303cbfe66146101905780631599d265146101b257600080fd5b3661018b57005b600080fd5b34801561019c57600080fd5b506101b06101ab366004611f70565b6104b1565b005b3480156101be57600080fd5b506101b06101cd366004611fa3565b610520565b3480156101de57600080fd5b506102026101ed366004611f70565b60056020526000908152604090205460ff1681565b60405161020f9190612069565b60405180910390f35b34801561022457600080fd5b50610245610233366004611f70565b60066020526000908152604090205481565b60405190815260200161020f565b34801561025f57600080fd5b506101b061026e36600461207c565b610580565b34801561027f57600080fd5b506101b061028e366004611f70565b610606565b34801561029f57600080fd5b506008546102b3906001600160a01b031681565b6040516001600160a01b03909116815260200161020f565b3480156102d757600080fd5b506101b06102e63660046120b9565b610670565b3480156102f757600080fd5b506101b0610306366004611f70565b6106d4565b34801561031757600080fd5b506101b0610326366004611f70565b61073e565b6101b061033936600461211f565b6107a8565b34801561034a57600080fd5b506101b0610947565b34801561035f57600080fd5b506001546102b3906001600160a01b031681565b34801561037f57600080fd5b506002546102b3906001600160a01b031681565b34801561039f57600080fd5b506000546001600160a01b03166102b3565b3480156103bd57600080fd5b506101b06103cc366004611f70565b61099b565b3480156103dd57600080fd5b506101b06103ec3660046121ea565b610a05565b3480156103fd57600080fd5b506101b061040c366004612312565b610aaf565b34801561041d57600080fd5b506004546102b3906001600160a01b031681565b34801561043d57600080fd5b506101b061044c3660046123e9565b610d0e565b34801561045d57600080fd5b506003546102b3906001600160a01b031681565b34801561047d57600080fd5b506101b061048c366004612312565b610d81565b34801561049d57600080fd5b506101b06104ac366004611f70565b610e4d565b6000546001600160a01b031633146104fe5760405162461bcd60e51b81526020600482018190526024820152600080516020612aaa83398151915260448201526064015b60405180910390fd5b600380546001600160a01b0319166001600160a01b0392909216919091179055565b6001546001600160a01b0316331461057a5760405162461bcd60e51b815260206004820152601960248201527f63616c6c6572206973206e6f74206d657373616765206275730000000000000060448201526064016104f5565b50505050565b6000546001600160a01b031633146105c85760405162461bcd60e51b81526020600482018190526024820152600080516020612aaa83398151915260448201526064016104f5565b6001600160a01b0382166000908152600560205260409020805482919060ff191660018360038111156105fd576105fd612035565b02179055505050565b6000546001600160a01b0316331461064e5760405162461bcd60e51b81526020600482018190526024820152600080516020612aaa83398151915260448201526064016104f5565b600180546001600160a01b0319166001600160a01b0392909216919091179055565b6000546001600160a01b031633146106b85760405162461bcd60e51b81526020600482018190526024820152600080516020612aaa83398151915260448201526064016104f5565b6001600160a01b03909116600090815260066020526040902055565b6000546001600160a01b0316331461071c5760405162461bcd60e51b81526020600482018190526024820152600080516020612aaa83398151915260448201526064016104f5565b600280546001600160a01b0319166001600160a01b0392909216919091179055565b6000546001600160a01b031633146107865760405162461bcd60e51b81526020600482018190526024820152600080516020612aaa83398151915260448201526064016104f5565b600880546001600160a01b0319166001600160a01b0392909216919091179055565b3332146107e15760405162461bcd60e51b81526020600482015260076024820152664e6f7420454f4160c81b60448201526064016104f5565b8634146108305760405162461bcd60e51b815260206004820152600f60248201527f416d6f756e74206d69736d61746368000000000000000000000000000000000060448201526064016104f5565b6008546001600160a01b03166108468680612417565b600081811061085757610857612461565b905060200201602081019061086c9190611f70565b6001600160a01b0316146108b35760405162461bcd60e51b815260206004820152600e60248201526d0e8ded6cadc40dad2e6dac2e8c6d60931b60448201526064016104f5565b600860009054906101000a90046001600160a01b03166001600160a01b031663d0e30db0886040518263ffffffff1660e01b81526004016000604051808303818588803b15801561090357600080fd5b505af1158015610917573d6000803e3d6000fd5b505050505061093d8888888861092c9061249b565b6109358961249b565b888888610f1d565b5050505050505050565b6000546001600160a01b0316331461098f5760405162461bcd60e51b81526020600482018190526024820152600080516020612aaa83398151915260448201526064016104f5565b61099960006113b7565b565b6000546001600160a01b031633146109e35760405162461bcd60e51b81526020600482018190526024820152600080516020612aaa83398151915260448201526064016104f5565b600480546001600160a01b0319166001600160a01b0392909216919091179055565b333214610a3e5760405162461bcd60e51b81526020600482015260076024820152664e6f7420454f4160c81b60448201526064016104f5565b610a85333088610a4e8880612417565b6000818110610a5f57610a5f612461565b9050602002016020810190610a749190611f70565b6001600160a01b0316929190611407565b610aa6878787610a948861249b565b610a9d8861249b565b87876000610f1d565b50505050505050565b6001546001600160a01b03163314610b095760405162461bcd60e51b815260206004820152601960248201527f63616c6c6572206973206e6f74206d657373616765206275730000000000000060448201526064016104f5565b600081806020019051810190610b1f9190612588565b805151805191925090600090610b3757610b37612461565b60200260200101516001600160a01b0316856001600160a01b031614610beb5760405162461bcd60e51b815260206004820152604a60248201527f6272696467656420746f6b656e206d757374206265207468652073616d65206160448201527f732074686520666972737420746f6b656e20696e2064657374696e6174696f6e60648201527f2073776170207061746800000000000000000000000000000000000000000000608482015260a4016104f5565b6000610bfd826020015185468661149f565b82515151909150600090600190811015610c90578351600190610c2090896114d8565b935090508015610c71578451518051610c689190610c40906001906126ec565b81518110610c5057610c50612461565b60200260200101518487602001518860600151611625565b60019150610c8a565b610c82898987602001516000611625565b879250600391505b50610cc8565b8351518051610cc19190600090610ca957610ca9612461565b60200260200101518886602001518760600151611625565b5085905060015b7fccbb695db2dfb79e3f69bcf724d11b850c79b0ae358e62d60ed94044f38a2b9c838383604051610cfb93929190612703565b60405180910390a1505050505050505050565b6000546001600160a01b03163314610d565760405162461bcd60e51b81526020600482018190526024820152600080516020612aaa83398151915260448201526064016104f5565b6001600160a01b03919091166000908152600760205260409020805460ff1916911515919091179055565b6001546001600160a01b03163314610ddb5760405162461bcd60e51b815260206004820152601960248201527f63616c6c6572206973206e6f74206d657373616765206275730000000000000060448201526064016104f5565b600081806020019051810190610df19190612588565b90506000610e05826020015185468661149f565b90507fccbb695db2dfb79e3f69bcf724d11b850c79b0ae358e62d60ed94044f38a2b9c8160006002604051610e3c93929190612703565b60405180910390a150505050505050565b6000546001600160a01b03163314610e955760405162461bcd60e51b81526020600482018190526024820152600080516020612aaa83398151915260448201526064016104f5565b6001600160a01b038116610f115760405162461bcd60e51b815260206004820152602660248201527f4f776e61626c653a206e6577206f776e657220697320746865207a65726f206160448201527f646472657373000000000000000000000000000000000000000000000000000060648201526084016104f5565b610f1a816113b7565b50565b845151610f6c5760405162461bcd60e51b815260206004820152601360248201527f656d70747920737263207377617020706174680000000000000000000000000060448201526064016104f5565b8451805160009190610f80906001906126ec565b81518110610f9057610f90612461565b60200260200101519050600660008760000151600081518110610fb557610fb5612461565b60200260200101516001600160a01b03166001600160a01b031681526020019081526020016000205488116110525760405162461bcd60e51b815260206004820152602c60248201527f616d6f756e74206d757374206265206772656174656572207468616e206d696e60448201527f207377617020616d6f756e74000000000000000000000000000000000000000060648201526084016104f5565b85515146906001108061107957508067ffffffffffffffff168867ffffffffffffffff1614155b6110c55760405162461bcd60e51b815260206004820152601360248201527f6e6f6f70206973206e6f7420616c6c6f7765640000000000000000000000000060448201526064016104f5565b8651518990600110156111315760016110de898c6114d8565b925090508061112f5760405162461bcd60e51b815260206004820152600f60248201527f7372632073776170206661696c6564000000000000000000000000000000000060448201526064016104f5565b505b60008267ffffffffffffffff168a67ffffffffffffffff161415611227576111636001600160a01b0385168d84611795565b33838d888c60405160200161117c9594939291906127a0565b6040516020818303038152906040528051906020012090507fdbd876e57420a75850bd1ce36de349d111ab4ff35e2c2379af8acc750376917481848d8c600001516000815181106111cf576111cf612461565b6020908102919091018101516040805195865267ffffffffffffffff90941691850191909152918301526001600160a01b03908116606083015260808201859052861660a082015260c00160405180910390a16113a9565b8751516112765760405162461bcd60e51b815260206004820152601360248201527f656d70747920647374207377617020706174680000000000000000000000000060448201526064016104f5565b600060405180608001604052808a8152602001336001600160a01b031681526020018867ffffffffffffffff1681526020018715158152506040516020016112be91906127e6565b60405160208183030381529060405290506112db33858d8461149f565b91506112ec8d86858e8b8d876117ca565b7f600b63623f19b18f8f0e7825ec78b3d9779d8124c76ad75b58aac7167f04f8d2828c8e8d6000015160008151811061132757611327612461565b60209081029190910101518d518051611342906001906126ec565b8151811061135257611352612461565b602002602001015160405161139f95949392919094855267ffffffffffffffff93909316602085015260408401919091526001600160a01b03908116606084015216608082015260a00190565b60405180910390a1505b505050505050505050505050565b600080546001600160a01b038381166001600160a01b0319831681178455604051919092169283917f8be0079c531659141344cd1fd0a4f28419497f9722a3daafe3b4186f6b6457e09190a35050565b6040516001600160a01b038085166024830152831660448201526064810182905261057a9085906323b872dd60e01b906084015b60408051601f198184030181529190526020810180517bffffffffffffffffffffffffffffffffffffffffffffffffffffffff167fffffffff0000000000000000000000000000000000000000000000000000000090931692909217909152611c14565b6000848484846040516020016114b8949392919061286d565b604051602081830303815290604052805190602001209050949350505050565b6020808301516001600160a01b03166000908152600790915260408120548190819060ff1661150c5760009250905061161e565b61154c856020015185876000015160008151811061152c5761152c612461565b60200260200101516001600160a01b0316611cf99092919063ffffffff16565b84602001516001600160a01b03166338ed17398587606001518860000151308a604001516040518663ffffffff1660e01b81526004016115909594939291906128c7565b600060405180830381600087803b1580156115aa57600080fd5b505af19250505080156115df57506040513d6000823e601f3d908101601f191682016040526115dc9190810190612938565b60015b6115ee5760009250905061161e565b600181600183516115ff91906126ec565b8151811061160f5761160f612461565b60200260200101519350935050505b9250929050565b8015611785576008546001600160a01b038581169116146116795760405162461bcd60e51b815260206004820152600e60248201526d0e8ded6cadc40dad2e6dac2e8c6d60931b60448201526064016104f5565b600854604051632e1a7d4d60e01b8152600481018590526001600160a01b0390911690632e1a7d4d90602401600060405180830381600087803b1580156116bf57600080fd5b505af11580156116d3573d6000803e3d6000fd5b505050506000826001600160a01b03168461c35090604051600060405180830381858888f193505050503d8060008114611729576040519150601f19603f3d011682016040523d82523d6000602084013e61172e565b606091505b505090508061177f5760405162461bcd60e51b815260206004820152601560248201527f6661696c656420746f2073656e64206e6174697665000000000000000000000060448201526064016104f5565b5061057a565b61057a6001600160a01b03851683855b6040516001600160a01b0383166024820152604481018290526117c590849063a9059cbb60e01b9060640161143b565b505050565b6001600160a01b03861660009081526005602052604081205460ff16908060018360038111156117fc576117fc612035565b1415611938576002546001600160a01b03908116925061181f908a16838a611cf9565b60025460405163a5977fbb60e01b81526001600160a01b038c811660048301528b81166024830152604482018b905267ffffffffffffffff808b1660648401528916608483015263ffffffff881660a48301529091169063a5977fbb9060c401600060405180830381600087803b15801561189957600080fd5b505af11580156118ad573d6000803e3d6000fd5b50506040516bffffffffffffffffffffffff1930606090811b821660208401528e811b821660348401528d901b166048820152605c81018b90526001600160c01b031960c08b811b8216607c8401528a811b8216608484015246901b16608c820152609401915061191b9050565b604051602081830303815290604052805190602001209050611b9e565b600283600381111561194c5761194c612035565b1415611a5b57600480546040516308d18d8960e21b81526001600160a01b038c811693820193909352602481018b905267ffffffffffffffff808b1660448301528d841660648301528916608482015291169250829063234636249060a401600060405180830381600087803b1580156119c557600080fd5b505af11580156119d9573d6000803e3d6000fd5b50505050308989898d8a4660405160200161191b9796959493929190606097881b6bffffffffffffffffffffffff19908116825296881b87166014820152602881019590955260c093841b6001600160c01b031990811660488701529290961b909416605084015292811b831660648301529290921b16606c82015260740190565b6003836003811115611a6f57611a6f612035565b1415611b5657600354604051636f3c863f60e11b81526001600160a01b038b81166004830152602482018b90528c8116604483015267ffffffffffffffff891660648301529091169250829063de790c7e90608401600060405180830381600087803b158015611ade57600080fd5b505af1158015611af2573d6000803e3d6000fd5b50506040516bffffffffffffffffffffffff1930606090811b821660208401528d811b82166034840152604883018d90528e901b1660688201526001600160c01b031960c08a811b8216607c84015246901b166084820152608c01915061191b9050565b60405162461bcd60e51b815260206004820152601a60248201527f62726964676520746f6b656e206e6f7420737570706f7274656400000000000060448201526064016104f5565b600154604051634289fbb360e01b81526001600160a01b0390911690634289fbb390611bd6908d908b90879087908b906004016129ea565b600060405180830381600087803b158015611bf057600080fd5b505af1158015611c04573d6000803e3d6000fd5b5050505050505050505050505050565b6000611c69826040518060400160405280602081526020017f5361666545524332303a206c6f772d6c6576656c2063616c6c206661696c6564815250856001600160a01b0316611dba9092919063ffffffff16565b8051909150156117c55780806020019051810190611c879190612a2c565b6117c55760405162461bcd60e51b815260206004820152602a60248201527f5361666545524332303a204552433230206f7065726174696f6e20646964206e60448201527f6f7420737563636565640000000000000000000000000000000000000000000060648201526084016104f5565b604051636eb1769f60e11b81523060048201526001600160a01b038381166024830152600091839186169063dd62ed3e9060440160206040518083038186803b158015611d4557600080fd5b505afa158015611d59573d6000803e3d6000fd5b505050506040513d601f19601f82011682018060405250810190611d7d9190612a49565b611d879190612a62565b6040516001600160a01b03851660248201526044810182905290915061057a90859063095ea7b360e01b9060640161143b565b6060611dc98484600085611dd3565b90505b9392505050565b606082471015611e4b5760405162461bcd60e51b815260206004820152602660248201527f416464726573733a20696e73756666696369656e742062616c616e636520666f60448201527f722063616c6c000000000000000000000000000000000000000000000000000060648201526084016104f5565b843b611e995760405162461bcd60e51b815260206004820152601d60248201527f416464726573733a2063616c6c20746f206e6f6e2d636f6e747261637400000060448201526064016104f5565b600080866001600160a01b03168587604051611eb59190612a7a565b60006040518083038185875af1925050503d8060008114611ef2576040519150601f19603f3d011682016040523d82523d6000602084013e611ef7565b606091505b5091509150611f07828286611f12565b979650505050505050565b60608315611f21575081611dcc565b825115611f315782518084602001fd5b8160405162461bcd60e51b81526004016104f59190612a96565b6001600160a01b0381168114610f1a57600080fd5b8035611f6b81611f4b565b919050565b600060208284031215611f8257600080fd5b8135611dcc81611f4b565b67ffffffffffffffff81168114610f1a57600080fd5b60008060008060608587031215611fb957600080fd5b8435611fc481611f4b565b93506020850135611fd481611f8d565b9250604085013567ffffffffffffffff80821115611ff157600080fd5b818701915087601f83011261200557600080fd5b81358181111561201457600080fd5b88602082850101111561202657600080fd5b95989497505060200194505050565b634e487b7160e01b600052602160045260246000fd5b60048110610f1a57634e487b7160e01b600052602160045260246000fd5b602081016120768361204b565b91905290565b6000806040838503121561208f57600080fd5b823561209a81611f4b565b91506020830135600481106120ae57600080fd5b809150509250929050565b600080604083850312156120cc57600080fd5b82356120d781611f4b565b946020939093013593505050565b6000608082840312156120f757600080fd5b50919050565b803563ffffffff81168114611f6b57600080fd5b8015158114610f1a57600080fd5b600080600080600080600080610100898b03121561213c57600080fd5b883561214781611f4b565b975060208901359650604089013561215e81611f8d565b9550606089013567ffffffffffffffff8082111561217b57600080fd5b6121878c838d016120e5565b965060808b013591508082111561219d57600080fd5b506121aa8b828c016120e5565b9450506121b960a08a016120fd565b925060c08901356121c981611f8d565b915060e08901356121d981612111565b809150509295985092959890939650565b600080600080600080600060e0888a03121561220557600080fd5b873561221081611f4b565b965060208801359550604088013561222781611f8d565b9450606088013567ffffffffffffffff8082111561224457600080fd5b6122508b838c016120e5565b955060808a013591508082111561226657600080fd5b506122738a828b016120e5565b93505061228260a089016120fd565b915060c088013561229281611f8d565b8091505092959891949750929550565b634e487b7160e01b600052604160045260246000fd5b6040516080810167ffffffffffffffff811182821017156122db576122db6122a2565b60405290565b604051601f8201601f1916810167ffffffffffffffff8111828210171561230a5761230a6122a2565b604052919050565b600080600080600060a0868803121561232a57600080fd5b853561233581611f4b565b945060208681013561234681611f4b565b945060408701359350606087013561235d81611f8d565b9250608087013567ffffffffffffffff8082111561237a57600080fd5b818901915089601f83011261238e57600080fd5b8135818111156123a0576123a06122a2565b6123b2601f8201601f191685016122e1565b91508082528a848285010111156123c857600080fd5b80848401858401376000848284010152508093505050509295509295909350565b600080604083850312156123fc57600080fd5b823561240781611f4b565b915060208301356120ae81612111565b6000808335601e1984360301811261242e57600080fd5b83018035915067ffffffffffffffff82111561244957600080fd5b6020019150600581901b360382131561161e57600080fd5b634e487b7160e01b600052603260045260246000fd5b600067ffffffffffffffff821115612491576124916122a2565b5060051b60200190565b6000608082360312156124ad57600080fd5b6124b56122b8565b823567ffffffffffffffff8111156124cc57600080fd5b830136601f8201126124dd57600080fd5b803560206124f26124ed83612477565b6122e1565b82815260059290921b8301810191818101903684111561251157600080fd5b938201935b8385101561253857843561252981611f4b565b82529382019390820190612516565b855250612546868201611f60565b90840152505060408381013590820152606092830135928101929092525090565b8051611f6b81611f4b565b8051611f6b81611f8d565b8051611f6b81612111565b6000602080838503121561259b57600080fd5b825167ffffffffffffffff808211156125b357600080fd5b90840190608082870312156125c757600080fd5b6125cf6122b8565b8251828111156125de57600080fd5b8301608081890312156125f057600080fd5b6125f86122b8565b81518481111561260757600080fd5b82019350601f8401891361261a57600080fd5b83516126286124ed82612477565b81815260059190911b8501870190878101908b83111561264757600080fd5b958801955b8287101561266e57865161265f81611f4b565b8252958801959088019061264c565b83525061267e9050828701612567565b86820152604082015160408201526060820151606082015280835250506126a6848401612567565b848201526126b660408401612572565b60408201526126c76060840161257d565b60608201529695505050505050565b634e487b7160e01b600052601160045260246000fd5b6000828210156126fe576126fe6126d6565b500390565b838152602081018390526060810161271a8361204b565b826040830152949350505050565b8051608080845281519084018190526000916020919082019060a0860190845b8181101561276d5783516001600160a01b031683529284019291840191600101612748565b50506001600160a01b03838601511683870152604085015160408701526060850151606087015280935050505092915050565b60006001600160a01b03808816835267ffffffffffffffff808816602085015281871660408501528086166060850152505060a06080830152611f0760a0830184612728565b60208152600082516080602084015261280260a0840182612728565b90506001600160a01b03602085015116604084015267ffffffffffffffff60408501511660608401526060840151151560808401528091505092915050565b60005b8381101561285c578181015183820152602001612844565b8381111561057a5750506000910152565b6bffffffffffffffffffffffff198560601b16815260006001600160c01b0319808660c01b166014840152808560c01b16601c8401525082516128b7816024850160208701612841565b9190910160240195945050505050565b600060a082018783526020878185015260a0604085015281875180845260c086019150828901935060005b818110156129175784516001600160a01b0316835293830193918301916001016128f2565b50506001600160a01b03969096166060850152505050608001529392505050565b6000602080838503121561294b57600080fd5b825167ffffffffffffffff81111561296257600080fd5b8301601f8101851361297357600080fd5b80516129816124ed82612477565b81815260059190911b820183019083810190878311156129a057600080fd5b928401925b82841015611f07578351825292840192908401906129a5565b600081518084526129d6816020860160208601612841565b601f01601f19169290920160200192915050565b60006001600160a01b03808816835267ffffffffffffffff8716602084015280861660408401525083606083015260a06080830152611f0760a08301846129be565b600060208284031215612a3e57600080fd5b8151611dcc81612111565b600060208284031215612a5b57600080fd5b5051919050565b60008219821115612a7557612a756126d6565b500190565b60008251612a8c818460208701612841565b9190910192915050565b602081526000611dcc60208301846129be56fe4f776e61626c653a2063616c6c6572206973206e6f7420746865206f776e6572a2646970667358221220dba0503cd651e6b0d0fb57d7f096e04a66a537ca0da2bce7c3d86523d4d3cc4264736f6c63430008090033",
  "devdoc": {
    "kind": "dev",
    "methods": {
      "executeMessageWithTransfer(address,address,uint256,uint64,bytes)": {
        "params": {
          "_amount": "the amount of tokens received at this contract through the cross-chain bridge",
          "_message": "SwapRequest message that defines the swap behavior on this destination chain",
          "_srcChainId": "source chain ID",
          "_token": "the address of the token sent through the bridge"
        }
      },
      "executeMessageWithTransferFallback(address,address,uint256,uint64,bytes)": {
        "params": {
          "_message": "SwapRequest message that defines the swap behavior on this destination chain",
          "_srcChainId": "source chain ID"
        }
      },
      "owner()": {
        "details": "Returns the address of the current owner."
      },
      "renounceOwnership()": {
        "details": "Leaves the contract without owner. It will not be possible to call `onlyOwner` functions anymore. Can only be called by the current owner. NOTE: Renouncing ownership will leave the contract without an owner, thereby removing any functionality that is only available to the owner."
      },
      "transferOwnership(address)": {
        "details": "Transfers ownership of the contract to a new account (`newOwner`). Can only be called by the current owner."
      }
    },
    "version": 1
  },
  "userdoc": {
    "kind": "user",
    "methods": {
      "executeMessageWithTransfer(address,address,uint256,uint64,bytes)": {
        "notice": "called by MessageBus when the tokens are checked to be arrived at this contract's address. sends the amount received to the receiver. swaps beforehand if swap behavior is defined in message NOTE: if the swap fails, it sends the tokens received directly to the receiver as fallback behavior"
      },
      "executeMessageWithTransferFallback(address,address,uint256,uint64,bytes)": {
        "notice": "called by MessageBus when the executeMessageWithTransfer call fails. does nothing but emitting a \"fail\" event"
      }
    },
    "version": 1
  },
  "storageLayout": {
    "storage": [
      {
        "astId": 7,
        "contract": "contracts/message/apps/TransferSwap.sol:TransferSwap",
        "label": "_owner",
        "offset": 0,
        "slot": "0",
        "type": "t_address"
      },
      {
        "astId": 11909,
        "contract": "contracts/message/apps/TransferSwap.sol:TransferSwap",
        "label": "msgBus",
        "offset": 0,
        "slot": "1",
        "type": "t_address"
      },
      {
        "astId": 11999,
        "contract": "contracts/message/apps/TransferSwap.sol:TransferSwap",
        "label": "liquidityBridge",
        "offset": 0,
        "slot": "2",
        "type": "t_address"
      },
      {
        "astId": 12001,
        "contract": "contracts/message/apps/TransferSwap.sol:TransferSwap",
        "label": "pegBridge",
        "offset": 0,
        "slot": "3",
        "type": "t_address"
      },
      {
        "astId": 12003,
        "contract": "contracts/message/apps/TransferSwap.sol:TransferSwap",
        "label": "pegVault",
        "offset": 0,
        "slot": "4",
        "type": "t_address"
      },
      {
        "astId": 12013,
        "contract": "contracts/message/apps/TransferSwap.sol:TransferSwap",
        "label": "tokenBridgeTypes",
        "offset": 0,
        "slot": "5",
        "type": "t_mapping(t_address,t_enum(BridgeType)12008)"
      },
      {
        "astId": 11031,
        "contract": "contracts/message/apps/TransferSwap.sol:TransferSwap",
        "label": "minSwapAmounts",
        "offset": 0,
        "slot": "6",
        "type": "t_mapping(t_address,t_uint256)"
      },
      {
        "astId": 11035,
        "contract": "contracts/message/apps/TransferSwap.sol:TransferSwap",
        "label": "supportedDex",
        "offset": 0,
        "slot": "7",
        "type": "t_mapping(t_address,t_bool)"
      },
      {
        "astId": 11037,
        "contract": "contracts/message/apps/TransferSwap.sol:TransferSwap",
        "label": "nativeWrap",
        "offset": 0,
        "slot": "8",
        "type": "t_address"
      }
    ],
    "types": {
      "t_address": {
        "encoding": "inplace",
        "label": "address",
        "numberOfBytes": "20"
      },
      "t_bool": {
        "encoding": "inplace",
        "label": "bool",
        "numberOfBytes": "1"
      },
      "t_enum(BridgeType)12008": {
        "encoding": "inplace",
        "label": "enum MsgSenderApp.BridgeType",
        "numberOfBytes": "1"
      },
      "t_mapping(t_address,t_bool)": {
        "encoding": "mapping",
        "key": "t_address",
        "label": "mapping(address => bool)",
        "numberOfBytes": "32",
        "value": "t_bool"
      },
      "t_mapping(t_address,t_enum(BridgeType)12008)": {
        "encoding": "mapping",
        "key": "t_address",
        "label": "mapping(address => enum MsgSenderApp.BridgeType)",
        "numberOfBytes": "32",
        "value": "t_enum(BridgeType)12008"
      },
      "t_mapping(t_address,t_uint256)": {
        "encoding": "mapping",
        "key": "t_address",
        "label": "mapping(address => uint256)",
        "numberOfBytes": "32",
        "value": "t_uint256"
      },
      "t_uint256": {
        "encoding": "inplace",
        "label": "uint256",
        "numberOfBytes": "32"
      }
    }
  }
}