{
  "address": "0x9Bb46D5100d2Db4608112026951c9C965b233f4D",
  "abi": [
    {
      "inputs": [
        {
          "internalType": "contract ISigsVerifier",
          "name": "_sigsVerifier",
          "type": "address"
        }
      ],
      "stateMutability": "nonpayable",
      "type": "constructor"
    },
    {
      "anonymous": false,
      "inputs": [
        {
          "indexed": false,
          "internalType": "uint256",
          "name": "period",
          "type": "uint256"
        }
      ],
      "name": "DelayPeriodUpdated",
      "type": "event"
    },
    {
      "anonymous": false,
      "inputs": [
        {
          "indexed": false,
          "internalType": "address",
          "name": "token",
          "type": "address"
        },
        {
          "indexed": false,
          "internalType": "uint256",
          "name": "threshold",
          "type": "uint256"
        }
      ],
      "name": "DelayThresholdUpdated",
      "type": "event"
    },
    {
      "anonymous": false,
      "inputs": [
        {
          "indexed": false,
          "internalType": "bytes32",
          "name": "id",
          "type": "bytes32"
        }
      ],
      "name": "DelayedTransferAdded",
      "type": "event"
    },
    {
      "anonymous": false,
      "inputs": [
        {
          "indexed": false,
          "internalType": "bytes32",
          "name": "id",
          "type": "bytes32"
        },
        {
          "indexed": false,
          "internalType": "address",
          "name": "receiver",
          "type": "address"
        },
        {
          "indexed": false,
          "internalType": "address",
          "name": "token",
          "type": "address"
        },
        {
          "indexed": false,
          "internalType": "uint256",
          "name": "amount",
          "type": "uint256"
        }
      ],
      "name": "DelayedTransferExecuted",
      "type": "event"
    },
    {
      "anonymous": false,
      "inputs": [
        {
          "indexed": false,
          "internalType": "bytes32",
          "name": "depositId",
          "type": "bytes32"
        },
        {
          "indexed": false,
          "internalType": "address",
          "name": "depositor",
          "type": "address"
        },
        {
          "indexed": false,
          "internalType": "address",
          "name": "token",
          "type": "address"
        },
        {
          "indexed": false,
          "internalType": "uint256",
          "name": "amount",
          "type": "uint256"
        },
        {
          "indexed": false,
          "internalType": "uint64",
          "name": "mintChainId",
          "type": "uint64"
        },
        {
          "indexed": false,
          "internalType": "address",
          "name": "mintAccount",
          "type": "address"
        },
        {
          "indexed": false,
          "internalType": "uint64",
          "name": "nonce",
          "type": "uint64"
        }
      ],
      "name": "Deposited",
      "type": "event"
    },
    {
      "anonymous": false,
      "inputs": [
        {
          "indexed": false,
          "internalType": "uint256",
          "name": "length",
          "type": "uint256"
        }
      ],
      "name": "EpochLengthUpdated",
      "type": "event"
    },
    {
      "anonymous": false,
      "inputs": [
        {
          "indexed": false,
          "internalType": "address",
          "name": "token",
          "type": "address"
        },
        {
          "indexed": false,
          "internalType": "uint256",
          "name": "cap",
          "type": "uint256"
        }
      ],
      "name": "EpochVolumeUpdated",
      "type": "event"
    },
    {
      "anonymous": false,
      "inputs": [
        {
          "indexed": false,
          "internalType": "address",
          "name": "account",
          "type": "address"
        }
      ],
      "name": "GovernorAdded",
      "type": "event"
    },
    {
      "anonymous": false,
      "inputs": [
        {
          "indexed": false,
          "internalType": "address",
          "name": "account",
          "type": "address"
        }
      ],
      "name": "GovernorRemoved",
      "type": "event"
    },
    {
      "anonymous": false,
      "inputs": [
        {
          "indexed": false,
          "internalType": "address",
          "name": "token",
          "type": "address"
        },
        {
          "indexed": false,
          "internalType": "uint256",
          "name": "amount",
          "type": "uint256"
        }
      ],
      "name": "MaxDepositUpdated",
      "type": "event"
    },
    {
      "anonymous": false,
      "inputs": [
        {
          "indexed": false,
          "internalType": "address",
          "name": "token",
          "type": "address"
        },
        {
          "indexed": false,
          "internalType": "uint256",
          "name": "amount",
          "type": "uint256"
        }
      ],
      "name": "MinDepositUpdated",
      "type": "event"
    },
    {
      "anonymous": false,
      "inputs": [
        {
          "indexed": true,
          "internalType": "address",
          "name": "previousOwner",
          "type": "address"
        },
        {
          "indexed": true,
          "internalType": "address",
          "name": "newOwner",
          "type": "address"
        }
      ],
      "name": "OwnershipTransferred",
      "type": "event"
    },
    {
      "anonymous": false,
      "inputs": [
        {
          "indexed": false,
          "internalType": "address",
          "name": "account",
          "type": "address"
        }
      ],
      "name": "Paused",
      "type": "event"
    },
    {
      "anonymous": false,
      "inputs": [
        {
          "indexed": false,
          "internalType": "address",
          "name": "account",
          "type": "address"
        }
      ],
      "name": "PauserAdded",
      "type": "event"
    },
    {
      "anonymous": false,
      "inputs": [
        {
          "indexed": false,
          "internalType": "address",
          "name": "account",
          "type": "address"
        }
      ],
      "name": "PauserRemoved",
      "type": "event"
    },
    {
      "anonymous": false,
      "inputs": [
        {
          "indexed": false,
          "internalType": "address",
          "name": "account",
          "type": "address"
        }
      ],
      "name": "Unpaused",
      "type": "event"
    },
    {
      "anonymous": false,
      "inputs": [
        {
          "indexed": false,
          "internalType": "bytes32",
          "name": "withdrawId",
          "type": "bytes32"
        },
        {
          "indexed": false,
          "internalType": "address",
          "name": "receiver",
          "type": "address"
        },
        {
          "indexed": false,
          "internalType": "address",
          "name": "token",
          "type": "address"
        },
        {
          "indexed": false,
          "internalType": "uint256",
          "name": "amount",
          "type": "uint256"
        },
        {
          "indexed": false,
          "internalType": "uint64",
          "name": "refChainId",
          "type": "uint64"
        },
        {
          "indexed": false,
          "internalType": "bytes32",
          "name": "refId",
          "type": "bytes32"
        },
        {
          "indexed": false,
          "internalType": "address",
          "name": "burnAccount",
          "type": "address"
        }
      ],
      "name": "Withdrawn",
      "type": "event"
    },
    {
      "inputs": [
        {
          "internalType": "address",
          "name": "_account",
          "type": "address"
        }
      ],
      "name": "addGovernor",
      "outputs": [],
      "stateMutability": "nonpayable",
      "type": "function"
    },
    {
      "inputs": [
        {
          "internalType": "address",
          "name": "account",
          "type": "address"
        }
      ],
      "name": "addPauser",
      "outputs": [],
      "stateMutability": "nonpayable",
      "type": "function"
    },
    {
      "inputs": [],
      "name": "delayPeriod",
      "outputs": [
        {
          "internalType": "uint256",
          "name": "",
          "type": "uint256"
        }
      ],
      "stateMutability": "view",
      "type": "function"
    },
    {
      "inputs": [
        {
          "internalType": "address",
          "name": "",
          "type": "address"
        }
      ],
      "name": "delayThresholds",
      "outputs": [
        {
          "internalType": "uint256",
          "name": "",
          "type": "uint256"
        }
      ],
      "stateMutability": "view",
      "type": "function"
    },
    {
      "inputs": [
        {
          "internalType": "bytes32",
          "name": "",
          "type": "bytes32"
        }
      ],
      "name": "delayedTransfers",
      "outputs": [
        {
          "internalType": "address",
          "name": "receiver",
          "type": "address"
        },
        {
          "internalType": "address",
          "name": "token",
          "type": "address"
        },
        {
          "internalType": "uint256",
          "name": "amount",
          "type": "uint256"
        },
        {
          "internalType": "uint256",
          "name": "timestamp",
          "type": "uint256"
        }
      ],
      "stateMutability": "view",
      "type": "function"
    },
    {
      "inputs": [
        {
          "internalType": "address",
          "name": "_token",
          "type": "address"
        },
        {
          "internalType": "uint256",
          "name": "_amount",
          "type": "uint256"
        },
        {
          "internalType": "uint64",
          "name": "_mintChainId",
          "type": "uint64"
        },
        {
          "internalType": "address",
          "name": "_mintAccount",
          "type": "address"
        },
        {
          "internalType": "uint64",
          "name": "_nonce",
          "type": "uint64"
        }
      ],
      "name": "deposit",
      "outputs": [
        {
          "internalType": "bytes32",
          "name": "",
          "type": "bytes32"
        }
      ],
      "stateMutability": "nonpayable",
      "type": "function"
    },
    {
      "inputs": [
        {
          "internalType": "uint256",
          "name": "_amount",
          "type": "uint256"
        },
        {
          "internalType": "uint64",
          "name": "_mintChainId",
          "type": "uint64"
        },
        {
          "internalType": "address",
          "name": "_mintAccount",
          "type": "address"
        },
        {
          "internalType": "uint64",
          "name": "_nonce",
          "type": "uint64"
        }
      ],
      "name": "depositNative",
      "outputs": [
        {
          "internalType": "bytes32",
          "name": "",
          "type": "bytes32"
        }
      ],
      "stateMutability": "payable",
      "type": "function"
    },
    {
      "inputs": [],
      "name": "epochLength",
      "outputs": [
        {
          "internalType": "uint256",
          "name": "",
          "type": "uint256"
        }
      ],
      "stateMutability": "view",
      "type": "function"
    },
    {
      "inputs": [
        {
          "internalType": "address",
          "name": "",
          "type": "address"
        }
      ],
      "name": "epochVolumeCaps",
      "outputs": [
        {
          "internalType": "uint256",
          "name": "",
          "type": "uint256"
        }
      ],
      "stateMutability": "view",
      "type": "function"
    },
    {
      "inputs": [
        {
          "internalType": "address",
          "name": "",
          "type": "address"
        }
      ],
      "name": "epochVolumes",
      "outputs": [
        {
          "internalType": "uint256",
          "name": "",
          "type": "uint256"
        }
      ],
      "stateMutability": "view",
      "type": "function"
    },
    {
      "inputs": [
        {
          "internalType": "bytes32",
          "name": "id",
          "type": "bytes32"
        }
      ],
      "name": "executeDelayedTransfer",
      "outputs": [],
      "stateMutability": "nonpayable",
      "type": "function"
    },
    {
      "inputs": [
        {
          "internalType": "address",
          "name": "",
          "type": "address"
        }
      ],
      "name": "governors",
      "outputs": [
        {
          "internalType": "bool",
          "name": "",
          "type": "bool"
        }
      ],
      "stateMutability": "view",
      "type": "function"
    },
    {
      "inputs": [
        {
          "internalType": "address",
          "name": "_account",
          "type": "address"
        }
      ],
      "name": "isGovernor",
      "outputs": [
        {
          "internalType": "bool",
          "name": "",
          "type": "bool"
        }
      ],
      "stateMutability": "view",
      "type": "function"
    },
    {
      "inputs": [
        {
          "internalType": "address",
          "name": "account",
          "type": "address"
        }
      ],
      "name": "isPauser",
      "outputs": [
        {
          "internalType": "bool",
          "name": "",
          "type": "bool"
        }
      ],
      "stateMutability": "view",
      "type": "function"
    },
    {
      "inputs": [
        {
          "internalType": "address",
          "name": "",
          "type": "address"
        }
      ],
      "name": "lastOpTimestamps",
      "outputs": [
        {
          "internalType": "uint256",
          "name": "",
          "type": "uint256"
        }
      ],
      "stateMutability": "view",
      "type": "function"
    },
    {
      "inputs": [
        {
          "internalType": "address",
          "name": "",
          "type": "address"
        }
      ],
      "name": "maxDeposit",
      "outputs": [
        {
          "internalType": "uint256",
          "name": "",
          "type": "uint256"
        }
      ],
      "stateMutability": "view",
      "type": "function"
    },
    {
      "inputs": [
        {
          "internalType": "address",
          "name": "",
          "type": "address"
        }
      ],
      "name": "minDeposit",
      "outputs": [
        {
          "internalType": "uint256",
          "name": "",
          "type": "uint256"
        }
      ],
      "stateMutability": "view",
      "type": "function"
    },
    {
      "inputs": [],
      "name": "nativeTokenTransferGas",
      "outputs": [
        {
          "internalType": "uint256",
          "name": "",
          "type": "uint256"
        }
      ],
      "stateMutability": "view",
      "type": "function"
    },
    {
      "inputs": [],
      "name": "nativeWrap",
      "outputs": [
        {
          "internalType": "address",
          "name": "",
          "type": "address"
        }
      ],
      "stateMutability": "view",
      "type": "function"
    },
    {
      "inputs": [],
      "name": "owner",
      "outputs": [
        {
          "internalType": "address",
          "name": "",
          "type": "address"
        }
      ],
      "stateMutability": "view",
      "type": "function"
    },
    {
      "inputs": [],
      "name": "pause",
      "outputs": [],
      "stateMutability": "nonpayable",
      "type": "function"
    },
    {
      "inputs": [],
      "name": "paused",
      "outputs": [
        {
          "internalType": "bool",
          "name": "",
          "type": "bool"
        }
      ],
      "stateMutability": "view",
      "type": "function"
    },
    {
      "inputs": [
        {
          "internalType": "address",
          "name": "",
          "type": "address"
        }
      ],
      "name": "pausers",
      "outputs": [
        {
          "internalType": "bool",
          "name": "",
          "type": "bool"
        }
      ],
      "stateMutability": "view",
      "type": "function"
    },
    {
      "inputs": [
        {
          "internalType": "bytes32",
          "name": "",
          "type": "bytes32"
        }
      ],
      "name": "records",
      "outputs": [
        {
          "internalType": "bool",
          "name": "",
          "type": "bool"
        }
      ],
      "stateMutability": "view",
      "type": "function"
    },
    {
      "inputs": [
        {
          "internalType": "address",
          "name": "_account",
          "type": "address"
        }
      ],
      "name": "removeGovernor",
      "outputs": [],
      "stateMutability": "nonpayable",
      "type": "function"
    },
    {
      "inputs": [
        {
          "internalType": "address",
          "name": "account",
          "type": "address"
        }
      ],
      "name": "removePauser",
      "outputs": [],
      "stateMutability": "nonpayable",
      "type": "function"
    },
    {
      "inputs": [],
      "name": "renounceGovernor",
      "outputs": [],
      "stateMutability": "nonpayable",
      "type": "function"
    },
    {
      "inputs": [],
      "name": "renouncePauser",
      "outputs": [],
      "stateMutability": "nonpayable",
      "type": "function"
    },
    {
      "inputs": [
        {
          "internalType": "uint256",
          "name": "_period",
          "type": "uint256"
        }
      ],
      "name": "setDelayPeriod",
      "outputs": [],
      "stateMutability": "nonpayable",
      "type": "function"
    },
    {
      "inputs": [
        {
          "internalType": "address[]",
          "name": "_tokens",
          "type": "address[]"
        },
        {
          "internalType": "uint256[]",
          "name": "_thresholds",
          "type": "uint256[]"
        }
      ],
      "name": "setDelayThresholds",
      "outputs": [],
      "stateMutability": "nonpayable",
      "type": "function"
    },
    {
      "inputs": [
        {
          "internalType": "uint256",
          "name": "_length",
          "type": "uint256"
        }
      ],
      "name": "setEpochLength",
      "outputs": [],
      "stateMutability": "nonpayable",
      "type": "function"
    },
    {
      "inputs": [
        {
          "internalType": "address[]",
          "name": "_tokens",
          "type": "address[]"
        },
        {
          "internalType": "uint256[]",
          "name": "_caps",
          "type": "uint256[]"
        }
      ],
      "name": "setEpochVolumeCaps",
      "outputs": [],
      "stateMutability": "nonpayable",
      "type": "function"
    },
    {
      "inputs": [
        {
          "internalType": "address[]",
          "name": "_tokens",
          "type": "address[]"
        },
        {
          "internalType": "uint256[]",
          "name": "_amounts",
          "type": "uint256[]"
        }
      ],
      "name": "setMaxDeposit",
      "outputs": [],
      "stateMutability": "nonpayable",
      "type": "function"
    },
    {
      "inputs": [
        {
          "internalType": "address[]",
          "name": "_tokens",
          "type": "address[]"
        },
        {
          "internalType": "uint256[]",
          "name": "_amounts",
          "type": "uint256[]"
        }
      ],
      "name": "setMinDeposit",
      "outputs": [],
      "stateMutability": "nonpayable",
      "type": "function"
    },
    {
      "inputs": [
        {
          "internalType": "uint256",
          "name": "_gasUsed",
          "type": "uint256"
        }
      ],
      "name": "setNativeTokenTransferGas",
      "outputs": [],
      "stateMutability": "nonpayable",
      "type": "function"
    },
    {
      "inputs": [
        {
          "internalType": "address",
          "name": "_weth",
          "type": "address"
        }
      ],
      "name": "setWrap",
      "outputs": [],
      "stateMutability": "nonpayable",
      "type": "function"
    },
    {
      "inputs": [],
      "name": "sigsVerifier",
      "outputs": [
        {
          "internalType": "contract ISigsVerifier",
          "name": "",
          "type": "address"
        }
      ],
      "stateMutability": "view",
      "type": "function"
    },
    {
      "inputs": [
        {
          "internalType": "address",
          "name": "newOwner",
          "type": "address"
        }
      ],
      "name": "transferOwnership",
      "outputs": [],
      "stateMutability": "nonpayable",
      "type": "function"
    },
    {
      "inputs": [],
      "name": "unpause",
      "outputs": [],
      "stateMutability": "nonpayable",
      "type": "function"
    },
    {
      "inputs": [
        {
          "internalType": "bytes",
          "name": "_request",
          "type": "bytes"
        },
        {
          "internalType": "bytes[]",
          "name": "_sigs",
          "type": "bytes[]"
        },
        {
          "internalType": "address[]",
          "name": "_signers",
          "type": "address[]"
        },
        {
          "internalType": "uint256[]",
          "name": "_powers",
          "type": "uint256[]"
        }
      ],
      "name": "withdraw",
      "outputs": [
        {
          "internalType": "bytes32",
          "name": "",
          "type": "bytes32"
        }
      ],
      "stateMutability": "nonpayable",
      "type": "function"
    },
    {
      "stateMutability": "payable",
      "type": "receive"
    }
  ],
  "transactionHash": "0xba55620353a767833aacb112cd6fae786b1ef9a5858a5cd6e94902dec9edbf66",
  "args": [
    "0x9B36f165baB9ebe611d491180418d8De4b8f3a1f"
  ],
  "numDeployments": 1,
  "solcInputHash": "b810ca5f056d3fed89d8a344a06481ee",
  "bytecode": "0x60a060405261c350600f553480156200001757600080fd5b5060405162003826380380620038268339810160408190526200003a916200025b565b60016000556200004a336200007f565b6001805460ff60a01b191690556200006233620000d1565b6200006d336200019b565b6001600160a01b03166080526200028d565b600180546001600160a01b038381166001600160a01b0319831681179093556040519116919082907f8be0079c531659141344cd1fd0a4f28419497f9722a3daafe3b4186f6b6457e090600090a35050565b6001600160a01b03811660009081526002602052604090205460ff1615620001405760405162461bcd60e51b815260206004820152601960248201527f4163636f756e7420697320616c7265616479207061757365720000000000000060448201526064015b60405180910390fd5b6001600160a01b038116600081815260026020908152604091829020805460ff1916600117905590519182527f6719d08c1888103bea251a4ed56406bd0c3e69723c8a1686e017e7bbe159b6f891015b60405180910390a150565b6001600160a01b03811660009081526003602052604090205460ff1615620002065760405162461bcd60e51b815260206004820152601b60248201527f4163636f756e7420697320616c726561647920676f7665726e6f720000000000604482015260640162000137565b6001600160a01b038116600081815260036020908152604091829020805460ff1916600117905590519182527fdc5a48d79e2e147530ff63ecdbed5a5a66adb9d5cf339384d5d076da197c40b5910162000190565b6000602082840312156200026e57600080fd5b81516001600160a01b03811681146200028657600080fd5b9392505050565b608051613576620002b06000396000818161079e01526117f001526135766000f3fe6080604052600436106102be5760003560e01c80636ef8d66d1161016e578063b517b550116100cb578063e3eece261161007f578063eecdac8811610064578063eecdac881461085e578063f2fde38b1461087e578063f83213831461089e57600080fd5b8063e3eece26146107f5578063e43581b81461082557600080fd5b8063ccf2683b116100b0578063ccf2683b1461078c578063cefe0df5146107c0578063e026049c146107e057600080fd5b8063b517b55014610749578063b5f2bc471461075f57600080fd5b80639e25fc5c11610122578063a21a928011610107578063a21a928014610699578063adc0d57f146106b9578063b1c94d941461073357600080fd5b80639e25fc5c146106595780639ff9001a1461067957600080fd5b806382dc1ec41161015357806382dc1ec4146106065780638456cb59146106265780638da5cb5b1461063b57600080fd5b80636ef8d66d146105c157806380f51c12146105d657600080fd5b8063457bfa2f1161021c57806357d775f8116101d05780635ec2fa26116101b55780635ec2fa261461055457806360216b00146105745780636b2c0f55146105a157600080fd5b806357d775f81461051f5780635c975abb1461053557600080fd5b806347b16c6c1161020157806347b16c6c146104b257806352532faa146104d257806354eea796146104ff57600080fd5b8063457bfa2f1461044157806346fbf68e1461047957600080fd5b80633c29f839116102735780633d572107116102585780633d572107146103df5780633f4ba83a146103ff578063402d267d1461041457600080fd5b80633c29f839146103925780633c4a25d0146103bf57600080fd5b806317bdbae5116102a457806317bdbae5146103305780632346362414610352578063303b64421461037257600080fd5b8062a95fd7146102ca57806301e64725146102f057600080fd5b366102c557005b600080fd5b6102dd6102d8366004612f98565b6108cb565b6040519081526020015b60405180910390f35b3480156102fc57600080fd5b5061032061030b366004612fe5565b600b6020526000908152604090205460ff1681565b60405190151581526020016102e7565b34801561033c57600080fd5b5061035061034b36600461304a565b610b30565b005b34801561035e57600080fd5b506102dd61036d3660046130b6565b610cce565b34801561037e57600080fd5b5061035061038d36600461304a565b610e18565b34801561039e57600080fd5b506102dd6103ad366004613114565b600c6020526000908152604090205481565b3480156103cb57600080fd5b506103506103da366004613114565b610faf565b3480156103eb57600080fd5b506103506103fa366004612fe5565b611024565b34801561040b57600080fd5b506103506110b8565b34801561042057600080fd5b506102dd61042f366004613114565b600d6020526000908152604090205481565b34801561044d57600080fd5b50600e54610461906001600160a01b031681565b6040516001600160a01b0390911681526020016102e7565b34801561048557600080fd5b50610320610494366004613114565b6001600160a01b031660009081526002602052604090205460ff1690565b3480156104be57600080fd5b506103506104cd36600461304a565b611121565b3480156104de57600080fd5b506102dd6104ed366004613114565b60096020526000908152604090205481565b34801561050b57600080fd5b5061035061051a366004612fe5565b6112b8565b34801561052b57600080fd5b506102dd60045481565b34801561054157600080fd5b50600154600160a01b900460ff16610320565b34801561056057600080fd5b5061035061056f36600461304a565b611345565b34801561058057600080fd5b506102dd61058f366004613114565b60056020526000908152604090205481565b3480156105ad57600080fd5b506103506105bc366004613114565b6114dc565b3480156105cd57600080fd5b5061035061154e565b3480156105e257600080fd5b506103206105f1366004613114565b60026020526000908152604090205460ff1681565b34801561061257600080fd5b50610350610621366004613114565b611557565b34801561063257600080fd5b506103506115c9565b34801561064757600080fd5b506001546001600160a01b0316610461565b34801561066557600080fd5b50610350610674366004612fe5565b611630565b34801561068557600080fd5b50610350610694366004613114565b6116a5565b3480156106a557600080fd5b506102dd6106b436600461312f565b611730565b3480156106c557600080fd5b506107086106d4366004612fe5565b60086020526000908152604090208054600182015460028301546003909301546001600160a01b0392831693919092169184565b604080516001600160a01b0395861681529490931660208501529183015260608201526080016102e7565b34801561073f57600080fd5b506102dd600a5481565b34801561075557600080fd5b506102dd600f5481565b34801561076b57600080fd5b506102dd61077a366004613114565b60066020526000908152604090205481565b34801561079857600080fd5b506104617f000000000000000000000000000000000000000000000000000000000000000081565b3480156107cc57600080fd5b506103506107db366004612fe5565b611afa565b3480156107ec57600080fd5b50610350611b57565b34801561080157600080fd5b50610320610810366004613114565b60036020526000908152604090205460ff1681565b34801561083157600080fd5b50610320610840366004613114565b6001600160a01b031660009081526003602052604090205460ff1690565b34801561086a57600080fd5b50610350610879366004613114565b611b60565b34801561088a57600080fd5b50610350610899366004613114565b611bd2565b3480156108aa57600080fd5b506102dd6108b9366004613114565b60076020526000908152604090205481565b60006002600054036109245760405162461bcd60e51b815260206004820152601f60248201527f5265656e7472616e637947756172643a207265656e7472616e742063616c6c0060448201526064015b60405180910390fd5b6002600055600154600160a01b900460ff16156109765760405162461bcd60e51b815260206004820152601060248201526f14185d5cd8589b194e881c185d5cd95960821b604482015260640161091b565b8434146109c55760405162461bcd60e51b815260206004820152600f60248201527f416d6f756e74206d69736d617463680000000000000000000000000000000000604482015260640161091b565b600e546001600160a01b0316610a1d5760405162461bcd60e51b815260206004820152601360248201527f4e61746976652077726170206e6f742073657400000000000000000000000000604482015260640161091b565b600e54600090610a39906001600160a01b031687878787611cc0565b9050600e60009054906101000a90046001600160a01b03166001600160a01b031663d0e30db0876040518263ffffffff1660e01b81526004016000604051808303818588803b158015610a8b57600080fd5b505af1158015610a9f573d6000803e3d6000fd5b5050600e54604080518681523360208201526001600160a01b0392831691810191909152606081018b905267ffffffffffffffff808b16608083015291891660a082015290871660c08201527f28d226819e371600e26624ebc4a9a3947117ee2760209f816c789d3a99bf481b935060e0019150610b1a9050565b60405180910390a1600160005595945050505050565b3360009081526003602052604090205460ff16610b885760405162461bcd60e51b815260206004820152601660248201527521b0b63632b91034b9903737ba1033b7bb32b93737b960511b604482015260640161091b565b828114610bc95760405162461bcd60e51b815260206004820152600f60248201526e0d8cadccee8d040dad2e6dac2e8c6d608b1b604482015260640161091b565b60005b83811015610cc757828282818110610be657610be661321e565b9050602002013560096000878785818110610c0357610c0361321e565b9050602002016020810190610c189190613114565b6001600160a01b031681526020810191909152604001600020557fceaad6533bfb481492fb3e08ef19297f46611b8fa9de5ef4cf8dc23a56ad09ce858583818110610c6557610c6561321e565b9050602002016020810190610c7a9190613114565b848484818110610c8c57610c8c61321e565b604080516001600160a01b0390951685526020918202939093013590840152500160405180910390a180610cbf8161324a565b915050610bcc565b5050505050565b6000600260005403610d225760405162461bcd60e51b815260206004820152601f60248201527f5265656e7472616e637947756172643a207265656e7472616e742063616c6c00604482015260640161091b565b6002600055600154600160a01b900460ff1615610d745760405162461bcd60e51b815260206004820152601060248201526f14185d5cd8589b194e881c185d5cd95960821b604482015260640161091b565b6000610d838787878787611cc0565b9050610d9a6001600160a01b038816333089611ebd565b604080518281523360208201526001600160a01b03898116828401526060820189905267ffffffffffffffff888116608084015290871660a0830152851660c082015290517f28d226819e371600e26624ebc4a9a3947117ee2760209f816c789d3a99bf481b9181900360e00190a160016000559695505050505050565b3360009081526003602052604090205460ff16610e705760405162461bcd60e51b815260206004820152601660248201527521b0b63632b91034b9903737ba1033b7bb32b93737b960511b604482015260640161091b565b828114610eb15760405162461bcd60e51b815260206004820152600f60248201526e0d8cadccee8d040dad2e6dac2e8c6d608b1b604482015260640161091b565b60005b83811015610cc757828282818110610ece57610ece61321e565b90506020020135600d6000878785818110610eeb57610eeb61321e565b9050602002016020810190610f009190613114565b6001600160a01b031681526020810191909152604001600020557f0e5d348f9737ccc8b4cf0eea0ccf3670af071af8bea5d64664f10e700c08de72858583818110610f4d57610f4d61321e565b9050602002016020810190610f629190613114565b848484818110610f7457610f7461321e565b604080516001600160a01b0390951685526020918202939093013590840152500160405180910390a180610fa78161324a565b915050610eb4565b33610fc26001546001600160a01b031690565b6001600160a01b0316146110185760405162461bcd60e51b815260206004820181905260248201527f4f776e61626c653a2063616c6c6572206973206e6f7420746865206f776e6572604482015260640161091b565b61102181611f5b565b50565b3360009081526003602052604090205460ff1661107c5760405162461bcd60e51b815260206004820152601660248201527521b0b63632b91034b9903737ba1033b7bb32b93737b960511b604482015260640161091b565b600a8190556040518181527fc0a39f234199b125fb93713c4d067bdcebbf691087f87b79c0feb92b156ba8b6906020015b60405180910390a150565b3360009081526002602052604090205460ff166111175760405162461bcd60e51b815260206004820152601460248201527f43616c6c6572206973206e6f7420706175736572000000000000000000000000604482015260640161091b565b61111f612018565b565b3360009081526003602052604090205460ff166111795760405162461bcd60e51b815260206004820152601660248201527521b0b63632b91034b9903737ba1033b7bb32b93737b960511b604482015260640161091b565b8281146111ba5760405162461bcd60e51b815260206004820152600f60248201526e0d8cadccee8d040dad2e6dac2e8c6d608b1b604482015260640161091b565b60005b83811015610cc7578282828181106111d7576111d761321e565b90506020020135600660008787858181106111f4576111f461321e565b90506020020160208101906112099190613114565b6001600160a01b031681526020810191909152604001600020557f608e49c22994f20b5d3496dca088b88dfd81b4a3e8cc3809ea1e10a320107e898585838181106112565761125661321e565b905060200201602081019061126b9190613114565b84848481811061127d5761127d61321e565b604080516001600160a01b0390951685526020918202939093013590840152500160405180910390a1806112b08161324a565b9150506111bd565b3360009081526003602052604090205460ff166113105760405162461bcd60e51b815260206004820152601660248201527521b0b63632b91034b9903737ba1033b7bb32b93737b960511b604482015260640161091b565b60048190556040518181527f2664fec2ff76486ac58ed087310855b648b15b9d19f3de8529e95f7c46b7d6b3906020016110ad565b3360009081526003602052604090205460ff1661139d5760405162461bcd60e51b815260206004820152601660248201527521b0b63632b91034b9903737ba1033b7bb32b93737b960511b604482015260640161091b565b8281146113de5760405162461bcd60e51b815260206004820152600f60248201526e0d8cadccee8d040dad2e6dac2e8c6d608b1b604482015260640161091b565b60005b83811015610cc7578282828181106113fb576113fb61321e565b90506020020135600c60008787858181106114185761141861321e565b905060200201602081019061142d9190613114565b6001600160a01b031681526020810191909152604001600020557f0f48d517989455cd80ed52427e80553e66f9b69fd5cee8e26bd1a1f9c364fba685858381811061147a5761147a61321e565b905060200201602081019061148f9190613114565b8484848181106114a1576114a161321e565b604080516001600160a01b0390951685526020918202939093013590840152500160405180910390a1806114d48161324a565b9150506113e1565b336114ef6001546001600160a01b031690565b6001600160a01b0316146115455760405162461bcd60e51b815260206004820181905260248201527f4f776e61626c653a2063616c6c6572206973206e6f7420746865206f776e6572604482015260640161091b565b611021816120be565b61111f336120be565b3361156a6001546001600160a01b031690565b6001600160a01b0316146115c05760405162461bcd60e51b815260206004820181905260248201527f4f776e61626c653a2063616c6c6572206973206e6f7420746865206f776e6572604482015260640161091b565b61102181612177565b3360009081526002602052604090205460ff166116285760405162461bcd60e51b815260206004820152601460248201527f43616c6c6572206973206e6f7420706175736572000000000000000000000000604482015260640161091b565b61111f612234565b600154600160a01b900460ff161561167d5760405162461bcd60e51b815260206004820152601060248201526f14185d5cd8589b194e881c185d5cd95960821b604482015260640161091b565b6000611688826122bc565b90506116a1816000015182602001518360400151612481565b5050565b336116b86001546001600160a01b031690565b6001600160a01b03161461170e5760405162461bcd60e51b815260206004820181905260248201527f4f776e61626c653a2063616c6c6572206973206e6f7420746865206f776e6572604482015260640161091b565b600e80546001600160a01b0319166001600160a01b0392909216919091179055565b600154600090600160a01b900460ff16156117805760405162461bcd60e51b815260206004820152601060248201526f14185d5cd8589b194e881c185d5cd95960821b604482015260640161091b565b600046306040516020016117d692919091825260601b6bffffffffffffffffffffffff191660208201527f57697468647261770000000000000000000000000000000000000000000000006034820152603c0190565b6040516020818303038152906040528051906020012090507f00000000000000000000000000000000000000000000000000000000000000006001600160a01b031663682dbc22828c8c60405160200161183293929190613263565b6040516020818303038152906040528a8a8a8a8a8a6040518863ffffffff1660e01b81526004016118699796959493929190613388565b60006040518083038186803b15801561188157600080fd5b505afa158015611895573d6000803e3d6000fd5b5050505060006118da8b8b8080601f0160208091040260200160405190810160405280939291908181526020018383808284376000920191909152506125b392505050565b6020818101518251604080850151606080870151608088015160a089015185516bffffffffffffffffffffffff1998851b8916818b015296841b88166034880152604887019490945290821b8616606886015277ffffffffffffffffffffffffffffffffffffffffffffffff1960c09190911b16607c850152608484019190915230901b90921660a48201528151808203609801815260b890910182528051908301206000818152600b9093529120549192509060ff16156119ce5760405162461bcd60e51b815260206004820152600d60248201526c7265636f72642065786973747360981b604482015260640161091b565b6000818152600b602052604090819020805460ff191660011790558251908301516119f9919061270f565b81516001600160a01b03166000908152600960205260409020548015801590611a255750808360400151115b15611a4757611a428284602001518560000151866040015161282d565b611a5e565b611a5e836020015184600001518560400151612481565b602080840151845160408087015160808089015160a0808b01516060808d015187518d81526001600160a01b039a8b169b81019b909b52978916968a01969096529488019390935267ffffffffffffffff16908601528401521660c08201527f296a629c5265cb4e5319803d016902eb70a9079b89655fe2b7737821ed88beeb9060e00160405180910390a1509b9a5050505050505050505050565b3360009081526003602052604090205460ff16611b525760405162461bcd60e51b815260206004820152601660248201527521b0b63632b91034b9903737ba1033b7bb32b93737b960511b604482015260640161091b565b600f55565b61111f33612940565b33611b736001546001600160a01b031690565b6001600160a01b031614611bc95760405162461bcd60e51b815260206004820181905260248201527f4f776e61626c653a2063616c6c6572206973206e6f7420746865206f776e6572604482015260640161091b565b61102181612940565b33611be56001546001600160a01b031690565b6001600160a01b031614611c3b5760405162461bcd60e51b815260206004820181905260248201527f4f776e61626c653a2063616c6c6572206973206e6f7420746865206f776e6572604482015260640161091b565b6001600160a01b038116611cb75760405162461bcd60e51b815260206004820152602660248201527f4f776e61626c653a206e6577206f776e657220697320746865207a65726f206160448201527f6464726573730000000000000000000000000000000000000000000000000000606482015260840161091b565b611021816129f9565b6001600160a01b0385166000908152600c60205260408120548511611d275760405162461bcd60e51b815260206004820152601060248201527f616d6f756e7420746f6f20736d616c6c00000000000000000000000000000000604482015260640161091b565b6001600160a01b0386166000908152600d60205260409020541580611d6457506001600160a01b0386166000908152600d60205260409020548511155b611db05760405162461bcd60e51b815260206004820152601060248201527f616d6f756e7420746f6f206c6172676500000000000000000000000000000000604482015260640161091b565b6040516bffffffffffffffffffffffff1933606090811b8216602084015288811b821660348401526048830188905277ffffffffffffffffffffffffffffffffffffffffffffffff1960c088811b8216606886015287831b8416607086015286811b8216608486015246901b16608c84015230901b16609482015260009060a80160408051601f1981840301815291815281516020928301206000818152600b90935291205490915060ff1615611e995760405162461bcd60e51b815260206004820152600d60248201526c7265636f72642065786973747360981b604482015260640161091b565b6000818152600b60205260409020805460ff19166001179055905095945050505050565b6040516001600160a01b0380851660248301528316604482015260648101829052611f559085906323b872dd60e01b906084015b60408051601f198184030181529190526020810180517bffffffffffffffffffffffffffffffffffffffffffffffffffffffff167fffffffff0000000000000000000000000000000000000000000000000000000090931692909217909152612a4b565b50505050565b6001600160a01b03811660009081526003602052604090205460ff1615611fc45760405162461bcd60e51b815260206004820152601b60248201527f4163636f756e7420697320616c726561647920676f7665726e6f720000000000604482015260640161091b565b6001600160a01b038116600081815260036020908152604091829020805460ff1916600117905590519182527fdc5a48d79e2e147530ff63ecdbed5a5a66adb9d5cf339384d5d076da197c40b591016110ad565b600154600160a01b900460ff166120715760405162461bcd60e51b815260206004820152601460248201527f5061757361626c653a206e6f7420706175736564000000000000000000000000604482015260640161091b565b6001805460ff60a01b191690557f5db9ee0a495bf2e6ff9c91a7834c1ba4fdd244a5e8aa4e537bd38aeae4b073aa335b6040516001600160a01b03909116815260200160405180910390a1565b6001600160a01b03811660009081526002602052604090205460ff166121265760405162461bcd60e51b815260206004820152601560248201527f4163636f756e74206973206e6f74207061757365720000000000000000000000604482015260640161091b565b6001600160a01b038116600081815260026020908152604091829020805460ff1916905590519182527fcd265ebaf09df2871cc7bd4133404a235ba12eff2041bb89d9c714a2621c7c7e91016110ad565b6001600160a01b03811660009081526002602052604090205460ff16156121e05760405162461bcd60e51b815260206004820152601960248201527f4163636f756e7420697320616c72656164792070617573657200000000000000604482015260640161091b565b6001600160a01b038116600081815260026020908152604091829020805460ff1916600117905590519182527f6719d08c1888103bea251a4ed56406bd0c3e69723c8a1686e017e7bbe159b6f891016110ad565b600154600160a01b900460ff16156122815760405162461bcd60e51b815260206004820152601060248201526f14185d5cd8589b194e881c185d5cd95960821b604482015260640161091b565b6001805460ff60a01b1916600160a01b1790557f62e78cea01bee320cd4e420270b5ea74000d11b0c9f74754ebdbfc544b05a2586120a13390565b604080516080810182526000808252602082018190529181018290526060810191909152600082815260086020908152604091829020825160808101845281546001600160a01b039081168252600183015416928101929092526002810154928201929092526003909101546060820181905261237b5760405162461bcd60e51b815260206004820152601a60248201527f64656c61796564207472616e73666572206e6f74206578697374000000000000604482015260640161091b565b600a54816060015161238d9190613464565b42116123db5760405162461bcd60e51b815260206004820152601d60248201527f64656c61796564207472616e73666572207374696c6c206c6f636b6564000000604482015260640161091b565b600083815260086020908152604080832080546001600160a01b03199081168255600182018054909116905560028101849055600301929092558251908301518383015192517f3b40e5089937425d14cdd96947e5661868357e224af59bd8b24a4b8a330d44269361247393889390929091909384526001600160a01b03928316602085015291166040830152606082015260800190565b60405180910390a192915050565b600e546001600160a01b039081169083160361259a57600e54604051632e1a7d4d60e01b8152600481018390526001600160a01b0390911690632e1a7d4d90602401600060405180830381600087803b1580156124dd57600080fd5b505af11580156124f1573d6000803e3d6000fd5b5050600f54604051600093506001600160a01b0387169250849084818181858888f193505050503d8060008114612544576040519150601f19603f3d011682016040523d82523d6000602084013e612549565b606091505b5050905080611f555760405162461bcd60e51b815260206004820152601b60248201527f6661696c656420746f2073656e64206e617469766520746f6b656e0000000000604482015260640161091b565b6125ae6001600160a01b0383168483612b30565b505050565b6040805160c08101825260008082526020808301829052828401829052606083018290526080830182905260a0830182905283518085019094528184528301849052909190805b602083015151835110156127075761261183612b60565b90925090508160010361263f5761262f61262a84612b9a565b612c57565b6001600160a01b031684526125fa565b816002036126665761265361262a84612b9a565b6001600160a01b031660208501526125fa565b816003036126895761267f61267a84612b9a565b612c68565b60408501526125fa565b816004036126b05761269d61262a84612b9a565b6001600160a01b031660608501526125fa565b816005036126d5576126c183612c9f565b67ffffffffffffffff1660808501526125fa565b816006036126f8576126ee6126e984612b9a565b612d1a565b60a08501526125fa565b6127028382612d32565b6125fa565b505050919050565b60045460000361271d575050565b6001600160a01b0382166000908152600660205260408120549081900361274357505050565b6001600160a01b0383166000908152600560205260408120546004549091429161276d8184613477565b6127779190613499565b6001600160a01b0387166000908152600760205260409020549091508111156127a2578492506127af565b6127ac8584613464565b92505b838311156127ff5760405162461bcd60e51b815260206004820152601260248201527f766f6c756d652065786365656473206361700000000000000000000000000000604482015260640161091b565b506001600160a01b039094166000908152600560209081526040808320939093556007905220929092555050565b6000848152600860205260409020600301541561288c5760405162461bcd60e51b815260206004820152601f60248201527f64656c61796564207472616e7366657220616c72656164792065786973747300604482015260640161091b565b604080516080810182526001600160a01b0380861682528481166020808401918252838501868152426060860190815260008b8152600890935291869020945185549085166001600160a01b031991821617865592516001860180549190951693169290921790925551600283015551600390910155517fcbcfffe5102114216a85d3aceb14ad4b81a3935b1b5c468fadf3889eb9c5dce6906129329086815260200190565b60405180910390a150505050565b6001600160a01b03811660009081526003602052604090205460ff166129a85760405162461bcd60e51b815260206004820152601760248201527f4163636f756e74206973206e6f7420676f7665726e6f72000000000000000000604482015260640161091b565b6001600160a01b038116600081815260036020908152604091829020805460ff1916905590519182527f1ebe834e73d60a5fec822c1e1727d34bc79f2ad977ed504581cc1822fe20fb5b91016110ad565b600180546001600160a01b038381166001600160a01b0319831681179093556040519116919082907f8be0079c531659141344cd1fd0a4f28419497f9722a3daafe3b4186f6b6457e090600090a35050565b6000612aa0826040518060400160405280602081526020017f5361666545524332303a206c6f772d6c6576656c2063616c6c206661696c6564815250856001600160a01b0316612da29092919063ffffffff16565b8051909150156125ae5780806020019051810190612abe91906134b0565b6125ae5760405162461bcd60e51b815260206004820152602a60248201527f5361666545524332303a204552433230206f7065726174696f6e20646964206e60448201527f6f74207375636365656400000000000000000000000000000000000000000000606482015260840161091b565b6040516001600160a01b0383166024820152604481018290526125ae90849063a9059cbb60e01b90606401611ef1565b6000806000612b6e84612c9f565b9050612b7b600882613477565b9250806007166005811115612b9257612b926134d2565b915050915091565b60606000612ba783612c9f565b90506000818460000151612bbb9190613464565b9050836020015151811115612bcf57600080fd5b8167ffffffffffffffff811115612be857612be86134e8565b6040519080825280601f01601f191660200182016040528015612c12576020820181803683370190505b50602080860151865192955091818601919083010160005b85811015612c4c578181015183820152612c45602082613464565b9050612c2a565b505050935250919050565b6000612c6282612dbb565b92915050565b6000602082511115612c7957600080fd5b6020820151905081516020612c8e91906134fe565b612c99906008613499565b1c919050565b602080820151825181019091015160009182805b600a8110156102c55783811a9150612ccc816007613499565b82607f16901b8517945081608016600003612d0857612cec816001613464565b86518790612cfb908390613464565b9052509395945050505050565b80612d128161324a565b915050612cb3565b60008151602014612d2a57600080fd5b506020015190565b6000816005811115612d4657612d466134d2565b03612d54576125ae82612c9f565b6002816005811115612d6857612d686134d2565b036102c5576000612d7883612c9f565b90508083600001818151612d8c9190613464565b905250602083015151835111156125ae57600080fd5b6060612db18484600085612de3565b90505b9392505050565b60008151601414612dcb57600080fd5b50602001516c01000000000000000000000000900490565b606082471015612e5b5760405162461bcd60e51b815260206004820152602660248201527f416464726573733a20696e73756666696369656e742062616c616e636520666f60448201527f722063616c6c0000000000000000000000000000000000000000000000000000606482015260840161091b565b6001600160a01b0385163b612eb25760405162461bcd60e51b815260206004820152601d60248201527f416464726573733a2063616c6c20746f206e6f6e2d636f6e7472616374000000604482015260640161091b565b600080866001600160a01b03168587604051612ece9190613511565b60006040518083038185875af1925050503d8060008114612f0b576040519150601f19603f3d011682016040523d82523d6000602084013e612f10565b606091505b5091509150612f20828286612f2b565b979650505050505050565b60608315612f3a575081612db4565b825115612f4a5782518084602001fd5b8160405162461bcd60e51b815260040161091b919061352d565b803567ffffffffffffffff81168114612f7c57600080fd5b919050565b80356001600160a01b0381168114612f7c57600080fd5b60008060008060808587031215612fae57600080fd5b84359350612fbe60208601612f64565b9250612fcc60408601612f81565b9150612fda60608601612f64565b905092959194509250565b600060208284031215612ff757600080fd5b5035919050565b60008083601f84011261301057600080fd5b50813567ffffffffffffffff81111561302857600080fd5b6020830191508360208260051b850101111561304357600080fd5b9250929050565b6000806000806040858703121561306057600080fd5b843567ffffffffffffffff8082111561307857600080fd5b61308488838901612ffe565b9096509450602087013591508082111561309d57600080fd5b506130aa87828801612ffe565b95989497509550505050565b600080600080600060a086880312156130ce57600080fd5b6130d786612f81565b9450602086013593506130ec60408701612f64565b92506130fa60608701612f81565b915061310860808701612f64565b90509295509295909350565b60006020828403121561312657600080fd5b612db482612f81565b6000806000806000806000806080898b03121561314b57600080fd5b883567ffffffffffffffff8082111561316357600080fd5b818b0191508b601f83011261317757600080fd5b81358181111561318657600080fd5b8c602082850101111561319857600080fd5b60209283019a509850908a013590808211156131b357600080fd5b6131bf8c838d01612ffe565b909850965060408b01359150808211156131d857600080fd5b6131e48c838d01612ffe565b909650945060608b01359150808211156131fd57600080fd5b5061320a8b828c01612ffe565b999c989b5096995094979396929594505050565b634e487b7160e01b600052603260045260246000fd5b634e487b7160e01b600052601160045260246000fd5b60006001820161325c5761325c613234565b5060010190565b838152818360208301376000910160200190815292915050565b60005b83811015613298578181015183820152602001613280565b50506000910152565b600081518084526132b981602086016020860161327d565b601f01601f19169290920160200192915050565b81835281816020850137506000828201602090810191909152601f909101601f19169091010190565b8183526000602080850194508260005b85811015613332576001600160a01b0361331f83612f81565b1687529582019590820190600101613306565b509495945050505050565b81835260007f07ffffffffffffffffffffffffffffffffffffffffffffffffffffffffffffff83111561336f57600080fd5b8260051b80836020870137939093016020019392505050565b60808152600061339b608083018a6132a1565b602083820381850152818983528183019050818a60051b8401018b60005b8c81101561342957858303601f190184528135368f9003601e190181126133df57600080fd5b8e01858101903567ffffffffffffffff8111156133fb57600080fd5b80360382131561340a57600080fd5b6134158582846132cd565b9587019594505050908401906001016133b9565b5050858103604087015261343e818a8c6132f6565b9350505050828103606084015261345681858761333d565b9a9950505050505050505050565b80820180821115612c6257612c62613234565b60008261349457634e487b7160e01b600052601260045260246000fd5b500490565b8082028115828204841417612c6257612c62613234565b6000602082840312156134c257600080fd5b81518015158114612db457600080fd5b634e487b7160e01b600052602160045260246000fd5b634e487b7160e01b600052604160045260246000fd5b81810381811115612c6257612c62613234565b6000825161352381846020870161327d565b9190910192915050565b602081526000612db460208301846132a156fea26469706673582212200b87f2215f1174f2ea2adaafde659a95c66e664946a035f11e4ba8774963615164736f6c63430008110033",
  "devdoc": {
    "details": "Work together with PeggedTokenBridge contracts deployed at remote chains",
    "kind": "dev",
    "methods": {
      "deposit(address,uint256,uint64,address,uint64)": {
        "params": {
          "_amount": "The amount to deposit.",
          "_mintAccount": "The destination account to receive the minted pegged tokens.",
          "_mintChainId": "The destination chain ID to mint tokens.",
          "_nonce": "A number input to guarantee unique depositId. Can be timestamp in practice.",
          "_token": "The original token address."
        }
      },
      "depositNative(uint256,uint64,address,uint64)": {
        "params": {
          "_amount": "The amount to deposit.",
          "_mintAccount": "The destination account to receive the minted pegged tokens.",
          "_mintChainId": "The destination chain ID to mint tokens.",
          "_nonce": "A number input to guarantee unique depositId. Can be timestamp in practice."
        }
      },
      "owner()": {
        "details": "Returns the address of the current owner."
      },
      "paused()": {
        "details": "Returns true if the contract is paused, and false otherwise."
      },
      "transferOwnership(address)": {
        "details": "Transfers ownership of the contract to a new account (`newOwner`). Can only be called by the current owner."
      },
      "withdraw(bytes,bytes[],address[],uint256[])": {
        "params": {
          "_powers": "The signing powers of the signers.",
          "_request": "The serialized Withdraw protobuf.",
          "_signers": "The sorted list of signers.",
          "_sigs": "The list of signatures sorted by signing addresses in ascending order. A relay must be signed-off by +2/3 of the bridge's current signing power to be delivered."
        }
      }
    },
    "title": "the vault to deposit and withdraw original tokens",
    "version": 1
  },
  "userdoc": {
    "kind": "user",
    "methods": {
      "deposit(address,uint256,uint64,address,uint64)": {
        "notice": "Lock original tokens to trigger cross-chain mint of pegged tokens at a remote chain's PeggedTokenBridge. NOTE: This function DOES NOT SUPPORT fee-on-transfer / rebasing tokens."
      },
      "depositNative(uint256,uint64,address,uint64)": {
        "notice": "Lock native token as original token to trigger cross-chain mint of pegged tokens at a remote chain's PeggedTokenBridge."
      },
      "withdraw(bytes,bytes[],address[],uint256[])": {
        "notice": "Withdraw locked original tokens triggered by a burn at a remote chain's PeggedTokenBridge."
      }
    },
    "version": 1
  },
  "storageLayout": {
    "storage": [
      {
        "astId": 102,
        "contract": "contracts/pegged-bridge/OriginalTokenVaultV2.sol:OriginalTokenVaultV2",
        "label": "_status",
        "offset": 0,
        "slot": "0",
        "type": "t_uint256"
      },
      {
        "astId": 17211,
        "contract": "contracts/pegged-bridge/OriginalTokenVaultV2.sol:OriginalTokenVaultV2",
        "label": "_owner",
        "offset": 0,
        "slot": "1",
        "type": "t_address"
      },
      {
        "astId": 17,
        "contract": "contracts/pegged-bridge/OriginalTokenVaultV2.sol:OriginalTokenVaultV2",
        "label": "_paused",
        "offset": 20,
        "slot": "1",
        "type": "t_bool"
      },
      {
        "astId": 17325,
        "contract": "contracts/pegged-bridge/OriginalTokenVaultV2.sol:OriginalTokenVaultV2",
        "label": "pausers",
        "offset": 0,
        "slot": "2",
        "type": "t_mapping(t_address,t_bool)"
      },
      {
        "astId": 17084,
        "contract": "contracts/pegged-bridge/OriginalTokenVaultV2.sol:OriginalTokenVaultV2",
        "label": "governors",
        "offset": 0,
        "slot": "3",
        "type": "t_mapping(t_address,t_bool)"
      },
      {
        "astId": 17472,
        "contract": "contracts/pegged-bridge/OriginalTokenVaultV2.sol:OriginalTokenVaultV2",
        "label": "epochLength",
        "offset": 0,
        "slot": "4",
        "type": "t_uint256"
      },
      {
        "astId": 17476,
        "contract": "contracts/pegged-bridge/OriginalTokenVaultV2.sol:OriginalTokenVaultV2",
        "label": "epochVolumes",
        "offset": 0,
        "slot": "5",
        "type": "t_mapping(t_address,t_uint256)"
      },
      {
        "astId": 17480,
        "contract": "contracts/pegged-bridge/OriginalTokenVaultV2.sol:OriginalTokenVaultV2",
        "label": "epochVolumeCaps",
        "offset": 0,
        "slot": "6",
        "type": "t_mapping(t_address,t_uint256)"
      },
      {
        "astId": 17484,
        "contract": "contracts/pegged-bridge/OriginalTokenVaultV2.sol:OriginalTokenVaultV2",
        "label": "lastOpTimestamps",
        "offset": 0,
        "slot": "7",
        "type": "t_mapping(t_address,t_uint256)"
      },
      {
        "astId": 16885,
        "contract": "contracts/pegged-bridge/OriginalTokenVaultV2.sol:OriginalTokenVaultV2",
        "label": "delayedTransfers",
        "offset": 0,
        "slot": "8",
        "type": "t_mapping(t_bytes32,t_struct(delayedTransfer)16880_storage)"
      },
      {
        "astId": 16889,
        "contract": "contracts/pegged-bridge/OriginalTokenVaultV2.sol:OriginalTokenVaultV2",
        "label": "delayThresholds",
        "offset": 0,
        "slot": "9",
        "type": "t_mapping(t_address,t_uint256)"
      },
      {
        "astId": 16891,
        "contract": "contracts/pegged-bridge/OriginalTokenVaultV2.sol:OriginalTokenVaultV2",
        "label": "delayPeriod",
        "offset": 0,
        "slot": "10",
        "type": "t_uint256"
      },
      {
        "astId": 16228,
        "contract": "contracts/pegged-bridge/OriginalTokenVaultV2.sol:OriginalTokenVaultV2",
        "label": "records",
        "offset": 0,
        "slot": "11",
        "type": "t_mapping(t_bytes32,t_bool)"
      },
      {
        "astId": 16232,
        "contract": "contracts/pegged-bridge/OriginalTokenVaultV2.sol:OriginalTokenVaultV2",
        "label": "minDeposit",
        "offset": 0,
        "slot": "12",
        "type": "t_mapping(t_address,t_uint256)"
      },
      {
        "astId": 16236,
        "contract": "contracts/pegged-bridge/OriginalTokenVaultV2.sol:OriginalTokenVaultV2",
        "label": "maxDeposit",
        "offset": 0,
        "slot": "13",
        "type": "t_mapping(t_address,t_uint256)"
      },
      {
        "astId": 16238,
        "contract": "contracts/pegged-bridge/OriginalTokenVaultV2.sol:OriginalTokenVaultV2",
        "label": "nativeWrap",
        "offset": 0,
        "slot": "14",
        "type": "t_address"
      },
      {
        "astId": 16241,
        "contract": "contracts/pegged-bridge/OriginalTokenVaultV2.sol:OriginalTokenVaultV2",
        "label": "nativeTokenTransferGas",
        "offset": 0,
        "slot": "15",
        "type": "t_uint256"
      }
    ],
    "types": {
      "t_address": {
        "encoding": "inplace",
        "label": "address",
        "numberOfBytes": "20"
      },
      "t_bool": {
        "encoding": "inplace",
        "label": "bool",
        "numberOfBytes": "1"
      },
      "t_bytes32": {
        "encoding": "inplace",
        "label": "bytes32",
        "numberOfBytes": "32"
      },
      "t_mapping(t_address,t_bool)": {
        "encoding": "mapping",
        "key": "t_address",
        "label": "mapping(address => bool)",
        "numberOfBytes": "32",
        "value": "t_bool"
      },
      "t_mapping(t_address,t_uint256)": {
        "encoding": "mapping",
        "key": "t_address",
        "label": "mapping(address => uint256)",
        "numberOfBytes": "32",
        "value": "t_uint256"
      },
      "t_mapping(t_bytes32,t_bool)": {
        "encoding": "mapping",
        "key": "t_bytes32",
        "label": "mapping(bytes32 => bool)",
        "numberOfBytes": "32",
        "value": "t_bool"
      },
      "t_mapping(t_bytes32,t_struct(delayedTransfer)16880_storage)": {
        "encoding": "mapping",
        "key": "t_bytes32",
        "label": "mapping(bytes32 => struct DelayedTransfer.delayedTransfer)",
        "numberOfBytes": "32",
        "value": "t_struct(delayedTransfer)16880_storage"
      },
      "t_struct(delayedTransfer)16880_storage": {
        "encoding": "inplace",
        "label": "struct DelayedTransfer.delayedTransfer",
        "members": [
          {
            "astId": 16873,
            "contract": "contracts/pegged-bridge/OriginalTokenVaultV2.sol:OriginalTokenVaultV2",
            "label": "receiver",
            "offset": 0,
            "slot": "0",
            "type": "t_address"
          },
          {
            "astId": 16875,
            "contract": "contracts/pegged-bridge/OriginalTokenVaultV2.sol:OriginalTokenVaultV2",
            "label": "token",
            "offset": 0,
            "slot": "1",
            "type": "t_address"
          },
          {
            "astId": 16877,
            "contract": "contracts/pegged-bridge/OriginalTokenVaultV2.sol:OriginalTokenVaultV2",
            "label": "amount",
            "offset": 0,
            "slot": "2",
            "type": "t_uint256"
          },
          {
            "astId": 16879,
            "contract": "contracts/pegged-bridge/OriginalTokenVaultV2.sol:OriginalTokenVaultV2",
            "label": "timestamp",
            "offset": 0,
            "slot": "3",
            "type": "t_uint256"
          }
        ],
        "numberOfBytes": "128"
      },
      "t_uint256": {
        "encoding": "inplace",
        "label": "uint256",
        "numberOfBytes": "32"
      }
    }
  }
}