{
  "address": "0x81ECac0D6Be0550A00FF064a4f9dd2400585FE9c",
  "abi": [
    {
      "anonymous": false,
      "inputs": [
        {
          "indexed": true,
          "internalType": "address",
          "name": "previousOwner",
          "type": "address"
        },
        {
          "indexed": true,
          "internalType": "address",
          "name": "newOwner",
          "type": "address"
        }
      ],
      "name": "OwnershipTransferred",
      "type": "event"
    },
    {
      "inputs": [
        {
          "internalType": "address",
          "name": "_asset",
          "type": "address"
        },
        {
          "internalType": "uint256",
          "name": "_amount",
          "type": "uint256"
        }
      ],
      "name": "drainToken",
      "outputs": [],
      "stateMutability": "nonpayable",
      "type": "function"
    },
    {
      "inputs": [
        {
          "internalType": "address[]",
          "name": "tokens",
          "type": "address[]"
        }
      ],
      "name": "drip",
      "outputs": [],
      "stateMutability": "nonpayable",
      "type": "function"
    },
    {
      "inputs": [
        {
          "internalType": "address",
          "name": "",
          "type": "address"
        }
      ],
      "name": "lastDripBlk",
      "outputs": [
        {
          "internalType": "uint256",
          "name": "",
          "type": "uint256"
        }
      ],
      "stateMutability": "view",
      "type": "function"
    },
    {
      "inputs": [],
      "name": "minDripBlkInterval",
      "outputs": [
        {
          "internalType": "uint256",
          "name": "",
          "type": "uint256"
        }
      ],
      "stateMutability": "view",
      "type": "function"
    },
    {
      "inputs": [],
      "name": "owner",
      "outputs": [
        {
          "internalType": "address",
          "name": "",
          "type": "address"
        }
      ],
      "stateMutability": "view",
      "type": "function"
    },
    {
      "inputs": [],
      "name": "renounceOwnership",
      "outputs": [],
      "stateMutability": "nonpayable",
      "type": "function"
    },
    {
      "inputs": [
        {
          "internalType": "uint256",
          "name": "_interval",
          "type": "uint256"
        }
      ],
      "name": "setMinDripBlkInterval",
      "outputs": [],
      "stateMutability": "nonpayable",
      "type": "function"
    },
    {
      "inputs": [
        {
          "internalType": "address",
          "name": "newOwner",
          "type": "address"
        }
      ],
      "name": "transferOwnership",
      "outputs": [],
      "stateMutability": "nonpayable",
      "type": "function"
    }
  ],
  "transactionHash": "0xd049e2b1eaf77b3cc79f434df82619f1477a12e08337f617cbc329cc25404f52",
  "args": [],
  "solcInputHash": "76288b879984e90ff5cf74f5ec3dc709",
  "bytecode": "0x608060405234801561001057600080fd5b5061001a3361001f565b61006f565b600080546001600160a01b038381166001600160a01b0319831681178455604051919092169283917f8be0079c531659141344cd1fd0a4f28419497f9722a3daafe3b4186f6b6457e09190a35050565b610abc8061007e6000396000f3fe608060405234801561001057600080fd5b50600436106100885760003560e01c8063715018a61161005b578063715018a6146100f15780638da5cb5b146100f95780639d4323be14610114578063f2fde38b1461012757600080fd5b80631e53f2881461008d578063428dc451146100a25780634f1aa211146100b55780635553e679146100d1575b600080fd5b6100a061009b36600461085d565b61013a565b005b6100a06100b0366004610876565b61019e565b6100be60015481565b6040519081526020015b60405180910390f35b6100be6100df366004610907565b60026020526000908152604090205481565b6100a0610359565b6000546040516001600160a01b0390911681526020016100c8565b6100a0610122366004610922565b6103bf565b6100a0610135366004610907565b610431565b6000546001600160a01b031633146101995760405162461bcd60e51b815260206004820181905260248201527f4f776e61626c653a2063616c6c6572206973206e6f7420746865206f776e657260448201526064015b60405180910390fd5b600155565b600154336000908152600260205260409020546101bb9043610962565b10156102095760405162461bcd60e51b815260206004820152600c60248201527f746f6f206672657175656e7400000000000000000000000000000000000000006044820152606401610190565b60005b8181101561034257600083838381811061022857610228610979565b905060200201602081019061023d9190610907565b6040516370a0823160e01b81523060048201529091506000906001600160a01b038316906370a082319060240160206040518083038186803b15801561028257600080fd5b505afa158015610296573d6000803e3d6000fd5b505050506040513d601f19601f820116820180604052508101906102ba919061098f565b90506000811161030c5760405162461bcd60e51b815260206004820152600f60248201527f46617563657420697320656d70747900000000000000000000000000000000006044820152606401610190565b61032d3361031c612710846109a8565b6001600160a01b0385169190610513565b5050808061033a906109ca565b91505061020c565b505033600090815260026020526040902043905550565b6000546001600160a01b031633146103b35760405162461bcd60e51b815260206004820181905260248201527f4f776e61626c653a2063616c6c6572206973206e6f7420746865206f776e65726044820152606401610190565b6103bd600061057f565b565b6000546001600160a01b031633146104195760405162461bcd60e51b815260206004820181905260248201527f4f776e61626c653a2063616c6c6572206973206e6f7420746865206f776e65726044820152606401610190565b61042d6001600160a01b0383163383610513565b5050565b6000546001600160a01b0316331461048b5760405162461bcd60e51b815260206004820181905260248201527f4f776e61626c653a2063616c6c6572206973206e6f7420746865206f776e65726044820152606401610190565b6001600160a01b0381166105075760405162461bcd60e51b815260206004820152602660248201527f4f776e61626c653a206e6577206f776e657220697320746865207a65726f206160448201527f64647265737300000000000000000000000000000000000000000000000000006064820152608401610190565b6105108161057f565b50565b604080516001600160a01b038416602482015260448082018490528251808303909101815260649091019091526020810180517bffffffffffffffffffffffffffffffffffffffffffffffffffffffff1663a9059cbb60e01b17905261057a9084906105e7565b505050565b600080546001600160a01b038381167fffffffffffffffffffffffff0000000000000000000000000000000000000000831681178455604051919092169283917f8be0079c531659141344cd1fd0a4f28419497f9722a3daafe3b4186f6b6457e09190a35050565b600061063c826040518060400160405280602081526020017f5361666545524332303a206c6f772d6c6576656c2063616c6c206661696c6564815250856001600160a01b03166106cc9092919063ffffffff16565b80519091501561057a578080602001905181019061065a91906109e5565b61057a5760405162461bcd60e51b815260206004820152602a60248201527f5361666545524332303a204552433230206f7065726174696f6e20646964206e60448201527f6f742073756363656564000000000000000000000000000000000000000000006064820152608401610190565b60606106db84846000856106e5565b90505b9392505050565b60608247101561075d5760405162461bcd60e51b815260206004820152602660248201527f416464726573733a20696e73756666696369656e742062616c616e636520666f60448201527f722063616c6c00000000000000000000000000000000000000000000000000006064820152608401610190565b843b6107ab5760405162461bcd60e51b815260206004820152601d60248201527f416464726573733a2063616c6c20746f206e6f6e2d636f6e74726163740000006044820152606401610190565b600080866001600160a01b031685876040516107c79190610a37565b60006040518083038185875af1925050503d8060008114610804576040519150601f19603f3d011682016040523d82523d6000602084013e610809565b606091505b5091509150610819828286610824565b979650505050505050565b606083156108335750816106de565b8251156108435782518084602001fd5b8160405162461bcd60e51b81526004016101909190610a53565b60006020828403121561086f57600080fd5b5035919050565b6000806020838503121561088957600080fd5b823567ffffffffffffffff808211156108a157600080fd5b818501915085601f8301126108b557600080fd5b8135818111156108c457600080fd5b8660208260051b85010111156108d957600080fd5b60209290920196919550909350505050565b80356001600160a01b038116811461090257600080fd5b919050565b60006020828403121561091957600080fd5b6106de826108eb565b6000806040838503121561093557600080fd5b61093e836108eb565b946020939093013593505050565b634e487b7160e01b600052601160045260246000fd5b6000828210156109745761097461094c565b500390565b634e487b7160e01b600052603260045260246000fd5b6000602082840312156109a157600080fd5b5051919050565b6000826109c557634e487b7160e01b600052601260045260246000fd5b500490565b60006000198214156109de576109de61094c565b5060010190565b6000602082840312156109f757600080fd5b815180151581146106de57600080fd5b60005b83811015610a22578181015183820152602001610a0a565b83811115610a31576000848401525b50505050565b60008251610a49818460208701610a07565b9190910192915050565b6020815260008251806020840152610a72816040850160208701610a07565b601f01601f1916919091016040019291505056fea26469706673582212203a7372f79d1042dce9972ed1882e1c3c0ee17e1e1d09786638c75151d42e9b0864736f6c63430008090033",
  "devdoc": {
    "kind": "dev",
    "methods": {
      "drainToken(address,uint256)": {
        "details": "Owner drains one type of tokens",
        "params": {
          "_amount": "drained asset amount",
          "_asset": "drained asset address"
        }
      },
      "drip(address[])": {
        "details": "Sends 0.01% of each token to the caller.",
        "params": {
          "tokens": "The tokens to drip."
        }
      },
      "owner()": {
        "details": "Returns the address of the current owner."
      },
      "renounceOwnership()": {
        "details": "Leaves the contract without owner. It will not be possible to call `onlyOwner` functions anymore. Can only be called by the current owner. NOTE: Renouncing ownership will leave the contract without an owner, thereby removing any functionality that is only available to the owner."
      },
      "setMinDripBlkInterval(uint256)": {
        "details": "Owner set minDripBlkInterval",
        "params": {
          "_interval": "minDripBlkInterval value"
        }
      },
      "transferOwnership(address)": {
        "details": "Transfers ownership of the contract to a new account (`newOwner`). Can only be called by the current owner."
      }
    },
    "version": 1
  },
  "userdoc": {
    "kind": "user",
    "methods": {},
    "version": 1
  },
  "storageLayout": {
    "storage": [
      {
        "astId": 7,
        "contract": "contracts/miscs/Faucet.sol:Faucet",
        "label": "_owner",
        "offset": 0,
        "slot": "0",
        "type": "t_address"
      },
      {
        "astId": 10047,
        "contract": "contracts/miscs/Faucet.sol:Faucet",
        "label": "minDripBlkInterval",
        "offset": 0,
        "slot": "1",
        "type": "t_uint256"
      },
      {
        "astId": 10051,
        "contract": "contracts/miscs/Faucet.sol:Faucet",
        "label": "lastDripBlk",
        "offset": 0,
        "slot": "2",
        "type": "t_mapping(t_address,t_uint256)"
      }
    ],
    "types": {
      "t_address": {
        "encoding": "inplace",
        "label": "address",
        "numberOfBytes": "20"
      },
      "t_mapping(t_address,t_uint256)": {
        "encoding": "mapping",
        "key": "t_address",
        "label": "mapping(address => uint256)",
        "numberOfBytes": "32",
        "value": "t_uint256"
      },
      "t_uint256": {
        "encoding": "inplace",
        "label": "uint256",
        "numberOfBytes": "32"
      }
    }
  }
}