{
  "address": "0x8d50a024B2F5593605d3cE8183Ca8969226Fcbf8",
  "abi": [
    {
      "inputs": [
        {
          "internalType": "string",
          "name": "name_",
          "type": "string"
        },
        {
          "internalType": "string",
          "name": "symbol_",
          "type": "string"
        },
        {
          "internalType": "address",
          "name": "bridge_",
          "type": "address"
        },
        {
          "internalType": "address",
          "name": "canonical_",
          "type": "address"
        },
        {
          "internalType": "uint64",
          "name": "origChainId_",
          "type": "uint64"
        }
      ],
      "stateMutability": "nonpayable",
      "type": "constructor"
    },
    {
      "anonymous": false,
      "inputs": [
        {
          "indexed": true,
          "internalType": "address",
          "name": "owner",
          "type": "address"
        },
        {
          "indexed": true,
          "internalType": "address",
          "name": "spender",
          "type": "address"
        },
        {
          "indexed": false,
          "internalType": "uint256",
          "name": "value",
          "type": "uint256"
        }
      ],
      "name": "Approval",
      "type": "event"
    },
    {
      "anonymous": false,
      "inputs": [
        {
          "indexed": false,
          "internalType": "address",
          "name": "bridge",
          "type": "address"
        }
      ],
      "name": "BridgeUpdated",
      "type": "event"
    },
    {
      "anonymous": false,
      "inputs": [
        {
          "indexed": false,
          "internalType": "bytes32",
          "name": "transferId",
          "type": "bytes32"
        },
        {
          "indexed": false,
          "internalType": "address",
          "name": "origChainWithdrawAddress",
          "type": "address"
        },
        {
          "indexed": false,
          "internalType": "uint256",
          "name": "totalSupply",
          "type": "uint256"
        }
      ],
      "name": "Migrated",
      "type": "event"
    },
    {
      "anonymous": false,
      "inputs": [
        {
          "indexed": false,
          "internalType": "address",
          "name": "origChainWithdrawAddress",
          "type": "address"
        }
      ],
      "name": "OrigChainWithdrawAddressUpdated",
      "type": "event"
    },
    {
      "anonymous": false,
      "inputs": [
        {
          "indexed": true,
          "internalType": "address",
          "name": "previousOwner",
          "type": "address"
        },
        {
          "indexed": true,
          "internalType": "address",
          "name": "newOwner",
          "type": "address"
        }
      ],
      "name": "OwnershipTransferred",
      "type": "event"
    },
    {
      "anonymous": false,
      "inputs": [
        {
          "indexed": true,
          "internalType": "address",
          "name": "from",
          "type": "address"
        },
        {
          "indexed": true,
          "internalType": "address",
          "name": "to",
          "type": "address"
        },
        {
          "indexed": false,
          "internalType": "uint256",
          "name": "value",
          "type": "uint256"
        }
      ],
      "name": "Transfer",
      "type": "event"
    },
    {
      "inputs": [
        {
          "internalType": "address",
          "name": "owner",
          "type": "address"
        },
        {
          "internalType": "address",
          "name": "spender",
          "type": "address"
        }
      ],
      "name": "allowance",
      "outputs": [
        {
          "internalType": "uint256",
          "name": "",
          "type": "uint256"
        }
      ],
      "stateMutability": "view",
      "type": "function"
    },
    {
      "inputs": [
        {
          "internalType": "address",
          "name": "spender",
          "type": "address"
        },
        {
          "internalType": "uint256",
          "name": "amount",
          "type": "uint256"
        }
      ],
      "name": "approve",
      "outputs": [
        {
          "internalType": "bool",
          "name": "",
          "type": "bool"
        }
      ],
      "stateMutability": "nonpayable",
      "type": "function"
    },
    {
      "inputs": [
        {
          "internalType": "address",
          "name": "account",
          "type": "address"
        }
      ],
      "name": "balanceOf",
      "outputs": [
        {
          "internalType": "uint256",
          "name": "",
          "type": "uint256"
        }
      ],
      "stateMutability": "view",
      "type": "function"
    },
    {
      "inputs": [],
      "name": "bridge",
      "outputs": [
        {
          "internalType": "address",
          "name": "",
          "type": "address"
        }
      ],
      "stateMutability": "view",
      "type": "function"
    },
    {
      "inputs": [
        {
          "internalType": "address",
          "name": "_from",
          "type": "address"
        },
        {
          "internalType": "uint256",
          "name": "_amount",
          "type": "uint256"
        }
      ],
      "name": "burn",
      "outputs": [
        {
          "internalType": "bool",
          "name": "",
          "type": "bool"
        }
      ],
      "stateMutability": "nonpayable",
      "type": "function"
    },
    {
      "inputs": [],
      "name": "canonical",
      "outputs": [
        {
          "internalType": "address",
          "name": "",
          "type": "address"
        }
      ],
      "stateMutability": "view",
      "type": "function"
    },
    {
      "inputs": [],
      "name": "decimals",
      "outputs": [
        {
          "internalType": "uint8",
          "name": "",
          "type": "uint8"
        }
      ],
      "stateMutability": "view",
      "type": "function"
    },
    {
      "inputs": [
        {
          "internalType": "address",
          "name": "spender",
          "type": "address"
        },
        {
          "internalType": "uint256",
          "name": "subtractedValue",
          "type": "uint256"
        }
      ],
      "name": "decreaseAllowance",
      "outputs": [
        {
          "internalType": "bool",
          "name": "",
          "type": "bool"
        }
      ],
      "stateMutability": "nonpayable",
      "type": "function"
    },
    {
      "inputs": [],
      "name": "getOwner",
      "outputs": [
        {
          "internalType": "address",
          "name": "",
          "type": "address"
        }
      ],
      "stateMutability": "view",
      "type": "function"
    },
    {
      "inputs": [
        {
          "internalType": "address",
          "name": "spender",
          "type": "address"
        },
        {
          "internalType": "uint256",
          "name": "addedValue",
          "type": "uint256"
        }
      ],
      "name": "increaseAllowance",
      "outputs": [
        {
          "internalType": "bool",
          "name": "",
          "type": "bool"
        }
      ],
      "stateMutability": "nonpayable",
      "type": "function"
    },
    {
      "inputs": [],
      "name": "migrate",
      "outputs": [],
      "stateMutability": "nonpayable",
      "type": "function"
    },
    {
      "inputs": [],
      "name": "migrated",
      "outputs": [
        {
          "internalType": "bool",
          "name": "",
          "type": "bool"
        }
      ],
      "stateMutability": "view",
      "type": "function"
    },
    {
      "inputs": [
        {
          "internalType": "address",
          "name": "_to",
          "type": "address"
        },
        {
          "internalType": "uint256",
          "name": "_amount",
          "type": "uint256"
        }
      ],
      "name": "mint",
      "outputs": [
        {
          "internalType": "bool",
          "name": "",
          "type": "bool"
        }
      ],
      "stateMutability": "nonpayable",
      "type": "function"
    },
    {
      "inputs": [],
      "name": "name",
      "outputs": [
        {
          "internalType": "string",
          "name": "",
          "type": "string"
        }
      ],
      "stateMutability": "view",
      "type": "function"
    },
    {
      "inputs": [],
      "name": "origChainId",
      "outputs": [
        {
          "internalType": "uint64",
          "name": "",
          "type": "uint64"
        }
      ],
      "stateMutability": "view",
      "type": "function"
    },
    {
      "inputs": [],
      "name": "origChainWithdrawAddress",
      "outputs": [
        {
          "internalType": "address",
          "name": "",
          "type": "address"
        }
      ],
      "stateMutability": "view",
      "type": "function"
    },
    {
      "inputs": [],
      "name": "owner",
      "outputs": [
        {
          "internalType": "address",
          "name": "",
          "type": "address"
        }
      ],
      "stateMutability": "view",
      "type": "function"
    },
    {
      "inputs": [],
      "name": "renounceOwnership",
      "outputs": [],
      "stateMutability": "nonpayable",
      "type": "function"
    },
    {
      "inputs": [
        {
          "internalType": "address",
          "name": "_origChainWithdrawAddress",
          "type": "address"
        }
      ],
      "name": "setOrigChainWithdrawAddress",
      "outputs": [],
      "stateMutability": "nonpayable",
      "type": "function"
    },
    {
      "inputs": [],
      "name": "symbol",
      "outputs": [
        {
          "internalType": "string",
          "name": "",
          "type": "string"
        }
      ],
      "stateMutability": "view",
      "type": "function"
    },
    {
      "inputs": [],
      "name": "totalSupply",
      "outputs": [
        {
          "internalType": "uint256",
          "name": "",
          "type": "uint256"
        }
      ],
      "stateMutability": "view",
      "type": "function"
    },
    {
      "inputs": [
        {
          "internalType": "address",
          "name": "to",
          "type": "address"
        },
        {
          "internalType": "uint256",
          "name": "amount",
          "type": "uint256"
        }
      ],
      "name": "transfer",
      "outputs": [
        {
          "internalType": "bool",
          "name": "",
          "type": "bool"
        }
      ],
      "stateMutability": "nonpayable",
      "type": "function"
    },
    {
      "inputs": [
        {
          "internalType": "address",
          "name": "from",
          "type": "address"
        },
        {
          "internalType": "address",
          "name": "to",
          "type": "address"
        },
        {
          "internalType": "uint256",
          "name": "amount",
          "type": "uint256"
        }
      ],
      "name": "transferFrom",
      "outputs": [
        {
          "internalType": "bool",
          "name": "",
          "type": "bool"
        }
      ],
      "stateMutability": "nonpayable",
      "type": "function"
    },
    {
      "inputs": [
        {
          "internalType": "address",
          "name": "newOwner",
          "type": "address"
        }
      ],
      "name": "transferOwnership",
      "outputs": [],
      "stateMutability": "nonpayable",
      "type": "function"
    },
    {
      "inputs": [
        {
          "internalType": "address",
          "name": "_bridge",
          "type": "address"
        }
      ],
      "name": "updateBridge",
      "outputs": [],
      "stateMutability": "nonpayable",
      "type": "function"
    }
  ],
  "transactionHash": "0x61c1b55539f6891d6c76c385d67a7a34293dfb6898a02043444c260cfb1a934f",
  "args": [
    "Intermediary Bridged USDC (Celer)",
    "USDC.e-intermediary",
    "0xBB7684Cc5408F4DD0921E5c2Cadd547b8f1AD573",
    "0x7f27352D5F83Db87a5A3E00f4B07Cc2138D8ee52",
    "1"
  ],
  "numDeployments": 1,
  "solcInputHash": "4157568d4cea0a036d5924866213fd8c",
  "bytecode": "0x60c06040523480156200001157600080fd5b506040516200247c3803806200247c8339810160408190526200003491620001de565b8484600362000044838262000318565b50600462000053828262000318565b505050620000706200006a620000a660201b60201c565b620000aa565b600680546001600160a01b0319166001600160a01b0394851617905591166080526001600160401b031660a05250620003e49050565b3390565b600580546001600160a01b038381166001600160a01b0319831681179093556040519116919082907f8be0079c531659141344cd1fd0a4f28419497f9722a3daafe3b4186f6b6457e090600090a35050565b634e487b7160e01b600052604160045260246000fd5b600082601f8301126200012457600080fd5b81516001600160401b0380821115620001415762000141620000fc565b604051601f8301601f19908116603f011681019082821181831017156200016c576200016c620000fc565b816040528381526020925086838588010111156200018957600080fd5b600091505b83821015620001ad57858201830151818301840152908201906200018e565b600093810190920192909252949350505050565b80516001600160a01b0381168114620001d957600080fd5b919050565b600080600080600060a08688031215620001f757600080fd5b85516001600160401b03808211156200020f57600080fd5b6200021d89838a0162000112565b965060208801519150808211156200023457600080fd5b6200024289838a0162000112565b95506200025260408901620001c1565b94506200026260608901620001c1565b93506080880151915080821682146200027a57600080fd5b50809150509295509295909350565b600181811c908216806200029e57607f821691505b602082108103620002bf57634e487b7160e01b600052602260045260246000fd5b50919050565b601f8211156200031357600081815260208120601f850160051c81016020861015620002ee5750805b601f850160051c820191505b818110156200030f57828155600101620002fa565b5050505b505050565b81516001600160401b03811115620003345762000334620000fc565b6200034c8162000345845462000289565b84620002c5565b602080601f8311600181146200038457600084156200036b5750858301515b600019600386901b1c1916600185901b1785556200030f565b600085815260208120601f198616915b82811015620003b55788860151825594840194600190910190840162000394565b5085821015620003d45787850151600019600388901b60f8161c191681555b5050505050600190811b01905550565b60805160a05161204f6200042d600039600081816101ad01526109d601526000818161024f015281816104e00152818161068301528181610aea0152610b28015261204f6000f3fe608060405234801561001057600080fd5b50600436106101a35760003560e01c806370a08231116100ee578063972fc27011610097578063a9059cbb11610071578063a9059cbb14610398578063dd62ed3e146103ab578063e78cea92146103e4578063f2fde38b146103f757600080fd5b8063972fc2701461035f5780639dc29fac14610372578063a457c2d71461038557600080fd5b80638da5cb5b116100c85780638da5cb5b1461033e5780638fd3ab801461034f57806395d89b411461035757600080fd5b806370a0823114610305578063715018a61461032e578063893d20e81461033657600080fd5b80632c678c641161015057806340c10f191161012a57806340c10f19146102ca5780634b47235f146102dd5780636eb38212146102f257600080fd5b80632c678c6414610289578063313ce5671461029d57806339509351146102b757600080fd5b806318160ddd1161018157806318160ddd1461022557806323b872dd1461023757806326afaadd1461024a57600080fd5b806301605925146101a857806306fdde03146101ed578063095ea7b314610202575b600080fd5b6101cf7f000000000000000000000000000000000000000000000000000000000000000081565b60405167ffffffffffffffff90911681526020015b60405180910390f35b6101f561040a565b6040516101e49190611e10565b610215610210366004611e5f565b61049c565b60405190151581526020016101e4565b6002545b6040519081526020016101e4565b610215610245366004611e89565b6104b6565b6102717f000000000000000000000000000000000000000000000000000000000000000081565b6040516001600160a01b0390911681526020016101e4565b60065461021590600160a01b900460ff1681565b6102a56104dc565b60405160ff90911681526020016101e4565b6102156102c5366004611e5f565b610565565b6102156102d8366004611e5f565b6105a4565b6102f06102eb366004611ec5565b6106e9565b005b6102f0610300366004611ec5565b6107a5565b610229610313366004611ec5565b6001600160a01b031660009081526020819052604090205490565b6102f061085a565b6102716108c0565b6005546001600160a01b0316610271565b6102f06108d4565b6101f5610a56565b600754610271906001600160a01b031681565b610215610380366004611e5f565b610a65565b610215610393366004611e5f565b610b68565b6102156103a6366004611e5f565b610c1d565b6102296103b9366004611ee0565b6001600160a01b03918216600090815260016020908152604080832093909416825291909152205490565b600654610271906001600160a01b031681565b6102f0610405366004611ec5565b610c2b565b60606003805461041990611f13565b80601f016020809104026020016040519081016040528092919081815260200182805461044590611f13565b80156104925780601f1061046757610100808354040283529160200191610492565b820191906000526020600020905b81548152906001019060200180831161047557829003601f168201915b5050505050905090565b6000336104aa818585610d0d565b60019150505b92915050565b6000336104c4858285610e32565b6104cf858585610ec4565b60019150505b9392505050565b60007f00000000000000000000000000000000000000000000000000000000000000006001600160a01b031663313ce5676040518163ffffffff1660e01b8152600401602060405180830381865afa15801561053c573d6000803e3d6000fd5b505050506040513d601f19601f820116820180604052508101906105609190611f4d565b905090565b3360008181526001602090815260408083206001600160a01b03871684529091528120549091906104aa908290869061059f908790611f86565b610d0d565b6006546000906001600160a01b031633146106065760405162461bcd60e51b815260206004820152601460248201527f63616c6c6572206973206e6f742062726964676500000000000000000000000060448201526064015b60405180910390fd5b600654600160a01b900460ff16156106535760405162461bcd60e51b815260206004820152601060248201526f185b1c9958591e481b5a59dc985d195960821b60448201526064016105fd565b61065d30836110c1565b6040516340c10f1960e01b81526001600160a01b038481166004830152602482018490527f000000000000000000000000000000000000000000000000000000000000000016906340c10f19906044015b600060405180830381600087803b1580156106c857600080fd5b505af11580156106dc573d6000803e3d6000fd5b5060019695505050505050565b6005546001600160a01b031633146107435760405162461bcd60e51b815260206004820181905260248201527f4f776e61626c653a2063616c6c6572206973206e6f7420746865206f776e657260448201526064016105fd565b6007805473ffffffffffffffffffffffffffffffffffffffff19166001600160a01b0383169081179091556040519081527fbb7639882cd4269c0d5999de1d6dbf1b7d22c7eeecee005efd959bc439282f6a906020015b60405180910390a150565b6005546001600160a01b031633146107ff5760405162461bcd60e51b815260206004820181905260248201527f4f776e61626c653a2063616c6c6572206973206e6f7420746865206f776e657260448201526064016105fd565b6006805473ffffffffffffffffffffffffffffffffffffffff19166001600160a01b0383169081179091556040519081527fe1694c0b21fdceff6411daed547c7463c2341b9695387bc82595b5b9b1851d4a9060200161079a565b6005546001600160a01b031633146108b45760405162461bcd60e51b815260206004820181905260248201527f4f776e61626c653a2063616c6c6572206973206e6f7420746865206f776e657260448201526064016105fd565b6108be60006111a0565b565b60006105606005546001600160a01b031690565b6005546001600160a01b0316331461092e5760405162461bcd60e51b815260206004820181905260248201527f4f776e61626c653a2063616c6c6572206973206e6f7420746865206f776e657260448201526064016105fd565b600654600160a01b900460ff161561097b5760405162461bcd60e51b815260206004820152601060248201526f185b1c9958591e481b5a59dc985d195960821b60448201526064016105fd565b600680547fffffffffffffffffffffff00ffffffffffffffffffffffffffffffffffffffff16600160a01b17905560006109b460025490565b600754600654919250600091610a03916001600160a01b0390811691309186917f00000000000000000000000000000000000000000000000000000000000000009142918891600591166111ff565b600754604080518381526001600160a01b03909216602083015281018490529091507f8d598afb033baf391d081d61b5e18836dcd5caf14542f5a4ed0a1a0c2619eb659060600160405180910390a15050565b60606004805461041990611f13565b6006546000906001600160a01b03163314610ac25760405162461bcd60e51b815260206004820152601460248201527f63616c6c6572206973206e6f742062726964676500000000000000000000000060448201526064016105fd565b610acc30836117be565b600654600160a01b900460ff16610b5f57610b126001600160a01b037f000000000000000000000000000000000000000000000000000000000000000016843085611909565b604051630852cd8d60e31b8152600481018390527f00000000000000000000000000000000000000000000000000000000000000006001600160a01b0316906342966c68906024016106ae565b50600192915050565b3360008181526001602090815260408083206001600160a01b038716845290915281205490919083811015610c055760405162461bcd60e51b815260206004820152602560248201527f45524332303a2064656372656173656420616c6c6f77616e63652062656c6f7760448201527f207a65726f00000000000000000000000000000000000000000000000000000060648201526084016105fd565b610c128286868403610d0d565b506001949350505050565b6000336104aa818585610ec4565b6005546001600160a01b03163314610c855760405162461bcd60e51b815260206004820181905260248201527f4f776e61626c653a2063616c6c6572206973206e6f7420746865206f776e657260448201526064016105fd565b6001600160a01b038116610d015760405162461bcd60e51b815260206004820152602660248201527f4f776e61626c653a206e6577206f776e657220697320746865207a65726f206160448201527f646472657373000000000000000000000000000000000000000000000000000060648201526084016105fd565b610d0a816111a0565b50565b6001600160a01b038316610d6f5760405162461bcd60e51b8152602060048201526024808201527f45524332303a20617070726f76652066726f6d20746865207a65726f206164646044820152637265737360e01b60648201526084016105fd565b6001600160a01b038216610dd05760405162461bcd60e51b815260206004820152602260248201527f45524332303a20617070726f766520746f20746865207a65726f206164647265604482015261737360f01b60648201526084016105fd565b6001600160a01b0383811660008181526001602090815260408083209487168084529482529182902085905590518481527f8c5be1e5ebec7d5bd14f71427d1e84f3dd0314c0f7b2291e5b200ac8c7c3b92591015b60405180910390a3505050565b6001600160a01b038381166000908152600160209081526040808320938616835292905220546000198114610ebe5781811015610eb15760405162461bcd60e51b815260206004820152601d60248201527f45524332303a20696e73756666696369656e7420616c6c6f77616e636500000060448201526064016105fd565b610ebe8484848403610d0d565b50505050565b6001600160a01b038316610f405760405162461bcd60e51b815260206004820152602560248201527f45524332303a207472616e736665722066726f6d20746865207a65726f20616460448201527f647265737300000000000000000000000000000000000000000000000000000060648201526084016105fd565b6001600160a01b038216610fa25760405162461bcd60e51b815260206004820152602360248201527f45524332303a207472616e7366657220746f20746865207a65726f206164647260448201526265737360e81b60648201526084016105fd565b6001600160a01b038316600090815260208190526040902054818110156110315760405162461bcd60e51b815260206004820152602660248201527f45524332303a207472616e7366657220616d6f756e742065786365656473206260448201527f616c616e6365000000000000000000000000000000000000000000000000000060648201526084016105fd565b6001600160a01b03808516600090815260208190526040808220858503905591851681529081208054849290611068908490611f86565b92505081905550826001600160a01b0316846001600160a01b03167fddf252ad1be2c89b69c2b068fc378daa952ba7f163c4a11628f55a4df523b3ef846040516110b491815260200190565b60405180910390a3610ebe565b6001600160a01b0382166111175760405162461bcd60e51b815260206004820152601f60248201527f45524332303a206d696e7420746f20746865207a65726f20616464726573730060448201526064016105fd565b80600260008282546111299190611f86565b90915550506001600160a01b03821660009081526020819052604081208054839290611156908490611f86565b90915550506040518181526001600160a01b038316906000907fddf252ad1be2c89b69c2b068fc378daa952ba7f163c4a11628f55a4df523b3ef9060200160405180910390a35050565b600580546001600160a01b0383811673ffffffffffffffffffffffffffffffffffffffff19831681179093556040519116919082907f8be0079c531659141344cd1fd0a4f28419497f9722a3daafe3b4186f6b6457e090600090a35050565b6000806112166001600160a01b038a16848a6119a1565b600184600681111561122a5761122a611f99565b036113445760405163a5977fbb60e01b81526001600160a01b038b811660048301528a81166024830152604482018a905267ffffffffffffffff808a1660648401528816608483015263ffffffff871660a483015284169063a5977fbb9060c401600060405180830381600087803b1580156112a557600080fd5b505af11580156112b9573d6000803e3d6000fd5b50506040516bffffffffffffffffffffffff1930606090811b821660208401528e811b821660348401528d901b166048820152605c81018b90526001600160c01b031960c08b811b8216607c8401528a811b8216608484015246901b16608c82015260940191506113279050565b6040516020818303038152906040528051906020012090506117b1565b600284600681111561135857611358611f99565b0361145d576040516308d18d8960e21b81526001600160a01b038a81166004830152602482018a905267ffffffffffffffff808a1660448401528c821660648401528816608483015284169063234636249060a401600060405180830381600087803b1580156113c757600080fd5b505af11580156113db573d6000803e3d6000fd5b50505050308989898d8a466040516020016113279796959493929190606097881b6bffffffffffffffffffffffff19908116825296881b87166014820152602881019590955260c093841b6001600160c01b031990811660488701529290961b909416605084015292811b831660648301529290921b16606c82015260740190565b600384600681111561147157611471611f99565b0361158457604051636f3c863f60e11b81526001600160a01b038a81166004830152602482018a90528b8116604483015267ffffffffffffffff8816606483015284169063de790c7e90608401600060405180830381600087803b1580156114d857600080fd5b505af11580156114ec573d6000803e3d6000fd5b50506040516bffffffffffffffffffffffff1930606090811b821660208401528d811b82166034840152604883018d90528e901b1660688201526001600160c01b031960c08a811b8216607c84015246901b166084820152608c0191506115509050565b60408051601f198184030181529190528051602090910120905061157f6001600160a01b038a16846000611a53565b6117b1565b600484600681111561159857611598611f99565b03611637576040516308d18d8960e21b81526001600160a01b038a81166004830152602482018a905267ffffffffffffffff808a1660448401528c821660648401528816608483015284169063234636249060a4016020604051808303816000875af115801561160c573d6000803e3d6000fd5b505050506040513d601f19601f820116820180604052508101906116309190611faf565b90506117b1565b600584600681111561164b5761164b611f99565b036116fb5760405163a002930160e01b81526001600160a01b038a81166004830152602482018a905267ffffffffffffffff808a1660448401528c821660648401528816608483015284169063a00293019060a4015b6020604051808303816000875af11580156116c0573d6000803e3d6000fd5b505050506040513d601f19601f820116820180604052508101906116e49190611faf565b905061157f6001600160a01b038a16846000611a53565b600684600681111561170f5761170f611f99565b0361176957604051639e422c3360e01b81526001600160a01b038a81166004830152602482018a905267ffffffffffffffff808a1660448401528c8216606484015288166084830152841690639e422c339060a4016116a1565b60405162461bcd60e51b815260206004820152601e60248201527f6272696467652073656e642074797065206e6f7420737570706f72746564000060448201526064016105fd565b9998505050505050505050565b6001600160a01b03821661181e5760405162461bcd60e51b815260206004820152602160248201527f45524332303a206275726e2066726f6d20746865207a65726f206164647265736044820152607360f81b60648201526084016105fd565b6001600160a01b038216600090815260208190526040902054818110156118925760405162461bcd60e51b815260206004820152602260248201527f45524332303a206275726e20616d6f756e7420657863656564732062616c616e604482015261636560f01b60648201526084016105fd565b6001600160a01b03831660009081526020819052604081208383039055600280548492906118c1908490611fc8565b90915550506040518281526000906001600160a01b038516907fddf252ad1be2c89b69c2b068fc378daa952ba7f163c4a11628f55a4df523b3ef90602001610e25565b505050565b6040516001600160a01b0380851660248301528316604482015260648101829052610ebe9085906323b872dd60e01b906084015b60408051601f198184030181529190526020810180517bffffffffffffffffffffffffffffffffffffffffffffffffffffffff167fffffffff0000000000000000000000000000000000000000000000000000000090931692909217909152611b6f565b604051636eb1769f60e11b81523060048201526001600160a01b038381166024830152600091839186169063dd62ed3e90604401602060405180830381865afa1580156119f2573d6000803e3d6000fd5b505050506040513d601f19601f82011682018060405250810190611a169190611faf565b611a209190611f86565b6040516001600160a01b038516602482015260448101829052909150610ebe90859063095ea7b360e01b9060640161193d565b801580611acd5750604051636eb1769f60e11b81523060048201526001600160a01b03838116602483015284169063dd62ed3e90604401602060405180830381865afa158015611aa7573d6000803e3d6000fd5b505050506040513d601f19601f82011682018060405250810190611acb9190611faf565b155b611b3f5760405162461bcd60e51b815260206004820152603660248201527f5361666545524332303a20617070726f76652066726f6d206e6f6e2d7a65726f60448201527f20746f206e6f6e2d7a65726f20616c6c6f77616e63650000000000000000000060648201526084016105fd565b6040516001600160a01b03831660248201526044810182905261190490849063095ea7b360e01b9060640161193d565b6000611bc4826040518060400160405280602081526020017f5361666545524332303a206c6f772d6c6576656c2063616c6c206661696c6564815250856001600160a01b0316611c549092919063ffffffff16565b8051909150156119045780806020019051810190611be29190611fdb565b6119045760405162461bcd60e51b815260206004820152602a60248201527f5361666545524332303a204552433230206f7065726174696f6e20646964206e60448201527f6f7420737563636565640000000000000000000000000000000000000000000060648201526084016105fd565b6060611c638484600085611c6b565b949350505050565b606082471015611ce35760405162461bcd60e51b815260206004820152602660248201527f416464726573733a20696e73756666696369656e742062616c616e636520666f60448201527f722063616c6c000000000000000000000000000000000000000000000000000060648201526084016105fd565b6001600160a01b0385163b611d3a5760405162461bcd60e51b815260206004820152601d60248201527f416464726573733a2063616c6c20746f206e6f6e2d636f6e747261637400000060448201526064016105fd565b600080866001600160a01b03168587604051611d569190611ffd565b60006040518083038185875af1925050503d8060008114611d93576040519150601f19603f3d011682016040523d82523d6000602084013e611d98565b606091505b5091509150611da8828286611db3565b979650505050505050565b60608315611dc25750816104d5565b825115611dd25782518084602001fd5b8160405162461bcd60e51b81526004016105fd9190611e10565b60005b83811015611e07578181015183820152602001611def565b50506000910152565b6020815260008251806020840152611e2f816040850160208701611dec565b601f01601f19169190910160400192915050565b80356001600160a01b0381168114611e5a57600080fd5b919050565b60008060408385031215611e7257600080fd5b611e7b83611e43565b946020939093013593505050565b600080600060608486031215611e9e57600080fd5b611ea784611e43565b9250611eb560208501611e43565b9150604084013590509250925092565b600060208284031215611ed757600080fd5b6104d582611e43565b60008060408385031215611ef357600080fd5b611efc83611e43565b9150611f0a60208401611e43565b90509250929050565b600181811c90821680611f2757607f821691505b602082108103611f4757634e487b7160e01b600052602260045260246000fd5b50919050565b600060208284031215611f5f57600080fd5b815160ff811681146104d557600080fd5b634e487b7160e01b600052601160045260246000fd5b808201808211156104b0576104b0611f70565b634e487b7160e01b600052602160045260246000fd5b600060208284031215611fc157600080fd5b5051919050565b818103818111156104b0576104b0611f70565b600060208284031215611fed57600080fd5b815180151581146104d557600080fd5b6000825161200f818460208701611dec565b919091019291505056fea2646970667358221220c42043a79fd1daeadc761d7c8e6b968ef5237a3135cff19d07e9e172fc2eb8a364736f6c63430008110033",
  "devdoc": {
    "kind": "dev",
    "methods": {
      "allowance(address,address)": {
        "details": "See {IERC20-allowance}."
      },
      "approve(address,uint256)": {
        "details": "See {IERC20-approve}. NOTE: If `amount` is the maximum `uint256`, the allowance is not updated on `transferFrom`. This is semantically equivalent to an infinite approval. Requirements: - `spender` cannot be the zero address."
      },
      "balanceOf(address)": {
        "details": "See {IERC20-balanceOf}."
      },
      "decimals()": {
        "details": "Returns the number of decimals used to get its user representation. For example, if `decimals` equals `2`, a balance of `505` tokens should be displayed to a user as `5.05` (`505 / 10 ** 2`). Tokens usually opt for a value of 18, imitating the relationship between Ether and Wei. This is the value {ERC20} uses, unless this function is overridden; NOTE: This information is only used for _display_ purposes: it in no way affects any of the arithmetic of the contract, including {IERC20-balanceOf} and {IERC20-transfer}."
      },
      "decreaseAllowance(address,uint256)": {
        "details": "Atomically decreases the allowance granted to `spender` by the caller. This is an alternative to {approve} that can be used as a mitigation for problems described in {IERC20-approve}. Emits an {Approval} event indicating the updated allowance. Requirements: - `spender` cannot be the zero address. - `spender` must have allowance for the caller of at least `subtractedValue`."
      },
      "increaseAllowance(address,uint256)": {
        "details": "Atomically increases the allowance granted to `spender` by the caller. This is an alternative to {approve} that can be used as a mitigation for problems described in {IERC20-approve}. Emits an {Approval} event indicating the updated allowance. Requirements: - `spender` cannot be the zero address."
      },
      "name()": {
        "details": "Returns the name of the token."
      },
      "owner()": {
        "details": "Returns the address of the current owner."
      },
      "renounceOwnership()": {
        "details": "Leaves the contract without owner. It will not be possible to call `onlyOwner` functions anymore. Can only be called by the current owner. NOTE: Renouncing ownership will leave the contract without an owner, thereby removing any functionality that is only available to the owner."
      },
      "symbol()": {
        "details": "Returns the symbol of the token, usually a shorter version of the name."
      },
      "totalSupply()": {
        "details": "See {IERC20-totalSupply}."
      },
      "transfer(address,uint256)": {
        "details": "See {IERC20-transfer}. Requirements: - `to` cannot be the zero address. - the caller must have a balance of at least `amount`."
      },
      "transferFrom(address,address,uint256)": {
        "details": "See {IERC20-transferFrom}. Emits an {Approval} event indicating the updated allowance. This is not required by the EIP. See the note at the beginning of {ERC20}. NOTE: Does not update the allowance if the current allowance is the maximum `uint256`. Requirements: - `from` and `to` cannot be the zero address. - `from` must have a balance of at least `amount`. - the caller must have allowance for ``from``'s tokens of at least `amount`."
      },
      "transferOwnership(address)": {
        "details": "Transfers ownership of the contract to a new account (`newOwner`). Can only be called by the current owner."
      }
    },
    "title": "Intermediary token that delegates to a canonical Circle token. With the functionality to migrate minting / burning permissions to Circle in the future.",
    "version": 1
  },
  "userdoc": {
    "kind": "user",
    "methods": {},
    "version": 1
  },
  "storageLayout": {
    "storage": [
      {
        "astId": 1684,
        "contract": "contracts/pegged-bridge/tokens/customized/CircleBridgeToken.sol:CircleBridgeToken",
        "label": "_balances",
        "offset": 0,
        "slot": "0",
        "type": "t_mapping(t_address,t_uint256)"
      },
      {
        "astId": 1690,
        "contract": "contracts/pegged-bridge/tokens/customized/CircleBridgeToken.sol:CircleBridgeToken",
        "label": "_allowances",
        "offset": 0,
        "slot": "1",
        "type": "t_mapping(t_address,t_mapping(t_address,t_uint256))"
      },
      {
        "astId": 1692,
        "contract": "contracts/pegged-bridge/tokens/customized/CircleBridgeToken.sol:CircleBridgeToken",
        "label": "_totalSupply",
        "offset": 0,
        "slot": "2",
        "type": "t_uint256"
      },
      {
        "astId": 1694,
        "contract": "contracts/pegged-bridge/tokens/customized/CircleBridgeToken.sol:CircleBridgeToken",
        "label": "_name",
        "offset": 0,
        "slot": "3",
        "type": "t_string_storage"
      },
      {
        "astId": 1696,
        "contract": "contracts/pegged-bridge/tokens/customized/CircleBridgeToken.sol:CircleBridgeToken",
        "label": "_symbol",
        "offset": 0,
        "slot": "4",
        "type": "t_string_storage"
      },
      {
        "astId": 539,
        "contract": "contracts/pegged-bridge/tokens/customized/CircleBridgeToken.sol:CircleBridgeToken",
        "label": "_owner",
        "offset": 0,
        "slot": "5",
        "type": "t_address"
      },
      {
        "astId": 32468,
        "contract": "contracts/pegged-bridge/tokens/customized/CircleBridgeToken.sol:CircleBridgeToken",
        "label": "bridge",
        "offset": 0,
        "slot": "6",
        "type": "t_address"
      },
      {
        "astId": 32472,
        "contract": "contracts/pegged-bridge/tokens/customized/CircleBridgeToken.sol:CircleBridgeToken",
        "label": "migrated",
        "offset": 20,
        "slot": "6",
        "type": "t_bool"
      },
      {
        "astId": 32476,
        "contract": "contracts/pegged-bridge/tokens/customized/CircleBridgeToken.sol:CircleBridgeToken",
        "label": "origChainWithdrawAddress",
        "offset": 0,
        "slot": "7",
        "type": "t_address"
      }
    ],
    "types": {
      "t_address": {
        "encoding": "inplace",
        "label": "address",
        "numberOfBytes": "20"
      },
      "t_bool": {
        "encoding": "inplace",
        "label": "bool",
        "numberOfBytes": "1"
      },
      "t_mapping(t_address,t_mapping(t_address,t_uint256))": {
        "encoding": "mapping",
        "key": "t_address",
        "label": "mapping(address => mapping(address => uint256))",
        "numberOfBytes": "32",
        "value": "t_mapping(t_address,t_uint256)"
      },
      "t_mapping(t_address,t_uint256)": {
        "encoding": "mapping",
        "key": "t_address",
        "label": "mapping(address => uint256)",
        "numberOfBytes": "32",
        "value": "t_uint256"
      },
      "t_string_storage": {
        "encoding": "bytes",
        "label": "string",
        "numberOfBytes": "32"
      },
      "t_uint256": {
        "encoding": "inplace",
        "label": "uint256",
        "numberOfBytes": "32"
      }
    }
  }
}