{
  "address": "0x1619DE6B6B20eD217a58d00f37B9d47C7663feca",
  "abi": [
    {
      "inputs": [
        {
          "internalType": "string",
          "name": "name_",
          "type": "string"
        },
        {
          "internalType": "string",
          "name": "symbol_",
          "type": "string"
        },
        {
          "internalType": "address",
          "name": "bridge_",
          "type": "address"
        },
        {
          "internalType": "address",
          "name": "canonical_",
          "type": "address"
        }
      ],
      "stateMutability": "nonpayable",
      "type": "constructor"
    },
    {
      "anonymous": false,
      "inputs": [
        {
          "indexed": true,
          "internalType": "address",
          "name": "owner",
          "type": "address"
        },
        {
          "indexed": true,
          "internalType": "address",
          "name": "spender",
          "type": "address"
        },
        {
          "indexed": false,
          "internalType": "uint256",
          "name": "value",
          "type": "uint256"
        }
      ],
      "name": "Approval",
      "type": "event"
    },
    {
      "anonymous": false,
      "inputs": [
        {
          "indexed": false,
          "internalType": "address",
          "name": "bridge",
          "type": "address"
        }
      ],
      "name": "BridgeUpdated",
      "type": "event"
    },
    {
      "anonymous": false,
      "inputs": [
        {
          "indexed": true,
          "internalType": "address",
          "name": "previousOwner",
          "type": "address"
        },
        {
          "indexed": true,
          "internalType": "address",
          "name": "newOwner",
          "type": "address"
        }
      ],
      "name": "OwnershipTransferred",
      "type": "event"
    },
    {
      "anonymous": false,
      "inputs": [
        {
          "indexed": true,
          "internalType": "address",
          "name": "from",
          "type": "address"
        },
        {
          "indexed": true,
          "internalType": "address",
          "name": "to",
          "type": "address"
        },
        {
          "indexed": false,
          "internalType": "uint256",
          "name": "value",
          "type": "uint256"
        }
      ],
      "name": "Transfer",
      "type": "event"
    },
    {
      "inputs": [
        {
          "internalType": "address",
          "name": "owner",
          "type": "address"
        },
        {
          "internalType": "address",
          "name": "spender",
          "type": "address"
        }
      ],
      "name": "allowance",
      "outputs": [
        {
          "internalType": "uint256",
          "name": "",
          "type": "uint256"
        }
      ],
      "stateMutability": "view",
      "type": "function"
    },
    {
      "inputs": [
        {
          "internalType": "address",
          "name": "spender",
          "type": "address"
        },
        {
          "internalType": "uint256",
          "name": "amount",
          "type": "uint256"
        }
      ],
      "name": "approve",
      "outputs": [
        {
          "internalType": "bool",
          "name": "",
          "type": "bool"
        }
      ],
      "stateMutability": "nonpayable",
      "type": "function"
    },
    {
      "inputs": [
        {
          "internalType": "address",
          "name": "account",
          "type": "address"
        }
      ],
      "name": "balanceOf",
      "outputs": [
        {
          "internalType": "uint256",
          "name": "",
          "type": "uint256"
        }
      ],
      "stateMutability": "view",
      "type": "function"
    },
    {
      "inputs": [],
      "name": "bridge",
      "outputs": [
        {
          "internalType": "address",
          "name": "",
          "type": "address"
        }
      ],
      "stateMutability": "view",
      "type": "function"
    },
    {
      "inputs": [
        {
          "internalType": "address",
          "name": "_from",
          "type": "address"
        },
        {
          "internalType": "uint256",
          "name": "_amount",
          "type": "uint256"
        }
      ],
      "name": "burn",
      "outputs": [
        {
          "internalType": "bool",
          "name": "",
          "type": "bool"
        }
      ],
      "stateMutability": "nonpayable",
      "type": "function"
    },
    {
      "inputs": [],
      "name": "canonical",
      "outputs": [
        {
          "internalType": "address",
          "name": "",
          "type": "address"
        }
      ],
      "stateMutability": "view",
      "type": "function"
    },
    {
      "inputs": [],
      "name": "decimals",
      "outputs": [
        {
          "internalType": "uint8",
          "name": "",
          "type": "uint8"
        }
      ],
      "stateMutability": "view",
      "type": "function"
    },
    {
      "inputs": [
        {
          "internalType": "address",
          "name": "spender",
          "type": "address"
        },
        {
          "internalType": "uint256",
          "name": "subtractedValue",
          "type": "uint256"
        }
      ],
      "name": "decreaseAllowance",
      "outputs": [
        {
          "internalType": "bool",
          "name": "",
          "type": "bool"
        }
      ],
      "stateMutability": "nonpayable",
      "type": "function"
    },
    {
      "inputs": [],
      "name": "getOwner",
      "outputs": [
        {
          "internalType": "address",
          "name": "",
          "type": "address"
        }
      ],
      "stateMutability": "view",
      "type": "function"
    },
    {
      "inputs": [
        {
          "internalType": "address",
          "name": "spender",
          "type": "address"
        },
        {
          "internalType": "uint256",
          "name": "addedValue",
          "type": "uint256"
        }
      ],
      "name": "increaseAllowance",
      "outputs": [
        {
          "internalType": "bool",
          "name": "",
          "type": "bool"
        }
      ],
      "stateMutability": "nonpayable",
      "type": "function"
    },
    {
      "inputs": [
        {
          "internalType": "address",
          "name": "_to",
          "type": "address"
        },
        {
          "internalType": "uint256",
          "name": "_amount",
          "type": "uint256"
        }
      ],
      "name": "mint",
      "outputs": [
        {
          "internalType": "bool",
          "name": "",
          "type": "bool"
        }
      ],
      "stateMutability": "nonpayable",
      "type": "function"
    },
    {
      "inputs": [],
      "name": "name",
      "outputs": [
        {
          "internalType": "string",
          "name": "",
          "type": "string"
        }
      ],
      "stateMutability": "view",
      "type": "function"
    },
    {
      "inputs": [],
      "name": "owner",
      "outputs": [
        {
          "internalType": "address",
          "name": "",
          "type": "address"
        }
      ],
      "stateMutability": "view",
      "type": "function"
    },
    {
      "inputs": [],
      "name": "renounceOwnership",
      "outputs": [],
      "stateMutability": "nonpayable",
      "type": "function"
    },
    {
      "inputs": [],
      "name": "symbol",
      "outputs": [
        {
          "internalType": "string",
          "name": "",
          "type": "string"
        }
      ],
      "stateMutability": "view",
      "type": "function"
    },
    {
      "inputs": [],
      "name": "totalSupply",
      "outputs": [
        {
          "internalType": "uint256",
          "name": "",
          "type": "uint256"
        }
      ],
      "stateMutability": "view",
      "type": "function"
    },
    {
      "inputs": [
        {
          "internalType": "address",
          "name": "recipient",
          "type": "address"
        },
        {
          "internalType": "uint256",
          "name": "amount",
          "type": "uint256"
        }
      ],
      "name": "transfer",
      "outputs": [
        {
          "internalType": "bool",
          "name": "",
          "type": "bool"
        }
      ],
      "stateMutability": "nonpayable",
      "type": "function"
    },
    {
      "inputs": [
        {
          "internalType": "address",
          "name": "sender",
          "type": "address"
        },
        {
          "internalType": "address",
          "name": "recipient",
          "type": "address"
        },
        {
          "internalType": "uint256",
          "name": "amount",
          "type": "uint256"
        }
      ],
      "name": "transferFrom",
      "outputs": [
        {
          "internalType": "bool",
          "name": "",
          "type": "bool"
        }
      ],
      "stateMutability": "nonpayable",
      "type": "function"
    },
    {
      "inputs": [
        {
          "internalType": "address",
          "name": "newOwner",
          "type": "address"
        }
      ],
      "name": "transferOwnership",
      "outputs": [],
      "stateMutability": "nonpayable",
      "type": "function"
    },
    {
      "inputs": [
        {
          "internalType": "address",
          "name": "_bridge",
          "type": "address"
        }
      ],
      "name": "updateBridge",
      "outputs": [],
      "stateMutability": "nonpayable",
      "type": "function"
    }
  ],
  "transactionHash": "0xe792535937ec8d28887acdc98045c53f66030be1530193e930107db408be0718",
  "args": [
    "Celer-Pegged Frax Share",
    "celrFXS",
    "0x61f85fF2a2f4289Be4bb9B72Fc7010B3142B5f41",
    "0x67CCEA5bb16181E7b4109c9c2143c24a1c2205Be"
  ],
  "solcInputHash": "4a64c0183f7c023f18c16c773acefff1",
  "bytecode": "0x60a06040523480156200001157600080fd5b5060405162001a1738038062001a1783398101604081905262000034916200028f565b8351849084906200004d906003906020850190620000ff565b50805162000063906004906020840190620000ff565b505050620000806200007a620000a960201b60201c565b620000ad565b600680546001600160a01b0319166001600160a01b0393841617905516608052506200035b9050565b3390565b600580546001600160a01b038381166001600160a01b0319831681179093556040519116919082907f8be0079c531659141344cd1fd0a4f28419497f9722a3daafe3b4186f6b6457e090600090a35050565b8280546200010d906200031e565b90600052602060002090601f0160209004810192826200013157600085556200017c565b82601f106200014c57805160ff19168380011785556200017c565b828001600101855582156200017c579182015b828111156200017c5782518255916020019190600101906200015f565b506200018a9291506200018e565b5090565b5b808211156200018a57600081556001016200018f565b634e487b7160e01b600052604160045260246000fd5b600082601f830112620001cd57600080fd5b81516001600160401b0380821115620001ea57620001ea620001a5565b604051601f8301601f19908116603f01168101908282118183101715620002155762000215620001a5565b816040528381526020925086838588010111156200023257600080fd5b600091505b8382101562000256578582018301518183018401529082019062000237565b83821115620002685760008385830101525b9695505050505050565b80516001600160a01b03811681146200028a57600080fd5b919050565b60008060008060808587031215620002a657600080fd5b84516001600160401b0380821115620002be57600080fd5b620002cc88838901620001bb565b95506020870151915080821115620002e357600080fd5b50620002f287828801620001bb565b935050620003036040860162000272565b9150620003136060860162000272565b905092959194509250565b600181811c908216806200033357607f821691505b602082108114156200035557634e487b7160e01b600052602260045260246000fd5b50919050565b608051611676620003a1600039600081816101dc015281816104c70152818161060401528181610648015281816106db015281816108ba015261090101526116766000f3fe608060405234801561001057600080fd5b506004361061016c5760003560e01c8063715018a6116100cd578063a457c2d711610081578063dd62ed3e11610066578063dd62ed3e146102f6578063e78cea921461032f578063f2fde38b1461034257600080fd5b8063a457c2d7146102d0578063a9059cbb146102e357600080fd5b80638da5cb5b116100b25780638da5cb5b146102a457806395d89b41146102b55780639dc29fac146102bd57600080fd5b8063715018a614610294578063893d20e81461029c57600080fd5b8063313ce5671161012457806340c10f191161010957806340c10f19146102435780636eb382121461025657806370a082311461026b57600080fd5b8063313ce56714610216578063395093511461023057600080fd5b806318160ddd1161015557806318160ddd146101b257806323b872dd146101c457806326afaadd146101d757600080fd5b806306fdde0314610171578063095ea7b31461018f575b600080fd5b610179610355565b6040516101869190611443565b60405180910390f35b6101a261019d366004611492565b6103e7565b6040519015158152602001610186565b6002545b604051908152602001610186565b6101a26101d23660046114bc565b6103fd565b6101fe7f000000000000000000000000000000000000000000000000000000000000000081565b6040516001600160a01b039091168152602001610186565b61021e6104c3565b60405160ff9091168152602001610186565b6101a261023e366004611492565b61055b565b6101a2610251366004611492565b610597565b6102696102643660046114f8565b61070c565b005b6101b66102793660046114f8565b6001600160a01b031660009081526020819052604090205490565b6102696107c7565b6101fe61082d565b6005546001600160a01b03166101fe565b610179610841565b6101a26102cb366004611492565b610850565b6101a26102de366004611492565b610991565b6101a26102f1366004611492565b610a38565b6101b6610304366004611513565b6001600160a01b03918216600090815260016020908152604080832093909416825291909152205490565b6006546101fe906001600160a01b031681565b6102696103503660046114f8565b610a45565b60606003805461036490611546565b80601f016020809104026020016040519081016040528092919081815260200182805461039090611546565b80156103dd5780601f106103b2576101008083540402835291602001916103dd565b820191906000526020600020905b8154815290600101906020018083116103c057829003601f168201915b5050505050905090565b60006103f4338484610b27565b50600192915050565b600061040a848484610c4b565b6001600160a01b0384166000908152600160209081526040808320338452909152902054828110156104a95760405162461bcd60e51b815260206004820152602860248201527f45524332303a207472616e7366657220616d6f756e742065786365656473206160448201527f6c6c6f77616e636500000000000000000000000000000000000000000000000060648201526084015b60405180910390fd5b6104b68533858403610b27565b60019150505b9392505050565b60007f00000000000000000000000000000000000000000000000000000000000000006001600160a01b031663313ce5676040518163ffffffff1660e01b815260040160206040518083038186803b15801561051e57600080fd5b505afa158015610532573d6000803e3d6000fd5b505050506040513d601f19601f820116820180604052508101906105569190611581565b905090565b3360008181526001602090815260408083206001600160a01b038716845290915281205490916103f49185906105929086906115ba565b610b27565b6006546000906001600160a01b031633146105f45760405162461bcd60e51b815260206004820152601460248201527f63616c6c6572206973206e6f742062726964676500000000000000000000000060448201526064016104a0565b6105fe3083610e4a565b610629307f000000000000000000000000000000000000000000000000000000000000000084610b27565b604051639006a50f60e01b8152306004820152602481018390526000907f00000000000000000000000000000000000000000000000000000000000000006001600160a01b031690639006a50f90604401602060405180830381600087803b15801561069457600080fd5b505af11580156106a8573d6000803e3d6000fd5b505050506040513d601f19601f820116820180604052508101906106cc91906115d2565b90506107026001600160a01b037f0000000000000000000000000000000000000000000000000000000000000000168583610f29565b5060019392505050565b6005546001600160a01b031633146107665760405162461bcd60e51b815260206004820181905260248201527f4f776e61626c653a2063616c6c6572206973206e6f7420746865206f776e657260448201526064016104a0565b6006805473ffffffffffffffffffffffffffffffffffffffff19166001600160a01b0383169081179091556040519081527fe1694c0b21fdceff6411daed547c7463c2341b9695387bc82595b5b9b1851d4a9060200160405180910390a150565b6005546001600160a01b031633146108215760405162461bcd60e51b815260206004820181905260248201527f4f776e61626c653a2063616c6c6572206973206e6f7420746865206f776e657260448201526064016104a0565b61082b6000610fbe565b565b60006105566005546001600160a01b031690565b60606004805461036490611546565b6006546000906001600160a01b031633146108ad5760405162461bcd60e51b815260206004820152601460248201527f63616c6c6572206973206e6f742062726964676500000000000000000000000060448201526064016104a0565b6108e26001600160a01b037f00000000000000000000000000000000000000000000000000000000000000001684308561101d565b60405163280cf3ed60e01b8152306004820152602481018390526000907f00000000000000000000000000000000000000000000000000000000000000006001600160a01b03169063280cf3ed90604401602060405180830381600087803b15801561094d57600080fd5b505af1158015610961573d6000803e3d6000fd5b505050506040513d601f19601f8201168201806040525081019061098591906115d2565b90506107023082611055565b3360009081526001602090815260408083206001600160a01b038616845290915281205482811015610a2b5760405162461bcd60e51b815260206004820152602560248201527f45524332303a2064656372656173656420616c6c6f77616e63652062656c6f7760448201527f207a65726f00000000000000000000000000000000000000000000000000000060648201526084016104a0565b6107023385858403610b27565b60006103f4338484610c4b565b6005546001600160a01b03163314610a9f5760405162461bcd60e51b815260206004820181905260248201527f4f776e61626c653a2063616c6c6572206973206e6f7420746865206f776e657260448201526064016104a0565b6001600160a01b038116610b1b5760405162461bcd60e51b815260206004820152602660248201527f4f776e61626c653a206e6577206f776e657220697320746865207a65726f206160448201527f646472657373000000000000000000000000000000000000000000000000000060648201526084016104a0565b610b2481610fbe565b50565b6001600160a01b038316610b895760405162461bcd60e51b8152602060048201526024808201527f45524332303a20617070726f76652066726f6d20746865207a65726f206164646044820152637265737360e01b60648201526084016104a0565b6001600160a01b038216610bea5760405162461bcd60e51b815260206004820152602260248201527f45524332303a20617070726f766520746f20746865207a65726f206164647265604482015261737360f01b60648201526084016104a0565b6001600160a01b0383811660008181526001602090815260408083209487168084529482529182902085905590518481527f8c5be1e5ebec7d5bd14f71427d1e84f3dd0314c0f7b2291e5b200ac8c7c3b925910160405180910390a3505050565b6001600160a01b038316610cc75760405162461bcd60e51b815260206004820152602560248201527f45524332303a207472616e736665722066726f6d20746865207a65726f20616460448201527f647265737300000000000000000000000000000000000000000000000000000060648201526084016104a0565b6001600160a01b038216610d295760405162461bcd60e51b815260206004820152602360248201527f45524332303a207472616e7366657220746f20746865207a65726f206164647260448201526265737360e81b60648201526084016104a0565b6001600160a01b03831660009081526020819052604090205481811015610db85760405162461bcd60e51b815260206004820152602660248201527f45524332303a207472616e7366657220616d6f756e742065786365656473206260448201527f616c616e6365000000000000000000000000000000000000000000000000000060648201526084016104a0565b6001600160a01b03808516600090815260208190526040808220858503905591851681529081208054849290610def9084906115ba565b92505081905550826001600160a01b0316846001600160a01b03167fddf252ad1be2c89b69c2b068fc378daa952ba7f163c4a11628f55a4df523b3ef84604051610e3b91815260200190565b60405180910390a35b50505050565b6001600160a01b038216610ea05760405162461bcd60e51b815260206004820152601f60248201527f45524332303a206d696e7420746f20746865207a65726f20616464726573730060448201526064016104a0565b8060026000828254610eb291906115ba565b90915550506001600160a01b03821660009081526020819052604081208054839290610edf9084906115ba565b90915550506040518181526001600160a01b038316906000907fddf252ad1be2c89b69c2b068fc378daa952ba7f163c4a11628f55a4df523b3ef9060200160405180910390a35050565b6040516001600160a01b038316602482015260448101829052610fb990849063a9059cbb60e01b906064015b60408051601f198184030181529190526020810180517bffffffffffffffffffffffffffffffffffffffffffffffffffffffff167fffffffff00000000000000000000000000000000000000000000000000000000909316929092179091526111a3565b505050565b600580546001600160a01b0383811673ffffffffffffffffffffffffffffffffffffffff19831681179093556040519116919082907f8be0079c531659141344cd1fd0a4f28419497f9722a3daafe3b4186f6b6457e090600090a35050565b6040516001600160a01b0380851660248301528316604482015260648101829052610e449085906323b872dd60e01b90608401610f55565b6001600160a01b0382166110b55760405162461bcd60e51b815260206004820152602160248201527f45524332303a206275726e2066726f6d20746865207a65726f206164647265736044820152607360f81b60648201526084016104a0565b6001600160a01b038216600090815260208190526040902054818110156111295760405162461bcd60e51b815260206004820152602260248201527f45524332303a206275726e20616d6f756e7420657863656564732062616c616e604482015261636560f01b60648201526084016104a0565b6001600160a01b03831660009081526020819052604081208383039055600280548492906111589084906115eb565b90915550506040518281526000906001600160a01b038516907fddf252ad1be2c89b69c2b068fc378daa952ba7f163c4a11628f55a4df523b3ef9060200160405180910390a3505050565b60006111f8826040518060400160405280602081526020017f5361666545524332303a206c6f772d6c6576656c2063616c6c206661696c6564815250856001600160a01b03166112889092919063ffffffff16565b805190915015610fb957808060200190518101906112169190611602565b610fb95760405162461bcd60e51b815260206004820152602a60248201527f5361666545524332303a204552433230206f7065726174696f6e20646964206e60448201527f6f7420737563636565640000000000000000000000000000000000000000000060648201526084016104a0565b6060611297848460008561129f565b949350505050565b6060824710156113175760405162461bcd60e51b815260206004820152602660248201527f416464726573733a20696e73756666696369656e742062616c616e636520666f60448201527f722063616c6c000000000000000000000000000000000000000000000000000060648201526084016104a0565b843b6113655760405162461bcd60e51b815260206004820152601d60248201527f416464726573733a2063616c6c20746f206e6f6e2d636f6e747261637400000060448201526064016104a0565b600080866001600160a01b031685876040516113819190611624565b60006040518083038185875af1925050503d80600081146113be576040519150601f19603f3d011682016040523d82523d6000602084013e6113c3565b606091505b50915091506113d38282866113de565b979650505050505050565b606083156113ed5750816104bc565b8251156113fd5782518084602001fd5b8160405162461bcd60e51b81526004016104a09190611443565b60005b8381101561143257818101518382015260200161141a565b83811115610e445750506000910152565b6020815260008251806020840152611462816040850160208701611417565b601f01601f19169190910160400192915050565b80356001600160a01b038116811461148d57600080fd5b919050565b600080604083850312156114a557600080fd5b6114ae83611476565b946020939093013593505050565b6000806000606084860312156114d157600080fd5b6114da84611476565b92506114e860208501611476565b9150604084013590509250925092565b60006020828403121561150a57600080fd5b6104bc82611476565b6000806040838503121561152657600080fd5b61152f83611476565b915061153d60208401611476565b90509250929050565b600181811c9082168061155a57607f821691505b6020821081141561157b57634e487b7160e01b600052602260045260246000fd5b50919050565b60006020828403121561159357600080fd5b815160ff811681146104bc57600080fd5b634e487b7160e01b600052601160045260246000fd5b600082198211156115cd576115cd6115a4565b500190565b6000602082840312156115e457600080fd5b5051919050565b6000828210156115fd576115fd6115a4565b500390565b60006020828403121561161457600080fd5b815180151581146104bc57600080fd5b60008251611636818460208701611417565b919091019291505056fea264697066735822122086d9de3f10dde5edc1abdb353df0841d72a34493a51df401dde88837412b28a964736f6c63430008090033",
  "devdoc": {
    "kind": "dev",
    "methods": {
      "allowance(address,address)": {
        "details": "See {IERC20-allowance}."
      },
      "approve(address,uint256)": {
        "details": "See {IERC20-approve}. Requirements: - `spender` cannot be the zero address."
      },
      "balanceOf(address)": {
        "details": "See {IERC20-balanceOf}."
      },
      "decimals()": {
        "details": "Returns the number of decimals used to get its user representation. For example, if `decimals` equals `2`, a balance of `505` tokens should be displayed to a user as `5,05` (`505 / 10 ** 2`). Tokens usually opt for a value of 18, imitating the relationship between Ether and Wei. This is the value {ERC20} uses, unless this function is overridden; NOTE: This information is only used for _display_ purposes: it in no way affects any of the arithmetic of the contract, including {IERC20-balanceOf} and {IERC20-transfer}."
      },
      "decreaseAllowance(address,uint256)": {
        "details": "Atomically decreases the allowance granted to `spender` by the caller. This is an alternative to {approve} that can be used as a mitigation for problems described in {IERC20-approve}. Emits an {Approval} event indicating the updated allowance. Requirements: - `spender` cannot be the zero address. - `spender` must have allowance for the caller of at least `subtractedValue`."
      },
      "increaseAllowance(address,uint256)": {
        "details": "Atomically increases the allowance granted to `spender` by the caller. This is an alternative to {approve} that can be used as a mitigation for problems described in {IERC20-approve}. Emits an {Approval} event indicating the updated allowance. Requirements: - `spender` cannot be the zero address."
      },
      "name()": {
        "details": "Returns the name of the token."
      },
      "owner()": {
        "details": "Returns the address of the current owner."
      },
      "renounceOwnership()": {
        "details": "Leaves the contract without owner. It will not be possible to call `onlyOwner` functions anymore. Can only be called by the current owner. NOTE: Renouncing ownership will leave the contract without an owner, thereby removing any functionality that is only available to the owner."
      },
      "symbol()": {
        "details": "Returns the symbol of the token, usually a shorter version of the name."
      },
      "totalSupply()": {
        "details": "See {IERC20-totalSupply}."
      },
      "transfer(address,uint256)": {
        "details": "See {IERC20-transfer}. Requirements: - `recipient` cannot be the zero address. - the caller must have a balance of at least `amount`."
      },
      "transferFrom(address,address,uint256)": {
        "details": "See {IERC20-transferFrom}. Emits an {Approval} event indicating the updated allowance. This is not required by the EIP. See the note at the beginning of {ERC20}. Requirements: - `sender` and `recipient` cannot be the zero address. - `sender` must have a balance of at least `amount`. - the caller must have allowance for ``sender``'s tokens of at least `amount`."
      },
      "transferOwnership(address)": {
        "details": "Transfers ownership of the contract to a new account (`newOwner`). Can only be called by the current owner."
      }
    },
    "title": "Intermediary bridge token that supports swapping with the canonical Frax token.",
    "version": 1
  },
  "userdoc": {
    "kind": "user",
    "methods": {},
    "version": 1
  },
  "storageLayout": {
    "storage": [
      {
        "astId": 251,
        "contract": "contracts/pegged/tokens/customized/FraxBridgeToken.sol:FraxBridgeToken",
        "label": "_balances",
        "offset": 0,
        "slot": "0",
        "type": "t_mapping(t_address,t_uint256)"
      },
      {
        "astId": 257,
        "contract": "contracts/pegged/tokens/customized/FraxBridgeToken.sol:FraxBridgeToken",
        "label": "_allowances",
        "offset": 0,
        "slot": "1",
        "type": "t_mapping(t_address,t_mapping(t_address,t_uint256))"
      },
      {
        "astId": 259,
        "contract": "contracts/pegged/tokens/customized/FraxBridgeToken.sol:FraxBridgeToken",
        "label": "_totalSupply",
        "offset": 0,
        "slot": "2",
        "type": "t_uint256"
      },
      {
        "astId": 261,
        "contract": "contracts/pegged/tokens/customized/FraxBridgeToken.sol:FraxBridgeToken",
        "label": "_name",
        "offset": 0,
        "slot": "3",
        "type": "t_string_storage"
      },
      {
        "astId": 263,
        "contract": "contracts/pegged/tokens/customized/FraxBridgeToken.sol:FraxBridgeToken",
        "label": "_symbol",
        "offset": 0,
        "slot": "4",
        "type": "t_string_storage"
      },
      {
        "astId": 7,
        "contract": "contracts/pegged/tokens/customized/FraxBridgeToken.sol:FraxBridgeToken",
        "label": "_owner",
        "offset": 0,
        "slot": "5",
        "type": "t_address"
      },
      {
        "astId": 16495,
        "contract": "contracts/pegged/tokens/customized/FraxBridgeToken.sol:FraxBridgeToken",
        "label": "bridge",
        "offset": 0,
        "slot": "6",
        "type": "t_address"
      }
    ],
    "types": {
      "t_address": {
        "encoding": "inplace",
        "label": "address",
        "numberOfBytes": "20"
      },
      "t_mapping(t_address,t_mapping(t_address,t_uint256))": {
        "encoding": "mapping",
        "key": "t_address",
        "label": "mapping(address => mapping(address => uint256))",
        "numberOfBytes": "32",
        "value": "t_mapping(t_address,t_uint256)"
      },
      "t_mapping(t_address,t_uint256)": {
        "encoding": "mapping",
        "key": "t_address",
        "label": "mapping(address => uint256)",
        "numberOfBytes": "32",
        "value": "t_uint256"
      },
      "t_string_storage": {
        "encoding": "bytes",
        "label": "string",
        "numberOfBytes": "32"
      },
      "t_uint256": {
        "encoding": "inplace",
        "label": "uint256",
        "numberOfBytes": "32"
      }
    }
  }
}