{
  "address": "0x23C748FeF17518B8DE55065338d7Fa20327472eB",
  "abi": [
    {
      "inputs": [
        {
          "internalType": "string",
          "name": "name_",
          "type": "string"
        },
        {
          "internalType": "string",
          "name": "symbol_",
          "type": "string"
        },
        {
          "internalType": "uint8",
          "name": "decimals_",
          "type": "uint8"
        }
      ],
      "stateMutability": "nonpayable",
      "type": "constructor"
    },
    {
      "anonymous": false,
      "inputs": [
        {
          "indexed": true,
          "internalType": "address",
          "name": "owner",
          "type": "address"
        },
        {
          "indexed": true,
          "internalType": "address",
          "name": "spender",
          "type": "address"
        },
        {
          "indexed": false,
          "internalType": "uint256",
          "name": "value",
          "type": "uint256"
        }
      ],
      "name": "Approval",
      "type": "event"
    },
    {
      "anonymous": false,
      "inputs": [
        {
          "indexed": false,
          "internalType": "address",
          "name": "bridge",
          "type": "address"
        },
        {
          "indexed": false,
          "internalType": "uint256",
          "name": "supplyCap",
          "type": "uint256"
        }
      ],
      "name": "BridgeSupplyCapUpdated",
      "type": "event"
    },
    {
      "anonymous": false,
      "inputs": [
        {
          "indexed": true,
          "internalType": "address",
          "name": "previousOwner",
          "type": "address"
        },
        {
          "indexed": true,
          "internalType": "address",
          "name": "newOwner",
          "type": "address"
        }
      ],
      "name": "OwnershipTransferred",
      "type": "event"
    },
    {
      "anonymous": false,
      "inputs": [
        {
          "indexed": false,
          "internalType": "address",
          "name": "token",
          "type": "address"
        },
        {
          "indexed": false,
          "internalType": "uint256",
          "name": "cap",
          "type": "uint256"
        }
      ],
      "name": "TokenSwapCapUpdated",
      "type": "event"
    },
    {
      "anonymous": false,
      "inputs": [
        {
          "indexed": true,
          "internalType": "address",
          "name": "from",
          "type": "address"
        },
        {
          "indexed": true,
          "internalType": "address",
          "name": "to",
          "type": "address"
        },
        {
          "indexed": false,
          "internalType": "uint256",
          "name": "value",
          "type": "uint256"
        }
      ],
      "name": "Transfer",
      "type": "event"
    },
    {
      "inputs": [
        {
          "internalType": "address",
          "name": "owner",
          "type": "address"
        },
        {
          "internalType": "address",
          "name": "spender",
          "type": "address"
        }
      ],
      "name": "allowance",
      "outputs": [
        {
          "internalType": "uint256",
          "name": "",
          "type": "uint256"
        }
      ],
      "stateMutability": "view",
      "type": "function"
    },
    {
      "inputs": [
        {
          "internalType": "address",
          "name": "spender",
          "type": "address"
        },
        {
          "internalType": "uint256",
          "name": "amount",
          "type": "uint256"
        }
      ],
      "name": "approve",
      "outputs": [
        {
          "internalType": "bool",
          "name": "",
          "type": "bool"
        }
      ],
      "stateMutability": "nonpayable",
      "type": "function"
    },
    {
      "inputs": [
        {
          "internalType": "address",
          "name": "account",
          "type": "address"
        }
      ],
      "name": "balanceOf",
      "outputs": [
        {
          "internalType": "uint256",
          "name": "",
          "type": "uint256"
        }
      ],
      "stateMutability": "view",
      "type": "function"
    },
    {
      "inputs": [
        {
          "internalType": "address",
          "name": "",
          "type": "address"
        }
      ],
      "name": "bridges",
      "outputs": [
        {
          "internalType": "uint256",
          "name": "cap",
          "type": "uint256"
        },
        {
          "internalType": "uint256",
          "name": "total",
          "type": "uint256"
        }
      ],
      "stateMutability": "view",
      "type": "function"
    },
    {
      "inputs": [
        {
          "internalType": "address",
          "name": "_from",
          "type": "address"
        },
        {
          "internalType": "uint256",
          "name": "_amount",
          "type": "uint256"
        }
      ],
      "name": "burn",
      "outputs": [
        {
          "internalType": "bool",
          "name": "",
          "type": "bool"
        }
      ],
      "stateMutability": "nonpayable",
      "type": "function"
    },
    {
      "inputs": [],
      "name": "decimals",
      "outputs": [
        {
          "internalType": "uint8",
          "name": "",
          "type": "uint8"
        }
      ],
      "stateMutability": "view",
      "type": "function"
    },
    {
      "inputs": [
        {
          "internalType": "address",
          "name": "spender",
          "type": "address"
        },
        {
          "internalType": "uint256",
          "name": "subtractedValue",
          "type": "uint256"
        }
      ],
      "name": "decreaseAllowance",
      "outputs": [
        {
          "internalType": "bool",
          "name": "",
          "type": "bool"
        }
      ],
      "stateMutability": "nonpayable",
      "type": "function"
    },
    {
      "inputs": [],
      "name": "getOwner",
      "outputs": [
        {
          "internalType": "address",
          "name": "",
          "type": "address"
        }
      ],
      "stateMutability": "view",
      "type": "function"
    },
    {
      "inputs": [
        {
          "internalType": "address",
          "name": "spender",
          "type": "address"
        },
        {
          "internalType": "uint256",
          "name": "addedValue",
          "type": "uint256"
        }
      ],
      "name": "increaseAllowance",
      "outputs": [
        {
          "internalType": "bool",
          "name": "",
          "type": "bool"
        }
      ],
      "stateMutability": "nonpayable",
      "type": "function"
    },
    {
      "inputs": [
        {
          "internalType": "address",
          "name": "_to",
          "type": "address"
        },
        {
          "internalType": "uint256",
          "name": "_amount",
          "type": "uint256"
        }
      ],
      "name": "mint",
      "outputs": [
        {
          "internalType": "bool",
          "name": "",
          "type": "bool"
        }
      ],
      "stateMutability": "nonpayable",
      "type": "function"
    },
    {
      "inputs": [],
      "name": "name",
      "outputs": [
        {
          "internalType": "string",
          "name": "",
          "type": "string"
        }
      ],
      "stateMutability": "view",
      "type": "function"
    },
    {
      "inputs": [],
      "name": "owner",
      "outputs": [
        {
          "internalType": "address",
          "name": "",
          "type": "address"
        }
      ],
      "stateMutability": "view",
      "type": "function"
    },
    {
      "inputs": [
        {
          "internalType": "address",
          "name": "_bridgeToken",
          "type": "address"
        },
        {
          "internalType": "uint256",
          "name": "_swapCap",
          "type": "uint256"
        }
      ],
      "name": "setBridgeTokenSwapCap",
      "outputs": [],
      "stateMutability": "nonpayable",
      "type": "function"
    },
    {
      "inputs": [
        {
          "internalType": "address",
          "name": "_bridgeToken",
          "type": "address"
        },
        {
          "internalType": "uint256",
          "name": "_amount",
          "type": "uint256"
        }
      ],
      "name": "swapBridgeForCanonical",
      "outputs": [
        {
          "internalType": "uint256",
          "name": "",
          "type": "uint256"
        }
      ],
      "stateMutability": "nonpayable",
      "type": "function"
    },
    {
      "inputs": [
        {
          "internalType": "address",
          "name": "_bridgeToken",
          "type": "address"
        },
        {
          "internalType": "uint256",
          "name": "_amount",
          "type": "uint256"
        }
      ],
      "name": "swapCanonicalForBridge",
      "outputs": [
        {
          "internalType": "uint256",
          "name": "",
          "type": "uint256"
        }
      ],
      "stateMutability": "nonpayable",
      "type": "function"
    },
    {
      "inputs": [
        {
          "internalType": "address",
          "name": "",
          "type": "address"
        }
      ],
      "name": "swapSupplies",
      "outputs": [
        {
          "internalType": "uint256",
          "name": "cap",
          "type": "uint256"
        },
        {
          "internalType": "uint256",
          "name": "total",
          "type": "uint256"
        }
      ],
      "stateMutability": "view",
      "type": "function"
    },
    {
      "inputs": [],
      "name": "symbol",
      "outputs": [
        {
          "internalType": "string",
          "name": "",
          "type": "string"
        }
      ],
      "stateMutability": "view",
      "type": "function"
    },
    {
      "inputs": [],
      "name": "totalSupply",
      "outputs": [
        {
          "internalType": "uint256",
          "name": "",
          "type": "uint256"
        }
      ],
      "stateMutability": "view",
      "type": "function"
    },
    {
      "inputs": [
        {
          "internalType": "address",
          "name": "recipient",
          "type": "address"
        },
        {
          "internalType": "uint256",
          "name": "amount",
          "type": "uint256"
        }
      ],
      "name": "transfer",
      "outputs": [
        {
          "internalType": "bool",
          "name": "",
          "type": "bool"
        }
      ],
      "stateMutability": "nonpayable",
      "type": "function"
    },
    {
      "inputs": [
        {
          "internalType": "address",
          "name": "sender",
          "type": "address"
        },
        {
          "internalType": "address",
          "name": "recipient",
          "type": "address"
        },
        {
          "internalType": "uint256",
          "name": "amount",
          "type": "uint256"
        }
      ],
      "name": "transferFrom",
      "outputs": [
        {
          "internalType": "bool",
          "name": "",
          "type": "bool"
        }
      ],
      "stateMutability": "nonpayable",
      "type": "function"
    },
    {
      "inputs": [
        {
          "internalType": "address",
          "name": "newOwner",
          "type": "address"
        }
      ],
      "name": "transferOwnership",
      "outputs": [],
      "stateMutability": "nonpayable",
      "type": "function"
    },
    {
      "inputs": [
        {
          "internalType": "address",
          "name": "_bridge",
          "type": "address"
        },
        {
          "internalType": "uint256",
          "name": "_cap",
          "type": "uint256"
        }
      ],
      "name": "updateBridgeSupplyCap",
      "outputs": [],
      "stateMutability": "nonpayable",
      "type": "function"
    }
  ],
  "transactionHash": "0xb72d9d51e2a910ef2706e6ae2a7332cd35e9a3b33e9554a5edf8a1ea13a5f3a7",
  "args": [
    "Reva Token",
    "REVA",
    "18"
  ],
  "solcInputHash": "6c85bf703e9777f825a9e67430984bbb",
  "bytecode": "0x60a06040523480156200001157600080fd5b5060405162001a0038038062001a00833981016040819052620000349162000252565b8282828282816003908051906020019062000051929190620000df565b50805162000067906004906020840190620000df565b5050506200007b336200008d60201b60201c565b60ff1660805250620003149350505050565b600580546001600160a01b038381166001600160a01b0319831681179093556040519116919082907f8be0079c531659141344cd1fd0a4f28419497f9722a3daafe3b4186f6b6457e090600090a35050565b828054620000ed90620002d7565b90600052602060002090601f0160209004810192826200011157600085556200015c565b82601f106200012c57805160ff19168380011785556200015c565b828001600101855582156200015c579182015b828111156200015c5782518255916020019190600101906200013f565b506200016a9291506200016e565b5090565b5b808211156200016a57600081556001016200016f565b634e487b7160e01b600052604160045260246000fd5b600082601f830112620001ad57600080fd5b81516001600160401b0380821115620001ca57620001ca62000185565b604051601f8301601f19908116603f01168101908282118183101715620001f557620001f562000185565b816040528381526020925086838588010111156200021257600080fd5b600091505b8382101562000236578582018301518183018401529082019062000217565b83821115620002485760008385830101525b9695505050505050565b6000806000606084860312156200026857600080fd5b83516001600160401b03808211156200028057600080fd5b6200028e878388016200019b565b94506020860151915080821115620002a557600080fd5b50620002b4868287016200019b565b925050604084015160ff81168114620002cc57600080fd5b809150509250925092565b600181811c90821680620002ec57607f821691505b602082108114156200030e57634e487b7160e01b600052602260045260246000fd5b50919050565b6080516116d062000330600039600061020b01526116d06000f3fe608060405234801561001057600080fd5b50600436106101825760003560e01c8063893d20e8116100d8578063a9059cbb1161008c578063dd62ed3e11610066578063dd62ed3e14610381578063f2fde38b146103ba578063f716932e146103cd57600080fd5b8063a9059cbb14610334578063cd04611914610347578063ced67f0c1461035a57600080fd5b806395d89b41116100bd57806395d89b41146103065780639dc29fac1461030e578063a457c2d71461032157600080fd5b8063893d20e8146102d55780638da5cb5b146102f557600080fd5b8063313ce5671161013a57806340c10f191161011457806340c10f19146102845780634ce2f71a1461029757806370a08231146102ac57600080fd5b8063313ce5671461020457806334faea1b14610235578063395093511461027157600080fd5b806313f1a4a41161016b57806313f1a4a4146101c857806318160ddd146101e957806323b872dd146101f157600080fd5b806306fdde0314610187578063095ea7b3146101a5575b600080fd5b61018f6103e0565b60405161019c91906114d9565b60405180910390f35b6101b86101b3366004611528565b610472565b604051901515815260200161019c565b6101db6101d6366004611528565b610488565b60405190815260200161019c565b6002546101db565b6101b86101ff366004611552565b610533565b60405160ff7f000000000000000000000000000000000000000000000000000000000000000016815260200161019c565b61025c61024336600461158e565b6007602052600090815260409020805460019091015482565b6040805192835260208301919091520161019c565b6101b861027f366004611528565b6105f4565b6101b8610292366004611528565b610630565b6102aa6102a5366004611528565b610700565b005b6101db6102ba36600461158e565b6001600160a01b031660009081526020819052604090205490565b6102dd6107c2565b6040516001600160a01b03909116815260200161019c565b6005546001600160a01b03166102dd565b61018f6107db565b6101b861031c366004611528565b6107ea565b6101b861032f366004611528565b61085c565b6101b8610342366004611528565b610903565b6102aa610355366004611528565b610910565b61025c61036836600461158e565b6006602052600090815260409020805460019091015482565b6101db61038f3660046115a9565b6001600160a01b03918216600090815260016020908152604080832093909416825291909152205490565b6102aa6103c836600461158e565b6109ca565b6101db6103db366004611528565b610abb565b6060600380546103ef906115dc565b80601f016020809104026020016040519081016040528092919081815260200182805461041b906115dc565b80156104685780601f1061043d57610100808354040283529160200191610468565b820191906000526020600020905b81548152906001019060200180831161044b57829003601f168201915b5050505050905090565b600061047f338484610bb9565b50600192915050565b6001600160a01b038216600090815260076020526040812080546104f35760405162461bcd60e51b815260206004820152601460248201527f696e76616c69642062726964676520746f6b656e00000000000000000000000060448201526064015b60405180910390fd5b82816001016000828254610507919061162d565b9091555061051790503384610cde565b61052b6001600160a01b0385163385610e29565b509092915050565b6000610540848484610eb9565b6001600160a01b0384166000908152600160209081526040808320338452909152902054828110156105da5760405162461bcd60e51b815260206004820152602860248201527f45524332303a207472616e7366657220616d6f756e742065786365656473206160448201527f6c6c6f77616e636500000000000000000000000000000000000000000000000060648201526084016104ea565b6105e78533858403610bb9565b60019150505b9392505050565b3360008181526001602090815260408083206001600160a01b0387168452909152812054909161047f91859061062b908690611644565b610bb9565b336000908152600660205260408120805461067e5760405162461bcd60e51b815260206004820152600e60248201526d34b73b30b634b21031b0b63632b960911b60448201526064016104ea565b828160010160008282546106929190611644565b90915550508054600182015411156106ec5760405162461bcd60e51b815260206004820152601960248201527f657863656564732062726964676520737570706c79206361700000000000000060448201526064016104ea565b6106f684846110b8565b5060019392505050565b336107136005546001600160a01b031690565b6001600160a01b0316146107695760405162461bcd60e51b815260206004820181905260248201527f4f776e61626c653a2063616c6c6572206973206e6f7420746865206f776e657260448201526064016104ea565b6001600160a01b038216600081815260066020908152604091829020849055815192835282018390527f59e1e4348943de408b89af8ab71e502ea722dd41efd1ff4a3548c60e83e91c6091015b60405180910390a15050565b60006107d66005546001600160a01b031690565b905090565b6060600480546103ef906115dc565b33600090815260066020526040812080546108385760405162461bcd60e51b815260206004820152600e60248201526d34b73b30b634b21031b0b63632b960911b60448201526064016104ea565b8281600101600082825461084c919061162d565b909155506106f690508484610cde565b3360009081526001602090815260408083206001600160a01b0386168452909152812054828110156108f65760405162461bcd60e51b815260206004820152602560248201527f45524332303a2064656372656173656420616c6c6f77616e63652062656c6f7760448201527f207a65726f00000000000000000000000000000000000000000000000000000060648201526084016104ea565b6106f63385858403610bb9565b600061047f338484610eb9565b336109236005546001600160a01b031690565b6001600160a01b0316146109795760405162461bcd60e51b815260206004820181905260248201527f4f776e61626c653a2063616c6c6572206973206e6f7420746865206f776e657260448201526064016104ea565b6001600160a01b038216600081815260076020908152604091829020849055815192835282018390527f51c7b3899924578d835c066303e3f765c25fea17d7b18840cd109a90f5c5601f91016107b6565b336109dd6005546001600160a01b031690565b6001600160a01b031614610a335760405162461bcd60e51b815260206004820181905260248201527f4f776e61626c653a2063616c6c6572206973206e6f7420746865206f776e657260448201526064016104ea565b6001600160a01b038116610aaf5760405162461bcd60e51b815260206004820152602660248201527f4f776e61626c653a206e6577206f776e657220697320746865207a65726f206160448201527f646472657373000000000000000000000000000000000000000000000000000060648201526084016104ea565b610ab881611197565b50565b6001600160a01b03821660009081526007602052604081208054610b215760405162461bcd60e51b815260206004820152601460248201527f696e76616c69642062726964676520746f6b656e00000000000000000000000060448201526064016104ea565b80546001820154610b33908590611644565b10610b805760405162461bcd60e51b815260206004820152600f60248201527f657863656564207377617020636170000000000000000000000000000000000060448201526064016104ea565b82816001016000828254610b949190611644565b90915550610ba4905033846110b8565b61052b6001600160a01b038516333086611201565b6001600160a01b038316610c1b5760405162461bcd60e51b8152602060048201526024808201527f45524332303a20617070726f76652066726f6d20746865207a65726f206164646044820152637265737360e01b60648201526084016104ea565b6001600160a01b038216610c7c5760405162461bcd60e51b815260206004820152602260248201527f45524332303a20617070726f766520746f20746865207a65726f206164647265604482015261737360f01b60648201526084016104ea565b6001600160a01b0383811660008181526001602090815260408083209487168084529482529182902085905590518481527f8c5be1e5ebec7d5bd14f71427d1e84f3dd0314c0f7b2291e5b200ac8c7c3b92591015b60405180910390a3505050565b6001600160a01b038216610d3e5760405162461bcd60e51b815260206004820152602160248201527f45524332303a206275726e2066726f6d20746865207a65726f206164647265736044820152607360f81b60648201526084016104ea565b6001600160a01b03821660009081526020819052604090205481811015610db25760405162461bcd60e51b815260206004820152602260248201527f45524332303a206275726e20616d6f756e7420657863656564732062616c616e604482015261636560f01b60648201526084016104ea565b6001600160a01b0383166000908152602081905260408120838303905560028054849290610de190849061162d565b90915550506040518281526000906001600160a01b038516907fddf252ad1be2c89b69c2b068fc378daa952ba7f163c4a11628f55a4df523b3ef90602001610cd1565b505050565b6040516001600160a01b038316602482015260448101829052610e2490849063a9059cbb60e01b906064015b60408051601f198184030181529190526020810180517bffffffffffffffffffffffffffffffffffffffffffffffffffffffff167fffffffff0000000000000000000000000000000000000000000000000000000090931692909217909152611239565b6001600160a01b038316610f355760405162461bcd60e51b815260206004820152602560248201527f45524332303a207472616e736665722066726f6d20746865207a65726f20616460448201527f647265737300000000000000000000000000000000000000000000000000000060648201526084016104ea565b6001600160a01b038216610f975760405162461bcd60e51b815260206004820152602360248201527f45524332303a207472616e7366657220746f20746865207a65726f206164647260448201526265737360e81b60648201526084016104ea565b6001600160a01b038316600090815260208190526040902054818110156110265760405162461bcd60e51b815260206004820152602660248201527f45524332303a207472616e7366657220616d6f756e742065786365656473206260448201527f616c616e6365000000000000000000000000000000000000000000000000000060648201526084016104ea565b6001600160a01b0380851660009081526020819052604080822085850390559185168152908120805484929061105d908490611644565b92505081905550826001600160a01b0316846001600160a01b03167fddf252ad1be2c89b69c2b068fc378daa952ba7f163c4a11628f55a4df523b3ef846040516110a991815260200190565b60405180910390a35b50505050565b6001600160a01b03821661110e5760405162461bcd60e51b815260206004820152601f60248201527f45524332303a206d696e7420746f20746865207a65726f20616464726573730060448201526064016104ea565b80600260008282546111209190611644565b90915550506001600160a01b0382166000908152602081905260408120805483929061114d908490611644565b90915550506040518181526001600160a01b038316906000907fddf252ad1be2c89b69c2b068fc378daa952ba7f163c4a11628f55a4df523b3ef9060200160405180910390a35050565b600580546001600160a01b038381167fffffffffffffffffffffffff0000000000000000000000000000000000000000831681179093556040519116919082907f8be0079c531659141344cd1fd0a4f28419497f9722a3daafe3b4186f6b6457e090600090a35050565b6040516001600160a01b03808516602483015283166044820152606481018290526110b29085906323b872dd60e01b90608401610e55565b600061128e826040518060400160405280602081526020017f5361666545524332303a206c6f772d6c6576656c2063616c6c206661696c6564815250856001600160a01b031661131e9092919063ffffffff16565b805190915015610e2457808060200190518101906112ac919061165c565b610e245760405162461bcd60e51b815260206004820152602a60248201527f5361666545524332303a204552433230206f7065726174696f6e20646964206e60448201527f6f7420737563636565640000000000000000000000000000000000000000000060648201526084016104ea565b606061132d8484600085611335565b949350505050565b6060824710156113ad5760405162461bcd60e51b815260206004820152602660248201527f416464726573733a20696e73756666696369656e742062616c616e636520666f60448201527f722063616c6c000000000000000000000000000000000000000000000000000060648201526084016104ea565b843b6113fb5760405162461bcd60e51b815260206004820152601d60248201527f416464726573733a2063616c6c20746f206e6f6e2d636f6e747261637400000060448201526064016104ea565b600080866001600160a01b03168587604051611417919061167e565b60006040518083038185875af1925050503d8060008114611454576040519150601f19603f3d011682016040523d82523d6000602084013e611459565b606091505b5091509150611469828286611474565b979650505050505050565b606083156114835750816105ed565b8251156114935782518084602001fd5b8160405162461bcd60e51b81526004016104ea91906114d9565b60005b838110156114c85781810151838201526020016114b0565b838111156110b25750506000910152565b60208152600082518060208401526114f88160408501602087016114ad565b601f01601f19169190910160400192915050565b80356001600160a01b038116811461152357600080fd5b919050565b6000806040838503121561153b57600080fd5b6115448361150c565b946020939093013593505050565b60008060006060848603121561156757600080fd5b6115708461150c565b925061157e6020850161150c565b9150604084013590509250925092565b6000602082840312156115a057600080fd5b6105ed8261150c565b600080604083850312156115bc57600080fd5b6115c58361150c565b91506115d36020840161150c565b90509250929050565b600181811c908216806115f057607f821691505b6020821081141561161157634e487b7160e01b600052602260045260246000fd5b50919050565b634e487b7160e01b600052601160045260246000fd5b60008282101561163f5761163f611617565b500390565b6000821982111561165757611657611617565b500190565b60006020828403121561166e57600080fd5b815180151581146105ed57600080fd5b600082516116908184602087016114ad565b919091019291505056fea26469706673582212201aa8620bc639a2356038e1ffc367aace03176fd29c830d9e5147f9c5c59ec0c164736f6c63430008090033",
  "devdoc": {
    "kind": "dev",
    "methods": {
      "allowance(address,address)": {
        "details": "See {IERC20-allowance}."
      },
      "approve(address,uint256)": {
        "details": "See {IERC20-approve}. Requirements: - `spender` cannot be the zero address."
      },
      "balanceOf(address)": {
        "details": "See {IERC20-balanceOf}."
      },
      "decimals()": {
        "details": "Returns the number of decimals used to get its user representation. For example, if `decimals` equals `2`, a balance of `505` tokens should be displayed to a user as `5,05` (`505 / 10 ** 2`). Tokens usually opt for a value of 18, imitating the relationship between Ether and Wei. This is the value {ERC20} uses, unless this function is overridden; NOTE: This information is only used for _display_ purposes: it in no way affects any of the arithmetic of the contract, including {IERC20-balanceOf} and {IERC20-transfer}."
      },
      "decreaseAllowance(address,uint256)": {
        "details": "Atomically decreases the allowance granted to `spender` by the caller. This is an alternative to {approve} that can be used as a mitigation for problems described in {IERC20-approve}. Emits an {Approval} event indicating the updated allowance. Requirements: - `spender` cannot be the zero address. - `spender` must have allowance for the caller of at least `subtractedValue`."
      },
      "increaseAllowance(address,uint256)": {
        "details": "Atomically increases the allowance granted to `spender` by the caller. This is an alternative to {approve} that can be used as a mitigation for problems described in {IERC20-approve}. Emits an {Approval} event indicating the updated allowance. Requirements: - `spender` cannot be the zero address."
      },
      "name()": {
        "details": "Returns the name of the token."
      },
      "owner()": {
        "details": "Returns the address of the current owner."
      },
      "setBridgeTokenSwapCap(address,uint256)": {
        "details": "Update existing bridge token swap cap or add a new bridge token with swap cap. Setting cap to 0 will disable the bridge token.",
        "params": {
          "_bridgeToken": "The intermediary token address for a particular bridge.",
          "_swapCap": "The new swap cap."
        }
      },
      "swapBridgeForCanonical(address,uint256)": {
        "params": {
          "_amount": "The amount.",
          "_bridgeToken": "The intermediary token address for a particular bridge."
        }
      },
      "swapCanonicalForBridge(address,uint256)": {
        "params": {
          "_amount": "The amount.",
          "_bridgeToken": "The intermediary token address for a particular bridge."
        }
      },
      "symbol()": {
        "details": "Returns the symbol of the token, usually a shorter version of the name."
      },
      "totalSupply()": {
        "details": "See {IERC20-totalSupply}."
      },
      "transfer(address,uint256)": {
        "details": "See {IERC20-transfer}. Requirements: - `recipient` cannot be the zero address. - the caller must have a balance of at least `amount`."
      },
      "transferFrom(address,address,uint256)": {
        "details": "See {IERC20-transferFrom}. Emits an {Approval} event indicating the updated allowance. This is not required by the EIP. See the note at the beginning of {ERC20}. Requirements: - `sender` and `recipient` cannot be the zero address. - `sender` must have a balance of at least `amount`. - the caller must have allowance for ``sender``'s tokens of at least `amount`."
      },
      "transferOwnership(address)": {
        "details": "Transfers ownership of the contract to a new account (`newOwner`). Can only be called by the current owner."
      }
    },
    "title": "Canonical token that supports multi-bridge minter and multi-token swap",
    "version": 1
  },
  "userdoc": {
    "kind": "user",
    "methods": {
      "swapBridgeForCanonical(address,uint256)": {
        "notice": "msg.sender has bridge token and wants to get canonical token."
      },
      "swapCanonicalForBridge(address,uint256)": {
        "notice": "msg.sender has canonical token and wants to get bridge token (eg. for cross chain burn)."
      }
    },
    "version": 1
  },
  "storageLayout": {
    "storage": [
      {
        "astId": 251,
        "contract": "contracts/pegged/tokens/MintSwapCanonicalToken.sol:MintSwapCanonicalToken",
        "label": "_balances",
        "offset": 0,
        "slot": "0",
        "type": "t_mapping(t_address,t_uint256)"
      },
      {
        "astId": 257,
        "contract": "contracts/pegged/tokens/MintSwapCanonicalToken.sol:MintSwapCanonicalToken",
        "label": "_allowances",
        "offset": 0,
        "slot": "1",
        "type": "t_mapping(t_address,t_mapping(t_address,t_uint256))"
      },
      {
        "astId": 259,
        "contract": "contracts/pegged/tokens/MintSwapCanonicalToken.sol:MintSwapCanonicalToken",
        "label": "_totalSupply",
        "offset": 0,
        "slot": "2",
        "type": "t_uint256"
      },
      {
        "astId": 261,
        "contract": "contracts/pegged/tokens/MintSwapCanonicalToken.sol:MintSwapCanonicalToken",
        "label": "_name",
        "offset": 0,
        "slot": "3",
        "type": "t_string_storage"
      },
      {
        "astId": 263,
        "contract": "contracts/pegged/tokens/MintSwapCanonicalToken.sol:MintSwapCanonicalToken",
        "label": "_symbol",
        "offset": 0,
        "slot": "4",
        "type": "t_string_storage"
      },
      {
        "astId": 19300,
        "contract": "contracts/pegged/tokens/MintSwapCanonicalToken.sol:MintSwapCanonicalToken",
        "label": "_owner",
        "offset": 0,
        "slot": "5",
        "type": "t_address"
      },
      {
        "astId": 17830,
        "contract": "contracts/pegged/tokens/MintSwapCanonicalToken.sol:MintSwapCanonicalToken",
        "label": "bridges",
        "offset": 0,
        "slot": "6",
        "type": "t_mapping(t_address,t_struct(Supply)17825_storage)"
      },
      {
        "astId": 17590,
        "contract": "contracts/pegged/tokens/MintSwapCanonicalToken.sol:MintSwapCanonicalToken",
        "label": "swapSupplies",
        "offset": 0,
        "slot": "7",
        "type": "t_mapping(t_address,t_struct(Supply)17825_storage)"
      }
    ],
    "types": {
      "t_address": {
        "encoding": "inplace",
        "label": "address",
        "numberOfBytes": "20"
      },
      "t_mapping(t_address,t_mapping(t_address,t_uint256))": {
        "encoding": "mapping",
        "key": "t_address",
        "label": "mapping(address => mapping(address => uint256))",
        "numberOfBytes": "32",
        "value": "t_mapping(t_address,t_uint256)"
      },
      "t_mapping(t_address,t_struct(Supply)17825_storage)": {
        "encoding": "mapping",
        "key": "t_address",
        "label": "mapping(address => struct MultiBridgeToken.Supply)",
        "numberOfBytes": "32",
        "value": "t_struct(Supply)17825_storage"
      },
      "t_mapping(t_address,t_uint256)": {
        "encoding": "mapping",
        "key": "t_address",
        "label": "mapping(address => uint256)",
        "numberOfBytes": "32",
        "value": "t_uint256"
      },
      "t_string_storage": {
        "encoding": "bytes",
        "label": "string",
        "numberOfBytes": "32"
      },
      "t_struct(Supply)17825_storage": {
        "encoding": "inplace",
        "label": "struct MultiBridgeToken.Supply",
        "members": [
          {
            "astId": 17822,
            "contract": "contracts/pegged/tokens/MintSwapCanonicalToken.sol:MintSwapCanonicalToken",
            "label": "cap",
            "offset": 0,
            "slot": "0",
            "type": "t_uint256"
          },
          {
            "astId": 17824,
            "contract": "contracts/pegged/tokens/MintSwapCanonicalToken.sol:MintSwapCanonicalToken",
            "label": "total",
            "offset": 0,
            "slot": "1",
            "type": "t_uint256"
          }
        ],
        "numberOfBytes": "64"
      },
      "t_uint256": {
        "encoding": "inplace",
        "label": "uint256",
        "numberOfBytes": "32"
      }
    }
  }
}