{
  "address": "0x6e380ad5D15249eF2DE576E3189fc49B5713BE4f",
  "abi": [
    {
      "inputs": [
        {
          "internalType": "contract ISigsVerifier",
          "name": "_sigsVerifier",
          "type": "address"
        }
      ],
      "stateMutability": "nonpayable",
      "type": "constructor"
    },
    {
      "anonymous": false,
      "inputs": [
        {
          "indexed": false,
          "internalType": "uint256",
          "name": "period",
          "type": "uint256"
        }
      ],
      "name": "DelayPeriodUpdated",
      "type": "event"
    },
    {
      "anonymous": false,
      "inputs": [
        {
          "indexed": false,
          "internalType": "address",
          "name": "token",
          "type": "address"
        },
        {
          "indexed": false,
          "internalType": "uint256",
          "name": "threshold",
          "type": "uint256"
        }
      ],
      "name": "DelayThresholdUpdated",
      "type": "event"
    },
    {
      "anonymous": false,
      "inputs": [
        {
          "indexed": false,
          "internalType": "bytes32",
          "name": "id",
          "type": "bytes32"
        }
      ],
      "name": "DelayedTransferAdded",
      "type": "event"
    },
    {
      "anonymous": false,
      "inputs": [
        {
          "indexed": false,
          "internalType": "bytes32",
          "name": "id",
          "type": "bytes32"
        },
        {
          "indexed": false,
          "internalType": "address",
          "name": "receiver",
          "type": "address"
        },
        {
          "indexed": false,
          "internalType": "address",
          "name": "token",
          "type": "address"
        },
        {
          "indexed": false,
          "internalType": "uint256",
          "name": "amount",
          "type": "uint256"
        }
      ],
      "name": "DelayedTransferExecuted",
      "type": "event"
    },
    {
      "anonymous": false,
      "inputs": [
        {
          "indexed": false,
          "internalType": "bytes32",
          "name": "depositId",
          "type": "bytes32"
        },
        {
          "indexed": false,
          "internalType": "address",
          "name": "depositor",
          "type": "address"
        },
        {
          "indexed": false,
          "internalType": "address",
          "name": "token",
          "type": "address"
        },
        {
          "indexed": false,
          "internalType": "uint256",
          "name": "amount",
          "type": "uint256"
        },
        {
          "indexed": false,
          "internalType": "uint64",
          "name": "mintChainId",
          "type": "uint64"
        },
        {
          "indexed": false,
          "internalType": "address",
          "name": "mintAccount",
          "type": "address"
        },
        {
          "indexed": false,
          "internalType": "uint64",
          "name": "nonce",
          "type": "uint64"
        }
      ],
      "name": "Deposited",
      "type": "event"
    },
    {
      "anonymous": false,
      "inputs": [
        {
          "indexed": false,
          "internalType": "uint256",
          "name": "length",
          "type": "uint256"
        }
      ],
      "name": "EpochLengthUpdated",
      "type": "event"
    },
    {
      "anonymous": false,
      "inputs": [
        {
          "indexed": false,
          "internalType": "address",
          "name": "token",
          "type": "address"
        },
        {
          "indexed": false,
          "internalType": "uint256",
          "name": "cap",
          "type": "uint256"
        }
      ],
      "name": "EpochVolumeUpdated",
      "type": "event"
    },
    {
      "anonymous": false,
      "inputs": [
        {
          "indexed": false,
          "internalType": "address",
          "name": "account",
          "type": "address"
        }
      ],
      "name": "GovernorAdded",
      "type": "event"
    },
    {
      "anonymous": false,
      "inputs": [
        {
          "indexed": false,
          "internalType": "address",
          "name": "account",
          "type": "address"
        }
      ],
      "name": "GovernorRemoved",
      "type": "event"
    },
    {
      "anonymous": false,
      "inputs": [
        {
          "indexed": false,
          "internalType": "address",
          "name": "token",
          "type": "address"
        },
        {
          "indexed": false,
          "internalType": "uint256",
          "name": "amount",
          "type": "uint256"
        }
      ],
      "name": "MaxDepositUpdated",
      "type": "event"
    },
    {
      "anonymous": false,
      "inputs": [
        {
          "indexed": false,
          "internalType": "address",
          "name": "token",
          "type": "address"
        },
        {
          "indexed": false,
          "internalType": "uint256",
          "name": "amount",
          "type": "uint256"
        }
      ],
      "name": "MinDepositUpdated",
      "type": "event"
    },
    {
      "anonymous": false,
      "inputs": [
        {
          "indexed": true,
          "internalType": "address",
          "name": "previousOwner",
          "type": "address"
        },
        {
          "indexed": true,
          "internalType": "address",
          "name": "newOwner",
          "type": "address"
        }
      ],
      "name": "OwnershipTransferred",
      "type": "event"
    },
    {
      "anonymous": false,
      "inputs": [
        {
          "indexed": false,
          "internalType": "address",
          "name": "account",
          "type": "address"
        }
      ],
      "name": "Paused",
      "type": "event"
    },
    {
      "anonymous": false,
      "inputs": [
        {
          "indexed": false,
          "internalType": "address",
          "name": "account",
          "type": "address"
        }
      ],
      "name": "PauserAdded",
      "type": "event"
    },
    {
      "anonymous": false,
      "inputs": [
        {
          "indexed": false,
          "internalType": "address",
          "name": "account",
          "type": "address"
        }
      ],
      "name": "PauserRemoved",
      "type": "event"
    },
    {
      "anonymous": false,
      "inputs": [
        {
          "indexed": false,
          "internalType": "address",
          "name": "account",
          "type": "address"
        }
      ],
      "name": "Unpaused",
      "type": "event"
    },
    {
      "anonymous": false,
      "inputs": [
        {
          "indexed": false,
          "internalType": "bytes32",
          "name": "withdrawId",
          "type": "bytes32"
        },
        {
          "indexed": false,
          "internalType": "address",
          "name": "receiver",
          "type": "address"
        },
        {
          "indexed": false,
          "internalType": "address",
          "name": "token",
          "type": "address"
        },
        {
          "indexed": false,
          "internalType": "uint256",
          "name": "amount",
          "type": "uint256"
        },
        {
          "indexed": false,
          "internalType": "uint64",
          "name": "refChainId",
          "type": "uint64"
        },
        {
          "indexed": false,
          "internalType": "bytes32",
          "name": "refId",
          "type": "bytes32"
        },
        {
          "indexed": false,
          "internalType": "address",
          "name": "burnAccount",
          "type": "address"
        }
      ],
      "name": "Withdrawn",
      "type": "event"
    },
    {
      "inputs": [
        {
          "internalType": "address",
          "name": "_account",
          "type": "address"
        }
      ],
      "name": "addGovernor",
      "outputs": [],
      "stateMutability": "nonpayable",
      "type": "function"
    },
    {
      "inputs": [
        {
          "internalType": "address",
          "name": "account",
          "type": "address"
        }
      ],
      "name": "addPauser",
      "outputs": [],
      "stateMutability": "nonpayable",
      "type": "function"
    },
    {
      "inputs": [],
      "name": "delayPeriod",
      "outputs": [
        {
          "internalType": "uint256",
          "name": "",
          "type": "uint256"
        }
      ],
      "stateMutability": "view",
      "type": "function"
    },
    {
      "inputs": [
        {
          "internalType": "address",
          "name": "",
          "type": "address"
        }
      ],
      "name": "delayThresholds",
      "outputs": [
        {
          "internalType": "uint256",
          "name": "",
          "type": "uint256"
        }
      ],
      "stateMutability": "view",
      "type": "function"
    },
    {
      "inputs": [
        {
          "internalType": "bytes32",
          "name": "",
          "type": "bytes32"
        }
      ],
      "name": "delayedTransfers",
      "outputs": [
        {
          "internalType": "address",
          "name": "receiver",
          "type": "address"
        },
        {
          "internalType": "address",
          "name": "token",
          "type": "address"
        },
        {
          "internalType": "uint256",
          "name": "amount",
          "type": "uint256"
        },
        {
          "internalType": "uint256",
          "name": "timestamp",
          "type": "uint256"
        }
      ],
      "stateMutability": "view",
      "type": "function"
    },
    {
      "inputs": [
        {
          "internalType": "address",
          "name": "_token",
          "type": "address"
        },
        {
          "internalType": "uint256",
          "name": "_amount",
          "type": "uint256"
        },
        {
          "internalType": "uint64",
          "name": "_mintChainId",
          "type": "uint64"
        },
        {
          "internalType": "address",
          "name": "_mintAccount",
          "type": "address"
        },
        {
          "internalType": "uint64",
          "name": "_nonce",
          "type": "uint64"
        }
      ],
      "name": "deposit",
      "outputs": [
        {
          "internalType": "bytes32",
          "name": "",
          "type": "bytes32"
        }
      ],
      "stateMutability": "nonpayable",
      "type": "function"
    },
    {
      "inputs": [
        {
          "internalType": "uint256",
          "name": "_amount",
          "type": "uint256"
        },
        {
          "internalType": "uint64",
          "name": "_mintChainId",
          "type": "uint64"
        },
        {
          "internalType": "address",
          "name": "_mintAccount",
          "type": "address"
        },
        {
          "internalType": "uint64",
          "name": "_nonce",
          "type": "uint64"
        }
      ],
      "name": "depositNative",
      "outputs": [
        {
          "internalType": "bytes32",
          "name": "",
          "type": "bytes32"
        }
      ],
      "stateMutability": "payable",
      "type": "function"
    },
    {
      "inputs": [],
      "name": "epochLength",
      "outputs": [
        {
          "internalType": "uint256",
          "name": "",
          "type": "uint256"
        }
      ],
      "stateMutability": "view",
      "type": "function"
    },
    {
      "inputs": [
        {
          "internalType": "address",
          "name": "",
          "type": "address"
        }
      ],
      "name": "epochVolumeCaps",
      "outputs": [
        {
          "internalType": "uint256",
          "name": "",
          "type": "uint256"
        }
      ],
      "stateMutability": "view",
      "type": "function"
    },
    {
      "inputs": [
        {
          "internalType": "address",
          "name": "",
          "type": "address"
        }
      ],
      "name": "epochVolumes",
      "outputs": [
        {
          "internalType": "uint256",
          "name": "",
          "type": "uint256"
        }
      ],
      "stateMutability": "view",
      "type": "function"
    },
    {
      "inputs": [
        {
          "internalType": "bytes32",
          "name": "id",
          "type": "bytes32"
        }
      ],
      "name": "executeDelayedTransfer",
      "outputs": [],
      "stateMutability": "nonpayable",
      "type": "function"
    },
    {
      "inputs": [
        {
          "internalType": "address",
          "name": "",
          "type": "address"
        }
      ],
      "name": "governors",
      "outputs": [
        {
          "internalType": "bool",
          "name": "",
          "type": "bool"
        }
      ],
      "stateMutability": "view",
      "type": "function"
    },
    {
      "inputs": [
        {
          "internalType": "address",
          "name": "_account",
          "type": "address"
        }
      ],
      "name": "isGovernor",
      "outputs": [
        {
          "internalType": "bool",
          "name": "",
          "type": "bool"
        }
      ],
      "stateMutability": "view",
      "type": "function"
    },
    {
      "inputs": [
        {
          "internalType": "address",
          "name": "account",
          "type": "address"
        }
      ],
      "name": "isPauser",
      "outputs": [
        {
          "internalType": "bool",
          "name": "",
          "type": "bool"
        }
      ],
      "stateMutability": "view",
      "type": "function"
    },
    {
      "inputs": [
        {
          "internalType": "address",
          "name": "",
          "type": "address"
        }
      ],
      "name": "lastOpTimestamps",
      "outputs": [
        {
          "internalType": "uint256",
          "name": "",
          "type": "uint256"
        }
      ],
      "stateMutability": "view",
      "type": "function"
    },
    {
      "inputs": [
        {
          "internalType": "address",
          "name": "",
          "type": "address"
        }
      ],
      "name": "maxDeposit",
      "outputs": [
        {
          "internalType": "uint256",
          "name": "",
          "type": "uint256"
        }
      ],
      "stateMutability": "view",
      "type": "function"
    },
    {
      "inputs": [
        {
          "internalType": "address",
          "name": "",
          "type": "address"
        }
      ],
      "name": "minDeposit",
      "outputs": [
        {
          "internalType": "uint256",
          "name": "",
          "type": "uint256"
        }
      ],
      "stateMutability": "view",
      "type": "function"
    },
    {
      "inputs": [],
      "name": "nativeWrap",
      "outputs": [
        {
          "internalType": "address",
          "name": "",
          "type": "address"
        }
      ],
      "stateMutability": "view",
      "type": "function"
    },
    {
      "inputs": [],
      "name": "owner",
      "outputs": [
        {
          "internalType": "address",
          "name": "",
          "type": "address"
        }
      ],
      "stateMutability": "view",
      "type": "function"
    },
    {
      "inputs": [],
      "name": "pause",
      "outputs": [],
      "stateMutability": "nonpayable",
      "type": "function"
    },
    {
      "inputs": [],
      "name": "paused",
      "outputs": [
        {
          "internalType": "bool",
          "name": "",
          "type": "bool"
        }
      ],
      "stateMutability": "view",
      "type": "function"
    },
    {
      "inputs": [
        {
          "internalType": "address",
          "name": "",
          "type": "address"
        }
      ],
      "name": "pausers",
      "outputs": [
        {
          "internalType": "bool",
          "name": "",
          "type": "bool"
        }
      ],
      "stateMutability": "view",
      "type": "function"
    },
    {
      "inputs": [
        {
          "internalType": "bytes32",
          "name": "",
          "type": "bytes32"
        }
      ],
      "name": "records",
      "outputs": [
        {
          "internalType": "bool",
          "name": "",
          "type": "bool"
        }
      ],
      "stateMutability": "view",
      "type": "function"
    },
    {
      "inputs": [
        {
          "internalType": "address",
          "name": "_account",
          "type": "address"
        }
      ],
      "name": "removeGovernor",
      "outputs": [],
      "stateMutability": "nonpayable",
      "type": "function"
    },
    {
      "inputs": [
        {
          "internalType": "address",
          "name": "account",
          "type": "address"
        }
      ],
      "name": "removePauser",
      "outputs": [],
      "stateMutability": "nonpayable",
      "type": "function"
    },
    {
      "inputs": [],
      "name": "renounceGovernor",
      "outputs": [],
      "stateMutability": "nonpayable",
      "type": "function"
    },
    {
      "inputs": [],
      "name": "renouncePauser",
      "outputs": [],
      "stateMutability": "nonpayable",
      "type": "function"
    },
    {
      "inputs": [
        {
          "internalType": "uint256",
          "name": "_period",
          "type": "uint256"
        }
      ],
      "name": "setDelayPeriod",
      "outputs": [],
      "stateMutability": "nonpayable",
      "type": "function"
    },
    {
      "inputs": [
        {
          "internalType": "address[]",
          "name": "_tokens",
          "type": "address[]"
        },
        {
          "internalType": "uint256[]",
          "name": "_thresholds",
          "type": "uint256[]"
        }
      ],
      "name": "setDelayThresholds",
      "outputs": [],
      "stateMutability": "nonpayable",
      "type": "function"
    },
    {
      "inputs": [
        {
          "internalType": "uint256",
          "name": "_length",
          "type": "uint256"
        }
      ],
      "name": "setEpochLength",
      "outputs": [],
      "stateMutability": "nonpayable",
      "type": "function"
    },
    {
      "inputs": [
        {
          "internalType": "address[]",
          "name": "_tokens",
          "type": "address[]"
        },
        {
          "internalType": "uint256[]",
          "name": "_caps",
          "type": "uint256[]"
        }
      ],
      "name": "setEpochVolumeCaps",
      "outputs": [],
      "stateMutability": "nonpayable",
      "type": "function"
    },
    {
      "inputs": [
        {
          "internalType": "address[]",
          "name": "_tokens",
          "type": "address[]"
        },
        {
          "internalType": "uint256[]",
          "name": "_amounts",
          "type": "uint256[]"
        }
      ],
      "name": "setMaxDeposit",
      "outputs": [],
      "stateMutability": "nonpayable",
      "type": "function"
    },
    {
      "inputs": [
        {
          "internalType": "address[]",
          "name": "_tokens",
          "type": "address[]"
        },
        {
          "internalType": "uint256[]",
          "name": "_amounts",
          "type": "uint256[]"
        }
      ],
      "name": "setMinDeposit",
      "outputs": [],
      "stateMutability": "nonpayable",
      "type": "function"
    },
    {
      "inputs": [
        {
          "internalType": "address",
          "name": "_weth",
          "type": "address"
        }
      ],
      "name": "setWrap",
      "outputs": [],
      "stateMutability": "nonpayable",
      "type": "function"
    },
    {
      "inputs": [],
      "name": "sigsVerifier",
      "outputs": [
        {
          "internalType": "contract ISigsVerifier",
          "name": "",
          "type": "address"
        }
      ],
      "stateMutability": "view",
      "type": "function"
    },
    {
      "inputs": [
        {
          "internalType": "address",
          "name": "newOwner",
          "type": "address"
        }
      ],
      "name": "transferOwnership",
      "outputs": [],
      "stateMutability": "nonpayable",
      "type": "function"
    },
    {
      "inputs": [],
      "name": "unpause",
      "outputs": [],
      "stateMutability": "nonpayable",
      "type": "function"
    },
    {
      "inputs": [
        {
          "internalType": "bytes",
          "name": "_request",
          "type": "bytes"
        },
        {
          "internalType": "bytes[]",
          "name": "_sigs",
          "type": "bytes[]"
        },
        {
          "internalType": "address[]",
          "name": "_signers",
          "type": "address[]"
        },
        {
          "internalType": "uint256[]",
          "name": "_powers",
          "type": "uint256[]"
        }
      ],
      "name": "withdraw",
      "outputs": [
        {
          "internalType": "bytes32",
          "name": "",
          "type": "bytes32"
        }
      ],
      "stateMutability": "nonpayable",
      "type": "function"
    },
    {
      "stateMutability": "payable",
      "type": "receive"
    }
  ],
  "transactionHash": "0xbe4747fef881f19966ec1c33e191de024152c01a16ad1bfb0387010b0191ea63",
  "args": [
    "0x9D39Fc627A6d9d9F8C831c16995b209548cc3401"
  ],
  "numDeployments": 1,
  "solcInputHash": "6bc1ef4395681aca9aea67327e6e1f27",
  "bytecode": "0x60a06040523480156200001157600080fd5b506040516200375a3803806200375a833981016040819052620000349162000255565b6001600055620000443362000079565b6001805460ff60a01b191690556200005c33620000cb565b620000673362000195565b6001600160a01b031660805262000287565b600180546001600160a01b038381166001600160a01b0319831681179093556040519116919082907f8be0079c531659141344cd1fd0a4f28419497f9722a3daafe3b4186f6b6457e090600090a35050565b6001600160a01b03811660009081526002602052604090205460ff16156200013a5760405162461bcd60e51b815260206004820152601960248201527f4163636f756e7420697320616c7265616479207061757365720000000000000060448201526064015b60405180910390fd5b6001600160a01b038116600081815260026020908152604091829020805460ff1916600117905590519182527f6719d08c1888103bea251a4ed56406bd0c3e69723c8a1686e017e7bbe159b6f891015b60405180910390a150565b6001600160a01b03811660009081526003602052604090205460ff1615620002005760405162461bcd60e51b815260206004820152601b60248201527f4163636f756e7420697320616c726561647920676f7665726e6f720000000000604482015260640162000131565b6001600160a01b038116600081815260036020908152604091829020805460ff1916600117905590519182527fdc5a48d79e2e147530ff63ecdbed5a5a66adb9d5cf339384d5d076da197c40b591016200018a565b6000602082840312156200026857600080fd5b81516001600160a01b03811681146200028057600080fd5b9392505050565b6080516134b0620002aa60003960008181610752015261178401526134b06000f3fe6080604052600436106102885760003560e01c80636b2c0f5511610153578063adc0d57f116100cb578063e3eece261161007f578063eecdac8811610064578063eecdac88146107f2578063f2fde38b14610812578063f83213831461083257600080fd5b8063e3eece2614610789578063e43581b8146107b957600080fd5b8063b5f2bc47116100b0578063b5f2bc4714610713578063ccf2683b14610740578063e026049c1461077457600080fd5b8063adc0d57f14610683578063b1c94d94146106fd57600080fd5b80638456cb59116101225780639e25fc5c116101075780639e25fc5c146106235780639ff9001a14610643578063a21a92801461066357600080fd5b80638456cb59146105f05780638da5cb5b1461060557600080fd5b80636b2c0f551461056b5780636ef8d66d1461058b57806380f51c12146105a057806382dc1ec4146105d057600080fd5b8063402d267d1161020157806354eea796116101b55780635c975abb1161019a5780635c975abb146104ff5780635ec2fa261461051e57806360216b001461053e57600080fd5b806354eea796146104c957806357d775f8146104e957600080fd5b806346fbf68e116101e657806346fbf68e1461044357806347b16c6c1461047c57806352532faa1461049c57600080fd5b8063402d267d146103de578063457bfa2f1461040b57600080fd5b8063303b6442116102585780633c4a25d01161023d5780633c4a25d0146103895780633d572107146103a95780633f4ba83a146103c957600080fd5b8063303b64421461033c5780633c29f8391461035c57600080fd5b8062a95fd71461029457806301e64725146102ba57806317bdbae5146102fa578063234636241461031c57600080fd5b3661028f57005b600080fd5b6102a76102a2366004612ed2565b61085f565b6040519081526020015b60405180910390f35b3480156102c657600080fd5b506102ea6102d5366004612f1f565b600b6020526000908152604090205460ff1681565b60405190151581526020016102b1565b34801561030657600080fd5b5061031a610315366004612f84565b610ac4565b005b34801561032857600080fd5b506102a7610337366004612ff0565b610c62565b34801561034857600080fd5b5061031a610357366004612f84565b610dac565b34801561036857600080fd5b506102a761037736600461304e565b600c6020526000908152604090205481565b34801561039557600080fd5b5061031a6103a436600461304e565b610f43565b3480156103b557600080fd5b5061031a6103c4366004612f1f565b610fb8565b3480156103d557600080fd5b5061031a61104c565b3480156103ea57600080fd5b506102a76103f936600461304e565b600d6020526000908152604090205481565b34801561041757600080fd5b50600e5461042b906001600160a01b031681565b6040516001600160a01b0390911681526020016102b1565b34801561044f57600080fd5b506102ea61045e36600461304e565b6001600160a01b031660009081526002602052604090205460ff1690565b34801561048857600080fd5b5061031a610497366004612f84565b6110b5565b3480156104a857600080fd5b506102a76104b736600461304e565b60096020526000908152604090205481565b3480156104d557600080fd5b5061031a6104e4366004612f1f565b61124c565b3480156104f557600080fd5b506102a760045481565b34801561050b57600080fd5b50600154600160a01b900460ff166102ea565b34801561052a57600080fd5b5061031a610539366004612f84565b6112d9565b34801561054a57600080fd5b506102a761055936600461304e565b60056020526000908152604090205481565b34801561057757600080fd5b5061031a61058636600461304e565b611470565b34801561059757600080fd5b5061031a6114e2565b3480156105ac57600080fd5b506102ea6105bb36600461304e565b60026020526000908152604090205460ff1681565b3480156105dc57600080fd5b5061031a6105eb36600461304e565b6114eb565b3480156105fc57600080fd5b5061031a61155d565b34801561061157600080fd5b506001546001600160a01b031661042b565b34801561062f57600080fd5b5061031a61063e366004612f1f565b6115c4565b34801561064f57600080fd5b5061031a61065e36600461304e565b611639565b34801561066f57600080fd5b506102a761067e366004613069565b6116c4565b34801561068f57600080fd5b506106d261069e366004612f1f565b60086020526000908152604090208054600182015460028301546003909301546001600160a01b0392831693919092169184565b604080516001600160a01b0395861681529490931660208501529183015260608201526080016102b1565b34801561070957600080fd5b506102a7600a5481565b34801561071f57600080fd5b506102a761072e36600461304e565b60066020526000908152604090205481565b34801561074c57600080fd5b5061042b7f000000000000000000000000000000000000000000000000000000000000000081565b34801561078057600080fd5b5061031a611a8e565b34801561079557600080fd5b506102ea6107a436600461304e565b60036020526000908152604090205460ff1681565b3480156107c557600080fd5b506102ea6107d436600461304e565b6001600160a01b031660009081526003602052604090205460ff1690565b3480156107fe57600080fd5b5061031a61080d36600461304e565b611a97565b34801561081e57600080fd5b5061031a61082d36600461304e565b611b09565b34801561083e57600080fd5b506102a761084d36600461304e565b60076020526000908152604090205481565b60006002600054036108b85760405162461bcd60e51b815260206004820152601f60248201527f5265656e7472616e637947756172643a207265656e7472616e742063616c6c0060448201526064015b60405180910390fd5b6002600055600154600160a01b900460ff161561090a5760405162461bcd60e51b815260206004820152601060248201526f14185d5cd8589b194e881c185d5cd95960821b60448201526064016108af565b8434146109595760405162461bcd60e51b815260206004820152600f60248201527f416d6f756e74206d69736d61746368000000000000000000000000000000000060448201526064016108af565b600e546001600160a01b03166109b15760405162461bcd60e51b815260206004820152601360248201527f4e61746976652077726170206e6f74207365740000000000000000000000000060448201526064016108af565b600e546000906109cd906001600160a01b031687878787611bf7565b9050600e60009054906101000a90046001600160a01b03166001600160a01b031663d0e30db0876040518263ffffffff1660e01b81526004016000604051808303818588803b158015610a1f57600080fd5b505af1158015610a33573d6000803e3d6000fd5b5050600e54604080518681523360208201526001600160a01b0392831691810191909152606081018b905267ffffffffffffffff808b16608083015291891660a082015290871660c08201527f28d226819e371600e26624ebc4a9a3947117ee2760209f816c789d3a99bf481b935060e0019150610aae9050565b60405180910390a1600160005595945050505050565b3360009081526003602052604090205460ff16610b1c5760405162461bcd60e51b815260206004820152601660248201527521b0b63632b91034b9903737ba1033b7bb32b93737b960511b60448201526064016108af565b828114610b5d5760405162461bcd60e51b815260206004820152600f60248201526e0d8cadccee8d040dad2e6dac2e8c6d608b1b60448201526064016108af565b60005b83811015610c5b57828282818110610b7a57610b7a613158565b9050602002013560096000878785818110610b9757610b97613158565b9050602002016020810190610bac919061304e565b6001600160a01b031681526020810191909152604001600020557fceaad6533bfb481492fb3e08ef19297f46611b8fa9de5ef4cf8dc23a56ad09ce858583818110610bf957610bf9613158565b9050602002016020810190610c0e919061304e565b848484818110610c2057610c20613158565b604080516001600160a01b0390951685526020918202939093013590840152500160405180910390a180610c5381613184565b915050610b60565b5050505050565b6000600260005403610cb65760405162461bcd60e51b815260206004820152601f60248201527f5265656e7472616e637947756172643a207265656e7472616e742063616c6c0060448201526064016108af565b6002600055600154600160a01b900460ff1615610d085760405162461bcd60e51b815260206004820152601060248201526f14185d5cd8589b194e881c185d5cd95960821b60448201526064016108af565b6000610d178787878787611bf7565b9050610d2e6001600160a01b038816333089611df4565b604080518281523360208201526001600160a01b03898116828401526060820189905267ffffffffffffffff888116608084015290871660a0830152851660c082015290517f28d226819e371600e26624ebc4a9a3947117ee2760209f816c789d3a99bf481b9181900360e00190a160016000559695505050505050565b3360009081526003602052604090205460ff16610e045760405162461bcd60e51b815260206004820152601660248201527521b0b63632b91034b9903737ba1033b7bb32b93737b960511b60448201526064016108af565b828114610e455760405162461bcd60e51b815260206004820152600f60248201526e0d8cadccee8d040dad2e6dac2e8c6d608b1b60448201526064016108af565b60005b83811015610c5b57828282818110610e6257610e62613158565b90506020020135600d6000878785818110610e7f57610e7f613158565b9050602002016020810190610e94919061304e565b6001600160a01b031681526020810191909152604001600020557f0e5d348f9737ccc8b4cf0eea0ccf3670af071af8bea5d64664f10e700c08de72858583818110610ee157610ee1613158565b9050602002016020810190610ef6919061304e565b848484818110610f0857610f08613158565b604080516001600160a01b0390951685526020918202939093013590840152500160405180910390a180610f3b81613184565b915050610e48565b33610f566001546001600160a01b031690565b6001600160a01b031614610fac5760405162461bcd60e51b815260206004820181905260248201527f4f776e61626c653a2063616c6c6572206973206e6f7420746865206f776e657260448201526064016108af565b610fb581611e92565b50565b3360009081526003602052604090205460ff166110105760405162461bcd60e51b815260206004820152601660248201527521b0b63632b91034b9903737ba1033b7bb32b93737b960511b60448201526064016108af565b600a8190556040518181527fc0a39f234199b125fb93713c4d067bdcebbf691087f87b79c0feb92b156ba8b6906020015b60405180910390a150565b3360009081526002602052604090205460ff166110ab5760405162461bcd60e51b815260206004820152601460248201527f43616c6c6572206973206e6f742070617573657200000000000000000000000060448201526064016108af565b6110b3611f4f565b565b3360009081526003602052604090205460ff1661110d5760405162461bcd60e51b815260206004820152601660248201527521b0b63632b91034b9903737ba1033b7bb32b93737b960511b60448201526064016108af565b82811461114e5760405162461bcd60e51b815260206004820152600f60248201526e0d8cadccee8d040dad2e6dac2e8c6d608b1b60448201526064016108af565b60005b83811015610c5b5782828281811061116b5761116b613158565b905060200201356006600087878581811061118857611188613158565b905060200201602081019061119d919061304e565b6001600160a01b031681526020810191909152604001600020557f608e49c22994f20b5d3496dca088b88dfd81b4a3e8cc3809ea1e10a320107e898585838181106111ea576111ea613158565b90506020020160208101906111ff919061304e565b84848481811061121157611211613158565b604080516001600160a01b0390951685526020918202939093013590840152500160405180910390a18061124481613184565b915050611151565b3360009081526003602052604090205460ff166112a45760405162461bcd60e51b815260206004820152601660248201527521b0b63632b91034b9903737ba1033b7bb32b93737b960511b60448201526064016108af565b60048190556040518181527f2664fec2ff76486ac58ed087310855b648b15b9d19f3de8529e95f7c46b7d6b390602001611041565b3360009081526003602052604090205460ff166113315760405162461bcd60e51b815260206004820152601660248201527521b0b63632b91034b9903737ba1033b7bb32b93737b960511b60448201526064016108af565b8281146113725760405162461bcd60e51b815260206004820152600f60248201526e0d8cadccee8d040dad2e6dac2e8c6d608b1b60448201526064016108af565b60005b83811015610c5b5782828281811061138f5761138f613158565b90506020020135600c60008787858181106113ac576113ac613158565b90506020020160208101906113c1919061304e565b6001600160a01b031681526020810191909152604001600020557f0f48d517989455cd80ed52427e80553e66f9b69fd5cee8e26bd1a1f9c364fba685858381811061140e5761140e613158565b9050602002016020810190611423919061304e565b84848481811061143557611435613158565b604080516001600160a01b0390951685526020918202939093013590840152500160405180910390a18061146881613184565b915050611375565b336114836001546001600160a01b031690565b6001600160a01b0316146114d95760405162461bcd60e51b815260206004820181905260248201527f4f776e61626c653a2063616c6c6572206973206e6f7420746865206f776e657260448201526064016108af565b610fb581611ff5565b6110b333611ff5565b336114fe6001546001600160a01b031690565b6001600160a01b0316146115545760405162461bcd60e51b815260206004820181905260248201527f4f776e61626c653a2063616c6c6572206973206e6f7420746865206f776e657260448201526064016108af565b610fb5816120ae565b3360009081526002602052604090205460ff166115bc5760405162461bcd60e51b815260206004820152601460248201527f43616c6c6572206973206e6f742070617573657200000000000000000000000060448201526064016108af565b6110b361216b565b600154600160a01b900460ff16156116115760405162461bcd60e51b815260206004820152601060248201526f14185d5cd8589b194e881c185d5cd95960821b60448201526064016108af565b600061161c826121f3565b90506116358160000151826020015183604001516123b8565b5050565b3361164c6001546001600160a01b031690565b6001600160a01b0316146116a25760405162461bcd60e51b815260206004820181905260248201527f4f776e61626c653a2063616c6c6572206973206e6f7420746865206f776e657260448201526064016108af565b600e80546001600160a01b0319166001600160a01b0392909216919091179055565b600154600090600160a01b900460ff16156117145760405162461bcd60e51b815260206004820152601060248201526f14185d5cd8589b194e881c185d5cd95960821b60448201526064016108af565b6000463060405160200161176a92919091825260601b6bffffffffffffffffffffffff191660208201527f57697468647261770000000000000000000000000000000000000000000000006034820152603c0190565b6040516020818303038152906040528051906020012090507f00000000000000000000000000000000000000000000000000000000000000006001600160a01b031663682dbc22828c8c6040516020016117c69392919061319d565b6040516020818303038152906040528a8a8a8a8a8a6040518863ffffffff1660e01b81526004016117fd97969594939291906132c2565b60006040518083038186803b15801561181557600080fd5b505afa158015611829573d6000803e3d6000fd5b50505050600061186e8b8b8080601f0160208091040260200160405190810160405280939291908181526020018383808284376000920191909152506124ed92505050565b6020818101518251604080850151606080870151608088015160a089015185516bffffffffffffffffffffffff1998851b8916818b015296841b88166034880152604887019490945290821b8616606886015277ffffffffffffffffffffffffffffffffffffffffffffffff1960c09190911b16607c850152608484019190915230901b90921660a48201528151808203609801815260b890910182528051908301206000818152600b9093529120549192509060ff16156119625760405162461bcd60e51b815260206004820152600d60248201526c7265636f72642065786973747360981b60448201526064016108af565b6000818152600b602052604090819020805460ff1916600117905582519083015161198d9190612649565b81516001600160a01b031660009081526009602052604090205480158015906119b95750808360400151115b156119db576119d682846020015185600001518660400151612767565b6119f2565b6119f28360200151846000015185604001516123b8565b602080840151845160408087015160808089015160a0808b01516060808d015187518d81526001600160a01b039a8b169b81019b909b52978916968a01969096529488019390935267ffffffffffffffff16908601528401521660c08201527f296a629c5265cb4e5319803d016902eb70a9079b89655fe2b7737821ed88beeb9060e00160405180910390a1509b9a5050505050505050505050565b6110b33361287a565b33611aaa6001546001600160a01b031690565b6001600160a01b031614611b005760405162461bcd60e51b815260206004820181905260248201527f4f776e61626c653a2063616c6c6572206973206e6f7420746865206f776e657260448201526064016108af565b610fb58161287a565b33611b1c6001546001600160a01b031690565b6001600160a01b031614611b725760405162461bcd60e51b815260206004820181905260248201527f4f776e61626c653a2063616c6c6572206973206e6f7420746865206f776e657260448201526064016108af565b6001600160a01b038116611bee5760405162461bcd60e51b815260206004820152602660248201527f4f776e61626c653a206e6577206f776e657220697320746865207a65726f206160448201527f646472657373000000000000000000000000000000000000000000000000000060648201526084016108af565b610fb581612933565b6001600160a01b0385166000908152600c60205260408120548511611c5e5760405162461bcd60e51b815260206004820152601060248201527f616d6f756e7420746f6f20736d616c6c0000000000000000000000000000000060448201526064016108af565b6001600160a01b0386166000908152600d60205260409020541580611c9b57506001600160a01b0386166000908152600d60205260409020548511155b611ce75760405162461bcd60e51b815260206004820152601060248201527f616d6f756e7420746f6f206c617267650000000000000000000000000000000060448201526064016108af565b6040516bffffffffffffffffffffffff1933606090811b8216602084015288811b821660348401526048830188905277ffffffffffffffffffffffffffffffffffffffffffffffff1960c088811b8216606886015287831b8416607086015286811b8216608486015246901b16608c84015230901b16609482015260009060a80160408051601f1981840301815291815281516020928301206000818152600b90935291205490915060ff1615611dd05760405162461bcd60e51b815260206004820152600d60248201526c7265636f72642065786973747360981b60448201526064016108af565b6000818152600b60205260409020805460ff19166001179055905095945050505050565b6040516001600160a01b0380851660248301528316604482015260648101829052611e8c9085906323b872dd60e01b906084015b60408051601f198184030181529190526020810180517bffffffffffffffffffffffffffffffffffffffffffffffffffffffff167fffffffff0000000000000000000000000000000000000000000000000000000090931692909217909152612985565b50505050565b6001600160a01b03811660009081526003602052604090205460ff1615611efb5760405162461bcd60e51b815260206004820152601b60248201527f4163636f756e7420697320616c726561647920676f7665726e6f72000000000060448201526064016108af565b6001600160a01b038116600081815260036020908152604091829020805460ff1916600117905590519182527fdc5a48d79e2e147530ff63ecdbed5a5a66adb9d5cf339384d5d076da197c40b59101611041565b600154600160a01b900460ff16611fa85760405162461bcd60e51b815260206004820152601460248201527f5061757361626c653a206e6f742070617573656400000000000000000000000060448201526064016108af565b6001805460ff60a01b191690557f5db9ee0a495bf2e6ff9c91a7834c1ba4fdd244a5e8aa4e537bd38aeae4b073aa335b6040516001600160a01b03909116815260200160405180910390a1565b6001600160a01b03811660009081526002602052604090205460ff1661205d5760405162461bcd60e51b815260206004820152601560248201527f4163636f756e74206973206e6f7420706175736572000000000000000000000060448201526064016108af565b6001600160a01b038116600081815260026020908152604091829020805460ff1916905590519182527fcd265ebaf09df2871cc7bd4133404a235ba12eff2041bb89d9c714a2621c7c7e9101611041565b6001600160a01b03811660009081526002602052604090205460ff16156121175760405162461bcd60e51b815260206004820152601960248201527f4163636f756e7420697320616c7265616479207061757365720000000000000060448201526064016108af565b6001600160a01b038116600081815260026020908152604091829020805460ff1916600117905590519182527f6719d08c1888103bea251a4ed56406bd0c3e69723c8a1686e017e7bbe159b6f89101611041565b600154600160a01b900460ff16156121b85760405162461bcd60e51b815260206004820152601060248201526f14185d5cd8589b194e881c185d5cd95960821b60448201526064016108af565b6001805460ff60a01b1916600160a01b1790557f62e78cea01bee320cd4e420270b5ea74000d11b0c9f74754ebdbfc544b05a258611fd83390565b604080516080810182526000808252602082018190529181018290526060810191909152600082815260086020908152604091829020825160808101845281546001600160a01b03908116825260018301541692810192909252600281015492820192909252600390910154606082018190526122b25760405162461bcd60e51b815260206004820152601a60248201527f64656c61796564207472616e73666572206e6f7420657869737400000000000060448201526064016108af565b600a5481606001516122c4919061339e565b42116123125760405162461bcd60e51b815260206004820152601d60248201527f64656c61796564207472616e73666572207374696c6c206c6f636b656400000060448201526064016108af565b600083815260086020908152604080832080546001600160a01b03199081168255600182018054909116905560028101849055600301929092558251908301518383015192517f3b40e5089937425d14cdd96947e5661868357e224af59bd8b24a4b8a330d4426936123aa93889390929091909384526001600160a01b03928316602085015291166040830152606082015260800190565b60405180910390a192915050565b600e546001600160a01b03908116908316036124d457600e54604051632e1a7d4d60e01b8152600481018390526001600160a01b0390911690632e1a7d4d90602401600060405180830381600087803b15801561241457600080fd5b505af1158015612428573d6000803e3d6000fd5b505050506000836001600160a01b03168261c35090604051600060405180830381858888f193505050503d806000811461247e576040519150601f19603f3d011682016040523d82523d6000602084013e612483565b606091505b5050905080611e8c5760405162461bcd60e51b815260206004820152601b60248201527f6661696c656420746f2073656e64206e617469766520746f6b656e000000000060448201526064016108af565b6124e86001600160a01b0383168483612a6a565b505050565b6040805160c08101825260008082526020808301829052828401829052606083018290526080830182905260a0830182905283518085019094528184528301849052909190805b602083015151835110156126415761254b83612a9a565b9092509050816001036125795761256961256484612ad4565b612b91565b6001600160a01b03168452612534565b816002036125a05761258d61256484612ad4565b6001600160a01b03166020850152612534565b816003036125c3576125b96125b484612ad4565b612ba2565b6040850152612534565b816004036125ea576125d761256484612ad4565b6001600160a01b03166060850152612534565b8160050361260f576125fb83612bd9565b67ffffffffffffffff166080850152612534565b816006036126325761262861262384612ad4565b612c54565b60a0850152612534565b61263c8382612c6c565b612534565b505050919050565b600454600003612657575050565b6001600160a01b0382166000908152600660205260408120549081900361267d57505050565b6001600160a01b038316600090815260056020526040812054600454909142916126a781846133b1565b6126b191906133d3565b6001600160a01b0387166000908152600760205260409020549091508111156126dc578492506126e9565b6126e6858461339e565b92505b838311156127395760405162461bcd60e51b815260206004820152601260248201527f766f6c756d65206578636565647320636170000000000000000000000000000060448201526064016108af565b506001600160a01b039094166000908152600560209081526040808320939093556007905220929092555050565b600084815260086020526040902060030154156127c65760405162461bcd60e51b815260206004820152601f60248201527f64656c61796564207472616e7366657220616c7265616479206578697374730060448201526064016108af565b604080516080810182526001600160a01b0380861682528481166020808401918252838501868152426060860190815260008b8152600890935291869020945185549085166001600160a01b031991821617865592516001860180549190951693169290921790925551600283015551600390910155517fcbcfffe5102114216a85d3aceb14ad4b81a3935b1b5c468fadf3889eb9c5dce69061286c9086815260200190565b60405180910390a150505050565b6001600160a01b03811660009081526003602052604090205460ff166128e25760405162461bcd60e51b815260206004820152601760248201527f4163636f756e74206973206e6f7420676f7665726e6f7200000000000000000060448201526064016108af565b6001600160a01b038116600081815260036020908152604091829020805460ff1916905590519182527f1ebe834e73d60a5fec822c1e1727d34bc79f2ad977ed504581cc1822fe20fb5b9101611041565b600180546001600160a01b038381166001600160a01b0319831681179093556040519116919082907f8be0079c531659141344cd1fd0a4f28419497f9722a3daafe3b4186f6b6457e090600090a35050565b60006129da826040518060400160405280602081526020017f5361666545524332303a206c6f772d6c6576656c2063616c6c206661696c6564815250856001600160a01b0316612cdc9092919063ffffffff16565b8051909150156124e857808060200190518101906129f891906133ea565b6124e85760405162461bcd60e51b815260206004820152602a60248201527f5361666545524332303a204552433230206f7065726174696f6e20646964206e60448201527f6f7420737563636565640000000000000000000000000000000000000000000060648201526084016108af565b6040516001600160a01b0383166024820152604481018290526124e890849063a9059cbb60e01b90606401611e28565b6000806000612aa884612bd9565b9050612ab56008826133b1565b9250806007166005811115612acc57612acc61340c565b915050915091565b60606000612ae183612bd9565b90506000818460000151612af5919061339e565b9050836020015151811115612b0957600080fd5b8167ffffffffffffffff811115612b2257612b22613422565b6040519080825280601f01601f191660200182016040528015612b4c576020820181803683370190505b50602080860151865192955091818601919083010160005b85811015612b86578181015183820152612b7f60208261339e565b9050612b64565b505050935250919050565b6000612b9c82612cf5565b92915050565b6000602082511115612bb357600080fd5b6020820151905081516020612bc89190613438565b612bd39060086133d3565b1c919050565b602080820151825181019091015160009182805b600a81101561028f5783811a9150612c068160076133d3565b82607f16901b8517945081608016600003612c4257612c2681600161339e565b86518790612c3590839061339e565b9052509395945050505050565b80612c4c81613184565b915050612bed565b60008151602014612c6457600080fd5b506020015190565b6000816005811115612c8057612c8061340c565b03612c8e576124e882612bd9565b6002816005811115612ca257612ca261340c565b0361028f576000612cb283612bd9565b90508083600001818151612cc6919061339e565b905250602083015151835111156124e857600080fd5b6060612ceb8484600085612d1d565b90505b9392505050565b60008151601414612d0557600080fd5b50602001516c01000000000000000000000000900490565b606082471015612d955760405162461bcd60e51b815260206004820152602660248201527f416464726573733a20696e73756666696369656e742062616c616e636520666f60448201527f722063616c6c000000000000000000000000000000000000000000000000000060648201526084016108af565b6001600160a01b0385163b612dec5760405162461bcd60e51b815260206004820152601d60248201527f416464726573733a2063616c6c20746f206e6f6e2d636f6e747261637400000060448201526064016108af565b600080866001600160a01b03168587604051612e08919061344b565b60006040518083038185875af1925050503d8060008114612e45576040519150601f19603f3d011682016040523d82523d6000602084013e612e4a565b606091505b5091509150612e5a828286612e65565b979650505050505050565b60608315612e74575081612cee565b825115612e845782518084602001fd5b8160405162461bcd60e51b81526004016108af9190613467565b803567ffffffffffffffff81168114612eb657600080fd5b919050565b80356001600160a01b0381168114612eb657600080fd5b60008060008060808587031215612ee857600080fd5b84359350612ef860208601612e9e565b9250612f0660408601612ebb565b9150612f1460608601612e9e565b905092959194509250565b600060208284031215612f3157600080fd5b5035919050565b60008083601f840112612f4a57600080fd5b50813567ffffffffffffffff811115612f6257600080fd5b6020830191508360208260051b8501011115612f7d57600080fd5b9250929050565b60008060008060408587031215612f9a57600080fd5b843567ffffffffffffffff80821115612fb257600080fd5b612fbe88838901612f38565b90965094506020870135915080821115612fd757600080fd5b50612fe487828801612f38565b95989497509550505050565b600080600080600060a0868803121561300857600080fd5b61301186612ebb565b94506020860135935061302660408701612e9e565b925061303460608701612ebb565b915061304260808701612e9e565b90509295509295909350565b60006020828403121561306057600080fd5b612cee82612ebb565b6000806000806000806000806080898b03121561308557600080fd5b883567ffffffffffffffff8082111561309d57600080fd5b818b0191508b601f8301126130b157600080fd5b8135818111156130c057600080fd5b8c60208285010111156130d257600080fd5b60209283019a509850908a013590808211156130ed57600080fd5b6130f98c838d01612f38565b909850965060408b013591508082111561311257600080fd5b61311e8c838d01612f38565b909650945060608b013591508082111561313757600080fd5b506131448b828c01612f38565b999c989b5096995094979396929594505050565b634e487b7160e01b600052603260045260246000fd5b634e487b7160e01b600052601160045260246000fd5b6000600182016131965761319661316e565b5060010190565b838152818360208301376000910160200190815292915050565b60005b838110156131d25781810151838201526020016131ba565b50506000910152565b600081518084526131f38160208601602086016131b7565b601f01601f19169290920160200192915050565b81835281816020850137506000828201602090810191909152601f909101601f19169091010190565b8183526000602080850194508260005b8581101561326c576001600160a01b0361325983612ebb565b1687529582019590820190600101613240565b509495945050505050565b81835260007f07ffffffffffffffffffffffffffffffffffffffffffffffffffffffffffffff8311156132a957600080fd5b8260051b80836020870137939093016020019392505050565b6080815260006132d5608083018a6131db565b602083820381850152818983528183019050818a60051b8401018b60005b8c81101561336357858303601f190184528135368f9003601e1901811261331957600080fd5b8e01858101903567ffffffffffffffff81111561333557600080fd5b80360382131561334457600080fd5b61334f858284613207565b9587019594505050908401906001016132f3565b50508581036040870152613378818a8c613230565b93505050508281036060840152613390818587613277565b9a9950505050505050505050565b80820180821115612b9c57612b9c61316e565b6000826133ce57634e487b7160e01b600052601260045260246000fd5b500490565b8082028115828204841417612b9c57612b9c61316e565b6000602082840312156133fc57600080fd5b81518015158114612cee57600080fd5b634e487b7160e01b600052602160045260246000fd5b634e487b7160e01b600052604160045260246000fd5b81810381811115612b9c57612b9c61316e565b6000825161345d8184602087016131b7565b9190910192915050565b602081526000612cee60208301846131db56fea2646970667358221220f56ff88c90b2d7e29607379639b54430d34c76d1beaeed1a6e56b271bb9d6b4264736f6c63430008110033",
  "devdoc": {
    "details": "Work together with PeggedTokenBridge contracts deployed at remote chains",
    "kind": "dev",
    "methods": {
      "deposit(address,uint256,uint64,address,uint64)": {
        "params": {
          "_amount": "The amount to deposit.",
          "_mintAccount": "The destination account to receive the minted pegged tokens.",
          "_mintChainId": "The destination chain ID to mint tokens.",
          "_nonce": "A number input to guarantee unique depositId. Can be timestamp in practice.",
          "_token": "The original token address."
        }
      },
      "depositNative(uint256,uint64,address,uint64)": {
        "params": {
          "_amount": "The amount to deposit.",
          "_mintAccount": "The destination account to receive the minted pegged tokens.",
          "_mintChainId": "The destination chain ID to mint tokens.",
          "_nonce": "A number input to guarantee unique depositId. Can be timestamp in practice."
        }
      },
      "owner()": {
        "details": "Returns the address of the current owner."
      },
      "paused()": {
        "details": "Returns true if the contract is paused, and false otherwise."
      },
      "transferOwnership(address)": {
        "details": "Transfers ownership of the contract to a new account (`newOwner`). Can only be called by the current owner."
      },
      "withdraw(bytes,bytes[],address[],uint256[])": {
        "params": {
          "_powers": "The signing powers of the signers.",
          "_request": "The serialized Withdraw protobuf.",
          "_signers": "The sorted list of signers.",
          "_sigs": "The list of signatures sorted by signing addresses in ascending order. A relay must be signed-off by +2/3 of the bridge's current signing power to be delivered."
        }
      }
    },
    "title": "the vault to deposit and withdraw original tokens",
    "version": 1
  },
  "userdoc": {
    "kind": "user",
    "methods": {
      "deposit(address,uint256,uint64,address,uint64)": {
        "notice": "Lock original tokens to trigger cross-chain mint of pegged tokens at a remote chain's PeggedTokenBridge. NOTE: This function DOES NOT SUPPORT fee-on-transfer / rebasing tokens."
      },
      "depositNative(uint256,uint64,address,uint64)": {
        "notice": "Lock native token as original token to trigger cross-chain mint of pegged tokens at a remote chain's PeggedTokenBridge."
      },
      "withdraw(bytes,bytes[],address[],uint256[])": {
        "notice": "Withdraw locked original tokens triggered by a burn at a remote chain's PeggedTokenBridge."
      }
    },
    "version": 1
  },
  "storageLayout": {
    "storage": [
      {
        "astId": 739,
        "contract": "contracts/pegged-bridge/OriginalTokenVaultV2.sol:OriginalTokenVaultV2",
        "label": "_status",
        "offset": 0,
        "slot": "0",
        "type": "t_uint256"
      },
      {
        "astId": 33222,
        "contract": "contracts/pegged-bridge/OriginalTokenVaultV2.sol:OriginalTokenVaultV2",
        "label": "_owner",
        "offset": 0,
        "slot": "1",
        "type": "t_address"
      },
      {
        "astId": 654,
        "contract": "contracts/pegged-bridge/OriginalTokenVaultV2.sol:OriginalTokenVaultV2",
        "label": "_paused",
        "offset": 20,
        "slot": "1",
        "type": "t_bool"
      },
      {
        "astId": 33336,
        "contract": "contracts/pegged-bridge/OriginalTokenVaultV2.sol:OriginalTokenVaultV2",
        "label": "pausers",
        "offset": 0,
        "slot": "2",
        "type": "t_mapping(t_address,t_bool)"
      },
      {
        "astId": 33095,
        "contract": "contracts/pegged-bridge/OriginalTokenVaultV2.sol:OriginalTokenVaultV2",
        "label": "governors",
        "offset": 0,
        "slot": "3",
        "type": "t_mapping(t_address,t_bool)"
      },
      {
        "astId": 33483,
        "contract": "contracts/pegged-bridge/OriginalTokenVaultV2.sol:OriginalTokenVaultV2",
        "label": "epochLength",
        "offset": 0,
        "slot": "4",
        "type": "t_uint256"
      },
      {
        "astId": 33487,
        "contract": "contracts/pegged-bridge/OriginalTokenVaultV2.sol:OriginalTokenVaultV2",
        "label": "epochVolumes",
        "offset": 0,
        "slot": "5",
        "type": "t_mapping(t_address,t_uint256)"
      },
      {
        "astId": 33491,
        "contract": "contracts/pegged-bridge/OriginalTokenVaultV2.sol:OriginalTokenVaultV2",
        "label": "epochVolumeCaps",
        "offset": 0,
        "slot": "6",
        "type": "t_mapping(t_address,t_uint256)"
      },
      {
        "astId": 33495,
        "contract": "contracts/pegged-bridge/OriginalTokenVaultV2.sol:OriginalTokenVaultV2",
        "label": "lastOpTimestamps",
        "offset": 0,
        "slot": "7",
        "type": "t_mapping(t_address,t_uint256)"
      },
      {
        "astId": 32896,
        "contract": "contracts/pegged-bridge/OriginalTokenVaultV2.sol:OriginalTokenVaultV2",
        "label": "delayedTransfers",
        "offset": 0,
        "slot": "8",
        "type": "t_mapping(t_bytes32,t_struct(delayedTransfer)32891_storage)"
      },
      {
        "astId": 32900,
        "contract": "contracts/pegged-bridge/OriginalTokenVaultV2.sol:OriginalTokenVaultV2",
        "label": "delayThresholds",
        "offset": 0,
        "slot": "9",
        "type": "t_mapping(t_address,t_uint256)"
      },
      {
        "astId": 32902,
        "contract": "contracts/pegged-bridge/OriginalTokenVaultV2.sol:OriginalTokenVaultV2",
        "label": "delayPeriod",
        "offset": 0,
        "slot": "10",
        "type": "t_uint256"
      },
      {
        "astId": 27167,
        "contract": "contracts/pegged-bridge/OriginalTokenVaultV2.sol:OriginalTokenVaultV2",
        "label": "records",
        "offset": 0,
        "slot": "11",
        "type": "t_mapping(t_bytes32,t_bool)"
      },
      {
        "astId": 27171,
        "contract": "contracts/pegged-bridge/OriginalTokenVaultV2.sol:OriginalTokenVaultV2",
        "label": "minDeposit",
        "offset": 0,
        "slot": "12",
        "type": "t_mapping(t_address,t_uint256)"
      },
      {
        "astId": 27175,
        "contract": "contracts/pegged-bridge/OriginalTokenVaultV2.sol:OriginalTokenVaultV2",
        "label": "maxDeposit",
        "offset": 0,
        "slot": "13",
        "type": "t_mapping(t_address,t_uint256)"
      },
      {
        "astId": 27177,
        "contract": "contracts/pegged-bridge/OriginalTokenVaultV2.sol:OriginalTokenVaultV2",
        "label": "nativeWrap",
        "offset": 0,
        "slot": "14",
        "type": "t_address"
      }
    ],
    "types": {
      "t_address": {
        "encoding": "inplace",
        "label": "address",
        "numberOfBytes": "20"
      },
      "t_bool": {
        "encoding": "inplace",
        "label": "bool",
        "numberOfBytes": "1"
      },
      "t_bytes32": {
        "encoding": "inplace",
        "label": "bytes32",
        "numberOfBytes": "32"
      },
      "t_mapping(t_address,t_bool)": {
        "encoding": "mapping",
        "key": "t_address",
        "label": "mapping(address => bool)",
        "numberOfBytes": "32",
        "value": "t_bool"
      },
      "t_mapping(t_address,t_uint256)": {
        "encoding": "mapping",
        "key": "t_address",
        "label": "mapping(address => uint256)",
        "numberOfBytes": "32",
        "value": "t_uint256"
      },
      "t_mapping(t_bytes32,t_bool)": {
        "encoding": "mapping",
        "key": "t_bytes32",
        "label": "mapping(bytes32 => bool)",
        "numberOfBytes": "32",
        "value": "t_bool"
      },
      "t_mapping(t_bytes32,t_struct(delayedTransfer)32891_storage)": {
        "encoding": "mapping",
        "key": "t_bytes32",
        "label": "mapping(bytes32 => struct DelayedTransfer.delayedTransfer)",
        "numberOfBytes": "32",
        "value": "t_struct(delayedTransfer)32891_storage"
      },
      "t_struct(delayedTransfer)32891_storage": {
        "encoding": "inplace",
        "label": "struct DelayedTransfer.delayedTransfer",
        "members": [
          {
            "astId": 32884,
            "contract": "contracts/pegged-bridge/OriginalTokenVaultV2.sol:OriginalTokenVaultV2",
            "label": "receiver",
            "offset": 0,
            "slot": "0",
            "type": "t_address"
          },
          {
            "astId": 32886,
            "contract": "contracts/pegged-bridge/OriginalTokenVaultV2.sol:OriginalTokenVaultV2",
            "label": "token",
            "offset": 0,
            "slot": "1",
            "type": "t_address"
          },
          {
            "astId": 32888,
            "contract": "contracts/pegged-bridge/OriginalTokenVaultV2.sol:OriginalTokenVaultV2",
            "label": "amount",
            "offset": 0,
            "slot": "2",
            "type": "t_uint256"
          },
          {
            "astId": 32890,
            "contract": "contracts/pegged-bridge/OriginalTokenVaultV2.sol:OriginalTokenVaultV2",
            "label": "timestamp",
            "offset": 0,
            "slot": "3",
            "type": "t_uint256"
          }
        ],
        "numberOfBytes": "128"
      },
      "t_uint256": {
        "encoding": "inplace",
        "label": "uint256",
        "numberOfBytes": "32"
      }
    }
  }
}