{
  "address": "0xBB7684Cc5408F4DD0921E5c2Cadd547b8f1AD573",
  "abi": [
    {
      "inputs": [
        {
          "internalType": "contract ISigsVerifier",
          "name": "_sigsVerifier",
          "type": "address"
        }
      ],
      "stateMutability": "nonpayable",
      "type": "constructor"
    },
    {
      "anonymous": false,
      "inputs": [
        {
          "indexed": false,
          "internalType": "bytes32",
          "name": "burnId",
          "type": "bytes32"
        },
        {
          "indexed": false,
          "internalType": "address",
          "name": "token",
          "type": "address"
        },
        {
          "indexed": false,
          "internalType": "address",
          "name": "account",
          "type": "address"
        },
        {
          "indexed": false,
          "internalType": "uint256",
          "name": "amount",
          "type": "uint256"
        },
        {
          "indexed": false,
          "internalType": "uint64",
          "name": "toChainId",
          "type": "uint64"
        },
        {
          "indexed": false,
          "internalType": "address",
          "name": "toAccount",
          "type": "address"
        },
        {
          "indexed": false,
          "internalType": "uint64",
          "name": "nonce",
          "type": "uint64"
        }
      ],
      "name": "Burn",
      "type": "event"
    },
    {
      "anonymous": false,
      "inputs": [
        {
          "indexed": false,
          "internalType": "uint256",
          "name": "period",
          "type": "uint256"
        }
      ],
      "name": "DelayPeriodUpdated",
      "type": "event"
    },
    {
      "anonymous": false,
      "inputs": [
        {
          "indexed": false,
          "internalType": "address",
          "name": "token",
          "type": "address"
        },
        {
          "indexed": false,
          "internalType": "uint256",
          "name": "threshold",
          "type": "uint256"
        }
      ],
      "name": "DelayThresholdUpdated",
      "type": "event"
    },
    {
      "anonymous": false,
      "inputs": [
        {
          "indexed": false,
          "internalType": "bytes32",
          "name": "id",
          "type": "bytes32"
        }
      ],
      "name": "DelayedTransferAdded",
      "type": "event"
    },
    {
      "anonymous": false,
      "inputs": [
        {
          "indexed": false,
          "internalType": "bytes32",
          "name": "id",
          "type": "bytes32"
        },
        {
          "indexed": false,
          "internalType": "address",
          "name": "receiver",
          "type": "address"
        },
        {
          "indexed": false,
          "internalType": "address",
          "name": "token",
          "type": "address"
        },
        {
          "indexed": false,
          "internalType": "uint256",
          "name": "amount",
          "type": "uint256"
        }
      ],
      "name": "DelayedTransferExecuted",
      "type": "event"
    },
    {
      "anonymous": false,
      "inputs": [
        {
          "indexed": false,
          "internalType": "uint256",
          "name": "length",
          "type": "uint256"
        }
      ],
      "name": "EpochLengthUpdated",
      "type": "event"
    },
    {
      "anonymous": false,
      "inputs": [
        {
          "indexed": false,
          "internalType": "address",
          "name": "token",
          "type": "address"
        },
        {
          "indexed": false,
          "internalType": "uint256",
          "name": "cap",
          "type": "uint256"
        }
      ],
      "name": "EpochVolumeUpdated",
      "type": "event"
    },
    {
      "anonymous": false,
      "inputs": [
        {
          "indexed": false,
          "internalType": "address",
          "name": "account",
          "type": "address"
        }
      ],
      "name": "GovernorAdded",
      "type": "event"
    },
    {
      "anonymous": false,
      "inputs": [
        {
          "indexed": false,
          "internalType": "address",
          "name": "account",
          "type": "address"
        }
      ],
      "name": "GovernorRemoved",
      "type": "event"
    },
    {
      "anonymous": false,
      "inputs": [
        {
          "indexed": false,
          "internalType": "address",
          "name": "token",
          "type": "address"
        },
        {
          "indexed": false,
          "internalType": "uint256",
          "name": "amount",
          "type": "uint256"
        }
      ],
      "name": "MaxBurnUpdated",
      "type": "event"
    },
    {
      "anonymous": false,
      "inputs": [
        {
          "indexed": false,
          "internalType": "address",
          "name": "token",
          "type": "address"
        },
        {
          "indexed": false,
          "internalType": "uint256",
          "name": "amount",
          "type": "uint256"
        }
      ],
      "name": "MinBurnUpdated",
      "type": "event"
    },
    {
      "anonymous": false,
      "inputs": [
        {
          "indexed": false,
          "internalType": "bytes32",
          "name": "mintId",
          "type": "bytes32"
        },
        {
          "indexed": false,
          "internalType": "address",
          "name": "token",
          "type": "address"
        },
        {
          "indexed": false,
          "internalType": "address",
          "name": "account",
          "type": "address"
        },
        {
          "indexed": false,
          "internalType": "uint256",
          "name": "amount",
          "type": "uint256"
        },
        {
          "indexed": false,
          "internalType": "uint64",
          "name": "refChainId",
          "type": "uint64"
        },
        {
          "indexed": false,
          "internalType": "bytes32",
          "name": "refId",
          "type": "bytes32"
        },
        {
          "indexed": false,
          "internalType": "address",
          "name": "depositor",
          "type": "address"
        }
      ],
      "name": "Mint",
      "type": "event"
    },
    {
      "anonymous": false,
      "inputs": [
        {
          "indexed": true,
          "internalType": "address",
          "name": "previousOwner",
          "type": "address"
        },
        {
          "indexed": true,
          "internalType": "address",
          "name": "newOwner",
          "type": "address"
        }
      ],
      "name": "OwnershipTransferred",
      "type": "event"
    },
    {
      "anonymous": false,
      "inputs": [
        {
          "indexed": false,
          "internalType": "address",
          "name": "account",
          "type": "address"
        }
      ],
      "name": "Paused",
      "type": "event"
    },
    {
      "anonymous": false,
      "inputs": [
        {
          "indexed": false,
          "internalType": "address",
          "name": "account",
          "type": "address"
        }
      ],
      "name": "PauserAdded",
      "type": "event"
    },
    {
      "anonymous": false,
      "inputs": [
        {
          "indexed": false,
          "internalType": "address",
          "name": "account",
          "type": "address"
        }
      ],
      "name": "PauserRemoved",
      "type": "event"
    },
    {
      "anonymous": false,
      "inputs": [
        {
          "indexed": false,
          "internalType": "address",
          "name": "token",
          "type": "address"
        },
        {
          "indexed": false,
          "internalType": "uint256",
          "name": "supply",
          "type": "uint256"
        }
      ],
      "name": "SupplyUpdated",
      "type": "event"
    },
    {
      "anonymous": false,
      "inputs": [
        {
          "indexed": false,
          "internalType": "address",
          "name": "account",
          "type": "address"
        }
      ],
      "name": "Unpaused",
      "type": "event"
    },
    {
      "inputs": [
        {
          "internalType": "address",
          "name": "_account",
          "type": "address"
        }
      ],
      "name": "addGovernor",
      "outputs": [],
      "stateMutability": "nonpayable",
      "type": "function"
    },
    {
      "inputs": [
        {
          "internalType": "address",
          "name": "account",
          "type": "address"
        }
      ],
      "name": "addPauser",
      "outputs": [],
      "stateMutability": "nonpayable",
      "type": "function"
    },
    {
      "inputs": [
        {
          "internalType": "address",
          "name": "_token",
          "type": "address"
        },
        {
          "internalType": "uint256",
          "name": "_amount",
          "type": "uint256"
        },
        {
          "internalType": "uint64",
          "name": "_toChainId",
          "type": "uint64"
        },
        {
          "internalType": "address",
          "name": "_toAccount",
          "type": "address"
        },
        {
          "internalType": "uint64",
          "name": "_nonce",
          "type": "uint64"
        }
      ],
      "name": "burn",
      "outputs": [
        {
          "internalType": "bytes32",
          "name": "",
          "type": "bytes32"
        }
      ],
      "stateMutability": "nonpayable",
      "type": "function"
    },
    {
      "inputs": [
        {
          "internalType": "address",
          "name": "_token",
          "type": "address"
        },
        {
          "internalType": "uint256",
          "name": "_amount",
          "type": "uint256"
        },
        {
          "internalType": "uint64",
          "name": "_toChainId",
          "type": "uint64"
        },
        {
          "internalType": "address",
          "name": "_toAccount",
          "type": "address"
        },
        {
          "internalType": "uint64",
          "name": "_nonce",
          "type": "uint64"
        }
      ],
      "name": "burnFrom",
      "outputs": [
        {
          "internalType": "bytes32",
          "name": "",
          "type": "bytes32"
        }
      ],
      "stateMutability": "nonpayable",
      "type": "function"
    },
    {
      "inputs": [
        {
          "internalType": "address",
          "name": "_token",
          "type": "address"
        },
        {
          "internalType": "uint256",
          "name": "_delta",
          "type": "uint256"
        }
      ],
      "name": "decreaseSupply",
      "outputs": [],
      "stateMutability": "nonpayable",
      "type": "function"
    },
    {
      "inputs": [],
      "name": "delayPeriod",
      "outputs": [
        {
          "internalType": "uint256",
          "name": "",
          "type": "uint256"
        }
      ],
      "stateMutability": "view",
      "type": "function"
    },
    {
      "inputs": [
        {
          "internalType": "address",
          "name": "",
          "type": "address"
        }
      ],
      "name": "delayThresholds",
      "outputs": [
        {
          "internalType": "uint256",
          "name": "",
          "type": "uint256"
        }
      ],
      "stateMutability": "view",
      "type": "function"
    },
    {
      "inputs": [
        {
          "internalType": "bytes32",
          "name": "",
          "type": "bytes32"
        }
      ],
      "name": "delayedTransfers",
      "outputs": [
        {
          "internalType": "address",
          "name": "receiver",
          "type": "address"
        },
        {
          "internalType": "address",
          "name": "token",
          "type": "address"
        },
        {
          "internalType": "uint256",
          "name": "amount",
          "type": "uint256"
        },
        {
          "internalType": "uint256",
          "name": "timestamp",
          "type": "uint256"
        }
      ],
      "stateMutability": "view",
      "type": "function"
    },
    {
      "inputs": [],
      "name": "epochLength",
      "outputs": [
        {
          "internalType": "uint256",
          "name": "",
          "type": "uint256"
        }
      ],
      "stateMutability": "view",
      "type": "function"
    },
    {
      "inputs": [
        {
          "internalType": "address",
          "name": "",
          "type": "address"
        }
      ],
      "name": "epochVolumeCaps",
      "outputs": [
        {
          "internalType": "uint256",
          "name": "",
          "type": "uint256"
        }
      ],
      "stateMutability": "view",
      "type": "function"
    },
    {
      "inputs": [
        {
          "internalType": "address",
          "name": "",
          "type": "address"
        }
      ],
      "name": "epochVolumes",
      "outputs": [
        {
          "internalType": "uint256",
          "name": "",
          "type": "uint256"
        }
      ],
      "stateMutability": "view",
      "type": "function"
    },
    {
      "inputs": [
        {
          "internalType": "bytes32",
          "name": "id",
          "type": "bytes32"
        }
      ],
      "name": "executeDelayedTransfer",
      "outputs": [],
      "stateMutability": "nonpayable",
      "type": "function"
    },
    {
      "inputs": [
        {
          "internalType": "address",
          "name": "",
          "type": "address"
        }
      ],
      "name": "governors",
      "outputs": [
        {
          "internalType": "bool",
          "name": "",
          "type": "bool"
        }
      ],
      "stateMutability": "view",
      "type": "function"
    },
    {
      "inputs": [
        {
          "internalType": "address",
          "name": "_token",
          "type": "address"
        },
        {
          "internalType": "uint256",
          "name": "_delta",
          "type": "uint256"
        }
      ],
      "name": "increaseSupply",
      "outputs": [],
      "stateMutability": "nonpayable",
      "type": "function"
    },
    {
      "inputs": [
        {
          "internalType": "address",
          "name": "_account",
          "type": "address"
        }
      ],
      "name": "isGovernor",
      "outputs": [
        {
          "internalType": "bool",
          "name": "",
          "type": "bool"
        }
      ],
      "stateMutability": "view",
      "type": "function"
    },
    {
      "inputs": [
        {
          "internalType": "address",
          "name": "account",
          "type": "address"
        }
      ],
      "name": "isPauser",
      "outputs": [
        {
          "internalType": "bool",
          "name": "",
          "type": "bool"
        }
      ],
      "stateMutability": "view",
      "type": "function"
    },
    {
      "inputs": [
        {
          "internalType": "address",
          "name": "",
          "type": "address"
        }
      ],
      "name": "lastOpTimestamps",
      "outputs": [
        {
          "internalType": "uint256",
          "name": "",
          "type": "uint256"
        }
      ],
      "stateMutability": "view",
      "type": "function"
    },
    {
      "inputs": [
        {
          "internalType": "address",
          "name": "",
          "type": "address"
        }
      ],
      "name": "maxBurn",
      "outputs": [
        {
          "internalType": "uint256",
          "name": "",
          "type": "uint256"
        }
      ],
      "stateMutability": "view",
      "type": "function"
    },
    {
      "inputs": [
        {
          "internalType": "address",
          "name": "",
          "type": "address"
        }
      ],
      "name": "minBurn",
      "outputs": [
        {
          "internalType": "uint256",
          "name": "",
          "type": "uint256"
        }
      ],
      "stateMutability": "view",
      "type": "function"
    },
    {
      "inputs": [
        {
          "internalType": "bytes",
          "name": "_request",
          "type": "bytes"
        },
        {
          "internalType": "bytes[]",
          "name": "_sigs",
          "type": "bytes[]"
        },
        {
          "internalType": "address[]",
          "name": "_signers",
          "type": "address[]"
        },
        {
          "internalType": "uint256[]",
          "name": "_powers",
          "type": "uint256[]"
        }
      ],
      "name": "mint",
      "outputs": [
        {
          "internalType": "bytes32",
          "name": "",
          "type": "bytes32"
        }
      ],
      "stateMutability": "nonpayable",
      "type": "function"
    },
    {
      "inputs": [],
      "name": "owner",
      "outputs": [
        {
          "internalType": "address",
          "name": "",
          "type": "address"
        }
      ],
      "stateMutability": "view",
      "type": "function"
    },
    {
      "inputs": [],
      "name": "pause",
      "outputs": [],
      "stateMutability": "nonpayable",
      "type": "function"
    },
    {
      "inputs": [],
      "name": "paused",
      "outputs": [
        {
          "internalType": "bool",
          "name": "",
          "type": "bool"
        }
      ],
      "stateMutability": "view",
      "type": "function"
    },
    {
      "inputs": [
        {
          "internalType": "address",
          "name": "",
          "type": "address"
        }
      ],
      "name": "pausers",
      "outputs": [
        {
          "internalType": "bool",
          "name": "",
          "type": "bool"
        }
      ],
      "stateMutability": "view",
      "type": "function"
    },
    {
      "inputs": [
        {
          "internalType": "bytes32",
          "name": "",
          "type": "bytes32"
        }
      ],
      "name": "records",
      "outputs": [
        {
          "internalType": "bool",
          "name": "",
          "type": "bool"
        }
      ],
      "stateMutability": "view",
      "type": "function"
    },
    {
      "inputs": [
        {
          "internalType": "address",
          "name": "_account",
          "type": "address"
        }
      ],
      "name": "removeGovernor",
      "outputs": [],
      "stateMutability": "nonpayable",
      "type": "function"
    },
    {
      "inputs": [
        {
          "internalType": "address",
          "name": "account",
          "type": "address"
        }
      ],
      "name": "removePauser",
      "outputs": [],
      "stateMutability": "nonpayable",
      "type": "function"
    },
    {
      "inputs": [],
      "name": "renounceGovernor",
      "outputs": [],
      "stateMutability": "nonpayable",
      "type": "function"
    },
    {
      "inputs": [],
      "name": "renounceOwnership",
      "outputs": [],
      "stateMutability": "nonpayable",
      "type": "function"
    },
    {
      "inputs": [],
      "name": "renouncePauser",
      "outputs": [],
      "stateMutability": "nonpayable",
      "type": "function"
    },
    {
      "inputs": [
        {
          "internalType": "uint256",
          "name": "_period",
          "type": "uint256"
        }
      ],
      "name": "setDelayPeriod",
      "outputs": [],
      "stateMutability": "nonpayable",
      "type": "function"
    },
    {
      "inputs": [
        {
          "internalType": "address[]",
          "name": "_tokens",
          "type": "address[]"
        },
        {
          "internalType": "uint256[]",
          "name": "_thresholds",
          "type": "uint256[]"
        }
      ],
      "name": "setDelayThresholds",
      "outputs": [],
      "stateMutability": "nonpayable",
      "type": "function"
    },
    {
      "inputs": [
        {
          "internalType": "uint256",
          "name": "_length",
          "type": "uint256"
        }
      ],
      "name": "setEpochLength",
      "outputs": [],
      "stateMutability": "nonpayable",
      "type": "function"
    },
    {
      "inputs": [
        {
          "internalType": "address[]",
          "name": "_tokens",
          "type": "address[]"
        },
        {
          "internalType": "uint256[]",
          "name": "_caps",
          "type": "uint256[]"
        }
      ],
      "name": "setEpochVolumeCaps",
      "outputs": [],
      "stateMutability": "nonpayable",
      "type": "function"
    },
    {
      "inputs": [
        {
          "internalType": "address[]",
          "name": "_tokens",
          "type": "address[]"
        },
        {
          "internalType": "uint256[]",
          "name": "_amounts",
          "type": "uint256[]"
        }
      ],
      "name": "setMaxBurn",
      "outputs": [],
      "stateMutability": "nonpayable",
      "type": "function"
    },
    {
      "inputs": [
        {
          "internalType": "address[]",
          "name": "_tokens",
          "type": "address[]"
        },
        {
          "internalType": "uint256[]",
          "name": "_amounts",
          "type": "uint256[]"
        }
      ],
      "name": "setMinBurn",
      "outputs": [],
      "stateMutability": "nonpayable",
      "type": "function"
    },
    {
      "inputs": [
        {
          "internalType": "address",
          "name": "_token",
          "type": "address"
        },
        {
          "internalType": "uint256",
          "name": "_supply",
          "type": "uint256"
        }
      ],
      "name": "setSupply",
      "outputs": [],
      "stateMutability": "nonpayable",
      "type": "function"
    },
    {
      "inputs": [],
      "name": "sigsVerifier",
      "outputs": [
        {
          "internalType": "contract ISigsVerifier",
          "name": "",
          "type": "address"
        }
      ],
      "stateMutability": "view",
      "type": "function"
    },
    {
      "inputs": [
        {
          "internalType": "address",
          "name": "",
          "type": "address"
        }
      ],
      "name": "supplies",
      "outputs": [
        {
          "internalType": "uint256",
          "name": "",
          "type": "uint256"
        }
      ],
      "stateMutability": "view",
      "type": "function"
    },
    {
      "inputs": [
        {
          "internalType": "address",
          "name": "newOwner",
          "type": "address"
        }
      ],
      "name": "transferOwnership",
      "outputs": [],
      "stateMutability": "nonpayable",
      "type": "function"
    },
    {
      "inputs": [],
      "name": "unpause",
      "outputs": [],
      "stateMutability": "nonpayable",
      "type": "function"
    }
  ],
  "transactionHash": "0x6d4b93b5bfb601dd7160dc581255225101cd5794189fd8a2182a1a1978e2556a",
  "args": [
    "0x841ce48F9446C8E281D3F1444cB859b4A6D0738C"
  ],
  "numDeployments": 1,
  "solcInputHash": "8a00a1f7b7c284e9f88aa002413eb56b",
  "bytecode": "0x60a06040523480156200001157600080fd5b506040516200318f3803806200318f83398101604081905262000034916200024f565b6200003f3362000074565b6000805460ff60a01b191690556200005733620000c4565b62000062336200018f565b6001600160a01b031660805262000281565b600080546001600160a01b038381166001600160a01b0319831681178455604051919092169283917f8be0079c531659141344cd1fd0a4f28419497f9722a3daafe3b4186f6b6457e09190a35050565b6001600160a01b03811660009081526001602052604090205460ff1615620001335760405162461bcd60e51b815260206004820152601960248201527f4163636f756e7420697320616c7265616479207061757365720000000000000060448201526064015b60405180910390fd5b6001600160a01b038116600081815260016020818152604092839020805460ff191690921790915590519182527f6719d08c1888103bea251a4ed56406bd0c3e69723c8a1686e017e7bbe159b6f891015b60405180910390a150565b6001600160a01b03811660009081526002602052604090205460ff1615620001fa5760405162461bcd60e51b815260206004820152601b60248201527f4163636f756e7420697320616c726561647920676f7665726e6f72000000000060448201526064016200012a565b6001600160a01b038116600081815260026020908152604091829020805460ff1916600117905590519182527fdc5a48d79e2e147530ff63ecdbed5a5a66adb9d5cf339384d5d076da197c40b5910162000184565b6000602082840312156200026257600080fd5b81516001600160a01b03811681146200027a57600080fd5b9392505050565b608051612eeb620002a46000396000818161061401526114d80152612eeb6000f3fe608060405234801561001057600080fd5b50600436106102d35760003560e01c806380f51c1211610186578063b5f2bc47116100e3578063e43581b811610097578063f832138311610071578063f8321383146106b3578063f8734302146106d3578063f9a8ea08146106e657600080fd5b8063e43581b814610661578063eecdac881461068d578063f2fde38b146106a057600080fd5b8063ccf2683b116100c8578063ccf2683b1461060f578063e026049c14610636578063e3eece261461063e57600080fd5b8063b5f2bc47146105dc578063bf4816f0146105fc57600080fd5b80639e422c331161013a578063adc0d57f1161011f578063adc0d57f14610553578063b1c94d94146105c0578063b4d8cedc146105c957600080fd5b80639e422c331461052d578063a00293011461054057600080fd5b80638456cb591161016b5780638456cb59146104ed5780638da5cb5b146104f55780639e25fc5c1461051a57600080fd5b806380f51c12146104b757806382dc1ec4146104da57600080fd5b806352532faa116102345780636b2c0f55116101e8578063715018a6116101cd578063715018a61461047c57806379fcd8ee146104845780637f8560131461049757600080fd5b80636b2c0f55146104615780636ef8d66d1461047457600080fd5b806357d775f81161021957806357d775f8146104265780635c975abb1461042f57806360216b001461044157600080fd5b806352532faa146103f357806354eea7961461041357600080fd5b80633d5721071161028b57806346fbf68e1161027057806346fbf68e1461039457806347b16c6c146103c0578063497bf3b2146103d357600080fd5b80633d572107146103795780633f4ba83a1461038c57600080fd5b806317bdbae5116102bc57806317bdbae514610325578063274cee31146103385780633c4a25d01461036657600080fd5b806301e64725146102d857806315d0975c14610310575b600080fd5b6102fb6102e6366004612911565b600a6020526000908152604090205460ff1681565b60405190151581526020015b60405180910390f35b61032361031e366004612946565b6106f9565b005b6103236103333660046129bc565b6107c9565b610358610346366004612a28565b600b6020526000908152604090205481565b604051908152602001610307565b610323610374366004612a28565b610967565b610323610387366004612911565b6109bb565b610323610a4f565b6102fb6103a2366004612a28565b6001600160a01b031660009081526001602052604090205460ff1690565b6103236103ce3660046129bc565b610ab8565b6103586103e1366004612a28565b600d6020526000908152604090205481565b610358610401366004612a28565b60086020526000908152604090205481565b610323610421366004612911565b610c4f565b61035860035481565b600054600160a01b900460ff166102fb565b61035861044f366004612a28565b60046020526000908152604090205481565b61032361046f366004612a28565b610cdc565b610323610d2d565b610323610d36565b610323610492366004612946565b610d88565b6103586104a5366004612a28565b600c6020526000908152604090205481565b6102fb6104c5366004612a28565b60016020526000908152604090205460ff1681565b6103236104e8366004612a28565b610df8565b610323610e49565b6000546001600160a01b03165b6040516001600160a01b039091168152602001610307565b610323610528366004612911565b610eb0565b61035861053b366004612a62565b610f7d565b61035861054e366004612a62565b611049565b610595610561366004612911565b60076020526000908152604090208054600182015460028301546003909301546001600160a01b0392831693919092169184565b604080516001600160a01b039586168152949093166020850152918301526060820152608001610307565b61035860095481565b6103236105d7366004612946565b6110dc565b6103586105ea366004612a28565b60056020526000908152604090205481565b61032361060a3660046129bc565b611175565b6105027f000000000000000000000000000000000000000000000000000000000000000081565b61032361130c565b6102fb61064c366004612a28565b60026020526000908152604090205460ff1681565b6102fb61066f366004612a28565b6001600160a01b031660009081526002602052604090205460ff1690565b61032361069b366004612a28565b611315565b6103236106ae366004612a28565b611366565b6103586106c1366004612a28565b60066020526000908152604090205481565b6103586106e1366004612ac0565b611433565b6103236106f43660046129bc565b61187e565b6000546001600160a01b031633146107465760405162461bcd60e51b81526020600482018190526024820152600080516020612e9683398151915260448201526064015b60405180910390fd5b6001600160a01b0382166000908152600b60205260408120805483929061076e908490612bc5565b90915550506001600160a01b0382166000818152600b6020908152604091829020548251938452908301527feb2f7272b55acd6dea98f5742868e8d2221ad82acb36b2d0cdd00150290e949991015b60405180910390a15050565b3360009081526002602052604090205460ff166108215760405162461bcd60e51b815260206004820152601660248201527521b0b63632b91034b9903737ba1033b7bb32b93737b960511b604482015260640161073d565b8281146108625760405162461bcd60e51b815260206004820152600f60248201526e0d8cadccee8d040dad2e6dac2e8c6d608b1b604482015260640161073d565b60005b838110156109605782828281811061087f5761087f612bdc565b905060200201356008600087878581811061089c5761089c612bdc565b90506020020160208101906108b19190612a28565b6001600160a01b031681526020810191909152604001600020557fceaad6533bfb481492fb3e08ef19297f46611b8fa9de5ef4cf8dc23a56ad09ce8585838181106108fe576108fe612bdc565b90506020020160208101906109139190612a28565b84848481811061092557610925612bdc565b604080516001600160a01b0390951685526020918202939093013590840152500160405180910390a18061095881612bf2565b915050610865565b5050505050565b6000546001600160a01b031633146109af5760405162461bcd60e51b81526020600482018190526024820152600080516020612e96833981519152604482015260640161073d565b6109b881611a15565b50565b3360009081526002602052604090205460ff16610a135760405162461bcd60e51b815260206004820152601660248201527521b0b63632b91034b9903737ba1033b7bb32b93737b960511b604482015260640161073d565b60098190556040518181527fc0a39f234199b125fb93713c4d067bdcebbf691087f87b79c0feb92b156ba8b6906020015b60405180910390a150565b3360009081526001602052604090205460ff16610aae5760405162461bcd60e51b815260206004820152601460248201527f43616c6c6572206973206e6f7420706175736572000000000000000000000000604482015260640161073d565b610ab6611ad2565b565b3360009081526002602052604090205460ff16610b105760405162461bcd60e51b815260206004820152601660248201527521b0b63632b91034b9903737ba1033b7bb32b93737b960511b604482015260640161073d565b828114610b515760405162461bcd60e51b815260206004820152600f60248201526e0d8cadccee8d040dad2e6dac2e8c6d608b1b604482015260640161073d565b60005b8381101561096057828282818110610b6e57610b6e612bdc565b9050602002013560056000878785818110610b8b57610b8b612bdc565b9050602002016020810190610ba09190612a28565b6001600160a01b031681526020810191909152604001600020557f608e49c22994f20b5d3496dca088b88dfd81b4a3e8cc3809ea1e10a320107e89858583818110610bed57610bed612bdc565b9050602002016020810190610c029190612a28565b848484818110610c1457610c14612bdc565b604080516001600160a01b0390951685526020918202939093013590840152500160405180910390a180610c4781612bf2565b915050610b54565b3360009081526002602052604090205460ff16610ca75760405162461bcd60e51b815260206004820152601660248201527521b0b63632b91034b9903737ba1033b7bb32b93737b960511b604482015260640161073d565b60038190556040518181527f2664fec2ff76486ac58ed087310855b648b15b9d19f3de8529e95f7c46b7d6b390602001610a44565b6000546001600160a01b03163314610d245760405162461bcd60e51b81526020600482018190526024820152600080516020612e96833981519152604482015260640161073d565b6109b881611b78565b610ab633611b78565b6000546001600160a01b03163314610d7e5760405162461bcd60e51b81526020600482018190526024820152600080516020612e96833981519152604482015260640161073d565b610ab66000611c31565b6000546001600160a01b03163314610dd05760405162461bcd60e51b81526020600482018190526024820152600080516020612e96833981519152604482015260640161073d565b6001600160a01b0382166000908152600b60205260408120805483929061076e908490612c0d565b6000546001600160a01b03163314610e405760405162461bcd60e51b81526020600482018190526024820152600080516020612e96833981519152604482015260640161073d565b6109b881611c8e565b3360009081526001602052604090205460ff16610ea85760405162461bcd60e51b815260206004820152601460248201527f43616c6c6572206973206e6f7420706175736572000000000000000000000000604482015260640161073d565b610ab6611d4c565b600054600160a01b900460ff1615610efd5760405162461bcd60e51b815260206004820152601060248201526f14185d5cd8589b194e881c185d5cd95960821b604482015260640161073d565b6000610f0882611dd4565b6020810151815160408084015190516340c10f1960e01b81526001600160a01b039283166004820152602481019190915292935016906340c10f1990604401600060405180830381600087803b158015610f6157600080fd5b505af1158015610f75573d6000803e3d6000fd5b505050505050565b60008054600160a01b900460ff1615610fcb5760405162461bcd60e51b815260206004820152601060248201526f14185d5cd8589b194e881c185d5cd95960821b604482015260640161073d565b6000610fda8787878787611fa6565b60405163079cc67960e41b8152336004820152602481018890529091506001600160a01b038816906379cc6790906044015b600060405180830381600087803b15801561102657600080fd5b505af115801561103a573d6000803e3d6000fd5b50929998505050505050505050565b60008054600160a01b900460ff16156110975760405162461bcd60e51b815260206004820152601060248201526f14185d5cd8589b194e881c185d5cd95960821b604482015260640161073d565b60006110a68787878787611fa6565b604051632770a7eb60e21b8152336004820152602481018890529091506001600160a01b03881690639dc29fac9060440161100c565b6000546001600160a01b031633146111245760405162461bcd60e51b81526020600482018190526024820152600080516020612e96833981519152604482015260640161073d565b6001600160a01b0382166000818152600b6020908152604091829020849055815192835282018390527feb2f7272b55acd6dea98f5742868e8d2221ad82acb36b2d0cdd00150290e949991016107bd565b3360009081526002602052604090205460ff166111cd5760405162461bcd60e51b815260206004820152601660248201527521b0b63632b91034b9903737ba1033b7bb32b93737b960511b604482015260640161073d565b82811461120e5760405162461bcd60e51b815260206004820152600f60248201526e0d8cadccee8d040dad2e6dac2e8c6d608b1b604482015260640161073d565b60005b838110156109605782828281811061122b5761122b612bdc565b90506020020135600c600087878581811061124857611248612bdc565b905060200201602081019061125d9190612a28565b6001600160a01b031681526020810191909152604001600020557f3796cd0b17a8734f8da819920625598e9a18be490f686725282e5383f1d066838585838181106112aa576112aa612bdc565b90506020020160208101906112bf9190612a28565b8484848181106112d1576112d1612bdc565b604080516001600160a01b0390951685526020918202939093013590840152500160405180910390a18061130481612bf2565b915050611211565b610ab633612246565b6000546001600160a01b0316331461135d5760405162461bcd60e51b81526020600482018190526024820152600080516020612e96833981519152604482015260640161073d565b6109b881612246565b6000546001600160a01b031633146113ae5760405162461bcd60e51b81526020600482018190526024820152600080516020612e96833981519152604482015260640161073d565b6001600160a01b03811661142a5760405162461bcd60e51b815260206004820152602660248201527f4f776e61626c653a206e6577206f776e657220697320746865207a65726f206160448201527f6464726573730000000000000000000000000000000000000000000000000000606482015260840161073d565b6109b881611c31565b60008054600160a01b900460ff16156114815760405162461bcd60e51b815260206004820152601060248201526f14185d5cd8589b194e881c185d5cd95960821b604482015260640161073d565b600046306040516020016114be92919091825260601b6bffffffffffffffffffffffff1916602082015263135a5b9d60e21b603482015260380190565b6040516020818303038152906040528051906020012090507f00000000000000000000000000000000000000000000000000000000000000006001600160a01b031663682dbc22828c8c60405160200161151a93929190612c25565b6040516020818303038152906040528a8a8a8a8a8a6040518863ffffffff1660e01b81526004016115519796959493929190612d8c565b60006040518083038186803b15801561156957600080fd5b505afa15801561157d573d6000803e3d6000fd5b5050505060006115c28b8b8080601f0160208091040260200160405190810160405280939291908181526020018383808284376000920191909152506122ff92505050565b6020818101518251604080850151606080870151608088015160a089015185516bffffffffffffffffffffffff1998851b8916818b015296841b88166034880152604887019490945290821b8616606886015277ffffffffffffffffffffffffffffffffffffffffffffffff1960c09190911b16607c850152608484019190915230901b90921660a48201528151808203609801815260b890910182528051908301206000818152600a9093529120549192509060ff16156116b65760405162461bcd60e51b815260206004820152600d60248201526c7265636f72642065786973747360981b604482015260640161073d565b6000818152600a602052604090819020805460ff191660011790558251908301516116e19190612461565b81516001600160a01b0316600090815260086020526040902054801580159061170d5750808360400151115b1561172f5761172a82846020015185600001518660400151612579565b61179f565b8251602084015160408086015190516340c10f1960e01b81526001600160a01b03928316600482015260248101919091529116906340c10f1990604401600060405180830381600087803b15801561178657600080fd5b505af115801561179a573d6000803e3d6000fd5b505050505b60408084015184516001600160a01b03166000908152600b6020529182208054919290916117ce908490612c0d565b925050819055507f5bc84ecccfced5bb04bfc7f3efcdbe7f5cd21949ef146811b4d1967fe41f777a8284600001518560200151866040015187608001518860a00151896060015160405161186697969594939291909687526001600160a01b0395861660208801529385166040870152606086019290925267ffffffffffffffff16608085015260a08401521660c082015260e00190565b60405180910390a1509b9a5050505050505050505050565b3360009081526002602052604090205460ff166118d65760405162461bcd60e51b815260206004820152601660248201527521b0b63632b91034b9903737ba1033b7bb32b93737b960511b604482015260640161073d565b8281146119175760405162461bcd60e51b815260206004820152600f60248201526e0d8cadccee8d040dad2e6dac2e8c6d608b1b604482015260640161073d565b60005b838110156109605782828281811061193457611934612bdc565b90506020020135600d600087878581811061195157611951612bdc565b90506020020160208101906119669190612a28565b6001600160a01b031681526020810191909152604001600020557fa3181379f6db47d9037efc6b6e8e3efe8c55ddb090b4f0512c152f97c4e47da58585838181106119b3576119b3612bdc565b90506020020160208101906119c89190612a28565b8484848181106119da576119da612bdc565b604080516001600160a01b0390951685526020918202939093013590840152500160405180910390a180611a0d81612bf2565b91505061191a565b6001600160a01b03811660009081526002602052604090205460ff1615611a7e5760405162461bcd60e51b815260206004820152601b60248201527f4163636f756e7420697320616c726561647920676f7665726e6f720000000000604482015260640161073d565b6001600160a01b038116600081815260026020908152604091829020805460ff1916600117905590519182527fdc5a48d79e2e147530ff63ecdbed5a5a66adb9d5cf339384d5d076da197c40b59101610a44565b600054600160a01b900460ff16611b2b5760405162461bcd60e51b815260206004820152601460248201527f5061757361626c653a206e6f7420706175736564000000000000000000000000604482015260640161073d565b6000805460ff60a01b191690557f5db9ee0a495bf2e6ff9c91a7834c1ba4fdd244a5e8aa4e537bd38aeae4b073aa335b6040516001600160a01b03909116815260200160405180910390a1565b6001600160a01b03811660009081526001602052604090205460ff16611be05760405162461bcd60e51b815260206004820152601560248201527f4163636f756e74206973206e6f74207061757365720000000000000000000000604482015260640161073d565b6001600160a01b038116600081815260016020908152604091829020805460ff1916905590519182527fcd265ebaf09df2871cc7bd4133404a235ba12eff2041bb89d9c714a2621c7c7e9101610a44565b600080546001600160a01b0383811673ffffffffffffffffffffffffffffffffffffffff19831681178455604051919092169283917f8be0079c531659141344cd1fd0a4f28419497f9722a3daafe3b4186f6b6457e09190a35050565b6001600160a01b03811660009081526001602052604090205460ff1615611cf75760405162461bcd60e51b815260206004820152601960248201527f4163636f756e7420697320616c72656164792070617573657200000000000000604482015260640161073d565b6001600160a01b038116600081815260016020818152604092839020805460ff191690921790915590519182527f6719d08c1888103bea251a4ed56406bd0c3e69723c8a1686e017e7bbe159b6f89101610a44565b600054600160a01b900460ff1615611d995760405162461bcd60e51b815260206004820152601060248201526f14185d5cd8589b194e881c185d5cd95960821b604482015260640161073d565b6000805460ff60a01b1916600160a01b1790557f62e78cea01bee320cd4e420270b5ea74000d11b0c9f74754ebdbfc544b05a258611b5b3390565b604080516080810182526000808252602082018190529181018290526060810191909152600082815260076020908152604091829020825160808101845281546001600160a01b0390811682526001830154169281019290925260028101549282019290925260039091015460608201819052611e935760405162461bcd60e51b815260206004820152601a60248201527f64656c61796564207472616e73666572206e6f74206578697374000000000000604482015260640161073d565b6009548160600151611ea59190612c0d565b4211611ef35760405162461bcd60e51b815260206004820152601d60248201527f64656c61796564207472616e73666572207374696c6c206c6f636b6564000000604482015260640161073d565b6000838152600760209081526040808320805473ffffffffffffffffffffffffffffffffffffffff199081168255600182018054909116905560028101849055600301929092558251908301518383015192517f3b40e5089937425d14cdd96947e5661868357e224af59bd8b24a4b8a330d442693611f9893889390929091909384526001600160a01b03928316602085015291166040830152606082015260800190565b60405180910390a192915050565b6001600160a01b0385166000908152600c6020526040812054851161200d5760405162461bcd60e51b815260206004820152601060248201527f616d6f756e7420746f6f20736d616c6c00000000000000000000000000000000604482015260640161073d565b6001600160a01b0386166000908152600d6020526040902054158061204a57506001600160a01b0386166000908152600d60205260409020548511155b6120965760405162461bcd60e51b815260206004820152601060248201527f616d6f756e7420746f6f206c6172676500000000000000000000000000000000604482015260640161073d565b6001600160a01b0386166000908152600b6020526040812080548792906120be908490612bc5565b90915550506040516bffffffffffffffffffffffff1933606090811b8216602084015288811b821660348401526048830188905277ffffffffffffffffffffffffffffffffffffffffffffffff1960c088811b8216606886015287831b8416607086015286811b8216608486015246901b16608c84015230901b16609482015260009060a80160408051601f1981840301815291815281516020928301206000818152600a90935291205490915060ff16156121ac5760405162461bcd60e51b815260206004820152600d60248201526c7265636f72642065786973747360981b604482015260640161073d565b6000818152600a6020908152604091829020805460ff1916600117905581518381526001600160a01b038a81169282019290925233928101929092526060820188905267ffffffffffffffff878116608084015290861660a0830152841660c08201527f6298d7b58f235730b3b399dc5c282f15dae8b022e5fbbf89cee21fd83c8810a39060e00160405180910390a19695505050505050565b6001600160a01b03811660009081526002602052604090205460ff166122ae5760405162461bcd60e51b815260206004820152601760248201527f4163636f756e74206973206e6f7420676f7665726e6f72000000000000000000604482015260640161073d565b6001600160a01b038116600081815260026020908152604091829020805460ff1916905590519182527f1ebe834e73d60a5fec822c1e1727d34bc79f2ad977ed504581cc1822fe20fb5b9101610a44565b6040805160c08101825260008082526020808301829052828401829052606083018290526080830182905260a0830182905283518085019094528184528301849052909190805b602083015151835110156124595761235d83612699565b9092509050816001141561238c5761237c612377846126d3565b612790565b6001600160a01b03168452612346565b81600214156123b4576123a1612377846126d3565b6001600160a01b03166020850152612346565b81600314156123d8576123ce6123c9846126d3565b6127a1565b6040850152612346565b8160041415612400576123ed612377846126d3565b6001600160a01b03166060850152612346565b816005141561242657612412836127d8565b67ffffffffffffffff166080850152612346565b816006141561244a5761244061243b846126d3565b61285a565b60a0850152612346565b6124548382612872565b612346565b505050919050565b60035461246c575050565b6001600160a01b0382166000908152600560205260409020548061248f57505050565b6001600160a01b038316600090815260046020526040812054600354909142916124b98184612e28565b6124c39190612e4a565b6001600160a01b0387166000908152600660205260409020549091508111156124ee578492506124fb565b6124f88584612c0d565b92505b8383111561254b5760405162461bcd60e51b815260206004820152601260248201527f766f6c756d652065786365656473206361700000000000000000000000000000604482015260640161073d565b506001600160a01b039094166000908152600460209081526040808320939093556006905220929092555050565b600084815260076020526040902060030154156125d85760405162461bcd60e51b815260206004820152601f60248201527f64656c61796564207472616e7366657220616c72656164792065786973747300604482015260640161073d565b604080516080810182526001600160a01b0380861682528481166020808401918252838501868152426060860190815260008b81526007909352918690209451855490851673ffffffffffffffffffffffffffffffffffffffff1991821617865592516001860180549190951693169290921790925551600283015551600390910155517fcbcfffe5102114216a85d3aceb14ad4b81a3935b1b5c468fadf3889eb9c5dce69061268b9086815260200190565b60405180910390a150505050565b60008060006126a7846127d8565b90506126b4600882612e28565b92508060071660058111156126cb576126cb612e69565b915050915091565b606060006126e0836127d8565b905060008184600001516126f49190612c0d565b905083602001515181111561270857600080fd5b8167ffffffffffffffff81111561272157612721612e7f565b6040519080825280601f01601f19166020018201604052801561274b576020820181803683370190505b50602080860151865192955091818601919083010160005b8581101561278557818101518382015261277e602082612c0d565b9050612763565b505050935250919050565b600061279b826128e9565b92915050565b60006020825111156127b257600080fd5b60208201519050815160206127c79190612bc5565b6127d2906008612e4a565b1c919050565b602080820151825181019091015160009182805b600a8110156128545783811a9150612805816007612e4a565b82607f16901b85179450816080166000141561284257612826816001612c0d565b86518790612835908390612c0d565b9052509395945050505050565b8061284c81612bf2565b9150506127ec565b50600080fd5b6000815160201461286a57600080fd5b506020015190565b600081600581111561288657612886612e69565b141561289a57612895826127d8565b505050565b60028160058111156128ae576128ae612e69565b14156102d35760006128bf836127d8565b905080836000018181516128d39190612c0d565b9052506020830151518351111561289557600080fd5b600081516014146128f957600080fd5b50602001516c01000000000000000000000000900490565b60006020828403121561292357600080fd5b5035919050565b80356001600160a01b038116811461294157600080fd5b919050565b6000806040838503121561295957600080fd5b6129628361292a565b946020939093013593505050565b60008083601f84011261298257600080fd5b50813567ffffffffffffffff81111561299a57600080fd5b6020830191508360208260051b85010111156129b557600080fd5b9250929050565b600080600080604085870312156129d257600080fd5b843567ffffffffffffffff808211156129ea57600080fd5b6129f688838901612970565b90965094506020870135915080821115612a0f57600080fd5b50612a1c87828801612970565b95989497509550505050565b600060208284031215612a3a57600080fd5b612a438261292a565b9392505050565b803567ffffffffffffffff8116811461294157600080fd5b600080600080600060a08688031215612a7a57600080fd5b612a838661292a565b945060208601359350612a9860408701612a4a565b9250612aa66060870161292a565b9150612ab460808701612a4a565b90509295509295909350565b6000806000806000806000806080898b031215612adc57600080fd5b883567ffffffffffffffff80821115612af457600080fd5b818b0191508b601f830112612b0857600080fd5b813581811115612b1757600080fd5b8c6020828501011115612b2957600080fd5b60209283019a509850908a01359080821115612b4457600080fd5b612b508c838d01612970565b909850965060408b0135915080821115612b6957600080fd5b612b758c838d01612970565b909650945060608b0135915080821115612b8e57600080fd5b50612b9b8b828c01612970565b999c989b5096995094979396929594505050565b634e487b7160e01b600052601160045260246000fd5b600082821015612bd757612bd7612baf565b500390565b634e487b7160e01b600052603260045260246000fd5b6000600019821415612c0657612c06612baf565b5060010190565b60008219821115612c2057612c20612baf565b500190565b838152818360208301376000910160200190815292915050565b81835281816020850137506000828201602090810191909152601f909101601f19169091010190565b818352600060208085019450848460051b86018460005b87811015612ce95783830389528135601e19883603018112612ca057600080fd5b8701803567ffffffffffffffff811115612cb957600080fd5b803603891315612cc857600080fd5b612cd58582898501612c3f565b9a87019a9450505090840190600101612c7f565b5090979650505050505050565b8183526000602080850194508260005b85811015612d32576001600160a01b03612d1f8361292a565b1687529582019590820190600101612d06565b509495945050505050565b81835260007f07ffffffffffffffffffffffffffffffffffffffffffffffffffffffffffffff831115612d6f57600080fd5b8260051b8083602087013760009401602001938452509192915050565b608081526000885180608084015260005b81811015612dba576020818c0181015160a0868401015201612d9d565b81811115612dcc57600060a083860101525b50601f01601f1916820182810360a09081016020850152612df0908201898b612c68565b90508281036040840152612e05818789612cf6565b90508281036060840152612e1a818587612d3d565b9a9950505050505050505050565b600082612e4557634e487b7160e01b600052601260045260246000fd5b500490565b6000816000190483118215151615612e6457612e64612baf565b500290565b634e487b7160e01b600052602160045260246000fd5b634e487b7160e01b600052604160045260246000fdfe4f776e61626c653a2063616c6c6572206973206e6f7420746865206f776e6572a2646970667358221220a515a5f7eae8e711a8bed52104adb554e3185fd54e316a308a998fb457b70c5864736f6c63430008090033",
  "devdoc": {
    "details": "Work together with OriginalTokenVault deployed at remote chains.",
    "kind": "dev",
    "methods": {
      "burn(address,uint256,uint64,address,uint64)": {
        "params": {
          "_amount": "The amount to burn.",
          "_nonce": "A number to guarantee unique depositId. Can be timestamp in practice.",
          "_toAccount": "The account to receive tokens on the remote chain",
          "_toChainId": "If zero, withdraw from original vault; otherwise, the remote chain to mint tokens.",
          "_token": "The pegged token address."
        }
      },
      "mint(bytes,bytes[],address[],uint256[])": {
        "params": {
          "_powers": "The signing powers of the signers.",
          "_request": "The serialized Mint protobuf.",
          "_signers": "The sorted list of signers.",
          "_sigs": "The list of signatures sorted by signing addresses in ascending order. A relay must be signed-off by +2/3 of the sigsVerifier's current signing power to be delivered."
        }
      },
      "owner()": {
        "details": "Returns the address of the current owner."
      },
      "paused()": {
        "details": "Returns true if the contract is paused, and false otherwise."
      },
      "renounceOwnership()": {
        "details": "Leaves the contract without owner. It will not be possible to call `onlyOwner` functions anymore. Can only be called by the current owner. NOTE: Renouncing ownership will leave the contract without an owner, thereby removing any functionality that is only available to the owner."
      },
      "transferOwnership(address)": {
        "details": "Transfers ownership of the contract to a new account (`newOwner`). Can only be called by the current owner."
      }
    },
    "title": "The bridge contract to mint and burn pegged tokens",
    "version": 1
  },
  "userdoc": {
    "kind": "user",
    "methods": {
      "burn(address,uint256,uint64,address,uint64)": {
        "notice": "Burn pegged tokens to trigger a cross-chain withdrawal of the original tokens at a remote chain's OriginalTokenVault, or mint at another remote chain NOTE: This function DOES NOT SUPPORT fee-on-transfer / rebasing tokens."
      },
      "mint(bytes,bytes[],address[],uint256[])": {
        "notice": "Mint tokens triggered by deposit at a remote chain's OriginalTokenVault."
      }
    },
    "version": 1
  },
  "storageLayout": {
    "storage": [
      {
        "astId": 7,
        "contract": "contracts/pegged-bridge/PeggedTokenBridgeV2.sol:PeggedTokenBridgeV2",
        "label": "_owner",
        "offset": 0,
        "slot": "0",
        "type": "t_address"
      },
      {
        "astId": 122,
        "contract": "contracts/pegged-bridge/PeggedTokenBridgeV2.sol:PeggedTokenBridgeV2",
        "label": "_paused",
        "offset": 20,
        "slot": "0",
        "type": "t_bool"
      },
      {
        "astId": 20581,
        "contract": "contracts/pegged-bridge/PeggedTokenBridgeV2.sol:PeggedTokenBridgeV2",
        "label": "pausers",
        "offset": 0,
        "slot": "1",
        "type": "t_mapping(t_address,t_bool)"
      },
      {
        "astId": 20340,
        "contract": "contracts/pegged-bridge/PeggedTokenBridgeV2.sol:PeggedTokenBridgeV2",
        "label": "governors",
        "offset": 0,
        "slot": "2",
        "type": "t_mapping(t_address,t_bool)"
      },
      {
        "astId": 20728,
        "contract": "contracts/pegged-bridge/PeggedTokenBridgeV2.sol:PeggedTokenBridgeV2",
        "label": "epochLength",
        "offset": 0,
        "slot": "3",
        "type": "t_uint256"
      },
      {
        "astId": 20732,
        "contract": "contracts/pegged-bridge/PeggedTokenBridgeV2.sol:PeggedTokenBridgeV2",
        "label": "epochVolumes",
        "offset": 0,
        "slot": "4",
        "type": "t_mapping(t_address,t_uint256)"
      },
      {
        "astId": 20736,
        "contract": "contracts/pegged-bridge/PeggedTokenBridgeV2.sol:PeggedTokenBridgeV2",
        "label": "epochVolumeCaps",
        "offset": 0,
        "slot": "5",
        "type": "t_mapping(t_address,t_uint256)"
      },
      {
        "astId": 20740,
        "contract": "contracts/pegged-bridge/PeggedTokenBridgeV2.sol:PeggedTokenBridgeV2",
        "label": "lastOpTimestamps",
        "offset": 0,
        "slot": "6",
        "type": "t_mapping(t_address,t_uint256)"
      },
      {
        "astId": 20141,
        "contract": "contracts/pegged-bridge/PeggedTokenBridgeV2.sol:PeggedTokenBridgeV2",
        "label": "delayedTransfers",
        "offset": 0,
        "slot": "7",
        "type": "t_mapping(t_bytes32,t_struct(delayedTransfer)20136_storage)"
      },
      {
        "astId": 20145,
        "contract": "contracts/pegged-bridge/PeggedTokenBridgeV2.sol:PeggedTokenBridgeV2",
        "label": "delayThresholds",
        "offset": 0,
        "slot": "8",
        "type": "t_mapping(t_address,t_uint256)"
      },
      {
        "astId": 20147,
        "contract": "contracts/pegged-bridge/PeggedTokenBridgeV2.sol:PeggedTokenBridgeV2",
        "label": "delayPeriod",
        "offset": 0,
        "slot": "9",
        "type": "t_uint256"
      },
      {
        "astId": 17756,
        "contract": "contracts/pegged-bridge/PeggedTokenBridgeV2.sol:PeggedTokenBridgeV2",
        "label": "records",
        "offset": 0,
        "slot": "10",
        "type": "t_mapping(t_bytes32,t_bool)"
      },
      {
        "astId": 17760,
        "contract": "contracts/pegged-bridge/PeggedTokenBridgeV2.sol:PeggedTokenBridgeV2",
        "label": "supplies",
        "offset": 0,
        "slot": "11",
        "type": "t_mapping(t_address,t_uint256)"
      },
      {
        "astId": 17764,
        "contract": "contracts/pegged-bridge/PeggedTokenBridgeV2.sol:PeggedTokenBridgeV2",
        "label": "minBurn",
        "offset": 0,
        "slot": "12",
        "type": "t_mapping(t_address,t_uint256)"
      },
      {
        "astId": 17768,
        "contract": "contracts/pegged-bridge/PeggedTokenBridgeV2.sol:PeggedTokenBridgeV2",
        "label": "maxBurn",
        "offset": 0,
        "slot": "13",
        "type": "t_mapping(t_address,t_uint256)"
      }
    ],
    "types": {
      "t_address": {
        "encoding": "inplace",
        "label": "address",
        "numberOfBytes": "20"
      },
      "t_bool": {
        "encoding": "inplace",
        "label": "bool",
        "numberOfBytes": "1"
      },
      "t_bytes32": {
        "encoding": "inplace",
        "label": "bytes32",
        "numberOfBytes": "32"
      },
      "t_mapping(t_address,t_bool)": {
        "encoding": "mapping",
        "key": "t_address",
        "label": "mapping(address => bool)",
        "numberOfBytes": "32",
        "value": "t_bool"
      },
      "t_mapping(t_address,t_uint256)": {
        "encoding": "mapping",
        "key": "t_address",
        "label": "mapping(address => uint256)",
        "numberOfBytes": "32",
        "value": "t_uint256"
      },
      "t_mapping(t_bytes32,t_bool)": {
        "encoding": "mapping",
        "key": "t_bytes32",
        "label": "mapping(bytes32 => bool)",
        "numberOfBytes": "32",
        "value": "t_bool"
      },
      "t_mapping(t_bytes32,t_struct(delayedTransfer)20136_storage)": {
        "encoding": "mapping",
        "key": "t_bytes32",
        "label": "mapping(bytes32 => struct DelayedTransfer.delayedTransfer)",
        "numberOfBytes": "32",
        "value": "t_struct(delayedTransfer)20136_storage"
      },
      "t_struct(delayedTransfer)20136_storage": {
        "encoding": "inplace",
        "label": "struct DelayedTransfer.delayedTransfer",
        "members": [
          {
            "astId": 20129,
            "contract": "contracts/pegged-bridge/PeggedTokenBridgeV2.sol:PeggedTokenBridgeV2",
            "label": "receiver",
            "offset": 0,
            "slot": "0",
            "type": "t_address"
          },
          {
            "astId": 20131,
            "contract": "contracts/pegged-bridge/PeggedTokenBridgeV2.sol:PeggedTokenBridgeV2",
            "label": "token",
            "offset": 0,
            "slot": "1",
            "type": "t_address"
          },
          {
            "astId": 20133,
            "contract": "contracts/pegged-bridge/PeggedTokenBridgeV2.sol:PeggedTokenBridgeV2",
            "label": "amount",
            "offset": 0,
            "slot": "2",
            "type": "t_uint256"
          },
          {
            "astId": 20135,
            "contract": "contracts/pegged-bridge/PeggedTokenBridgeV2.sol:PeggedTokenBridgeV2",
            "label": "timestamp",
            "offset": 0,
            "slot": "3",
            "type": "t_uint256"
          }
        ],
        "numberOfBytes": "128"
      },
      "t_uint256": {
        "encoding": "inplace",
        "label": "uint256",
        "numberOfBytes": "32"
      }
    }
  }
}