{
  "address": "0xb51541df05DE07be38dcfc4a80c05389A54502BB",
  "abi": [
    {
      "anonymous": false,
      "inputs": [
        {
          "indexed": false,
          "internalType": "enum BridgeTransferLib.BridgeSendType",
          "name": "bridgeSendType",
          "type": "uint8"
        },
        {
          "indexed": false,
          "internalType": "address",
          "name": "bridgeAddr",
          "type": "address"
        }
      ],
      "name": "BridgeUpdated",
      "type": "event"
    },
    {
      "anonymous": false,
      "inputs": [
        {
          "indexed": true,
          "internalType": "address",
          "name": "previousOwner",
          "type": "address"
        },
        {
          "indexed": true,
          "internalType": "address",
          "name": "newOwner",
          "type": "address"
        }
      ],
      "name": "OwnershipTransferred",
      "type": "event"
    },
    {
      "anonymous": false,
      "inputs": [
        {
          "indexed": false,
          "internalType": "enum BridgeTransferLib.BridgeSendType",
          "name": "bridgeSendType",
          "type": "uint8"
        },
        {
          "indexed": false,
          "internalType": "bytes32",
          "name": "transferId",
          "type": "bytes32"
        },
        {
          "indexed": false,
          "internalType": "address",
          "name": "sender",
          "type": "address"
        },
        {
          "indexed": false,
          "internalType": "bytes",
          "name": "receiver",
          "type": "bytes"
        },
        {
          "components": [
            {
              "internalType": "uint8",
              "name": "Type",
              "type": "uint8"
            },
            {
              "internalType": "bytes",
              "name": "Value",
              "type": "bytes"
            }
          ],
          "indexed": false,
          "internalType": "struct TransferAgent.Extension[]",
          "name": "extensions",
          "type": "tuple[]"
        }
      ],
      "name": "Supplement",
      "type": "event"
    },
    {
      "inputs": [
        {
          "internalType": "enum BridgeTransferLib.BridgeSendType",
          "name": "",
          "type": "uint8"
        }
      ],
      "name": "bridges",
      "outputs": [
        {
          "internalType": "address",
          "name": "",
          "type": "address"
        }
      ],
      "stateMutability": "view",
      "type": "function"
    },
    {
      "inputs": [],
      "name": "owner",
      "outputs": [
        {
          "internalType": "address",
          "name": "",
          "type": "address"
        }
      ],
      "stateMutability": "view",
      "type": "function"
    },
    {
      "inputs": [
        {
          "internalType": "enum BridgeTransferLib.BridgeSendType",
          "name": "_bridgeSendType",
          "type": "uint8"
        },
        {
          "internalType": "address",
          "name": "_addr",
          "type": "address"
        }
      ],
      "name": "setBridgeAddress",
      "outputs": [],
      "stateMutability": "nonpayable",
      "type": "function"
    },
    {
      "inputs": [
        {
          "internalType": "bytes",
          "name": "_receiver",
          "type": "bytes"
        },
        {
          "internalType": "address",
          "name": "_token",
          "type": "address"
        },
        {
          "internalType": "uint256",
          "name": "_amount",
          "type": "uint256"
        },
        {
          "internalType": "uint64",
          "name": "_dstChainId",
          "type": "uint64"
        },
        {
          "internalType": "uint64",
          "name": "_nonce",
          "type": "uint64"
        },
        {
          "internalType": "uint32",
          "name": "_maxSlippage",
          "type": "uint32"
        },
        {
          "internalType": "enum BridgeTransferLib.BridgeSendType",
          "name": "_bridgeSendType",
          "type": "uint8"
        },
        {
          "components": [
            {
              "internalType": "uint8",
              "name": "Type",
              "type": "uint8"
            },
            {
              "internalType": "bytes",
              "name": "Value",
              "type": "bytes"
            }
          ],
          "internalType": "struct TransferAgent.Extension[]",
          "name": "_extensions",
          "type": "tuple[]"
        }
      ],
      "name": "transfer",
      "outputs": [
        {
          "internalType": "bytes32",
          "name": "",
          "type": "bytes32"
        }
      ],
      "stateMutability": "nonpayable",
      "type": "function"
    },
    {
      "inputs": [
        {
          "internalType": "bytes",
          "name": "_receiver",
          "type": "bytes"
        },
        {
          "internalType": "uint256",
          "name": "_amount",
          "type": "uint256"
        },
        {
          "internalType": "uint64",
          "name": "_dstChainId",
          "type": "uint64"
        },
        {
          "internalType": "uint64",
          "name": "_nonce",
          "type": "uint64"
        },
        {
          "internalType": "uint32",
          "name": "_maxSlippage",
          "type": "uint32"
        },
        {
          "internalType": "enum BridgeTransferLib.BridgeSendType",
          "name": "_bridgeSendType",
          "type": "uint8"
        },
        {
          "components": [
            {
              "internalType": "uint8",
              "name": "Type",
              "type": "uint8"
            },
            {
              "internalType": "bytes",
              "name": "Value",
              "type": "bytes"
            }
          ],
          "internalType": "struct TransferAgent.Extension[]",
          "name": "_extensions",
          "type": "tuple[]"
        }
      ],
      "name": "transferNative",
      "outputs": [
        {
          "internalType": "bytes32",
          "name": "",
          "type": "bytes32"
        }
      ],
      "stateMutability": "payable",
      "type": "function"
    },
    {
      "inputs": [
        {
          "internalType": "address",
          "name": "newOwner",
          "type": "address"
        }
      ],
      "name": "transferOwnership",
      "outputs": [],
      "stateMutability": "nonpayable",
      "type": "function"
    }
  ],
  "transactionHash": "0x6b1ad187630227f2575ed6add92883e1303390a3c2daef9e8dbb16bffff7bde4",
  "args": [],
  "numDeployments": 1,
  "solcInputHash": "4c86bc0c5bac4df4480c523ac34dbcd8",
  "bytecode": "0x608060405234801561001057600080fd5b50600160005561001f33610024565b610076565b600180546001600160a01b038381166001600160a01b0319831681179093556040519116919082907f8be0079c531659141344cd1fd0a4f28419497f9722a3daafe3b4186f6b6457e090600090a35050565b611b97806100856000396000f3fe6080604052600436106100655760003560e01c80638da5cb5b116100435780638da5cb5b1461010d578063c5d8ac7e1461012b578063f2fde38b1461013e57600080fd5b806339b0070c1461006a57806365d67c331461009d5780636701d514146100eb575b600080fd5b34801561007657600080fd5b5061008a6100853660046116d2565b61015e565b6040519081526020015b60405180910390f35b3480156100a957600080fd5b506100d36100b83660046117a7565b6002602052600090815260409020546001600160a01b031681565b6040516001600160a01b039091168152602001610094565b3480156100f757600080fd5b5061010b6101063660046117c2565b6102cf565b005b34801561011957600080fd5b506001546001600160a01b03166100d3565b61008a6101393660046117f9565b610425565b34801561014a57600080fd5b5061010b6101593660046118ba565b6105c9565b6000600260005414156101b85760405162461bcd60e51b815260206004820152601f60248201527f5265656e7472616e637947756172643a207265656e7472616e742063616c6c0060448201526064015b60405180910390fd5b60026000818155908190818760068111156101d5576101d56118d7565b60068111156101e6576101e66118d7565b81526020810191909152604001600020546001600160a01b031690508061024f5760405162461bcd60e51b815260206004820152601360248201527f756e6b6e6f776e2062726964676520747970650000000000000000000000000060448201526064016101af565b6102646001600160a01b038c1633308d6106ba565b61027560008c8c8c8c8c8c88610758565b9150507f3f2b4c063a18045940932b9fba423a72e3b8d36e63ca462720d880f7b64504ca8582338f8f89896040516102b39796959493929190611938565b60405180910390a160016000559b9a5050505050505050505050565b336102e26001546001600160a01b031690565b6001600160a01b0316146103385760405162461bcd60e51b815260206004820181905260248201527f4f776e61626c653a2063616c6c6572206973206e6f7420746865206f776e657260448201526064016101af565b6001600160a01b03811661038e5760405162461bcd60e51b815260206004820152600f60248201527f696e76616c69642061646472657373000000000000000000000000000000000060448201526064016101af565b80600260008460068111156103a5576103a56118d7565b60068111156103b6576103b66118d7565b815260200190815260200160002060006101000a8154816001600160a01b0302191690836001600160a01b031602179055507fe85507dd8a6159a69bf9f4aa5ae1283824ec9948b7d4a03d5cb457070f312dfc8282604051610419929190611a44565b60405180910390a15050565b60006002600054141561047a5760405162461bcd60e51b815260206004820152601f60248201527f5265656e7472616e637947756172643a207265656e7472616e742063616c6c0060448201526064016101af565b6002600081815590819081876006811115610497576104976118d7565b60068111156104a8576104a86118d7565b81526020810191909152604001600020546001600160a01b03169050806105115760405162461bcd60e51b815260206004820152601360248201527f756e6b6e6f776e2062726964676520747970650000000000000000000000000060448201526064016101af565b8934146105605760405162461bcd60e51b815260206004820152600f60248201527f616d6f756e74206d69736d61746368000000000000000000000000000000000060448201526064016101af565b61057060008b8b8b8b8b87610d3b565b9150507f3f2b4c063a18045940932b9fba423a72e3b8d36e63ca462720d880f7b64504ca8582338e8e89896040516105ae9796959493929190611938565b60405180910390a160016000559a9950505050505050505050565b336105dc6001546001600160a01b031690565b6001600160a01b0316146106325760405162461bcd60e51b815260206004820181905260248201527f4f776e61626c653a2063616c6c6572206973206e6f7420746865206f776e657260448201526064016101af565b6001600160a01b0381166106ae5760405162461bcd60e51b815260206004820152602660248201527f4f776e61626c653a206e6577206f776e657220697320746865207a65726f206160448201527f646472657373000000000000000000000000000000000000000000000000000060648201526084016101af565b6106b781611115565b50565b6040516001600160a01b03808516602483015283166044820152606481018290526107529085906323b872dd60e01b906084015b60408051601f198184030181529190526020810180517bffffffffffffffffffffffffffffffffffffffffffffffffffffffff167fffffffff000000000000000000000000000000000000000000000000000000009093169290921790915261117f565b50505050565b60008061076f6001600160a01b038a16848a611269565b6001846006811115610783576107836118d7565b141561089e5760405163a5977fbb60e01b81526001600160a01b038b811660048301528a81166024830152604482018a905267ffffffffffffffff808a1660648401528816608483015263ffffffff871660a483015284169063a5977fbb9060c401600060405180830381600087803b1580156107ff57600080fd5b505af1158015610813573d6000803e3d6000fd5b50506040516bffffffffffffffffffffffff1930606090811b821660208401528e811b821660348401528d901b166048820152605c81018b90526001600160c01b031960c08b811b8216607c8401528a811b8216608484015246901b16608c82015260940191506108819050565b604051602081830303815290604052805190602001209050610d2e565b60028460068111156108b2576108b26118d7565b14156109b8576040516308d18d8960e21b81526001600160a01b038a81166004830152602482018a905267ffffffffffffffff808a1660448401528c821660648401528816608483015284169063234636249060a401600060405180830381600087803b15801561092257600080fd5b505af1158015610936573d6000803e3d6000fd5b50505050308989898d8a466040516020016108819796959493929190606097881b6bffffffffffffffffffffffff19908116825296881b87166014820152602881019590955260c093841b6001600160c01b031990811660488701529290961b909416605084015292811b831660648301529290921b16606c82015260740190565b60038460068111156109cc576109cc6118d7565b1415610ae057604051636f3c863f60e11b81526001600160a01b038a81166004830152602482018a90528b8116604483015267ffffffffffffffff8816606483015284169063de790c7e90608401600060405180830381600087803b158015610a3457600080fd5b505af1158015610a48573d6000803e3d6000fd5b50506040516bffffffffffffffffffffffff1930606090811b821660208401528d811b82166034840152604883018d90528e901b1660688201526001600160c01b031960c08a811b8216607c84015246901b166084820152608c019150610aac9050565b60408051601f1981840301815291905280516020909101209050610adb6001600160a01b038a1684600061132a565b610d2e565b6004846006811115610af457610af46118d7565b1415610ba3576040516308d18d8960e21b81526001600160a01b038a81166004830152602482018a905267ffffffffffffffff808a1660448401528c821660648401528816608483015284169063234636249060a401602060405180830381600087803b158015610b6457600080fd5b505af1158015610b78573d6000803e3d6000fd5b505050506040513d601f19601f82011682018060405250810190610b9c9190611a68565b9050610d2e565b6005846006811115610bb757610bb76118d7565b1415610c775760405163a002930160e01b81526001600160a01b038a81166004830152602482018a905267ffffffffffffffff808a1660448401528c821660648401528816608483015284169063a00293019060a4015b602060405180830381600087803b158015610c2857600080fd5b505af1158015610c3c573d6000803e3d6000fd5b505050506040513d601f19601f82011682018060405250810190610c609190611a68565b9050610adb6001600160a01b038a1684600061132a565b6006846006811115610c8b57610c8b6118d7565b1415610ce657604051639e422c3360e01b81526001600160a01b038a81166004830152602482018a905267ffffffffffffffff808a1660448401528c8216606484015288166084830152841690639e422c339060a401610c0e565b60405162461bcd60e51b815260206004820152601e60248201527f6272696467652073656e642074797065206e6f7420737570706f72746564000060448201526064016101af565b9998505050505050505050565b60006001836006811115610d5157610d516118d7565b1480610d6e57506002836006811115610d6c57610d6c6118d7565b145b80610d8a57506004836006811115610d8857610d886118d7565b145b610dd65760405162461bcd60e51b815260206004820152601d60248201527f4c69623a20696e76616c6964206272696467652073656e64207479706500000060448201526064016101af565b6000826001600160a01b031663457bfa2f6040518163ffffffff1660e01b815260040160206040518083038186803b158015610e1157600080fd5b505afa158015610e25573d6000803e3d6000fd5b505050506040513d601f19601f82011682018060405250810190610e499190611a81565b905060006001856006811115610e6157610e616118d7565b1415610f5957604051633f2e5fc360e01b81526001600160a01b038b81166004830152602482018b905267ffffffffffffffff808b1660448401528916606483015263ffffffff88166084830152851690633f2e5fc390349060a4016000604051808303818588803b158015610ed657600080fd5b505af1158015610eea573d6000803e3d6000fd5b50506040516bffffffffffffffffffffffff1930606090811b821660208401528f811b8216603484015287901b166048820152605c81018d90526001600160c01b031960c08d811b8216607c8401528c811b8216608484015246901b16608c8201526094019250610881915050565b6002856006811115610f6d57610f6d6118d7565b141561106c5760405162a95fd760e01b8152600481018a905267ffffffffffffffff808a1660248301526001600160a01b038c81166044840152908916606483015285169062a95fd79034906084016000604051808303818588803b158015610fd557600080fd5b505af1158015610fe9573d6000803e3d6000fd5b505050505030828a8a8d8b466040516020016108819796959493929190606097881b6bffffffffffffffffffffffff19908116825296881b87166014820152602881019590955260c093841b6001600160c01b031990811660488701529290961b909416605084015292811b831660648301529290921b16606c82015260740190565b60405162a95fd760e01b8152600481018a905267ffffffffffffffff808a1660248301526001600160a01b038c81166044840152908916606483015285169062a95fd79034906084016020604051808303818588803b1580156110ce57600080fd5b505af11580156110e2573d6000803e3d6000fd5b50505050506040513d601f19601f820116820180604052508101906111079190611a68565b9a9950505050505050505050565b600180546001600160a01b038381167fffffffffffffffffffffffff0000000000000000000000000000000000000000831681179093556040519116919082907f8be0079c531659141344cd1fd0a4f28419497f9722a3daafe3b4186f6b6457e090600090a35050565b60006111d4826040518060400160405280602081526020017f5361666545524332303a206c6f772d6c6576656c2063616c6c206661696c6564815250856001600160a01b03166114559092919063ffffffff16565b80519091501561126457808060200190518101906111f29190611a9e565b6112645760405162461bcd60e51b815260206004820152602a60248201527f5361666545524332303a204552433230206f7065726174696f6e20646964206e60448201527f6f7420737563636565640000000000000000000000000000000000000000000060648201526084016101af565b505050565b604051636eb1769f60e11b81523060048201526001600160a01b038381166024830152600091839186169063dd62ed3e9060440160206040518083038186803b1580156112b557600080fd5b505afa1580156112c9573d6000803e3d6000fd5b505050506040513d601f19601f820116820180604052508101906112ed9190611a68565b6112f79190611ac0565b6040516001600160a01b03851660248201526044810182905290915061075290859063095ea7b360e01b906064016106ee565b8015806113b35750604051636eb1769f60e11b81523060048201526001600160a01b03838116602483015284169063dd62ed3e9060440160206040518083038186803b15801561137957600080fd5b505afa15801561138d573d6000803e3d6000fd5b505050506040513d601f19601f820116820180604052508101906113b19190611a68565b155b6114255760405162461bcd60e51b815260206004820152603660248201527f5361666545524332303a20617070726f76652066726f6d206e6f6e2d7a65726f60448201527f20746f206e6f6e2d7a65726f20616c6c6f77616e63650000000000000000000060648201526084016101af565b6040516001600160a01b03831660248201526044810182905261126490849063095ea7b360e01b906064016106ee565b6060611464848460008561146e565b90505b9392505050565b6060824710156114e65760405162461bcd60e51b815260206004820152602660248201527f416464726573733a20696e73756666696369656e742062616c616e636520666f60448201527f722063616c6c000000000000000000000000000000000000000000000000000060648201526084016101af565b6001600160a01b0385163b61153d5760405162461bcd60e51b815260206004820152601d60248201527f416464726573733a2063616c6c20746f206e6f6e2d636f6e747261637400000060448201526064016101af565b600080866001600160a01b031685876040516115599190611b12565b60006040518083038185875af1925050503d8060008114611596576040519150601f19603f3d011682016040523d82523d6000602084013e61159b565b606091505b50915091506115ab8282866115b6565b979650505050505050565b606083156115c5575081611467565b8251156115d55782518084602001fd5b8160405162461bcd60e51b81526004016101af9190611b2e565b60008083601f84011261160157600080fd5b50813567ffffffffffffffff81111561161957600080fd5b60208301915083602082850101111561163157600080fd5b9250929050565b6001600160a01b03811681146106b757600080fd5b803567ffffffffffffffff8116811461166557600080fd5b919050565b803563ffffffff8116811461166557600080fd5b80356007811061166557600080fd5b60008083601f84011261169f57600080fd5b50813567ffffffffffffffff8111156116b757600080fd5b6020830191508360208260051b850101111561163157600080fd5b6000806000806000806000806000806101008b8d0312156116f257600080fd5b8a3567ffffffffffffffff8082111561170a57600080fd5b6117168e838f016115ef565b909c509a5060208d0135915061172b82611638565b81995060408d0135985061174160608e0161164d565b975061174f60808e0161164d565b965061175d60a08e0161166a565b955061176b60c08e0161167e565b945060e08d013591508082111561178157600080fd5b5061178e8d828e0161168d565b915080935050809150509295989b9194979a5092959850565b6000602082840312156117b957600080fd5b6114678261167e565b600080604083850312156117d557600080fd5b6117de8361167e565b915060208301356117ee81611638565b809150509250929050565b600080600080600080600080600060e08a8c03121561181757600080fd5b893567ffffffffffffffff8082111561182f57600080fd5b61183b8d838e016115ef565b909b50995060208c0135985089915061185660408d0161164d565b975061186460608d0161164d565b965061187260808d0161166a565b955061188060a08d0161167e565b945060c08c013591508082111561189657600080fd5b506118a38c828d0161168d565b915080935050809150509295985092959850929598565b6000602082840312156118cc57600080fd5b813561146781611638565b634e487b7160e01b600052602160045260246000fd5b6007811061190b57634e487b7160e01b600052602160045260246000fd5b9052565b81835281816020850137506000828201602090810191909152601f909101601f19169091010190565b61194281896118ed565b60006020888184015260406001600160a01b0389168185015260a0606085015261197060a08501888a61190f565b8481036080860152858152828101600587901b820184018860005b89811015611a3057848303601f190184528135368c9003603e190181126119b157600080fd5b8b01803560ff81168082146119c557600080fd5b8552508088013536829003601e190181126119df57600080fd5b8101803567ffffffffffffffff8111156119f857600080fd5b803603831315611a0757600080fd5b888a870152611a1b898701828c850161190f565b968a019695505050918701915060010161198b565b50909e9d5050505050505050505050505050565b60408101611a5282856118ed565b6001600160a01b03831660208301529392505050565b600060208284031215611a7a57600080fd5b5051919050565b600060208284031215611a9357600080fd5b815161146781611638565b600060208284031215611ab057600080fd5b8151801515811461146757600080fd5b60008219821115611ae157634e487b7160e01b600052601160045260246000fd5b500190565b60005b83811015611b01578181015183820152602001611ae9565b838111156107525750506000910152565b60008251611b24818460208701611ae6565b9190910192915050565b6020815260008251806020840152611b4d816040850160208701611ae6565b601f01601f1916919091016040019291505056fea2646970667358221220561fe3475257c3c94d9125e0e6e7679cfe936272130de55c816a352cb0f7609264736f6c63430008090033",
  "devdoc": {
    "kind": "dev",
    "methods": {
      "owner()": {
        "details": "Returns the address of the current owner."
      },
      "transfer(bytes,address,uint256,uint64,uint64,uint32,uint8,(uint8,bytes)[])": {
        "params": {
          "_amount": "The amount of the transfer.",
          "_bridgeSendType": "The type of bridge used by this transfer. One of the {BridgeSendType} enum.",
          "_dstChainId": "The destination chain ID.",
          "_extensions": "A list of extension to be processed by agent, is designed to be used for extending        present transfer. Contact Celer team to learn about already supported type of extension.",
          "_maxSlippage": "The max slippage accepted, given as percentage in point (pip). Eg. 5000 means 0.5%.        Must be greater than minimalMaxSlippage. Receiver is guaranteed to receive at least        (100% - max slippage percentage) * amount or the transfer can be refunded.        Only applicable to the {BridgeSendType.Liquidity}.",
          "_nonce": "A number input to guarantee uniqueness of transferId. Can be timestamp in practice.",
          "_receiver": "The address of the receiver.",
          "_token": "The address of the token."
        }
      },
      "transferNative(bytes,uint256,uint64,uint64,uint32,uint8,(uint8,bytes)[])": {
        "params": {
          "_amount": "The amount of the transfer.",
          "_bridgeSendType": "The type of bridge used by this transfer. One of the {BridgeSendType} enum.",
          "_dstChainId": "The destination chain ID.",
          "_extensions": "A list of extension to be processed by agent, is designed to be used for extending        present transfer. Contact Celer team to learn about already supported type of extension.",
          "_maxSlippage": "The max slippage accepted, given as percentage in point (pip). Eg. 5000 means 0.5%.        Must be greater than minimalMaxSlippage. Receiver is guaranteed to receive at least        (100% - max slippage percentage) * amount or the transfer can be refunded.        Only applicable to the {BridgeSendType.Liquidity}.",
          "_nonce": "A number input to guarantee uniqueness of transferId. Can be timestamp in practice.",
          "_receiver": "The address of the receiver."
        }
      },
      "transferOwnership(address)": {
        "details": "Transfers ownership of the contract to a new account (`newOwner`). Can only be called by the current owner."
      }
    },
    "title": "Transfer agent. Designed to support arbitrary length receiver address for transfer. Supports the liquidity pool-based {Bridge}, the {OriginalTokenVault} for pegged deposit and the {PeggedTokenBridge} for pegged burn.",
    "version": 1
  },
  "userdoc": {
    "kind": "user",
    "methods": {
      "transfer(bytes,address,uint256,uint64,uint64,uint32,uint8,(uint8,bytes)[])": {
        "notice": "Send a cross-chain transfer of ERC20 token either via liquidity pool-based bridge or in form of mint/burn."
      },
      "transferNative(bytes,uint256,uint64,uint64,uint32,uint8,(uint8,bytes)[])": {
        "notice": "Send a cross-chain transfer of native token either via liquidity pool-based bridge or in form of mint/burn."
      }
    },
    "version": 1
  },
  "storageLayout": {
    "storage": [
      {
        "astId": 207,
        "contract": "contracts/proxy/TransferAgent.sol:TransferAgent",
        "label": "_status",
        "offset": 0,
        "slot": "0",
        "type": "t_uint256"
      },
      {
        "astId": 28309,
        "contract": "contracts/proxy/TransferAgent.sol:TransferAgent",
        "label": "_owner",
        "offset": 0,
        "slot": "1",
        "type": "t_address"
      },
      {
        "astId": 27739,
        "contract": "contracts/proxy/TransferAgent.sol:TransferAgent",
        "label": "bridges",
        "offset": 0,
        "slot": "2",
        "type": "t_mapping(t_enum(BridgeSendType)7981,t_address)"
      }
    ],
    "types": {
      "t_address": {
        "encoding": "inplace",
        "label": "address",
        "numberOfBytes": "20"
      },
      "t_enum(BridgeSendType)7981": {
        "encoding": "inplace",
        "label": "enum BridgeTransferLib.BridgeSendType",
        "numberOfBytes": "1"
      },
      "t_mapping(t_enum(BridgeSendType)7981,t_address)": {
        "encoding": "mapping",
        "key": "t_enum(BridgeSendType)7981",
        "label": "mapping(enum BridgeTransferLib.BridgeSendType => address)",
        "numberOfBytes": "32",
        "value": "t_address"
      },
      "t_uint256": {
        "encoding": "inplace",
        "label": "uint256",
        "numberOfBytes": "32"
      }
    }
  }
}