{
  "address": "0xdDD11E4a9dB4281c94Afc79965beAd2ef4129657",
  "abi": [
    {
      "inputs": [
        {
          "internalType": "contract Staking",
          "name": "_staking",
          "type": "address"
        }
      ],
      "stateMutability": "nonpayable",
      "type": "constructor"
    },
    {
      "anonymous": false,
      "inputs": [
        {
          "indexed": true,
          "internalType": "address",
          "name": "previousOwner",
          "type": "address"
        },
        {
          "indexed": true,
          "internalType": "address",
          "name": "newOwner",
          "type": "address"
        }
      ],
      "name": "OwnershipTransferred",
      "type": "event"
    },
    {
      "anonymous": false,
      "inputs": [
        {
          "indexed": false,
          "internalType": "address",
          "name": "account",
          "type": "address"
        }
      ],
      "name": "Paused",
      "type": "event"
    },
    {
      "anonymous": false,
      "inputs": [
        {
          "indexed": false,
          "internalType": "address",
          "name": "account",
          "type": "address"
        }
      ],
      "name": "PauserAdded",
      "type": "event"
    },
    {
      "anonymous": false,
      "inputs": [
        {
          "indexed": false,
          "internalType": "address",
          "name": "account",
          "type": "address"
        }
      ],
      "name": "PauserRemoved",
      "type": "event"
    },
    {
      "anonymous": false,
      "inputs": [
        {
          "indexed": true,
          "internalType": "address",
          "name": "recipient",
          "type": "address"
        },
        {
          "indexed": false,
          "internalType": "uint256",
          "name": "reward",
          "type": "uint256"
        }
      ],
      "name": "StakingRewardClaimed",
      "type": "event"
    },
    {
      "anonymous": false,
      "inputs": [
        {
          "indexed": true,
          "internalType": "address",
          "name": "contributor",
          "type": "address"
        },
        {
          "indexed": false,
          "internalType": "uint256",
          "name": "contribution",
          "type": "uint256"
        }
      ],
      "name": "StakingRewardContributed",
      "type": "event"
    },
    {
      "anonymous": false,
      "inputs": [
        {
          "indexed": false,
          "internalType": "address",
          "name": "account",
          "type": "address"
        }
      ],
      "name": "Unpaused",
      "type": "event"
    },
    {
      "inputs": [
        {
          "internalType": "address",
          "name": "account",
          "type": "address"
        }
      ],
      "name": "addPauser",
      "outputs": [],
      "stateMutability": "nonpayable",
      "type": "function"
    },
    {
      "inputs": [
        {
          "internalType": "bytes",
          "name": "_rewardRequest",
          "type": "bytes"
        },
        {
          "internalType": "bytes[]",
          "name": "_sigs",
          "type": "bytes[]"
        }
      ],
      "name": "claimReward",
      "outputs": [],
      "stateMutability": "nonpayable",
      "type": "function"
    },
    {
      "inputs": [
        {
          "internalType": "address",
          "name": "",
          "type": "address"
        }
      ],
      "name": "claimedRewardAmounts",
      "outputs": [
        {
          "internalType": "uint256",
          "name": "",
          "type": "uint256"
        }
      ],
      "stateMutability": "view",
      "type": "function"
    },
    {
      "inputs": [
        {
          "internalType": "uint256",
          "name": "_amount",
          "type": "uint256"
        }
      ],
      "name": "contributeToRewardPool",
      "outputs": [],
      "stateMutability": "nonpayable",
      "type": "function"
    },
    {
      "inputs": [
        {
          "internalType": "uint256",
          "name": "_amount",
          "type": "uint256"
        }
      ],
      "name": "drainToken",
      "outputs": [],
      "stateMutability": "nonpayable",
      "type": "function"
    },
    {
      "inputs": [
        {
          "internalType": "address",
          "name": "account",
          "type": "address"
        }
      ],
      "name": "isPauser",
      "outputs": [
        {
          "internalType": "bool",
          "name": "",
          "type": "bool"
        }
      ],
      "stateMutability": "view",
      "type": "function"
    },
    {
      "inputs": [],
      "name": "owner",
      "outputs": [
        {
          "internalType": "address",
          "name": "",
          "type": "address"
        }
      ],
      "stateMutability": "view",
      "type": "function"
    },
    {
      "inputs": [],
      "name": "pause",
      "outputs": [],
      "stateMutability": "nonpayable",
      "type": "function"
    },
    {
      "inputs": [],
      "name": "paused",
      "outputs": [
        {
          "internalType": "bool",
          "name": "",
          "type": "bool"
        }
      ],
      "stateMutability": "view",
      "type": "function"
    },
    {
      "inputs": [
        {
          "internalType": "address",
          "name": "",
          "type": "address"
        }
      ],
      "name": "pausers",
      "outputs": [
        {
          "internalType": "bool",
          "name": "",
          "type": "bool"
        }
      ],
      "stateMutability": "view",
      "type": "function"
    },
    {
      "inputs": [
        {
          "internalType": "address",
          "name": "account",
          "type": "address"
        }
      ],
      "name": "removePauser",
      "outputs": [],
      "stateMutability": "nonpayable",
      "type": "function"
    },
    {
      "inputs": [],
      "name": "renounceOwnership",
      "outputs": [],
      "stateMutability": "nonpayable",
      "type": "function"
    },
    {
      "inputs": [],
      "name": "renouncePauser",
      "outputs": [],
      "stateMutability": "nonpayable",
      "type": "function"
    },
    {
      "inputs": [],
      "name": "staking",
      "outputs": [
        {
          "internalType": "contract Staking",
          "name": "",
          "type": "address"
        }
      ],
      "stateMutability": "view",
      "type": "function"
    },
    {
      "inputs": [
        {
          "internalType": "address",
          "name": "newOwner",
          "type": "address"
        }
      ],
      "name": "transferOwnership",
      "outputs": [],
      "stateMutability": "nonpayable",
      "type": "function"
    },
    {
      "inputs": [],
      "name": "unpause",
      "outputs": [],
      "stateMutability": "nonpayable",
      "type": "function"
    }
  ],
  "transactionHash": "0xb440151d1cab61b2e920aeaf3d1729e196f42ff49683f469252929c21c32d014",
  "args": [
    "0x5a21757B4451640358414A4b3499199B3CA11C94"
  ],
  "solcInputHash": "bb7477b53756a76aabf406494035deb5",
  "bytecode": "0x60a06040523480156200001157600080fd5b5060405162001a4d38038062001a4d833981016040819052620000349162000182565b6200003f3362000069565b6000805460ff60a01b191690556200005733620000b9565b6001600160a01b0316608052620001b4565b600080546001600160a01b038381166001600160a01b0319831681178455604051919092169283917f8be0079c531659141344cd1fd0a4f28419497f9722a3daafe3b4186f6b6457e09190a35050565b6001600160a01b03811660009081526001602052604090205460ff1615620001275760405162461bcd60e51b815260206004820152601960248201527f4163636f756e7420697320616c72656164792070617573657200000000000000604482015260640160405180910390fd5b6001600160a01b038116600081815260016020818152604092839020805460ff191690921790915590519182527f6719d08c1888103bea251a4ed56406bd0c3e69723c8a1686e017e7bbe159b6f8910160405180910390a150565b6000602082840312156200019557600080fd5b81516001600160a01b0381168114620001ad57600080fd5b9392505050565b608051611861620001ec6000396000818161017b015281816102ec0152818161048d015281816108ce0152610a8a01526118616000f3fe608060405234801561001057600080fd5b50600436106101005760003560e01c8063715018a6116100975780638da5cb5b116100665780638da5cb5b1461022857806396db0fef14610239578063f2fde38b14610267578063f8df0dc51461027a57600080fd5b8063715018a6146101e257806380f51c12146101ea57806382dc1ec41461020d5780638456cb591461022057600080fd5b80634cf088d9116100d35780634cf088d9146101765780635c975abb146101b55780636b2c0f55146101c75780636ef8d66d146101da57600080fd5b80630a300b0914610105578063145aa1161461011a5780633f4ba83a1461012d57806346fbf68e14610135575b600080fd5b610118610113366004611496565b61028d565b005b610118610128366004611496565b6103d3565b61011861052f565b6101616101433660046114c4565b6001600160a01b031660009081526001602052604090205460ff1690565b60405190151581526020015b60405180910390f35b61019d7f000000000000000000000000000000000000000000000000000000000000000081565b6040516001600160a01b03909116815260200161016d565b600054600160a01b900460ff16610161565b6101186101d53660046114c4565b610598565b6101186105fb565b610118610604565b6101616101f83660046114c4565b60016020526000908152604090205460ff1681565b61011861021b3660046114c4565b610668565b6101186106cb565b6000546001600160a01b031661019d565b6102596102473660046114c4565b60026020526000908152604090205481565b60405190815260200161016d565b6101186102753660046114c4565b610732565b6101186102883660046114e1565b610811565b600054600160a01b900460ff16156102df5760405162461bcd60e51b815260206004820152601060248201526f14185d5cd8589b194e881c185d5cd95960821b60448201526064015b60405180910390fd5b600033905061038c8130847f00000000000000000000000000000000000000000000000000000000000000006001600160a01b031663960dc08a6040518163ffffffff1660e01b815260040160206040518083038186803b15801561034357600080fd5b505afa158015610357573d6000803e3d6000fd5b505050506040513d601f19601f8201168201806040525081019061037b91906115a6565b6001600160a01b0316929190610b32565b806001600160a01b03167ff67017a05194c0853be9169be60cad9fa6e75d34b6b507a7a4261510e19c6d79836040516103c791815260200190565b60405180910390a25050565b600054600160a01b900460ff1661042c5760405162461bcd60e51b815260206004820152601460248201527f5061757361626c653a206e6f742070617573656400000000000000000000000060448201526064016102d6565b6000546001600160a01b031633146104865760405162461bcd60e51b815260206004820181905260248201527f4f776e61626c653a2063616c6c6572206973206e6f7420746865206f776e657260448201526064016102d6565b61052c33827f00000000000000000000000000000000000000000000000000000000000000006001600160a01b031663960dc08a6040518163ffffffff1660e01b815260040160206040518083038186803b1580156104e457600080fd5b505afa1580156104f8573d6000803e3d6000fd5b505050506040513d601f19601f8201168201806040525081019061051c91906115a6565b6001600160a01b03169190610bd0565b50565b3360009081526001602052604090205460ff1661058e5760405162461bcd60e51b815260206004820152601460248201527f43616c6c6572206973206e6f742070617573657200000000000000000000000060448201526064016102d6565b610596610c05565b565b6000546001600160a01b031633146105f25760405162461bcd60e51b815260206004820181905260248201527f4f776e61626c653a2063616c6c6572206973206e6f7420746865206f776e657260448201526064016102d6565b61052c81610cab565b61059633610cab565b6000546001600160a01b0316331461065e5760405162461bcd60e51b815260206004820181905260248201527f4f776e61626c653a2063616c6c6572206973206e6f7420746865206f776e657260448201526064016102d6565b6105966000610d6b565b6000546001600160a01b031633146106c25760405162461bcd60e51b815260206004820181905260248201527f4f776e61626c653a2063616c6c6572206973206e6f7420746865206f776e657260448201526064016102d6565b61052c81610dd3565b3360009081526001602052604090205460ff1661072a5760405162461bcd60e51b815260206004820152601460248201527f43616c6c6572206973206e6f742070617573657200000000000000000000000060448201526064016102d6565b610596610e91565b6000546001600160a01b0316331461078c5760405162461bcd60e51b815260206004820181905260248201527f4f776e61626c653a2063616c6c6572206973206e6f7420746865206f776e657260448201526064016102d6565b6001600160a01b0381166108085760405162461bcd60e51b815260206004820152602660248201527f4f776e61626c653a206e6577206f776e657220697320746865207a65726f206160448201527f646472657373000000000000000000000000000000000000000000000000000060648201526084016102d6565b61052c81610d6b565b600054600160a01b900460ff161561085e5760405162461bcd60e51b815260206004820152601060248201526f14185d5cd8589b194e881c185d5cd95960821b60448201526064016102d6565b600046306040516020016108b492919091825260601b6bffffffffffffffffffffffff191660208201527f5374616b696e6752657761726400000000000000000000000000000000000000603482015260410190565b6040516020818303038152906040528051906020012090507f00000000000000000000000000000000000000000000000000000000000000006001600160a01b0316638a74d5fe828787604051602001610910939291906115c3565b60405160208183030381529060405285856040518463ffffffff1660e01b815260040161093f9392919061165e565b60206040518083038186803b15801561095757600080fd5b505afa15801561096b573d6000803e3d6000fd5b505050506040513d601f19601f8201168201806040525081019061098f919061170d565b5060006109d186868080601f016020809104026020016040519081016040528093929190818152602001838380828437600092019190915250610f1992505050565b60208082015182516001600160a01b0316600090815260029092526040822054929350916109ff9083611745565b905060008111610a515760405162461bcd60e51b815260206004820152600d60248201527f4e6f206e6577207265776172640000000000000000000000000000000000000060448201526064016102d6565b816002600085600001516001600160a01b03166001600160a01b0316815260200190815260200160002081905550610ae18360000151827f00000000000000000000000000000000000000000000000000000000000000006001600160a01b031663960dc08a6040518163ffffffff1660e01b815260040160206040518083038186803b1580156104e457600080fd5b82600001516001600160a01b03167f6dd401e61ba732582a5eba3d54ccc3afb3609cd3ac1a166d1d36f75fc0aedcda82604051610b2091815260200190565b60405180910390a25050505050505050565b6040516001600160a01b0380851660248301528316604482015260648101829052610bca9085906323b872dd60e01b906084015b60408051601f198184030181529190526020810180517bffffffffffffffffffffffffffffffffffffffffffffffffffffffff167fffffffff0000000000000000000000000000000000000000000000000000000090931692909217909152610fc5565b50505050565b6040516001600160a01b038316602482015260448101829052610c0090849063a9059cbb60e01b90606401610b66565b505050565b600054600160a01b900460ff16610c5e5760405162461bcd60e51b815260206004820152601460248201527f5061757361626c653a206e6f742070617573656400000000000000000000000060448201526064016102d6565b6000805460ff60a01b191690557f5db9ee0a495bf2e6ff9c91a7834c1ba4fdd244a5e8aa4e537bd38aeae4b073aa335b6040516001600160a01b03909116815260200160405180910390a1565b6001600160a01b03811660009081526001602052604090205460ff16610d135760405162461bcd60e51b815260206004820152601560248201527f4163636f756e74206973206e6f7420706175736572000000000000000000000060448201526064016102d6565b6001600160a01b038116600081815260016020908152604091829020805460ff1916905590519182527fcd265ebaf09df2871cc7bd4133404a235ba12eff2041bb89d9c714a2621c7c7e91015b60405180910390a150565b600080546001600160a01b038381167fffffffffffffffffffffffff0000000000000000000000000000000000000000831681178455604051919092169283917f8be0079c531659141344cd1fd0a4f28419497f9722a3daafe3b4186f6b6457e09190a35050565b6001600160a01b03811660009081526001602052604090205460ff1615610e3c5760405162461bcd60e51b815260206004820152601960248201527f4163636f756e7420697320616c7265616479207061757365720000000000000060448201526064016102d6565b6001600160a01b038116600081815260016020818152604092839020805460ff191690921790915590519182527f6719d08c1888103bea251a4ed56406bd0c3e69723c8a1686e017e7bbe159b6f89101610d60565b600054600160a01b900460ff1615610ede5760405162461bcd60e51b815260206004820152601060248201526f14185d5cd8589b194e881c185d5cd95960821b60448201526064016102d6565b6000805460ff60a01b1916600160a01b1790557f62e78cea01bee320cd4e420270b5ea74000d11b0c9f74754ebdbfc544b05a258610c8e3390565b6040805180820182526000808252602080830182905283518085019094528184528301849052909190805b60208301515183511015610fbd57610f5b836110aa565b90925090508160011415610f8a57610f7a610f75846110e4565b6111a1565b6001600160a01b03168452610f44565b8160021415610fae57610fa4610f9f846110e4565b6111b2565b6020850152610f44565b610fb883826111e9565b610f44565b505050919050565b600061101a826040518060400160405280602081526020017f5361666545524332303a206c6f772d6c6576656c2063616c6c206661696c6564815250856001600160a01b031661125b9092919063ffffffff16565b805190915015610c005780806020019051810190611038919061170d565b610c005760405162461bcd60e51b815260206004820152602a60248201527f5361666545524332303a204552433230206f7065726174696f6e20646964206e60448201527f6f7420737563636565640000000000000000000000000000000000000000000060648201526084016102d6565b60008060006110b884611274565b90506110c560088261175c565b92508060071660058111156110dc576110dc61177e565b915050915091565b606060006110f183611274565b905060008184600001516111059190611794565b905083602001515181111561111957600080fd5b8167ffffffffffffffff811115611132576111326117ac565b6040519080825280601f01601f19166020018201604052801561115c576020820181803683370190505b50602080860151865192955091818601919083010160005b8581101561119657818101518382015261118f602082611794565b9050611174565b505050935250919050565b60006111ac826112f6565b92915050565b60006020825111156111c357600080fd5b60208201519050815160206111d89190611745565b6111e39060086117c2565b1c919050565b60008160058111156111fd576111fd61177e565b141561120c57610c0082611274565b60028160058111156112205761122061177e565b141561010057600061123183611274565b905080836000018181516112459190611794565b90525060208301515183511115610c0057600080fd5b606061126a848460008561131e565b90505b9392505050565b602080820151825181019091015160009182805b600a8110156112f05783811a91506112a18160076117c2565b82607f16901b8517945081608016600014156112de576112c2816001611794565b865187906112d1908390611794565b9052509395945050505050565b806112e8816117e1565b915050611288565b50600080fd5b6000815160141461130657600080fd5b50602001516c01000000000000000000000000900490565b6060824710156113965760405162461bcd60e51b815260206004820152602660248201527f416464726573733a20696e73756666696369656e742062616c616e636520666f60448201527f722063616c6c000000000000000000000000000000000000000000000000000060648201526084016102d6565b843b6113e45760405162461bcd60e51b815260206004820152601d60248201527f416464726573733a2063616c6c20746f206e6f6e2d636f6e747261637400000060448201526064016102d6565b600080866001600160a01b0316858760405161140091906117fc565b60006040518083038185875af1925050503d806000811461143d576040519150601f19603f3d011682016040523d82523d6000602084013e611442565b606091505b509150915061145282828661145d565b979650505050505050565b6060831561146c57508161126d565b82511561147c5782518084602001fd5b8160405162461bcd60e51b81526004016102d69190611818565b6000602082840312156114a857600080fd5b5035919050565b6001600160a01b038116811461052c57600080fd5b6000602082840312156114d657600080fd5b813561126d816114af565b600080600080604085870312156114f757600080fd5b843567ffffffffffffffff8082111561150f57600080fd5b818701915087601f83011261152357600080fd5b81358181111561153257600080fd5b88602082850101111561154457600080fd5b60209283019650945090860135908082111561155f57600080fd5b818701915087601f83011261157357600080fd5b81358181111561158257600080fd5b8860208260051b850101111561159757600080fd5b95989497505060200194505050565b6000602082840312156115b857600080fd5b815161126d816114af565b838152818360208301376000910160200190815292915050565b60005b838110156115f85781810151838201526020016115e0565b83811115610bca5750506000910152565b600081518084526116218160208601602086016115dd565b601f01601f19169290920160200192915050565b81835281816020850137506000828201602090810191909152601f909101601f19169091010190565b6040815260006116716040830186611609565b602083820381850152818583528183019050818660051b8401018760005b888110156116fe57858303601f190184528135368b9003601e190181126116b557600080fd5b8a01803567ffffffffffffffff8111156116ce57600080fd5b8036038c13156116dd57600080fd5b6116ea8582898501611635565b95870195945050509084019060010161168f565b50909998505050505050505050565b60006020828403121561171f57600080fd5b8151801515811461126d57600080fd5b634e487b7160e01b600052601160045260246000fd5b6000828210156117575761175761172f565b500390565b60008261177957634e487b7160e01b600052601260045260246000fd5b500490565b634e487b7160e01b600052602160045260246000fd5b600082198211156117a7576117a761172f565b500190565b634e487b7160e01b600052604160045260246000fd5b60008160001904831182151516156117dc576117dc61172f565b500290565b60006000198214156117f5576117f561172f565b5060010190565b6000825161180e8184602087016115dd565b9190910192915050565b60208152600061126d602083018461160956fea26469706673582212204a8805544631df454560b2e1d38c1ec2da23cc6771d0bc71288c7c6c9ea4c5b364736f6c63430008090033",
  "devdoc": {
    "kind": "dev",
    "methods": {
      "claimReward(bytes,bytes[])": {
        "details": "Here we use cumulative reward to make claim process idempotent",
        "params": {
          "_rewardRequest": "reward request bytes coded in protobuf",
          "_sigs": "list of validator signatures"
        }
      },
      "contributeToRewardPool(uint256)": {
        "params": {
          "_amount": "the amount of CELR token to contribute"
        }
      },
      "drainToken(uint256)": {
        "details": "emergency use only",
        "params": {
          "_amount": "drained CELR token amount"
        }
      },
      "owner()": {
        "details": "Returns the address of the current owner."
      },
      "paused()": {
        "details": "Returns true if the contract is paused, and false otherwise."
      },
      "renounceOwnership()": {
        "details": "Leaves the contract without owner. It will not be possible to call `onlyOwner` functions anymore. Can only be called by the current owner. NOTE: Renouncing ownership will leave the contract without an owner, thereby removing any functionality that is only available to the owner."
      },
      "transferOwnership(address)": {
        "details": "Transfers ownership of the contract to a new account (`newOwner`). Can only be called by the current owner."
      }
    },
    "version": 1
  },
  "userdoc": {
    "kind": "user",
    "methods": {
      "claimReward(bytes,bytes[])": {
        "notice": "Claim reward"
      },
      "contributeToRewardPool(uint256)": {
        "notice": "Contribute CELR tokens to the reward pool"
      },
      "drainToken(uint256)": {
        "notice": "Owner drains CELR tokens when the contract is paused"
      }
    },
    "version": 1
  },
  "storageLayout": {
    "storage": [
      {
        "astId": 7,
        "contract": "contracts/StakingReward.sol:StakingReward",
        "label": "_owner",
        "offset": 0,
        "slot": "0",
        "type": "t_address"
      },
      {
        "astId": 121,
        "contract": "contracts/StakingReward.sol:StakingReward",
        "label": "_paused",
        "offset": 20,
        "slot": "0",
        "type": "t_bool"
      },
      {
        "astId": 12142,
        "contract": "contracts/StakingReward.sol:StakingReward",
        "label": "pausers",
        "offset": 0,
        "slot": "1",
        "type": "t_mapping(t_address,t_bool)"
      },
      {
        "astId": 7383,
        "contract": "contracts/StakingReward.sol:StakingReward",
        "label": "claimedRewardAmounts",
        "offset": 0,
        "slot": "2",
        "type": "t_mapping(t_address,t_uint256)"
      }
    ],
    "types": {
      "t_address": {
        "encoding": "inplace",
        "label": "address",
        "numberOfBytes": "20"
      },
      "t_bool": {
        "encoding": "inplace",
        "label": "bool",
        "numberOfBytes": "1"
      },
      "t_mapping(t_address,t_bool)": {
        "encoding": "mapping",
        "key": "t_address",
        "label": "mapping(address => bool)",
        "numberOfBytes": "32",
        "value": "t_bool"
      },
      "t_mapping(t_address,t_uint256)": {
        "encoding": "mapping",
        "key": "t_address",
        "label": "mapping(address => uint256)",
        "numberOfBytes": "32",
        "value": "t_uint256"
      },
      "t_uint256": {
        "encoding": "inplace",
        "label": "uint256",
        "numberOfBytes": "32"
      }
    }
  }
}