{
  "address": "0xb51541df05DE07be38dcfc4a80c05389A54502BB",
  "abi": [
    {
      "anonymous": false,
      "inputs": [
        {
          "indexed": false,
          "internalType": "uint256",
          "name": "period",
          "type": "uint256"
        }
      ],
      "name": "DelayPeriodUpdated",
      "type": "event"
    },
    {
      "anonymous": false,
      "inputs": [
        {
          "indexed": false,
          "internalType": "address",
          "name": "token",
          "type": "address"
        },
        {
          "indexed": false,
          "internalType": "uint256",
          "name": "threshold",
          "type": "uint256"
        }
      ],
      "name": "DelayThresholdUpdated",
      "type": "event"
    },
    {
      "anonymous": false,
      "inputs": [
        {
          "indexed": false,
          "internalType": "bytes32",
          "name": "id",
          "type": "bytes32"
        }
      ],
      "name": "DelayedTransferAdded",
      "type": "event"
    },
    {
      "anonymous": false,
      "inputs": [
        {
          "indexed": false,
          "internalType": "bytes32",
          "name": "id",
          "type": "bytes32"
        },
        {
          "indexed": false,
          "internalType": "address",
          "name": "receiver",
          "type": "address"
        },
        {
          "indexed": false,
          "internalType": "address",
          "name": "token",
          "type": "address"
        },
        {
          "indexed": false,
          "internalType": "uint256",
          "name": "amount",
          "type": "uint256"
        }
      ],
      "name": "DelayedTransferExecuted",
      "type": "event"
    },
    {
      "anonymous": false,
      "inputs": [
        {
          "indexed": false,
          "internalType": "uint256",
          "name": "length",
          "type": "uint256"
        }
      ],
      "name": "EpochLengthUpdated",
      "type": "event"
    },
    {
      "anonymous": false,
      "inputs": [
        {
          "indexed": false,
          "internalType": "address",
          "name": "token",
          "type": "address"
        },
        {
          "indexed": false,
          "internalType": "uint256",
          "name": "cap",
          "type": "uint256"
        }
      ],
      "name": "EpochVolumeUpdated",
      "type": "event"
    },
    {
      "anonymous": false,
      "inputs": [
        {
          "indexed": false,
          "internalType": "address",
          "name": "account",
          "type": "address"
        }
      ],
      "name": "GovernorAdded",
      "type": "event"
    },
    {
      "anonymous": false,
      "inputs": [
        {
          "indexed": false,
          "internalType": "address",
          "name": "account",
          "type": "address"
        }
      ],
      "name": "GovernorRemoved",
      "type": "event"
    },
    {
      "anonymous": false,
      "inputs": [
        {
          "indexed": false,
          "internalType": "uint64",
          "name": "seqnum",
          "type": "uint64"
        },
        {
          "indexed": false,
          "internalType": "address",
          "name": "provider",
          "type": "address"
        },
        {
          "indexed": false,
          "internalType": "address",
          "name": "token",
          "type": "address"
        },
        {
          "indexed": false,
          "internalType": "uint256",
          "name": "amount",
          "type": "uint256"
        }
      ],
      "name": "LiquidityAdded",
      "type": "event"
    },
    {
      "anonymous": false,
      "inputs": [
        {
          "indexed": false,
          "internalType": "address",
          "name": "token",
          "type": "address"
        },
        {
          "indexed": false,
          "internalType": "uint256",
          "name": "amount",
          "type": "uint256"
        }
      ],
      "name": "MaxSendUpdated",
      "type": "event"
    },
    {
      "anonymous": false,
      "inputs": [
        {
          "indexed": false,
          "internalType": "address",
          "name": "token",
          "type": "address"
        },
        {
          "indexed": false,
          "internalType": "uint256",
          "name": "amount",
          "type": "uint256"
        }
      ],
      "name": "MinAddUpdated",
      "type": "event"
    },
    {
      "anonymous": false,
      "inputs": [
        {
          "indexed": false,
          "internalType": "address",
          "name": "token",
          "type": "address"
        },
        {
          "indexed": false,
          "internalType": "uint256",
          "name": "amount",
          "type": "uint256"
        }
      ],
      "name": "MinSendUpdated",
      "type": "event"
    },
    {
      "anonymous": false,
      "inputs": [
        {
          "indexed": true,
          "internalType": "address",
          "name": "previousOwner",
          "type": "address"
        },
        {
          "indexed": true,
          "internalType": "address",
          "name": "newOwner",
          "type": "address"
        }
      ],
      "name": "OwnershipTransferred",
      "type": "event"
    },
    {
      "anonymous": false,
      "inputs": [
        {
          "indexed": false,
          "internalType": "address",
          "name": "account",
          "type": "address"
        }
      ],
      "name": "Paused",
      "type": "event"
    },
    {
      "anonymous": false,
      "inputs": [
        {
          "indexed": false,
          "internalType": "address",
          "name": "account",
          "type": "address"
        }
      ],
      "name": "PauserAdded",
      "type": "event"
    },
    {
      "anonymous": false,
      "inputs": [
        {
          "indexed": false,
          "internalType": "address",
          "name": "account",
          "type": "address"
        }
      ],
      "name": "PauserRemoved",
      "type": "event"
    },
    {
      "anonymous": false,
      "inputs": [
        {
          "indexed": false,
          "internalType": "bytes32",
          "name": "transferId",
          "type": "bytes32"
        },
        {
          "indexed": false,
          "internalType": "address",
          "name": "sender",
          "type": "address"
        },
        {
          "indexed": false,
          "internalType": "address",
          "name": "receiver",
          "type": "address"
        },
        {
          "indexed": false,
          "internalType": "address",
          "name": "token",
          "type": "address"
        },
        {
          "indexed": false,
          "internalType": "uint256",
          "name": "amount",
          "type": "uint256"
        },
        {
          "indexed": false,
          "internalType": "uint64",
          "name": "srcChainId",
          "type": "uint64"
        },
        {
          "indexed": false,
          "internalType": "bytes32",
          "name": "srcTransferId",
          "type": "bytes32"
        }
      ],
      "name": "Relay",
      "type": "event"
    },
    {
      "anonymous": false,
      "inputs": [
        {
          "indexed": false,
          "internalType": "uint256",
          "name": "resetTime",
          "type": "uint256"
        }
      ],
      "name": "ResetNotification",
      "type": "event"
    },
    {
      "anonymous": false,
      "inputs": [
        {
          "indexed": false,
          "internalType": "bytes32",
          "name": "transferId",
          "type": "bytes32"
        },
        {
          "indexed": false,
          "internalType": "address",
          "name": "sender",
          "type": "address"
        },
        {
          "indexed": false,
          "internalType": "address",
          "name": "receiver",
          "type": "address"
        },
        {
          "indexed": false,
          "internalType": "address",
          "name": "token",
          "type": "address"
        },
        {
          "indexed": false,
          "internalType": "uint256",
          "name": "amount",
          "type": "uint256"
        },
        {
          "indexed": false,
          "internalType": "uint64",
          "name": "dstChainId",
          "type": "uint64"
        },
        {
          "indexed": false,
          "internalType": "uint64",
          "name": "nonce",
          "type": "uint64"
        },
        {
          "indexed": false,
          "internalType": "uint32",
          "name": "maxSlippage",
          "type": "uint32"
        }
      ],
      "name": "Send",
      "type": "event"
    },
    {
      "anonymous": false,
      "inputs": [
        {
          "indexed": false,
          "internalType": "address[]",
          "name": "_signers",
          "type": "address[]"
        },
        {
          "indexed": false,
          "internalType": "uint256[]",
          "name": "_powers",
          "type": "uint256[]"
        }
      ],
      "name": "SignersUpdated",
      "type": "event"
    },
    {
      "anonymous": false,
      "inputs": [
        {
          "indexed": false,
          "internalType": "address",
          "name": "account",
          "type": "address"
        }
      ],
      "name": "Unpaused",
      "type": "event"
    },
    {
      "anonymous": false,
      "inputs": [
        {
          "indexed": false,
          "internalType": "bytes32",
          "name": "withdrawId",
          "type": "bytes32"
        },
        {
          "indexed": false,
          "internalType": "uint64",
          "name": "seqnum",
          "type": "uint64"
        },
        {
          "indexed": false,
          "internalType": "address",
          "name": "receiver",
          "type": "address"
        },
        {
          "indexed": false,
          "internalType": "address",
          "name": "token",
          "type": "address"
        },
        {
          "indexed": false,
          "internalType": "uint256",
          "name": "amount",
          "type": "uint256"
        },
        {
          "indexed": false,
          "internalType": "bytes32",
          "name": "refid",
          "type": "bytes32"
        }
      ],
      "name": "WithdrawDone",
      "type": "event"
    },
    {
      "inputs": [
        {
          "internalType": "address",
          "name": "_account",
          "type": "address"
        }
      ],
      "name": "addGovernor",
      "outputs": [],
      "stateMutability": "nonpayable",
      "type": "function"
    },
    {
      "inputs": [
        {
          "internalType": "address",
          "name": "_token",
          "type": "address"
        },
        {
          "internalType": "uint256",
          "name": "_amount",
          "type": "uint256"
        }
      ],
      "name": "addLiquidity",
      "outputs": [],
      "stateMutability": "nonpayable",
      "type": "function"
    },
    {
      "inputs": [
        {
          "internalType": "uint256",
          "name": "_amount",
          "type": "uint256"
        }
      ],
      "name": "addNativeLiquidity",
      "outputs": [],
      "stateMutability": "payable",
      "type": "function"
    },
    {
      "inputs": [
        {
          "internalType": "address",
          "name": "account",
          "type": "address"
        }
      ],
      "name": "addPauser",
      "outputs": [],
      "stateMutability": "nonpayable",
      "type": "function"
    },
    {
      "inputs": [],
      "name": "addseq",
      "outputs": [
        {
          "internalType": "uint64",
          "name": "",
          "type": "uint64"
        }
      ],
      "stateMutability": "view",
      "type": "function"
    },
    {
      "inputs": [],
      "name": "delayPeriod",
      "outputs": [
        {
          "internalType": "uint256",
          "name": "",
          "type": "uint256"
        }
      ],
      "stateMutability": "view",
      "type": "function"
    },
    {
      "inputs": [
        {
          "internalType": "address",
          "name": "",
          "type": "address"
        }
      ],
      "name": "delayThresholds",
      "outputs": [
        {
          "internalType": "uint256",
          "name": "",
          "type": "uint256"
        }
      ],
      "stateMutability": "view",
      "type": "function"
    },
    {
      "inputs": [
        {
          "internalType": "bytes32",
          "name": "",
          "type": "bytes32"
        }
      ],
      "name": "delayedTransfers",
      "outputs": [
        {
          "internalType": "address",
          "name": "receiver",
          "type": "address"
        },
        {
          "internalType": "address",
          "name": "token",
          "type": "address"
        },
        {
          "internalType": "uint256",
          "name": "amount",
          "type": "uint256"
        },
        {
          "internalType": "uint256",
          "name": "timestamp",
          "type": "uint256"
        }
      ],
      "stateMutability": "view",
      "type": "function"
    },
    {
      "inputs": [],
      "name": "epochLength",
      "outputs": [
        {
          "internalType": "uint256",
          "name": "",
          "type": "uint256"
        }
      ],
      "stateMutability": "view",
      "type": "function"
    },
    {
      "inputs": [
        {
          "internalType": "address",
          "name": "",
          "type": "address"
        }
      ],
      "name": "epochVolumeCaps",
      "outputs": [
        {
          "internalType": "uint256",
          "name": "",
          "type": "uint256"
        }
      ],
      "stateMutability": "view",
      "type": "function"
    },
    {
      "inputs": [
        {
          "internalType": "address",
          "name": "",
          "type": "address"
        }
      ],
      "name": "epochVolumes",
      "outputs": [
        {
          "internalType": "uint256",
          "name": "",
          "type": "uint256"
        }
      ],
      "stateMutability": "view",
      "type": "function"
    },
    {
      "inputs": [
        {
          "internalType": "bytes32",
          "name": "id",
          "type": "bytes32"
        }
      ],
      "name": "executeDelayedTransfer",
      "outputs": [],
      "stateMutability": "nonpayable",
      "type": "function"
    },
    {
      "inputs": [
        {
          "internalType": "address",
          "name": "",
          "type": "address"
        }
      ],
      "name": "governors",
      "outputs": [
        {
          "internalType": "bool",
          "name": "",
          "type": "bool"
        }
      ],
      "stateMutability": "view",
      "type": "function"
    },
    {
      "inputs": [
        {
          "internalType": "uint256",
          "name": "period",
          "type": "uint256"
        }
      ],
      "name": "increaseNoticePeriod",
      "outputs": [],
      "stateMutability": "nonpayable",
      "type": "function"
    },
    {
      "inputs": [
        {
          "internalType": "address",
          "name": "_account",
          "type": "address"
        }
      ],
      "name": "isGovernor",
      "outputs": [
        {
          "internalType": "bool",
          "name": "",
          "type": "bool"
        }
      ],
      "stateMutability": "view",
      "type": "function"
    },
    {
      "inputs": [
        {
          "internalType": "address",
          "name": "account",
          "type": "address"
        }
      ],
      "name": "isPauser",
      "outputs": [
        {
          "internalType": "bool",
          "name": "",
          "type": "bool"
        }
      ],
      "stateMutability": "view",
      "type": "function"
    },
    {
      "inputs": [
        {
          "internalType": "address",
          "name": "",
          "type": "address"
        }
      ],
      "name": "lastOpTimestamps",
      "outputs": [
        {
          "internalType": "uint256",
          "name": "",
          "type": "uint256"
        }
      ],
      "stateMutability": "view",
      "type": "function"
    },
    {
      "inputs": [
        {
          "internalType": "address",
          "name": "",
          "type": "address"
        }
      ],
      "name": "maxSend",
      "outputs": [
        {
          "internalType": "uint256",
          "name": "",
          "type": "uint256"
        }
      ],
      "stateMutability": "view",
      "type": "function"
    },
    {
      "inputs": [
        {
          "internalType": "address",
          "name": "",
          "type": "address"
        }
      ],
      "name": "minAdd",
      "outputs": [
        {
          "internalType": "uint256",
          "name": "",
          "type": "uint256"
        }
      ],
      "stateMutability": "view",
      "type": "function"
    },
    {
      "inputs": [
        {
          "internalType": "address",
          "name": "",
          "type": "address"
        }
      ],
      "name": "minSend",
      "outputs": [
        {
          "internalType": "uint256",
          "name": "",
          "type": "uint256"
        }
      ],
      "stateMutability": "view",
      "type": "function"
    },
    {
      "inputs": [],
      "name": "minimalMaxSlippage",
      "outputs": [
        {
          "internalType": "uint32",
          "name": "",
          "type": "uint32"
        }
      ],
      "stateMutability": "view",
      "type": "function"
    },
    {
      "inputs": [],
      "name": "nativeWrap",
      "outputs": [
        {
          "internalType": "address",
          "name": "",
          "type": "address"
        }
      ],
      "stateMutability": "view",
      "type": "function"
    },
    {
      "inputs": [],
      "name": "noticePeriod",
      "outputs": [
        {
          "internalType": "uint256",
          "name": "",
          "type": "uint256"
        }
      ],
      "stateMutability": "view",
      "type": "function"
    },
    {
      "inputs": [],
      "name": "notifyResetSigners",
      "outputs": [],
      "stateMutability": "nonpayable",
      "type": "function"
    },
    {
      "inputs": [],
      "name": "owner",
      "outputs": [
        {
          "internalType": "address",
          "name": "",
          "type": "address"
        }
      ],
      "stateMutability": "view",
      "type": "function"
    },
    {
      "inputs": [],
      "name": "pause",
      "outputs": [],
      "stateMutability": "nonpayable",
      "type": "function"
    },
    {
      "inputs": [],
      "name": "paused",
      "outputs": [
        {
          "internalType": "bool",
          "name": "",
          "type": "bool"
        }
      ],
      "stateMutability": "view",
      "type": "function"
    },
    {
      "inputs": [
        {
          "internalType": "address",
          "name": "",
          "type": "address"
        }
      ],
      "name": "pausers",
      "outputs": [
        {
          "internalType": "bool",
          "name": "",
          "type": "bool"
        }
      ],
      "stateMutability": "view",
      "type": "function"
    },
    {
      "inputs": [
        {
          "internalType": "bytes",
          "name": "_relayRequest",
          "type": "bytes"
        },
        {
          "internalType": "bytes[]",
          "name": "_sigs",
          "type": "bytes[]"
        },
        {
          "internalType": "address[]",
          "name": "_signers",
          "type": "address[]"
        },
        {
          "internalType": "uint256[]",
          "name": "_powers",
          "type": "uint256[]"
        }
      ],
      "name": "relay",
      "outputs": [],
      "stateMutability": "nonpayable",
      "type": "function"
    },
    {
      "inputs": [
        {
          "internalType": "address",
          "name": "_account",
          "type": "address"
        }
      ],
      "name": "removeGovernor",
      "outputs": [],
      "stateMutability": "nonpayable",
      "type": "function"
    },
    {
      "inputs": [
        {
          "internalType": "address",
          "name": "account",
          "type": "address"
        }
      ],
      "name": "removePauser",
      "outputs": [],
      "stateMutability": "nonpayable",
      "type": "function"
    },
    {
      "inputs": [],
      "name": "renounceGovernor",
      "outputs": [],
      "stateMutability": "nonpayable",
      "type": "function"
    },
    {
      "inputs": [],
      "name": "renouncePauser",
      "outputs": [],
      "stateMutability": "nonpayable",
      "type": "function"
    },
    {
      "inputs": [
        {
          "internalType": "address[]",
          "name": "_signers",
          "type": "address[]"
        },
        {
          "internalType": "uint256[]",
          "name": "_powers",
          "type": "uint256[]"
        }
      ],
      "name": "resetSigners",
      "outputs": [],
      "stateMutability": "nonpayable",
      "type": "function"
    },
    {
      "inputs": [],
      "name": "resetTime",
      "outputs": [
        {
          "internalType": "uint256",
          "name": "",
          "type": "uint256"
        }
      ],
      "stateMutability": "view",
      "type": "function"
    },
    {
      "inputs": [
        {
          "internalType": "address",
          "name": "_receiver",
          "type": "address"
        },
        {
          "internalType": "address",
          "name": "_token",
          "type": "address"
        },
        {
          "internalType": "uint256",
          "name": "_amount",
          "type": "uint256"
        },
        {
          "internalType": "uint64",
          "name": "_dstChainId",
          "type": "uint64"
        },
        {
          "internalType": "uint64",
          "name": "_nonce",
          "type": "uint64"
        },
        {
          "internalType": "uint32",
          "name": "_maxSlippage",
          "type": "uint32"
        }
      ],
      "name": "send",
      "outputs": [],
      "stateMutability": "nonpayable",
      "type": "function"
    },
    {
      "inputs": [
        {
          "internalType": "address",
          "name": "_receiver",
          "type": "address"
        },
        {
          "internalType": "uint256",
          "name": "_amount",
          "type": "uint256"
        },
        {
          "internalType": "uint64",
          "name": "_dstChainId",
          "type": "uint64"
        },
        {
          "internalType": "uint64",
          "name": "_nonce",
          "type": "uint64"
        },
        {
          "internalType": "uint32",
          "name": "_maxSlippage",
          "type": "uint32"
        }
      ],
      "name": "sendNative",
      "outputs": [],
      "stateMutability": "payable",
      "type": "function"
    },
    {
      "inputs": [
        {
          "internalType": "uint256",
          "name": "_period",
          "type": "uint256"
        }
      ],
      "name": "setDelayPeriod",
      "outputs": [],
      "stateMutability": "nonpayable",
      "type": "function"
    },
    {
      "inputs": [
        {
          "internalType": "address[]",
          "name": "_tokens",
          "type": "address[]"
        },
        {
          "internalType": "uint256[]",
          "name": "_thresholds",
          "type": "uint256[]"
        }
      ],
      "name": "setDelayThresholds",
      "outputs": [],
      "stateMutability": "nonpayable",
      "type": "function"
    },
    {
      "inputs": [
        {
          "internalType": "uint256",
          "name": "_length",
          "type": "uint256"
        }
      ],
      "name": "setEpochLength",
      "outputs": [],
      "stateMutability": "nonpayable",
      "type": "function"
    },
    {
      "inputs": [
        {
          "internalType": "address[]",
          "name": "_tokens",
          "type": "address[]"
        },
        {
          "internalType": "uint256[]",
          "name": "_caps",
          "type": "uint256[]"
        }
      ],
      "name": "setEpochVolumeCaps",
      "outputs": [],
      "stateMutability": "nonpayable",
      "type": "function"
    },
    {
      "inputs": [
        {
          "internalType": "address[]",
          "name": "_tokens",
          "type": "address[]"
        },
        {
          "internalType": "uint256[]",
          "name": "_amounts",
          "type": "uint256[]"
        }
      ],
      "name": "setMaxSend",
      "outputs": [],
      "stateMutability": "nonpayable",
      "type": "function"
    },
    {
      "inputs": [
        {
          "internalType": "address[]",
          "name": "_tokens",
          "type": "address[]"
        },
        {
          "internalType": "uint256[]",
          "name": "_amounts",
          "type": "uint256[]"
        }
      ],
      "name": "setMinAdd",
      "outputs": [],
      "stateMutability": "nonpayable",
      "type": "function"
    },
    {
      "inputs": [
        {
          "internalType": "address[]",
          "name": "_tokens",
          "type": "address[]"
        },
        {
          "internalType": "uint256[]",
          "name": "_amounts",
          "type": "uint256[]"
        }
      ],
      "name": "setMinSend",
      "outputs": [],
      "stateMutability": "nonpayable",
      "type": "function"
    },
    {
      "inputs": [
        {
          "internalType": "uint32",
          "name": "_minimalMaxSlippage",
          "type": "uint32"
        }
      ],
      "name": "setMinimalMaxSlippage",
      "outputs": [],
      "stateMutability": "nonpayable",
      "type": "function"
    },
    {
      "inputs": [
        {
          "internalType": "address",
          "name": "_weth",
          "type": "address"
        }
      ],
      "name": "setWrap",
      "outputs": [],
      "stateMutability": "nonpayable",
      "type": "function"
    },
    {
      "inputs": [],
      "name": "ssHash",
      "outputs": [
        {
          "internalType": "bytes32",
          "name": "",
          "type": "bytes32"
        }
      ],
      "stateMutability": "view",
      "type": "function"
    },
    {
      "inputs": [
        {
          "internalType": "address",
          "name": "newOwner",
          "type": "address"
        }
      ],
      "name": "transferOwnership",
      "outputs": [],
      "stateMutability": "nonpayable",
      "type": "function"
    },
    {
      "inputs": [
        {
          "internalType": "bytes32",
          "name": "",
          "type": "bytes32"
        }
      ],
      "name": "transfers",
      "outputs": [
        {
          "internalType": "bool",
          "name": "",
          "type": "bool"
        }
      ],
      "stateMutability": "view",
      "type": "function"
    },
    {
      "inputs": [],
      "name": "triggerTime",
      "outputs": [
        {
          "internalType": "uint256",
          "name": "",
          "type": "uint256"
        }
      ],
      "stateMutability": "view",
      "type": "function"
    },
    {
      "inputs": [],
      "name": "unpause",
      "outputs": [],
      "stateMutability": "nonpayable",
      "type": "function"
    },
    {
      "inputs": [
        {
          "internalType": "uint256",
          "name": "_triggerTime",
          "type": "uint256"
        },
        {
          "internalType": "address[]",
          "name": "_newSigners",
          "type": "address[]"
        },
        {
          "internalType": "uint256[]",
          "name": "_newPowers",
          "type": "uint256[]"
        },
        {
          "internalType": "bytes[]",
          "name": "_sigs",
          "type": "bytes[]"
        },
        {
          "internalType": "address[]",
          "name": "_curSigners",
          "type": "address[]"
        },
        {
          "internalType": "uint256[]",
          "name": "_curPowers",
          "type": "uint256[]"
        }
      ],
      "name": "updateSigners",
      "outputs": [],
      "stateMutability": "nonpayable",
      "type": "function"
    },
    {
      "inputs": [
        {
          "internalType": "bytes",
          "name": "_msg",
          "type": "bytes"
        },
        {
          "internalType": "bytes[]",
          "name": "_sigs",
          "type": "bytes[]"
        },
        {
          "internalType": "address[]",
          "name": "_signers",
          "type": "address[]"
        },
        {
          "internalType": "uint256[]",
          "name": "_powers",
          "type": "uint256[]"
        }
      ],
      "name": "verifySigs",
      "outputs": [],
      "stateMutability": "view",
      "type": "function"
    },
    {
      "inputs": [
        {
          "internalType": "bytes",
          "name": "_wdmsg",
          "type": "bytes"
        },
        {
          "internalType": "bytes[]",
          "name": "_sigs",
          "type": "bytes[]"
        },
        {
          "internalType": "address[]",
          "name": "_signers",
          "type": "address[]"
        },
        {
          "internalType": "uint256[]",
          "name": "_powers",
          "type": "uint256[]"
        }
      ],
      "name": "withdraw",
      "outputs": [],
      "stateMutability": "nonpayable",
      "type": "function"
    },
    {
      "inputs": [
        {
          "internalType": "bytes32",
          "name": "",
          "type": "bytes32"
        }
      ],
      "name": "withdraws",
      "outputs": [
        {
          "internalType": "bool",
          "name": "",
          "type": "bool"
        }
      ],
      "stateMutability": "view",
      "type": "function"
    },
    {
      "stateMutability": "payable",
      "type": "receive"
    }
  ],
  "transactionHash": "0xd42a14c29fb99d84ed327f547a6bb81d07055c726421b5bac7e7aa91e6633f72",
  "args": [],
  "numDeployments": 1,
  "solcInputHash": "c7f6837b9b34ae81c84c6196e5ca67c2",
  "bytecode": "0x60806040523480156200001157600080fd5b506200001d3362000048565b60016005556006805460ff19169055620000373362000098565b620000423362000162565b62000222565b600080546001600160a01b038381166001600160a01b0319831681178455604051919092169283917f8be0079c531659141344cd1fd0a4f28419497f9722a3daafe3b4186f6b6457e09190a35050565b6001600160a01b03811660009081526007602052604090205460ff1615620001075760405162461bcd60e51b815260206004820152601960248201527f4163636f756e7420697320616c7265616479207061757365720000000000000060448201526064015b60405180910390fd5b6001600160a01b038116600081815260076020908152604091829020805460ff1916600117905590519182527f6719d08c1888103bea251a4ed56406bd0c3e69723c8a1686e017e7bbe159b6f891015b60405180910390a150565b6001600160a01b03811660009081526008602052604090205460ff1615620001cd5760405162461bcd60e51b815260206004820152601b60248201527f4163636f756e7420697320616c726561647920676f7665726e6f7200000000006044820152606401620000fe565b6001600160a01b038116600081815260086020908152604091829020805460ff1916600117905590519182527fdc5a48d79e2e147530ff63ecdbed5a5a66adb9d5cf339384d5d076da197c40b5910162000157565b61517d80620002326000396000f3fe6080604052600436106103645760003560e01c806382dc1ec4116101c6578063ba2cb25c116100f7578063e43581b811610095578063f20c922a1161006f578063f20c922a14610aaf578063f2fde38b14610acf578063f832138314610aef578063f8b30d7d14610b1c57600080fd5b8063e43581b814610a36578063e999e5f414610a6f578063eecdac8814610a8f57600080fd5b8063d0790da9116100d1578063d0790da9146109ab578063e026049c146109c1578063e09ab428146109d6578063e3eece2614610a0657600080fd5b8063ba2cb25c1461093e578063ccde517a1461095e578063cdd1b25d1461098b57600080fd5b80639ff9001a11610164578063a7bdf45a1161013e578063a7bdf45a14610861578063adc0d57f14610881578063b1c94d94146108fb578063b5f2bc471461091157600080fd5b80639ff9001a14610801578063a21a928014610821578063a5977fbb1461084157600080fd5b806389e39127116101a057806389e39127146107735780638da5cb5b146107ad5780639b14d4c6146107cb5780639e25fc5c146107e157600080fd5b806382dc1ec41461071e5780638456cb591461073e578063878fe1ce1461075357600080fd5b806348234126116102a0578063618ee0551161023e5780636b2c0f55116102185780636b2c0f55146106a65780636ef8d66d146106c65780637044c89e146106db57806380f51c12146106ee57600080fd5b8063618ee0551461064357806365a114f114610670578063682dbc221461068657600080fd5b8063566887001161027a57806356688700146105c857806357d775f8146105e85780635c975abb146105fe57806360216b001461061657600080fd5b8063482341261461055b57806352532faa1461057b57806354eea796146105a857600080fd5b80633c64f04b1161030d5780633f4ba83a116102e75780633f4ba83a146104b5578063457bfa2f146104ca57806346fbf68e1461050257806347b16c6c1461053b57600080fd5b80633c64f04b146104425780633d572107146104825780633f2e5fc3146104a257600080fd5b80632fd1b0a41161033e5780632fd1b0a4146103c7578063370fb47b146103fe5780633c4a25d01461042257600080fd5b8063089927411461037057806317bdbae51461039257806325c38b9f146103b257600080fd5b3661036b57005b600080fd5b34801561037c57600080fd5b5061039061038b3660046148ce565b610b49565b005b34801561039e57600080fd5b506103906103ad3660046148ce565b610cec565b3480156103be57600080fd5b50610390610e83565b3480156103d357600080fd5b506017546103e49063ffffffff1681565b60405163ffffffff90911681526020015b60405180910390f35b34801561040a57600080fd5b5061041460025481565b6040519081526020016103f5565b34801561042e57600080fd5b5061039061043d366004614956565b610f22565b34801561044e57600080fd5b5061047261045d366004614971565b60146020526000908152604090205460ff1681565b60405190151581526020016103f5565b34801561048e57600080fd5b5061039061049d366004614971565b610f85565b6103906104b03660046149b6565b611019565b3480156104c157600080fd5b5061039061126f565b3480156104d657600080fd5b506013546104ea906001600160a01b031681565b6040516001600160a01b0390911681526020016103f5565b34801561050e57600080fd5b5061047261051d366004614956565b6001600160a01b031660009081526007602052604090205460ff1690565b34801561054757600080fd5b506103906105563660046148ce565b6112d8565b34801561056757600080fd5b50610390610576366004614a14565b61146f565b34801561058757600080fd5b50610414610596366004614956565b600e6020526000908152604090205481565b3480156105b457600080fd5b506103906105c3366004614971565b6114e3565b3480156105d457600080fd5b506103906105e3366004614a2f565b611570565b3480156105f457600080fd5b5061041460095481565b34801561060a57600080fd5b5060065460ff16610472565b34801561062257600080fd5b50610414610631366004614956565b600a6020526000908152604090205481565b34801561064f57600080fd5b5061041461065e366004614956565b60166020526000908152604090205481565b34801561067c57600080fd5b5061041460035481565b34801561069257600080fd5b506103906106a1366004614a6f565b611732565b3480156106b257600080fd5b506103906106c1366004614956565b61181e565b3480156106d257600080fd5b5061039061187e565b6103906106e9366004614971565b611887565b3480156106fa57600080fd5b50610472610709366004614956565b60076020526000908152604090205460ff1681565b34801561072a57600080fd5b50610390610739366004614956565b611b39565b34801561074a57600080fd5b50610390611b99565b34801561075f57600080fd5b5061039061076e3660046148ce565b611c00565b34801561077f57600080fd5b506010546107949067ffffffffffffffff1681565b60405167ffffffffffffffff90911681526020016103f5565b3480156107b957600080fd5b506000546001600160a01b03166104ea565b3480156107d757600080fd5b5061041460045481565b3480156107ed57600080fd5b506103906107fc366004614971565b611d97565b34801561080d57600080fd5b5061039061081c366004614956565b611e05565b34801561082d57600080fd5b5061039061083c366004614b9d565b611e7e565b34801561084d57600080fd5b5061039061085c366004614c8c565b6121c5565b34801561086d57600080fd5b5061039061087c3660046148ce565b612313565b34801561088d57600080fd5b506108d061089c366004614971565b600d6020526000908152604090208054600182015460028301546003909301546001600160a01b0392831693919092169184565b604080516001600160a01b0395861681529490931660208501529183015260608201526080016103f5565b34801561090757600080fd5b50610414600f5481565b34801561091d57600080fd5b5061041461092c366004614956565b600b6020526000908152604090205481565b34801561094a57600080fd5b50610390610959366004614cf9565b6123d3565b34801561096a57600080fd5b50610414610979366004614956565b60116020526000908152604090205481565b34801561099757600080fd5b506103906109a6366004614b9d565b612529565b3480156109b757600080fd5b5061041460015481565b3480156109cd57600080fd5b5061039061284e565b3480156109e257600080fd5b506104726109f1366004614971565b60126020526000908152604090205460ff1681565b348015610a1257600080fd5b50610472610a21366004614956565b60086020526000908152604090205460ff1681565b348015610a4257600080fd5b50610472610a51366004614956565b6001600160a01b031660009081526008602052604090205460ff1690565b348015610a7b57600080fd5b50610390610a8a3660046148ce565b612857565b348015610a9b57600080fd5b50610390610aaa366004614956565b6129ee565b348015610abb57600080fd5b50610390610aca366004614971565b612a4e565b348015610adb57600080fd5b50610390610aea366004614956565b612b07565b348015610afb57600080fd5b50610414610b0a366004614956565b600c6020526000908152604090205481565b348015610b2857600080fd5b50610414610b37366004614956565b60156020526000908152604090205481565b3360009081526008602052604090205460ff16610ba65760405162461bcd60e51b815260206004820152601660248201527521b0b63632b91034b9903737ba1033b7bb32b93737b960511b60448201526064015b60405180910390fd5b828114610be75760405162461bcd60e51b815260206004820152600f60248201526e0d8cadccee8d040dad2e6dac2e8c6d608b1b6044820152606401610b9d565b60005b83811015610ce557828282818110610c0457610c04614df9565b9050602002013560156000878785818110610c2157610c21614df9565b9050602002016020810190610c369190614956565b6001600160a01b031681526020810191909152604001600020557f8b59d386e660418a48d742213ad5ce7c4dd51ae81f30e4e2c387f17d907010c9858583818110610c8357610c83614df9565b9050602002016020810190610c989190614956565b848484818110610caa57610caa614df9565b604080516001600160a01b0390951685526020918202939093013590840152500160405180910390a180610cdd81614e25565b915050610bea565b5050505050565b3360009081526008602052604090205460ff16610d445760405162461bcd60e51b815260206004820152601660248201527521b0b63632b91034b9903737ba1033b7bb32b93737b960511b6044820152606401610b9d565b828114610d855760405162461bcd60e51b815260206004820152600f60248201526e0d8cadccee8d040dad2e6dac2e8c6d608b1b6044820152606401610b9d565b60005b83811015610ce557828282818110610da257610da2614df9565b90506020020135600e6000878785818110610dbf57610dbf614df9565b9050602002016020810190610dd49190614956565b6001600160a01b031681526020810191909152604001600020557fceaad6533bfb481492fb3e08ef19297f46611b8fa9de5ef4cf8dc23a56ad09ce858583818110610e2157610e21614df9565b9050602002016020810190610e369190614956565b848484818110610e4857610e48614df9565b604080516001600160a01b0390951685526020918202939093013590840152500160405180910390a180610e7b81614e25565b915050610d88565b33610e966000546001600160a01b031690565b6001600160a01b031614610eda5760405162461bcd60e51b815260206004820181905260248201526000805160206151288339815191526044820152606401610b9d565b600454610ee79042614e40565b60038190556040519081527f68e825132f7d4bc837dea2d64ac9fc19912bf0224b67f9317d8f1a917f5304a1906020015b60405180910390a1565b33610f356000546001600160a01b031690565b6001600160a01b031614610f795760405162461bcd60e51b815260206004820181905260248201526000805160206151288339815191526044820152606401610b9d565b610f8281612be3565b50565b3360009081526008602052604090205460ff16610fdd5760405162461bcd60e51b815260206004820152601660248201527521b0b63632b91034b9903737ba1033b7bb32b93737b960511b6044820152606401610b9d565b600f8190556040518181527fc0a39f234199b125fb93713c4d067bdcebbf691087f87b79c0feb92b156ba8b6906020015b60405180910390a150565b6002600554141561106c5760405162461bcd60e51b815260206004820152601f60248201527f5265656e7472616e637947756172643a207265656e7472616e742063616c6c006044820152606401610b9d565b600260055560065460ff16156110b75760405162461bcd60e51b815260206004820152601060248201526f14185d5cd8589b194e881c185d5cd95960821b6044820152606401610b9d565b8334146110f85760405162461bcd60e51b815260206004820152600f60248201526e082dadeeadce840dad2e6dac2e8c6d608b1b6044820152606401610b9d565b6013546001600160a01b03166111505760405162461bcd60e51b815260206004820152601360248201527f4e61746976652077726170206e6f7420736574000000000000000000000000006044820152606401610b9d565b60135460009061116e9087906001600160a01b031687878787612ca0565b9050601360009054906101000a90046001600160a01b03166001600160a01b031663d0e30db0866040518263ffffffff1660e01b81526004016000604051808303818588803b1580156111c057600080fd5b505af11580156111d4573d6000803e3d6000fd5b5050601354604080518681523360208201526001600160a01b03808d1692820192909252911660608201526080810189905267ffffffffffffffff80891660a0830152871660c082015263ffffffff861660e08201527f89d8051e597ab4178a863a5190407b98abfeff406aa8db90c59af76612e58f01935061010001915061125a9050565b60405180910390a15050600160055550505050565b3360009081526007602052604090205460ff166112ce5760405162461bcd60e51b815260206004820152601460248201527f43616c6c6572206973206e6f74207061757365720000000000000000000000006044820152606401610b9d565b6112d6612ed3565b565b3360009081526008602052604090205460ff166113305760405162461bcd60e51b815260206004820152601660248201527521b0b63632b91034b9903737ba1033b7bb32b93737b960511b6044820152606401610b9d565b8281146113715760405162461bcd60e51b815260206004820152600f60248201526e0d8cadccee8d040dad2e6dac2e8c6d608b1b6044820152606401610b9d565b60005b83811015610ce55782828281811061138e5761138e614df9565b90506020020135600b60008787858181106113ab576113ab614df9565b90506020020160208101906113c09190614956565b6001600160a01b031681526020810191909152604001600020557f608e49c22994f20b5d3496dca088b88dfd81b4a3e8cc3809ea1e10a320107e8985858381811061140d5761140d614df9565b90506020020160208101906114229190614956565b84848481811061143457611434614df9565b604080516001600160a01b0390951685526020918202939093013590840152500160405180910390a18061146781614e25565b915050611374565b3360009081526008602052604090205460ff166114c75760405162461bcd60e51b815260206004820152601660248201527521b0b63632b91034b9903737ba1033b7bb32b93737b960511b6044820152606401610b9d565b6017805463ffffffff191663ffffffff92909216919091179055565b3360009081526008602052604090205460ff1661153b5760405162461bcd60e51b815260206004820152601660248201527521b0b63632b91034b9903737ba1033b7bb32b93737b960511b6044820152606401610b9d565b60098190556040518181527f2664fec2ff76486ac58ed087310855b648b15b9d19f3de8529e95f7c46b7d6b39060200161100e565b600260055414156115c35760405162461bcd60e51b815260206004820152601f60248201527f5265656e7472616e637947756172643a207265656e7472616e742063616c6c006044820152606401610b9d565b600260055560065460ff161561160e5760405162461bcd60e51b815260206004820152601060248201526f14185d5cd8589b194e881c185d5cd95960821b6044820152606401610b9d565b6001600160a01b03821660009081526011602052604090205481116116685760405162461bcd60e51b815260206004820152601060248201526f185b5bdd5b9d081d1bdbc81cdb585b1b60821b6044820152606401610b9d565b601080546001919060009061168890849067ffffffffffffffff16614e58565b92506101000a81548167ffffffffffffffff021916908367ffffffffffffffff1602179055506116ce333083856001600160a01b0316612f6a909392919063ffffffff16565b6010546040805167ffffffffffffffff90921682523360208301526001600160a01b0384168282015260608201839052517fd5d28426c3248963b1719df49aa4c665120372e02c8249bbea03d019c39ce7649181900360800190a150506001600555565b60008484848460405160200161174b9493929190614ef0565b60405160208183030381529060405280519060200120905080600154146117b45760405162461bcd60e51b815260206004820152601860248201527f4d69736d617463682063757272656e74207369676e65727300000000000000006044820152606401610b9d565b87516020808a0191909120604080517f19457468657265756d205369676e6564204d6573736167653a0a33320000000081850152603c8082019390935281518082039093018352605c019052805191012061181490888888888888613002565b5050505050505050565b336118316000546001600160a01b031690565b6001600160a01b0316146118755760405162461bcd60e51b815260206004820181905260248201526000805160206151288339815191526044820152606401610b9d565b610f8281613338565b6112d633613338565b600260055414156118da5760405162461bcd60e51b815260206004820152601f60248201527f5265656e7472616e637947756172643a207265656e7472616e742063616c6c006044820152606401610b9d565b600260055560065460ff16156119255760405162461bcd60e51b815260206004820152601060248201526f14185d5cd8589b194e881c185d5cd95960821b6044820152606401610b9d565b8034146119665760405162461bcd60e51b815260206004820152600f60248201526e082dadeeadce840dad2e6dac2e8c6d608b1b6044820152606401610b9d565b6013546001600160a01b03166119be5760405162461bcd60e51b815260206004820152601360248201527f4e61746976652077726170206e6f7420736574000000000000000000000000006044820152606401610b9d565b6013546001600160a01b03166000908152601160205260409020548111611a1a5760405162461bcd60e51b815260206004820152601060248201526f185b5bdd5b9d081d1bdbc81cdb585b1b60821b6044820152606401610b9d565b6010805460019190600090611a3a90849067ffffffffffffffff16614e58565b92506101000a81548167ffffffffffffffff021916908367ffffffffffffffff160217905550601360009054906101000a90046001600160a01b03166001600160a01b031663d0e30db0826040518263ffffffff1660e01b81526004016000604051808303818588803b158015611ab057600080fd5b505af1158015611ac4573d6000803e3d6000fd5b50506010546013546040805167ffffffffffffffff90931683523360208401526001600160a01b0390911690820152606081018590527fd5d28426c3248963b1719df49aa4c665120372e02c8249bbea03d019c39ce76493506080019150611b299050565b60405180910390a1506001600555565b33611b4c6000546001600160a01b031690565b6001600160a01b031614611b905760405162461bcd60e51b815260206004820181905260248201526000805160206151288339815191526044820152606401610b9d565b610f82816133f1565b3360009081526007602052604090205460ff16611bf85760405162461bcd60e51b815260206004820152601460248201527f43616c6c6572206973206e6f74207061757365720000000000000000000000006044820152606401610b9d565b6112d66134ae565b3360009081526008602052604090205460ff16611c585760405162461bcd60e51b815260206004820152601660248201527521b0b63632b91034b9903737ba1033b7bb32b93737b960511b6044820152606401610b9d565b828114611c995760405162461bcd60e51b815260206004820152600f60248201526e0d8cadccee8d040dad2e6dac2e8c6d608b1b6044820152606401610b9d565b60005b83811015610ce557828282818110611cb657611cb6614df9565b9050602002013560166000878785818110611cd357611cd3614df9565b9050602002016020810190611ce89190614956565b6001600160a01b031681526020810191909152604001600020557f4f12d1a5bfb3ccd3719255d4d299d808d50cdca9a0a5c2b3a5aaa7edde73052c858583818110611d3557611d35614df9565b9050602002016020810190611d4a9190614956565b848484818110611d5c57611d5c614df9565b604080516001600160a01b0390951685526020918202939093013590840152500160405180910390a180611d8f81614e25565b915050611c9c565b60065460ff1615611ddd5760405162461bcd60e51b815260206004820152601060248201526f14185d5cd8589b194e881c185d5cd95960821b6044820152606401610b9d565b6000611de882613529565b9050611e018160000151826020015183604001516136ee565b5050565b33611e186000546001600160a01b031690565b6001600160a01b031614611e5c5760405162461bcd60e51b815260206004820181905260248201526000805160206151288339815191526044820152606401610b9d565b601380546001600160a01b0319166001600160a01b0392909216919091179055565b60065460ff1615611ec45760405162461bcd60e51b815260206004820152601060248201526f14185d5cd8589b194e881c185d5cd95960821b6044820152606401610b9d565b60004630604051602001611f1a92919091825260601b6bffffffffffffffffffffffff191660208201527f57697468647261774d73670000000000000000000000000000000000000000006034820152603f0190565b604051602081830303815290604052805190602001209050611f64818a8a604051602001611f4a93929190614f11565b604051602081830303815290604052888888888888611732565b6000611fa58a8a8080601f01602080910402602001604051908101604052809392919081815260200183838082843760009201919091525061382392505050565b905060008160000151826020015183604001518460600151856080015160405160200161201e95949392919060c095861b6001600160c01b031990811682529490951b9093166008850152606091821b6bffffffffffffffffffffffff199081166010860152911b166024830152603882015260580190565b60408051601f1981840301815291815281516020928301206000818152601290935291205490915060ff16156120965760405162461bcd60e51b815260206004820152601a60248201527f776974686472617720616c7265616479207375636365656465640000000000006044820152606401610b9d565b6000818152601260205260409020805460ff19166001179055606082015160808301516120c39190613983565b60608201516001600160a01b03166000908152600e602052604090205480158015906120f25750808360800151115b156121145761210f82846040015185606001518660800151613a9b565b61212b565b61212b8360400151846060015185608001516136ee565b7f48a1ab26f3aa7b62bb6b6e8eed182f292b84eb7b006c0254386b268af20774be8284602001518560400151866060015187608001518860a001516040516121af9695949392919095865267ffffffffffffffff9490941660208601526001600160a01b03928316604086015291166060840152608083015260a082015260c00190565b60405180910390a1505050505050505050505050565b600260055414156122185760405162461bcd60e51b815260206004820152601f60248201527f5265656e7472616e637947756172643a207265656e7472616e742063616c6c006044820152606401610b9d565b600260055560065460ff16156122635760405162461bcd60e51b815260206004820152601060248201526f14185d5cd8589b194e881c185d5cd95960821b6044820152606401610b9d565b6000612273878787878787612ca0565b905061228a6001600160a01b038716333088612f6a565b604080518281523360208201526001600160a01b0389811682840152881660608201526080810187905267ffffffffffffffff86811660a0830152851660c082015263ffffffff841660e082015290517f89d8051e597ab4178a863a5190407b98abfeff406aa8db90c59af76612e58f01918190036101000190a1505060016005555050505050565b336123266000546001600160a01b031690565b6001600160a01b03161461236a5760405162461bcd60e51b815260206004820181905260248201526000805160206151288339815191526044820152606401610b9d565b60035442116123bb5760405162461bcd60e51b815260206004820152601460248201527f6e6f742072656163682072657365742074696d650000000000000000000000006044820152606401610b9d565b6000196003556123cd84848484613bae565b50505050565b6002548b116124245760405162461bcd60e51b815260206004820152601e60248201527f547269676765722074696d65206973206e6f7420696e6372656173696e6700006044820152606401610b9d565b61243042610e10614e40565b8b1061247e5760405162461bcd60e51b815260206004820152601960248201527f547269676765722074696d6520697320746f6f206c61726765000000000000006044820152606401610b9d565b600046306040516020016124d492919091825260601b6bffffffffffffffffffffffff191660208201527f5570646174655369676e65727300000000000000000000000000000000000000603482015260410190565b60405160208183030381529060405280519060200120905061250a818d8d8d8d8d604051602001611f4a96959493929190614f2b565b6125168b8b8b8b613bae565b5050506002989098555050505050505050565b60065460ff161561256f5760405162461bcd60e51b815260206004820152601060248201526f14185d5cd8589b194e881c185d5cd95960821b6044820152606401610b9d565b600046306040516020016125c592919091825260601b6bffffffffffffffffffffffff191660208201527f52656c6179000000000000000000000000000000000000000000000000000000603482015260390190565b6040516020818303038152906040528051906020012090506125f5818a8a604051602001611f4a93929190614f11565b60006126368a8a8080601f016020809104026020016040519081016040528093929190818152602001838380828437600092019190915250613d5892505050565b8051602080830151604080850151606080870151608088015160a089015160c0808b015187519a861b6bffffffffffffffffffffffff199081168c8c015298861b891660348c01529590941b9096166048890152605c880191909152811b6001600160c01b0319908116607c88015293901b9092166084850152608c808501929092528051808503909201825260ac909301835280519082012060008181526014909252919020549192509060ff16156127245760405162461bcd60e51b815260206004820152600f60248201526e7472616e736665722065786973747360881b6044820152606401610b9d565b60008181526014602052604090819020805460ff1916600117905582015160608301516127519190613983565b6040808301516001600160a01b03166000908152600e6020522054801580159061277e5750808360600151115b156127a05761279b82846020015185604001518660600151613a9b565b6127b7565b6127b78360200151846040015185606001516136ee565b7f79fa08de5149d912dce8e5e8da7a7c17ccdf23dd5d3bfe196802e6eb86347c7c82846000015185602001518660400151876060015188608001518960c001516040516121af97969594939291909687526001600160a01b0395861660208801529385166040870152919093166060850152608084019290925267ffffffffffffffff9190911660a083015260c082015260e00190565b6112d633613ed0565b3360009081526008602052604090205460ff166128af5760405162461bcd60e51b815260206004820152601660248201527521b0b63632b91034b9903737ba1033b7bb32b93737b960511b6044820152606401610b9d565b8281146128f05760405162461bcd60e51b815260206004820152600f60248201526e0d8cadccee8d040dad2e6dac2e8c6d608b1b6044820152606401610b9d565b60005b83811015610ce55782828281811061290d5761290d614df9565b905060200201356011600087878581811061292a5761292a614df9565b905060200201602081019061293f9190614956565b6001600160a01b031681526020810191909152604001600020557fc56b0d14c4940515800d94ebbd0f3f5d8cc58ba1109c12536bd993b72e466e4f85858381811061298c5761298c614df9565b90506020020160208101906129a19190614956565b8484848181106129b3576129b3614df9565b604080516001600160a01b0390951685526020918202939093013590840152500160405180910390a1806129e681614e25565b9150506128f3565b33612a016000546001600160a01b031690565b6001600160a01b031614612a455760405162461bcd60e51b815260206004820181905260248201526000805160206151288339815191526044820152606401610b9d565b610f8281613ed0565b33612a616000546001600160a01b031690565b6001600160a01b031614612aa55760405162461bcd60e51b815260206004820181905260248201526000805160206151288339815191526044820152606401610b9d565b6004548111612b025760405162461bcd60e51b815260206004820152602360248201527f6e6f7469636520706572696f642063616e206f6e6c7920626520696e637265616044820152621cd95960ea1b6064820152608401610b9d565b600455565b33612b1a6000546001600160a01b031690565b6001600160a01b031614612b5e5760405162461bcd60e51b815260206004820181905260248201526000805160206151288339815191526044820152606401610b9d565b6001600160a01b038116612bda5760405162461bcd60e51b815260206004820152602660248201527f4f776e61626c653a206e6577206f776e657220697320746865207a65726f206160448201527f64647265737300000000000000000000000000000000000000000000000000006064820152608401610b9d565b610f8281613f89565b6001600160a01b03811660009081526008602052604090205460ff1615612c4c5760405162461bcd60e51b815260206004820152601b60248201527f4163636f756e7420697320616c726561647920676f7665726e6f7200000000006044820152606401610b9d565b6001600160a01b038116600081815260086020908152604091829020805460ff1916600117905590519182527fdc5a48d79e2e147530ff63ecdbed5a5a66adb9d5cf339384d5d076da197c40b5910161100e565b6001600160a01b0385166000908152601560205260408120548511612cfa5760405162461bcd60e51b815260206004820152601060248201526f185b5bdd5b9d081d1bdbc81cdb585b1b60821b6044820152606401610b9d565b6001600160a01b0386166000908152601660205260409020541580612d3757506001600160a01b0386166000908152601660205260409020548511155b612d835760405162461bcd60e51b815260206004820152601060248201527f616d6f756e7420746f6f206c61726765000000000000000000000000000000006044820152606401610b9d565b60175463ffffffff90811690831611612dde5760405162461bcd60e51b815260206004820152601660248201527f6d617820736c69707061676520746f6f20736d616c6c000000000000000000006044820152606401610b9d565b6040516bffffffffffffffffffffffff1933606090811b8216602084015289811b8216603484015288901b166048820152605c81018690526001600160c01b031960c086811b8216607c84015285811b8216608484015246901b16608c82015260009060940160408051601f1981840301815291815281516020928301206000818152601490935291205490915060ff1615612eae5760405162461bcd60e51b815260206004820152600f60248201526e7472616e736665722065786973747360881b6044820152606401610b9d565b6000818152601460205260409020805460ff1916600117905590509695505050505050565b60065460ff16612f255760405162461bcd60e51b815260206004820152601460248201527f5061757361626c653a206e6f74207061757365640000000000000000000000006044820152606401610b9d565b6006805460ff191690557f5db9ee0a495bf2e6ff9c91a7834c1ba4fdd244a5e8aa4e537bd38aeae4b073aa335b6040516001600160a01b039091168152602001610f18565b6040516001600160a01b03808516602483015283166044820152606481018290526123cd9085906323b872dd60e01b906084015b60408051601f198184030181529190526020810180517bffffffffffffffffffffffffffffffffffffffffffffffffffffffff167fffffffff0000000000000000000000000000000000000000000000000000000090931692909217909152613fd9565b82811461305d5760405162461bcd60e51b815260206004820152602360248201527f7369676e65727320616e6420706f77657273206c656e677468206e6f74206d616044820152620e8c6d60eb1b6064820152608401610b9d565b6000805b848110156130a15783838281811061307b5761307b614df9565b905060200201358261308d9190614e40565b91508061309981614e25565b915050613061565b50600060036130b1836002614f53565b6130bb9190614f72565b6130c6906001614e40565b905060008080805b8a8110156132e65760006131518d8d848181106130ed576130ed614df9565b90506020028101906130ff9190614f94565b8080601f016020809104026020016040519081016040528093929190818152602001838380828437600081840152601f19601f820116905080830192505050505050508f6140be90919063ffffffff16565b9050836001600160a01b0316816001600160a01b0316116131b45760405162461bcd60e51b815260206004820152601e60248201527f7369676e657273206e6f7420696e20617363656e64696e67206f7264657200006044820152606401610b9d565b8093505b8a8a848181106131ca576131ca614df9565b90506020020160208101906131df9190614956565b6001600160a01b0316816001600160a01b0316111561325957613203600184614e40565b92508983106132545760405162461bcd60e51b815260206004820152601060248201527f7369676e6572206e6f7420666f756e64000000000000000000000000000000006044820152606401610b9d565b6131b8565b8a8a8481811061326b5761326b614df9565b90506020020160208101906132809190614956565b6001600160a01b0316816001600160a01b031614156132c0578888848181106132ab576132ab614df9565b90506020020135856132bd9190614e40565b94505b8585106132d3575050505050505061332f565b50806132de81614e25565b9150506130ce565b5060405162461bcd60e51b815260206004820152601260248201527f71756f72756d206e6f74207265616368656400000000000000000000000000006044820152606401610b9d565b50505050505050565b6001600160a01b03811660009081526007602052604090205460ff166133a05760405162461bcd60e51b815260206004820152601560248201527f4163636f756e74206973206e6f742070617573657200000000000000000000006044820152606401610b9d565b6001600160a01b038116600081815260076020908152604091829020805460ff1916905590519182527fcd265ebaf09df2871cc7bd4133404a235ba12eff2041bb89d9c714a2621c7c7e910161100e565b6001600160a01b03811660009081526007602052604090205460ff161561345a5760405162461bcd60e51b815260206004820152601960248201527f4163636f756e7420697320616c726561647920706175736572000000000000006044820152606401610b9d565b6001600160a01b038116600081815260076020908152604091829020805460ff1916600117905590519182527f6719d08c1888103bea251a4ed56406bd0c3e69723c8a1686e017e7bbe159b6f8910161100e565b60065460ff16156134f45760405162461bcd60e51b815260206004820152601060248201526f14185d5cd8589b194e881c185d5cd95960821b6044820152606401610b9d565b6006805460ff191660011790557f62e78cea01bee320cd4e420270b5ea74000d11b0c9f74754ebdbfc544b05a258612f523390565b6040805160808101825260008082526020820181905291810182905260608101919091526000828152600d6020908152604091829020825160808101845281546001600160a01b03908116825260018301541692810192909252600281015492820192909252600390910154606082018190526135e85760405162461bcd60e51b815260206004820152601a60248201527f64656c61796564207472616e73666572206e6f742065786973740000000000006044820152606401610b9d565b600f5481606001516135fa9190614e40565b42116136485760405162461bcd60e51b815260206004820152601d60248201527f64656c61796564207472616e73666572207374696c6c206c6f636b65640000006044820152606401610b9d565b6000838152600d6020908152604080832080546001600160a01b03199081168255600182018054909116905560028101849055600301929092558251908301518383015192517f3b40e5089937425d14cdd96947e5661868357e224af59bd8b24a4b8a330d4426936136e093889390929091909384526001600160a01b03928316602085015291166040830152606082015260800190565b60405180910390a192915050565b6013546001600160a01b038381169116141561380a57601354604051632e1a7d4d60e01b8152600481018390526001600160a01b0390911690632e1a7d4d90602401600060405180830381600087803b15801561374a57600080fd5b505af115801561375e573d6000803e3d6000fd5b505050506000836001600160a01b03168261c35090604051600060405180830381858888f193505050503d80600081146137b4576040519150601f19603f3d011682016040523d82523d6000602084013e6137b9565b606091505b50509050806123cd5760405162461bcd60e51b815260206004820152601b60248201527f6661696c656420746f2073656e64206e617469766520746f6b656e00000000006044820152606401610b9d565b61381e6001600160a01b03831684836140e2565b505050565b6040805160c08101825260008082526020808301829052828401829052606083018290526080830182905260a0830182905283518085019094528184528301849052909190805b6020830151518351101561397b5761388183614112565b909250905081600114156138a9576138988361414c565b67ffffffffffffffff16845261386a565b81600214156138cf576138bb8361414c565b67ffffffffffffffff16602085015261386a565b81600314156138fc576138e96138e4846141ce565b61428b565b6001600160a01b0316604085015261386a565b8160041415613924576139116138e4846141ce565b6001600160a01b0316606085015261386a565b81600514156139485761393e613939846141ce565b61429c565b608085015261386a565b816006141561396c5761396261395d846141ce565b6142d3565b60a085015261386a565b61397683826142eb565b61386a565b505050919050565b60095461398e575050565b6001600160a01b0382166000908152600b6020526040902054806139b157505050565b6001600160a01b0383166000908152600a6020526040812054600954909142916139db8184614f72565b6139e59190614f53565b6001600160a01b0387166000908152600c6020526040902054909150811115613a1057849250613a1d565b613a1a8584614e40565b92505b83831115613a6d5760405162461bcd60e51b815260206004820152601260248201527f766f6c756d6520657863656564732063617000000000000000000000000000006044820152606401610b9d565b506001600160a01b039094166000908152600a6020908152604080832093909355600c905220929092555050565b6000848152600d602052604090206003015415613afa5760405162461bcd60e51b815260206004820152601f60248201527f64656c61796564207472616e7366657220616c726561647920657869737473006044820152606401610b9d565b604080516080810182526001600160a01b0380861682528481166020808401918252838501868152426060860190815260008b8152600d90935291869020945185549085166001600160a01b031991821617865592516001860180549190951693169290921790925551600283015551600390910155517fcbcfffe5102114216a85d3aceb14ad4b81a3935b1b5c468fadf3889eb9c5dce690613ba09086815260200190565b60405180910390a150505050565b828114613c095760405162461bcd60e51b815260206004820152602360248201527f7369676e65727320616e6420706f77657273206c656e677468206e6f74206d616044820152620e8c6d60eb1b6064820152608401610b9d565b6000805b84811015613ce257816001600160a01b0316868683818110613c3157613c31614df9565b9050602002016020810190613c469190614956565b6001600160a01b031611613ca75760405162461bcd60e51b815260206004820152602260248201527f4e6577207369676e657273206e6f7420696e20617363656e64696e67206f726460448201526132b960f11b6064820152608401610b9d565b858582818110613cb957613cb9614df9565b9050602002016020810190613cce9190614956565b915080613cda81614e25565b915050613c0d565b5084848484604051602001613cfa9493929190614ef0565b60408051601f198184030181529082905280516020909101206001557ff126123539a68393c55697f617e7d1148e371988daed246c2f41da99965a23f890613d49908790879087908790614fdb565b60405180910390a15050505050565b6040805160e08101825260008082526020808301829052828401829052606083018290526080830182905260a0830182905260c0830182905283518085019094528184528301849052909190805b6020830151518351101561397b57613dbd83614112565b90925090508160011415613de757613dd76138e4846141ce565b6001600160a01b03168452613da6565b8160021415613e0f57613dfc6138e4846141ce565b6001600160a01b03166020850152613da6565b8160031415613e3757613e246138e4846141ce565b6001600160a01b03166040850152613da6565b8160041415613e5657613e4c613939846141ce565b6060850152613da6565b8160051415613e7c57613e688361414c565b67ffffffffffffffff166080850152613da6565b8160061415613ea257613e8e8361414c565b67ffffffffffffffff1660a0850152613da6565b8160071415613ec157613eb761395d846141ce565b60c0850152613da6565b613ecb83826142eb565b613da6565b6001600160a01b03811660009081526008602052604090205460ff16613f385760405162461bcd60e51b815260206004820152601760248201527f4163636f756e74206973206e6f7420676f7665726e6f720000000000000000006044820152606401610b9d565b6001600160a01b038116600081815260086020908152604091829020805460ff1916905590519182527f1ebe834e73d60a5fec822c1e1727d34bc79f2ad977ed504581cc1822fe20fb5b910161100e565b600080546001600160a01b038381166001600160a01b0319831681178455604051919092169283917f8be0079c531659141344cd1fd0a4f28419497f9722a3daafe3b4186f6b6457e09190a35050565b600061402e826040518060400160405280602081526020017f5361666545524332303a206c6f772d6c6576656c2063616c6c206661696c6564815250856001600160a01b031661435d9092919063ffffffff16565b80519091501561381e578080602001905181019061404c919061505d565b61381e5760405162461bcd60e51b815260206004820152602a60248201527f5361666545524332303a204552433230206f7065726174696f6e20646964206e60448201527f6f742073756363656564000000000000000000000000000000000000000000006064820152608401610b9d565b60008060006140cd8585614376565b915091506140da816143e6565b509392505050565b6040516001600160a01b03831660248201526044810182905261381e90849063a9059cbb60e01b90606401612f9e565b60008060006141208461414c565b905061412d600882614f72565b92508060071660058111156141445761414461507f565b915050915091565b602080820151825181019091015160009182805b600a8110156141c85783811a9150614179816007614f53565b82607f16901b8517945081608016600014156141b65761419a816001614e40565b865187906141a9908390614e40565b9052509395945050505050565b806141c081614e25565b915050614160565b50600080fd5b606060006141db8361414c565b905060008184600001516141ef9190614e40565b905083602001515181111561420357600080fd5b8167ffffffffffffffff81111561421c5761421c614a59565b6040519080825280601f01601f191660200182016040528015614246576020820181803683370190505b50602080860151865192955091818601919083010160005b85811015614280578181015183820152614279602082614e40565b905061425e565b505050935250919050565b6000614296826145a1565b92915050565b60006020825111156142ad57600080fd5b60208201519050815160206142c29190615095565b6142cd906008614f53565b1c919050565b600081516020146142e357600080fd5b506020015190565b60008160058111156142ff576142ff61507f565b141561430e5761381e8261414c565b60028160058111156143225761432261507f565b141561036b5760006143338361414c565b905080836000018181516143479190614e40565b9052506020830151518351111561381e57600080fd5b606061436c84846000856145c9565b90505b9392505050565b6000808251604114156143ad5760208301516040840151606085015160001a6143a187828585614711565b945094505050506143df565b8251604014156143d757602083015160408401516143cc8683836147fe565b9350935050506143df565b506000905060025b9250929050565b60008160048111156143fa576143fa61507f565b14156144035750565b60018160048111156144175761441761507f565b14156144655760405162461bcd60e51b815260206004820152601860248201527f45434453413a20696e76616c6964207369676e617475726500000000000000006044820152606401610b9d565b60028160048111156144795761447961507f565b14156144c75760405162461bcd60e51b815260206004820152601f60248201527f45434453413a20696e76616c6964207369676e6174757265206c656e677468006044820152606401610b9d565b60038160048111156144db576144db61507f565b14156145345760405162461bcd60e51b815260206004820152602260248201527f45434453413a20696e76616c6964207369676e6174757265202773272076616c604482015261756560f01b6064820152608401610b9d565b60048160048111156145485761454861507f565b1415610f825760405162461bcd60e51b815260206004820152602260248201527f45434453413a20696e76616c6964207369676e6174757265202776272076616c604482015261756560f01b6064820152608401610b9d565b600081516014146145b157600080fd5b50602001516c01000000000000000000000000900490565b6060824710156146415760405162461bcd60e51b815260206004820152602660248201527f416464726573733a20696e73756666696369656e742062616c616e636520666f60448201527f722063616c6c00000000000000000000000000000000000000000000000000006064820152608401610b9d565b6001600160a01b0385163b6146985760405162461bcd60e51b815260206004820152601d60248201527f416464726573733a2063616c6c20746f206e6f6e2d636f6e74726163740000006044820152606401610b9d565b600080866001600160a01b031685876040516146b491906150d8565b60006040518083038185875af1925050503d80600081146146f1576040519150601f19603f3d011682016040523d82523d6000602084013e6146f6565b606091505b5091509150614706828286614850565b979650505050505050565b6000807f7fffffffffffffffffffffffffffffff5d576e7357a4501ddfe92f46681b20a083111561474857506000905060036147f5565b8460ff16601b1415801561476057508460ff16601c14155b1561477157506000905060046147f5565b6040805160008082526020820180845289905260ff881692820192909252606081018690526080810185905260019060a0016020604051602081039080840390855afa1580156147c5573d6000803e3d6000fd5b5050604051601f1901519150506001600160a01b0381166147ee576000600192509250506147f5565b9150600090505b94509492505050565b6000807f7fffffffffffffffffffffffffffffffffffffffffffffffffffffffffffffff83168161483460ff86901c601b614e40565b905061484287828885614711565b935093505050935093915050565b6060831561485f57508161436f565b82511561486f5782518084602001fd5b8160405162461bcd60e51b8152600401610b9d91906150f4565b60008083601f84011261489b57600080fd5b50813567ffffffffffffffff8111156148b357600080fd5b6020830191508360208260051b85010111156143df57600080fd5b600080600080604085870312156148e457600080fd5b843567ffffffffffffffff808211156148fc57600080fd5b61490888838901614889565b9096509450602087013591508082111561492157600080fd5b5061492e87828801614889565b95989497509550505050565b80356001600160a01b038116811461495157600080fd5b919050565b60006020828403121561496857600080fd5b61436f8261493a565b60006020828403121561498357600080fd5b5035919050565b803567ffffffffffffffff8116811461495157600080fd5b803563ffffffff8116811461495157600080fd5b600080600080600060a086880312156149ce57600080fd5b6149d78661493a565b9450602086013593506149ec6040870161498a565b92506149fa6060870161498a565b9150614a08608087016149a2565b90509295509295909350565b600060208284031215614a2657600080fd5b61436f826149a2565b60008060408385031215614a4257600080fd5b614a4b8361493a565b946020939093013593505050565b634e487b7160e01b600052604160045260246000fd5b60008060008060008060006080888a031215614a8a57600080fd5b873567ffffffffffffffff80821115614aa257600080fd5b818a0191508a601f830112614ab657600080fd5b813581811115614ac857614ac8614a59565b604051601f8201601f19908116603f01168101908382118183101715614af057614af0614a59565b816040528281528d6020848701011115614b0957600080fd5b82602086016020830137600094508460208483010152809b5050505060208a013581811115614b36578283fd5b614b428c828d01614889565b90995097505060408a013581811115614b59578283fd5b614b658c828d01614889565b90975095505060608a013581811115614b7c578283fd5b614b888c828d01614889565b9a9d999c50979a509598949794955050505050565b6000806000806000806000806080898b031215614bb957600080fd5b883567ffffffffffffffff80821115614bd157600080fd5b818b0191508b601f830112614be557600080fd5b813581811115614bf457600080fd5b8c6020828501011115614c0657600080fd5b60209283019a509850908a01359080821115614c2157600080fd5b614c2d8c838d01614889565b909850965060408b0135915080821115614c4657600080fd5b614c528c838d01614889565b909650945060608b0135915080821115614c6b57600080fd5b50614c788b828c01614889565b999c989b5096995094979396929594505050565b60008060008060008060c08789031215614ca557600080fd5b614cae8761493a565b9550614cbc6020880161493a565b945060408701359350614cd16060880161498a565b9250614cdf6080880161498a565b9150614ced60a088016149a2565b90509295509295509295565b600080600080600080600080600080600060c08c8e031215614d1a57600080fd5b8b359a5067ffffffffffffffff8060208e01351115614d3857600080fd5b614d488e60208f01358f01614889565b909b50995060408d0135811015614d5e57600080fd5b614d6e8e60408f01358f01614889565b909950975060608d0135811015614d8457600080fd5b614d948e60608f01358f01614889565b909750955060808d0135811015614daa57600080fd5b614dba8e60808f01358f01614889565b909550935060a08d0135811015614dd057600080fd5b50614de18d60a08e01358e01614889565b81935080925050509295989b509295989b9093969950565b634e487b7160e01b600052603260045260246000fd5b634e487b7160e01b600052601160045260246000fd5b6000600019821415614e3957614e39614e0f565b5060010190565b60008219821115614e5357614e53614e0f565b500190565b600067ffffffffffffffff808316818516808303821115614e7b57614e7b614e0f565b01949350505050565b60008160005b84811015614eb9576001600160a01b03614ea38361493a565b1686526020958601959190910190600101614e8a565b5093949350505050565b60006001600160fb1b03831115614ed957600080fd5b8260051b8083863760009401938452509192915050565b6000614f07614f00838789614e84565b8486614ec3565b9695505050505050565b838152818360208301376000910160200190815292915050565b8681528560208201526000614f47614f00604084018789614e84565b98975050505050505050565b6000816000190483118215151615614f6d57614f6d614e0f565b500290565b600082614f8f57634e487b7160e01b600052601260045260246000fd5b500490565b6000808335601e19843603018112614fab57600080fd5b83018035915067ffffffffffffffff821115614fc657600080fd5b6020019150368190038213156143df57600080fd5b6040808252810184905260008560608301825b8781101561501c576001600160a01b036150078461493a565b16825260209283019290910190600101614fee565b5083810360208501528481526001600160fb1b0385111561503c57600080fd5b8460051b915081866020830137600091016020019081529695505050505050565b60006020828403121561506f57600080fd5b8151801515811461436f57600080fd5b634e487b7160e01b600052602160045260246000fd5b6000828210156150a7576150a7614e0f565b500390565b60005b838110156150c75781810151838201526020016150af565b838111156123cd5750506000910152565b600082516150ea8184602087016150ac565b9190910192915050565b60208152600082518060208401526151138160408501602087016150ac565b601f01601f1916919091016040019291505056fe4f776e61626c653a2063616c6c6572206973206e6f7420746865206f776e6572a26469706673582212202f1d6c73133dd28c8da310c6114da610d41eeb43f71cf6dec1226fc55d364c5f64736f6c63430008090033",
  "devdoc": {
    "kind": "dev",
    "methods": {
      "addLiquidity(address,uint256)": {
        "params": {
          "_amount": "The amount to add.",
          "_token": "The address of the token."
        }
      },
      "addNativeLiquidity(uint256)": {
        "params": {
          "_amount": "The amount to add."
        }
      },
      "owner()": {
        "details": "Returns the address of the current owner."
      },
      "paused()": {
        "details": "Returns true if the contract is paused, and false otherwise."
      },
      "relay(bytes,bytes[],address[],uint256[])": {
        "params": {
          "_powers": "The signing powers of the signers.",
          "_relayRequest": "The serialized Relay protobuf.",
          "_signers": "The sorted list of signers.",
          "_sigs": "The list of signatures sorted by signing addresses in ascending order. A relay must be signed-off by +2/3 of the bridge's current signing power to be delivered."
        }
      },
      "send(address,address,uint256,uint64,uint64,uint32)": {
        "params": {
          "_amount": "The amount of the transfer.",
          "_dstChainId": "The destination chain ID.",
          "_maxSlippage": "The max slippage accepted, given as percentage in point (pip). Eg. 5000 means 0.5%. Must be greater than minimalMaxSlippage. Receiver is guaranteed to receive at least (100% - max slippage percentage) * amount or the transfer can be refunded.",
          "_nonce": "A number input to guarantee uniqueness of transferId. Can be timestamp in practice.",
          "_receiver": "The address of the receiver.",
          "_token": "The address of the token."
        }
      },
      "sendNative(address,uint256,uint64,uint64,uint32)": {
        "params": {
          "_amount": "The amount of the transfer.",
          "_dstChainId": "The destination chain ID.",
          "_maxSlippage": "The max slippage accepted, given as percentage in point (pip). Eg. 5000 means 0.5%. Must be greater than minimalMaxSlippage. Receiver is guaranteed to receive at least (100% - max slippage percentage) * amount or the transfer can be refunded.",
          "_nonce": "A unique number. Can be timestamp in practice.",
          "_receiver": "The address of the receiver."
        }
      },
      "transferOwnership(address)": {
        "details": "Transfers ownership of the contract to a new account (`newOwner`). Can only be called by the current owner."
      },
      "updateSigners(uint256,address[],uint256[],bytes[],address[],uint256[])": {
        "params": {
          "_curPowers": "powers of current signers",
          "_curSigners": "sorted list of current signers",
          "_newSigners": "sorted list of new signers",
          "_sigs": "list of signatures sorted by signer addresses in ascending order"
        }
      },
      "verifySigs(bytes,bytes[],address[],uint256[])": {
        "params": {
          "_msg": "signed message",
          "_powers": "powers of current signers",
          "_signers": "sorted list of current signers",
          "_sigs": "list of signatures sorted by signer addresses in ascending order"
        }
      },
      "withdraw(bytes,bytes[],address[],uint256[])": {
        "params": {
          "_powers": "The signing powers of the signers.",
          "_signers": "The sorted list of signers.",
          "_sigs": "The list of signatures sorted by signing addresses in ascending order. A withdrawal must be signed-off by +2/3 of the bridge's current signing power to be delivered.",
          "_wdmsg": "The serialized Withdraw protobuf."
        }
      }
    },
    "title": "The liquidity-pool based bridge.",
    "version": 1
  },
  "userdoc": {
    "kind": "user",
    "methods": {
      "addLiquidity(address,uint256)": {
        "notice": "Add liquidity to the pool-based bridge. NOTE: This function DOES NOT SUPPORT fee-on-transfer / rebasing tokens."
      },
      "addNativeLiquidity(uint256)": {
        "notice": "Add native token liquidity to the pool-based bridge."
      },
      "relay(bytes,bytes[],address[],uint256[])": {
        "notice": "Relay a cross-chain transfer sent from a liquidity pool-based bridge on another chain."
      },
      "resetSigners(address[],uint256[])": {
        "notice": "reset signers, only used for init setup and emergency recovery"
      },
      "send(address,address,uint256,uint64,uint64,uint32)": {
        "notice": "Send a cross-chain transfer via the liquidity pool-based bridge. NOTE: This function DOES NOT SUPPORT fee-on-transfer / rebasing tokens."
      },
      "sendNative(address,uint256,uint64,uint64,uint32)": {
        "notice": "Send a cross-chain transfer via the liquidity pool-based bridge using the native token."
      },
      "updateSigners(uint256,address[],uint256[],bytes[],address[],uint256[])": {
        "notice": "Update new signers."
      },
      "verifySigs(bytes,bytes[],address[],uint256[])": {
        "notice": "Verifies that a message is signed by a quorum among the signers The sigs must be sorted by signer addresses in ascending order."
      },
      "withdraw(bytes,bytes[],address[],uint256[])": {
        "notice": "Withdraw funds from the bridge pool."
      }
    },
    "version": 1
  },
  "storageLayout": {
    "storage": [
      {
        "astId": 20601,
        "contract": "contracts/liquidity-bridge/Bridge.sol:Bridge",
        "label": "_owner",
        "offset": 0,
        "slot": "0",
        "type": "t_address"
      },
      {
        "astId": 9053,
        "contract": "contracts/liquidity-bridge/Bridge.sol:Bridge",
        "label": "ssHash",
        "offset": 0,
        "slot": "1",
        "type": "t_bytes32"
      },
      {
        "astId": 9055,
        "contract": "contracts/liquidity-bridge/Bridge.sol:Bridge",
        "label": "triggerTime",
        "offset": 0,
        "slot": "2",
        "type": "t_uint256"
      },
      {
        "astId": 9057,
        "contract": "contracts/liquidity-bridge/Bridge.sol:Bridge",
        "label": "resetTime",
        "offset": 0,
        "slot": "3",
        "type": "t_uint256"
      },
      {
        "astId": 9059,
        "contract": "contracts/liquidity-bridge/Bridge.sol:Bridge",
        "label": "noticePeriod",
        "offset": 0,
        "slot": "4",
        "type": "t_uint256"
      },
      {
        "astId": 207,
        "contract": "contracts/liquidity-bridge/Bridge.sol:Bridge",
        "label": "_status",
        "offset": 0,
        "slot": "5",
        "type": "t_uint256"
      },
      {
        "astId": 122,
        "contract": "contracts/liquidity-bridge/Bridge.sol:Bridge",
        "label": "_paused",
        "offset": 0,
        "slot": "6",
        "type": "t_bool"
      },
      {
        "astId": 20715,
        "contract": "contracts/liquidity-bridge/Bridge.sol:Bridge",
        "label": "pausers",
        "offset": 0,
        "slot": "7",
        "type": "t_mapping(t_address,t_bool)"
      },
      {
        "astId": 20474,
        "contract": "contracts/liquidity-bridge/Bridge.sol:Bridge",
        "label": "governors",
        "offset": 0,
        "slot": "8",
        "type": "t_mapping(t_address,t_bool)"
      },
      {
        "astId": 20862,
        "contract": "contracts/liquidity-bridge/Bridge.sol:Bridge",
        "label": "epochLength",
        "offset": 0,
        "slot": "9",
        "type": "t_uint256"
      },
      {
        "astId": 20866,
        "contract": "contracts/liquidity-bridge/Bridge.sol:Bridge",
        "label": "epochVolumes",
        "offset": 0,
        "slot": "10",
        "type": "t_mapping(t_address,t_uint256)"
      },
      {
        "astId": 20870,
        "contract": "contracts/liquidity-bridge/Bridge.sol:Bridge",
        "label": "epochVolumeCaps",
        "offset": 0,
        "slot": "11",
        "type": "t_mapping(t_address,t_uint256)"
      },
      {
        "astId": 20874,
        "contract": "contracts/liquidity-bridge/Bridge.sol:Bridge",
        "label": "lastOpTimestamps",
        "offset": 0,
        "slot": "12",
        "type": "t_mapping(t_address,t_uint256)"
      },
      {
        "astId": 20275,
        "contract": "contracts/liquidity-bridge/Bridge.sol:Bridge",
        "label": "delayedTransfers",
        "offset": 0,
        "slot": "13",
        "type": "t_mapping(t_bytes32,t_struct(delayedTransfer)20270_storage)"
      },
      {
        "astId": 20279,
        "contract": "contracts/liquidity-bridge/Bridge.sol:Bridge",
        "label": "delayThresholds",
        "offset": 0,
        "slot": "14",
        "type": "t_mapping(t_address,t_uint256)"
      },
      {
        "astId": 20281,
        "contract": "contracts/liquidity-bridge/Bridge.sol:Bridge",
        "label": "delayPeriod",
        "offset": 0,
        "slot": "15",
        "type": "t_uint256"
      },
      {
        "astId": 8612,
        "contract": "contracts/liquidity-bridge/Bridge.sol:Bridge",
        "label": "addseq",
        "offset": 0,
        "slot": "16",
        "type": "t_uint64"
      },
      {
        "astId": 8616,
        "contract": "contracts/liquidity-bridge/Bridge.sol:Bridge",
        "label": "minAdd",
        "offset": 0,
        "slot": "17",
        "type": "t_mapping(t_address,t_uint256)"
      },
      {
        "astId": 8620,
        "contract": "contracts/liquidity-bridge/Bridge.sol:Bridge",
        "label": "withdraws",
        "offset": 0,
        "slot": "18",
        "type": "t_mapping(t_bytes32,t_bool)"
      },
      {
        "astId": 8622,
        "contract": "contracts/liquidity-bridge/Bridge.sol:Bridge",
        "label": "nativeWrap",
        "offset": 0,
        "slot": "19",
        "type": "t_address"
      },
      {
        "astId": 7845,
        "contract": "contracts/liquidity-bridge/Bridge.sol:Bridge",
        "label": "transfers",
        "offset": 0,
        "slot": "20",
        "type": "t_mapping(t_bytes32,t_bool)"
      },
      {
        "astId": 7849,
        "contract": "contracts/liquidity-bridge/Bridge.sol:Bridge",
        "label": "minSend",
        "offset": 0,
        "slot": "21",
        "type": "t_mapping(t_address,t_uint256)"
      },
      {
        "astId": 7853,
        "contract": "contracts/liquidity-bridge/Bridge.sol:Bridge",
        "label": "maxSend",
        "offset": 0,
        "slot": "22",
        "type": "t_mapping(t_address,t_uint256)"
      },
      {
        "astId": 7855,
        "contract": "contracts/liquidity-bridge/Bridge.sol:Bridge",
        "label": "minimalMaxSlippage",
        "offset": 0,
        "slot": "23",
        "type": "t_uint32"
      }
    ],
    "types": {
      "t_address": {
        "encoding": "inplace",
        "label": "address",
        "numberOfBytes": "20"
      },
      "t_bool": {
        "encoding": "inplace",
        "label": "bool",
        "numberOfBytes": "1"
      },
      "t_bytes32": {
        "encoding": "inplace",
        "label": "bytes32",
        "numberOfBytes": "32"
      },
      "t_mapping(t_address,t_bool)": {
        "encoding": "mapping",
        "key": "t_address",
        "label": "mapping(address => bool)",
        "numberOfBytes": "32",
        "value": "t_bool"
      },
      "t_mapping(t_address,t_uint256)": {
        "encoding": "mapping",
        "key": "t_address",
        "label": "mapping(address => uint256)",
        "numberOfBytes": "32",
        "value": "t_uint256"
      },
      "t_mapping(t_bytes32,t_bool)": {
        "encoding": "mapping",
        "key": "t_bytes32",
        "label": "mapping(bytes32 => bool)",
        "numberOfBytes": "32",
        "value": "t_bool"
      },
      "t_mapping(t_bytes32,t_struct(delayedTransfer)20270_storage)": {
        "encoding": "mapping",
        "key": "t_bytes32",
        "label": "mapping(bytes32 => struct DelayedTransfer.delayedTransfer)",
        "numberOfBytes": "32",
        "value": "t_struct(delayedTransfer)20270_storage"
      },
      "t_struct(delayedTransfer)20270_storage": {
        "encoding": "inplace",
        "label": "struct DelayedTransfer.delayedTransfer",
        "members": [
          {
            "astId": 20263,
            "contract": "contracts/liquidity-bridge/Bridge.sol:Bridge",
            "label": "receiver",
            "offset": 0,
            "slot": "0",
            "type": "t_address"
          },
          {
            "astId": 20265,
            "contract": "contracts/liquidity-bridge/Bridge.sol:Bridge",
            "label": "token",
            "offset": 0,
            "slot": "1",
            "type": "t_address"
          },
          {
            "astId": 20267,
            "contract": "contracts/liquidity-bridge/Bridge.sol:Bridge",
            "label": "amount",
            "offset": 0,
            "slot": "2",
            "type": "t_uint256"
          },
          {
            "astId": 20269,
            "contract": "contracts/liquidity-bridge/Bridge.sol:Bridge",
            "label": "timestamp",
            "offset": 0,
            "slot": "3",
            "type": "t_uint256"
          }
        ],
        "numberOfBytes": "128"
      },
      "t_uint256": {
        "encoding": "inplace",
        "label": "uint256",
        "numberOfBytes": "32"
      },
      "t_uint32": {
        "encoding": "inplace",
        "label": "uint32",
        "numberOfBytes": "4"
      },
      "t_uint64": {
        "encoding": "inplace",
        "label": "uint64",
        "numberOfBytes": "8"
      }
    }
  }
}