{
  "address": "0x6e380ad5D15249eF2DE576E3189fc49B5713BE4f",
  "abi": [
    {
      "inputs": [
        {
          "internalType": "address",
          "name": "_messageBus",
          "type": "address"
        }
      ],
      "stateMutability": "nonpayable",
      "type": "constructor"
    },
    {
      "anonymous": false,
      "inputs": [
        {
          "indexed": false,
          "internalType": "bytes32",
          "name": "quoteHash",
          "type": "bytes32"
        },
        {
          "indexed": false,
          "internalType": "address",
          "name": "receiver",
          "type": "address"
        },
        {
          "indexed": false,
          "internalType": "address",
          "name": "dstToken",
          "type": "address"
        },
        {
          "indexed": false,
          "internalType": "uint256",
          "name": "amount",
          "type": "uint256"
        }
      ],
      "name": "DstTransferred",
      "type": "event"
    },
    {
      "anonymous": false,
      "inputs": [
        {
          "indexed": false,
          "internalType": "address",
          "name": "treasuryAddr",
          "type": "address"
        },
        {
          "indexed": false,
          "internalType": "address",
          "name": "token",
          "type": "address"
        },
        {
          "indexed": false,
          "internalType": "uint256",
          "name": "amount",
          "type": "uint256"
        }
      ],
      "name": "FeeCollected",
      "type": "event"
    },
    {
      "anonymous": false,
      "inputs": [
        {
          "indexed": false,
          "internalType": "uint64[]",
          "name": "chainIds",
          "type": "uint64[]"
        },
        {
          "indexed": false,
          "internalType": "uint32[]",
          "name": "feePercs",
          "type": "uint32[]"
        }
      ],
      "name": "FeePercUpdated",
      "type": "event"
    },
    {
      "anonymous": false,
      "inputs": [
        {
          "indexed": false,
          "internalType": "address",
          "name": "account",
          "type": "address"
        }
      ],
      "name": "GovernorAdded",
      "type": "event"
    },
    {
      "anonymous": false,
      "inputs": [
        {
          "indexed": false,
          "internalType": "address",
          "name": "account",
          "type": "address"
        }
      ],
      "name": "GovernorRemoved",
      "type": "event"
    },
    {
      "anonymous": false,
      "inputs": [
        {
          "indexed": false,
          "internalType": "address",
          "name": "messageBus",
          "type": "address"
        }
      ],
      "name": "MessageBusUpdated",
      "type": "event"
    },
    {
      "anonymous": false,
      "inputs": [
        {
          "indexed": true,
          "internalType": "address",
          "name": "previousOwner",
          "type": "address"
        },
        {
          "indexed": true,
          "internalType": "address",
          "name": "newOwner",
          "type": "address"
        }
      ],
      "name": "OwnershipTransferred",
      "type": "event"
    },
    {
      "anonymous": false,
      "inputs": [
        {
          "indexed": false,
          "internalType": "address",
          "name": "account",
          "type": "address"
        }
      ],
      "name": "Paused",
      "type": "event"
    },
    {
      "anonymous": false,
      "inputs": [
        {
          "indexed": false,
          "internalType": "address",
          "name": "account",
          "type": "address"
        }
      ],
      "name": "PauserAdded",
      "type": "event"
    },
    {
      "anonymous": false,
      "inputs": [
        {
          "indexed": false,
          "internalType": "address",
          "name": "account",
          "type": "address"
        }
      ],
      "name": "PauserRemoved",
      "type": "event"
    },
    {
      "anonymous": false,
      "inputs": [
        {
          "indexed": false,
          "internalType": "bytes32",
          "name": "quoteHash",
          "type": "bytes32"
        }
      ],
      "name": "RefundInitiated",
      "type": "event"
    },
    {
      "anonymous": false,
      "inputs": [
        {
          "indexed": false,
          "internalType": "bytes32",
          "name": "quoteHash",
          "type": "bytes32"
        },
        {
          "indexed": false,
          "internalType": "address",
          "name": "refundTo",
          "type": "address"
        },
        {
          "indexed": false,
          "internalType": "address",
          "name": "srcToken",
          "type": "address"
        },
        {
          "indexed": false,
          "internalType": "uint256",
          "name": "amount",
          "type": "uint256"
        }
      ],
      "name": "Refunded",
      "type": "event"
    },
    {
      "anonymous": false,
      "inputs": [
        {
          "indexed": false,
          "internalType": "uint64[]",
          "name": "chainIds",
          "type": "uint64[]"
        },
        {
          "indexed": false,
          "internalType": "address[]",
          "name": "remoteRfqContracts",
          "type": "address[]"
        }
      ],
      "name": "RfqContractsUpdated",
      "type": "event"
    },
    {
      "anonymous": false,
      "inputs": [
        {
          "indexed": false,
          "internalType": "bytes32",
          "name": "quoteHash",
          "type": "bytes32"
        },
        {
          "components": [
            {
              "internalType": "uint64",
              "name": "srcChainId",
              "type": "uint64"
            },
            {
              "internalType": "address",
              "name": "srcToken",
              "type": "address"
            },
            {
              "internalType": "uint256",
              "name": "srcAmount",
              "type": "uint256"
            },
            {
              "internalType": "uint256",
              "name": "srcReleaseAmount",
              "type": "uint256"
            },
            {
              "internalType": "uint64",
              "name": "dstChainId",
              "type": "uint64"
            },
            {
              "internalType": "address",
              "name": "dstToken",
              "type": "address"
            },
            {
              "internalType": "uint256",
              "name": "dstAmount",
              "type": "uint256"
            },
            {
              "internalType": "uint64",
              "name": "deadline",
              "type": "uint64"
            },
            {
              "internalType": "uint64",
              "name": "nonce",
              "type": "uint64"
            },
            {
              "internalType": "address",
              "name": "sender",
              "type": "address"
            },
            {
              "internalType": "address",
              "name": "receiver",
              "type": "address"
            },
            {
              "internalType": "address",
              "name": "refundTo",
              "type": "address"
            },
            {
              "internalType": "address",
              "name": "liquidityProvider",
              "type": "address"
            }
          ],
          "indexed": false,
          "internalType": "struct RFQ.Quote",
          "name": "quote",
          "type": "tuple"
        }
      ],
      "name": "SrcDeposited",
      "type": "event"
    },
    {
      "anonymous": false,
      "inputs": [
        {
          "indexed": false,
          "internalType": "bytes32",
          "name": "quoteHash",
          "type": "bytes32"
        },
        {
          "indexed": false,
          "internalType": "address",
          "name": "liquidityProvider",
          "type": "address"
        },
        {
          "indexed": false,
          "internalType": "address",
          "name": "srcToken",
          "type": "address"
        },
        {
          "indexed": false,
          "internalType": "uint256",
          "name": "amount",
          "type": "uint256"
        }
      ],
      "name": "SrcReleased",
      "type": "event"
    },
    {
      "anonymous": false,
      "inputs": [
        {
          "indexed": false,
          "internalType": "address",
          "name": "treasuryAddr",
          "type": "address"
        }
      ],
      "name": "TreasuryAddrUpdated",
      "type": "event"
    },
    {
      "anonymous": false,
      "inputs": [
        {
          "indexed": false,
          "internalType": "address",
          "name": "account",
          "type": "address"
        }
      ],
      "name": "Unpaused",
      "type": "event"
    },
    {
      "inputs": [
        {
          "internalType": "address",
          "name": "_account",
          "type": "address"
        }
      ],
      "name": "addGovernor",
      "outputs": [],
      "stateMutability": "nonpayable",
      "type": "function"
    },
    {
      "inputs": [
        {
          "internalType": "address",
          "name": "account",
          "type": "address"
        }
      ],
      "name": "addPauser",
      "outputs": [],
      "stateMutability": "nonpayable",
      "type": "function"
    },
    {
      "inputs": [
        {
          "internalType": "address",
          "name": "_token",
          "type": "address"
        }
      ],
      "name": "collectFee",
      "outputs": [],
      "stateMutability": "nonpayable",
      "type": "function"
    },
    {
      "inputs": [
        {
          "components": [
            {
              "internalType": "uint64",
              "name": "srcChainId",
              "type": "uint64"
            },
            {
              "internalType": "address",
              "name": "srcToken",
              "type": "address"
            },
            {
              "internalType": "uint256",
              "name": "srcAmount",
              "type": "uint256"
            },
            {
              "internalType": "uint256",
              "name": "srcReleaseAmount",
              "type": "uint256"
            },
            {
              "internalType": "uint64",
              "name": "dstChainId",
              "type": "uint64"
            },
            {
              "internalType": "address",
              "name": "dstToken",
              "type": "address"
            },
            {
              "internalType": "uint256",
              "name": "dstAmount",
              "type": "uint256"
            },
            {
              "internalType": "uint64",
              "name": "deadline",
              "type": "uint64"
            },
            {
              "internalType": "uint64",
              "name": "nonce",
              "type": "uint64"
            },
            {
              "internalType": "address",
              "name": "sender",
              "type": "address"
            },
            {
              "internalType": "address",
              "name": "receiver",
              "type": "address"
            },
            {
              "internalType": "address",
              "name": "refundTo",
              "type": "address"
            },
            {
              "internalType": "address",
              "name": "liquidityProvider",
              "type": "address"
            }
          ],
          "internalType": "struct RFQ.Quote",
          "name": "_quote",
          "type": "tuple"
        }
      ],
      "name": "dstTransfer",
      "outputs": [],
      "stateMutability": "payable",
      "type": "function"
    },
    {
      "inputs": [
        {
          "components": [
            {
              "internalType": "uint64",
              "name": "srcChainId",
              "type": "uint64"
            },
            {
              "internalType": "address",
              "name": "srcToken",
              "type": "address"
            },
            {
              "internalType": "uint256",
              "name": "srcAmount",
              "type": "uint256"
            },
            {
              "internalType": "uint256",
              "name": "srcReleaseAmount",
              "type": "uint256"
            },
            {
              "internalType": "uint64",
              "name": "dstChainId",
              "type": "uint64"
            },
            {
              "internalType": "address",
              "name": "dstToken",
              "type": "address"
            },
            {
              "internalType": "uint256",
              "name": "dstAmount",
              "type": "uint256"
            },
            {
              "internalType": "uint64",
              "name": "deadline",
              "type": "uint64"
            },
            {
              "internalType": "uint64",
              "name": "nonce",
              "type": "uint64"
            },
            {
              "internalType": "address",
              "name": "sender",
              "type": "address"
            },
            {
              "internalType": "address",
              "name": "receiver",
              "type": "address"
            },
            {
              "internalType": "address",
              "name": "refundTo",
              "type": "address"
            },
            {
              "internalType": "address",
              "name": "liquidityProvider",
              "type": "address"
            }
          ],
          "internalType": "struct RFQ.Quote",
          "name": "_quote",
          "type": "tuple"
        }
      ],
      "name": "dstTransferNative",
      "outputs": [],
      "stateMutability": "payable",
      "type": "function"
    },
    {
      "inputs": [
        {
          "internalType": "bytes",
          "name": "_sender",
          "type": "bytes"
        },
        {
          "internalType": "uint64",
          "name": "_srcChainId",
          "type": "uint64"
        },
        {
          "internalType": "bytes",
          "name": "_message",
          "type": "bytes"
        },
        {
          "internalType": "address",
          "name": "_executor",
          "type": "address"
        }
      ],
      "name": "executeMessage",
      "outputs": [
        {
          "internalType": "enum IMessageReceiverApp.ExecutionStatus",
          "name": "",
          "type": "uint8"
        }
      ],
      "stateMutability": "payable",
      "type": "function"
    },
    {
      "inputs": [
        {
          "internalType": "address",
          "name": "_sender",
          "type": "address"
        },
        {
          "internalType": "uint64",
          "name": "_srcChainId",
          "type": "uint64"
        },
        {
          "internalType": "bytes",
          "name": "_message",
          "type": "bytes"
        },
        {
          "internalType": "address",
          "name": "",
          "type": "address"
        }
      ],
      "name": "executeMessage",
      "outputs": [
        {
          "internalType": "enum IMessageReceiverApp.ExecutionStatus",
          "name": "",
          "type": "uint8"
        }
      ],
      "stateMutability": "payable",
      "type": "function"
    },
    {
      "inputs": [
        {
          "internalType": "address",
          "name": "_sender",
          "type": "address"
        },
        {
          "internalType": "address",
          "name": "_token",
          "type": "address"
        },
        {
          "internalType": "uint256",
          "name": "_amount",
          "type": "uint256"
        },
        {
          "internalType": "uint64",
          "name": "_srcChainId",
          "type": "uint64"
        },
        {
          "internalType": "bytes",
          "name": "_message",
          "type": "bytes"
        },
        {
          "internalType": "address",
          "name": "_executor",
          "type": "address"
        }
      ],
      "name": "executeMessageWithTransfer",
      "outputs": [
        {
          "internalType": "enum IMessageReceiverApp.ExecutionStatus",
          "name": "",
          "type": "uint8"
        }
      ],
      "stateMutability": "payable",
      "type": "function"
    },
    {
      "inputs": [
        {
          "internalType": "address",
          "name": "_sender",
          "type": "address"
        },
        {
          "internalType": "address",
          "name": "_token",
          "type": "address"
        },
        {
          "internalType": "uint256",
          "name": "_amount",
          "type": "uint256"
        },
        {
          "internalType": "uint64",
          "name": "_srcChainId",
          "type": "uint64"
        },
        {
          "internalType": "bytes",
          "name": "_message",
          "type": "bytes"
        },
        {
          "internalType": "address",
          "name": "_executor",
          "type": "address"
        }
      ],
      "name": "executeMessageWithTransferFallback",
      "outputs": [
        {
          "internalType": "enum IMessageReceiverApp.ExecutionStatus",
          "name": "",
          "type": "uint8"
        }
      ],
      "stateMutability": "payable",
      "type": "function"
    },
    {
      "inputs": [
        {
          "internalType": "address",
          "name": "_token",
          "type": "address"
        },
        {
          "internalType": "uint256",
          "name": "_amount",
          "type": "uint256"
        },
        {
          "internalType": "bytes",
          "name": "_message",
          "type": "bytes"
        },
        {
          "internalType": "address",
          "name": "_executor",
          "type": "address"
        }
      ],
      "name": "executeMessageWithTransferRefund",
      "outputs": [
        {
          "internalType": "enum IMessageReceiverApp.ExecutionStatus",
          "name": "",
          "type": "uint8"
        }
      ],
      "stateMutability": "payable",
      "type": "function"
    },
    {
      "inputs": [
        {
          "components": [
            {
              "internalType": "uint64",
              "name": "srcChainId",
              "type": "uint64"
            },
            {
              "internalType": "address",
              "name": "srcToken",
              "type": "address"
            },
            {
              "internalType": "uint256",
              "name": "srcAmount",
              "type": "uint256"
            },
            {
              "internalType": "uint256",
              "name": "srcReleaseAmount",
              "type": "uint256"
            },
            {
              "internalType": "uint64",
              "name": "dstChainId",
              "type": "uint64"
            },
            {
              "internalType": "address",
              "name": "dstToken",
              "type": "address"
            },
            {
              "internalType": "uint256",
              "name": "dstAmount",
              "type": "uint256"
            },
            {
              "internalType": "uint64",
              "name": "deadline",
              "type": "uint64"
            },
            {
              "internalType": "uint64",
              "name": "nonce",
              "type": "uint64"
            },
            {
              "internalType": "address",
              "name": "sender",
              "type": "address"
            },
            {
              "internalType": "address",
              "name": "receiver",
              "type": "address"
            },
            {
              "internalType": "address",
              "name": "refundTo",
              "type": "address"
            },
            {
              "internalType": "address",
              "name": "liquidityProvider",
              "type": "address"
            }
          ],
          "internalType": "struct RFQ.Quote",
          "name": "_quote",
          "type": "tuple"
        },
        {
          "internalType": "bytes",
          "name": "_execMsgCallData",
          "type": "bytes"
        }
      ],
      "name": "executeRefund",
      "outputs": [],
      "stateMutability": "nonpayable",
      "type": "function"
    },
    {
      "inputs": [
        {
          "components": [
            {
              "internalType": "uint64",
              "name": "srcChainId",
              "type": "uint64"
            },
            {
              "internalType": "address",
              "name": "srcToken",
              "type": "address"
            },
            {
              "internalType": "uint256",
              "name": "srcAmount",
              "type": "uint256"
            },
            {
              "internalType": "uint256",
              "name": "srcReleaseAmount",
              "type": "uint256"
            },
            {
              "internalType": "uint64",
              "name": "dstChainId",
              "type": "uint64"
            },
            {
              "internalType": "address",
              "name": "dstToken",
              "type": "address"
            },
            {
              "internalType": "uint256",
              "name": "dstAmount",
              "type": "uint256"
            },
            {
              "internalType": "uint64",
              "name": "deadline",
              "type": "uint64"
            },
            {
              "internalType": "uint64",
              "name": "nonce",
              "type": "uint64"
            },
            {
              "internalType": "address",
              "name": "sender",
              "type": "address"
            },
            {
              "internalType": "address",
              "name": "receiver",
              "type": "address"
            },
            {
              "internalType": "address",
              "name": "refundTo",
              "type": "address"
            },
            {
              "internalType": "address",
              "name": "liquidityProvider",
              "type": "address"
            }
          ],
          "internalType": "struct RFQ.Quote",
          "name": "_quote",
          "type": "tuple"
        },
        {
          "internalType": "bytes",
          "name": "_execMsgCallData",
          "type": "bytes"
        }
      ],
      "name": "executeRefundNative",
      "outputs": [],
      "stateMutability": "nonpayable",
      "type": "function"
    },
    {
      "inputs": [],
      "name": "feePercGlobal",
      "outputs": [
        {
          "internalType": "uint32",
          "name": "",
          "type": "uint32"
        }
      ],
      "stateMutability": "view",
      "type": "function"
    },
    {
      "inputs": [
        {
          "internalType": "uint64",
          "name": "",
          "type": "uint64"
        }
      ],
      "name": "feePercOverride",
      "outputs": [
        {
          "internalType": "uint32",
          "name": "",
          "type": "uint32"
        }
      ],
      "stateMutability": "view",
      "type": "function"
    },
    {
      "inputs": [
        {
          "internalType": "bytes",
          "name": "_message",
          "type": "bytes"
        }
      ],
      "name": "getMsgFee",
      "outputs": [
        {
          "internalType": "uint256",
          "name": "",
          "type": "uint256"
        }
      ],
      "stateMutability": "view",
      "type": "function"
    },
    {
      "inputs": [
        {
          "components": [
            {
              "internalType": "uint64",
              "name": "srcChainId",
              "type": "uint64"
            },
            {
              "internalType": "address",
              "name": "srcToken",
              "type": "address"
            },
            {
              "internalType": "uint256",
              "name": "srcAmount",
              "type": "uint256"
            },
            {
              "internalType": "uint256",
              "name": "srcReleaseAmount",
              "type": "uint256"
            },
            {
              "internalType": "uint64",
              "name": "dstChainId",
              "type": "uint64"
            },
            {
              "internalType": "address",
              "name": "dstToken",
              "type": "address"
            },
            {
              "internalType": "uint256",
              "name": "dstAmount",
              "type": "uint256"
            },
            {
              "internalType": "uint64",
              "name": "deadline",
              "type": "uint64"
            },
            {
              "internalType": "uint64",
              "name": "nonce",
              "type": "uint64"
            },
            {
              "internalType": "address",
              "name": "sender",
              "type": "address"
            },
            {
              "internalType": "address",
              "name": "receiver",
              "type": "address"
            },
            {
              "internalType": "address",
              "name": "refundTo",
              "type": "address"
            },
            {
              "internalType": "address",
              "name": "liquidityProvider",
              "type": "address"
            }
          ],
          "internalType": "struct RFQ.Quote",
          "name": "_quote",
          "type": "tuple"
        }
      ],
      "name": "getQuoteHash",
      "outputs": [
        {
          "internalType": "bytes32",
          "name": "",
          "type": "bytes32"
        }
      ],
      "stateMutability": "pure",
      "type": "function"
    },
    {
      "inputs": [
        {
          "internalType": "uint64",
          "name": "_chainId",
          "type": "uint64"
        },
        {
          "internalType": "uint256",
          "name": "_amount",
          "type": "uint256"
        }
      ],
      "name": "getRfqFee",
      "outputs": [
        {
          "internalType": "uint256",
          "name": "",
          "type": "uint256"
        }
      ],
      "stateMutability": "view",
      "type": "function"
    },
    {
      "inputs": [
        {
          "internalType": "address",
          "name": "",
          "type": "address"
        }
      ],
      "name": "governors",
      "outputs": [
        {
          "internalType": "bool",
          "name": "",
          "type": "bool"
        }
      ],
      "stateMutability": "view",
      "type": "function"
    },
    {
      "inputs": [
        {
          "internalType": "address",
          "name": "_account",
          "type": "address"
        }
      ],
      "name": "isGovernor",
      "outputs": [
        {
          "internalType": "bool",
          "name": "",
          "type": "bool"
        }
      ],
      "stateMutability": "view",
      "type": "function"
    },
    {
      "inputs": [
        {
          "internalType": "address",
          "name": "account",
          "type": "address"
        }
      ],
      "name": "isPauser",
      "outputs": [
        {
          "internalType": "bool",
          "name": "",
          "type": "bool"
        }
      ],
      "stateMutability": "view",
      "type": "function"
    },
    {
      "inputs": [],
      "name": "messageBus",
      "outputs": [
        {
          "internalType": "address",
          "name": "",
          "type": "address"
        }
      ],
      "stateMutability": "view",
      "type": "function"
    },
    {
      "inputs": [],
      "name": "nativeWrap",
      "outputs": [
        {
          "internalType": "address",
          "name": "",
          "type": "address"
        }
      ],
      "stateMutability": "view",
      "type": "function"
    },
    {
      "inputs": [],
      "name": "owner",
      "outputs": [
        {
          "internalType": "address",
          "name": "",
          "type": "address"
        }
      ],
      "stateMutability": "view",
      "type": "function"
    },
    {
      "inputs": [],
      "name": "pause",
      "outputs": [],
      "stateMutability": "nonpayable",
      "type": "function"
    },
    {
      "inputs": [],
      "name": "paused",
      "outputs": [
        {
          "internalType": "bool",
          "name": "",
          "type": "bool"
        }
      ],
      "stateMutability": "view",
      "type": "function"
    },
    {
      "inputs": [
        {
          "internalType": "address",
          "name": "",
          "type": "address"
        }
      ],
      "name": "pausers",
      "outputs": [
        {
          "internalType": "bool",
          "name": "",
          "type": "bool"
        }
      ],
      "stateMutability": "view",
      "type": "function"
    },
    {
      "inputs": [
        {
          "internalType": "address",
          "name": "",
          "type": "address"
        }
      ],
      "name": "protocolFee",
      "outputs": [
        {
          "internalType": "uint256",
          "name": "",
          "type": "uint256"
        }
      ],
      "stateMutability": "view",
      "type": "function"
    },
    {
      "inputs": [
        {
          "internalType": "bytes32",
          "name": "",
          "type": "bytes32"
        }
      ],
      "name": "quotes",
      "outputs": [
        {
          "internalType": "enum RFQ.QuoteStatus",
          "name": "",
          "type": "uint8"
        }
      ],
      "stateMutability": "view",
      "type": "function"
    },
    {
      "inputs": [
        {
          "internalType": "uint64",
          "name": "",
          "type": "uint64"
        }
      ],
      "name": "remoteRfqContracts",
      "outputs": [
        {
          "internalType": "address",
          "name": "",
          "type": "address"
        }
      ],
      "stateMutability": "view",
      "type": "function"
    },
    {
      "inputs": [
        {
          "internalType": "address",
          "name": "_account",
          "type": "address"
        }
      ],
      "name": "removeGovernor",
      "outputs": [],
      "stateMutability": "nonpayable",
      "type": "function"
    },
    {
      "inputs": [
        {
          "internalType": "address",
          "name": "account",
          "type": "address"
        }
      ],
      "name": "removePauser",
      "outputs": [],
      "stateMutability": "nonpayable",
      "type": "function"
    },
    {
      "inputs": [],
      "name": "renounceGovernor",
      "outputs": [],
      "stateMutability": "nonpayable",
      "type": "function"
    },
    {
      "inputs": [],
      "name": "renouncePauser",
      "outputs": [],
      "stateMutability": "nonpayable",
      "type": "function"
    },
    {
      "inputs": [
        {
          "components": [
            {
              "internalType": "uint64",
              "name": "srcChainId",
              "type": "uint64"
            },
            {
              "internalType": "address",
              "name": "srcToken",
              "type": "address"
            },
            {
              "internalType": "uint256",
              "name": "srcAmount",
              "type": "uint256"
            },
            {
              "internalType": "uint256",
              "name": "srcReleaseAmount",
              "type": "uint256"
            },
            {
              "internalType": "uint64",
              "name": "dstChainId",
              "type": "uint64"
            },
            {
              "internalType": "address",
              "name": "dstToken",
              "type": "address"
            },
            {
              "internalType": "uint256",
              "name": "dstAmount",
              "type": "uint256"
            },
            {
              "internalType": "uint64",
              "name": "deadline",
              "type": "uint64"
            },
            {
              "internalType": "uint64",
              "name": "nonce",
              "type": "uint64"
            },
            {
              "internalType": "address",
              "name": "sender",
              "type": "address"
            },
            {
              "internalType": "address",
              "name": "receiver",
              "type": "address"
            },
            {
              "internalType": "address",
              "name": "refundTo",
              "type": "address"
            },
            {
              "internalType": "address",
              "name": "liquidityProvider",
              "type": "address"
            }
          ],
          "internalType": "struct RFQ.Quote",
          "name": "_quote",
          "type": "tuple"
        }
      ],
      "name": "requestRefund",
      "outputs": [],
      "stateMutability": "payable",
      "type": "function"
    },
    {
      "inputs": [
        {
          "components": [
            {
              "internalType": "uint64",
              "name": "srcChainId",
              "type": "uint64"
            },
            {
              "internalType": "address",
              "name": "srcToken",
              "type": "address"
            },
            {
              "internalType": "uint256",
              "name": "srcAmount",
              "type": "uint256"
            },
            {
              "internalType": "uint256",
              "name": "srcReleaseAmount",
              "type": "uint256"
            },
            {
              "internalType": "uint64",
              "name": "dstChainId",
              "type": "uint64"
            },
            {
              "internalType": "address",
              "name": "dstToken",
              "type": "address"
            },
            {
              "internalType": "uint256",
              "name": "dstAmount",
              "type": "uint256"
            },
            {
              "internalType": "uint64",
              "name": "deadline",
              "type": "uint64"
            },
            {
              "internalType": "uint64",
              "name": "nonce",
              "type": "uint64"
            },
            {
              "internalType": "address",
              "name": "sender",
              "type": "address"
            },
            {
              "internalType": "address",
              "name": "receiver",
              "type": "address"
            },
            {
              "internalType": "address",
              "name": "refundTo",
              "type": "address"
            },
            {
              "internalType": "address",
              "name": "liquidityProvider",
              "type": "address"
            }
          ],
          "internalType": "struct RFQ.Quote",
          "name": "_quote",
          "type": "tuple"
        },
        {
          "internalType": "bool",
          "name": "_releaseNative",
          "type": "bool"
        }
      ],
      "name": "sameChainTransfer",
      "outputs": [],
      "stateMutability": "payable",
      "type": "function"
    },
    {
      "inputs": [
        {
          "components": [
            {
              "internalType": "uint64",
              "name": "srcChainId",
              "type": "uint64"
            },
            {
              "internalType": "address",
              "name": "srcToken",
              "type": "address"
            },
            {
              "internalType": "uint256",
              "name": "srcAmount",
              "type": "uint256"
            },
            {
              "internalType": "uint256",
              "name": "srcReleaseAmount",
              "type": "uint256"
            },
            {
              "internalType": "uint64",
              "name": "dstChainId",
              "type": "uint64"
            },
            {
              "internalType": "address",
              "name": "dstToken",
              "type": "address"
            },
            {
              "internalType": "uint256",
              "name": "dstAmount",
              "type": "uint256"
            },
            {
              "internalType": "uint64",
              "name": "deadline",
              "type": "uint64"
            },
            {
              "internalType": "uint64",
              "name": "nonce",
              "type": "uint64"
            },
            {
              "internalType": "address",
              "name": "sender",
              "type": "address"
            },
            {
              "internalType": "address",
              "name": "receiver",
              "type": "address"
            },
            {
              "internalType": "address",
              "name": "refundTo",
              "type": "address"
            },
            {
              "internalType": "address",
              "name": "liquidityProvider",
              "type": "address"
            }
          ],
          "internalType": "struct RFQ.Quote",
          "name": "_quote",
          "type": "tuple"
        },
        {
          "internalType": "bool",
          "name": "_releaseNative",
          "type": "bool"
        }
      ],
      "name": "sameChainTransferNative",
      "outputs": [],
      "stateMutability": "payable",
      "type": "function"
    },
    {
      "inputs": [
        {
          "internalType": "uint64[]",
          "name": "_chainIds",
          "type": "uint64[]"
        },
        {
          "internalType": "uint32[]",
          "name": "_feePercs",
          "type": "uint32[]"
        }
      ],
      "name": "setFeePerc",
      "outputs": [],
      "stateMutability": "nonpayable",
      "type": "function"
    },
    {
      "inputs": [
        {
          "internalType": "address",
          "name": "_messageBus",
          "type": "address"
        }
      ],
      "name": "setMessageBus",
      "outputs": [],
      "stateMutability": "nonpayable",
      "type": "function"
    },
    {
      "inputs": [
        {
          "internalType": "address",
          "name": "_nativeWrap",
          "type": "address"
        }
      ],
      "name": "setNativeWrap",
      "outputs": [],
      "stateMutability": "nonpayable",
      "type": "function"
    },
    {
      "inputs": [
        {
          "internalType": "uint64[]",
          "name": "_chainIds",
          "type": "uint64[]"
        },
        {
          "internalType": "address[]",
          "name": "_remoteRfqContracts",
          "type": "address[]"
        }
      ],
      "name": "setRemoteRfqContracts",
      "outputs": [],
      "stateMutability": "nonpayable",
      "type": "function"
    },
    {
      "inputs": [
        {
          "internalType": "address",
          "name": "_treasuryAddr",
          "type": "address"
        }
      ],
      "name": "setTreasuryAddr",
      "outputs": [],
      "stateMutability": "nonpayable",
      "type": "function"
    },
    {
      "inputs": [
        {
          "components": [
            {
              "internalType": "uint64",
              "name": "srcChainId",
              "type": "uint64"
            },
            {
              "internalType": "address",
              "name": "srcToken",
              "type": "address"
            },
            {
              "internalType": "uint256",
              "name": "srcAmount",
              "type": "uint256"
            },
            {
              "internalType": "uint256",
              "name": "srcReleaseAmount",
              "type": "uint256"
            },
            {
              "internalType": "uint64",
              "name": "dstChainId",
              "type": "uint64"
            },
            {
              "internalType": "address",
              "name": "dstToken",
              "type": "address"
            },
            {
              "internalType": "uint256",
              "name": "dstAmount",
              "type": "uint256"
            },
            {
              "internalType": "uint64",
              "name": "deadline",
              "type": "uint64"
            },
            {
              "internalType": "uint64",
              "name": "nonce",
              "type": "uint64"
            },
            {
              "internalType": "address",
              "name": "sender",
              "type": "address"
            },
            {
              "internalType": "address",
              "name": "receiver",
              "type": "address"
            },
            {
              "internalType": "address",
              "name": "refundTo",
              "type": "address"
            },
            {
              "internalType": "address",
              "name": "liquidityProvider",
              "type": "address"
            }
          ],
          "internalType": "struct RFQ.Quote",
          "name": "_quote",
          "type": "tuple"
        },
        {
          "internalType": "uint64",
          "name": "_submissionDeadline",
          "type": "uint64"
        }
      ],
      "name": "srcDeposit",
      "outputs": [
        {
          "internalType": "bytes32",
          "name": "",
          "type": "bytes32"
        }
      ],
      "stateMutability": "payable",
      "type": "function"
    },
    {
      "inputs": [
        {
          "components": [
            {
              "internalType": "uint64",
              "name": "srcChainId",
              "type": "uint64"
            },
            {
              "internalType": "address",
              "name": "srcToken",
              "type": "address"
            },
            {
              "internalType": "uint256",
              "name": "srcAmount",
              "type": "uint256"
            },
            {
              "internalType": "uint256",
              "name": "srcReleaseAmount",
              "type": "uint256"
            },
            {
              "internalType": "uint64",
              "name": "dstChainId",
              "type": "uint64"
            },
            {
              "internalType": "address",
              "name": "dstToken",
              "type": "address"
            },
            {
              "internalType": "uint256",
              "name": "dstAmount",
              "type": "uint256"
            },
            {
              "internalType": "uint64",
              "name": "deadline",
              "type": "uint64"
            },
            {
              "internalType": "uint64",
              "name": "nonce",
              "type": "uint64"
            },
            {
              "internalType": "address",
              "name": "sender",
              "type": "address"
            },
            {
              "internalType": "address",
              "name": "receiver",
              "type": "address"
            },
            {
              "internalType": "address",
              "name": "refundTo",
              "type": "address"
            },
            {
              "internalType": "address",
              "name": "liquidityProvider",
              "type": "address"
            }
          ],
          "internalType": "struct RFQ.Quote",
          "name": "_quote",
          "type": "tuple"
        },
        {
          "internalType": "uint64",
          "name": "_submissionDeadline",
          "type": "uint64"
        }
      ],
      "name": "srcDepositNative",
      "outputs": [
        {
          "internalType": "bytes32",
          "name": "",
          "type": "bytes32"
        }
      ],
      "stateMutability": "payable",
      "type": "function"
    },
    {
      "inputs": [
        {
          "components": [
            {
              "internalType": "uint64",
              "name": "srcChainId",
              "type": "uint64"
            },
            {
              "internalType": "address",
              "name": "srcToken",
              "type": "address"
            },
            {
              "internalType": "uint256",
              "name": "srcAmount",
              "type": "uint256"
            },
            {
              "internalType": "uint256",
              "name": "srcReleaseAmount",
              "type": "uint256"
            },
            {
              "internalType": "uint64",
              "name": "dstChainId",
              "type": "uint64"
            },
            {
              "internalType": "address",
              "name": "dstToken",
              "type": "address"
            },
            {
              "internalType": "uint256",
              "name": "dstAmount",
              "type": "uint256"
            },
            {
              "internalType": "uint64",
              "name": "deadline",
              "type": "uint64"
            },
            {
              "internalType": "uint64",
              "name": "nonce",
              "type": "uint64"
            },
            {
              "internalType": "address",
              "name": "sender",
              "type": "address"
            },
            {
              "internalType": "address",
              "name": "receiver",
              "type": "address"
            },
            {
              "internalType": "address",
              "name": "refundTo",
              "type": "address"
            },
            {
              "internalType": "address",
              "name": "liquidityProvider",
              "type": "address"
            }
          ],
          "internalType": "struct RFQ.Quote",
          "name": "_quote",
          "type": "tuple"
        },
        {
          "internalType": "bytes",
          "name": "_execMsgCallData",
          "type": "bytes"
        }
      ],
      "name": "srcRelease",
      "outputs": [],
      "stateMutability": "nonpayable",
      "type": "function"
    },
    {
      "inputs": [
        {
          "components": [
            {
              "internalType": "uint64",
              "name": "srcChainId",
              "type": "uint64"
            },
            {
              "internalType": "address",
              "name": "srcToken",
              "type": "address"
            },
            {
              "internalType": "uint256",
              "name": "srcAmount",
              "type": "uint256"
            },
            {
              "internalType": "uint256",
              "name": "srcReleaseAmount",
              "type": "uint256"
            },
            {
              "internalType": "uint64",
              "name": "dstChainId",
              "type": "uint64"
            },
            {
              "internalType": "address",
              "name": "dstToken",
              "type": "address"
            },
            {
              "internalType": "uint256",
              "name": "dstAmount",
              "type": "uint256"
            },
            {
              "internalType": "uint64",
              "name": "deadline",
              "type": "uint64"
            },
            {
              "internalType": "uint64",
              "name": "nonce",
              "type": "uint64"
            },
            {
              "internalType": "address",
              "name": "sender",
              "type": "address"
            },
            {
              "internalType": "address",
              "name": "receiver",
              "type": "address"
            },
            {
              "internalType": "address",
              "name": "refundTo",
              "type": "address"
            },
            {
              "internalType": "address",
              "name": "liquidityProvider",
              "type": "address"
            }
          ],
          "internalType": "struct RFQ.Quote",
          "name": "_quote",
          "type": "tuple"
        },
        {
          "internalType": "bytes",
          "name": "_execMsgCallData",
          "type": "bytes"
        }
      ],
      "name": "srcReleaseNative",
      "outputs": [],
      "stateMutability": "nonpayable",
      "type": "function"
    },
    {
      "inputs": [
        {
          "internalType": "address",
          "name": "newOwner",
          "type": "address"
        }
      ],
      "name": "transferOwnership",
      "outputs": [],
      "stateMutability": "nonpayable",
      "type": "function"
    },
    {
      "inputs": [],
      "name": "treasuryAddr",
      "outputs": [
        {
          "internalType": "address",
          "name": "",
          "type": "address"
        }
      ],
      "stateMutability": "view",
      "type": "function"
    },
    {
      "inputs": [
        {
          "internalType": "bytes32",
          "name": "",
          "type": "bytes32"
        }
      ],
      "name": "unconsumedMsg",
      "outputs": [
        {
          "internalType": "bool",
          "name": "",
          "type": "bool"
        }
      ],
      "stateMutability": "view",
      "type": "function"
    },
    {
      "inputs": [],
      "name": "unpause",
      "outputs": [],
      "stateMutability": "nonpayable",
      "type": "function"
    },
    {
      "stateMutability": "payable",
      "type": "receive"
    }
  ],
  "transactionHash": "0x6e35d5065ccee1b067a40f28c685299b7b885b10c0ee6df50a23896f16aaa68c",
  "args": [
    "0x4066d196a423b2b3b8b054f4f40efb47a74e200c"
  ],
  "numDeployments": 1,
  "solcInputHash": "4c86bc0c5bac4df4480c523ac34dbcd8",
  "bytecode": "0x60806040523480156200001157600080fd5b5060405162004b2f38038062004b2f833981016040819052620000349162000262565b6200003f3362000088565b6001805460ff60a01b191690556200005733620000d8565b6200006233620001a2565b600180546001600160a01b0319166001600160a01b039290921691909117905562000294565b600080546001600160a01b038381166001600160a01b0319831681178455604051919092169283917f8be0079c531659141344cd1fd0a4f28419497f9722a3daafe3b4186f6b6457e09190a35050565b6001600160a01b03811660009081526002602052604090205460ff1615620001475760405162461bcd60e51b815260206004820152601960248201527f4163636f756e7420697320616c7265616479207061757365720000000000000060448201526064015b60405180910390fd5b6001600160a01b038116600081815260026020908152604091829020805460ff1916600117905590519182527f6719d08c1888103bea251a4ed56406bd0c3e69723c8a1686e017e7bbe159b6f891015b60405180910390a150565b6001600160a01b03811660009081526003602052604090205460ff16156200020d5760405162461bcd60e51b815260206004820152601b60248201527f4163636f756e7420697320616c726561647920676f7665726e6f72000000000060448201526064016200013e565b6001600160a01b038116600081815260036020908152604091829020805460ff1916600117905590519182527fdc5a48d79e2e147530ff63ecdbed5a5a66adb9d5cf339384d5d076da197c40b5910162000197565b6000602082840312156200027557600080fd5b81516001600160a01b03811681146200028d57600080fd5b9392505050565b61488b80620002a46000396000f3fe6080604052600436106103225760003560e01c806380f51c12116101a5578063c78e33a2116100ec578063e3eece2611610095578063eecdac881161006f578063eecdac881461090c578063f2fde38b1461092c578063f8b839e51461094c578063fbe42fea1461096c57600080fd5b8063e3eece2614610890578063e43581b8146108c0578063ed9830bb146108f957600080fd5b8063d1ce8b45116100c6578063d1ce8b451461082b578063df1f64ef1461084b578063e026049c1461087b57600080fd5b8063c78e33a2146107c2578063cbac44df146107d5578063cc47e400146107f557600080fd5b8063a2bdb8991161014e578063ab9341fd11610128578063ab9341fd14610755578063af4ab13814610775578063b62b31e41461079557600080fd5b8063a2bdb89914610702578063a5ea10cb14610722578063a7e05b9c1461073557600080fd5b80638da5cb5b1161017f5780638da5cb5b146106b15780639c649fdf146106cf578063a1a227fa146106e257600080fd5b806380f51c121461064c57806382dc1ec41461067c5780638456cb591461069c57600080fd5b806346fbf68e116102695780636609870d116102125780636ef8d66d116101ec5780636ef8d66d1461062457806379c7efd3146106395780637cd2bffc1461057257600080fd5b80636609870d146105c457806369b59e75146105e45780636b2c0f551461060457600080fd5b80635ab7afc6116102435780635ab7afc6146105725780635b5a66a7146105855780635c975abb146105a557600080fd5b806346fbf68e146104e9578063547cad121461053257806355e9e3d21461055257600080fd5b806325329eaf116102cb5780633e07d172116102a55780633e07d172146104815780633f4ba83a146104b4578063457bfa2f146104c957600080fd5b806325329eaf146103ec57806330d9a62a146104295780633c4a25d01461046157600080fd5b80630bd930b4116102fc5780630bd930b41461038b5780631000cd9e146103c45780631e9c5748146103d957600080fd5b8063063ce4e51461032e5780630a54aacd146103575780630bcb49821461037857600080fd5b3661032957005b600080fd5b61034161033c366004613d99565b61098c565b60405161034e9190613e52565b60405180910390f35b61036a610365366004613e7e565b6109f8565b60405190815260200161034e565b610341610386366004613eb4565b610bf9565b34801561039757600080fd5b506008546103af90600160a01b900463ffffffff1681565b60405163ffffffff909116815260200161034e565b6103d76103d2366004613f23565b610c5f565b005b6103d76103e7366004613f4e565b610ea1565b3480156103f857600080fd5b5061041c610407366004613f88565b60076020526000908152604090205460ff1681565b60405161034e9190613fa1565b34801561043557600080fd5b50600854610449906001600160a01b031681565b6040516001600160a01b03909116815260200161034e565b34801561046d57600080fd5b506103d761047c366004613fb5565b6110ef565b34801561048d57600080fd5b506103af61049c366004613fd0565b60096020526000908152604090205463ffffffff1681565b3480156104c057600080fd5b506103d7611152565b3480156104d557600080fd5b50600454610449906001600160a01b031681565b3480156104f557600080fd5b50610522610504366004613fb5565b6001600160a01b031660009081526002602052604090205460ff1690565b604051901515815260200161034e565b34801561053e57600080fd5b506103d761054d366004613fb5565b6111bb565b34801561055e57600080fd5b5061036a61056d366004613feb565b611267565b61034161058036600461402d565b6112f1565b34801561059157600080fd5b506103d76105a0366004613fb5565b611359565b3480156105b157600080fd5b50600154600160a01b900460ff16610522565b3480156105d057600080fd5b506103d76105df3660046140bd565b6113d2565b3480156105f057600080fd5b506103d76105ff366004613fb5565b611546565b34801561061057600080fd5b506103d761061f366004613fb5565b61161f565b34801561063057600080fd5b506103d761167f565b6103d7610647366004613f23565b611688565b34801561065857600080fd5b50610522610667366004613fb5565b60026020526000908152604090205460ff1681565b34801561068857600080fd5b506103d7610697366004613fb5565b611960565b3480156106a857600080fd5b506103d76119c0565b3480156106bd57600080fd5b506000546001600160a01b0316610449565b6103416106dd366004614113565b611a27565b3480156106ee57600080fd5b50600154610449906001600160a01b031681565b34801561070e57600080fd5b506103d761071d3660046140bd565b611b48565b6103d7610730366004613f23565b611bb6565b34801561074157600080fd5b506103d7610750366004613fb5565b611cbf565b34801561076157600080fd5b506103d76107703660046141a3565b611d64565b34801561078157600080fd5b506103d76107903660046140bd565b611fe9565b3480156107a157600080fd5b5061036a6107b0366004613fb5565b600a6020526000908152604090205481565b6103d76107d0366004613f4e565b6120c3565b3480156107e157600080fd5b506103d76107f03660046141a3565b6121c6565b34801561080157600080fd5b50610449610810366004613fd0565b6005602052600090815260409020546001600160a01b031681565b34801561083757600080fd5b5061036a610846366004613f23565b612349565b34801561085757600080fd5b50610522610866366004613f88565b60066020526000908152604090205460ff1681565b34801561088757600080fd5b506103d761243d565b34801561089c57600080fd5b506105226108ab366004613fb5565b60036020526000908152604090205460ff1681565b3480156108cc57600080fd5b506105226108db366004613fb5565b6001600160a01b031660009081526003602052604090205460ff1690565b61036a610907366004613e7e565b612446565b34801561091857600080fd5b506103d7610927366004613fb5565b6124be565b34801561093857600080fd5b506103d7610947366004613fb5565b61251e565b34801561095857600080fd5b506103d76109673660046140bd565b6125fa565b34801561097857600080fd5b5061036a61098736600461420f565b6126a2565b6001546000906001600160a01b031633146109ee5760405162461bcd60e51b815260206004820152601960248201527f63616c6c6572206973206e6f74206d657373616765206275730000000000000060448201526064015b60405180910390fd5b9695505050505050565b600154600090600160a01b900460ff1615610a485760405162461bcd60e51b815260206004820152601060248201526f14185d5cd8589b194e881c185d5cd95960821b60448201526064016109e5565b6004546001600160a01b0316610aa05760405162461bcd60e51b815260206004820152601860248201527f5266713a206e61746976652077726170206e6f7420736574000000000000000060448201526064016109e5565b6004546001600160a01b0316610abc6040850160208601613fb5565b6001600160a01b031614610b125760405162461bcd60e51b815260206004820152601760248201527f5266713a2073726320746f6b656e206d69736d6174636800000000000000000060448201526064016109e5565b8260400135341015610b665760405162461bcd60e51b815260206004820152601860248201527f5266713a20696e73756666696369656e7420616d6f756e74000000000000000060448201526064016109e5565b6000610b808484610b7b60408301353461424f565b6126ff565b9050600460009054906101000a90046001600160a01b03166001600160a01b031663d0e30db085604001356040518263ffffffff1660e01b81526004016000604051808303818588803b158015610bd657600080fd5b505af1158015610bea573d6000803e3d6000fd5b50939450505050505b92915050565b6001546000906001600160a01b03163314610c565760405162461bcd60e51b815260206004820152601960248201527f63616c6c6572206973206e6f74206d657373616765206275730000000000000060448201526064016109e5565b95945050505050565b600154600160a01b900460ff1615610cac5760405162461bcd60e51b815260206004820152601060248201526f14185d5cd8589b194e881c185d5cd95960821b60448201526064016109e5565b6004546001600160a01b0316610cc860c0830160a08401613fb5565b6001600160a01b031614610d1e5760405162461bcd60e51b815260206004820152601760248201527f5266713a2064737420746f6b656e206d69736d6174636800000000000000000060448201526064016109e5565b8060c00135341015610d725760405162461bcd60e51b815260206004820152601860248201527f5266713a20696e73756666696369656e7420616d6f756e74000000000000000060448201526064016109e5565b600080610d7e83612b77565b6000828152600760209081526040808320805460ff191660081790555193955091935091610db191859160019101614266565b60408051601f198184030181528282528051602091820120908301520160408051601f198184030181529190529050610e0582610df16020870187613fd0565b83610e0060c08901353461424f565b612e17565b610e24610e1a61016086016101408701613fb5565b8560c00135612e33565b7fb97bb040c4582b3252c1079bcea2a781f656ef09ceb53be48b2d615c61198bc583610e5861016087016101408801613fb5565b610e6860c0880160a08901613fb5565b604080519384526001600160a01b03928316602085015291169082015260c086013560608201526080015b60405180910390a150505050565b600154600160a01b900460ff1615610eee5760405162461bcd60e51b815260206004820152601060248201526f14185d5cd8589b194e881c185d5cd95960821b60448201526064016109e5565b610efe60a0830160808401613fd0565b67ffffffffffffffff16610f156020840184613fd0565b67ffffffffffffffff1614610f6c5760405162461bcd60e51b815260206004820152601860248201527f5266713a206e6f742073616d6520636861696e2073776170000000000000000060448201526064016109e5565b6004546001600160a01b0316610f8860c0840160a08501613fb5565b6001600160a01b031614610fde5760405162461bcd60e51b815260206004820152601760248201527f5266713a2064737420746f6b656e206d69736d6174636800000000000000000060448201526064016109e5565b8160c00135341461103b5760405162461bcd60e51b815260206004820152602160248201527f5266713a206e617469766520746f6b656e20616d6f756e74206d69736d6174636044820152600d60fb1b60648201526084016109e5565b600061104683612b77565b50905061106861105e61016085016101408601613fb5565b8460c00135612e33565b611073838284612f44565b7fb97bb040c4582b3252c1079bcea2a781f656ef09ceb53be48b2d615c61198bc5816110a761016086016101408701613fb5565b6110b760c0870160a08801613fb5565b604080519384526001600160a01b03928316602085015291169082015260c085013560608201526080015b60405180910390a1505050565b336111026000546001600160a01b031690565b6001600160a01b0316146111465760405162461bcd60e51b8152602060048201819052602482015260008051602061483683398151915260448201526064016109e5565b61114f81613097565b50565b3360009081526002602052604090205460ff166111b15760405162461bcd60e51b815260206004820152601460248201527f43616c6c6572206973206e6f742070617573657200000000000000000000000060448201526064016109e5565b6111b9613154565b565b336111ce6000546001600160a01b031690565b6001600160a01b0316146112125760405162461bcd60e51b8152602060048201819052602482015260008051602061483683398151915260448201526064016109e5565b600180546001600160a01b0319166001600160a01b0383169081179091556040519081527f3f8223bcd8b3b875473e9f9e14e1ad075451a2b5ffd31591655da9a01516bf5e906020015b60405180910390a150565b60015460405163299aee5160e11b81526000916001600160a01b031690635335dca29061129a9086908690600401614285565b60206040518083038186803b1580156112b257600080fd5b505afa1580156112c6573d6000803e3d6000fd5b505050506040513d601f19601f820116820180604052508101906112ea91906142b4565b9392505050565b6001546000906001600160a01b0316331461134e5760405162461bcd60e51b815260206004820152601960248201527f63616c6c6572206973206e6f74206d657373616765206275730000000000000060448201526064016109e5565b979650505050505050565b3361136c6000546001600160a01b031690565b6001600160a01b0316146113b05760405162461bcd60e51b8152602060048201819052602482015260008051602061483683398151915260448201526064016109e5565b600480546001600160a01b0319166001600160a01b0392909216919091179055565b600154600160a01b900460ff161561141f5760405162461bcd60e51b815260206004820152601060248201526f14185d5cd8589b194e881c185d5cd95960821b60448201526064016109e5565b6004546001600160a01b031661143b6040850160208601613fb5565b6001600160a01b0316146114915760405162461bcd60e51b815260206004820152601760248201527f5266713a2073726320746f6b656e206d69736d6174636800000000000000000060448201526064016109e5565b60008061149f8585856131fa565b6000828152600760205260409020805460ff1916600517905590925090506114dc6114d261016087016101408801613fb5565b8660400135613391565b7f2e0668a62a5f556368dca9c7113e20f2852c05155548243804bf714ce72b25a6828261150f6040890160208a01613fb5565b604080519384526001600160a01b039283166020850152911682820152870135606082015260800160405180910390a15050505050565b6008546001600160a01b031661159e5760405162461bcd60e51b815260206004820152601d60248201527f5266713a2074726561737572792061646472657373206e6f742073657400000060448201526064016109e5565b6001600160a01b038082166000818152600a60205260408120805491905560085490926115cd929116836134f9565b600854604080516001600160a01b039283168152918416602083015281018290527ff228de527fc1b9843baac03b9a04565473a263375950e63435d4138464386f469060600160405180910390a15050565b336116326000546001600160a01b031690565b6001600160a01b0316146116765760405162461bcd60e51b8152602060048201819052602482015260008051602061483683398151915260448201526064016109e5565b61114f81613589565b6111b933613589565b600154600160a01b900460ff16156116d55760405162461bcd60e51b815260206004820152601060248201526f14185d5cd8589b194e881c185d5cd95960821b60448201526064016109e5565b426116e7610100830160e08401613fd0565b67ffffffffffffffff16106117485760405162461bcd60e51b815260206004820152602160248201527f5266713a207472616e7366657220646561646c696e65206e6f742070617373656044820152601960fa1b60648201526084016109e5565b67ffffffffffffffff461661176360a0830160808401613fd0565b67ffffffffffffffff16146117ba5760405162461bcd60e51b815260206004820152601960248201527f5266713a2064737420636861696e4964206d69736d617463680000000000000060448201526064016109e5565b60006005816117cc6020850185613fd0565b67ffffffffffffffff1681526020810191909152604001600020546001600160a01b031690508061183f5760405162461bcd60e51b815260206004820152601d60248201527f5266713a207372632072667120636f6e7472616374206e6f742073657400000060448201526064016109e5565b600061184a83612349565b90506000808281526007602052604090205460ff16600881111561187057611870613e2c565b146118bd5760405162461bcd60e51b815260206004820152601b60248201527f5266713a2071756f746520616c7265616479206578656375746564000000000060448201526064016109e5565b6000818152600760209081526040808320805460ff19166006179055516118e991849160029101614266565b60408051601f198184030181528282528051602091820120908301520160408051601f198184030181529190529050611930836119296020870187613fd0565b8334612e17565b6040518281527f7cdd4403cff3a09d96c1ffe4ad1cc5c195e9053463a55edfc2944644ec02211890602001610e93565b336119736000546001600160a01b031690565b6001600160a01b0316146119b75760405162461bcd60e51b8152602060048201819052602482015260008051602061483683398151915260448201526064016109e5565b61114f81613642565b3360009081526002602052604090205460ff16611a1f5760405162461bcd60e51b815260206004820152601460248201527f43616c6c6572206973206e6f742070617573657200000000000000000000000060448201526064016109e5565b6111b96136ff565b6001546000906001600160a01b03163314611a845760405162461bcd60e51b815260206004820152601960248201527f63616c6c6572206973206e6f74206d657373616765206275730000000000000060448201526064016109e5565b60208314611ad45760405162461bcd60e51b815260206004820152601d60248201527f5266713a20696e636f7272656374206d657373616765206c656e67746800000060448201526064016109e5565b67ffffffffffffffff85166000908152600560205260409020546001600160a01b039081169087168114611b0c576002915050610c56565b600160066000611b1c87896142cd565b81526020810191909152604001600020805460ff19169115159190911790555060019695505050505050565b600154600160a01b900460ff1615611b955760405162461bcd60e51b815260206004820152601060248201526f14185d5cd8589b194e881c185d5cd95960821b60448201526064016109e5565b6000611ba2848484613787565b9050611bb084826000612f44565b50505050565b600154600160a01b900460ff1615611c035760405162461bcd60e51b815260206004820152601060248201526f14185d5cd8589b194e881c185d5cd95960821b60448201526064016109e5565b600080611c0f83612b77565b6000828152600760208181526040808420805460ff1916909317909255905193955091935091611c4491859160019101614266565b60408051601f198184030181528282528051602091820120908301520160408051601f198184030181529190529050611c84826119296020870187613fd0565b610e2433611c9a61016087016101408801613fb5565b60c08701803590611cae9060a08a01613fb5565b6001600160a01b0316929190613814565b33611cd26000546001600160a01b031690565b6001600160a01b031614611d165760405162461bcd60e51b8152602060048201819052602482015260008051602061483683398151915260448201526064016109e5565b600880546001600160a01b0319166001600160a01b0383169081179091556040519081527fb17659014001857e7557191ad74dc9e967b181eaed0895975325e3848debbc429060200161125c565b3360009081526003602052604090205460ff16611dc35760405162461bcd60e51b815260206004820152601660248201527f43616c6c6572206973206e6f7420676f7665726e6f720000000000000000000060448201526064016109e5565b828114611e125760405162461bcd60e51b815260206004820152601460248201527f5266713a206c656e677468206d69736d6174636800000000000000000000000060448201526064016109e5565b60005b83811015611fb357620f4240838383818110611e3357611e336142eb565b9050602002016020810190611e489190614315565b63ffffffff1610611e9b5760405162461bcd60e51b815260206004820152601d60248201527f5266713a206665652070657263656e7461676520746f6f206c6172676500000060448201526064016109e5565b848482818110611ead57611ead6142eb565b9050602002016020810190611ec29190613fd0565b67ffffffffffffffff16611f1c57828282818110611ee257611ee26142eb565b9050602002016020810190611ef79190614315565b600860146101000a81548163ffffffff021916908363ffffffff160217905550611fa1565b828282818110611f2e57611f2e6142eb565b9050602002016020810190611f439190614315565b60096000878785818110611f5957611f596142eb565b9050602002016020810190611f6e9190613fd0565b67ffffffffffffffff1681526020810191909152604001600020805463ffffffff191663ffffffff929092169190911790555b80611fab81614330565b915050611e15565b507f541df5e570cf10ffe04899eebd9eebebd1c54e2bd4af9f24b23fb4a40c6ea00b84848484604051610e939493929190614393565b600154600160a01b900460ff16156120365760405162461bcd60e51b815260206004820152601060248201526f14185d5cd8589b194e881c185d5cd95960821b60448201526064016109e5565b6004546001600160a01b03166120526040850160208601613fb5565b6001600160a01b0316146120a85760405162461bcd60e51b815260206004820152601760248201527f5266713a2073726320746f6b656e206d69736d6174636800000000000000000060448201526064016109e5565b60006120b5848484613787565b9050611bb084826001612f44565b600154600160a01b900460ff16156121105760405162461bcd60e51b815260206004820152601060248201526f14185d5cd8589b194e881c185d5cd95960821b60448201526064016109e5565b61212060a0830160808401613fd0565b67ffffffffffffffff166121376020840184613fd0565b67ffffffffffffffff161461218e5760405162461bcd60e51b815260206004820152601860248201527f5266713a206e6f742073616d6520636861696e2073776170000000000000000060448201526064016109e5565b600061219983612b77565b509050611068336121b261016086016101408701613fb5565b60c08601803590611cae9060a08901613fb5565b336121d96000546001600160a01b031690565b6001600160a01b03161461221d5760405162461bcd60e51b8152602060048201819052602482015260008051602061483683398151915260448201526064016109e5565b82811461226c5760405162461bcd60e51b815260206004820152601460248201527f5266713a206c656e677468206d69736d6174636800000000000000000000000060448201526064016109e5565b60005b8381101561231357828282818110612289576122896142eb565b905060200201602081019061229e9190613fb5565b600560008787858181106122b4576122b46142eb565b90506020020160208101906122c99190613fd0565b67ffffffffffffffff168152602081019190915260400160002080546001600160a01b0319166001600160a01b03929092169190911790558061230b81614330565b91505061226f565b507fb4739c640c5970d8ce88b6c31f3706099efca660e282d47b0a267a0bb572d8b784848484604051610e9394939291906143f3565b60006123586020830183613fd0565b6123686040840160208501613fb5565b6040840135606085013561238260a0870160808801613fd0565b61239260c0880160a08901613fb5565b60c08801356123a86101008a0160e08b01613fd0565b6123ba6101208b016101008c01613fd0565b6123cc6101408c016101208d01613fb5565b6123de6101608d016101408e01613fb5565b6123f06101808e016101608f01613fb5565b8d6101800160208101906124049190613fb5565b6040516020016124209d9c9b9a99989796959493929190614449565b604051602081830303815290604052805190602001209050919050565b6111b93361384c565b600154600090600160a01b900460ff16156124965760405162461bcd60e51b815260206004820152601060248201526f14185d5cd8589b194e881c185d5cd95960821b60448201526064016109e5565b60006124a38484346126ff565b90506112ea333060408701803590611cae9060208a01613fb5565b336124d16000546001600160a01b031690565b6001600160a01b0316146125155760405162461bcd60e51b8152602060048201819052602482015260008051602061483683398151915260448201526064016109e5565b61114f8161384c565b336125316000546001600160a01b031690565b6001600160a01b0316146125755760405162461bcd60e51b8152602060048201819052602482015260008051602061483683398151915260448201526064016109e5565b6001600160a01b0381166125f15760405162461bcd60e51b815260206004820152602660248201527f4f776e61626c653a206e6577206f776e657220697320746865207a65726f206160448201527f646472657373000000000000000000000000000000000000000000000000000060648201526084016109e5565b61114f81613905565b600154600160a01b900460ff16156126475760405162461bcd60e51b815260206004820152601060248201526f14185d5cd8589b194e881c185d5cd95960821b60448201526064016109e5565b6000806126558585856131fa565b6000828152600760205260409020805492945090925060049160ff191660018302179055506114dc81604087018035906126929060208a01613fb5565b6001600160a01b031691906134f9565b67ffffffffffffffff821660009081526009602052604081205463ffffffff16806126d95750600854600160a01b900463ffffffff165b620f42406126ed63ffffffff831685614578565b6126f79190614597565b949350505050565b6000428367ffffffffffffffff1611801561273d575067ffffffffffffffff8316612731610100860160e08701613fd0565b67ffffffffffffffff16115b6127895760405162461bcd60e51b815260206004820152601b60248201527f5266713a20696e617070726f70726961746520646561646c696e65000000000060448201526064016109e5565b600061279d61016086016101408701613fb5565b6001600160a01b0316141580156127cf575060006127c36101a086016101808701613fb5565b6001600160a01b031614155b6128415760405162461bcd60e51b815260206004820152602a60248201527f5266713a20696e76616c6964207265636569766572206f72206c69717569646960448201527f747950726f76696465720000000000000000000000000000000000000000000060648201526084016109e5565b67ffffffffffffffff46166128596020860186613fd0565b67ffffffffffffffff16146128b05760405162461bcd60e51b815260206004820152601960248201527f5266713a2073726320636861696e4964206d69736d617463680000000000000060448201526064016109e5565b336128c361014086016101208701613fb5565b6001600160a01b0316146129195760405162461bcd60e51b815260206004820152601460248201527f5266713a2073656e646572206d69736d6174636800000000000000000000000060448201526064016109e5565b600061292485612349565b90506000808281526007602052604090205460ff16600881111561294a5761294a613e2c565b146129975760405162461bcd60e51b815260206004820152601660248201527f5266713a2071756f74652068617368206578697374730000000000000000000060448201526064016109e5565b60006129b66129ac60a0880160808901613fd0565b87604001356126a2565b90506129ca6060870135604088013561424f565b811115612a195760405162461bcd60e51b815260206004820152601e60248201527f5266713a20696e73756666696369656e742070726f746f636f6c20666565000060448201526064016109e5565b6000828152600760205260409020805460ff19166001179055612a4260a0870160808801613fd0565b67ffffffffffffffff16612a596020880188613fd0565b67ffffffffffffffff1614612b35576000600581612a7d60a08a0160808b01613fd0565b67ffffffffffffffff1681526020810191909152604001600020546001600160a01b0316905080612af05760405162461bcd60e51b815260206004820152601960248201527f5266713a2064737420636f6e7472616374206e6f74207365740000000000000060448201526064016109e5565b600083604051602001612b0591815260200190565b60408051601f198184030181529190529050612b3282612b2b60a08b0160808c01613fd0565b8389612e17565b50505b7f3e4de2d1674631d426ae2a89635b421e6d40a31d27681afdf0eed67e81d07bcb8287604051612b669291906145b9565b60405180910390a150949350505050565b60008042612b8c610100850160e08601613fd0565b67ffffffffffffffff1611612be35760405162461bcd60e51b815260206004820152601d60248201527f5266713a207472616e7366657220646561646c696e652070617373656400000060448201526064016109e5565b67ffffffffffffffff4616612bfe60a0850160808601613fd0565b67ffffffffffffffff1614612c555760405162461bcd60e51b815260206004820152601960248201527f5266713a2064737420636861696e4964206d69736d617463680000000000000060448201526064016109e5565b6000612c6084612349565b90506000600581612c746020880188613fd0565b67ffffffffffffffff1681526020810191909152604001600020546001600160a01b03169050612caa60a0860160808701613fd0565b67ffffffffffffffff16612cc16020870187613fd0565b67ffffffffffffffff1614612d9b5760008281526007602052604081205460ff166008811115612cf357612cf3613e2c565b14612d405760405162461bcd60e51b815260206004820152601b60248201527f5266713a2071756f746520616c7265616479206578656375746564000000000060448201526064016109e5565b6001600160a01b038116612d965760405162461bcd60e51b815260206004820152601d60248201527f5266713a206473742072667120636f6e7472616374206e6f742073657400000060448201526064016109e5565b612e0d565b600160008381526007602052604090205460ff166008811115612dc057612dc0613e2c565b14612e0d5760405162461bcd60e51b815260206004820152601d60248201527f5266713a206e6f206465706f736974206f6e2073616d6520636861696e00000060448201526064016109e5565b9094909350915050565b600154611bb0908590859085906001600160a01b031685613955565b6004546001600160a01b0316612e8b5760405162461bcd60e51b815260206004820152601860248201527f5266713a206e61746976652077726170206e6f7420736574000000000000000060448201526064016109e5565b6000826001600160a01b03168261c35090604051600060405180830381858888f193505050503d8060008114612edd576040519150601f19603f3d011682016040523d82523d6000602084013e612ee2565b606091505b5050905080612f3f5760405162461bcd60e51b8152602060048201526024808201527f5266713a206661696c656420746f207472616e73666572206e6174697665207460448201526337b5b2b760e11b60648201526084016109e5565b505050565b612f566060840135604085013561424f565b600a6000612f6a6040870160208801613fb5565b6001600160a01b03166001600160a01b031681526020019081526020016000206000828254612f999190614737565b90915550508015612fe1576000828152600760205260409020805460ff19166003179055612fdc612fd26101a085016101808601613fb5565b8460600135613391565b613024565b6000828152600760205260409020805460ff1916600217905561302461300f6101a085016101808601613fb5565b60608501356126926040870160208801613fb5565b7ff29b32a17c591b8b3b1216ce0ffb67c07f3478e99b50c5ccf8602878b1ee6376826130586101a086016101808701613fb5565b6130686040870160208801613fb5565b604080519384526001600160a01b039283166020850152911690820152606080860135908201526080016110e2565b6001600160a01b03811660009081526003602052604090205460ff16156131005760405162461bcd60e51b815260206004820152601b60248201527f4163636f756e7420697320616c726561647920676f7665726e6f72000000000060448201526064016109e5565b6001600160a01b038116600081815260036020908152604091829020805460ff1916600117905590519182527fdc5a48d79e2e147530ff63ecdbed5a5a66adb9d5cf339384d5d076da197c40b5910161125c565b600154600160a01b900460ff166131ad5760405162461bcd60e51b815260206004820152601460248201527f5061757361626c653a206e6f742070617573656400000000000000000000000060448201526064016109e5565b6001805460ff60a01b191690557f5db9ee0a495bf2e6ff9c91a7834c1ba4fdd244a5e8aa4e537bd38aeae4b073aa335b6040516001600160a01b03909116815260200160405180910390a1565b600080600061320886612349565b9050600160008281526007602052604090205460ff16600881111561322f5761322f613e2c565b1461327c5760405162461bcd60e51b815260206004820152601960248201527f5266713a20696e636f72726563742071756f746520686173680000000000000060448201526064016109e5565b61328c60a0870160808801613fd0565b67ffffffffffffffff166132a36020880188613fd0565b67ffffffffffffffff16146132c4576132bf85858360026139c0565b613337565b426132d6610100880160e08901613fd0565b67ffffffffffffffff16106133375760405162461bcd60e51b815260206004820152602160248201527f5266713a207472616e7366657220646561646c696e65206e6f742070617373656044820152601960fa1b60648201526084016109e5565b60008061334c61018089016101608a01613fb5565b6001600160a01b0316146133715761336c61018088016101608901613fb5565b613383565b61338361014088016101208901613fb5565b919791965090945050505050565b6004546001600160a01b03166133e95760405162461bcd60e51b815260206004820152601860248201527f5266713a206e61746976652077726170206e6f7420736574000000000000000060448201526064016109e5565b60048054604051632e1a7d4d60e01b81529182018390526001600160a01b031690632e1a7d4d90602401600060405180830381600087803b15801561342d57600080fd5b505af1158015613441573d6000803e3d6000fd5b505050506000826001600160a01b03168261c35090604051600060405180830381858888f193505050503d8060008114613497576040519150601f19603f3d011682016040523d82523d6000602084013e61349c565b606091505b5050905080612f3f5760405162461bcd60e51b8152602060048201526024808201527f5266713a206661696c656420746f207769746864726177206e6174697665207460448201526337b5b2b760e11b60648201526084016109e5565b6040516001600160a01b038316602482015260448101829052612f3f90849063a9059cbb60e01b906064015b60408051601f198184030181529190526020810180517bffffffffffffffffffffffffffffffffffffffffffffffffffffffff167fffffffff0000000000000000000000000000000000000000000000000000000090931692909217909152613b33565b6001600160a01b03811660009081526002602052604090205460ff166135f15760405162461bcd60e51b815260206004820152601560248201527f4163636f756e74206973206e6f7420706175736572000000000000000000000060448201526064016109e5565b6001600160a01b038116600081815260026020908152604091829020805460ff1916905590519182527fcd265ebaf09df2871cc7bd4133404a235ba12eff2041bb89d9c714a2621c7c7e910161125c565b6001600160a01b03811660009081526002602052604090205460ff16156136ab5760405162461bcd60e51b815260206004820152601960248201527f4163636f756e7420697320616c7265616479207061757365720000000000000060448201526064016109e5565b6001600160a01b038116600081815260026020908152604091829020805460ff1916600117905590519182527f6719d08c1888103bea251a4ed56406bd0c3e69723c8a1686e017e7bbe159b6f8910161125c565b600154600160a01b900460ff161561374c5760405162461bcd60e51b815260206004820152601060248201526f14185d5cd8589b194e881c185d5cd95960821b60448201526064016109e5565b6001805460ff60a01b1916600160a01b1790557f62e78cea01bee320cd4e420270b5ea74000d11b0c9f74754ebdbfc544b05a2586131dd3390565b60008061379385612349565b9050600160008281526007602052604090205460ff1660088111156137ba576137ba613e2c565b146138075760405162461bcd60e51b815260206004820152601960248201527f5266713a20696e636f72726563742071756f746520686173680000000000000060448201526064016109e5565b6126f784848360016139c0565b6040516001600160a01b0380851660248301528316604482015260648101829052611bb09085906323b872dd60e01b90608401613525565b6001600160a01b03811660009081526003602052604090205460ff166138b45760405162461bcd60e51b815260206004820152601760248201527f4163636f756e74206973206e6f7420676f7665726e6f7200000000000000000060448201526064016109e5565b6001600160a01b038116600081815260036020908152604091829020805460ff1916905590519182527f1ebe834e73d60a5fec822c1e1727d34bc79f2ad977ed504581cc1822fe20fb5b910161125c565b600080546001600160a01b038381166001600160a01b0319831681178455604051919092169283917f8be0079c531659141344cd1fd0a4f28419497f9722a3daafe3b4186f6b6457e09190a35050565b604051634f9e72ad60e11b81526001600160a01b03831690639f3ce55a908390613987908990899089906004016147a7565b6000604051808303818588803b1580156139a057600080fd5b505af11580156139b4573d6000803e3d6000fd5b50505050505050505050565b600082826040516020016139d5929190614266565b60408051601f1981840301815291815281516020928301206000818152600690935291205490915060ff16613ab9576001546040516000916001600160a01b031690613a2490889088906147d9565b6000604051808303816000865af19150503d8060008114613a61576040519150601f19603f3d011682016040523d82523d6000602084013e613a66565b606091505b5050905080613ab75760405162461bcd60e51b815260206004820152601260248201527f65786563757465206d7367206661696c6564000000000000000000000000000060448201526064016109e5565b505b60008181526006602052604090205460ff16613b175760405162461bcd60e51b815260206004820152601060248201527f5266713a20696e76616c6964206d73670000000000000000000000000000000060448201526064016109e5565b6000908152600660205260409020805460ff1916905550505050565b6000613b88826040518060400160405280602081526020017f5361666545524332303a206c6f772d6c6576656c2063616c6c206661696c6564815250856001600160a01b0316613c189092919063ffffffff16565b805190915015612f3f5780806020019051810190613ba691906147e9565b612f3f5760405162461bcd60e51b815260206004820152602a60248201527f5361666545524332303a204552433230206f7065726174696f6e20646964206e60448201527f6f7420737563636565640000000000000000000000000000000000000000000060648201526084016109e5565b60606126f78484600085856001600160a01b0385163b613c7a5760405162461bcd60e51b815260206004820152601d60248201527f416464726573733a2063616c6c20746f206e6f6e2d636f6e747261637400000060448201526064016109e5565b600080866001600160a01b03168587604051613c969190614806565b60006040518083038185875af1925050503d8060008114613cd3576040519150601f19603f3d011682016040523d82523d6000602084013e613cd8565b606091505b509150915061134e82828660608315613cf25750816112ea565b825115613d025782518084602001fd5b8160405162461bcd60e51b81526004016109e59190614822565b60008083601f840112613d2e57600080fd5b50813567ffffffffffffffff811115613d4657600080fd5b602083019150836020828501011115613d5e57600080fd5b9250929050565b803567ffffffffffffffff81168114613d7d57600080fd5b919050565b80356001600160a01b0381168114613d7d57600080fd5b60008060008060008060808789031215613db257600080fd5b863567ffffffffffffffff80821115613dca57600080fd5b613dd68a838b01613d1c565b9098509650869150613dea60208a01613d65565b95506040890135915080821115613e0057600080fd5b50613e0d89828a01613d1c565b9094509250613e20905060608801613d82565b90509295509295509295565b634e487b7160e01b600052602160045260246000fd5b6003811061114f5761114f613e2c565b60208101613e5f83613e42565b91905290565b60006101a08284031215613e7857600080fd5b50919050565b6000806101c08385031215613e9257600080fd5b613e9c8484613e65565b9150613eab6101a08401613d65565b90509250929050565b600080600080600060808688031215613ecc57600080fd5b613ed586613d82565b945060208601359350604086013567ffffffffffffffff811115613ef857600080fd5b613f0488828901613d1c565b9094509250613f17905060608701613d82565b90509295509295909350565b60006101a08284031215613f3657600080fd5b6112ea8383613e65565b801515811461114f57600080fd5b6000806101c08385031215613f6257600080fd5b613f6c8484613e65565b91506101a0830135613f7d81613f40565b809150509250929050565b600060208284031215613f9a57600080fd5b5035919050565b6020810160098310613e5f57613e5f613e2c565b600060208284031215613fc757600080fd5b6112ea82613d82565b600060208284031215613fe257600080fd5b6112ea82613d65565b60008060208385031215613ffe57600080fd5b823567ffffffffffffffff81111561401557600080fd5b61402185828601613d1c565b90969095509350505050565b600080600080600080600060c0888a03121561404857600080fd5b61405188613d82565b965061405f60208901613d82565b95506040880135945061407460608901613d65565b9350608088013567ffffffffffffffff81111561409057600080fd5b61409c8a828b01613d1c565b90945092506140af905060a08901613d82565b905092959891949750929550565b60008060006101c084860312156140d357600080fd5b6140dd8585613e65565b92506101a084013567ffffffffffffffff8111156140fa57600080fd5b61410686828701613d1c565b9497909650939450505050565b60008060008060006080868803121561412b57600080fd5b61413486613d82565b945061414260208701613d65565b9350604086013567ffffffffffffffff811115613ef857600080fd5b60008083601f84011261417057600080fd5b50813567ffffffffffffffff81111561418857600080fd5b6020830191508360208260051b8501011115613d5e57600080fd5b600080600080604085870312156141b957600080fd5b843567ffffffffffffffff808211156141d157600080fd5b6141dd8883890161415e565b909650945060208701359150808211156141f657600080fd5b506142038782880161415e565b95989497509550505050565b6000806040838503121561422257600080fd5b61422b83613d65565b946020939093013593505050565b634e487b7160e01b600052601160045260246000fd5b60008282101561426157614261614239565b500390565b82815261427282613e42565b60f89190911b6020820152602101919050565b60208152816020820152818360408301376000818301604090810191909152601f909201601f19160101919050565b6000602082840312156142c657600080fd5b5051919050565b80356020831015610bf357600019602084900360031b1b1692915050565b634e487b7160e01b600052603260045260246000fd5b803563ffffffff81168114613d7d57600080fd5b60006020828403121561432757600080fd5b6112ea82614301565b600060001982141561434457614344614239565b5060010190565b8183526000602080850194508260005b858110156143885767ffffffffffffffff61437583613d65565b168752958201959082019060010161435b565b509495945050505050565b6040815260006143a760408301868861434b565b8281036020848101919091528482528591810160005b868110156143e65763ffffffff6143d385614301565b16825292820192908201906001016143bd565b5098975050505050505050565b60408152600061440760408301868861434b565b8281036020848101919091528482528591810160005b868110156143e6576001600160a01b0361443685613d82565b168252928201929082019060010161441d565b6001600160c01b03198e60c01b1681526bffffffffffffffffffffffff198d60601b1660088201528b601c8201528a603c820152614496605c82018b60c01b6001600160c01b0319169052565b6144b4606482018a60601b6bffffffffffffffffffffffff19169052565b8760788201526144d3609882018860c01b6001600160c01b0319169052565b6144ec60a082018760c01b6001600160c01b0319169052565b61450a60a882018660601b6bffffffffffffffffffffffff19169052565b61452860bc82018560601b6bffffffffffffffffffffffff19169052565b61454660d082018460601b6bffffffffffffffffffffffff19169052565b61456460e482018360601b6bffffffffffffffffffffffff19169052565b60f8019d9c50505050505050505050505050565b600081600019048311821515161561459257614592614239565b500290565b6000826145b457634e487b7160e01b600052601260045260246000fd5b500490565b8281526101c081016145df602083016145d185613d65565b67ffffffffffffffff169052565b6145eb60208401613d82565b6001600160a01b038116604084015250604083013560608301526060830135608083015261461b60808401613d65565b67ffffffffffffffff811660a08401525061463860a08401613d82565b6001600160a01b03811660c08401525060c083013560e083015261465e60e08401613d65565b6101006146768185018367ffffffffffffffff169052565b614681818601613d65565b91505061012061469c8185018367ffffffffffffffff169052565b6146a7818601613d82565b9150506101406146c1818501836001600160a01b03169052565b6146cc818601613d82565b9150506101606146e6818501836001600160a01b03169052565b6146f1818601613d82565b91505061018061470b818501836001600160a01b03169052565b614716818601613d82565b91505061472f6101a08401826001600160a01b03169052565b509392505050565b6000821982111561474a5761474a614239565b500190565b60005b8381101561476a578181015183820152602001614752565b83811115611bb05750506000910152565b6000815180845261479381602086016020860161474f565b601f01601f19169290920160200192915050565b6001600160a01b038416815267ffffffffffffffff83166020820152606060408201526000610c56606083018461477b565b8183823760009101908152919050565b6000602082840312156147fb57600080fd5b81516112ea81613f40565b6000825161481881846020870161474f565b9190910192915050565b6020815260006112ea602083018461477b56fe4f776e61626c653a2063616c6c6572206973206e6f7420746865206f776e6572a264697066735822122058df3fe92bff1ed660df29d7781fab5d9933751c73a58db627cdd9c0de92606f64736f6c63430008090033",
  "devdoc": {
    "kind": "dev",
    "methods": {
      "executeMessageWithTransfer(address,address,uint256,uint64,bytes,address)": {
        "params": {
          "_amount": "The amount of tokens received at this contract through the cross-chain bridge.",
          "_executor": "Address who called the MessageBus execution function",
          "_message": "Arbitrary message bytes originated from and encoded by the source app contract",
          "_sender": "The address of the source app contract",
          "_srcChainId": "The source chain ID where the transfer is originated from",
          "_token": "The address of the token that comes out of the bridge"
        }
      },
      "executeMessageWithTransferFallback(address,address,uint256,uint64,bytes,address)": {
        "params": {
          "_amount": "The amount of tokens received at this contract through the cross-chain bridge.",
          "_executor": "Address who called the MessageBus execution function",
          "_message": "Arbitrary message bytes originated from and encoded by the source app contract",
          "_sender": "The address of the source app contract",
          "_srcChainId": "The source chain ID where the transfer is originated from",
          "_token": "The address of the token that comes out of the bridge"
        }
      },
      "executeMessageWithTransferRefund(address,uint256,bytes,address)": {
        "params": {
          "_amount": "The amount of the original transfer",
          "_executor": "Address who called the MessageBus execution function",
          "_message": "The same message associated with the original transfer",
          "_token": "The token address of the original transfer"
        }
      },
      "owner()": {
        "details": "Returns the address of the current owner."
      },
      "paused()": {
        "details": "Returns true if the contract is paused, and false otherwise."
      },
      "transferOwnership(address)": {
        "details": "Transfers ownership of the contract to a new account (`newOwner`). Can only be called by the current owner."
      }
    },
    "title": "rfq contract ",
    "version": 1
  },
  "userdoc": {
    "kind": "user",
    "methods": {
      "executeMessageWithTransfer(address,address,uint256,uint64,bytes,address)": {
        "notice": "Called by MessageBus to execute a message with an associated token transfer. The contract is guaranteed to have received the right amount of tokens before this function is called."
      },
      "executeMessageWithTransferFallback(address,address,uint256,uint64,bytes,address)": {
        "notice": "Only called by MessageBus if         1. executeMessageWithTransfer reverts, or         2. executeMessageWithTransfer returns ExecutionStatus.Fail The contract is guaranteed to have received the right amount of tokens before this function is called."
      },
      "executeMessageWithTransferRefund(address,uint256,bytes,address)": {
        "notice": "Called by MessageBus to process refund of the original transfer from this contract. The contract is guaranteed to have received the refund before this function is called."
      }
    },
    "version": 1
  },
  "storageLayout": {
    "storage": [
      {
        "astId": 28309,
        "contract": "contracts/message/apps/RFQ.sol:RFQ",
        "label": "_owner",
        "offset": 0,
        "slot": "0",
        "type": "t_address"
      },
      {
        "astId": 19125,
        "contract": "contracts/message/apps/RFQ.sol:RFQ",
        "label": "messageBus",
        "offset": 0,
        "slot": "1",
        "type": "t_address"
      },
      {
        "astId": 122,
        "contract": "contracts/message/apps/RFQ.sol:RFQ",
        "label": "_paused",
        "offset": 20,
        "slot": "1",
        "type": "t_bool"
      },
      {
        "astId": 28423,
        "contract": "contracts/message/apps/RFQ.sol:RFQ",
        "label": "pausers",
        "offset": 0,
        "slot": "2",
        "type": "t_mapping(t_address,t_bool)"
      },
      {
        "astId": 28182,
        "contract": "contracts/message/apps/RFQ.sol:RFQ",
        "label": "governors",
        "offset": 0,
        "slot": "3",
        "type": "t_mapping(t_address,t_bool)"
      },
      {
        "astId": 13279,
        "contract": "contracts/message/apps/RFQ.sol:RFQ",
        "label": "nativeWrap",
        "offset": 0,
        "slot": "4",
        "type": "t_address"
      },
      {
        "astId": 13283,
        "contract": "contracts/message/apps/RFQ.sol:RFQ",
        "label": "remoteRfqContracts",
        "offset": 0,
        "slot": "5",
        "type": "t_mapping(t_uint64,t_address)"
      },
      {
        "astId": 13287,
        "contract": "contracts/message/apps/RFQ.sol:RFQ",
        "label": "unconsumedMsg",
        "offset": 0,
        "slot": "6",
        "type": "t_mapping(t_bytes32,t_bool)"
      },
      {
        "astId": 13292,
        "contract": "contracts/message/apps/RFQ.sol:RFQ",
        "label": "quotes",
        "offset": 0,
        "slot": "7",
        "type": "t_mapping(t_bytes32,t_enum(QuoteStatus)13273)"
      },
      {
        "astId": 13294,
        "contract": "contracts/message/apps/RFQ.sol:RFQ",
        "label": "treasuryAddr",
        "offset": 0,
        "slot": "8",
        "type": "t_address"
      },
      {
        "astId": 13296,
        "contract": "contracts/message/apps/RFQ.sol:RFQ",
        "label": "feePercGlobal",
        "offset": 20,
        "slot": "8",
        "type": "t_uint32"
      },
      {
        "astId": 13300,
        "contract": "contracts/message/apps/RFQ.sol:RFQ",
        "label": "feePercOverride",
        "offset": 0,
        "slot": "9",
        "type": "t_mapping(t_uint64,t_uint32)"
      },
      {
        "astId": 13304,
        "contract": "contracts/message/apps/RFQ.sol:RFQ",
        "label": "protocolFee",
        "offset": 0,
        "slot": "10",
        "type": "t_mapping(t_address,t_uint256)"
      }
    ],
    "types": {
      "t_address": {
        "encoding": "inplace",
        "label": "address",
        "numberOfBytes": "20"
      },
      "t_bool": {
        "encoding": "inplace",
        "label": "bool",
        "numberOfBytes": "1"
      },
      "t_bytes32": {
        "encoding": "inplace",
        "label": "bytes32",
        "numberOfBytes": "32"
      },
      "t_enum(QuoteStatus)13273": {
        "encoding": "inplace",
        "label": "enum RFQ.QuoteStatus",
        "numberOfBytes": "1"
      },
      "t_mapping(t_address,t_bool)": {
        "encoding": "mapping",
        "key": "t_address",
        "label": "mapping(address => bool)",
        "numberOfBytes": "32",
        "value": "t_bool"
      },
      "t_mapping(t_address,t_uint256)": {
        "encoding": "mapping",
        "key": "t_address",
        "label": "mapping(address => uint256)",
        "numberOfBytes": "32",
        "value": "t_uint256"
      },
      "t_mapping(t_bytes32,t_bool)": {
        "encoding": "mapping",
        "key": "t_bytes32",
        "label": "mapping(bytes32 => bool)",
        "numberOfBytes": "32",
        "value": "t_bool"
      },
      "t_mapping(t_bytes32,t_enum(QuoteStatus)13273)": {
        "encoding": "mapping",
        "key": "t_bytes32",
        "label": "mapping(bytes32 => enum RFQ.QuoteStatus)",
        "numberOfBytes": "32",
        "value": "t_enum(QuoteStatus)13273"
      },
      "t_mapping(t_uint64,t_address)": {
        "encoding": "mapping",
        "key": "t_uint64",
        "label": "mapping(uint64 => address)",
        "numberOfBytes": "32",
        "value": "t_address"
      },
      "t_mapping(t_uint64,t_uint32)": {
        "encoding": "mapping",
        "key": "t_uint64",
        "label": "mapping(uint64 => uint32)",
        "numberOfBytes": "32",
        "value": "t_uint32"
      },
      "t_uint256": {
        "encoding": "inplace",
        "label": "uint256",
        "numberOfBytes": "32"
      },
      "t_uint32": {
        "encoding": "inplace",
        "label": "uint32",
        "numberOfBytes": "4"
      },
      "t_uint64": {
        "encoding": "inplace",
        "label": "uint64",
        "numberOfBytes": "8"
      }
    }
  }
}