{
  "address": "0xEA716c3a13092711c3Bc33e68289aAe9e5d9Acbd",
  "abi": [
    {
      "inputs": [
        {
          "internalType": "contract ISigsVerifier",
          "name": "_sigsVerifier",
          "type": "address"
        },
        {
          "internalType": "address",
          "name": "_liquidityBridge",
          "type": "address"
        },
        {
          "internalType": "address",
          "name": "_pegBridge",
          "type": "address"
        },
        {
          "internalType": "address",
          "name": "_pegVault",
          "type": "address"
        },
        {
          "internalType": "address",
          "name": "_pegBridgeV2",
          "type": "address"
        },
        {
          "internalType": "address",
          "name": "_pegVaultV2",
          "type": "address"
        }
      ],
      "stateMutability": "nonpayable",
      "type": "constructor"
    },
    {
      "anonymous": false,
      "inputs": [
        {
          "indexed": false,
          "internalType": "string",
          "name": "reason",
          "type": "string"
        }
      ],
      "name": "CallReverted",
      "type": "event"
    },
    {
      "anonymous": false,
      "inputs": [
        {
          "indexed": false,
          "internalType": "enum MsgDataTypes.MsgType",
          "name": "msgType",
          "type": "uint8"
        },
        {
          "indexed": false,
          "internalType": "bytes32",
          "name": "msgId",
          "type": "bytes32"
        },
        {
          "indexed": false,
          "internalType": "enum MsgDataTypes.TxStatus",
          "name": "status",
          "type": "uint8"
        },
        {
          "indexed": true,
          "internalType": "address",
          "name": "receiver",
          "type": "address"
        },
        {
          "indexed": false,
          "internalType": "uint64",
          "name": "srcChainId",
          "type": "uint64"
        },
        {
          "indexed": false,
          "internalType": "bytes32",
          "name": "srcTxHash",
          "type": "bytes32"
        }
      ],
      "name": "Executed",
      "type": "event"
    },
    {
      "anonymous": false,
      "inputs": [
        {
          "indexed": false,
          "internalType": "uint256",
          "name": "feeBase",
          "type": "uint256"
        }
      ],
      "name": "FeeBaseUpdated",
      "type": "event"
    },
    {
      "anonymous": false,
      "inputs": [
        {
          "indexed": false,
          "internalType": "uint256",
          "name": "feePerByte",
          "type": "uint256"
        }
      ],
      "name": "FeePerByteUpdated",
      "type": "event"
    },
    {
      "anonymous": false,
      "inputs": [
        {
          "indexed": false,
          "internalType": "address",
          "name": "receiver",
          "type": "address"
        },
        {
          "indexed": false,
          "internalType": "uint256",
          "name": "amount",
          "type": "uint256"
        }
      ],
      "name": "FeeWithdrawn",
      "type": "event"
    },
    {
      "anonymous": false,
      "inputs": [
        {
          "indexed": false,
          "internalType": "address",
          "name": "liquidityBridge",
          "type": "address"
        }
      ],
      "name": "LiquidityBridgeUpdated",
      "type": "event"
    },
    {
      "anonymous": false,
      "inputs": [
        {
          "indexed": true,
          "internalType": "address",
          "name": "sender",
          "type": "address"
        },
        {
          "indexed": false,
          "internalType": "address",
          "name": "receiver",
          "type": "address"
        },
        {
          "indexed": false,
          "internalType": "uint256",
          "name": "dstChainId",
          "type": "uint256"
        },
        {
          "indexed": false,
          "internalType": "bytes",
          "name": "message",
          "type": "bytes"
        },
        {
          "indexed": false,
          "internalType": "uint256",
          "name": "fee",
          "type": "uint256"
        }
      ],
      "name": "Message",
      "type": "event"
    },
    {
      "anonymous": false,
      "inputs": [
        {
          "indexed": true,
          "internalType": "address",
          "name": "sender",
          "type": "address"
        },
        {
          "indexed": false,
          "internalType": "bytes",
          "name": "receiver",
          "type": "bytes"
        },
        {
          "indexed": false,
          "internalType": "uint256",
          "name": "dstChainId",
          "type": "uint256"
        },
        {
          "indexed": false,
          "internalType": "bytes",
          "name": "message",
          "type": "bytes"
        },
        {
          "indexed": false,
          "internalType": "uint256",
          "name": "fee",
          "type": "uint256"
        }
      ],
      "name": "Message2",
      "type": "event"
    },
    {
      "anonymous": false,
      "inputs": [
        {
          "indexed": true,
          "internalType": "address",
          "name": "sender",
          "type": "address"
        },
        {
          "indexed": false,
          "internalType": "address",
          "name": "receiver",
          "type": "address"
        },
        {
          "indexed": false,
          "internalType": "uint256",
          "name": "dstChainId",
          "type": "uint256"
        },
        {
          "indexed": false,
          "internalType": "address",
          "name": "bridge",
          "type": "address"
        },
        {
          "indexed": false,
          "internalType": "bytes32",
          "name": "srcTransferId",
          "type": "bytes32"
        },
        {
          "indexed": false,
          "internalType": "bytes",
          "name": "message",
          "type": "bytes"
        },
        {
          "indexed": false,
          "internalType": "uint256",
          "name": "fee",
          "type": "uint256"
        }
      ],
      "name": "MessageWithTransfer",
      "type": "event"
    },
    {
      "anonymous": false,
      "inputs": [
        {
          "indexed": false,
          "internalType": "enum MsgDataTypes.MsgType",
          "name": "msgType",
          "type": "uint8"
        },
        {
          "indexed": false,
          "internalType": "bytes32",
          "name": "msgId",
          "type": "bytes32"
        },
        {
          "indexed": false,
          "internalType": "uint64",
          "name": "srcChainId",
          "type": "uint64"
        },
        {
          "indexed": false,
          "internalType": "bytes32",
          "name": "srcTxHash",
          "type": "bytes32"
        }
      ],
      "name": "NeedRetry",
      "type": "event"
    },
    {
      "anonymous": false,
      "inputs": [
        {
          "indexed": true,
          "internalType": "address",
          "name": "previousOwner",
          "type": "address"
        },
        {
          "indexed": true,
          "internalType": "address",
          "name": "newOwner",
          "type": "address"
        }
      ],
      "name": "OwnershipTransferred",
      "type": "event"
    },
    {
      "anonymous": false,
      "inputs": [
        {
          "indexed": false,
          "internalType": "address",
          "name": "pegBridge",
          "type": "address"
        }
      ],
      "name": "PegBridgeUpdated",
      "type": "event"
    },
    {
      "anonymous": false,
      "inputs": [
        {
          "indexed": false,
          "internalType": "address",
          "name": "pegBridgeV2",
          "type": "address"
        }
      ],
      "name": "PegBridgeV2Updated",
      "type": "event"
    },
    {
      "anonymous": false,
      "inputs": [
        {
          "indexed": false,
          "internalType": "address",
          "name": "pegVault",
          "type": "address"
        }
      ],
      "name": "PegVaultUpdated",
      "type": "event"
    },
    {
      "anonymous": false,
      "inputs": [
        {
          "indexed": false,
          "internalType": "address",
          "name": "pegVaultV2",
          "type": "address"
        }
      ],
      "name": "PegVaultV2Updated",
      "type": "event"
    },
    {
      "inputs": [
        {
          "internalType": "bytes",
          "name": "_message",
          "type": "bytes"
        }
      ],
      "name": "calcFee",
      "outputs": [
        {
          "internalType": "uint256",
          "name": "",
          "type": "uint256"
        }
      ],
      "stateMutability": "view",
      "type": "function"
    },
    {
      "inputs": [
        {
          "internalType": "bytes",
          "name": "_message",
          "type": "bytes"
        },
        {
          "components": [
            {
              "internalType": "address",
              "name": "sender",
              "type": "address"
            },
            {
              "internalType": "address",
              "name": "receiver",
              "type": "address"
            },
            {
              "internalType": "uint64",
              "name": "srcChainId",
              "type": "uint64"
            },
            {
              "internalType": "bytes32",
              "name": "srcTxHash",
              "type": "bytes32"
            }
          ],
          "internalType": "struct MsgDataTypes.RouteInfo",
          "name": "_route",
          "type": "tuple"
        },
        {
          "internalType": "bytes[]",
          "name": "_sigs",
          "type": "bytes[]"
        },
        {
          "internalType": "address[]",
          "name": "_signers",
          "type": "address[]"
        },
        {
          "internalType": "uint256[]",
          "name": "_powers",
          "type": "uint256[]"
        }
      ],
      "name": "executeMessage",
      "outputs": [],
      "stateMutability": "payable",
      "type": "function"
    },
    {
      "inputs": [
        {
          "internalType": "bytes",
          "name": "_message",
          "type": "bytes"
        },
        {
          "components": [
            {
              "internalType": "bytes",
              "name": "sender",
              "type": "bytes"
            },
            {
              "internalType": "address",
              "name": "receiver",
              "type": "address"
            },
            {
              "internalType": "uint64",
              "name": "srcChainId",
              "type": "uint64"
            },
            {
              "internalType": "bytes32",
              "name": "srcTxHash",
              "type": "bytes32"
            }
          ],
          "internalType": "struct MsgDataTypes.RouteInfo2",
          "name": "_route",
          "type": "tuple"
        },
        {
          "internalType": "bytes[]",
          "name": "_sigs",
          "type": "bytes[]"
        },
        {
          "internalType": "address[]",
          "name": "_signers",
          "type": "address[]"
        },
        {
          "internalType": "uint256[]",
          "name": "_powers",
          "type": "uint256[]"
        }
      ],
      "name": "executeMessage",
      "outputs": [],
      "stateMutability": "payable",
      "type": "function"
    },
    {
      "inputs": [
        {
          "internalType": "bytes",
          "name": "_message",
          "type": "bytes"
        },
        {
          "components": [
            {
              "internalType": "enum MsgDataTypes.TransferType",
              "name": "t",
              "type": "uint8"
            },
            {
              "internalType": "address",
              "name": "sender",
              "type": "address"
            },
            {
              "internalType": "address",
              "name": "receiver",
              "type": "address"
            },
            {
              "internalType": "address",
              "name": "token",
              "type": "address"
            },
            {
              "internalType": "uint256",
              "name": "amount",
              "type": "uint256"
            },
            {
              "internalType": "uint64",
              "name": "wdseq",
              "type": "uint64"
            },
            {
              "internalType": "uint64",
              "name": "srcChainId",
              "type": "uint64"
            },
            {
              "internalType": "bytes32",
              "name": "refId",
              "type": "bytes32"
            },
            {
              "internalType": "bytes32",
              "name": "srcTxHash",
              "type": "bytes32"
            }
          ],
          "internalType": "struct MsgDataTypes.TransferInfo",
          "name": "_transfer",
          "type": "tuple"
        },
        {
          "internalType": "bytes[]",
          "name": "_sigs",
          "type": "bytes[]"
        },
        {
          "internalType": "address[]",
          "name": "_signers",
          "type": "address[]"
        },
        {
          "internalType": "uint256[]",
          "name": "_powers",
          "type": "uint256[]"
        }
      ],
      "name": "executeMessageWithTransfer",
      "outputs": [],
      "stateMutability": "payable",
      "type": "function"
    },
    {
      "inputs": [
        {
          "internalType": "bytes",
          "name": "_message",
          "type": "bytes"
        },
        {
          "components": [
            {
              "internalType": "enum MsgDataTypes.TransferType",
              "name": "t",
              "type": "uint8"
            },
            {
              "internalType": "address",
              "name": "sender",
              "type": "address"
            },
            {
              "internalType": "address",
              "name": "receiver",
              "type": "address"
            },
            {
              "internalType": "address",
              "name": "token",
              "type": "address"
            },
            {
              "internalType": "uint256",
              "name": "amount",
              "type": "uint256"
            },
            {
              "internalType": "uint64",
              "name": "wdseq",
              "type": "uint64"
            },
            {
              "internalType": "uint64",
              "name": "srcChainId",
              "type": "uint64"
            },
            {
              "internalType": "bytes32",
              "name": "refId",
              "type": "bytes32"
            },
            {
              "internalType": "bytes32",
              "name": "srcTxHash",
              "type": "bytes32"
            }
          ],
          "internalType": "struct MsgDataTypes.TransferInfo",
          "name": "_transfer",
          "type": "tuple"
        },
        {
          "internalType": "bytes[]",
          "name": "_sigs",
          "type": "bytes[]"
        },
        {
          "internalType": "address[]",
          "name": "_signers",
          "type": "address[]"
        },
        {
          "internalType": "uint256[]",
          "name": "_powers",
          "type": "uint256[]"
        }
      ],
      "name": "executeMessageWithTransferRefund",
      "outputs": [],
      "stateMutability": "payable",
      "type": "function"
    },
    {
      "inputs": [
        {
          "internalType": "bytes32",
          "name": "",
          "type": "bytes32"
        }
      ],
      "name": "executedMessages",
      "outputs": [
        {
          "internalType": "enum MsgDataTypes.TxStatus",
          "name": "",
          "type": "uint8"
        }
      ],
      "stateMutability": "view",
      "type": "function"
    },
    {
      "inputs": [],
      "name": "feeBase",
      "outputs": [
        {
          "internalType": "uint256",
          "name": "",
          "type": "uint256"
        }
      ],
      "stateMutability": "view",
      "type": "function"
    },
    {
      "inputs": [],
      "name": "feePerByte",
      "outputs": [
        {
          "internalType": "uint256",
          "name": "",
          "type": "uint256"
        }
      ],
      "stateMutability": "view",
      "type": "function"
    },
    {
      "inputs": [
        {
          "internalType": "address",
          "name": "_liquidityBridge",
          "type": "address"
        },
        {
          "internalType": "address",
          "name": "_pegBridge",
          "type": "address"
        },
        {
          "internalType": "address",
          "name": "_pegVault",
          "type": "address"
        },
        {
          "internalType": "address",
          "name": "_pegBridgeV2",
          "type": "address"
        },
        {
          "internalType": "address",
          "name": "_pegVaultV2",
          "type": "address"
        }
      ],
      "name": "init",
      "outputs": [],
      "stateMutability": "nonpayable",
      "type": "function"
    },
    {
      "inputs": [],
      "name": "liquidityBridge",
      "outputs": [
        {
          "internalType": "address",
          "name": "",
          "type": "address"
        }
      ],
      "stateMutability": "view",
      "type": "function"
    },
    {
      "inputs": [],
      "name": "owner",
      "outputs": [
        {
          "internalType": "address",
          "name": "",
          "type": "address"
        }
      ],
      "stateMutability": "view",
      "type": "function"
    },
    {
      "inputs": [],
      "name": "pegBridge",
      "outputs": [
        {
          "internalType": "address",
          "name": "",
          "type": "address"
        }
      ],
      "stateMutability": "view",
      "type": "function"
    },
    {
      "inputs": [],
      "name": "pegBridgeV2",
      "outputs": [
        {
          "internalType": "address",
          "name": "",
          "type": "address"
        }
      ],
      "stateMutability": "view",
      "type": "function"
    },
    {
      "inputs": [],
      "name": "pegVault",
      "outputs": [
        {
          "internalType": "address",
          "name": "",
          "type": "address"
        }
      ],
      "stateMutability": "view",
      "type": "function"
    },
    {
      "inputs": [],
      "name": "pegVaultV2",
      "outputs": [
        {
          "internalType": "address",
          "name": "",
          "type": "address"
        }
      ],
      "stateMutability": "view",
      "type": "function"
    },
    {
      "inputs": [],
      "name": "preExecuteMessageGasUsage",
      "outputs": [
        {
          "internalType": "uint256",
          "name": "",
          "type": "uint256"
        }
      ],
      "stateMutability": "view",
      "type": "function"
    },
    {
      "inputs": [
        {
          "components": [
            {
              "internalType": "bytes",
              "name": "request",
              "type": "bytes"
            },
            {
              "internalType": "bytes[]",
              "name": "sigs",
              "type": "bytes[]"
            },
            {
              "internalType": "address[]",
              "name": "signers",
              "type": "address[]"
            },
            {
              "internalType": "uint256[]",
              "name": "powers",
              "type": "uint256[]"
            }
          ],
          "internalType": "struct MsgDataTypes.BridgeTransferParams",
          "name": "_tp",
          "type": "tuple"
        },
        {
          "components": [
            {
              "internalType": "bytes",
              "name": "message",
              "type": "bytes"
            },
            {
              "components": [
                {
                  "internalType": "enum MsgDataTypes.TransferType",
                  "name": "t",
                  "type": "uint8"
                },
                {
                  "internalType": "address",
                  "name": "sender",
                  "type": "address"
                },
                {
                  "internalType": "address",
                  "name": "receiver",
                  "type": "address"
                },
                {
                  "internalType": "address",
                  "name": "token",
                  "type": "address"
                },
                {
                  "internalType": "uint256",
                  "name": "amount",
                  "type": "uint256"
                },
                {
                  "internalType": "uint64",
                  "name": "wdseq",
                  "type": "uint64"
                },
                {
                  "internalType": "uint64",
                  "name": "srcChainId",
                  "type": "uint64"
                },
                {
                  "internalType": "bytes32",
                  "name": "refId",
                  "type": "bytes32"
                },
                {
                  "internalType": "bytes32",
                  "name": "srcTxHash",
                  "type": "bytes32"
                }
              ],
              "internalType": "struct MsgDataTypes.TransferInfo",
              "name": "transfer",
              "type": "tuple"
            },
            {
              "internalType": "bytes[]",
              "name": "sigs",
              "type": "bytes[]"
            },
            {
              "internalType": "address[]",
              "name": "signers",
              "type": "address[]"
            },
            {
              "internalType": "uint256[]",
              "name": "powers",
              "type": "uint256[]"
            }
          ],
          "internalType": "struct MsgDataTypes.MsgWithTransferExecutionParams",
          "name": "_mp",
          "type": "tuple"
        }
      ],
      "name": "refundAndExecuteMsg",
      "outputs": [],
      "stateMutability": "nonpayable",
      "type": "function"
    },
    {
      "inputs": [
        {
          "internalType": "bytes",
          "name": "_receiver",
          "type": "bytes"
        },
        {
          "internalType": "uint256",
          "name": "_dstChainId",
          "type": "uint256"
        },
        {
          "internalType": "bytes",
          "name": "_message",
          "type": "bytes"
        }
      ],
      "name": "sendMessage",
      "outputs": [],
      "stateMutability": "payable",
      "type": "function"
    },
    {
      "inputs": [
        {
          "internalType": "address",
          "name": "_receiver",
          "type": "address"
        },
        {
          "internalType": "uint256",
          "name": "_dstChainId",
          "type": "uint256"
        },
        {
          "internalType": "bytes",
          "name": "_message",
          "type": "bytes"
        }
      ],
      "name": "sendMessage",
      "outputs": [],
      "stateMutability": "payable",
      "type": "function"
    },
    {
      "inputs": [
        {
          "internalType": "address",
          "name": "_receiver",
          "type": "address"
        },
        {
          "internalType": "uint256",
          "name": "_dstChainId",
          "type": "uint256"
        },
        {
          "internalType": "address",
          "name": "_srcBridge",
          "type": "address"
        },
        {
          "internalType": "bytes32",
          "name": "_srcTransferId",
          "type": "bytes32"
        },
        {
          "internalType": "bytes",
          "name": "_message",
          "type": "bytes"
        }
      ],
      "name": "sendMessageWithTransfer",
      "outputs": [],
      "stateMutability": "payable",
      "type": "function"
    },
    {
      "inputs": [
        {
          "internalType": "uint256",
          "name": "_fee",
          "type": "uint256"
        }
      ],
      "name": "setFeeBase",
      "outputs": [],
      "stateMutability": "nonpayable",
      "type": "function"
    },
    {
      "inputs": [
        {
          "internalType": "uint256",
          "name": "_fee",
          "type": "uint256"
        }
      ],
      "name": "setFeePerByte",
      "outputs": [],
      "stateMutability": "nonpayable",
      "type": "function"
    },
    {
      "inputs": [
        {
          "internalType": "address",
          "name": "_addr",
          "type": "address"
        }
      ],
      "name": "setLiquidityBridge",
      "outputs": [],
      "stateMutability": "nonpayable",
      "type": "function"
    },
    {
      "inputs": [
        {
          "internalType": "address",
          "name": "_addr",
          "type": "address"
        }
      ],
      "name": "setPegBridge",
      "outputs": [],
      "stateMutability": "nonpayable",
      "type": "function"
    },
    {
      "inputs": [
        {
          "internalType": "address",
          "name": "_addr",
          "type": "address"
        }
      ],
      "name": "setPegBridgeV2",
      "outputs": [],
      "stateMutability": "nonpayable",
      "type": "function"
    },
    {
      "inputs": [
        {
          "internalType": "address",
          "name": "_addr",
          "type": "address"
        }
      ],
      "name": "setPegVault",
      "outputs": [],
      "stateMutability": "nonpayable",
      "type": "function"
    },
    {
      "inputs": [
        {
          "internalType": "address",
          "name": "_addr",
          "type": "address"
        }
      ],
      "name": "setPegVaultV2",
      "outputs": [],
      "stateMutability": "nonpayable",
      "type": "function"
    },
    {
      "inputs": [
        {
          "internalType": "uint256",
          "name": "_usage",
          "type": "uint256"
        }
      ],
      "name": "setPreExecuteMessageGasUsage",
      "outputs": [],
      "stateMutability": "nonpayable",
      "type": "function"
    },
    {
      "inputs": [],
      "name": "sigsVerifier",
      "outputs": [
        {
          "internalType": "contract ISigsVerifier",
          "name": "",
          "type": "address"
        }
      ],
      "stateMutability": "view",
      "type": "function"
    },
    {
      "inputs": [
        {
          "components": [
            {
              "internalType": "bytes",
              "name": "request",
              "type": "bytes"
            },
            {
              "internalType": "bytes[]",
              "name": "sigs",
              "type": "bytes[]"
            },
            {
              "internalType": "address[]",
              "name": "signers",
              "type": "address[]"
            },
            {
              "internalType": "uint256[]",
              "name": "powers",
              "type": "uint256[]"
            }
          ],
          "internalType": "struct MsgDataTypes.BridgeTransferParams",
          "name": "_tp",
          "type": "tuple"
        },
        {
          "components": [
            {
              "internalType": "bytes",
              "name": "message",
              "type": "bytes"
            },
            {
              "components": [
                {
                  "internalType": "enum MsgDataTypes.TransferType",
                  "name": "t",
                  "type": "uint8"
                },
                {
                  "internalType": "address",
                  "name": "sender",
                  "type": "address"
                },
                {
                  "internalType": "address",
                  "name": "receiver",
                  "type": "address"
                },
                {
                  "internalType": "address",
                  "name": "token",
                  "type": "address"
                },
                {
                  "internalType": "uint256",
                  "name": "amount",
                  "type": "uint256"
                },
                {
                  "internalType": "uint64",
                  "name": "wdseq",
                  "type": "uint64"
                },
                {
                  "internalType": "uint64",
                  "name": "srcChainId",
                  "type": "uint64"
                },
                {
                  "internalType": "bytes32",
                  "name": "refId",
                  "type": "bytes32"
                },
                {
                  "internalType": "bytes32",
                  "name": "srcTxHash",
                  "type": "bytes32"
                }
              ],
              "internalType": "struct MsgDataTypes.TransferInfo",
              "name": "transfer",
              "type": "tuple"
            },
            {
              "internalType": "bytes[]",
              "name": "sigs",
              "type": "bytes[]"
            },
            {
              "internalType": "address[]",
              "name": "signers",
              "type": "address[]"
            },
            {
              "internalType": "uint256[]",
              "name": "powers",
              "type": "uint256[]"
            }
          ],
          "internalType": "struct MsgDataTypes.MsgWithTransferExecutionParams",
          "name": "_mp",
          "type": "tuple"
        }
      ],
      "name": "transferAndExecuteMsg",
      "outputs": [],
      "stateMutability": "nonpayable",
      "type": "function"
    },
    {
      "inputs": [
        {
          "internalType": "address",
          "name": "newOwner",
          "type": "address"
        }
      ],
      "name": "transferOwnership",
      "outputs": [],
      "stateMutability": "nonpayable",
      "type": "function"
    },
    {
      "inputs": [
        {
          "internalType": "address",
          "name": "_account",
          "type": "address"
        },
        {
          "internalType": "uint256",
          "name": "_cumulativeFee",
          "type": "uint256"
        },
        {
          "internalType": "bytes[]",
          "name": "_sigs",
          "type": "bytes[]"
        },
        {
          "internalType": "address[]",
          "name": "_signers",
          "type": "address[]"
        },
        {
          "internalType": "uint256[]",
          "name": "_powers",
          "type": "uint256[]"
        }
      ],
      "name": "withdrawFee",
      "outputs": [],
      "stateMutability": "nonpayable",
      "type": "function"
    },
    {
      "inputs": [
        {
          "internalType": "address",
          "name": "",
          "type": "address"
        }
      ],
      "name": "withdrawnFees",
      "outputs": [
        {
          "internalType": "uint256",
          "name": "",
          "type": "uint256"
        }
      ],
      "stateMutability": "view",
      "type": "function"
    }
  ],
  "transactionHash": "0xc8f8927c672a9ddba29398e15ce5b7e95304d31373a0bab8187cff5931166b46",
  "args": [
    "0x9B36f165baB9ebe611d491180418d8De4b8f3a1f",
    "0x9B36f165baB9ebe611d491180418d8De4b8f3a1f",
    "0x0000000000000000000000000000000000000000",
    "0x0000000000000000000000000000000000000000",
    "0x9Bb46D5100d2Db4608112026951c9C965b233f4D",
    "0x0000000000000000000000000000000000000000"
  ],
  "numDeployments": 2,
  "solcInputHash": "054f2510f3a4e9eee8d1a6a332fc5f85",
  "bytecode": "0x60a06040523480156200001157600080fd5b50604051620042ac380380620042ac83398101604081905262000034916200011d565b84848484848a6200004533620000b4565b6001600160a01b03908116608052600580546001600160a01b0319908116978316979097179055600680548716958216959095179094556007805486169385169390931790925560088054851691841691909117905560098054909316911617905550620001b1945050505050565b600080546001600160a01b038381166001600160a01b0319831681178455604051919092169283917f8be0079c531659141344cd1fd0a4f28419497f9722a3daafe3b4186f6b6457e09190a35050565b6001600160a01b03811681146200011a57600080fd5b50565b60008060008060008060c087890312156200013757600080fd5b8651620001448162000104565b6020880151909650620001578162000104565b60408801519095506200016a8162000104565b60608801519094506200017d8162000104565b6080880151909350620001908162000104565b60a0880151909250620001a38162000104565b809150509295509295509295565b6080516140d8620001d4600039600081816104eb015261084301526140d86000f3fe6080604052600436106101fe5760003560e01c806382980dc41161011d578063ccf2683b116100b0578063dfa2dbaf1161007f578063f2fde38b11610064578063f2fde38b146105bd578063f60bbe2a146105dd578063f83b0fb9146105f357600080fd5b8063dfa2dbaf1461057d578063e2c1ed251461059d57600080fd5b8063ccf2683b146104d9578063cd2abd661461050d578063d8257d171461054a578063db2c20c81461056a57600080fd5b806395e911a8116100ec57806395e911a8146104705780639b05a775146104865780639f3ce55a146104a6578063c66a9c5a146104b957600080fd5b806382980dc4146103da57806382efd502146104125780638da5cb5b1461043257806395b12c271461045057600080fd5b8063468a2d04116101955780635b3e5f50116101645780635b3e5f5014610367578063723d0a9d146103945780637b80ab20146103b45780637d7a101d146103c757600080fd5b8063468a2d04146102eb5780635335dca2146102fe578063584e45e114610331578063588be02b1461034757600080fd5b80633f395aff116101d15780633f395aff1461028557806340d0d026146102985780634289fbb3146102b85780634586f331146102cb57600080fd5b806303cbfe661461020357806306c28bd6146102255780632ff4c41114610245578063359ef75b14610265575b600080fd5b34801561020f57600080fd5b5061022361021e366004613047565b610613565b005b34801561023157600080fd5b50610223610240366004613064565b61070c565b34801561025157600080fd5b506102236102603660046130c9565b610798565b34801561027157600080fd5b5061022361028036600461317f565b610a33565b610223610293366004613232565b610a4f565b3480156102a457600080fd5b506102236102b336600461333b565b610d46565b6102236102c63660046133a7565b610d9e565b3480156102d757600080fd5b506102236102e6366004613064565b610e86565b6102236102f9366004613423565b610ee2565b34801561030a57600080fd5b5061031e6103193660046134e8565b610f42565b6040519081526020015b60405180910390f35b34801561033d57600080fd5b5061031e600a5481565b34801561035357600080fd5b50610223610362366004613047565b610f68565b34801561037357600080fd5b5061031e610382366004613047565b60036020526000908152604090205481565b3480156103a057600080fd5b506102236103af36600461333b565b611055565b6102236103c2366004613232565b6110a3565b6102236103d536600461352a565b611362565b3480156103e657600080fd5b506005546103fa906001600160a01b031681565b6040516001600160a01b039091168152602001610328565b34801561041e57600080fd5b5061022361042d366004613047565b6113bf565b34801561043e57600080fd5b506000546001600160a01b03166103fa565b34801561045c57600080fd5b506008546103fa906001600160a01b031681565b34801561047c57600080fd5b5061031e60015481565b34801561049257600080fd5b506102236104a1366004613047565b6114ac565b6102236104b43660046135a4565b611599565b3480156104c557600080fd5b506009546103fa906001600160a01b031681565b3480156104e557600080fd5b506103fa7f000000000000000000000000000000000000000000000000000000000000000081565b34801561051957600080fd5b5061053d610528366004613064565b60046020526000908152604090205460ff1681565b604051610328919061362a565b34801561055657600080fd5b506007546103fa906001600160a01b031681565b610223610578366004613638565b6115f3565b34801561058957600080fd5b506006546103fa906001600160a01b031681565b3480156105a957600080fd5b506102236105b8366004613064565b611647565b3480156105c957600080fd5b506102236105d8366004613047565b6116d3565b3480156105e957600080fd5b5061031e60025481565b3480156105ff57600080fd5b5061022361060e366004613047565b6117b2565b336106266000546001600160a01b031690565b6001600160a01b03161461066f5760405162461bcd60e51b8152602060048201819052602482015260008051602061405783398151915260448201526064015b60405180910390fd5b6001600160a01b0381166106b75760405162461bcd60e51b815260206004820152600f60248201526e696e76616c6964206164647265737360881b6044820152606401610666565b600680546001600160a01b0319166001600160a01b0383169081179091556040519081527fd60e9ceb4f54f1bfb1741a4b35fc9d806d7ed48200b523203b92248ea38fa17d906020015b60405180910390a150565b3361071f6000546001600160a01b031690565b6001600160a01b0316146107635760405162461bcd60e51b815260206004820181905260248201526000805160206140578339815191526044820152606401610666565b60018190556040518181527f892dfdc99ecd3bb4f2f2cb118dca02f0bd16640ff156d3c6459d4282e336a5f290602001610701565b600046306040516020016107e992919091825260601b6001600160601b03191660208201527f77697468647261774665650000000000000000000000000000000000000000006034820152603f0190565b60408051808303601f19018152828252805160209182012090830181905260608c901b6001600160601b0319168383015260548084018c9052825180850390910181526074840192839052633416de1160e11b90925292507f00000000000000000000000000000000000000000000000000000000000000006001600160a01b03169163682dbc229161088a918b908b908b908b908b908b9060780161389e565b60006040518083038186803b1580156108a257600080fd5b505afa1580156108b6573d6000803e3d6000fd5b505050506001600160a01b0389166000908152600360205260408120546108dd908a613912565b90506000811161092f5760405162461bcd60e51b815260206004820152601960248201527f4e6f206e657720616d6f756e7420746f207769746864726177000000000000006044820152606401610666565b6001600160a01b038a166000818152600360205260408082208c90555190919061c35090849084818181858888f193505050503d806000811461098e576040519150601f19603f3d011682016040523d82523d6000602084013e610993565b606091505b50509050806109e45760405162461bcd60e51b815260206004820152601660248201527f6661696c656420746f20776974686472617720666565000000000000000000006044820152606401610666565b604080516001600160a01b038d168152602081018490527f78473f3f373f7673597f4f0fa5873cb4d375fea6d4339ad6b56dbd411513cb3f910160405180910390a15050505050505050505050565b610a3b61189f565b610a488585858585611903565b5050505050565b6000610a5a886119bb565b90506000808281526004602081905260409091205460ff1690811115610a8257610a82613600565b14610acf5760405162461bcd60e51b815260206004820152601960248201527f7472616e7366657220616c7265616479206578656375746564000000000000006044820152606401610666565b6000818152600460208181526040808420805460ff1916909317909255815146918101919091526001600160601b03193060601b16918101919091527f4d657373616765576974685472616e73666572000000000000000000000000006054820152606701604051602081830303815290604052805190602001209050600560009054906101000a90046001600160a01b03166001600160a01b031663682dbc2282848e8e8e6101000135604051602001610b8e959493929190613925565b6040516020818303038152906040528a8a8a8a8a8a6040518863ffffffff1660e01b8152600401610bc5979695949392919061389e565b60006040518083038186803b158015610bdd57600080fd5b505afa158015610bf1573d6000803e3d6000fd5b505050506000806000610c058c8f8f6120b6565b90925090506001826002811115610c1e57610c1e613600565b03610c2c5760019250610cf5565b6002826002811115610c4057610c40613600565b03610cc0576000858152600460205260408120805460ff191660018302179055507fe49c2c954d381d1448cf824743aeff9da7a1d82078a7c9e5817269cc359bd26c6000868e60c0016020810190610c989190613947565b8f6101000135604051610cae9493929190613981565b60405180910390a15050505050610d3b565b610ccc8c8f8f846121fe565b91506001826002811115610ce257610ce2613600565b03610cf05760039250610cf5565b600292505b60008581526004602081905260409091208054859260ff19909116906001908490811115610d2557610d25613600565b0217905550610d3585848e61233d565b50505050505b505050505050505050565b610d5f610d5960408301602084016139b4565b836123af565b610d9a610d6c82806139d5565b60208401610d7e610140860186613a1c565b610d8c610160880188613a1c565b6103c26101808a018a613a1c565b5050565b468503610ddf5760405162461bcd60e51b815260206004820152600f60248201526e125b9d985b1a590818da185a5b9259608a1b6044820152606401610666565b6000610deb8383610f42565b905080341015610e305760405162461bcd60e51b815260206004820152601060248201526f496e73756666696369656e742066656560801b6044820152606401610666565b336001600160a01b03167f172762498a59a3bc4fed3f2b63f94f17ea0193cffdc304fe7d3eaf4d342d2f6688888888888834604051610e759796959493929190613a66565b60405180910390a250505050505050565b33610e996000546001600160a01b031690565b6001600160a01b031614610edd5760405162461bcd60e51b815260206004820181905260248201526000805160206140578339815191526044820152606401610666565b600a55565b6000610eed886125f9565b9050610f368a8a838a8a8a8a8a8a6040518060400160405280600781526020017f4d657373616765000000000000000000000000000000000000000000000000008152506126b0565b50505050505050505050565b600254600090610f529083613ab3565b600154610f5f9190613aca565b90505b92915050565b33610f7b6000546001600160a01b031690565b6001600160a01b031614610fbf5760405162461bcd60e51b815260206004820181905260248201526000805160206140578339815191526044820152606401610666565b6001600160a01b0381166110075760405162461bcd60e51b815260206004820152600f60248201526e696e76616c6964206164647265737360881b6044820152606401610666565b600580546001600160a01b0319166001600160a01b0383169081179091556040519081527fbf9977180dc6e6cff25598c8e59150cecd7f8e448e092633d38ab7ee223ae05890602001610701565b611068610d5960408301602084016139b4565b610d9a61107582806139d5565b60208401611087610140860186613a1c565b611095610160880188613a1c565b6102936101808a018a613a1c565b60006110ae886119bb565b90506000808281526004602081905260409091205460ff16908111156110d6576110d6613600565b146111235760405162461bcd60e51b815260206004820152601960248201527f7472616e7366657220616c7265616479206578656375746564000000000000006044820152606401610666565b6000818152600460208181526040808420805460ff1916909317909255815146918101919091526001600160601b03193060601b16918101919091527f4d657373616765576974685472616e73666572526566756e64000000000000006054820152606d01604051602081830303815290604052805190602001209050600560009054906101000a90046001600160a01b03166001600160a01b031663682dbc2282848e8e8e61010001356040516020016111e2959493929190613925565b6040516020818303038152906040528a8a8a8a8a8a6040518863ffffffff1660e01b8152600401611219979695949392919061389e565b60006040518083038186803b15801561123157600080fd5b505afa158015611245573d6000803e3d6000fd5b505050506000806112578b8e8e6128f4565b9050600181600281111561126d5761126d613600565b0361127b5760019150611313565b600281600281111561128f5761128f613600565b0361130e576000848152600460205260408120805460ff191660018302179055507fe49c2c954d381d1448cf824743aeff9da7a1d82078a7c9e5817269cc359bd26c6000858d60c00160208101906112e79190613947565b8e61010001356040516112fd9493929190613981565b60405180910390a150505050610d3b565b600291505b60008481526004602081905260409091208054849260ff1990911690600190849081111561134357611343613600565b021790555061135384838d61233d565b50505050505050505050505050565b61136d838383612a0d565b336001600160a01b03167fe66fbe37d84ca73c589f782ac278844918ea6c56a4917f58707f715588080df28686868686346040516113b096959493929190613add565b60405180910390a25050505050565b336113d26000546001600160a01b031690565b6001600160a01b0316146114165760405162461bcd60e51b815260206004820181905260248201526000805160206140578339815191526044820152606401610666565b6001600160a01b03811661145e5760405162461bcd60e51b815260206004820152600f60248201526e696e76616c6964206164647265737360881b6044820152606401610666565b600880546001600160a01b0319166001600160a01b0383169081179091556040519081527ffb337a6c76476534518d5816caeb86263972470fedccfd047a35eb1825eaa9e890602001610701565b336114bf6000546001600160a01b031690565b6001600160a01b0316146115035760405162461bcd60e51b815260206004820181905260248201526000805160206140578339815191526044820152606401610666565b6001600160a01b03811661154b5760405162461bcd60e51b815260206004820152600f60248201526e696e76616c6964206164647265737360881b6044820152606401610666565b600780546001600160a01b0319166001600160a01b0383169081179091556040519081527fa9db0c32d9c6c2f75f3b95047a9e67cc1c010eab792a4e6ca777ce918ad94aad90602001610701565b6115a4838383612a0d565b336001600160a01b03167fce3972bfffe49d317e1d128047a97a3d86b25c94f6f04409f988ef854d25e0e485858585346040516115e5959493929190613b1e565b60405180910390a250505050565b60006115fe88612aa5565b9050610f368a8a838a8a8a8a8a8a6040518060400160405280600881526020017f4d657373616765320000000000000000000000000000000000000000000000008152506126b0565b3361165a6000546001600160a01b031690565b6001600160a01b03161461169e5760405162461bcd60e51b815260206004820181905260248201526000805160206140578339815191526044820152606401610666565b60028190556040518181527f210d4d5d2d36d571207dac98e383e2441c684684c885fb2d7c54f8d24422074c90602001610701565b336116e66000546001600160a01b031690565b6001600160a01b03161461172a5760405162461bcd60e51b815260206004820181905260248201526000805160206140578339815191526044820152606401610666565b6001600160a01b0381166117a65760405162461bcd60e51b815260206004820152602660248201527f4f776e61626c653a206e6577206f776e657220697320746865207a65726f206160448201527f64647265737300000000000000000000000000000000000000000000000000006064820152608401610666565b6117af81612b3b565b50565b336117c56000546001600160a01b031690565b6001600160a01b0316146118095760405162461bcd60e51b815260206004820181905260248201526000805160206140578339815191526044820152606401610666565b6001600160a01b0381166118515760405162461bcd60e51b815260206004820152600f60248201526e696e76616c6964206164647265737360881b6044820152606401610666565b600980546001600160a01b0319166001600160a01b0383169081179091556040519081527f918a691a2a82482a10e11f43d7b627b2ba220dd08f251cb61933c42560f6fcb590602001610701565b6000546001600160a01b0316156118f85760405162461bcd60e51b815260206004820152601160248201527f6f776e657220616c7265616479207365740000000000000000000000000000006044820152606401610666565b61190133612b3b565b565b6005546001600160a01b03161561195c5760405162461bcd60e51b815260206004820152601b60248201527f6c697175696469747942726964676520616c72656164792073657400000000006044820152606401610666565b600580546001600160a01b03199081166001600160a01b03978816179091556006805482169587169590951790945560078054851693861693909317909255600880548416918516919091179055600980549092169216919091179055565b60008080806119cd60208601866139b4565b905060018160068111156119e3576119e3613600565b03611b76576005546001600160a01b03169150611a066040860160208701613047565b611a166060870160408801613047565b611a266080880160608901613047565b6080880135611a3b60e08a0160c08b01613947565b6040516001600160601b0319606096871b8116602083015294861b851660348201529290941b9092166048820152605c8101919091526001600160c01b031960c092831b8116607c8301524690921b909116608482015260e0860135608c82015260ac0160408051808303601f19018152908290528051602090910120633c64f04b60e01b82526004820181905293506001600160a01b03831690633c64f04b90602401602060405180830381865afa158015611afc573d6000803e3d6000fd5b505050506040513d601f19601f82011682018060405250810190611b209190613b59565b1515600114611b715760405162461bcd60e51b815260206004820152600f60248201527f72656c6179206e6f7420657869737400000000000000000000000000000000006044820152606401610666565b611fc6565b6002816006811115611b8a57611b8a613600565b03611cef576005546001600160a01b0316915046611bae60c0870160a08801613947565b611bbe6060880160408901613047565b611bce6080890160608a01613047565b6040516001600160c01b031960c095861b811660208301529390941b90921660288401526001600160601b0319606091821b8116603085015291901b1660448201526080860135605882015260780160408051808303601f19018152908290528051602090910120631c13568560e31b82526004820181905293506001600160a01b0383169063e09ab42890602401602060405180830381865afa158015611c7a573d6000803e3d6000fd5b505050506040513d601f19601f82011682018060405250810190611c9e9190613b59565b1515600114611b715760405162461bcd60e51b815260206004820152601260248201527f7769746864726177206e6f7420657869737400000000000000000000000000006044820152606401610666565b6003816006811115611d0357611d03613600565b1480611d2057506004816006811115611d1e57611d1e613600565b145b15611e17576003816006811115611d3957611d39613600565b14611d4f576007546001600160a01b0316611d5c565b6006546001600160a01b03165b9150611d6e6060860160408701613047565b611d7e6080870160608801613047565b6080870135611d936040890160208a01613047565b611da360e08a0160c08b01613947565b604051606095861b6001600160601b0319908116602083015294861b851660348201526048810193909352931b909116606882015260c09190911b6001600160c01b031916607c82015260e0860135608482015260a401604051602081830303815290604052805190602001209250611f0c565b6005816006811115611e2b57611e2b613600565b14611e41576009546001600160a01b0316611e4e565b6008546001600160a01b03165b9150611e606060860160408701613047565b611e706080870160608801613047565b6080870135611e856040890160208a01613047565b611e9560e08a0160c08b01613947565b604051606095861b6001600160601b0319908116602083015294861b85166034820152604881019390935290841b8316606883015260c01b6001600160c01b031916607c82015260e088013560848201529184901b1660a482015260b8016040516020818303038152906040528051906020012092505b6040516301e6472560e01b8152600481018490526001600160a01b038316906301e6472590602401602060405180830381865afa158015611f51573d6000803e3d6000fd5b505050506040513d601f19601f82011682018060405250810190611f759190613b59565b1515600114611fc65760405162461bcd60e51b815260206004820152601060248201527f7265636f7264206e6f74206578697374000000000000000000000000000000006044820152606401610666565b60405163adc0d57f60e01b8152600481018490526001600160a01b0383169063adc0d57f90602401608060405180830381865afa15801561200b573d6000803e3d6000fd5b505050506040513d601f19601f8201168201806040525081019061202f9190613b91565b60600151156120805760405162461bcd60e51b815260206004820152601060248201527f7472616e736665722064656c61796564000000000000000000000000000000006044820152606401610666565b6000828460405160200161209693929190613c1d565b604051602081830303815290604052805190602001209350505050919050565b60008060005a90506000806120d16060890160408a01613047565b6001600160a01b031634631f34afff60e21b6120f360408c0160208d01613047565b61210360808d0160608e01613047565b8c608001358d60c001602081019061211b9190613947565b8d8d336040516024016121349796959493929190613c49565b60408051601f198184030181529181526020820180516001600160e01b03166001600160e01b03199094169390931790925290516121729190613ca2565b60006040518083038185875af1925050503d80600081146121af576040519150601f19603f3d011682016040523d82523d6000602084013e6121b4565b606091505b509150915081156121e157808060200190518101906121d39190613cbe565b6000945094505050506121f6565b6121eb8382612b8b565b600034945094505050505b935093915050565b6000805a90506000806122176060890160408a01613047565b6001600160a01b031685632d5bd7e360e11b61223960408c0160208d01613047565b61224960808d0160608e01613047565b8c608001358d60c00160208101906122619190613947565b8d8d3360405160240161227a9796959493929190613c49565b60408051601f198184030181529181526020820180516001600160e01b03166001600160e01b03199094169390931790925290516122b89190613ca2565b60006040518083038185875af1925050503d80600081146122f5576040519150601f19603f3d011682016040523d82523d6000602084013e6122fa565b606091505b5091509150811561232357808060200190518101906123199190613cbe565b9350505050612335565b61232d8382612b8b565b600093505050505b949350505050565b61234d6060820160408301613047565b6001600160a01b03167fa635eb05143f74743822bbd96428928de4c8ee8cc578299749be9425c17bb34d6000858561238b60e0870160c08801613947565b8661010001356040516123a2959493929190613cdf565b60405180910390a2505050565b60018260068111156123c3576123c3613600565b03612463576005546001600160a01b031663cdd1b25d6123e383806139d5565b6123f06020860186613a1c565b6123fd6040880188613a1c565b61240a60608a018a613a1c565b6040518963ffffffff1660e01b815260040161242d989796959493929190613d1d565b600060405180830381600087803b15801561244757600080fd5b505af115801561245b573d6000803e3d6000fd5b505050505050565b600282600681111561247757612477613600565b03612497576005546001600160a01b031663a21a92806123e383806139d5565b60038260068111156124ab576124ab613600565b036124cb576006546001600160a01b031663f87343026123e383806139d5565b60058260068111156124df576124df613600565b03612591576008546001600160a01b031663f87343026124ff83806139d5565b61250c6020860186613a1c565b6125196040880188613a1c565b61252660608a018a613a1c565b6040518963ffffffff1660e01b8152600401612549989796959493929190613d1d565b6020604051808303816000875af1158015612568573d6000803e3d6000fd5b505050506040513d601f19601f8201168201806040525081019061258c9190613d7d565b505050565b60048260068111156125a5576125a5613600565b036125c5576007546001600160a01b031663a21a92806123e383806139d5565b60068260068111156125d9576125d9613600565b03610d9a576009546001600160a01b031663a21a92806124ff83806139d5565b6040805160a081018252600080825260606020830181905292820181905291810182905260808101919091526040805160a081019091528061263e6020850185613047565b6001600160a01b031681526020016040518060200160405280600081525081526020018360200160208101906126749190613047565b6001600160a01b031681526020016126926060850160408601613947565b67ffffffffffffffff16815260200183606001358152509050919050565b60006126bd898c8c612c16565b90506000808281526004602081905260409091205460ff16908111156126e5576126e5613600565b146127325760405162461bcd60e51b815260206004820152601860248201527f6d65737361676520616c726561647920657865637574656400000000000000006044820152606401610666565b6000818152600460208181526040808420805460ff191690931790925590516127619146913091879101613d96565b60408051601f1981840301815282825280516020918201206005549184018190528383018690528251808503840181526060850193849052633416de1160e11b90935293506001600160a01b03169163682dbc22916127ce918d908d908d908d908d908d9060640161389e565b60006040518083038186803b1580156127e657600080fd5b505afa1580156127fa573d6000803e3d6000fd5b5050505060008061280c8c8f8f612caa565b9050600181600281111561282257612822613600565b0361283057600191506128b4565b600281600281111561284457612844613600565b036128af5760008481526004602052604090819020805460ff1916905560608d015160808e015191517fe49c2c954d381d1448cf824743aeff9da7a1d82078a7c9e5817269cc359bd26c9261289e92600192899290613981565b60405180910390a150505050610f36565b600291505b60008481526004602081905260409091208054849260ff199091169060019084908111156128e4576128e4613600565b0217905550610d3584838e612e8b565b6000805a905060008061290d6060880160408901613047565b6001600160a01b0316346305e5a4c160e11b61292f60808b0160608c01613047565b8a608001358a8a3360405160240161294b959493929190613dd5565b60408051601f198184030181529181526020820180516001600160e01b03166001600160e01b03199094169390931790925290516129899190613ca2565b60006040518083038185875af1925050503d80600081146129c6576040519150601f19603f3d011682016040523d82523d6000602084013e6129cb565b606091505b509150915081156129f457808060200190518101906129ea9190613cbe565b9350505050612a06565b6129fe8382612b8b565b600093505050505b9392505050565b468303612a4e5760405162461bcd60e51b815260206004820152600f60248201526e125b9d985b1a590818da185a5b9259608a1b6044820152606401610666565b6000612a5a8383610f42565b905080341015612a9f5760405162461bcd60e51b815260206004820152601060248201526f496e73756666696369656e742066656560801b6044820152606401610666565b50505050565b6040805160a081018252600080825260606020830181905292820181905291810182905260808101919091526040805160a081019091526000815260208101612aee84806139d5565b8080601f0160208091040260200160405190810160405280939291908181526020018383808284376000920191909152505050908252506020908101906126749060408601908601613047565b600080546001600160a01b038381166001600160a01b0319831681178455604051919092169283917f8be0079c531659141344cd1fd0a4f28419497f9722a3daafe3b4186f6b6457e09190a35050565b60005a90506000600a5445612ba09190613912565b90508084108015612bbb5750612bb7604085613e14565b8211155b15612bc257fe5b6000612bcd84612ed9565b9050612bd881612f38565b7fffdd6142bbb721f3400e3908b04b86f60649b2e4d191e3f4c50c32c3e6471d2f81604051612c079190613e36565b60405180910390a15050505050565b60208301518051600091908203612c5e578451604051612c4c919060200160609190911b6001600160601b031916815260140190565b60405160208183030381529060405290505b600181866040015187606001518860800151468989604051602001612c8a989796959493929190613e49565b604051602081830303815290604052805190602001209150509392505050565b6000805a905060006060866020015151600003612d9a5786604001516001600160a01b0316346040518060600160405280602c8152602001614077602c91398051602090910120895160608b0151604051612d0f9291908c908c903390602401613eca565b60408051601f198184030181529181526020820180516001600160e01b03166001600160e01b0319909416939093179092529051612d4d9190613ca2565b60006040518083038185875af1925050503d8060008114612d8a576040519150601f19603f3d011682016040523d82523d6000602084013e612d8f565b606091505b509092509050612e71565b86604001516001600160a01b0316346040518060600160405280602a815260200161402d602a91398051906020012089602001518a606001518a8a33604051602401612dea959493929190613efe565b60408051601f198184030181529181526020820180516001600160e01b03166001600160e01b0319909416939093179092529051612e289190613ca2565b60006040518083038185875af1925050503d8060008114612e65576040519150601f19603f3d011682016040523d82523d6000602084013e612e6a565b606091505b5090925090505b81156129f457808060200190518101906129ea9190613cbe565b80604001516001600160a01b03167fa635eb05143f74743822bbd96428928de4c8ee8cc578299749be9425c17bb34d60018585856060015186608001516040516123a2959493929190613cdf565b6060604482511015612f1e57505060408051808201909152601d81527f5472616e73616374696f6e2072657665727465642073696c656e746c79000000602082015290565b60048201915081806020019051810190610f629190613f50565b60408051808201909152600b8082527f4d53473a3a41424f52543a0000000000000000000000000000000000000000006020830152825183911161258c5760005b825181101561301757828181518110612f9457612f94613ffd565b602001015160f81c60f81b7effffffffffffffffffffffffffffffffffffffffffffffffffffffffffffff1916828281518110612fd357612fd3613ffd565b01602001517fff0000000000000000000000000000000000000000000000000000000000000016146130055750505050565b8061300f81614013565b915050612f79565b508260405162461bcd60e51b81526004016106669190613e36565b6001600160a01b03811681146117af57600080fd5b60006020828403121561305957600080fd5b8135612a0681613032565b60006020828403121561307657600080fd5b5035919050565b60008083601f84011261308f57600080fd5b50813567ffffffffffffffff8111156130a757600080fd5b6020830191508360208260051b85010111156130c257600080fd5b9250929050565b60008060008060008060008060a0898b0312156130e557600080fd5b88356130f081613032565b975060208901359650604089013567ffffffffffffffff8082111561311457600080fd5b6131208c838d0161307d565b909850965060608b013591508082111561313957600080fd5b6131458c838d0161307d565b909650945060808b013591508082111561315e57600080fd5b5061316b8b828c0161307d565b999c989b5096995094979396929594505050565b600080600080600060a0868803121561319757600080fd5b85356131a281613032565b945060208601356131b281613032565b935060408601356131c281613032565b925060608601356131d281613032565b915060808601356131e281613032565b809150509295509295909350565b60008083601f84011261320257600080fd5b50813567ffffffffffffffff81111561321a57600080fd5b6020830191508360208285010111156130c257600080fd5b6000806000806000806000806000898b036101a081121561325257600080fd5b8a3567ffffffffffffffff8082111561326a57600080fd5b6132768e838f016131f0565b909c509a508a9150610120601f198401121561329157600080fd5b60208d0199506101408d01359250808311156132ac57600080fd5b6132b88e848f0161307d565b90995097506101608d01359250889150808311156132d557600080fd5b6132e18e848f0161307d565b90975095506101808d01359250869150808311156132fe57600080fd5b505061330c8c828d0161307d565b915080935050809150509295985092959850929598565b60006080828403121561333557600080fd5b50919050565b6000806040838503121561334e57600080fd5b823567ffffffffffffffff8082111561336657600080fd5b61337286838701613323565b9350602085013591508082111561338857600080fd5b5083016101a0818603121561339c57600080fd5b809150509250929050565b60008060008060008060a087890312156133c057600080fd5b86356133cb81613032565b95506020870135945060408701356133e281613032565b935060608701359250608087013567ffffffffffffffff81111561340557600080fd5b61341189828a016131f0565b979a9699509497509295939492505050565b60008060008060008060008060006101008a8c03121561344257600080fd5b893567ffffffffffffffff8082111561345a57600080fd5b6134668d838e016131f0565b909b50995089915061347b8d60208e01613323565b985060a08c013591508082111561349157600080fd5b61349d8d838e0161307d565b909850965060c08c01359150808211156134b657600080fd5b6134c28d838e0161307d565b909650945060e08c01359150808211156134db57600080fd5b5061330c8c828d0161307d565b600080602083850312156134fb57600080fd5b823567ffffffffffffffff81111561351257600080fd5b61351e858286016131f0565b90969095509350505050565b60008060008060006060868803121561354257600080fd5b853567ffffffffffffffff8082111561355a57600080fd5b61356689838a016131f0565b909750955060208801359450604088013591508082111561358657600080fd5b50613593888289016131f0565b969995985093965092949392505050565b600080600080606085870312156135ba57600080fd5b84356135c581613032565b935060208501359250604085013567ffffffffffffffff8111156135e857600080fd5b6135f4878288016131f0565b95989497509550505050565b634e487b7160e01b600052602160045260246000fd5b6005811061362657613626613600565b9052565b60208101610f628284613616565b600080600080600080600080600060a08a8c03121561365657600080fd5b893567ffffffffffffffff8082111561366e57600080fd5b61367a8d838e016131f0565b909b50995060208c013591508082111561369357600080fd5b61369f8d838e01613323565b985060408c01359150808211156136b557600080fd5b6136c18d838e0161307d565b909850965060608c01359150808211156136da57600080fd5b6136e68d838e0161307d565b909650945060808c01359150808211156134db57600080fd5b60005b8381101561371a578181015183820152602001613702565b50506000910152565b6000815180845261373b8160208601602086016136ff565b601f01601f19169290920160200192915050565b81835281816020850137506000828201602090810191909152601f909101601f19169091010190565b81835260006020808501808196508560051b810191508460005b878110156137fd5782840389528135601e198836030181126137b357600080fd5b8701858101903567ffffffffffffffff8111156137cf57600080fd5b8036038213156137de57600080fd5b6137e986828461374f565b9a87019a9550505090840190600101613792565b5091979650505050505050565b8183526000602080850194508260005b8581101561384857813561382d81613032565b6001600160a01b03168752958201959082019060010161381a565b509495945050505050565b81835260007f07ffffffffffffffffffffffffffffffffffffffffffffffffffffffffffffff83111561388557600080fd5b8260051b80836020870137939093016020019392505050565b6080815260006138b1608083018a613723565b82810360208401526138c481898b613778565b905082810360408401526138d981878961380a565b905082810360608401526138ee818587613853565b9a9950505050505050505050565b634e487b7160e01b600052601160045260246000fd5b81810381811115610f6257610f626138fc565b8581528460208201528284604083013760409201918201526060019392505050565b60006020828403121561395957600080fd5b813567ffffffffffffffff81168114612a0657600080fd5b6002811061362657613626613600565b6080810161398f8287613971565b84602083015267ffffffffffffffff8416604083015282606083015295945050505050565b6000602082840312156139c657600080fd5b813560078110612a0657600080fd5b6000808335601e198436030181126139ec57600080fd5b83018035915067ffffffffffffffff821115613a0757600080fd5b6020019150368190038213156130c257600080fd5b6000808335601e19843603018112613a3357600080fd5b83018035915067ffffffffffffffff821115613a4e57600080fd5b6020019150600581901b36038213156130c257600080fd5b60006001600160a01b03808a16835288602084015280881660408401525085606083015260c06080830152613a9f60c08301858761374f565b90508260a083015298975050505050505050565b8082028115828204841417610f6257610f626138fc565b80820180821115610f6257610f626138fc565b608081526000613af160808301888a61374f565b8660208401528281036040840152613b0a81868861374f565b915050826060830152979650505050505050565b6001600160a01b0386168152846020820152608060408201526000613b4760808301858761374f565b90508260608301529695505050505050565b600060208284031215613b6b57600080fd5b81518015158114612a0657600080fd5b634e487b7160e01b600052604160045260246000fd5b600060808284031215613ba357600080fd5b6040516080810181811067ffffffffffffffff82111715613bc657613bc6613b7b565b6040528251613bd481613032565b81526020830151613be481613032565b6020820152604083810151908201526060928301519281019290925250919050565b60028110613c1657613c16613600565b60f81b9052565b613c278185613c06565b60609290921b6001600160601b03191660018301526015820152603501919050565b60006001600160a01b03808a168352808916602084015287604084015267ffffffffffffffff8716606084015260c06080840152613c8b60c08401868861374f565b915080841660a08401525098975050505050505050565b60008251613cb48184602087016136ff565b9190910192915050565b600060208284031215613cd057600080fd5b815160038110612a0657600080fd5b60a08101613ced8288613971565b856020830152613d006040830186613616565b67ffffffffffffffff939093166060820152608001529392505050565b608081526000613d31608083018a8c61374f565b8281036020840152613d4481898b613778565b90508281036040840152613d5981878961380a565b90508281036060840152613d6e818587613853565b9b9a5050505050505050505050565b600060208284031215613d8f57600080fd5b5051919050565b8381526bffffffffffffffffffffffff198360601b16602082015260008251613dc68160348501602087016136ff565b91909101603401949350505050565b60006001600160a01b03808816835286602084015260806040840152613dff60808401868861374f565b91508084166060840152509695505050505050565b600082613e3157634e487b7160e01b600052601260045260246000fd5b500490565b602081526000610f5f6020830184613723565b613e53818a613c06565b60008851613e68816001850160208d016136ff565b80830190506bffffffffffffffffffffffff198960601b1660018201526001600160c01b0319808960c01b16601583015287601d830152808760c01b16603d830152508385604583013760009301604501928352509098975050505050505050565b60006001600160a01b03808816835267ffffffffffffffff8716602084015260806040840152613dff60808401868861374f565b608081526000613f116080830188613723565b67ffffffffffffffff871660208401528281036040840152613f3481868861374f565b9150506001600160a01b03831660608301529695505050505050565b600060208284031215613f6257600080fd5b815167ffffffffffffffff80821115613f7a57600080fd5b818401915084601f830112613f8e57600080fd5b815181811115613fa057613fa0613b7b565b604051601f8201601f19908116603f01168101908382118183101715613fc857613fc8613b7b565b81604052828152876020848701011115613fe157600080fd5b613ff28360208301602088016136ff565b979650505050505050565b634e487b7160e01b600052603260045260246000fd5b600060018201614025576140256138fc565b506001019056fe657865637574654d6573736167652862797465732c75696e7436342c62797465732c61646472657373294f776e61626c653a2063616c6c6572206973206e6f7420746865206f776e6572657865637574654d65737361676528616464726573732c75696e7436342c62797465732c6164647265737329a2646970667358221220b5ae5ca6b3494f0fd3a57cb5663466c801c05c4ecf259809def8ed55642622c064736f6c63430008110033",
  "devdoc": {
    "kind": "dev",
    "methods": {
      "calcFee(bytes)": {
        "params": {
          "_message": "Arbitrary message bytes to be decoded by the destination app contract. @return The required fee."
        }
      },
      "executeMessage(bytes,(address,address,uint64,bytes32),bytes[],address[],uint256[])": {
        "params": {
          "_message": "Arbitrary message bytes originated from and encoded by the source app contract",
          "_powers": "The signing powers of the signers.",
          "_route": "The info about the sender and the receiver.",
          "_signers": "The sorted list of signers.",
          "_sigs": "The list of signatures sorted by signing addresses in ascending order. A relay must be signed-off by +2/3 of the sigsVerifier's current signing power to be delivered."
        }
      },
      "executeMessageWithTransfer(bytes,(uint8,address,address,address,uint256,uint64,uint64,bytes32,bytes32),bytes[],address[],uint256[])": {
        "params": {
          "_message": "Arbitrary message bytes originated from and encoded by the source app contract",
          "_powers": "The signing powers of the signers.",
          "_signers": "The sorted list of signers.",
          "_sigs": "The list of signatures sorted by signing addresses in ascending order. A relay must be signed-off by +2/3 of the sigsVerifier's current signing power to be delivered.",
          "_transfer": "The transfer info."
        }
      },
      "executeMessageWithTransferRefund(bytes,(uint8,address,address,address,uint256,uint64,uint64,bytes32,bytes32),bytes[],address[],uint256[])": {
        "params": {
          "_message": "Arbitrary message bytes originated from and encoded by the source app contract",
          "_powers": "The signing powers of the signers.",
          "_signers": "The sorted list of signers.",
          "_sigs": "The list of signatures sorted by signing addresses in ascending order. A relay must be signed-off by +2/3 of the sigsVerifier's current signing power to be delivered.",
          "_transfer": "The transfer info."
        }
      },
      "owner()": {
        "details": "Returns the address of the current owner."
      },
      "refundAndExecuteMsg((bytes,bytes[],address[],uint256[]),(bytes,(uint8,address,address,address,uint256,uint64,uint64,bytes32,bytes32),bytes[],address[],uint256[]))": {
        "details": "caller needs to get the required input params from SGN",
        "params": {
          "_mp": "params to execute message for refund",
          "_tp": "params to call bridge transfer for refund"
        }
      },
      "sendMessage(address,uint256,bytes)": {
        "params": {
          "_dstChainId": "The destination chain ID.",
          "_message": "Arbitrary message bytes to be decoded by the destination app contract.",
          "_receiver": "The address of the destination app contract."
        }
      },
      "sendMessageWithTransfer(address,uint256,address,bytes32,bytes)": {
        "params": {
          "_dstChainId": "The destination chain ID.",
          "_message": "Arbitrary message bytes to be decoded by the destination app contract.",
          "_receiver": "The address of the destination app contract.",
          "_srcBridge": "The bridge contract to send the transfer with.",
          "_srcTransferId": "The transfer ID."
        }
      },
      "transferAndExecuteMsg((bytes,bytes[],address[],uint256[]),(bytes,(uint8,address,address,address,uint256,uint64,uint64,bytes32,bytes32),bytes[],address[],uint256[]))": {
        "details": "caller needs to get the required input params from SGN",
        "params": {
          "_mp": "params to execute message",
          "_tp": "params to call bridge transfer"
        }
      },
      "transferOwnership(address)": {
        "details": "Transfers ownership of the contract to a new account (`newOwner`). Can only be called by the current owner."
      },
      "withdrawFee(address,uint256,bytes[],address[],uint256[])": {
        "params": {
          "_account": "The address receiving the fee.",
          "_cumulativeFee": "The cumulative fee credited to the account. Tracked by SGN.",
          "_powers": "The signing powers of the signers.",
          "_signers": "The sorted list of signers.",
          "_sigs": "The list of signatures sorted by signing addresses in ascending order. A withdrawal must be signed-off by +2/3 of the sigsVerifier's current signing power to be delivered."
        }
      }
    },
    "version": 1
  },
  "userdoc": {
    "kind": "user",
    "methods": {
      "calcFee(bytes)": {
        "notice": "Calculates the required fee for the message."
      },
      "executeMessage(bytes,(address,address,uint64,bytes32),bytes[],address[],uint256[])": {
        "notice": "Execute a message not associated with a transfer."
      },
      "executeMessageWithTransfer(bytes,(uint8,address,address,address,uint256,uint64,uint64,bytes32,bytes32),bytes[],address[],uint256[])": {
        "notice": "Execute a message with a successful transfer."
      },
      "executeMessageWithTransferRefund(bytes,(uint8,address,address,address,uint256,uint64,uint64,bytes32,bytes32),bytes[],address[],uint256[])": {
        "notice": "Execute a message with a refunded transfer."
      },
      "refundAndExecuteMsg((bytes,bytes[],address[],uint256[]),(bytes,(uint8,address,address,address,uint256,uint64,uint64,bytes32,bytes32),bytes[],address[],uint256[]))": {
        "notice": "combine bridge refund and msg execution calls into a single tx"
      },
      "sendMessage(address,uint256,bytes)": {
        "notice": "Sends a message to a contract on another chain. Sender needs to make sure the uniqueness of the message Id, which is computed as hash(type.MessageOnly, sender, receiver, srcChainId, srcTxHash, dstChainId, message). If messages with the same Id are sent, only one of them will succeed at dst chain. A fee is charged in the native gas token."
      },
      "sendMessageWithTransfer(address,uint256,address,bytes32,bytes)": {
        "notice": "Sends a message associated with a transfer to a contract on another chain. If messages with the same srcTransferId are sent, only one of them will succeed. A fee is charged in the native token."
      },
      "transferAndExecuteMsg((bytes,bytes[],address[],uint256[]),(bytes,(uint8,address,address,address,uint256,uint64,uint64,bytes32,bytes32),bytes[],address[],uint256[]))": {
        "notice": "combine bridge transfer and msg execution calls into a single tx"
      },
      "withdrawFee(address,uint256,bytes[],address[],uint256[])": {
        "notice": "Withdraws message fee in the form of native gas token."
      }
    },
    "version": 1
  },
  "storageLayout": {
    "storage": [
      {
        "astId": 10351,
        "contract": "contracts/message/messagebus/MessageBus.sol:MessageBus",
        "label": "_owner",
        "offset": 0,
        "slot": "0",
        "type": "t_address"
      },
      {
        "astId": 9697,
        "contract": "contracts/message/messagebus/MessageBus.sol:MessageBus",
        "label": "feeBase",
        "offset": 0,
        "slot": "1",
        "type": "t_uint256"
      },
      {
        "astId": 9699,
        "contract": "contracts/message/messagebus/MessageBus.sol:MessageBus",
        "label": "feePerByte",
        "offset": 0,
        "slot": "2",
        "type": "t_uint256"
      },
      {
        "astId": 9703,
        "contract": "contracts/message/messagebus/MessageBus.sol:MessageBus",
        "label": "withdrawnFees",
        "offset": 0,
        "slot": "3",
        "type": "t_mapping(t_address,t_uint256)"
      },
      {
        "astId": 7835,
        "contract": "contracts/message/messagebus/MessageBus.sol:MessageBus",
        "label": "executedMessages",
        "offset": 0,
        "slot": "4",
        "type": "t_mapping(t_bytes32,t_enum(TxStatus)7678)"
      },
      {
        "astId": 7837,
        "contract": "contracts/message/messagebus/MessageBus.sol:MessageBus",
        "label": "liquidityBridge",
        "offset": 0,
        "slot": "5",
        "type": "t_address"
      },
      {
        "astId": 7839,
        "contract": "contracts/message/messagebus/MessageBus.sol:MessageBus",
        "label": "pegBridge",
        "offset": 0,
        "slot": "6",
        "type": "t_address"
      },
      {
        "astId": 7841,
        "contract": "contracts/message/messagebus/MessageBus.sol:MessageBus",
        "label": "pegVault",
        "offset": 0,
        "slot": "7",
        "type": "t_address"
      },
      {
        "astId": 7843,
        "contract": "contracts/message/messagebus/MessageBus.sol:MessageBus",
        "label": "pegBridgeV2",
        "offset": 0,
        "slot": "8",
        "type": "t_address"
      },
      {
        "astId": 7845,
        "contract": "contracts/message/messagebus/MessageBus.sol:MessageBus",
        "label": "pegVaultV2",
        "offset": 0,
        "slot": "9",
        "type": "t_address"
      },
      {
        "astId": 7847,
        "contract": "contracts/message/messagebus/MessageBus.sol:MessageBus",
        "label": "preExecuteMessageGasUsage",
        "offset": 0,
        "slot": "10",
        "type": "t_uint256"
      }
    ],
    "types": {
      "t_address": {
        "encoding": "inplace",
        "label": "address",
        "numberOfBytes": "20"
      },
      "t_bytes32": {
        "encoding": "inplace",
        "label": "bytes32",
        "numberOfBytes": "32"
      },
      "t_enum(TxStatus)7678": {
        "encoding": "inplace",
        "label": "enum MsgDataTypes.TxStatus",
        "numberOfBytes": "1"
      },
      "t_mapping(t_address,t_uint256)": {
        "encoding": "mapping",
        "key": "t_address",
        "label": "mapping(address => uint256)",
        "numberOfBytes": "32",
        "value": "t_uint256"
      },
      "t_mapping(t_bytes32,t_enum(TxStatus)7678)": {
        "encoding": "mapping",
        "key": "t_bytes32",
        "label": "mapping(bytes32 => enum MsgDataTypes.TxStatus)",
        "numberOfBytes": "32",
        "value": "t_enum(TxStatus)7678"
      },
      "t_uint256": {
        "encoding": "inplace",
        "label": "uint256",
        "numberOfBytes": "32"
      }
    }
  }
}