{
  "address": "0xAEC803CC6f6A9cd4189558333E4D4Fb5Af1142F6",
  "abi": [
    {
      "inputs": [
        {
          "internalType": "address",
          "name": "_messageBus",
          "type": "address"
        }
      ],
      "stateMutability": "nonpayable",
      "type": "constructor"
    },
    {
      "anonymous": false,
      "inputs": [
        {
          "indexed": false,
          "internalType": "bytes32",
          "name": "quoteHash",
          "type": "bytes32"
        },
        {
          "indexed": false,
          "internalType": "address",
          "name": "receiver",
          "type": "address"
        },
        {
          "indexed": false,
          "internalType": "address",
          "name": "dstToken",
          "type": "address"
        },
        {
          "indexed": false,
          "internalType": "uint256",
          "name": "amount",
          "type": "uint256"
        }
      ],
      "name": "DstTransferred",
      "type": "event"
    },
    {
      "anonymous": false,
      "inputs": [
        {
          "indexed": false,
          "internalType": "address",
          "name": "treasuryAddr",
          "type": "address"
        },
        {
          "indexed": false,
          "internalType": "address",
          "name": "token",
          "type": "address"
        },
        {
          "indexed": false,
          "internalType": "uint256",
          "name": "amount",
          "type": "uint256"
        }
      ],
      "name": "FeeCollected",
      "type": "event"
    },
    {
      "anonymous": false,
      "inputs": [
        {
          "indexed": false,
          "internalType": "uint64[]",
          "name": "chainIds",
          "type": "uint64[]"
        },
        {
          "indexed": false,
          "internalType": "uint32[]",
          "name": "feePercs",
          "type": "uint32[]"
        }
      ],
      "name": "FeePercUpdated",
      "type": "event"
    },
    {
      "anonymous": false,
      "inputs": [
        {
          "indexed": false,
          "internalType": "address",
          "name": "account",
          "type": "address"
        }
      ],
      "name": "GovernorAdded",
      "type": "event"
    },
    {
      "anonymous": false,
      "inputs": [
        {
          "indexed": false,
          "internalType": "address",
          "name": "account",
          "type": "address"
        }
      ],
      "name": "GovernorRemoved",
      "type": "event"
    },
    {
      "anonymous": false,
      "inputs": [
        {
          "indexed": false,
          "internalType": "address",
          "name": "messageBus",
          "type": "address"
        }
      ],
      "name": "MessageBusUpdated",
      "type": "event"
    },
    {
      "anonymous": false,
      "inputs": [
        {
          "indexed": true,
          "internalType": "address",
          "name": "previousOwner",
          "type": "address"
        },
        {
          "indexed": true,
          "internalType": "address",
          "name": "newOwner",
          "type": "address"
        }
      ],
      "name": "OwnershipTransferred",
      "type": "event"
    },
    {
      "anonymous": false,
      "inputs": [
        {
          "indexed": false,
          "internalType": "address",
          "name": "account",
          "type": "address"
        }
      ],
      "name": "Paused",
      "type": "event"
    },
    {
      "anonymous": false,
      "inputs": [
        {
          "indexed": false,
          "internalType": "address",
          "name": "account",
          "type": "address"
        }
      ],
      "name": "PauserAdded",
      "type": "event"
    },
    {
      "anonymous": false,
      "inputs": [
        {
          "indexed": false,
          "internalType": "address",
          "name": "account",
          "type": "address"
        }
      ],
      "name": "PauserRemoved",
      "type": "event"
    },
    {
      "anonymous": false,
      "inputs": [
        {
          "indexed": false,
          "internalType": "bytes32",
          "name": "quoteHash",
          "type": "bytes32"
        }
      ],
      "name": "RefundInitiated",
      "type": "event"
    },
    {
      "anonymous": false,
      "inputs": [
        {
          "indexed": false,
          "internalType": "bytes32",
          "name": "quoteHash",
          "type": "bytes32"
        },
        {
          "indexed": false,
          "internalType": "address",
          "name": "refundTo",
          "type": "address"
        },
        {
          "indexed": false,
          "internalType": "address",
          "name": "srcToken",
          "type": "address"
        },
        {
          "indexed": false,
          "internalType": "uint256",
          "name": "amount",
          "type": "uint256"
        }
      ],
      "name": "Refunded",
      "type": "event"
    },
    {
      "anonymous": false,
      "inputs": [
        {
          "indexed": false,
          "internalType": "uint64[]",
          "name": "chainIds",
          "type": "uint64[]"
        },
        {
          "indexed": false,
          "internalType": "address[]",
          "name": "remoteRfqContracts",
          "type": "address[]"
        }
      ],
      "name": "RfqContractsUpdated",
      "type": "event"
    },
    {
      "anonymous": false,
      "inputs": [
        {
          "indexed": false,
          "internalType": "bytes32",
          "name": "quoteHash",
          "type": "bytes32"
        },
        {
          "components": [
            {
              "internalType": "uint64",
              "name": "srcChainId",
              "type": "uint64"
            },
            {
              "internalType": "address",
              "name": "srcToken",
              "type": "address"
            },
            {
              "internalType": "uint256",
              "name": "srcAmount",
              "type": "uint256"
            },
            {
              "internalType": "uint256",
              "name": "srcReleaseAmount",
              "type": "uint256"
            },
            {
              "internalType": "uint64",
              "name": "dstChainId",
              "type": "uint64"
            },
            {
              "internalType": "address",
              "name": "dstToken",
              "type": "address"
            },
            {
              "internalType": "uint256",
              "name": "dstAmount",
              "type": "uint256"
            },
            {
              "internalType": "uint64",
              "name": "deadline",
              "type": "uint64"
            },
            {
              "internalType": "uint64",
              "name": "nonce",
              "type": "uint64"
            },
            {
              "internalType": "address",
              "name": "sender",
              "type": "address"
            },
            {
              "internalType": "address",
              "name": "receiver",
              "type": "address"
            },
            {
              "internalType": "address",
              "name": "refundTo",
              "type": "address"
            },
            {
              "internalType": "address",
              "name": "liquidityProvider",
              "type": "address"
            }
          ],
          "indexed": false,
          "internalType": "struct RFQ.Quote",
          "name": "quote",
          "type": "tuple"
        }
      ],
      "name": "SrcDeposited",
      "type": "event"
    },
    {
      "anonymous": false,
      "inputs": [
        {
          "indexed": false,
          "internalType": "bytes32",
          "name": "quoteHash",
          "type": "bytes32"
        },
        {
          "indexed": false,
          "internalType": "address",
          "name": "liquidityProvider",
          "type": "address"
        },
        {
          "indexed": false,
          "internalType": "address",
          "name": "srcToken",
          "type": "address"
        },
        {
          "indexed": false,
          "internalType": "uint256",
          "name": "amount",
          "type": "uint256"
        }
      ],
      "name": "SrcReleased",
      "type": "event"
    },
    {
      "anonymous": false,
      "inputs": [
        {
          "indexed": false,
          "internalType": "address",
          "name": "treasuryAddr",
          "type": "address"
        }
      ],
      "name": "TreasuryAddrUpdated",
      "type": "event"
    },
    {
      "anonymous": false,
      "inputs": [
        {
          "indexed": false,
          "internalType": "address",
          "name": "account",
          "type": "address"
        }
      ],
      "name": "Unpaused",
      "type": "event"
    },
    {
      "inputs": [
        {
          "internalType": "address",
          "name": "_account",
          "type": "address"
        }
      ],
      "name": "addGovernor",
      "outputs": [],
      "stateMutability": "nonpayable",
      "type": "function"
    },
    {
      "inputs": [
        {
          "internalType": "address",
          "name": "account",
          "type": "address"
        }
      ],
      "name": "addPauser",
      "outputs": [],
      "stateMutability": "nonpayable",
      "type": "function"
    },
    {
      "inputs": [
        {
          "internalType": "address",
          "name": "",
          "type": "address"
        }
      ],
      "name": "allowedSigner",
      "outputs": [
        {
          "internalType": "address",
          "name": "",
          "type": "address"
        }
      ],
      "stateMutability": "view",
      "type": "function"
    },
    {
      "inputs": [
        {
          "internalType": "address",
          "name": "_token",
          "type": "address"
        }
      ],
      "name": "collectFee",
      "outputs": [],
      "stateMutability": "nonpayable",
      "type": "function"
    },
    {
      "inputs": [
        {
          "components": [
            {
              "internalType": "uint64",
              "name": "srcChainId",
              "type": "uint64"
            },
            {
              "internalType": "address",
              "name": "srcToken",
              "type": "address"
            },
            {
              "internalType": "uint256",
              "name": "srcAmount",
              "type": "uint256"
            },
            {
              "internalType": "uint256",
              "name": "srcReleaseAmount",
              "type": "uint256"
            },
            {
              "internalType": "uint64",
              "name": "dstChainId",
              "type": "uint64"
            },
            {
              "internalType": "address",
              "name": "dstToken",
              "type": "address"
            },
            {
              "internalType": "uint256",
              "name": "dstAmount",
              "type": "uint256"
            },
            {
              "internalType": "uint64",
              "name": "deadline",
              "type": "uint64"
            },
            {
              "internalType": "uint64",
              "name": "nonce",
              "type": "uint64"
            },
            {
              "internalType": "address",
              "name": "sender",
              "type": "address"
            },
            {
              "internalType": "address",
              "name": "receiver",
              "type": "address"
            },
            {
              "internalType": "address",
              "name": "refundTo",
              "type": "address"
            },
            {
              "internalType": "address",
              "name": "liquidityProvider",
              "type": "address"
            }
          ],
          "internalType": "struct RFQ.Quote",
          "name": "_quote",
          "type": "tuple"
        }
      ],
      "name": "dstTransfer",
      "outputs": [],
      "stateMutability": "payable",
      "type": "function"
    },
    {
      "inputs": [
        {
          "components": [
            {
              "internalType": "uint64",
              "name": "srcChainId",
              "type": "uint64"
            },
            {
              "internalType": "address",
              "name": "srcToken",
              "type": "address"
            },
            {
              "internalType": "uint256",
              "name": "srcAmount",
              "type": "uint256"
            },
            {
              "internalType": "uint256",
              "name": "srcReleaseAmount",
              "type": "uint256"
            },
            {
              "internalType": "uint64",
              "name": "dstChainId",
              "type": "uint64"
            },
            {
              "internalType": "address",
              "name": "dstToken",
              "type": "address"
            },
            {
              "internalType": "uint256",
              "name": "dstAmount",
              "type": "uint256"
            },
            {
              "internalType": "uint64",
              "name": "deadline",
              "type": "uint64"
            },
            {
              "internalType": "uint64",
              "name": "nonce",
              "type": "uint64"
            },
            {
              "internalType": "address",
              "name": "sender",
              "type": "address"
            },
            {
              "internalType": "address",
              "name": "receiver",
              "type": "address"
            },
            {
              "internalType": "address",
              "name": "refundTo",
              "type": "address"
            },
            {
              "internalType": "address",
              "name": "liquidityProvider",
              "type": "address"
            }
          ],
          "internalType": "struct RFQ.Quote",
          "name": "_quote",
          "type": "tuple"
        }
      ],
      "name": "dstTransferNative",
      "outputs": [],
      "stateMutability": "payable",
      "type": "function"
    },
    {
      "inputs": [
        {
          "components": [
            {
              "internalType": "uint64",
              "name": "srcChainId",
              "type": "uint64"
            },
            {
              "internalType": "address",
              "name": "srcToken",
              "type": "address"
            },
            {
              "internalType": "uint256",
              "name": "srcAmount",
              "type": "uint256"
            },
            {
              "internalType": "uint256",
              "name": "srcReleaseAmount",
              "type": "uint256"
            },
            {
              "internalType": "uint64",
              "name": "dstChainId",
              "type": "uint64"
            },
            {
              "internalType": "address",
              "name": "dstToken",
              "type": "address"
            },
            {
              "internalType": "uint256",
              "name": "dstAmount",
              "type": "uint256"
            },
            {
              "internalType": "uint64",
              "name": "deadline",
              "type": "uint64"
            },
            {
              "internalType": "uint64",
              "name": "nonce",
              "type": "uint64"
            },
            {
              "internalType": "address",
              "name": "sender",
              "type": "address"
            },
            {
              "internalType": "address",
              "name": "receiver",
              "type": "address"
            },
            {
              "internalType": "address",
              "name": "refundTo",
              "type": "address"
            },
            {
              "internalType": "address",
              "name": "liquidityProvider",
              "type": "address"
            }
          ],
          "internalType": "struct RFQ.Quote",
          "name": "_quote",
          "type": "tuple"
        },
        {
          "internalType": "bytes",
          "name": "_sig",
          "type": "bytes"
        }
      ],
      "name": "dstTransferWithSig",
      "outputs": [],
      "stateMutability": "payable",
      "type": "function"
    },
    {
      "inputs": [
        {
          "internalType": "bytes",
          "name": "_sender",
          "type": "bytes"
        },
        {
          "internalType": "uint64",
          "name": "_srcChainId",
          "type": "uint64"
        },
        {
          "internalType": "bytes",
          "name": "_message",
          "type": "bytes"
        },
        {
          "internalType": "address",
          "name": "_executor",
          "type": "address"
        }
      ],
      "name": "executeMessage",
      "outputs": [
        {
          "internalType": "enum IMessageReceiverApp.ExecutionStatus",
          "name": "",
          "type": "uint8"
        }
      ],
      "stateMutability": "payable",
      "type": "function"
    },
    {
      "inputs": [
        {
          "internalType": "address",
          "name": "_sender",
          "type": "address"
        },
        {
          "internalType": "uint64",
          "name": "_srcChainId",
          "type": "uint64"
        },
        {
          "internalType": "bytes",
          "name": "_message",
          "type": "bytes"
        },
        {
          "internalType": "address",
          "name": "",
          "type": "address"
        }
      ],
      "name": "executeMessage",
      "outputs": [
        {
          "internalType": "enum IMessageReceiverApp.ExecutionStatus",
          "name": "",
          "type": "uint8"
        }
      ],
      "stateMutability": "payable",
      "type": "function"
    },
    {
      "inputs": [
        {
          "internalType": "address",
          "name": "_sender",
          "type": "address"
        },
        {
          "internalType": "address",
          "name": "_token",
          "type": "address"
        },
        {
          "internalType": "uint256",
          "name": "_amount",
          "type": "uint256"
        },
        {
          "internalType": "uint64",
          "name": "_srcChainId",
          "type": "uint64"
        },
        {
          "internalType": "bytes",
          "name": "_message",
          "type": "bytes"
        },
        {
          "internalType": "address",
          "name": "_executor",
          "type": "address"
        }
      ],
      "name": "executeMessageWithTransfer",
      "outputs": [
        {
          "internalType": "enum IMessageReceiverApp.ExecutionStatus",
          "name": "",
          "type": "uint8"
        }
      ],
      "stateMutability": "payable",
      "type": "function"
    },
    {
      "inputs": [
        {
          "internalType": "address",
          "name": "_sender",
          "type": "address"
        },
        {
          "internalType": "address",
          "name": "_token",
          "type": "address"
        },
        {
          "internalType": "uint256",
          "name": "_amount",
          "type": "uint256"
        },
        {
          "internalType": "uint64",
          "name": "_srcChainId",
          "type": "uint64"
        },
        {
          "internalType": "bytes",
          "name": "_message",
          "type": "bytes"
        },
        {
          "internalType": "address",
          "name": "_executor",
          "type": "address"
        }
      ],
      "name": "executeMessageWithTransferFallback",
      "outputs": [
        {
          "internalType": "enum IMessageReceiverApp.ExecutionStatus",
          "name": "",
          "type": "uint8"
        }
      ],
      "stateMutability": "payable",
      "type": "function"
    },
    {
      "inputs": [
        {
          "internalType": "address",
          "name": "_token",
          "type": "address"
        },
        {
          "internalType": "uint256",
          "name": "_amount",
          "type": "uint256"
        },
        {
          "internalType": "bytes",
          "name": "_message",
          "type": "bytes"
        },
        {
          "internalType": "address",
          "name": "_executor",
          "type": "address"
        }
      ],
      "name": "executeMessageWithTransferRefund",
      "outputs": [
        {
          "internalType": "enum IMessageReceiverApp.ExecutionStatus",
          "name": "",
          "type": "uint8"
        }
      ],
      "stateMutability": "payable",
      "type": "function"
    },
    {
      "inputs": [
        {
          "components": [
            {
              "internalType": "uint64",
              "name": "srcChainId",
              "type": "uint64"
            },
            {
              "internalType": "address",
              "name": "srcToken",
              "type": "address"
            },
            {
              "internalType": "uint256",
              "name": "srcAmount",
              "type": "uint256"
            },
            {
              "internalType": "uint256",
              "name": "srcReleaseAmount",
              "type": "uint256"
            },
            {
              "internalType": "uint64",
              "name": "dstChainId",
              "type": "uint64"
            },
            {
              "internalType": "address",
              "name": "dstToken",
              "type": "address"
            },
            {
              "internalType": "uint256",
              "name": "dstAmount",
              "type": "uint256"
            },
            {
              "internalType": "uint64",
              "name": "deadline",
              "type": "uint64"
            },
            {
              "internalType": "uint64",
              "name": "nonce",
              "type": "uint64"
            },
            {
              "internalType": "address",
              "name": "sender",
              "type": "address"
            },
            {
              "internalType": "address",
              "name": "receiver",
              "type": "address"
            },
            {
              "internalType": "address",
              "name": "refundTo",
              "type": "address"
            },
            {
              "internalType": "address",
              "name": "liquidityProvider",
              "type": "address"
            }
          ],
          "internalType": "struct RFQ.Quote",
          "name": "_quote",
          "type": "tuple"
        },
        {
          "internalType": "bytes",
          "name": "_execMsgCallData",
          "type": "bytes"
        }
      ],
      "name": "executeRefund",
      "outputs": [],
      "stateMutability": "nonpayable",
      "type": "function"
    },
    {
      "inputs": [
        {
          "components": [
            {
              "internalType": "uint64",
              "name": "srcChainId",
              "type": "uint64"
            },
            {
              "internalType": "address",
              "name": "srcToken",
              "type": "address"
            },
            {
              "internalType": "uint256",
              "name": "srcAmount",
              "type": "uint256"
            },
            {
              "internalType": "uint256",
              "name": "srcReleaseAmount",
              "type": "uint256"
            },
            {
              "internalType": "uint64",
              "name": "dstChainId",
              "type": "uint64"
            },
            {
              "internalType": "address",
              "name": "dstToken",
              "type": "address"
            },
            {
              "internalType": "uint256",
              "name": "dstAmount",
              "type": "uint256"
            },
            {
              "internalType": "uint64",
              "name": "deadline",
              "type": "uint64"
            },
            {
              "internalType": "uint64",
              "name": "nonce",
              "type": "uint64"
            },
            {
              "internalType": "address",
              "name": "sender",
              "type": "address"
            },
            {
              "internalType": "address",
              "name": "receiver",
              "type": "address"
            },
            {
              "internalType": "address",
              "name": "refundTo",
              "type": "address"
            },
            {
              "internalType": "address",
              "name": "liquidityProvider",
              "type": "address"
            }
          ],
          "internalType": "struct RFQ.Quote",
          "name": "_quote",
          "type": "tuple"
        },
        {
          "internalType": "bytes",
          "name": "_execMsgCallData",
          "type": "bytes"
        }
      ],
      "name": "executeRefundNative",
      "outputs": [],
      "stateMutability": "nonpayable",
      "type": "function"
    },
    {
      "inputs": [],
      "name": "feePercGlobal",
      "outputs": [
        {
          "internalType": "uint32",
          "name": "",
          "type": "uint32"
        }
      ],
      "stateMutability": "view",
      "type": "function"
    },
    {
      "inputs": [
        {
          "internalType": "uint64",
          "name": "",
          "type": "uint64"
        }
      ],
      "name": "feePercOverride",
      "outputs": [
        {
          "internalType": "uint32",
          "name": "",
          "type": "uint32"
        }
      ],
      "stateMutability": "view",
      "type": "function"
    },
    {
      "inputs": [
        {
          "internalType": "bytes",
          "name": "_message",
          "type": "bytes"
        }
      ],
      "name": "getMsgFee",
      "outputs": [
        {
          "internalType": "uint256",
          "name": "",
          "type": "uint256"
        }
      ],
      "stateMutability": "view",
      "type": "function"
    },
    {
      "inputs": [
        {
          "components": [
            {
              "internalType": "uint64",
              "name": "srcChainId",
              "type": "uint64"
            },
            {
              "internalType": "address",
              "name": "srcToken",
              "type": "address"
            },
            {
              "internalType": "uint256",
              "name": "srcAmount",
              "type": "uint256"
            },
            {
              "internalType": "uint256",
              "name": "srcReleaseAmount",
              "type": "uint256"
            },
            {
              "internalType": "uint64",
              "name": "dstChainId",
              "type": "uint64"
            },
            {
              "internalType": "address",
              "name": "dstToken",
              "type": "address"
            },
            {
              "internalType": "uint256",
              "name": "dstAmount",
              "type": "uint256"
            },
            {
              "internalType": "uint64",
              "name": "deadline",
              "type": "uint64"
            },
            {
              "internalType": "uint64",
              "name": "nonce",
              "type": "uint64"
            },
            {
              "internalType": "address",
              "name": "sender",
              "type": "address"
            },
            {
              "internalType": "address",
              "name": "receiver",
              "type": "address"
            },
            {
              "internalType": "address",
              "name": "refundTo",
              "type": "address"
            },
            {
              "internalType": "address",
              "name": "liquidityProvider",
              "type": "address"
            }
          ],
          "internalType": "struct RFQ.Quote",
          "name": "_quote",
          "type": "tuple"
        }
      ],
      "name": "getQuoteHash",
      "outputs": [
        {
          "internalType": "bytes32",
          "name": "",
          "type": "bytes32"
        }
      ],
      "stateMutability": "pure",
      "type": "function"
    },
    {
      "inputs": [
        {
          "internalType": "uint64",
          "name": "_chainId",
          "type": "uint64"
        },
        {
          "internalType": "uint256",
          "name": "_amount",
          "type": "uint256"
        }
      ],
      "name": "getRfqFee",
      "outputs": [
        {
          "internalType": "uint256",
          "name": "",
          "type": "uint256"
        }
      ],
      "stateMutability": "view",
      "type": "function"
    },
    {
      "inputs": [
        {
          "internalType": "bytes32",
          "name": "_quoteHash",
          "type": "bytes32"
        },
        {
          "internalType": "bytes",
          "name": "_sig",
          "type": "bytes"
        }
      ],
      "name": "getSignerOfQuoteHash",
      "outputs": [
        {
          "internalType": "address",
          "name": "",
          "type": "address"
        }
      ],
      "stateMutability": "view",
      "type": "function"
    },
    {
      "inputs": [
        {
          "internalType": "address",
          "name": "",
          "type": "address"
        }
      ],
      "name": "governors",
      "outputs": [
        {
          "internalType": "bool",
          "name": "",
          "type": "bool"
        }
      ],
      "stateMutability": "view",
      "type": "function"
    },
    {
      "inputs": [
        {
          "internalType": "address",
          "name": "_account",
          "type": "address"
        }
      ],
      "name": "isGovernor",
      "outputs": [
        {
          "internalType": "bool",
          "name": "",
          "type": "bool"
        }
      ],
      "stateMutability": "view",
      "type": "function"
    },
    {
      "inputs": [
        {
          "internalType": "address",
          "name": "account",
          "type": "address"
        }
      ],
      "name": "isPauser",
      "outputs": [
        {
          "internalType": "bool",
          "name": "",
          "type": "bool"
        }
      ],
      "stateMutability": "view",
      "type": "function"
    },
    {
      "inputs": [],
      "name": "messageBus",
      "outputs": [
        {
          "internalType": "address",
          "name": "",
          "type": "address"
        }
      ],
      "stateMutability": "view",
      "type": "function"
    },
    {
      "inputs": [],
      "name": "nativeWrap",
      "outputs": [
        {
          "internalType": "address",
          "name": "",
          "type": "address"
        }
      ],
      "stateMutability": "view",
      "type": "function"
    },
    {
      "inputs": [],
      "name": "owner",
      "outputs": [
        {
          "internalType": "address",
          "name": "",
          "type": "address"
        }
      ],
      "stateMutability": "view",
      "type": "function"
    },
    {
      "inputs": [],
      "name": "pause",
      "outputs": [],
      "stateMutability": "nonpayable",
      "type": "function"
    },
    {
      "inputs": [],
      "name": "paused",
      "outputs": [
        {
          "internalType": "bool",
          "name": "",
          "type": "bool"
        }
      ],
      "stateMutability": "view",
      "type": "function"
    },
    {
      "inputs": [
        {
          "internalType": "address",
          "name": "",
          "type": "address"
        }
      ],
      "name": "pausers",
      "outputs": [
        {
          "internalType": "bool",
          "name": "",
          "type": "bool"
        }
      ],
      "stateMutability": "view",
      "type": "function"
    },
    {
      "inputs": [
        {
          "internalType": "address",
          "name": "",
          "type": "address"
        }
      ],
      "name": "protocolFee",
      "outputs": [
        {
          "internalType": "uint256",
          "name": "",
          "type": "uint256"
        }
      ],
      "stateMutability": "view",
      "type": "function"
    },
    {
      "inputs": [
        {
          "internalType": "bytes32",
          "name": "",
          "type": "bytes32"
        }
      ],
      "name": "quotes",
      "outputs": [
        {
          "internalType": "enum RFQ.QuoteStatus",
          "name": "",
          "type": "uint8"
        }
      ],
      "stateMutability": "view",
      "type": "function"
    },
    {
      "inputs": [
        {
          "internalType": "address",
          "name": "_signer",
          "type": "address"
        }
      ],
      "name": "registerAllowedSigner",
      "outputs": [],
      "stateMutability": "nonpayable",
      "type": "function"
    },
    {
      "inputs": [
        {
          "internalType": "uint64",
          "name": "",
          "type": "uint64"
        }
      ],
      "name": "remoteRfqContracts",
      "outputs": [
        {
          "internalType": "address",
          "name": "",
          "type": "address"
        }
      ],
      "stateMutability": "view",
      "type": "function"
    },
    {
      "inputs": [
        {
          "internalType": "address",
          "name": "_account",
          "type": "address"
        }
      ],
      "name": "removeGovernor",
      "outputs": [],
      "stateMutability": "nonpayable",
      "type": "function"
    },
    {
      "inputs": [
        {
          "internalType": "address",
          "name": "account",
          "type": "address"
        }
      ],
      "name": "removePauser",
      "outputs": [],
      "stateMutability": "nonpayable",
      "type": "function"
    },
    {
      "inputs": [],
      "name": "renounceGovernor",
      "outputs": [],
      "stateMutability": "nonpayable",
      "type": "function"
    },
    {
      "inputs": [],
      "name": "renouncePauser",
      "outputs": [],
      "stateMutability": "nonpayable",
      "type": "function"
    },
    {
      "inputs": [
        {
          "components": [
            {
              "internalType": "uint64",
              "name": "srcChainId",
              "type": "uint64"
            },
            {
              "internalType": "address",
              "name": "srcToken",
              "type": "address"
            },
            {
              "internalType": "uint256",
              "name": "srcAmount",
              "type": "uint256"
            },
            {
              "internalType": "uint256",
              "name": "srcReleaseAmount",
              "type": "uint256"
            },
            {
              "internalType": "uint64",
              "name": "dstChainId",
              "type": "uint64"
            },
            {
              "internalType": "address",
              "name": "dstToken",
              "type": "address"
            },
            {
              "internalType": "uint256",
              "name": "dstAmount",
              "type": "uint256"
            },
            {
              "internalType": "uint64",
              "name": "deadline",
              "type": "uint64"
            },
            {
              "internalType": "uint64",
              "name": "nonce",
              "type": "uint64"
            },
            {
              "internalType": "address",
              "name": "sender",
              "type": "address"
            },
            {
              "internalType": "address",
              "name": "receiver",
              "type": "address"
            },
            {
              "internalType": "address",
              "name": "refundTo",
              "type": "address"
            },
            {
              "internalType": "address",
              "name": "liquidityProvider",
              "type": "address"
            }
          ],
          "internalType": "struct RFQ.Quote",
          "name": "_quote",
          "type": "tuple"
        }
      ],
      "name": "requestRefund",
      "outputs": [],
      "stateMutability": "payable",
      "type": "function"
    },
    {
      "inputs": [
        {
          "components": [
            {
              "internalType": "uint64",
              "name": "srcChainId",
              "type": "uint64"
            },
            {
              "internalType": "address",
              "name": "srcToken",
              "type": "address"
            },
            {
              "internalType": "uint256",
              "name": "srcAmount",
              "type": "uint256"
            },
            {
              "internalType": "uint256",
              "name": "srcReleaseAmount",
              "type": "uint256"
            },
            {
              "internalType": "uint64",
              "name": "dstChainId",
              "type": "uint64"
            },
            {
              "internalType": "address",
              "name": "dstToken",
              "type": "address"
            },
            {
              "internalType": "uint256",
              "name": "dstAmount",
              "type": "uint256"
            },
            {
              "internalType": "uint64",
              "name": "deadline",
              "type": "uint64"
            },
            {
              "internalType": "uint64",
              "name": "nonce",
              "type": "uint64"
            },
            {
              "internalType": "address",
              "name": "sender",
              "type": "address"
            },
            {
              "internalType": "address",
              "name": "receiver",
              "type": "address"
            },
            {
              "internalType": "address",
              "name": "refundTo",
              "type": "address"
            },
            {
              "internalType": "address",
              "name": "liquidityProvider",
              "type": "address"
            }
          ],
          "internalType": "struct RFQ.Quote",
          "name": "_quote",
          "type": "tuple"
        },
        {
          "internalType": "bool",
          "name": "_releaseNative",
          "type": "bool"
        }
      ],
      "name": "sameChainTransfer",
      "outputs": [],
      "stateMutability": "payable",
      "type": "function"
    },
    {
      "inputs": [
        {
          "components": [
            {
              "internalType": "uint64",
              "name": "srcChainId",
              "type": "uint64"
            },
            {
              "internalType": "address",
              "name": "srcToken",
              "type": "address"
            },
            {
              "internalType": "uint256",
              "name": "srcAmount",
              "type": "uint256"
            },
            {
              "internalType": "uint256",
              "name": "srcReleaseAmount",
              "type": "uint256"
            },
            {
              "internalType": "uint64",
              "name": "dstChainId",
              "type": "uint64"
            },
            {
              "internalType": "address",
              "name": "dstToken",
              "type": "address"
            },
            {
              "internalType": "uint256",
              "name": "dstAmount",
              "type": "uint256"
            },
            {
              "internalType": "uint64",
              "name": "deadline",
              "type": "uint64"
            },
            {
              "internalType": "uint64",
              "name": "nonce",
              "type": "uint64"
            },
            {
              "internalType": "address",
              "name": "sender",
              "type": "address"
            },
            {
              "internalType": "address",
              "name": "receiver",
              "type": "address"
            },
            {
              "internalType": "address",
              "name": "refundTo",
              "type": "address"
            },
            {
              "internalType": "address",
              "name": "liquidityProvider",
              "type": "address"
            }
          ],
          "internalType": "struct RFQ.Quote",
          "name": "_quote",
          "type": "tuple"
        },
        {
          "internalType": "bool",
          "name": "_releaseNative",
          "type": "bool"
        }
      ],
      "name": "sameChainTransferNative",
      "outputs": [],
      "stateMutability": "payable",
      "type": "function"
    },
    {
      "inputs": [
        {
          "components": [
            {
              "internalType": "uint64",
              "name": "srcChainId",
              "type": "uint64"
            },
            {
              "internalType": "address",
              "name": "srcToken",
              "type": "address"
            },
            {
              "internalType": "uint256",
              "name": "srcAmount",
              "type": "uint256"
            },
            {
              "internalType": "uint256",
              "name": "srcReleaseAmount",
              "type": "uint256"
            },
            {
              "internalType": "uint64",
              "name": "dstChainId",
              "type": "uint64"
            },
            {
              "internalType": "address",
              "name": "dstToken",
              "type": "address"
            },
            {
              "internalType": "uint256",
              "name": "dstAmount",
              "type": "uint256"
            },
            {
              "internalType": "uint64",
              "name": "deadline",
              "type": "uint64"
            },
            {
              "internalType": "uint64",
              "name": "nonce",
              "type": "uint64"
            },
            {
              "internalType": "address",
              "name": "sender",
              "type": "address"
            },
            {
              "internalType": "address",
              "name": "receiver",
              "type": "address"
            },
            {
              "internalType": "address",
              "name": "refundTo",
              "type": "address"
            },
            {
              "internalType": "address",
              "name": "liquidityProvider",
              "type": "address"
            }
          ],
          "internalType": "struct RFQ.Quote",
          "name": "_quote",
          "type": "tuple"
        },
        {
          "internalType": "bool",
          "name": "_releaseNative",
          "type": "bool"
        },
        {
          "internalType": "bytes",
          "name": "_sig",
          "type": "bytes"
        }
      ],
      "name": "sameChainTransferWithSig",
      "outputs": [],
      "stateMutability": "payable",
      "type": "function"
    },
    {
      "inputs": [
        {
          "internalType": "uint64[]",
          "name": "_chainIds",
          "type": "uint64[]"
        },
        {
          "internalType": "uint32[]",
          "name": "_feePercs",
          "type": "uint32[]"
        }
      ],
      "name": "setFeePerc",
      "outputs": [],
      "stateMutability": "nonpayable",
      "type": "function"
    },
    {
      "inputs": [
        {
          "internalType": "address",
          "name": "_messageBus",
          "type": "address"
        }
      ],
      "name": "setMessageBus",
      "outputs": [],
      "stateMutability": "nonpayable",
      "type": "function"
    },
    {
      "inputs": [
        {
          "internalType": "address",
          "name": "_nativeWrap",
          "type": "address"
        }
      ],
      "name": "setNativeWrap",
      "outputs": [],
      "stateMutability": "nonpayable",
      "type": "function"
    },
    {
      "inputs": [
        {
          "internalType": "uint64[]",
          "name": "_chainIds",
          "type": "uint64[]"
        },
        {
          "internalType": "address[]",
          "name": "_remoteRfqContracts",
          "type": "address[]"
        }
      ],
      "name": "setRemoteRfqContracts",
      "outputs": [],
      "stateMutability": "nonpayable",
      "type": "function"
    },
    {
      "inputs": [
        {
          "internalType": "address",
          "name": "_treasuryAddr",
          "type": "address"
        }
      ],
      "name": "setTreasuryAddr",
      "outputs": [],
      "stateMutability": "nonpayable",
      "type": "function"
    },
    {
      "inputs": [
        {
          "components": [
            {
              "internalType": "uint64",
              "name": "srcChainId",
              "type": "uint64"
            },
            {
              "internalType": "address",
              "name": "srcToken",
              "type": "address"
            },
            {
              "internalType": "uint256",
              "name": "srcAmount",
              "type": "uint256"
            },
            {
              "internalType": "uint256",
              "name": "srcReleaseAmount",
              "type": "uint256"
            },
            {
              "internalType": "uint64",
              "name": "dstChainId",
              "type": "uint64"
            },
            {
              "internalType": "address",
              "name": "dstToken",
              "type": "address"
            },
            {
              "internalType": "uint256",
              "name": "dstAmount",
              "type": "uint256"
            },
            {
              "internalType": "uint64",
              "name": "deadline",
              "type": "uint64"
            },
            {
              "internalType": "uint64",
              "name": "nonce",
              "type": "uint64"
            },
            {
              "internalType": "address",
              "name": "sender",
              "type": "address"
            },
            {
              "internalType": "address",
              "name": "receiver",
              "type": "address"
            },
            {
              "internalType": "address",
              "name": "refundTo",
              "type": "address"
            },
            {
              "internalType": "address",
              "name": "liquidityProvider",
              "type": "address"
            }
          ],
          "internalType": "struct RFQ.Quote",
          "name": "_quote",
          "type": "tuple"
        },
        {
          "internalType": "uint64",
          "name": "_submissionDeadline",
          "type": "uint64"
        }
      ],
      "name": "srcDeposit",
      "outputs": [
        {
          "internalType": "bytes32",
          "name": "",
          "type": "bytes32"
        }
      ],
      "stateMutability": "payable",
      "type": "function"
    },
    {
      "inputs": [
        {
          "components": [
            {
              "internalType": "uint64",
              "name": "srcChainId",
              "type": "uint64"
            },
            {
              "internalType": "address",
              "name": "srcToken",
              "type": "address"
            },
            {
              "internalType": "uint256",
              "name": "srcAmount",
              "type": "uint256"
            },
            {
              "internalType": "uint256",
              "name": "srcReleaseAmount",
              "type": "uint256"
            },
            {
              "internalType": "uint64",
              "name": "dstChainId",
              "type": "uint64"
            },
            {
              "internalType": "address",
              "name": "dstToken",
              "type": "address"
            },
            {
              "internalType": "uint256",
              "name": "dstAmount",
              "type": "uint256"
            },
            {
              "internalType": "uint64",
              "name": "deadline",
              "type": "uint64"
            },
            {
              "internalType": "uint64",
              "name": "nonce",
              "type": "uint64"
            },
            {
              "internalType": "address",
              "name": "sender",
              "type": "address"
            },
            {
              "internalType": "address",
              "name": "receiver",
              "type": "address"
            },
            {
              "internalType": "address",
              "name": "refundTo",
              "type": "address"
            },
            {
              "internalType": "address",
              "name": "liquidityProvider",
              "type": "address"
            }
          ],
          "internalType": "struct RFQ.Quote",
          "name": "_quote",
          "type": "tuple"
        },
        {
          "internalType": "uint64",
          "name": "_submissionDeadline",
          "type": "uint64"
        }
      ],
      "name": "srcDepositNative",
      "outputs": [
        {
          "internalType": "bytes32",
          "name": "",
          "type": "bytes32"
        }
      ],
      "stateMutability": "payable",
      "type": "function"
    },
    {
      "inputs": [
        {
          "components": [
            {
              "internalType": "uint64",
              "name": "srcChainId",
              "type": "uint64"
            },
            {
              "internalType": "address",
              "name": "srcToken",
              "type": "address"
            },
            {
              "internalType": "uint256",
              "name": "srcAmount",
              "type": "uint256"
            },
            {
              "internalType": "uint256",
              "name": "srcReleaseAmount",
              "type": "uint256"
            },
            {
              "internalType": "uint64",
              "name": "dstChainId",
              "type": "uint64"
            },
            {
              "internalType": "address",
              "name": "dstToken",
              "type": "address"
            },
            {
              "internalType": "uint256",
              "name": "dstAmount",
              "type": "uint256"
            },
            {
              "internalType": "uint64",
              "name": "deadline",
              "type": "uint64"
            },
            {
              "internalType": "uint64",
              "name": "nonce",
              "type": "uint64"
            },
            {
              "internalType": "address",
              "name": "sender",
              "type": "address"
            },
            {
              "internalType": "address",
              "name": "receiver",
              "type": "address"
            },
            {
              "internalType": "address",
              "name": "refundTo",
              "type": "address"
            },
            {
              "internalType": "address",
              "name": "liquidityProvider",
              "type": "address"
            }
          ],
          "internalType": "struct RFQ.Quote",
          "name": "_quote",
          "type": "tuple"
        },
        {
          "internalType": "bytes",
          "name": "_execMsgCallData",
          "type": "bytes"
        }
      ],
      "name": "srcRelease",
      "outputs": [],
      "stateMutability": "nonpayable",
      "type": "function"
    },
    {
      "inputs": [
        {
          "components": [
            {
              "internalType": "uint64",
              "name": "srcChainId",
              "type": "uint64"
            },
            {
              "internalType": "address",
              "name": "srcToken",
              "type": "address"
            },
            {
              "internalType": "uint256",
              "name": "srcAmount",
              "type": "uint256"
            },
            {
              "internalType": "uint256",
              "name": "srcReleaseAmount",
              "type": "uint256"
            },
            {
              "internalType": "uint64",
              "name": "dstChainId",
              "type": "uint64"
            },
            {
              "internalType": "address",
              "name": "dstToken",
              "type": "address"
            },
            {
              "internalType": "uint256",
              "name": "dstAmount",
              "type": "uint256"
            },
            {
              "internalType": "uint64",
              "name": "deadline",
              "type": "uint64"
            },
            {
              "internalType": "uint64",
              "name": "nonce",
              "type": "uint64"
            },
            {
              "internalType": "address",
              "name": "sender",
              "type": "address"
            },
            {
              "internalType": "address",
              "name": "receiver",
              "type": "address"
            },
            {
              "internalType": "address",
              "name": "refundTo",
              "type": "address"
            },
            {
              "internalType": "address",
              "name": "liquidityProvider",
              "type": "address"
            }
          ],
          "internalType": "struct RFQ.Quote",
          "name": "_quote",
          "type": "tuple"
        },
        {
          "internalType": "bytes",
          "name": "_execMsgCallData",
          "type": "bytes"
        }
      ],
      "name": "srcReleaseNative",
      "outputs": [],
      "stateMutability": "nonpayable",
      "type": "function"
    },
    {
      "inputs": [
        {
          "internalType": "address",
          "name": "newOwner",
          "type": "address"
        }
      ],
      "name": "transferOwnership",
      "outputs": [],
      "stateMutability": "nonpayable",
      "type": "function"
    },
    {
      "inputs": [],
      "name": "treasuryAddr",
      "outputs": [
        {
          "internalType": "address",
          "name": "",
          "type": "address"
        }
      ],
      "stateMutability": "view",
      "type": "function"
    },
    {
      "inputs": [
        {
          "internalType": "bytes32",
          "name": "",
          "type": "bytes32"
        }
      ],
      "name": "unconsumedMsg",
      "outputs": [
        {
          "internalType": "bool",
          "name": "",
          "type": "bool"
        }
      ],
      "stateMutability": "view",
      "type": "function"
    },
    {
      "inputs": [],
      "name": "unpause",
      "outputs": [],
      "stateMutability": "nonpayable",
      "type": "function"
    },
    {
      "inputs": [
        {
          "internalType": "address",
          "name": "_liquidityProvider",
          "type": "address"
        },
        {
          "internalType": "bytes32",
          "name": "_quoteHash",
          "type": "bytes32"
        },
        {
          "internalType": "bytes",
          "name": "_sig",
          "type": "bytes"
        }
      ],
      "name": "verifySigOfQuoteHash",
      "outputs": [],
      "stateMutability": "view",
      "type": "function"
    },
    {
      "stateMutability": "payable",
      "type": "receive"
    }
  ],
  "transactionHash": "0xa7a51198195ef56696369ac0586a341df22a2e3bd92ba0d459f4df00f2719b3f",
  "args": [
    "0x3ad9d0648cdaa2426331e894e980d0a5ed16257f"
  ],
  "numDeployments": 2,
  "solcInputHash": "0a3ab9e6c5866c31ddb6ed0eac64c405",
  "bytecode": "0x60806040523480156200001157600080fd5b50604051620055ff380380620055ff833981016040819052620000349162000262565b6200003f3362000088565b6001805460ff60a01b191690556200005733620000d8565b6200006233620001a2565b600180546001600160a01b0319166001600160a01b039290921691909117905562000294565b600080546001600160a01b038381166001600160a01b0319831681178455604051919092169283917f8be0079c531659141344cd1fd0a4f28419497f9722a3daafe3b4186f6b6457e09190a35050565b6001600160a01b03811660009081526002602052604090205460ff1615620001475760405162461bcd60e51b815260206004820152601960248201527f4163636f756e7420697320616c7265616479207061757365720000000000000060448201526064015b60405180910390fd5b6001600160a01b038116600081815260026020908152604091829020805460ff1916600117905590519182527f6719d08c1888103bea251a4ed56406bd0c3e69723c8a1686e017e7bbe159b6f891015b60405180910390a150565b6001600160a01b03811660009081526003602052604090205460ff16156200020d5760405162461bcd60e51b815260206004820152601b60248201527f4163636f756e7420697320616c726561647920676f7665726e6f72000000000060448201526064016200013e565b6001600160a01b038116600081815260036020908152604091829020805460ff1916600117905590519182527fdc5a48d79e2e147530ff63ecdbed5a5a66adb9d5cf339384d5d076da197c40b5910162000197565b6000602082840312156200027557600080fd5b81516001600160a01b03811681146200028d57600080fd5b9392505050565b61535b80620002a46000396000f3fe6080604052600436106103645760003560e01c806382dc1ec4116101c6578063bbf3b98f116100f7578063e3eece2611610095578063eecdac881161006f578063eecdac8814610a0a578063f2fde38b14610a2a578063f8b839e514610a4a578063fbe42fea14610a6a57600080fd5b8063e3eece261461098e578063e43581b8146109be578063ed9830bb146109f757600080fd5b8063cc47e400116100d1578063cc47e400146108f3578063d1ce8b4514610929578063df1f64ef14610949578063e026049c1461097957600080fd5b8063bbf3b98f1461088a578063c78e33a2146108c0578063cbac44df146108d357600080fd5b8063a5ea10cb11610164578063ae6c218e1161013e578063ae6c218e14610817578063af4ab1381461082a578063b1a7d13f1461084a578063b62b31e41461085d57600080fd5b8063a5ea10cb146107c4578063a7e05b9c146107d7578063ab9341fd146107f757600080fd5b80639c649fdf116101a05780639c649fdf14610751578063a1a227fa14610764578063a2bdb89914610784578063a2f6531e146107a457600080fd5b806382dc1ec4146106fe5780638456cb591461071e5780638da5cb5b1461073357600080fd5b806346fbf68e116102a05780636609870d1161023e5780636ef8d66d116102185780636ef8d66d146106a657806379c7efd3146106bb5780637cd2bffc146105f457806380f51c12146106ce57600080fd5b80636609870d1461064657806369b59e75146106665780636b2c0f551461068657600080fd5b80635aa15a4b1161027a5780635aa15a4b146105d45780635ab7afc6146105f45780635b5a66a7146106075780635c975abb1461062757600080fd5b806346fbf68e1461054b578063547cad121461059457806355e9e3d2146105b457600080fd5b806325329eaf1161030d5780633c4a25d0116102e75780633c4a25d0146104c35780633e07d172146104e35780633f4ba83a14610516578063457bfa2f1461052b57600080fd5b806325329eaf1461042e5780632a37cf711461046b57806330d9a62a1461048b57600080fd5b80630bd930b41161033e5780630bd930b4146103cd5780631000cd9e146104065780631e9c57481461041b57600080fd5b8063063ce4e5146103705780630a54aacd146103995780630bcb4982146103ba57600080fd5b3661036b57005b600080fd5b61038361037e3660046147cd565b610a8a565b6040516103909190614885565b60405180910390f35b6103ac6103a73660046148b1565b610af6565b604051908152602001610390565b6103836103c83660046148e7565b610cf7565b3480156103d957600080fd5b506008546103f190600160a01b900463ffffffff1681565b60405163ffffffff9091168152602001610390565b610419610414366004614955565b610d5d565b005b610419610429366004614980565b610f9f565b34801561043a57600080fd5b5061045e6104493660046149ba565b60076020526000908152604090205460ff1681565b60405161039091906149d3565b34801561047757600080fd5b506104196104863660046149e7565b6111eb565b34801561049757600080fd5b506008546104ab906001600160a01b031681565b6040516001600160a01b039091168152602001610390565b3480156104cf57600080fd5b506104196104de366004614a40565b6112ad565b3480156104ef57600080fd5b506103f16104fe366004614a5b565b60096020526000908152604090205463ffffffff1681565b34801561052257600080fd5b50610419611310565b34801561053757600080fd5b506004546104ab906001600160a01b031681565b34801561055757600080fd5b50610584610566366004614a40565b6001600160a01b031660009081526002602052604090205460ff1690565b6040519015158152602001610390565b3480156105a057600080fd5b506104196105af366004614a40565b611379565b3480156105c057600080fd5b506103ac6105cf366004614a76565b611425565b3480156105e057600080fd5b506104196105ef366004614a40565b6114a0565b610383610602366004614ab7565b6114fb565b34801561061357600080fd5b50610419610622366004614a40565b611563565b34801561063357600080fd5b50600154600160a01b900460ff16610584565b34801561065257600080fd5b50610419610661366004614b46565b6115dc565b34801561067257600080fd5b50610419610681366004614a40565b611751565b34801561069257600080fd5b506104196106a1366004614a40565b61182a565b3480156106b257600080fd5b5061041961188a565b6104196106c9366004614955565b611893565b3480156106da57600080fd5b506105846106e9366004614a40565b60026020526000908152604090205460ff1681565b34801561070a57600080fd5b50610419610719366004614a40565b611b67565b34801561072a57600080fd5b50610419611bc7565b34801561073f57600080fd5b506000546001600160a01b03166104ab565b61038361075f366004614b9b565b611c2e565b34801561077057600080fd5b506001546104ab906001600160a01b031681565b34801561079057600080fd5b5061041961079f366004614b46565b611d4e565b3480156107b057600080fd5b506104ab6107bf366004614be5565b611dbc565b6104196107d2366004614955565b611e78565b3480156107e357600080fd5b506104196107f2366004614a40565b611f81565b34801561080357600080fd5b50610419610812366004614c5b565b612026565b610419610825366004614b46565b6122ac565b34801561083657600080fd5b50610419610845366004614b46565b61244e565b610419610858366004614cba565b612528565b34801561086957600080fd5b506103ac610878366004614a40565b600a6020526000908152604090205481565b34801561089657600080fd5b506104ab6108a5366004614a40565b600b602052600090815260409020546001600160a01b031681565b6104196108ce366004614980565b6126d5565b3480156108df57600080fd5b506104196108ee366004614c5b565b6127d6565b3480156108ff57600080fd5b506104ab61090e366004614a5b565b6005602052600090815260409020546001600160a01b031681565b34801561093557600080fd5b506103ac610944366004614955565b612958565b34801561095557600080fd5b506105846109643660046149ba565b60066020526000908152604090205460ff1681565b34801561098557600080fd5b50610419612a4c565b34801561099a57600080fd5b506105846109a9366004614a40565b60036020526000908152604090205460ff1681565b3480156109ca57600080fd5b506105846109d9366004614a40565b6001600160a01b031660009081526003602052604090205460ff1690565b6103ac610a053660046148b1565b612a55565b348015610a1657600080fd5b50610419610a25366004614a40565b612acd565b348015610a3657600080fd5b50610419610a45366004614a40565b612b2d565b348015610a5657600080fd5b50610419610a65366004614b46565b612c09565b348015610a7657600080fd5b506103ac610a85366004614d08565b612cb1565b6001546000906001600160a01b03163314610aec5760405162461bcd60e51b815260206004820152601960248201527f63616c6c6572206973206e6f74206d657373616765206275730000000000000060448201526064015b60405180910390fd5b9695505050505050565b600154600090600160a01b900460ff1615610b465760405162461bcd60e51b815260206004820152601060248201526f14185d5cd8589b194e881c185d5cd95960821b6044820152606401610ae3565b6004546001600160a01b0316610b9e5760405162461bcd60e51b815260206004820152601860248201527f5266713a206e61746976652077726170206e6f742073657400000000000000006044820152606401610ae3565b6004546001600160a01b0316610bba6040850160208601614a40565b6001600160a01b031614610c105760405162461bcd60e51b815260206004820152601760248201527f5266713a2073726320746f6b656e206d69736d617463680000000000000000006044820152606401610ae3565b8260400135341015610c645760405162461bcd60e51b815260206004820152601860248201527f5266713a20696e73756666696369656e7420616d6f756e7400000000000000006044820152606401610ae3565b6000610c7e8484610c79604083013534614d48565b612d0f565b9050600460009054906101000a90046001600160a01b03166001600160a01b031663d0e30db085604001356040518263ffffffff1660e01b81526004016000604051808303818588803b158015610cd457600080fd5b505af1158015610ce8573d6000803e3d6000fd5b50939450505050505b92915050565b6001546000906001600160a01b03163314610d545760405162461bcd60e51b815260206004820152601960248201527f63616c6c6572206973206e6f74206d65737361676520627573000000000000006044820152606401610ae3565b95945050505050565b600154600160a01b900460ff1615610daa5760405162461bcd60e51b815260206004820152601060248201526f14185d5cd8589b194e881c185d5cd95960821b6044820152606401610ae3565b6004546001600160a01b0316610dc660c0830160a08401614a40565b6001600160a01b031614610e1c5760405162461bcd60e51b815260206004820152601760248201527f5266713a2064737420746f6b656e206d69736d617463680000000000000000006044820152606401610ae3565b8060c00135341015610e705760405162461bcd60e51b815260206004820152601860248201527f5266713a20696e73756666696369656e7420616d6f756e7400000000000000006044820152606401610ae3565b600080610e7c8361317f565b6000828152600760209081526040808320805460ff191660081790555193955091935091610eaf91859160019101614d5b565b60408051601f198184030181528282528051602091820120908301520160408051601f198184030181529190529050610f0382610eef6020870187614a5b565b83610efe60c089013534614d48565b613419565b610f22610f1861016086016101408701614a40565b8560c00135613435565b7fb97bb040c4582b3252c1079bcea2a781f656ef09ceb53be48b2d615c61198bc583610f5661016087016101408801614a40565b610f6660c0880160a08901614a40565b604080519384526001600160a01b03928316602085015291169082015260c086013560608201526080015b60405180910390a150505050565b600154600160a01b900460ff1615610fec5760405162461bcd60e51b815260206004820152601060248201526f14185d5cd8589b194e881c185d5cd95960821b6044820152606401610ae3565b610ffc60a0830160808401614a5b565b6001600160401b03166110126020840184614a5b565b6001600160401b0316146110685760405162461bcd60e51b815260206004820152601860248201527f5266713a206e6f742073616d6520636861696e207377617000000000000000006044820152606401610ae3565b6004546001600160a01b031661108460c0840160a08501614a40565b6001600160a01b0316146110da5760405162461bcd60e51b815260206004820152601760248201527f5266713a2064737420746f6b656e206d69736d617463680000000000000000006044820152606401610ae3565b8160c0013534146111375760405162461bcd60e51b815260206004820152602160248201527f5266713a206e617469766520746f6b656e20616d6f756e74206d69736d6174636044820152600d60fb1b6064820152608401610ae3565b60006111428361317f565b50905061116461115a61016085016101408601614a40565b8460c00135613435565b61116f838284613546565b7fb97bb040c4582b3252c1079bcea2a781f656ef09ceb53be48b2d615c61198bc5816111a361016086016101408701614a40565b6111b360c0870160a08801614a40565b604080519384526001600160a01b03928316602085015291169082015260c085013560608201526080015b60405180910390a1505050565b60006111f8848484611dbc565b9050846001600160a01b0316816001600160a01b0316148061125a57506001600160a01b038581166000908152600b6020526040902054161580159061125a57506001600160a01b038086166000908152600b60205260409020548282169116145b6112a65760405162461bcd60e51b815260206004820152601760248201527f5266713a206e6f7420616c6c6f776564207369676e65720000000000000000006044820152606401610ae3565b5050505050565b336112c06000546001600160a01b031690565b6001600160a01b0316146113045760405162461bcd60e51b815260206004820181905260248201526000805160206153068339815191526044820152606401610ae3565b61130d81613699565b50565b3360009081526002602052604090205460ff1661136f5760405162461bcd60e51b815260206004820152601460248201527f43616c6c6572206973206e6f74207061757365720000000000000000000000006044820152606401610ae3565b611377613756565b565b3361138c6000546001600160a01b031690565b6001600160a01b0316146113d05760405162461bcd60e51b815260206004820181905260248201526000805160206153068339815191526044820152606401610ae3565b600180546001600160a01b0319166001600160a01b0383169081179091556040519081527f3f8223bcd8b3b875473e9f9e14e1ad075451a2b5ffd31591655da9a01516bf5e906020015b60405180910390a150565b60015460405163299aee5160e11b81526000916001600160a01b031690635335dca2906114589086908690600401614d7a565b602060405180830381865afa158015611475573d6000803e3d6000fd5b505050506040513d601f19601f820116820180604052508101906114999190614da9565b9392505050565b6001600160a01b0381166114ce57336000908152600b6020526040902080546001600160a01b031916905550565b336000908152600b6020526040902080546001600160a01b0383166001600160a01b031990911617905550565b6001546000906001600160a01b031633146115585760405162461bcd60e51b815260206004820152601960248201527f63616c6c6572206973206e6f74206d65737361676520627573000000000000006044820152606401610ae3565b979650505050505050565b336115766000546001600160a01b031690565b6001600160a01b0316146115ba5760405162461bcd60e51b815260206004820181905260248201526000805160206153068339815191526044820152606401610ae3565b600480546001600160a01b0319166001600160a01b0392909216919091179055565b600154600160a01b900460ff16156116295760405162461bcd60e51b815260206004820152601060248201526f14185d5cd8589b194e881c185d5cd95960821b6044820152606401610ae3565b6004546001600160a01b03166116456040850160208601614a40565b6001600160a01b03161461169b5760405162461bcd60e51b815260206004820152601760248201527f5266713a2073726320746f6b656e206d69736d617463680000000000000000006044820152606401610ae3565b6000806116a98585856137fc565b6000828152600760205260409020805460ff1916600517905590925090506116e66116dc61016087016101408801614a40565b8660400135613990565b7f2e0668a62a5f556368dca9c7113e20f2852c05155548243804bf714ce72b25a682826117196040890160208a01614a40565b604080519384526001600160a01b03928316602085015291168282015287013560608201526080015b60405180910390a15050505050565b6008546001600160a01b03166117a95760405162461bcd60e51b815260206004820152601d60248201527f5266713a2074726561737572792061646472657373206e6f74207365740000006044820152606401610ae3565b6001600160a01b038082166000818152600a60205260408120805491905560085490926117d892911683613af8565b600854604080516001600160a01b039283168152918416602083015281018290527ff228de527fc1b9843baac03b9a04565473a263375950e63435d4138464386f469060600160405180910390a15050565b3361183d6000546001600160a01b031690565b6001600160a01b0316146118815760405162461bcd60e51b815260206004820181905260248201526000805160206153068339815191526044820152606401610ae3565b61130d81613b88565b61137733613b88565b600154600160a01b900460ff16156118e05760405162461bcd60e51b815260206004820152601060248201526f14185d5cd8589b194e881c185d5cd95960821b6044820152606401610ae3565b426118f2610100830160e08401614a5b565b6001600160401b0316106119525760405162461bcd60e51b815260206004820152602160248201527f5266713a207472616e7366657220646561646c696e65206e6f742070617373656044820152601960fa1b6064820152608401610ae3565b6001600160401b03461661196c60a0830160808401614a5b565b6001600160401b0316146119c25760405162461bcd60e51b815260206004820152601960248201527f5266713a2064737420636861696e4964206d69736d61746368000000000000006044820152606401610ae3565b60006005816119d46020850185614a5b565b6001600160401b031681526020810191909152604001600020546001600160a01b0316905080611a465760405162461bcd60e51b815260206004820152601d60248201527f5266713a207372632072667120636f6e7472616374206e6f74207365740000006044820152606401610ae3565b6000611a5183612958565b90506000808281526007602052604090205460ff166008811115611a7757611a7761485f565b14611ac45760405162461bcd60e51b815260206004820152601b60248201527f5266713a2071756f746520616c726561647920657865637574656400000000006044820152606401610ae3565b6000818152600760209081526040808320805460ff1916600617905551611af091849160029101614d5b565b60408051601f198184030181528282528051602091820120908301520160408051601f198184030181529190529050611b3783611b306020870187614a5b565b8334613419565b6040518281527f7cdd4403cff3a09d96c1ffe4ad1cc5c195e9053463a55edfc2944644ec02211890602001610f91565b33611b7a6000546001600160a01b031690565b6001600160a01b031614611bbe5760405162461bcd60e51b815260206004820181905260248201526000805160206153068339815191526044820152606401610ae3565b61130d81613c41565b3360009081526002602052604090205460ff16611c265760405162461bcd60e51b815260206004820152601460248201527f43616c6c6572206973206e6f74207061757365720000000000000000000000006044820152606401610ae3565b611377613cfe565b6001546000906001600160a01b03163314611c8b5760405162461bcd60e51b815260206004820152601960248201527f63616c6c6572206973206e6f74206d65737361676520627573000000000000006044820152606401610ae3565b60208314611cdb5760405162461bcd60e51b815260206004820152601d60248201527f5266713a20696e636f7272656374206d657373616765206c656e6774680000006044820152606401610ae3565b6001600160401b0385166000908152600560205260409020546001600160a01b039081169087168114611d12576002915050610d54565b600160066000611d228789614dc2565b81526020810191909152604001600020805460ff19169115159190911790555060019695505050505050565b600154600160a01b900460ff1615611d9b5760405162461bcd60e51b815260206004820152601060248201526f14185d5cd8589b194e881c185d5cd95960821b6044820152606401610ae3565b6000611da8848484613d86565b9050611db684826000613546565b50505050565b604080514660208201526bffffffffffffffffffffffff193060601b16918101919091527f416c6c6f7765645472616e7366657200000000000000000000000000000000006054820152606381018490526000908190611e349060830160405160208183030381529060405280519060200120613e13565b9050610d5484848080601f0160208091040260200160405190810160405280939291908181526020018383808284376000920191909152508593925050613e4e9050565b600154600160a01b900460ff1615611ec55760405162461bcd60e51b815260206004820152601060248201526f14185d5cd8589b194e881c185d5cd95960821b6044820152606401610ae3565b600080611ed18361317f565b6000828152600760208181526040808420805460ff1916909317909255905193955091935091611f0691859160019101614d5b565b60408051601f198184030181528282528051602091820120908301520160408051601f198184030181529190529050611f4682611b306020870187614a5b565b610f2233611f5c61016087016101408801614a40565b60c08701803590611f709060a08a01614a40565b6001600160a01b0316929190613e72565b33611f946000546001600160a01b031690565b6001600160a01b031614611fd85760405162461bcd60e51b815260206004820181905260248201526000805160206153068339815191526044820152606401610ae3565b600880546001600160a01b0319166001600160a01b0383169081179091556040519081527fb17659014001857e7557191ad74dc9e967b181eaed0895975325e3848debbc429060200161141a565b3360009081526003602052604090205460ff166120855760405162461bcd60e51b815260206004820152601660248201527f43616c6c6572206973206e6f7420676f7665726e6f72000000000000000000006044820152606401610ae3565b8281146120d45760405162461bcd60e51b815260206004820152601460248201527f5266713a206c656e677468206d69736d617463680000000000000000000000006044820152606401610ae3565b60005b8381101561227657620f42408383838181106120f5576120f5614de0565b905060200201602081019061210a9190614e0a565b63ffffffff161061215d5760405162461bcd60e51b815260206004820152601d60248201527f5266713a206665652070657263656e7461676520746f6f206c617267650000006044820152606401610ae3565b84848281811061216f5761216f614de0565b90506020020160208101906121849190614a5b565b6001600160401b03166000036121e0578282828181106121a6576121a6614de0565b90506020020160208101906121bb9190614e0a565b600860146101000a81548163ffffffff021916908363ffffffff160217905550612264565b8282828181106121f2576121f2614de0565b90506020020160208101906122079190614e0a565b6009600087878581811061221d5761221d614de0565b90506020020160208101906122329190614a5b565b6001600160401b031681526020810191909152604001600020805463ffffffff191663ffffffff929092169190911790555b8061226e81614e25565b9150506120d7565b507f541df5e570cf10ffe04899eebd9eebebd1c54e2bd4af9f24b23fb4a40c6ea00b84848484604051610f919493929190614e85565b600154600160a01b900460ff16156122f95760405162461bcd60e51b815260206004820152601060248201526f14185d5cd8589b194e881c185d5cd95960821b6044820152606401610ae3565b6000806123058561317f565b909250905061232761231f6101a087016101808801614a40565b8386866111eb565b6000828152600760208181526040808420805460ff1916909317909255905161235591859160019101614d5b565b60408051601f198184030181528282528051602091820120908301520160408051601f19818403018152919052905061239582611b306020890189614a5b565b6123d06123aa6101a088016101808901614a40565b6123bc61016089016101408a01614a40565b60c08901803590611f709060a08c01614a40565b7fb97bb040c4582b3252c1079bcea2a781f656ef09ceb53be48b2d615c61198bc58361240461016089016101408a01614a40565b61241460c08a0160a08b01614a40565b604080519384526001600160a01b03928316602085015291169082015260c0880135606082015260800160405180910390a1505050505050565b600154600160a01b900460ff161561249b5760405162461bcd60e51b815260206004820152601060248201526f14185d5cd8589b194e881c185d5cd95960821b6044820152606401610ae3565b6004546001600160a01b03166124b76040850160208601614a40565b6001600160a01b03161461250d5760405162461bcd60e51b815260206004820152601760248201527f5266713a2073726320746f6b656e206d69736d617463680000000000000000006044820152606401610ae3565b600061251a848484613d86565b9050611db684826001613546565b600154600160a01b900460ff16156125755760405162461bcd60e51b815260206004820152601060248201526f14185d5cd8589b194e881c185d5cd95960821b6044820152606401610ae3565b61258560a0850160808601614a5b565b6001600160401b031661259b6020860186614a5b565b6001600160401b0316146125f15760405162461bcd60e51b815260206004820152601860248201527f5266713a206e6f742073616d6520636861696e207377617000000000000000006044820152606401610ae3565b60006125fc8561317f565b50905061261c6126146101a087016101808801614a40565b8285856111eb565b6126576126316101a087016101808801614a40565b61264361016088016101408901614a40565b60c08801803590611f709060a08b01614a40565b612662858286613546565b7fb97bb040c4582b3252c1079bcea2a781f656ef09ceb53be48b2d615c61198bc58161269661016088016101408901614a40565b6126a660c0890160a08a01614a40565b604080519384526001600160a01b03928316602085015291169082015260c08701356060820152608001611742565b600154600160a01b900460ff16156127225760405162461bcd60e51b815260206004820152601060248201526f14185d5cd8589b194e881c185d5cd95960821b6044820152606401610ae3565b61273260a0830160808401614a5b565b6001600160401b03166127486020840184614a5b565b6001600160401b03161461279e5760405162461bcd60e51b815260206004820152601860248201527f5266713a206e6f742073616d6520636861696e207377617000000000000000006044820152606401610ae3565b60006127a98361317f565b509050611164336127c261016086016101408701614a40565b60c08601803590611f709060a08901614a40565b336127e96000546001600160a01b031690565b6001600160a01b03161461282d5760405162461bcd60e51b815260206004820181905260248201526000805160206153068339815191526044820152606401610ae3565b82811461287c5760405162461bcd60e51b815260206004820152601460248201527f5266713a206c656e677468206d69736d617463680000000000000000000000006044820152606401610ae3565b60005b838110156129225782828281811061289957612899614de0565b90506020020160208101906128ae9190614a40565b600560008787858181106128c4576128c4614de0565b90506020020160208101906128d99190614a5b565b6001600160401b03168152602081019190915260400160002080546001600160a01b0319166001600160a01b03929092169190911790558061291a81614e25565b91505061287f565b507fb4739c640c5970d8ce88b6c31f3706099efca660e282d47b0a267a0bb572d8b784848484604051610f919493929190614ee5565b60006129676020830183614a5b565b6129776040840160208501614a40565b6040840135606085013561299160a0870160808801614a5b565b6129a160c0880160a08901614a40565b60c08801356129b76101008a0160e08b01614a5b565b6129c96101208b016101008c01614a5b565b6129db6101408c016101208d01614a40565b6129ed6101608d016101408e01614a40565b6129ff6101808e016101608f01614a40565b8d610180016020810190612a139190614a40565b604051602001612a2f9d9c9b9a99989796959493929190614f3b565b604051602081830303815290604052805190602001209050919050565b61137733613eaa565b600154600090600160a01b900460ff1615612aa55760405162461bcd60e51b815260206004820152601060248201526f14185d5cd8589b194e881c185d5cd95960821b6044820152606401610ae3565b6000612ab2848434612d0f565b9050611499333060408701803590611f709060208a01614a40565b33612ae06000546001600160a01b031690565b6001600160a01b031614612b245760405162461bcd60e51b815260206004820181905260248201526000805160206153068339815191526044820152606401610ae3565b61130d81613eaa565b33612b406000546001600160a01b031690565b6001600160a01b031614612b845760405162461bcd60e51b815260206004820181905260248201526000805160206153068339815191526044820152606401610ae3565b6001600160a01b038116612c005760405162461bcd60e51b815260206004820152602660248201527f4f776e61626c653a206e6577206f776e657220697320746865207a65726f206160448201527f64647265737300000000000000000000000000000000000000000000000000006064820152608401610ae3565b61130d81613f63565b600154600160a01b900460ff1615612c565760405162461bcd60e51b815260206004820152601060248201526f14185d5cd8589b194e881c185d5cd95960821b6044820152606401610ae3565b600080612c648585856137fc565b6000828152600760205260409020805492945090925060049160ff191660018302179055506116e68160408701803590612ca19060208a01614a40565b6001600160a01b03169190613af8565b6001600160401b03821660009081526009602052604081205463ffffffff16808203612ce95750600854600160a01b900463ffffffff165b620f4240612cfd63ffffffff83168561506a565b612d079190615081565b949350505050565b600042836001600160401b0316118015612d4a57506001600160401b038316612d3f610100860160e08701614a5b565b6001600160401b0316115b612d965760405162461bcd60e51b815260206004820152601b60248201527f5266713a20696e617070726f70726961746520646561646c696e6500000000006044820152606401610ae3565b6000612daa61016086016101408701614a40565b6001600160a01b031614158015612ddc57506000612dd06101a086016101808701614a40565b6001600160a01b031614155b612e4e5760405162461bcd60e51b815260206004820152602a60248201527f5266713a20696e76616c6964207265636569766572206f72206c69717569646960448201527f747950726f7669646572000000000000000000000000000000000000000000006064820152608401610ae3565b6001600160401b034616612e656020860186614a5b565b6001600160401b031614612ebb5760405162461bcd60e51b815260206004820152601960248201527f5266713a2073726320636861696e4964206d69736d61746368000000000000006044820152606401610ae3565b33612ece61014086016101208701614a40565b6001600160a01b031614612f245760405162461bcd60e51b815260206004820152601460248201527f5266713a2073656e646572206d69736d617463680000000000000000000000006044820152606401610ae3565b6000612f2f85612958565b90506000808281526007602052604090205460ff166008811115612f5557612f5561485f565b14612fa25760405162461bcd60e51b815260206004820152601660248201527f5266713a2071756f7465206861736820657869737473000000000000000000006044820152606401610ae3565b6000612fc1612fb760a0880160808901614a5b565b8760400135612cb1565b9050612fd560608701356040880135614d48565b8111156130245760405162461bcd60e51b815260206004820152601e60248201527f5266713a20696e73756666696369656e742070726f746f636f6c2066656500006044820152606401610ae3565b6000828152600760205260409020805460ff1916600117905561304d60a0870160808801614a5b565b6001600160401b03166130636020880188614a5b565b6001600160401b03161461313d57600060058161308660a08a0160808b01614a5b565b6001600160401b031681526020810191909152604001600020546001600160a01b03169050806130f85760405162461bcd60e51b815260206004820152601960248201527f5266713a2064737420636f6e7472616374206e6f7420736574000000000000006044820152606401610ae3565b60008360405160200161310d91815260200190565b60408051601f19818403018152919052905061313a8261313360a08b0160808c01614a5b565b8389613419565b50505b7f3e4de2d1674631d426ae2a89635b421e6d40a31d27681afdf0eed67e81d07bcb828760405161316e9291906150a3565b60405180910390a150949350505050565b60008042613194610100850160e08601614a5b565b6001600160401b0316116131ea5760405162461bcd60e51b815260206004820152601d60248201527f5266713a207472616e7366657220646561646c696e65207061737365640000006044820152606401610ae3565b6001600160401b03461661320460a0850160808601614a5b565b6001600160401b03161461325a5760405162461bcd60e51b815260206004820152601960248201527f5266713a2064737420636861696e4964206d69736d61746368000000000000006044820152606401610ae3565b600061326584612958565b905060006005816132796020880188614a5b565b6001600160401b031681526020810191909152604001600020546001600160a01b031690506132ae60a0860160808701614a5b565b6001600160401b03166132c46020870187614a5b565b6001600160401b03161461339d5760008281526007602052604081205460ff1660088111156132f5576132f561485f565b146133425760405162461bcd60e51b815260206004820152601b60248201527f5266713a2071756f746520616c726561647920657865637574656400000000006044820152606401610ae3565b6001600160a01b0381166133985760405162461bcd60e51b815260206004820152601d60248201527f5266713a206473742072667120636f6e7472616374206e6f74207365740000006044820152606401610ae3565b61340f565b600160008381526007602052604090205460ff1660088111156133c2576133c261485f565b1461340f5760405162461bcd60e51b815260206004820152601d60248201527f5266713a206e6f206465706f736974206f6e2073616d6520636861696e0000006044820152606401610ae3565b9094909350915050565b600154611db6908590859085906001600160a01b031685613fb3565b6004546001600160a01b031661348d5760405162461bcd60e51b815260206004820152601860248201527f5266713a206e61746976652077726170206e6f742073657400000000000000006044820152606401610ae3565b6000826001600160a01b03168261c35090604051600060405180830381858888f193505050503d80600081146134df576040519150601f19603f3d011682016040523d82523d6000602084013e6134e4565b606091505b50509050806135415760405162461bcd60e51b8152602060048201526024808201527f5266713a206661696c656420746f207472616e73666572206e6174697665207460448201526337b5b2b760e11b6064820152608401610ae3565b505050565b61355860608401356040850135614d48565b600a600061356c6040870160208801614a40565b6001600160a01b03166001600160a01b03168152602001908152602001600020600082825461359b9190615215565b909155505080156135e3576000828152600760205260409020805460ff191660031790556135de6135d46101a085016101808601614a40565b8460600135613990565b613626565b6000828152600760205260409020805460ff191660021790556136266136116101a085016101808601614a40565b6060850135612ca16040870160208801614a40565b7ff29b32a17c591b8b3b1216ce0ffb67c07f3478e99b50c5ccf8602878b1ee63768261365a6101a086016101808701614a40565b61366a6040870160208801614a40565b604080519384526001600160a01b039283166020850152911690820152606080860135908201526080016111de565b6001600160a01b03811660009081526003602052604090205460ff16156137025760405162461bcd60e51b815260206004820152601b60248201527f4163636f756e7420697320616c726561647920676f7665726e6f7200000000006044820152606401610ae3565b6001600160a01b038116600081815260036020908152604091829020805460ff1916600117905590519182527fdc5a48d79e2e147530ff63ecdbed5a5a66adb9d5cf339384d5d076da197c40b5910161141a565b600154600160a01b900460ff166137af5760405162461bcd60e51b815260206004820152601460248201527f5061757361626c653a206e6f74207061757365640000000000000000000000006044820152606401610ae3565b6001805460ff60a01b191690557f5db9ee0a495bf2e6ff9c91a7834c1ba4fdd244a5e8aa4e537bd38aeae4b073aa335b6040516001600160a01b03909116815260200160405180910390a1565b600080600061380a86612958565b9050600160008281526007602052604090205460ff1660088111156138315761383161485f565b1461387e5760405162461bcd60e51b815260206004820152601960248201527f5266713a20696e636f72726563742071756f74652068617368000000000000006044820152606401610ae3565b61388e60a0870160808801614a5b565b6001600160401b03166138a46020880188614a5b565b6001600160401b0316146138c4576138bf858583600261401e565b613936565b426138d6610100880160e08901614a5b565b6001600160401b0316106139365760405162461bcd60e51b815260206004820152602160248201527f5266713a207472616e7366657220646561646c696e65206e6f742070617373656044820152601960fa1b6064820152608401610ae3565b60008061394b61018089016101608a01614a40565b6001600160a01b0316146139705761396b61018088016101608901614a40565b613982565b61398261014088016101208901614a40565b919791965090945050505050565b6004546001600160a01b03166139e85760405162461bcd60e51b815260206004820152601860248201527f5266713a206e61746976652077726170206e6f742073657400000000000000006044820152606401610ae3565b60048054604051632e1a7d4d60e01b81529182018390526001600160a01b031690632e1a7d4d90602401600060405180830381600087803b158015613a2c57600080fd5b505af1158015613a40573d6000803e3d6000fd5b505050506000826001600160a01b03168261c35090604051600060405180830381858888f193505050503d8060008114613a96576040519150601f19603f3d011682016040523d82523d6000602084013e613a9b565b606091505b50509050806135415760405162461bcd60e51b8152602060048201526024808201527f5266713a206661696c656420746f207769746864726177206e6174697665207460448201526337b5b2b760e11b6064820152608401610ae3565b6040516001600160a01b03831660248201526044810182905261354190849063a9059cbb60e01b906064015b60408051601f198184030181529190526020810180517bffffffffffffffffffffffffffffffffffffffffffffffffffffffff167fffffffff0000000000000000000000000000000000000000000000000000000090931692909217909152614191565b6001600160a01b03811660009081526002602052604090205460ff16613bf05760405162461bcd60e51b815260206004820152601560248201527f4163636f756e74206973206e6f742070617573657200000000000000000000006044820152606401610ae3565b6001600160a01b038116600081815260026020908152604091829020805460ff1916905590519182527fcd265ebaf09df2871cc7bd4133404a235ba12eff2041bb89d9c714a2621c7c7e910161141a565b6001600160a01b03811660009081526002602052604090205460ff1615613caa5760405162461bcd60e51b815260206004820152601960248201527f4163636f756e7420697320616c726561647920706175736572000000000000006044820152606401610ae3565b6001600160a01b038116600081815260026020908152604091829020805460ff1916600117905590519182527f6719d08c1888103bea251a4ed56406bd0c3e69723c8a1686e017e7bbe159b6f8910161141a565b600154600160a01b900460ff1615613d4b5760405162461bcd60e51b815260206004820152601060248201526f14185d5cd8589b194e881c185d5cd95960821b6044820152606401610ae3565b6001805460ff60a01b1916600160a01b1790557f62e78cea01bee320cd4e420270b5ea74000d11b0c9f74754ebdbfc544b05a2586137df3390565b600080613d9285612958565b9050600160008281526007602052604090205460ff166008811115613db957613db961485f565b14613e065760405162461bcd60e51b815260206004820152601960248201527f5266713a20696e636f72726563742071756f74652068617368000000000000006044820152606401610ae3565b612d07848483600161401e565b6040517f19457468657265756d205369676e6564204d6573736167653a0a3332000000006020820152603c8101829052600090605c01612a2f565b6000806000613e5d8585614276565b91509150613e6a816142e4565b509392505050565b6040516001600160a01b0380851660248301528316604482015260648101829052611db69085906323b872dd60e01b90608401613b24565b6001600160a01b03811660009081526003602052604090205460ff16613f125760405162461bcd60e51b815260206004820152601760248201527f4163636f756e74206973206e6f7420676f7665726e6f720000000000000000006044820152606401610ae3565b6001600160a01b038116600081815260036020908152604091829020805460ff1916905590519182527f1ebe834e73d60a5fec822c1e1727d34bc79f2ad977ed504581cc1822fe20fb5b910161141a565b600080546001600160a01b038381166001600160a01b0319831681178455604051919092169283917f8be0079c531659141344cd1fd0a4f28419497f9722a3daafe3b4186f6b6457e09190a35050565b604051634f9e72ad60e11b81526001600160a01b03831690639f3ce55a908390613fe590899089908990600401615278565b6000604051808303818588803b158015613ffe57600080fd5b505af1158015614012573d6000803e3d6000fd5b50505050505050505050565b60008282604051602001614033929190614d5b565b60408051601f1981840301815291815281516020928301206000818152600690935291205490915060ff16614117576001546040516000916001600160a01b03169061408290889088906152a9565b6000604051808303816000865af19150503d80600081146140bf576040519150601f19603f3d011682016040523d82523d6000602084013e6140c4565b606091505b50509050806141155760405162461bcd60e51b815260206004820152601260248201527f65786563757465206d7367206661696c656400000000000000000000000000006044820152606401610ae3565b505b60008181526006602052604090205460ff166141755760405162461bcd60e51b815260206004820152601060248201527f5266713a20696e76616c6964206d7367000000000000000000000000000000006044820152606401610ae3565b6000908152600660205260409020805460ff1916905550505050565b60006141e6826040518060400160405280602081526020017f5361666545524332303a206c6f772d6c6576656c2063616c6c206661696c6564815250856001600160a01b031661449a9092919063ffffffff16565b805190915015613541578080602001905181019061420491906152b9565b6135415760405162461bcd60e51b815260206004820152602a60248201527f5361666545524332303a204552433230206f7065726174696f6e20646964206e60448201527f6f742073756363656564000000000000000000000000000000000000000000006064820152608401610ae3565b60008082516041036142ac5760208301516040840151606085015160001a6142a0878285856144a9565b945094505050506142dd565b82516040036142d557602083015160408401516142ca868383614596565b9350935050506142dd565b506000905060025b9250929050565b60008160048111156142f8576142f861485f565b036143005750565b60018160048111156143145761431461485f565b036143615760405162461bcd60e51b815260206004820152601860248201527f45434453413a20696e76616c6964207369676e617475726500000000000000006044820152606401610ae3565b60028160048111156143755761437561485f565b036143c25760405162461bcd60e51b815260206004820152601f60248201527f45434453413a20696e76616c6964207369676e6174757265206c656e677468006044820152606401610ae3565b60038160048111156143d6576143d661485f565b0361442e5760405162461bcd60e51b815260206004820152602260248201527f45434453413a20696e76616c6964207369676e6174757265202773272076616c604482015261756560f01b6064820152608401610ae3565b60048160048111156144425761444261485f565b0361130d5760405162461bcd60e51b815260206004820152602260248201527f45434453413a20696e76616c6964207369676e6174757265202776272076616c604482015261756560f01b6064820152608401610ae3565b6060612d0784846000856145e8565b6000807f7fffffffffffffffffffffffffffffff5d576e7357a4501ddfe92f46681b20a08311156144e0575060009050600361458d565b8460ff16601b141580156144f857508460ff16601c14155b15614509575060009050600461458d565b6040805160008082526020820180845289905260ff881692820192909252606081018690526080810185905260019060a0016020604051602081039080840390855afa15801561455d573d6000803e3d6000fd5b5050604051601f1901519150506001600160a01b0381166145865760006001925092505061458d565b9150600090505b94509492505050565b6000807f7fffffffffffffffffffffffffffffffffffffffffffffffffffffffffffffff8316816145cc60ff86901c601b615215565b90506145da878288856144a9565b935093505050935093915050565b6060824710156146605760405162461bcd60e51b815260206004820152602660248201527f416464726573733a20696e73756666696369656e742062616c616e636520666f60448201527f722063616c6c00000000000000000000000000000000000000000000000000006064820152608401610ae3565b6001600160a01b0385163b6146b75760405162461bcd60e51b815260206004820152601d60248201527f416464726573733a2063616c6c20746f206e6f6e2d636f6e74726163740000006044820152606401610ae3565b600080866001600160a01b031685876040516146d391906152d6565b60006040518083038185875af1925050503d8060008114614710576040519150601f19603f3d011682016040523d82523d6000602084013e614715565b606091505b50915091506115588282866060831561472f575081611499565b82511561473f5782518084602001fd5b8160405162461bcd60e51b8152600401610ae391906152f2565b60008083601f84011261476b57600080fd5b5081356001600160401b0381111561478257600080fd5b6020830191508360208285010111156142dd57600080fd5b80356001600160401b03811681146147b157600080fd5b919050565b80356001600160a01b03811681146147b157600080fd5b600080600080600080608087890312156147e657600080fd5b86356001600160401b03808211156147fd57600080fd5b6148098a838b01614759565b909850965086915061481d60208a0161479a565b9550604089013591508082111561483357600080fd5b5061484089828a01614759565b90945092506148539050606088016147b6565b90509295509295509295565b634e487b7160e01b600052602160045260246000fd5b6003811061130d5761130d61485f565b6020810161489283614875565b91905290565b60006101a082840312156148ab57600080fd5b50919050565b6000806101c083850312156148c557600080fd5b6148cf8484614898565b91506148de6101a0840161479a565b90509250929050565b6000806000806000608086880312156148ff57600080fd5b614908866147b6565b94506020860135935060408601356001600160401b0381111561492a57600080fd5b61493688828901614759565b90945092506149499050606087016147b6565b90509295509295909350565b60006101a0828403121561496857600080fd5b6114998383614898565b801515811461130d57600080fd5b6000806101c0838503121561499457600080fd5b61499e8484614898565b91506101a08301356149af81614972565b809150509250929050565b6000602082840312156149cc57600080fd5b5035919050565b60208101600983106148925761489261485f565b600080600080606085870312156149fd57600080fd5b614a06856147b6565b93506020850135925060408501356001600160401b03811115614a2857600080fd5b614a3487828801614759565b95989497509550505050565b600060208284031215614a5257600080fd5b611499826147b6565b600060208284031215614a6d57600080fd5b6114998261479a565b60008060208385031215614a8957600080fd5b82356001600160401b03811115614a9f57600080fd5b614aab85828601614759565b90969095509350505050565b600080600080600080600060c0888a031215614ad257600080fd5b614adb886147b6565b9650614ae9602089016147b6565b955060408801359450614afe6060890161479a565b935060808801356001600160401b03811115614b1957600080fd5b614b258a828b01614759565b9094509250614b38905060a089016147b6565b905092959891949750929550565b60008060006101c08486031215614b5c57600080fd5b614b668585614898565b92506101a08401356001600160401b03811115614b8257600080fd5b614b8e86828701614759565b9497909650939450505050565b600080600080600060808688031215614bb357600080fd5b614bbc866147b6565b9450614bca6020870161479a565b935060408601356001600160401b0381111561492a57600080fd5b600080600060408486031215614bfa57600080fd5b8335925060208401356001600160401b03811115614b8257600080fd5b60008083601f840112614c2957600080fd5b5081356001600160401b03811115614c4057600080fd5b6020830191508360208260051b85010111156142dd57600080fd5b60008060008060408587031215614c7157600080fd5b84356001600160401b0380821115614c8857600080fd5b614c9488838901614c17565b90965094506020870135915080821115614cad57600080fd5b50614a3487828801614c17565b6000806000806101e08587031215614cd157600080fd5b614cdb8686614898565b93506101a0850135614cec81614972565b92506101c08501356001600160401b03811115614a2857600080fd5b60008060408385031215614d1b57600080fd5b614d248361479a565b946020939093013593505050565b634e487b7160e01b600052601160045260246000fd5b81810381811115610cf157610cf1614d32565b828152614d6782614875565b60f89190911b6020820152602101919050565b60208152816020820152818360408301376000818301604090810191909152601f909201601f19160101919050565b600060208284031215614dbb57600080fd5b5051919050565b80356020831015610cf157600019602084900360031b1b1692915050565b634e487b7160e01b600052603260045260246000fd5b803563ffffffff811681146147b157600080fd5b600060208284031215614e1c57600080fd5b61149982614df6565b600060018201614e3757614e37614d32565b5060010190565b8183526000602080850194508260005b85811015614e7a576001600160401b03614e678361479a565b1687529582019590820190600101614e4e565b509495945050505050565b604081526000614e99604083018688614e3e565b8281036020848101919091528482528591810160005b86811015614ed85763ffffffff614ec585614df6565b1682529282019290820190600101614eaf565b5098975050505050505050565b604081526000614ef9604083018688614e3e565b8281036020848101919091528482528591810160005b86811015614ed8576001600160a01b03614f28856147b6565b1682529282019290820190600101614f0f565b6001600160c01b03198e60c01b1681526bffffffffffffffffffffffff198d60601b1660088201528b601c8201528a603c820152614f88605c82018b60c01b6001600160c01b0319169052565b614fa6606482018a60601b6bffffffffffffffffffffffff19169052565b876078820152614fc5609882018860c01b6001600160c01b0319169052565b614fde60a082018760c01b6001600160c01b0319169052565b614ffc60a882018660601b6bffffffffffffffffffffffff19169052565b61501a60bc82018560601b6bffffffffffffffffffffffff19169052565b61503860d082018460601b6bffffffffffffffffffffffff19169052565b61505660e482018360601b6bffffffffffffffffffffffff19169052565b60f8019d9c50505050505050505050505050565b8082028115828204841417610cf157610cf1614d32565b60008261509e57634e487b7160e01b600052601260045260246000fd5b500490565b8281526101c081016150c8602083016150bb8561479a565b6001600160401b03169052565b6150d4602084016147b6565b6001600160a01b03811660408401525060408301356060830152606083013560808301526151046080840161479a565b6001600160401b03811660a08401525061512060a084016147b6565b6001600160a01b03811660c08401525060c083013560e083015261514660e0840161479a565b61010061515d818501836001600160401b03169052565b61516881860161479a565b915050610120615182818501836001600160401b03169052565b61518d8186016147b6565b9150506101406151a7818501836001600160a01b03169052565b6151b28186016147b6565b9150506101606151cc818501836001600160a01b03169052565b6151d78186016147b6565b9150506101806151f1818501836001600160a01b03169052565b6151fc8186016147b6565b915050613e6a6101a08401826001600160a01b03169052565b80820180821115610cf157610cf1614d32565b60005b8381101561524357818101518382015260200161522b565b50506000910152565b60008151808452615264816020860160208601615228565b601f01601f19169290920160200192915050565b6001600160a01b03841681526001600160401b0383166020820152606060408201526000610d54606083018461524c565b8183823760009101908152919050565b6000602082840312156152cb57600080fd5b815161149981614972565b600082516152e8818460208701615228565b9190910192915050565b602081526000611499602083018461524c56fe4f776e61626c653a2063616c6c6572206973206e6f7420746865206f776e6572a2646970667358221220d0cf8bb66abb774cf11009a7b38b3d1b5a1d355754b34237da7d1a494fad05fb64736f6c63430008110033",
  "devdoc": {
    "kind": "dev",
    "methods": {
      "executeMessageWithTransfer(address,address,uint256,uint64,bytes,address)": {
        "params": {
          "_amount": "The amount of tokens received at this contract through the cross-chain bridge.",
          "_executor": "Address who called the MessageBus execution function",
          "_message": "Arbitrary message bytes originated from and encoded by the source app contract",
          "_sender": "The address of the source app contract",
          "_srcChainId": "The source chain ID where the transfer is originated from",
          "_token": "The address of the token that comes out of the bridge"
        }
      },
      "executeMessageWithTransferFallback(address,address,uint256,uint64,bytes,address)": {
        "params": {
          "_amount": "The amount of tokens received at this contract through the cross-chain bridge.",
          "_executor": "Address who called the MessageBus execution function",
          "_message": "Arbitrary message bytes originated from and encoded by the source app contract",
          "_sender": "The address of the source app contract",
          "_srcChainId": "The source chain ID where the transfer is originated from",
          "_token": "The address of the token that comes out of the bridge"
        }
      },
      "executeMessageWithTransferRefund(address,uint256,bytes,address)": {
        "params": {
          "_amount": "The amount of the original transfer",
          "_executor": "Address who called the MessageBus execution function",
          "_message": "The same message associated with the original transfer",
          "_token": "The token address of the original transfer"
        }
      },
      "owner()": {
        "details": "Returns the address of the current owner."
      },
      "paused()": {
        "details": "Returns true if the contract is paused, and false otherwise."
      },
      "transferOwnership(address)": {
        "details": "Transfers ownership of the contract to a new account (`newOwner`). Can only be called by the current owner."
      }
    },
    "title": "rfq contract ",
    "version": 1
  },
  "userdoc": {
    "kind": "user",
    "methods": {
      "executeMessageWithTransfer(address,address,uint256,uint64,bytes,address)": {
        "notice": "Called by MessageBus to execute a message with an associated token transfer. The contract is guaranteed to have received the right amount of tokens before this function is called."
      },
      "executeMessageWithTransferFallback(address,address,uint256,uint64,bytes,address)": {
        "notice": "Only called by MessageBus if         1. executeMessageWithTransfer reverts, or         2. executeMessageWithTransfer returns ExecutionStatus.Fail The contract is guaranteed to have received the right amount of tokens before this function is called."
      },
      "executeMessageWithTransferRefund(address,uint256,bytes,address)": {
        "notice": "Called by MessageBus to process refund of the original transfer from this contract. The contract is guaranteed to have received the refund before this function is called."
      }
    },
    "version": 1
  },
  "storageLayout": {
    "storage": [
      {
        "astId": 52751,
        "contract": "contracts/message/apps/RFQ.sol:RFQ",
        "label": "_owner",
        "offset": 0,
        "slot": "0",
        "type": "t_address"
      },
      {
        "astId": 21881,
        "contract": "contracts/message/apps/RFQ.sol:RFQ",
        "label": "messageBus",
        "offset": 0,
        "slot": "1",
        "type": "t_address"
      },
      {
        "astId": 654,
        "contract": "contracts/message/apps/RFQ.sol:RFQ",
        "label": "_paused",
        "offset": 20,
        "slot": "1",
        "type": "t_bool"
      },
      {
        "astId": 52865,
        "contract": "contracts/message/apps/RFQ.sol:RFQ",
        "label": "pausers",
        "offset": 0,
        "slot": "2",
        "type": "t_mapping(t_address,t_bool)"
      },
      {
        "astId": 52624,
        "contract": "contracts/message/apps/RFQ.sol:RFQ",
        "label": "governors",
        "offset": 0,
        "slot": "3",
        "type": "t_mapping(t_address,t_bool)"
      },
      {
        "astId": 15509,
        "contract": "contracts/message/apps/RFQ.sol:RFQ",
        "label": "nativeWrap",
        "offset": 0,
        "slot": "4",
        "type": "t_address"
      },
      {
        "astId": 15513,
        "contract": "contracts/message/apps/RFQ.sol:RFQ",
        "label": "remoteRfqContracts",
        "offset": 0,
        "slot": "5",
        "type": "t_mapping(t_uint64,t_address)"
      },
      {
        "astId": 15517,
        "contract": "contracts/message/apps/RFQ.sol:RFQ",
        "label": "unconsumedMsg",
        "offset": 0,
        "slot": "6",
        "type": "t_mapping(t_bytes32,t_bool)"
      },
      {
        "astId": 15522,
        "contract": "contracts/message/apps/RFQ.sol:RFQ",
        "label": "quotes",
        "offset": 0,
        "slot": "7",
        "type": "t_mapping(t_bytes32,t_enum(QuoteStatus)15503)"
      },
      {
        "astId": 15524,
        "contract": "contracts/message/apps/RFQ.sol:RFQ",
        "label": "treasuryAddr",
        "offset": 0,
        "slot": "8",
        "type": "t_address"
      },
      {
        "astId": 15526,
        "contract": "contracts/message/apps/RFQ.sol:RFQ",
        "label": "feePercGlobal",
        "offset": 20,
        "slot": "8",
        "type": "t_uint32"
      },
      {
        "astId": 15530,
        "contract": "contracts/message/apps/RFQ.sol:RFQ",
        "label": "feePercOverride",
        "offset": 0,
        "slot": "9",
        "type": "t_mapping(t_uint64,t_uint32)"
      },
      {
        "astId": 15534,
        "contract": "contracts/message/apps/RFQ.sol:RFQ",
        "label": "protocolFee",
        "offset": 0,
        "slot": "10",
        "type": "t_mapping(t_address,t_uint256)"
      },
      {
        "astId": 15538,
        "contract": "contracts/message/apps/RFQ.sol:RFQ",
        "label": "allowedSigner",
        "offset": 0,
        "slot": "11",
        "type": "t_mapping(t_address,t_address)"
      }
    ],
    "types": {
      "t_address": {
        "encoding": "inplace",
        "label": "address",
        "numberOfBytes": "20"
      },
      "t_bool": {
        "encoding": "inplace",
        "label": "bool",
        "numberOfBytes": "1"
      },
      "t_bytes32": {
        "encoding": "inplace",
        "label": "bytes32",
        "numberOfBytes": "32"
      },
      "t_enum(QuoteStatus)15503": {
        "encoding": "inplace",
        "label": "enum RFQ.QuoteStatus",
        "numberOfBytes": "1"
      },
      "t_mapping(t_address,t_address)": {
        "encoding": "mapping",
        "key": "t_address",
        "label": "mapping(address => address)",
        "numberOfBytes": "32",
        "value": "t_address"
      },
      "t_mapping(t_address,t_bool)": {
        "encoding": "mapping",
        "key": "t_address",
        "label": "mapping(address => bool)",
        "numberOfBytes": "32",
        "value": "t_bool"
      },
      "t_mapping(t_address,t_uint256)": {
        "encoding": "mapping",
        "key": "t_address",
        "label": "mapping(address => uint256)",
        "numberOfBytes": "32",
        "value": "t_uint256"
      },
      "t_mapping(t_bytes32,t_bool)": {
        "encoding": "mapping",
        "key": "t_bytes32",
        "label": "mapping(bytes32 => bool)",
        "numberOfBytes": "32",
        "value": "t_bool"
      },
      "t_mapping(t_bytes32,t_enum(QuoteStatus)15503)": {
        "encoding": "mapping",
        "key": "t_bytes32",
        "label": "mapping(bytes32 => enum RFQ.QuoteStatus)",
        "numberOfBytes": "32",
        "value": "t_enum(QuoteStatus)15503"
      },
      "t_mapping(t_uint64,t_address)": {
        "encoding": "mapping",
        "key": "t_uint64",
        "label": "mapping(uint64 => address)",
        "numberOfBytes": "32",
        "value": "t_address"
      },
      "t_mapping(t_uint64,t_uint32)": {
        "encoding": "mapping",
        "key": "t_uint64",
        "label": "mapping(uint64 => uint32)",
        "numberOfBytes": "32",
        "value": "t_uint32"
      },
      "t_uint256": {
        "encoding": "inplace",
        "label": "uint256",
        "numberOfBytes": "32"
      },
      "t_uint32": {
        "encoding": "inplace",
        "label": "uint32",
        "numberOfBytes": "4"
      },
      "t_uint64": {
        "encoding": "inplace",
        "label": "uint64",
        "numberOfBytes": "8"
      }
    }
  }
}