{
  "address": "0xBf2B2757F0B2a2f70136C4A6627e99d8ec5cC7b9",
  "abi": [
    {
      "inputs": [
        {
          "internalType": "uint256",
          "name": "_chainId",
          "type": "uint256"
        }
      ],
      "stateMutability": "nonpayable",
      "type": "constructor"
    },
    {
      "anonymous": false,
      "inputs": [
        {
          "indexed": false,
          "internalType": "uint256",
          "name": "period",
          "type": "uint256"
        }
      ],
      "name": "DelayPeriodUpdated",
      "type": "event"
    },
    {
      "anonymous": false,
      "inputs": [
        {
          "indexed": false,
          "internalType": "address",
          "name": "token",
          "type": "address"
        },
        {
          "indexed": false,
          "internalType": "uint256",
          "name": "threshold",
          "type": "uint256"
        }
      ],
      "name": "DelayThresholdUpdated",
      "type": "event"
    },
    {
      "anonymous": false,
      "inputs": [
        {
          "indexed": false,
          "internalType": "bytes32",
          "name": "id",
          "type": "bytes32"
        }
      ],
      "name": "DelayedTransferAdded",
      "type": "event"
    },
    {
      "anonymous": false,
      "inputs": [
        {
          "indexed": false,
          "internalType": "bytes32",
          "name": "id",
          "type": "bytes32"
        },
        {
          "indexed": false,
          "internalType": "address",
          "name": "receiver",
          "type": "address"
        },
        {
          "indexed": false,
          "internalType": "address",
          "name": "token",
          "type": "address"
        },
        {
          "indexed": false,
          "internalType": "uint256",
          "name": "amount",
          "type": "uint256"
        }
      ],
      "name": "DelayedTransferExecuted",
      "type": "event"
    },
    {
      "anonymous": false,
      "inputs": [
        {
          "indexed": false,
          "internalType": "uint256",
          "name": "length",
          "type": "uint256"
        }
      ],
      "name": "EpochLengthUpdated",
      "type": "event"
    },
    {
      "anonymous": false,
      "inputs": [
        {
          "indexed": false,
          "internalType": "address",
          "name": "token",
          "type": "address"
        },
        {
          "indexed": false,
          "internalType": "uint256",
          "name": "cap",
          "type": "uint256"
        }
      ],
      "name": "EpochVolumeUpdated",
      "type": "event"
    },
    {
      "anonymous": false,
      "inputs": [
        {
          "indexed": false,
          "internalType": "address",
          "name": "account",
          "type": "address"
        }
      ],
      "name": "GovernorAdded",
      "type": "event"
    },
    {
      "anonymous": false,
      "inputs": [
        {
          "indexed": false,
          "internalType": "address",
          "name": "account",
          "type": "address"
        }
      ],
      "name": "GovernorRemoved",
      "type": "event"
    },
    {
      "anonymous": false,
      "inputs": [
        {
          "indexed": false,
          "internalType": "uint64",
          "name": "seqnum",
          "type": "uint64"
        },
        {
          "indexed": false,
          "internalType": "address",
          "name": "provider",
          "type": "address"
        },
        {
          "indexed": false,
          "internalType": "address",
          "name": "token",
          "type": "address"
        },
        {
          "indexed": false,
          "internalType": "uint256",
          "name": "amount",
          "type": "uint256"
        }
      ],
      "name": "LiquidityAdded",
      "type": "event"
    },
    {
      "anonymous": false,
      "inputs": [
        {
          "indexed": false,
          "internalType": "address",
          "name": "token",
          "type": "address"
        },
        {
          "indexed": false,
          "internalType": "uint256",
          "name": "amount",
          "type": "uint256"
        }
      ],
      "name": "MaxSendUpdated",
      "type": "event"
    },
    {
      "anonymous": false,
      "inputs": [
        {
          "indexed": false,
          "internalType": "address",
          "name": "token",
          "type": "address"
        },
        {
          "indexed": false,
          "internalType": "uint256",
          "name": "amount",
          "type": "uint256"
        }
      ],
      "name": "MinAddUpdated",
      "type": "event"
    },
    {
      "anonymous": false,
      "inputs": [
        {
          "indexed": false,
          "internalType": "address",
          "name": "token",
          "type": "address"
        },
        {
          "indexed": false,
          "internalType": "uint256",
          "name": "amount",
          "type": "uint256"
        }
      ],
      "name": "MinSendUpdated",
      "type": "event"
    },
    {
      "anonymous": false,
      "inputs": [
        {
          "indexed": true,
          "internalType": "address",
          "name": "previousOwner",
          "type": "address"
        },
        {
          "indexed": true,
          "internalType": "address",
          "name": "newOwner",
          "type": "address"
        }
      ],
      "name": "OwnershipTransferred",
      "type": "event"
    },
    {
      "anonymous": false,
      "inputs": [
        {
          "indexed": false,
          "internalType": "address",
          "name": "account",
          "type": "address"
        }
      ],
      "name": "Paused",
      "type": "event"
    },
    {
      "anonymous": false,
      "inputs": [
        {
          "indexed": false,
          "internalType": "address",
          "name": "account",
          "type": "address"
        }
      ],
      "name": "PauserAdded",
      "type": "event"
    },
    {
      "anonymous": false,
      "inputs": [
        {
          "indexed": false,
          "internalType": "address",
          "name": "account",
          "type": "address"
        }
      ],
      "name": "PauserRemoved",
      "type": "event"
    },
    {
      "anonymous": false,
      "inputs": [
        {
          "indexed": false,
          "internalType": "bytes32",
          "name": "transferId",
          "type": "bytes32"
        },
        {
          "indexed": false,
          "internalType": "address",
          "name": "sender",
          "type": "address"
        },
        {
          "indexed": false,
          "internalType": "address",
          "name": "receiver",
          "type": "address"
        },
        {
          "indexed": false,
          "internalType": "address",
          "name": "token",
          "type": "address"
        },
        {
          "indexed": false,
          "internalType": "uint256",
          "name": "amount",
          "type": "uint256"
        },
        {
          "indexed": false,
          "internalType": "uint64",
          "name": "srcChainId",
          "type": "uint64"
        },
        {
          "indexed": false,
          "internalType": "bytes32",
          "name": "srcTransferId",
          "type": "bytes32"
        }
      ],
      "name": "Relay",
      "type": "event"
    },
    {
      "anonymous": false,
      "inputs": [
        {
          "indexed": false,
          "internalType": "uint256",
          "name": "resetTime",
          "type": "uint256"
        }
      ],
      "name": "ResetNotification",
      "type": "event"
    },
    {
      "anonymous": false,
      "inputs": [
        {
          "indexed": false,
          "internalType": "bytes32",
          "name": "transferId",
          "type": "bytes32"
        },
        {
          "indexed": false,
          "internalType": "address",
          "name": "sender",
          "type": "address"
        },
        {
          "indexed": false,
          "internalType": "address",
          "name": "receiver",
          "type": "address"
        },
        {
          "indexed": false,
          "internalType": "address",
          "name": "token",
          "type": "address"
        },
        {
          "indexed": false,
          "internalType": "uint256",
          "name": "amount",
          "type": "uint256"
        },
        {
          "indexed": false,
          "internalType": "uint64",
          "name": "dstChainId",
          "type": "uint64"
        },
        {
          "indexed": false,
          "internalType": "uint64",
          "name": "nonce",
          "type": "uint64"
        },
        {
          "indexed": false,
          "internalType": "uint32",
          "name": "maxSlippage",
          "type": "uint32"
        }
      ],
      "name": "Send",
      "type": "event"
    },
    {
      "anonymous": false,
      "inputs": [
        {
          "indexed": false,
          "internalType": "address[]",
          "name": "_signers",
          "type": "address[]"
        },
        {
          "indexed": false,
          "internalType": "uint256[]",
          "name": "_powers",
          "type": "uint256[]"
        }
      ],
      "name": "SignersUpdated",
      "type": "event"
    },
    {
      "anonymous": false,
      "inputs": [
        {
          "indexed": false,
          "internalType": "address",
          "name": "account",
          "type": "address"
        }
      ],
      "name": "Unpaused",
      "type": "event"
    },
    {
      "anonymous": false,
      "inputs": [
        {
          "indexed": false,
          "internalType": "bytes32",
          "name": "withdrawId",
          "type": "bytes32"
        },
        {
          "indexed": false,
          "internalType": "uint64",
          "name": "seqnum",
          "type": "uint64"
        },
        {
          "indexed": false,
          "internalType": "address",
          "name": "receiver",
          "type": "address"
        },
        {
          "indexed": false,
          "internalType": "address",
          "name": "token",
          "type": "address"
        },
        {
          "indexed": false,
          "internalType": "uint256",
          "name": "amount",
          "type": "uint256"
        },
        {
          "indexed": false,
          "internalType": "bytes32",
          "name": "refid",
          "type": "bytes32"
        }
      ],
      "name": "WithdrawDone",
      "type": "event"
    },
    {
      "inputs": [
        {
          "internalType": "address",
          "name": "_account",
          "type": "address"
        }
      ],
      "name": "addGovernor",
      "outputs": [],
      "stateMutability": "nonpayable",
      "type": "function"
    },
    {
      "inputs": [
        {
          "internalType": "address",
          "name": "_token",
          "type": "address"
        },
        {
          "internalType": "uint256",
          "name": "_amount",
          "type": "uint256"
        }
      ],
      "name": "addLiquidity",
      "outputs": [],
      "stateMutability": "nonpayable",
      "type": "function"
    },
    {
      "inputs": [
        {
          "internalType": "uint256",
          "name": "_amount",
          "type": "uint256"
        }
      ],
      "name": "addNativeLiquidity",
      "outputs": [],
      "stateMutability": "payable",
      "type": "function"
    },
    {
      "inputs": [
        {
          "internalType": "address",
          "name": "account",
          "type": "address"
        }
      ],
      "name": "addPauser",
      "outputs": [],
      "stateMutability": "nonpayable",
      "type": "function"
    },
    {
      "inputs": [],
      "name": "addseq",
      "outputs": [
        {
          "internalType": "uint64",
          "name": "",
          "type": "uint64"
        }
      ],
      "stateMutability": "view",
      "type": "function"
    },
    {
      "inputs": [],
      "name": "chainId",
      "outputs": [
        {
          "internalType": "uint256",
          "name": "",
          "type": "uint256"
        }
      ],
      "stateMutability": "view",
      "type": "function"
    },
    {
      "inputs": [],
      "name": "delayPeriod",
      "outputs": [
        {
          "internalType": "uint256",
          "name": "",
          "type": "uint256"
        }
      ],
      "stateMutability": "view",
      "type": "function"
    },
    {
      "inputs": [
        {
          "internalType": "address",
          "name": "",
          "type": "address"
        }
      ],
      "name": "delayThresholds",
      "outputs": [
        {
          "internalType": "uint256",
          "name": "",
          "type": "uint256"
        }
      ],
      "stateMutability": "view",
      "type": "function"
    },
    {
      "inputs": [
        {
          "internalType": "bytes32",
          "name": "",
          "type": "bytes32"
        }
      ],
      "name": "delayedTransfers",
      "outputs": [
        {
          "internalType": "address",
          "name": "receiver",
          "type": "address"
        },
        {
          "internalType": "address",
          "name": "token",
          "type": "address"
        },
        {
          "internalType": "uint256",
          "name": "amount",
          "type": "uint256"
        },
        {
          "internalType": "uint256",
          "name": "timestamp",
          "type": "uint256"
        }
      ],
      "stateMutability": "view",
      "type": "function"
    },
    {
      "inputs": [],
      "name": "epochLength",
      "outputs": [
        {
          "internalType": "uint256",
          "name": "",
          "type": "uint256"
        }
      ],
      "stateMutability": "view",
      "type": "function"
    },
    {
      "inputs": [
        {
          "internalType": "address",
          "name": "",
          "type": "address"
        }
      ],
      "name": "epochVolumeCaps",
      "outputs": [
        {
          "internalType": "uint256",
          "name": "",
          "type": "uint256"
        }
      ],
      "stateMutability": "view",
      "type": "function"
    },
    {
      "inputs": [
        {
          "internalType": "address",
          "name": "",
          "type": "address"
        }
      ],
      "name": "epochVolumes",
      "outputs": [
        {
          "internalType": "uint256",
          "name": "",
          "type": "uint256"
        }
      ],
      "stateMutability": "view",
      "type": "function"
    },
    {
      "inputs": [
        {
          "internalType": "bytes32",
          "name": "id",
          "type": "bytes32"
        }
      ],
      "name": "executeDelayedTransfer",
      "outputs": [],
      "stateMutability": "nonpayable",
      "type": "function"
    },
    {
      "inputs": [
        {
          "internalType": "address",
          "name": "",
          "type": "address"
        }
      ],
      "name": "governors",
      "outputs": [
        {
          "internalType": "bool",
          "name": "",
          "type": "bool"
        }
      ],
      "stateMutability": "view",
      "type": "function"
    },
    {
      "inputs": [
        {
          "internalType": "uint256",
          "name": "period",
          "type": "uint256"
        }
      ],
      "name": "increaseNoticePeriod",
      "outputs": [],
      "stateMutability": "nonpayable",
      "type": "function"
    },
    {
      "inputs": [
        {
          "internalType": "address",
          "name": "_account",
          "type": "address"
        }
      ],
      "name": "isGovernor",
      "outputs": [
        {
          "internalType": "bool",
          "name": "",
          "type": "bool"
        }
      ],
      "stateMutability": "view",
      "type": "function"
    },
    {
      "inputs": [
        {
          "internalType": "address",
          "name": "account",
          "type": "address"
        }
      ],
      "name": "isPauser",
      "outputs": [
        {
          "internalType": "bool",
          "name": "",
          "type": "bool"
        }
      ],
      "stateMutability": "view",
      "type": "function"
    },
    {
      "inputs": [
        {
          "internalType": "address",
          "name": "",
          "type": "address"
        }
      ],
      "name": "lastOpTimestamps",
      "outputs": [
        {
          "internalType": "uint256",
          "name": "",
          "type": "uint256"
        }
      ],
      "stateMutability": "view",
      "type": "function"
    },
    {
      "inputs": [
        {
          "internalType": "address",
          "name": "",
          "type": "address"
        }
      ],
      "name": "maxSend",
      "outputs": [
        {
          "internalType": "uint256",
          "name": "",
          "type": "uint256"
        }
      ],
      "stateMutability": "view",
      "type": "function"
    },
    {
      "inputs": [
        {
          "internalType": "address",
          "name": "",
          "type": "address"
        }
      ],
      "name": "minAdd",
      "outputs": [
        {
          "internalType": "uint256",
          "name": "",
          "type": "uint256"
        }
      ],
      "stateMutability": "view",
      "type": "function"
    },
    {
      "inputs": [
        {
          "internalType": "address",
          "name": "",
          "type": "address"
        }
      ],
      "name": "minSend",
      "outputs": [
        {
          "internalType": "uint256",
          "name": "",
          "type": "uint256"
        }
      ],
      "stateMutability": "view",
      "type": "function"
    },
    {
      "inputs": [],
      "name": "minimalMaxSlippage",
      "outputs": [
        {
          "internalType": "uint32",
          "name": "",
          "type": "uint32"
        }
      ],
      "stateMutability": "view",
      "type": "function"
    },
    {
      "inputs": [],
      "name": "nativeWrap",
      "outputs": [
        {
          "internalType": "address",
          "name": "",
          "type": "address"
        }
      ],
      "stateMutability": "view",
      "type": "function"
    },
    {
      "inputs": [],
      "name": "noticePeriod",
      "outputs": [
        {
          "internalType": "uint256",
          "name": "",
          "type": "uint256"
        }
      ],
      "stateMutability": "view",
      "type": "function"
    },
    {
      "inputs": [],
      "name": "notifyResetSigners",
      "outputs": [],
      "stateMutability": "nonpayable",
      "type": "function"
    },
    {
      "inputs": [],
      "name": "owner",
      "outputs": [
        {
          "internalType": "address",
          "name": "",
          "type": "address"
        }
      ],
      "stateMutability": "view",
      "type": "function"
    },
    {
      "inputs": [],
      "name": "pause",
      "outputs": [],
      "stateMutability": "nonpayable",
      "type": "function"
    },
    {
      "inputs": [],
      "name": "paused",
      "outputs": [
        {
          "internalType": "bool",
          "name": "",
          "type": "bool"
        }
      ],
      "stateMutability": "view",
      "type": "function"
    },
    {
      "inputs": [
        {
          "internalType": "address",
          "name": "",
          "type": "address"
        }
      ],
      "name": "pausers",
      "outputs": [
        {
          "internalType": "bool",
          "name": "",
          "type": "bool"
        }
      ],
      "stateMutability": "view",
      "type": "function"
    },
    {
      "inputs": [
        {
          "internalType": "bytes",
          "name": "_relayRequest",
          "type": "bytes"
        },
        {
          "internalType": "bytes[]",
          "name": "_sigs",
          "type": "bytes[]"
        },
        {
          "internalType": "address[]",
          "name": "_signers",
          "type": "address[]"
        },
        {
          "internalType": "uint256[]",
          "name": "_powers",
          "type": "uint256[]"
        }
      ],
      "name": "relay",
      "outputs": [],
      "stateMutability": "nonpayable",
      "type": "function"
    },
    {
      "inputs": [
        {
          "internalType": "address",
          "name": "_account",
          "type": "address"
        }
      ],
      "name": "removeGovernor",
      "outputs": [],
      "stateMutability": "nonpayable",
      "type": "function"
    },
    {
      "inputs": [
        {
          "internalType": "address",
          "name": "account",
          "type": "address"
        }
      ],
      "name": "removePauser",
      "outputs": [],
      "stateMutability": "nonpayable",
      "type": "function"
    },
    {
      "inputs": [],
      "name": "renounceGovernor",
      "outputs": [],
      "stateMutability": "nonpayable",
      "type": "function"
    },
    {
      "inputs": [],
      "name": "renounceOwnership",
      "outputs": [],
      "stateMutability": "nonpayable",
      "type": "function"
    },
    {
      "inputs": [],
      "name": "renouncePauser",
      "outputs": [],
      "stateMutability": "nonpayable",
      "type": "function"
    },
    {
      "inputs": [
        {
          "internalType": "address[]",
          "name": "_signers",
          "type": "address[]"
        },
        {
          "internalType": "uint256[]",
          "name": "_powers",
          "type": "uint256[]"
        }
      ],
      "name": "resetSigners",
      "outputs": [],
      "stateMutability": "nonpayable",
      "type": "function"
    },
    {
      "inputs": [],
      "name": "resetTime",
      "outputs": [
        {
          "internalType": "uint256",
          "name": "",
          "type": "uint256"
        }
      ],
      "stateMutability": "view",
      "type": "function"
    },
    {
      "inputs": [
        {
          "internalType": "address",
          "name": "_receiver",
          "type": "address"
        },
        {
          "internalType": "address",
          "name": "_token",
          "type": "address"
        },
        {
          "internalType": "uint256",
          "name": "_amount",
          "type": "uint256"
        },
        {
          "internalType": "uint64",
          "name": "_dstChainId",
          "type": "uint64"
        },
        {
          "internalType": "uint64",
          "name": "_nonce",
          "type": "uint64"
        },
        {
          "internalType": "uint32",
          "name": "_maxSlippage",
          "type": "uint32"
        }
      ],
      "name": "send",
      "outputs": [],
      "stateMutability": "nonpayable",
      "type": "function"
    },
    {
      "inputs": [
        {
          "internalType": "address",
          "name": "_receiver",
          "type": "address"
        },
        {
          "internalType": "uint256",
          "name": "_amount",
          "type": "uint256"
        },
        {
          "internalType": "uint64",
          "name": "_dstChainId",
          "type": "uint64"
        },
        {
          "internalType": "uint64",
          "name": "_nonce",
          "type": "uint64"
        },
        {
          "internalType": "uint32",
          "name": "_maxSlippage",
          "type": "uint32"
        }
      ],
      "name": "sendNative",
      "outputs": [],
      "stateMutability": "payable",
      "type": "function"
    },
    {
      "inputs": [
        {
          "internalType": "uint256",
          "name": "_period",
          "type": "uint256"
        }
      ],
      "name": "setDelayPeriod",
      "outputs": [],
      "stateMutability": "nonpayable",
      "type": "function"
    },
    {
      "inputs": [
        {
          "internalType": "address[]",
          "name": "_tokens",
          "type": "address[]"
        },
        {
          "internalType": "uint256[]",
          "name": "_thresholds",
          "type": "uint256[]"
        }
      ],
      "name": "setDelayThresholds",
      "outputs": [],
      "stateMutability": "nonpayable",
      "type": "function"
    },
    {
      "inputs": [
        {
          "internalType": "uint256",
          "name": "_length",
          "type": "uint256"
        }
      ],
      "name": "setEpochLength",
      "outputs": [],
      "stateMutability": "nonpayable",
      "type": "function"
    },
    {
      "inputs": [
        {
          "internalType": "address[]",
          "name": "_tokens",
          "type": "address[]"
        },
        {
          "internalType": "uint256[]",
          "name": "_caps",
          "type": "uint256[]"
        }
      ],
      "name": "setEpochVolumeCaps",
      "outputs": [],
      "stateMutability": "nonpayable",
      "type": "function"
    },
    {
      "inputs": [
        {
          "internalType": "address[]",
          "name": "_tokens",
          "type": "address[]"
        },
        {
          "internalType": "uint256[]",
          "name": "_amounts",
          "type": "uint256[]"
        }
      ],
      "name": "setMaxSend",
      "outputs": [],
      "stateMutability": "nonpayable",
      "type": "function"
    },
    {
      "inputs": [
        {
          "internalType": "address[]",
          "name": "_tokens",
          "type": "address[]"
        },
        {
          "internalType": "uint256[]",
          "name": "_amounts",
          "type": "uint256[]"
        }
      ],
      "name": "setMinAdd",
      "outputs": [],
      "stateMutability": "nonpayable",
      "type": "function"
    },
    {
      "inputs": [
        {
          "internalType": "address[]",
          "name": "_tokens",
          "type": "address[]"
        },
        {
          "internalType": "uint256[]",
          "name": "_amounts",
          "type": "uint256[]"
        }
      ],
      "name": "setMinSend",
      "outputs": [],
      "stateMutability": "nonpayable",
      "type": "function"
    },
    {
      "inputs": [
        {
          "internalType": "uint32",
          "name": "_minimalMaxSlippage",
          "type": "uint32"
        }
      ],
      "name": "setMinimalMaxSlippage",
      "outputs": [],
      "stateMutability": "nonpayable",
      "type": "function"
    },
    {
      "inputs": [
        {
          "internalType": "address",
          "name": "_weth",
          "type": "address"
        }
      ],
      "name": "setWrap",
      "outputs": [],
      "stateMutability": "nonpayable",
      "type": "function"
    },
    {
      "inputs": [],
      "name": "ssHash",
      "outputs": [
        {
          "internalType": "bytes32",
          "name": "",
          "type": "bytes32"
        }
      ],
      "stateMutability": "view",
      "type": "function"
    },
    {
      "inputs": [
        {
          "internalType": "address",
          "name": "newOwner",
          "type": "address"
        }
      ],
      "name": "transferOwnership",
      "outputs": [],
      "stateMutability": "nonpayable",
      "type": "function"
    },
    {
      "inputs": [
        {
          "internalType": "bytes32",
          "name": "",
          "type": "bytes32"
        }
      ],
      "name": "transfers",
      "outputs": [
        {
          "internalType": "bool",
          "name": "",
          "type": "bool"
        }
      ],
      "stateMutability": "view",
      "type": "function"
    },
    {
      "inputs": [],
      "name": "triggerTime",
      "outputs": [
        {
          "internalType": "uint256",
          "name": "",
          "type": "uint256"
        }
      ],
      "stateMutability": "view",
      "type": "function"
    },
    {
      "inputs": [],
      "name": "unpause",
      "outputs": [],
      "stateMutability": "nonpayable",
      "type": "function"
    },
    {
      "inputs": [
        {
          "internalType": "uint256",
          "name": "_triggerTime",
          "type": "uint256"
        },
        {
          "internalType": "address[]",
          "name": "_newSigners",
          "type": "address[]"
        },
        {
          "internalType": "uint256[]",
          "name": "_newPowers",
          "type": "uint256[]"
        },
        {
          "internalType": "bytes[]",
          "name": "_sigs",
          "type": "bytes[]"
        },
        {
          "internalType": "address[]",
          "name": "_curSigners",
          "type": "address[]"
        },
        {
          "internalType": "uint256[]",
          "name": "_curPowers",
          "type": "uint256[]"
        }
      ],
      "name": "updateSigners",
      "outputs": [],
      "stateMutability": "nonpayable",
      "type": "function"
    },
    {
      "inputs": [
        {
          "internalType": "bytes",
          "name": "_msg",
          "type": "bytes"
        },
        {
          "internalType": "bytes[]",
          "name": "_sigs",
          "type": "bytes[]"
        },
        {
          "internalType": "address[]",
          "name": "_signers",
          "type": "address[]"
        },
        {
          "internalType": "uint256[]",
          "name": "_powers",
          "type": "uint256[]"
        }
      ],
      "name": "verifySigs",
      "outputs": [],
      "stateMutability": "view",
      "type": "function"
    },
    {
      "inputs": [
        {
          "internalType": "bytes",
          "name": "_wdmsg",
          "type": "bytes"
        },
        {
          "internalType": "bytes[]",
          "name": "_sigs",
          "type": "bytes[]"
        },
        {
          "internalType": "address[]",
          "name": "_signers",
          "type": "address[]"
        },
        {
          "internalType": "uint256[]",
          "name": "_powers",
          "type": "uint256[]"
        }
      ],
      "name": "withdraw",
      "outputs": [],
      "stateMutability": "nonpayable",
      "type": "function"
    },
    {
      "inputs": [
        {
          "internalType": "bytes32",
          "name": "",
          "type": "bytes32"
        }
      ],
      "name": "withdraws",
      "outputs": [
        {
          "internalType": "bool",
          "name": "",
          "type": "bool"
        }
      ],
      "stateMutability": "view",
      "type": "function"
    },
    {
      "stateMutability": "payable",
      "type": "receive"
    }
  ],
  "transactionHash": "0xbcb868f077e4118c20eed39abba4f8fadcbc38f982bbdcfada9166f3cb286a2f",
  "args": [
    "210425"
  ],
  "numDeployments": 1,
  "solcInputHash": "7b347ef6706b220dea162e6b434f6b0a",
  "bytecode": "0x60806040523480156200001157600080fd5b506040516200540638038062005406833981016040819052620000349162000247565b6200003f336200006d565b60016006556007805460ff191690556200005933620000bd565b620000643362000187565b60055562000261565b600080546001600160a01b038381166001600160a01b0319831681178455604051919092169283917f8be0079c531659141344cd1fd0a4f28419497f9722a3daafe3b4186f6b6457e09190a35050565b6001600160a01b03811660009081526008602052604090205460ff16156200012c5760405162461bcd60e51b815260206004820152601960248201527f4163636f756e7420697320616c7265616479207061757365720000000000000060448201526064015b60405180910390fd5b6001600160a01b038116600081815260086020908152604091829020805460ff1916600117905590519182527f6719d08c1888103bea251a4ed56406bd0c3e69723c8a1686e017e7bbe159b6f891015b60405180910390a150565b6001600160a01b03811660009081526009602052604090205460ff1615620001f25760405162461bcd60e51b815260206004820152601b60248201527f4163636f756e7420697320616c726561647920676f7665726e6f720000000000604482015260640162000123565b6001600160a01b038116600081815260096020908152604091829020805460ff1916600117905590519182527fdc5a48d79e2e147530ff63ecdbed5a5a66adb9d5cf339384d5d076da197c40b591016200017c565b6000602082840312156200025a57600080fd5b5051919050565b61519580620002716000396000f3fe60806040526004361061037a5760003560e01c806382dc1ec4116101d1578063b5f2bc4711610102578063e3eece26116100a0578063f20c922a1161006f578063f20c922a14610af0578063f2fde38b14610b10578063f832138314610b30578063f8b30d7d14610b5d57600080fd5b8063e3eece2614610a47578063e43581b814610a77578063e999e5f414610ab0578063eecdac8814610ad057600080fd5b8063cdd1b25d116100dc578063cdd1b25d146109cc578063d0790da9146109ec578063e026049c14610a02578063e09ab42814610a1757600080fd5b8063b5f2bc4714610952578063ba2cb25c1461097f578063ccde517a1461099f57600080fd5b80639e25fc5c1161016f578063a5977fbb11610149578063a5977fbb14610882578063a7bdf45a146108a2578063adc0d57f146108c2578063b1c94d941461093c57600080fd5b80639e25fc5c146108225780639ff9001a14610842578063a21a92801461086257600080fd5b806389e39127116101ab57806389e391271461079e5780638da5cb5b146107d85780639a8a0592146107f65780639b14d4c61461080c57600080fd5b806382dc1ec4146107495780638456cb5914610769578063878fe1ce1461077e57600080fd5b806352532faa116102ab57806365a114f1116102495780636ef8d66d116102235780636ef8d66d146106dc5780637044c89e146106f1578063715018a61461070457806380f51c121461071957600080fd5b806365a114f114610686578063682dbc221461069c5780636b2c0f55146106bc57600080fd5b806357d775f81161028557806357d775f8146105fe5780635c975abb1461061457806360216b001461062c578063618ee0551461065957600080fd5b806352532faa1461059157806354eea796146105be57806356688700146105de57600080fd5b80633d57210711610318578063457bfa2f116102f2578063457bfa2f146104e057806346fbf68e1461051857806347b16c6c14610551578063482341261461057157600080fd5b80633d572107146104985780633f2e5fc3146104b85780633f4ba83a146104cb57600080fd5b80632fd1b0a4116103545780632fd1b0a4146103dd578063370fb47b146104145780633c4a25d0146104385780633c64f04b1461045857600080fd5b8063089927411461038657806317bdbae5146103a857806325c38b9f146103c857600080fd5b3661038157005b600080fd5b34801561039257600080fd5b506103a66103a13660046148e6565b610b8a565b005b3480156103b457600080fd5b506103a66103c33660046148e6565b610d2d565b3480156103d457600080fd5b506103a6610ec4565b3480156103e957600080fd5b506018546103fa9063ffffffff1681565b60405163ffffffff90911681526020015b60405180910390f35b34801561042057600080fd5b5061042a60025481565b60405190815260200161040b565b34801561044457600080fd5b506103a661045336600461496e565b610f54565b34801561046457600080fd5b50610488610473366004614989565b60156020526000908152604090205460ff1681565b604051901515815260200161040b565b3480156104a457600080fd5b506103a66104b3366004614989565b610fa8565b6103a66104c63660046149ce565b61103c565b3480156104d757600080fd5b506103a6611292565b3480156104ec57600080fd5b50601454610500906001600160a01b031681565b6040516001600160a01b03909116815260200161040b565b34801561052457600080fd5b5061048861053336600461496e565b6001600160a01b031660009081526008602052604090205460ff1690565b34801561055d57600080fd5b506103a661056c3660046148e6565b6112fb565b34801561057d57600080fd5b506103a661058c366004614a2c565b611492565b34801561059d57600080fd5b5061042a6105ac36600461496e565b600f6020526000908152604090205481565b3480156105ca57600080fd5b506103a66105d9366004614989565b611506565b3480156105ea57600080fd5b506103a66105f9366004614a47565b611593565b34801561060a57600080fd5b5061042a600a5481565b34801561062057600080fd5b5060075460ff16610488565b34801561063857600080fd5b5061042a61064736600461496e565b600b6020526000908152604090205481565b34801561066557600080fd5b5061042a61067436600461496e565b60176020526000908152604090205481565b34801561069257600080fd5b5061042a60035481565b3480156106a857600080fd5b506103a66106b7366004614a87565b611755565b3480156106c857600080fd5b506103a66106d736600461496e565b611841565b3480156106e857600080fd5b506103a6611892565b6103a66106ff366004614989565b61189b565b34801561071057600080fd5b506103a6611b4d565b34801561072557600080fd5b5061048861073436600461496e565b60086020526000908152604090205460ff1681565b34801561075557600080fd5b506103a661076436600461496e565b611b9f565b34801561077557600080fd5b506103a6611bf0565b34801561078a57600080fd5b506103a66107993660046148e6565b611c57565b3480156107aa57600080fd5b506011546107bf9067ffffffffffffffff1681565b60405167ffffffffffffffff909116815260200161040b565b3480156107e457600080fd5b506000546001600160a01b0316610500565b34801561080257600080fd5b5061042a60055481565b34801561081857600080fd5b5061042a60045481565b34801561082e57600080fd5b506103a661083d366004614989565b611dee565b34801561084e57600080fd5b506103a661085d36600461496e565b611e5c565b34801561086e57600080fd5b506103a661087d366004614bb5565b611ec6565b34801561088e57600080fd5b506103a661089d366004614ca4565b61220f565b3480156108ae57600080fd5b506103a66108bd3660046148e6565b61235d565b3480156108ce57600080fd5b506109116108dd366004614989565b600e6020526000908152604090208054600182015460028301546003909301546001600160a01b0392831693919092169184565b604080516001600160a01b03958616815294909316602085015291830152606082015260800161040b565b34801561094857600080fd5b5061042a60105481565b34801561095e57600080fd5b5061042a61096d36600461496e565b600c6020526000908152604090205481565b34801561098b57600080fd5b506103a661099a366004614d11565b61240e565b3480156109ab57600080fd5b5061042a6109ba36600461496e565b60126020526000908152604090205481565b3480156109d857600080fd5b506103a66109e7366004614bb5565b612566565b3480156109f857600080fd5b5061042a60015481565b348015610a0e57600080fd5b506103a661288d565b348015610a2357600080fd5b50610488610a32366004614989565b60136020526000908152604090205460ff1681565b348015610a5357600080fd5b50610488610a6236600461496e565b60096020526000908152604090205460ff1681565b348015610a8357600080fd5b50610488610a9236600461496e565b6001600160a01b031660009081526009602052604090205460ff1690565b348015610abc57600080fd5b506103a6610acb3660046148e6565b612896565b348015610adc57600080fd5b506103a6610aeb36600461496e565b612a2d565b348015610afc57600080fd5b506103a6610b0b366004614989565b612a7e565b348015610b1c57600080fd5b506103a6610b2b36600461496e565b612b28565b348015610b3c57600080fd5b5061042a610b4b36600461496e565b600d6020526000908152604090205481565b348015610b6957600080fd5b5061042a610b7836600461496e565b60166020526000908152604090205481565b3360009081526009602052604090205460ff16610be75760405162461bcd60e51b815260206004820152601660248201527521b0b63632b91034b9903737ba1033b7bb32b93737b960511b60448201526064015b60405180910390fd5b828114610c285760405162461bcd60e51b815260206004820152600f60248201526e0d8cadccee8d040dad2e6dac2e8c6d608b1b6044820152606401610bde565b60005b83811015610d2657828282818110610c4557610c45614e11565b9050602002013560166000878785818110610c6257610c62614e11565b9050602002016020810190610c77919061496e565b6001600160a01b031681526020810191909152604001600020557f8b59d386e660418a48d742213ad5ce7c4dd51ae81f30e4e2c387f17d907010c9858583818110610cc457610cc4614e11565b9050602002016020810190610cd9919061496e565b848484818110610ceb57610ceb614e11565b604080516001600160a01b0390951685526020918202939093013590840152500160405180910390a180610d1e81614e3d565b915050610c2b565b5050505050565b3360009081526009602052604090205460ff16610d855760405162461bcd60e51b815260206004820152601660248201527521b0b63632b91034b9903737ba1033b7bb32b93737b960511b6044820152606401610bde565b828114610dc65760405162461bcd60e51b815260206004820152600f60248201526e0d8cadccee8d040dad2e6dac2e8c6d608b1b6044820152606401610bde565b60005b83811015610d2657828282818110610de357610de3614e11565b90506020020135600f6000878785818110610e0057610e00614e11565b9050602002016020810190610e15919061496e565b6001600160a01b031681526020810191909152604001600020557fceaad6533bfb481492fb3e08ef19297f46611b8fa9de5ef4cf8dc23a56ad09ce858583818110610e6257610e62614e11565b9050602002016020810190610e77919061496e565b848484818110610e8957610e89614e11565b604080516001600160a01b0390951685526020918202939093013590840152500160405180910390a180610ebc81614e3d565b915050610dc9565b6000546001600160a01b03163314610f0c5760405162461bcd60e51b815260206004820181905260248201526000805160206151408339815191526044820152606401610bde565b600454610f199042614e58565b60038190556040519081527f68e825132f7d4bc837dea2d64ac9fc19912bf0224b67f9317d8f1a917f5304a1906020015b60405180910390a1565b6000546001600160a01b03163314610f9c5760405162461bcd60e51b815260206004820181905260248201526000805160206151408339815191526044820152606401610bde565b610fa581612bf5565b50565b3360009081526009602052604090205460ff166110005760405162461bcd60e51b815260206004820152601660248201527521b0b63632b91034b9903737ba1033b7bb32b93737b960511b6044820152606401610bde565b60108190556040518181527fc0a39f234199b125fb93713c4d067bdcebbf691087f87b79c0feb92b156ba8b6906020015b60405180910390a150565b6002600654141561108f5760405162461bcd60e51b815260206004820152601f60248201527f5265656e7472616e637947756172643a207265656e7472616e742063616c6c006044820152606401610bde565b600260065560075460ff16156110da5760405162461bcd60e51b815260206004820152601060248201526f14185d5cd8589b194e881c185d5cd95960821b6044820152606401610bde565b83341461111b5760405162461bcd60e51b815260206004820152600f60248201526e082dadeeadce840dad2e6dac2e8c6d608b1b6044820152606401610bde565b6014546001600160a01b03166111735760405162461bcd60e51b815260206004820152601360248201527f4e61746976652077726170206e6f7420736574000000000000000000000000006044820152606401610bde565b6014546000906111919087906001600160a01b031687878787612cb2565b9050601460009054906101000a90046001600160a01b03166001600160a01b031663d0e30db0866040518263ffffffff1660e01b81526004016000604051808303818588803b1580156111e357600080fd5b505af11580156111f7573d6000803e3d6000fd5b5050601454604080518681523360208201526001600160a01b03808d1692820192909252911660608201526080810189905267ffffffffffffffff80891660a0830152871660c082015263ffffffff861660e08201527f89d8051e597ab4178a863a5190407b98abfeff406aa8db90c59af76612e58f01935061010001915061127d9050565b60405180910390a15050600160065550505050565b3360009081526008602052604090205460ff166112f15760405162461bcd60e51b815260206004820152601460248201527f43616c6c6572206973206e6f74207061757365720000000000000000000000006044820152606401610bde565b6112f9612eeb565b565b3360009081526009602052604090205460ff166113535760405162461bcd60e51b815260206004820152601660248201527521b0b63632b91034b9903737ba1033b7bb32b93737b960511b6044820152606401610bde565b8281146113945760405162461bcd60e51b815260206004820152600f60248201526e0d8cadccee8d040dad2e6dac2e8c6d608b1b6044820152606401610bde565b60005b83811015610d26578282828181106113b1576113b1614e11565b90506020020135600c60008787858181106113ce576113ce614e11565b90506020020160208101906113e3919061496e565b6001600160a01b031681526020810191909152604001600020557f608e49c22994f20b5d3496dca088b88dfd81b4a3e8cc3809ea1e10a320107e8985858381811061143057611430614e11565b9050602002016020810190611445919061496e565b84848481811061145757611457614e11565b604080516001600160a01b0390951685526020918202939093013590840152500160405180910390a18061148a81614e3d565b915050611397565b3360009081526009602052604090205460ff166114ea5760405162461bcd60e51b815260206004820152601660248201527521b0b63632b91034b9903737ba1033b7bb32b93737b960511b6044820152606401610bde565b6018805463ffffffff191663ffffffff92909216919091179055565b3360009081526009602052604090205460ff1661155e5760405162461bcd60e51b815260206004820152601660248201527521b0b63632b91034b9903737ba1033b7bb32b93737b960511b6044820152606401610bde565b600a8190556040518181527f2664fec2ff76486ac58ed087310855b648b15b9d19f3de8529e95f7c46b7d6b390602001611031565b600260065414156115e65760405162461bcd60e51b815260206004820152601f60248201527f5265656e7472616e637947756172643a207265656e7472616e742063616c6c006044820152606401610bde565b600260065560075460ff16156116315760405162461bcd60e51b815260206004820152601060248201526f14185d5cd8589b194e881c185d5cd95960821b6044820152606401610bde565b6001600160a01b038216600090815260126020526040902054811161168b5760405162461bcd60e51b815260206004820152601060248201526f185b5bdd5b9d081d1bdbc81cdb585b1b60821b6044820152606401610bde565b60118054600191906000906116ab90849067ffffffffffffffff16614e70565b92506101000a81548167ffffffffffffffff021916908367ffffffffffffffff1602179055506116f1333083856001600160a01b0316612f82909392919063ffffffff16565b6011546040805167ffffffffffffffff90921682523360208301526001600160a01b0384168282015260608201839052517fd5d28426c3248963b1719df49aa4c665120372e02c8249bbea03d019c39ce7649181900360800190a150506001600655565b60008484848460405160200161176e9493929190614f08565b60405160208183030381529060405280519060200120905080600154146117d75760405162461bcd60e51b815260206004820152601860248201527f4d69736d617463682063757272656e74207369676e65727300000000000000006044820152606401610bde565b87516020808a0191909120604080517f19457468657265756d205369676e6564204d6573736167653a0a33320000000081850152603c8082019390935281518082039093018352605c01905280519101206118379088888888888861301a565b5050505050505050565b6000546001600160a01b031633146118895760405162461bcd60e51b815260206004820181905260248201526000805160206151408339815191526044820152606401610bde565b610fa581613350565b6112f933613350565b600260065414156118ee5760405162461bcd60e51b815260206004820152601f60248201527f5265656e7472616e637947756172643a207265656e7472616e742063616c6c006044820152606401610bde565b600260065560075460ff16156119395760405162461bcd60e51b815260206004820152601060248201526f14185d5cd8589b194e881c185d5cd95960821b6044820152606401610bde565b80341461197a5760405162461bcd60e51b815260206004820152600f60248201526e082dadeeadce840dad2e6dac2e8c6d608b1b6044820152606401610bde565b6014546001600160a01b03166119d25760405162461bcd60e51b815260206004820152601360248201527f4e61746976652077726170206e6f7420736574000000000000000000000000006044820152606401610bde565b6014546001600160a01b03166000908152601260205260409020548111611a2e5760405162461bcd60e51b815260206004820152601060248201526f185b5bdd5b9d081d1bdbc81cdb585b1b60821b6044820152606401610bde565b6011805460019190600090611a4e90849067ffffffffffffffff16614e70565b92506101000a81548167ffffffffffffffff021916908367ffffffffffffffff160217905550601460009054906101000a90046001600160a01b03166001600160a01b031663d0e30db0826040518263ffffffff1660e01b81526004016000604051808303818588803b158015611ac457600080fd5b505af1158015611ad8573d6000803e3d6000fd5b50506011546014546040805167ffffffffffffffff90931683523360208401526001600160a01b0390911690820152606081018590527fd5d28426c3248963b1719df49aa4c665120372e02c8249bbea03d019c39ce76493506080019150611b3d9050565b60405180910390a1506001600655565b6000546001600160a01b03163314611b955760405162461bcd60e51b815260206004820181905260248201526000805160206151408339815191526044820152606401610bde565b6112f96000613409565b6000546001600160a01b03163314611be75760405162461bcd60e51b815260206004820181905260248201526000805160206151408339815191526044820152606401610bde565b610fa581613459565b3360009081526008602052604090205460ff16611c4f5760405162461bcd60e51b815260206004820152601460248201527f43616c6c6572206973206e6f74207061757365720000000000000000000000006044820152606401610bde565b6112f9613516565b3360009081526009602052604090205460ff16611caf5760405162461bcd60e51b815260206004820152601660248201527521b0b63632b91034b9903737ba1033b7bb32b93737b960511b6044820152606401610bde565b828114611cf05760405162461bcd60e51b815260206004820152600f60248201526e0d8cadccee8d040dad2e6dac2e8c6d608b1b6044820152606401610bde565b60005b83811015610d2657828282818110611d0d57611d0d614e11565b9050602002013560176000878785818110611d2a57611d2a614e11565b9050602002016020810190611d3f919061496e565b6001600160a01b031681526020810191909152604001600020557f4f12d1a5bfb3ccd3719255d4d299d808d50cdca9a0a5c2b3a5aaa7edde73052c858583818110611d8c57611d8c614e11565b9050602002016020810190611da1919061496e565b848484818110611db357611db3614e11565b604080516001600160a01b0390951685526020918202939093013590840152500160405180910390a180611de681614e3d565b915050611cf3565b60075460ff1615611e345760405162461bcd60e51b815260206004820152601060248201526f14185d5cd8589b194e881c185d5cd95960821b6044820152606401610bde565b6000611e3f82613591565b9050611e58816000015182602001518360400151613756565b5050565b6000546001600160a01b03163314611ea45760405162461bcd60e51b815260206004820181905260248201526000805160206151408339815191526044820152606401610bde565b601480546001600160a01b0319166001600160a01b0392909216919091179055565b60075460ff1615611f0c5760405162461bcd60e51b815260206004820152601060248201526f14185d5cd8589b194e881c185d5cd95960821b6044820152606401610bde565b600060055430604051602001611f6492919091825260601b6bffffffffffffffffffffffff191660208201527f57697468647261774d73670000000000000000000000000000000000000000006034820152603f0190565b604051602081830303815290604052805190602001209050611fae818a8a604051602001611f9493929190614f29565b604051602081830303815290604052888888888888611755565b6000611fef8a8a8080601f01602080910402602001604051908101604052809392919081815260200183838082843760009201919091525061388b92505050565b905060008160000151826020015183604001518460600151856080015160405160200161206895949392919060c095861b6001600160c01b031990811682529490951b9093166008850152606091821b6bffffffffffffffffffffffff199081166010860152911b166024830152603882015260580190565b60408051601f1981840301815291815281516020928301206000818152601390935291205490915060ff16156120e05760405162461bcd60e51b815260206004820152601a60248201527f776974686472617720616c7265616479207375636365656465640000000000006044820152606401610bde565b6000818152601360205260409020805460ff191660011790556060820151608083015161210d91906139eb565b60608201516001600160a01b03166000908152600f6020526040902054801580159061213c5750808360800151115b1561215e5761215982846040015185606001518660800151613b03565b612175565b612175836040015184606001518560800151613756565b7f48a1ab26f3aa7b62bb6b6e8eed182f292b84eb7b006c0254386b268af20774be8284602001518560400151866060015187608001518860a001516040516121f99695949392919095865267ffffffffffffffff9490941660208601526001600160a01b03928316604086015291166060840152608083015260a082015260c00190565b60405180910390a1505050505050505050505050565b600260065414156122625760405162461bcd60e51b815260206004820152601f60248201527f5265656e7472616e637947756172643a207265656e7472616e742063616c6c006044820152606401610bde565b600260065560075460ff16156122ad5760405162461bcd60e51b815260206004820152601060248201526f14185d5cd8589b194e881c185d5cd95960821b6044820152606401610bde565b60006122bd878787878787612cb2565b90506122d46001600160a01b038716333088612f82565b604080518281523360208201526001600160a01b0389811682840152881660608201526080810187905267ffffffffffffffff86811660a0830152851660c082015263ffffffff841660e082015290517f89d8051e597ab4178a863a5190407b98abfeff406aa8db90c59af76612e58f01918190036101000190a1505060016006555050505050565b6000546001600160a01b031633146123a55760405162461bcd60e51b815260206004820181905260248201526000805160206151408339815191526044820152606401610bde565b60035442116123f65760405162461bcd60e51b815260206004820152601460248201527f6e6f742072656163682072657365742074696d650000000000000000000000006044820152606401610bde565b60001960035561240884848484613c16565b50505050565b6002548b1161245f5760405162461bcd60e51b815260206004820152601e60248201527f547269676765722074696d65206973206e6f7420696e6372656173696e6700006044820152606401610bde565b61246b42610e10614e58565b8b106124b95760405162461bcd60e51b815260206004820152601960248201527f547269676765722074696d6520697320746f6f206c61726765000000000000006044820152606401610bde565b60006005543060405160200161251192919091825260601b6bffffffffffffffffffffffff191660208201527f5570646174655369676e65727300000000000000000000000000000000000000603482015260410190565b604051602081830303815290604052805190602001209050612547818d8d8d8d8d604051602001611f9496959493929190614f43565b6125538b8b8b8b613c16565b5050506002989098555050505050505050565b60075460ff16156125ac5760405162461bcd60e51b815260206004820152601060248201526f14185d5cd8589b194e881c185d5cd95960821b6044820152606401610bde565b60006005543060405160200161260492919091825260601b6bffffffffffffffffffffffff191660208201527f52656c6179000000000000000000000000000000000000000000000000000000603482015260390190565b604051602081830303815290604052805190602001209050612634818a8a604051602001611f9493929190614f29565b60006126758a8a8080601f016020809104026020016040519081016040528093929190818152602001838380828437600092019190915250613dc092505050565b8051602080830151604080850151606080870151608088015160a089015160c0808b015187519a861b6bffffffffffffffffffffffff199081168c8c015298861b891660348c01529590941b9096166048890152605c880191909152811b6001600160c01b0319908116607c88015293901b9092166084850152608c808501929092528051808503909201825260ac909301835280519082012060008181526015909252919020549192509060ff16156127635760405162461bcd60e51b815260206004820152600f60248201526e7472616e736665722065786973747360881b6044820152606401610bde565b60008181526015602052604090819020805460ff19166001179055820151606083015161279091906139eb565b6040808301516001600160a01b03166000908152600f602052205480158015906127bd5750808360600151115b156127df576127da82846020015185604001518660600151613b03565b6127f6565b6127f6836020015184604001518560600151613756565b7f79fa08de5149d912dce8e5e8da7a7c17ccdf23dd5d3bfe196802e6eb86347c7c82846000015185602001518660400151876060015188608001518960c001516040516121f997969594939291909687526001600160a01b0395861660208801529385166040870152919093166060850152608084019290925267ffffffffffffffff9190911660a083015260c082015260e00190565b6112f933613f38565b3360009081526009602052604090205460ff166128ee5760405162461bcd60e51b815260206004820152601660248201527521b0b63632b91034b9903737ba1033b7bb32b93737b960511b6044820152606401610bde565b82811461292f5760405162461bcd60e51b815260206004820152600f60248201526e0d8cadccee8d040dad2e6dac2e8c6d608b1b6044820152606401610bde565b60005b83811015610d265782828281811061294c5761294c614e11565b905060200201356012600087878581811061296957612969614e11565b905060200201602081019061297e919061496e565b6001600160a01b031681526020810191909152604001600020557fc56b0d14c4940515800d94ebbd0f3f5d8cc58ba1109c12536bd993b72e466e4f8585838181106129cb576129cb614e11565b90506020020160208101906129e0919061496e565b8484848181106129f2576129f2614e11565b604080516001600160a01b0390951685526020918202939093013590840152500160405180910390a180612a2581614e3d565b915050612932565b6000546001600160a01b03163314612a755760405162461bcd60e51b815260206004820181905260248201526000805160206151408339815191526044820152606401610bde565b610fa581613f38565b6000546001600160a01b03163314612ac65760405162461bcd60e51b815260206004820181905260248201526000805160206151408339815191526044820152606401610bde565b6004548111612b235760405162461bcd60e51b815260206004820152602360248201527f6e6f7469636520706572696f642063616e206f6e6c7920626520696e637265616044820152621cd95960ea1b6064820152608401610bde565b600455565b6000546001600160a01b03163314612b705760405162461bcd60e51b815260206004820181905260248201526000805160206151408339815191526044820152606401610bde565b6001600160a01b038116612bec5760405162461bcd60e51b815260206004820152602660248201527f4f776e61626c653a206e6577206f776e657220697320746865207a65726f206160448201527f64647265737300000000000000000000000000000000000000000000000000006064820152608401610bde565b610fa581613409565b6001600160a01b03811660009081526009602052604090205460ff1615612c5e5760405162461bcd60e51b815260206004820152601b60248201527f4163636f756e7420697320616c726561647920676f7665726e6f7200000000006044820152606401610bde565b6001600160a01b038116600081815260096020908152604091829020805460ff1916600117905590519182527fdc5a48d79e2e147530ff63ecdbed5a5a66adb9d5cf339384d5d076da197c40b59101611031565b6001600160a01b0385166000908152601660205260408120548511612d0c5760405162461bcd60e51b815260206004820152601060248201526f185b5bdd5b9d081d1bdbc81cdb585b1b60821b6044820152606401610bde565b6001600160a01b0386166000908152601760205260409020541580612d4957506001600160a01b0386166000908152601760205260409020548511155b612d955760405162461bcd60e51b815260206004820152601060248201527f616d6f756e7420746f6f206c61726765000000000000000000000000000000006044820152606401610bde565b60185463ffffffff90811690831611612df05760405162461bcd60e51b815260206004820152601660248201527f6d617820736c69707061676520746f6f20736d616c6c000000000000000000006044820152606401610bde565b6005546040516bffffffffffffffffffffffff1933606090811b821660208401528a811b8216603484015289901b166048820152605c81018790526001600160c01b031960c087811b8216607c84015286811b821660848401529290921b909116608c82015260009060940160408051601f1981840301815291815281516020928301206000818152601590935291205490915060ff1615612ec65760405162461bcd60e51b815260206004820152600f60248201526e7472616e736665722065786973747360881b6044820152606401610bde565b6000818152601560205260409020805460ff1916600117905590509695505050505050565b60075460ff16612f3d5760405162461bcd60e51b815260206004820152601460248201527f5061757361626c653a206e6f74207061757365640000000000000000000000006044820152606401610bde565b6007805460ff191690557f5db9ee0a495bf2e6ff9c91a7834c1ba4fdd244a5e8aa4e537bd38aeae4b073aa335b6040516001600160a01b039091168152602001610f4a565b6040516001600160a01b03808516602483015283166044820152606481018290526124089085906323b872dd60e01b906084015b60408051601f198184030181529190526020810180517bffffffffffffffffffffffffffffffffffffffffffffffffffffffff167fffffffff0000000000000000000000000000000000000000000000000000000090931692909217909152613ff1565b8281146130755760405162461bcd60e51b815260206004820152602360248201527f7369676e65727320616e6420706f77657273206c656e677468206e6f74206d616044820152620e8c6d60eb1b6064820152608401610bde565b6000805b848110156130b95783838281811061309357613093614e11565b90506020020135826130a59190614e58565b9150806130b181614e3d565b915050613079565b50600060036130c9836002614f6b565b6130d39190614f8a565b6130de906001614e58565b905060008080805b8a8110156132fe5760006131698d8d8481811061310557613105614e11565b90506020028101906131179190614fac565b8080601f016020809104026020016040519081016040528093929190818152602001838380828437600081840152601f19601f820116905080830192505050505050508f6140d690919063ffffffff16565b9050836001600160a01b0316816001600160a01b0316116131cc5760405162461bcd60e51b815260206004820152601e60248201527f7369676e657273206e6f7420696e20617363656e64696e67206f7264657200006044820152606401610bde565b8093505b8a8a848181106131e2576131e2614e11565b90506020020160208101906131f7919061496e565b6001600160a01b0316816001600160a01b031611156132715761321b600184614e58565b925089831061326c5760405162461bcd60e51b815260206004820152601060248201527f7369676e6572206e6f7420666f756e64000000000000000000000000000000006044820152606401610bde565b6131d0565b8a8a8481811061328357613283614e11565b9050602002016020810190613298919061496e565b6001600160a01b0316816001600160a01b031614156132d8578888848181106132c3576132c3614e11565b90506020020135856132d59190614e58565b94505b8585106132eb5750505050505050613347565b50806132f681614e3d565b9150506130e6565b5060405162461bcd60e51b815260206004820152601260248201527f71756f72756d206e6f74207265616368656400000000000000000000000000006044820152606401610bde565b50505050505050565b6001600160a01b03811660009081526008602052604090205460ff166133b85760405162461bcd60e51b815260206004820152601560248201527f4163636f756e74206973206e6f742070617573657200000000000000000000006044820152606401610bde565b6001600160a01b038116600081815260086020908152604091829020805460ff1916905590519182527fcd265ebaf09df2871cc7bd4133404a235ba12eff2041bb89d9c714a2621c7c7e9101611031565b600080546001600160a01b038381166001600160a01b0319831681178455604051919092169283917f8be0079c531659141344cd1fd0a4f28419497f9722a3daafe3b4186f6b6457e09190a35050565b6001600160a01b03811660009081526008602052604090205460ff16156134c25760405162461bcd60e51b815260206004820152601960248201527f4163636f756e7420697320616c726561647920706175736572000000000000006044820152606401610bde565b6001600160a01b038116600081815260086020908152604091829020805460ff1916600117905590519182527f6719d08c1888103bea251a4ed56406bd0c3e69723c8a1686e017e7bbe159b6f89101611031565b60075460ff161561355c5760405162461bcd60e51b815260206004820152601060248201526f14185d5cd8589b194e881c185d5cd95960821b6044820152606401610bde565b6007805460ff191660011790557f62e78cea01bee320cd4e420270b5ea74000d11b0c9f74754ebdbfc544b05a258612f6a3390565b6040805160808101825260008082526020820181905291810182905260608101919091526000828152600e6020908152604091829020825160808101845281546001600160a01b03908116825260018301541692810192909252600281015492820192909252600390910154606082018190526136505760405162461bcd60e51b815260206004820152601a60248201527f64656c61796564207472616e73666572206e6f742065786973740000000000006044820152606401610bde565b60105481606001516136629190614e58565b42116136b05760405162461bcd60e51b815260206004820152601d60248201527f64656c61796564207472616e73666572207374696c6c206c6f636b65640000006044820152606401610bde565b6000838152600e6020908152604080832080546001600160a01b03199081168255600182018054909116905560028101849055600301929092558251908301518383015192517f3b40e5089937425d14cdd96947e5661868357e224af59bd8b24a4b8a330d44269361374893889390929091909384526001600160a01b03928316602085015291166040830152606082015260800190565b60405180910390a192915050565b6014546001600160a01b038381169116141561387257601454604051632e1a7d4d60e01b8152600481018390526001600160a01b0390911690632e1a7d4d90602401600060405180830381600087803b1580156137b257600080fd5b505af11580156137c6573d6000803e3d6000fd5b505050506000836001600160a01b03168261c35090604051600060405180830381858888f193505050503d806000811461381c576040519150601f19603f3d011682016040523d82523d6000602084013e613821565b606091505b50509050806124085760405162461bcd60e51b815260206004820152601b60248201527f6661696c656420746f2073656e64206e617469766520746f6b656e00000000006044820152606401610bde565b6138866001600160a01b03831684836140fa565b505050565b6040805160c08101825260008082526020808301829052828401829052606083018290526080830182905260a0830182905283518085019094528184528301849052909190805b602083015151835110156139e3576138e98361412a565b909250905081600114156139115761390083614164565b67ffffffffffffffff1684526138d2565b81600214156139375761392383614164565b67ffffffffffffffff1660208501526138d2565b81600314156139645761395161394c846141e6565b6142a3565b6001600160a01b031660408501526138d2565b816004141561398c5761397961394c846141e6565b6001600160a01b031660608501526138d2565b81600514156139b0576139a66139a1846141e6565b6142b4565b60808501526138d2565b81600614156139d4576139ca6139c5846141e6565b6142eb565b60a08501526138d2565b6139de8382614303565b6138d2565b505050919050565b600a546139f6575050565b6001600160a01b0382166000908152600c602052604090205480613a1957505050565b6001600160a01b0383166000908152600b6020526040812054600a5490914291613a438184614f8a565b613a4d9190614f6b565b6001600160a01b0387166000908152600d6020526040902054909150811115613a7857849250613a85565b613a828584614e58565b92505b83831115613ad55760405162461bcd60e51b815260206004820152601260248201527f766f6c756d6520657863656564732063617000000000000000000000000000006044820152606401610bde565b506001600160a01b039094166000908152600b6020908152604080832093909355600d905220929092555050565b6000848152600e602052604090206003015415613b625760405162461bcd60e51b815260206004820152601f60248201527f64656c61796564207472616e7366657220616c726561647920657869737473006044820152606401610bde565b604080516080810182526001600160a01b0380861682528481166020808401918252838501868152426060860190815260008b8152600e90935291869020945185549085166001600160a01b031991821617865592516001860180549190951693169290921790925551600283015551600390910155517fcbcfffe5102114216a85d3aceb14ad4b81a3935b1b5c468fadf3889eb9c5dce690613c089086815260200190565b60405180910390a150505050565b828114613c715760405162461bcd60e51b815260206004820152602360248201527f7369676e65727320616e6420706f77657273206c656e677468206e6f74206d616044820152620e8c6d60eb1b6064820152608401610bde565b6000805b84811015613d4a57816001600160a01b0316868683818110613c9957613c99614e11565b9050602002016020810190613cae919061496e565b6001600160a01b031611613d0f5760405162461bcd60e51b815260206004820152602260248201527f4e6577207369676e657273206e6f7420696e20617363656e64696e67206f726460448201526132b960f11b6064820152608401610bde565b858582818110613d2157613d21614e11565b9050602002016020810190613d36919061496e565b915080613d4281614e3d565b915050613c75565b5084848484604051602001613d629493929190614f08565b60408051601f198184030181529082905280516020909101206001557ff126123539a68393c55697f617e7d1148e371988daed246c2f41da99965a23f890613db1908790879087908790614ff3565b60405180910390a15050505050565b6040805160e08101825260008082526020808301829052828401829052606083018290526080830182905260a0830182905260c0830182905283518085019094528184528301849052909190805b602083015151835110156139e357613e258361412a565b90925090508160011415613e4f57613e3f61394c846141e6565b6001600160a01b03168452613e0e565b8160021415613e7757613e6461394c846141e6565b6001600160a01b03166020850152613e0e565b8160031415613e9f57613e8c61394c846141e6565b6001600160a01b03166040850152613e0e565b8160041415613ebe57613eb46139a1846141e6565b6060850152613e0e565b8160051415613ee457613ed083614164565b67ffffffffffffffff166080850152613e0e565b8160061415613f0a57613ef683614164565b67ffffffffffffffff1660a0850152613e0e565b8160071415613f2957613f1f6139c5846141e6565b60c0850152613e0e565b613f338382614303565b613e0e565b6001600160a01b03811660009081526009602052604090205460ff16613fa05760405162461bcd60e51b815260206004820152601760248201527f4163636f756e74206973206e6f7420676f7665726e6f720000000000000000006044820152606401610bde565b6001600160a01b038116600081815260096020908152604091829020805460ff1916905590519182527f1ebe834e73d60a5fec822c1e1727d34bc79f2ad977ed504581cc1822fe20fb5b9101611031565b6000614046826040518060400160405280602081526020017f5361666545524332303a206c6f772d6c6576656c2063616c6c206661696c6564815250856001600160a01b03166143759092919063ffffffff16565b80519091501561388657808060200190518101906140649190615075565b6138865760405162461bcd60e51b815260206004820152602a60248201527f5361666545524332303a204552433230206f7065726174696f6e20646964206e60448201527f6f742073756363656564000000000000000000000000000000000000000000006064820152608401610bde565b60008060006140e5858561438e565b915091506140f2816143fe565b509392505050565b6040516001600160a01b03831660248201526044810182905261388690849063a9059cbb60e01b90606401612fb6565b600080600061413884614164565b9050614145600882614f8a565b925080600716600581111561415c5761415c615097565b915050915091565b602080820151825181019091015160009182805b600a8110156141e05783811a9150614191816007614f6b565b82607f16901b8517945081608016600014156141ce576141b2816001614e58565b865187906141c1908390614e58565b9052509395945050505050565b806141d881614e3d565b915050614178565b50600080fd5b606060006141f383614164565b905060008184600001516142079190614e58565b905083602001515181111561421b57600080fd5b8167ffffffffffffffff81111561423457614234614a71565b6040519080825280601f01601f19166020018201604052801561425e576020820181803683370190505b50602080860151865192955091818601919083010160005b85811015614298578181015183820152614291602082614e58565b9050614276565b505050935250919050565b60006142ae826145b9565b92915050565b60006020825111156142c557600080fd5b60208201519050815160206142da91906150ad565b6142e5906008614f6b565b1c919050565b600081516020146142fb57600080fd5b506020015190565b600081600581111561431757614317615097565b14156143265761388682614164565b600281600581111561433a5761433a615097565b141561038157600061434b83614164565b9050808360000181815161435f9190614e58565b9052506020830151518351111561388657600080fd5b606061438484846000856145e1565b90505b9392505050565b6000808251604114156143c55760208301516040840151606085015160001a6143b987828585614729565b945094505050506143f7565b8251604014156143ef57602083015160408401516143e4868383614816565b9350935050506143f7565b506000905060025b9250929050565b600081600481111561441257614412615097565b141561441b5750565b600181600481111561442f5761442f615097565b141561447d5760405162461bcd60e51b815260206004820152601860248201527f45434453413a20696e76616c6964207369676e617475726500000000000000006044820152606401610bde565b600281600481111561449157614491615097565b14156144df5760405162461bcd60e51b815260206004820152601f60248201527f45434453413a20696e76616c6964207369676e6174757265206c656e677468006044820152606401610bde565b60038160048111156144f3576144f3615097565b141561454c5760405162461bcd60e51b815260206004820152602260248201527f45434453413a20696e76616c6964207369676e6174757265202773272076616c604482015261756560f01b6064820152608401610bde565b600481600481111561456057614560615097565b1415610fa55760405162461bcd60e51b815260206004820152602260248201527f45434453413a20696e76616c6964207369676e6174757265202776272076616c604482015261756560f01b6064820152608401610bde565b600081516014146145c957600080fd5b50602001516c01000000000000000000000000900490565b6060824710156146595760405162461bcd60e51b815260206004820152602660248201527f416464726573733a20696e73756666696369656e742062616c616e636520666f60448201527f722063616c6c00000000000000000000000000000000000000000000000000006064820152608401610bde565b6001600160a01b0385163b6146b05760405162461bcd60e51b815260206004820152601d60248201527f416464726573733a2063616c6c20746f206e6f6e2d636f6e74726163740000006044820152606401610bde565b600080866001600160a01b031685876040516146cc91906150f0565b60006040518083038185875af1925050503d8060008114614709576040519150601f19603f3d011682016040523d82523d6000602084013e61470e565b606091505b509150915061471e828286614868565b979650505050505050565b6000807f7fffffffffffffffffffffffffffffff5d576e7357a4501ddfe92f46681b20a0831115614760575060009050600361480d565b8460ff16601b1415801561477857508460ff16601c14155b15614789575060009050600461480d565b6040805160008082526020820180845289905260ff881692820192909252606081018690526080810185905260019060a0016020604051602081039080840390855afa1580156147dd573d6000803e3d6000fd5b5050604051601f1901519150506001600160a01b0381166148065760006001925092505061480d565b9150600090505b94509492505050565b6000807f7fffffffffffffffffffffffffffffffffffffffffffffffffffffffffffffff83168161484c60ff86901c601b614e58565b905061485a87828885614729565b935093505050935093915050565b60608315614877575081614387565b8251156148875782518084602001fd5b8160405162461bcd60e51b8152600401610bde919061510c565b60008083601f8401126148b357600080fd5b50813567ffffffffffffffff8111156148cb57600080fd5b6020830191508360208260051b85010111156143f757600080fd5b600080600080604085870312156148fc57600080fd5b843567ffffffffffffffff8082111561491457600080fd5b614920888389016148a1565b9096509450602087013591508082111561493957600080fd5b50614946878288016148a1565b95989497509550505050565b80356001600160a01b038116811461496957600080fd5b919050565b60006020828403121561498057600080fd5b61438782614952565b60006020828403121561499b57600080fd5b5035919050565b803567ffffffffffffffff8116811461496957600080fd5b803563ffffffff8116811461496957600080fd5b600080600080600060a086880312156149e657600080fd5b6149ef86614952565b945060208601359350614a04604087016149a2565b9250614a12606087016149a2565b9150614a20608087016149ba565b90509295509295909350565b600060208284031215614a3e57600080fd5b614387826149ba565b60008060408385031215614a5a57600080fd5b614a6383614952565b946020939093013593505050565b634e487b7160e01b600052604160045260246000fd5b60008060008060008060006080888a031215614aa257600080fd5b873567ffffffffffffffff80821115614aba57600080fd5b818a0191508a601f830112614ace57600080fd5b813581811115614ae057614ae0614a71565b604051601f8201601f19908116603f01168101908382118183101715614b0857614b08614a71565b816040528281528d6020848701011115614b2157600080fd5b82602086016020830137600094508460208483010152809b5050505060208a013581811115614b4e578283fd5b614b5a8c828d016148a1565b90995097505060408a013581811115614b71578283fd5b614b7d8c828d016148a1565b90975095505060608a013581811115614b94578283fd5b614ba08c828d016148a1565b9a9d999c50979a509598949794955050505050565b6000806000806000806000806080898b031215614bd157600080fd5b883567ffffffffffffffff80821115614be957600080fd5b818b0191508b601f830112614bfd57600080fd5b813581811115614c0c57600080fd5b8c6020828501011115614c1e57600080fd5b60209283019a509850908a01359080821115614c3957600080fd5b614c458c838d016148a1565b909850965060408b0135915080821115614c5e57600080fd5b614c6a8c838d016148a1565b909650945060608b0135915080821115614c8357600080fd5b50614c908b828c016148a1565b999c989b5096995094979396929594505050565b60008060008060008060c08789031215614cbd57600080fd5b614cc687614952565b9550614cd460208801614952565b945060408701359350614ce9606088016149a2565b9250614cf7608088016149a2565b9150614d0560a088016149ba565b90509295509295509295565b600080600080600080600080600080600060c08c8e031215614d3257600080fd5b8b359a5067ffffffffffffffff8060208e01351115614d5057600080fd5b614d608e60208f01358f016148a1565b909b50995060408d0135811015614d7657600080fd5b614d868e60408f01358f016148a1565b909950975060608d0135811015614d9c57600080fd5b614dac8e60608f01358f016148a1565b909750955060808d0135811015614dc257600080fd5b614dd28e60808f01358f016148a1565b909550935060a08d0135811015614de857600080fd5b50614df98d60a08e01358e016148a1565b81935080925050509295989b509295989b9093969950565b634e487b7160e01b600052603260045260246000fd5b634e487b7160e01b600052601160045260246000fd5b6000600019821415614e5157614e51614e27565b5060010190565b60008219821115614e6b57614e6b614e27565b500190565b600067ffffffffffffffff808316818516808303821115614e9357614e93614e27565b01949350505050565b60008160005b84811015614ed1576001600160a01b03614ebb83614952565b1686526020958601959190910190600101614ea2565b5093949350505050565b60006001600160fb1b03831115614ef157600080fd5b8260051b8083863760009401938452509192915050565b6000614f1f614f18838789614e9c565b8486614edb565b9695505050505050565b838152818360208301376000910160200190815292915050565b8681528560208201526000614f5f614f18604084018789614e9c565b98975050505050505050565b6000816000190483118215151615614f8557614f85614e27565b500290565b600082614fa757634e487b7160e01b600052601260045260246000fd5b500490565b6000808335601e19843603018112614fc357600080fd5b83018035915067ffffffffffffffff821115614fde57600080fd5b6020019150368190038213156143f757600080fd5b6040808252810184905260008560608301825b87811015615034576001600160a01b0361501f84614952565b16825260209283019290910190600101615006565b5083810360208501528481526001600160fb1b0385111561505457600080fd5b8460051b915081866020830137600091016020019081529695505050505050565b60006020828403121561508757600080fd5b8151801515811461438757600080fd5b634e487b7160e01b600052602160045260246000fd5b6000828210156150bf576150bf614e27565b500390565b60005b838110156150df5781810151838201526020016150c7565b838111156124085750506000910152565b600082516151028184602087016150c4565b9190910192915050565b602081526000825180602084015261512b8160408501602087016150c4565b601f01601f1916919091016040019291505056fe4f776e61626c653a2063616c6c6572206973206e6f7420746865206f776e6572a26469706673582212203ad92d6dc1417b8dc48c5f9c08f360ef1fa6f417bbcddabb400ff3fcb1ce341c64736f6c63430008090033",
  "devdoc": {
    "kind": "dev",
    "methods": {
      "addLiquidity(address,uint256)": {
        "params": {
          "_amount": "The amount to add.",
          "_token": "The address of the token."
        }
      },
      "addNativeLiquidity(uint256)": {
        "params": {
          "_amount": "The amount to add."
        }
      },
      "owner()": {
        "details": "Returns the address of the current owner."
      },
      "paused()": {
        "details": "Returns true if the contract is paused, and false otherwise."
      },
      "relay(bytes,bytes[],address[],uint256[])": {
        "params": {
          "_powers": "The signing powers of the signers.",
          "_relayRequest": "The serialized Relay protobuf.",
          "_signers": "The sorted list of signers.",
          "_sigs": "The list of signatures sorted by signing addresses in ascending order. A relay must be signed-off by +2/3 of the bridge's current signing power to be delivered."
        }
      },
      "renounceOwnership()": {
        "details": "Leaves the contract without owner. It will not be possible to call `onlyOwner` functions anymore. Can only be called by the current owner. NOTE: Renouncing ownership will leave the contract without an owner, thereby removing any functionality that is only available to the owner."
      },
      "send(address,address,uint256,uint64,uint64,uint32)": {
        "params": {
          "_amount": "The amount of the transfer.",
          "_dstChainId": "The destination chain ID.",
          "_maxSlippage": "The max slippage accepted, given as percentage in point (pip). Eg. 5000 means 0.5%. Must be greater than minimalMaxSlippage. Receiver is guaranteed to receive at least (100% - max slippage percentage) * amount or the transfer can be refunded.",
          "_nonce": "A number input to guarantee uniqueness of transferId. Can be timestamp in practice.",
          "_receiver": "The address of the receiver.",
          "_token": "The address of the token."
        }
      },
      "sendNative(address,uint256,uint64,uint64,uint32)": {
        "params": {
          "_amount": "The amount of the transfer.",
          "_dstChainId": "The destination chain ID.",
          "_maxSlippage": "The max slippage accepted, given as percentage in point (pip). Eg. 5000 means 0.5%. Must be greater than minimalMaxSlippage. Receiver is guaranteed to receive at least (100% - max slippage percentage) * amount or the transfer can be refunded.",
          "_nonce": "A unique number. Can be timestamp in practice.",
          "_receiver": "The address of the receiver."
        }
      },
      "transferOwnership(address)": {
        "details": "Transfers ownership of the contract to a new account (`newOwner`). Can only be called by the current owner."
      },
      "updateSigners(uint256,address[],uint256[],bytes[],address[],uint256[])": {
        "params": {
          "_curPowers": "powers of current signers",
          "_curSigners": "sorted list of current signers",
          "_newSigners": "sorted list of new signers",
          "_sigs": "list of signatures sorted by signer addresses in ascending order"
        }
      },
      "verifySigs(bytes,bytes[],address[],uint256[])": {
        "params": {
          "_msg": "signed message",
          "_powers": "powers of current signers",
          "_signers": "sorted list of current signers",
          "_sigs": "list of signatures sorted by signer addresses in ascending order"
        }
      },
      "withdraw(bytes,bytes[],address[],uint256[])": {
        "params": {
          "_powers": "The signing powers of the signers.",
          "_signers": "The sorted list of signers.",
          "_sigs": "The list of signatures sorted by signing addresses in ascending order. A withdrawal must be signed-off by +2/3 of the bridge's current signing power to be delivered.",
          "_wdmsg": "The serialized Withdraw protobuf."
        }
      }
    },
    "title": "The liquidity-pool based bridge.",
    "version": 1
  },
  "userdoc": {
    "kind": "user",
    "methods": {
      "addLiquidity(address,uint256)": {
        "notice": "Add liquidity to the pool-based bridge. NOTE: This function DOES NOT SUPPORT fee-on-transfer / rebasing tokens. NOTE: ONLY call this from an EOA. DO NOT call from a contract address."
      },
      "addNativeLiquidity(uint256)": {
        "notice": "Add native token liquidity to the pool-based bridge. NOTE: ONLY call this from an EOA. DO NOT call from a contract address."
      },
      "relay(bytes,bytes[],address[],uint256[])": {
        "notice": "Relay a cross-chain transfer sent from a liquidity pool-based bridge on another chain."
      },
      "resetSigners(address[],uint256[])": {
        "notice": "reset signers, only used for init setup and emergency recovery"
      },
      "send(address,address,uint256,uint64,uint64,uint32)": {
        "notice": "Send a cross-chain transfer via the liquidity pool-based bridge. NOTE: This function DOES NOT SUPPORT fee-on-transfer / rebasing tokens."
      },
      "sendNative(address,uint256,uint64,uint64,uint32)": {
        "notice": "Send a cross-chain transfer via the liquidity pool-based bridge using the native token."
      },
      "updateSigners(uint256,address[],uint256[],bytes[],address[],uint256[])": {
        "notice": "Update new signers."
      },
      "verifySigs(bytes,bytes[],address[],uint256[])": {
        "notice": "Verifies that a message is signed by a quorum among the signers The sigs must be sorted by signer addresses in ascending order."
      },
      "withdraw(bytes,bytes[],address[],uint256[])": {
        "notice": "Withdraw funds from the bridge pool."
      }
    },
    "version": 1
  },
  "storageLayout": {
    "storage": [
      {
        "astId": 7,
        "contract": "contracts/liquidity-bridge/Bridge.sol:Bridge",
        "label": "_owner",
        "offset": 0,
        "slot": "0",
        "type": "t_address"
      },
      {
        "astId": 9067,
        "contract": "contracts/liquidity-bridge/Bridge.sol:Bridge",
        "label": "ssHash",
        "offset": 0,
        "slot": "1",
        "type": "t_bytes32"
      },
      {
        "astId": 9069,
        "contract": "contracts/liquidity-bridge/Bridge.sol:Bridge",
        "label": "triggerTime",
        "offset": 0,
        "slot": "2",
        "type": "t_uint256"
      },
      {
        "astId": 9071,
        "contract": "contracts/liquidity-bridge/Bridge.sol:Bridge",
        "label": "resetTime",
        "offset": 0,
        "slot": "3",
        "type": "t_uint256"
      },
      {
        "astId": 9073,
        "contract": "contracts/liquidity-bridge/Bridge.sol:Bridge",
        "label": "noticePeriod",
        "offset": 0,
        "slot": "4",
        "type": "t_uint256"
      },
      {
        "astId": 9082,
        "contract": "contracts/liquidity-bridge/Bridge.sol:Bridge",
        "label": "chainId",
        "offset": 0,
        "slot": "5",
        "type": "t_uint256"
      },
      {
        "astId": 207,
        "contract": "contracts/liquidity-bridge/Bridge.sol:Bridge",
        "label": "_status",
        "offset": 0,
        "slot": "6",
        "type": "t_uint256"
      },
      {
        "astId": 122,
        "contract": "contracts/liquidity-bridge/Bridge.sol:Bridge",
        "label": "_paused",
        "offset": 0,
        "slot": "7",
        "type": "t_bool"
      },
      {
        "astId": 20054,
        "contract": "contracts/liquidity-bridge/Bridge.sol:Bridge",
        "label": "pausers",
        "offset": 0,
        "slot": "8",
        "type": "t_mapping(t_address,t_bool)"
      },
      {
        "astId": 19813,
        "contract": "contracts/liquidity-bridge/Bridge.sol:Bridge",
        "label": "governors",
        "offset": 0,
        "slot": "9",
        "type": "t_mapping(t_address,t_bool)"
      },
      {
        "astId": 20201,
        "contract": "contracts/liquidity-bridge/Bridge.sol:Bridge",
        "label": "epochLength",
        "offset": 0,
        "slot": "10",
        "type": "t_uint256"
      },
      {
        "astId": 20205,
        "contract": "contracts/liquidity-bridge/Bridge.sol:Bridge",
        "label": "epochVolumes",
        "offset": 0,
        "slot": "11",
        "type": "t_mapping(t_address,t_uint256)"
      },
      {
        "astId": 20209,
        "contract": "contracts/liquidity-bridge/Bridge.sol:Bridge",
        "label": "epochVolumeCaps",
        "offset": 0,
        "slot": "12",
        "type": "t_mapping(t_address,t_uint256)"
      },
      {
        "astId": 20213,
        "contract": "contracts/liquidity-bridge/Bridge.sol:Bridge",
        "label": "lastOpTimestamps",
        "offset": 0,
        "slot": "13",
        "type": "t_mapping(t_address,t_uint256)"
      },
      {
        "astId": 19614,
        "contract": "contracts/liquidity-bridge/Bridge.sol:Bridge",
        "label": "delayedTransfers",
        "offset": 0,
        "slot": "14",
        "type": "t_mapping(t_bytes32,t_struct(delayedTransfer)19609_storage)"
      },
      {
        "astId": 19618,
        "contract": "contracts/liquidity-bridge/Bridge.sol:Bridge",
        "label": "delayThresholds",
        "offset": 0,
        "slot": "15",
        "type": "t_mapping(t_address,t_uint256)"
      },
      {
        "astId": 19620,
        "contract": "contracts/liquidity-bridge/Bridge.sol:Bridge",
        "label": "delayPeriod",
        "offset": 0,
        "slot": "16",
        "type": "t_uint256"
      },
      {
        "astId": 8627,
        "contract": "contracts/liquidity-bridge/Bridge.sol:Bridge",
        "label": "addseq",
        "offset": 0,
        "slot": "17",
        "type": "t_uint64"
      },
      {
        "astId": 8631,
        "contract": "contracts/liquidity-bridge/Bridge.sol:Bridge",
        "label": "minAdd",
        "offset": 0,
        "slot": "18",
        "type": "t_mapping(t_address,t_uint256)"
      },
      {
        "astId": 8635,
        "contract": "contracts/liquidity-bridge/Bridge.sol:Bridge",
        "label": "withdraws",
        "offset": 0,
        "slot": "19",
        "type": "t_mapping(t_bytes32,t_bool)"
      },
      {
        "astId": 8637,
        "contract": "contracts/liquidity-bridge/Bridge.sol:Bridge",
        "label": "nativeWrap",
        "offset": 0,
        "slot": "20",
        "type": "t_address"
      },
      {
        "astId": 7845,
        "contract": "contracts/liquidity-bridge/Bridge.sol:Bridge",
        "label": "transfers",
        "offset": 0,
        "slot": "21",
        "type": "t_mapping(t_bytes32,t_bool)"
      },
      {
        "astId": 7849,
        "contract": "contracts/liquidity-bridge/Bridge.sol:Bridge",
        "label": "minSend",
        "offset": 0,
        "slot": "22",
        "type": "t_mapping(t_address,t_uint256)"
      },
      {
        "astId": 7853,
        "contract": "contracts/liquidity-bridge/Bridge.sol:Bridge",
        "label": "maxSend",
        "offset": 0,
        "slot": "23",
        "type": "t_mapping(t_address,t_uint256)"
      },
      {
        "astId": 7855,
        "contract": "contracts/liquidity-bridge/Bridge.sol:Bridge",
        "label": "minimalMaxSlippage",
        "offset": 0,
        "slot": "24",
        "type": "t_uint32"
      }
    ],
    "types": {
      "t_address": {
        "encoding": "inplace",
        "label": "address",
        "numberOfBytes": "20"
      },
      "t_bool": {
        "encoding": "inplace",
        "label": "bool",
        "numberOfBytes": "1"
      },
      "t_bytes32": {
        "encoding": "inplace",
        "label": "bytes32",
        "numberOfBytes": "32"
      },
      "t_mapping(t_address,t_bool)": {
        "encoding": "mapping",
        "key": "t_address",
        "label": "mapping(address => bool)",
        "numberOfBytes": "32",
        "value": "t_bool"
      },
      "t_mapping(t_address,t_uint256)": {
        "encoding": "mapping",
        "key": "t_address",
        "label": "mapping(address => uint256)",
        "numberOfBytes": "32",
        "value": "t_uint256"
      },
      "t_mapping(t_bytes32,t_bool)": {
        "encoding": "mapping",
        "key": "t_bytes32",
        "label": "mapping(bytes32 => bool)",
        "numberOfBytes": "32",
        "value": "t_bool"
      },
      "t_mapping(t_bytes32,t_struct(delayedTransfer)19609_storage)": {
        "encoding": "mapping",
        "key": "t_bytes32",
        "label": "mapping(bytes32 => struct DelayedTransfer.delayedTransfer)",
        "numberOfBytes": "32",
        "value": "t_struct(delayedTransfer)19609_storage"
      },
      "t_struct(delayedTransfer)19609_storage": {
        "encoding": "inplace",
        "label": "struct DelayedTransfer.delayedTransfer",
        "members": [
          {
            "astId": 19602,
            "contract": "contracts/liquidity-bridge/Bridge.sol:Bridge",
            "label": "receiver",
            "offset": 0,
            "slot": "0",
            "type": "t_address"
          },
          {
            "astId": 19604,
            "contract": "contracts/liquidity-bridge/Bridge.sol:Bridge",
            "label": "token",
            "offset": 0,
            "slot": "1",
            "type": "t_address"
          },
          {
            "astId": 19606,
            "contract": "contracts/liquidity-bridge/Bridge.sol:Bridge",
            "label": "amount",
            "offset": 0,
            "slot": "2",
            "type": "t_uint256"
          },
          {
            "astId": 19608,
            "contract": "contracts/liquidity-bridge/Bridge.sol:Bridge",
            "label": "timestamp",
            "offset": 0,
            "slot": "3",
            "type": "t_uint256"
          }
        ],
        "numberOfBytes": "128"
      },
      "t_uint256": {
        "encoding": "inplace",
        "label": "uint256",
        "numberOfBytes": "32"
      },
      "t_uint32": {
        "encoding": "inplace",
        "label": "uint32",
        "numberOfBytes": "4"
      },
      "t_uint64": {
        "encoding": "inplace",
        "label": "uint64",
        "numberOfBytes": "8"
      }
    }
  }
}