{
  "address": "0x31d95c7fc6b5520B4BdCD78Efa689dD1CCa5741E",
  "abi": [
    {
      "inputs": [
        {
          "internalType": "contract ISigsVerifier",
          "name": "_sigsVerifier",
          "type": "address"
        },
        {
          "internalType": "uint256",
          "name": "_chainId",
          "type": "uint256"
        }
      ],
      "stateMutability": "nonpayable",
      "type": "constructor"
    },
    {
      "anonymous": false,
      "inputs": [
        {
          "indexed": false,
          "internalType": "bytes32",
          "name": "burnId",
          "type": "bytes32"
        },
        {
          "indexed": false,
          "internalType": "address",
          "name": "token",
          "type": "address"
        },
        {
          "indexed": false,
          "internalType": "address",
          "name": "account",
          "type": "address"
        },
        {
          "indexed": false,
          "internalType": "uint256",
          "name": "amount",
          "type": "uint256"
        },
        {
          "indexed": false,
          "internalType": "address",
          "name": "withdrawAccount",
          "type": "address"
        }
      ],
      "name": "Burn",
      "type": "event"
    },
    {
      "anonymous": false,
      "inputs": [
        {
          "indexed": false,
          "internalType": "uint256",
          "name": "period",
          "type": "uint256"
        }
      ],
      "name": "DelayPeriodUpdated",
      "type": "event"
    },
    {
      "anonymous": false,
      "inputs": [
        {
          "indexed": false,
          "internalType": "address",
          "name": "token",
          "type": "address"
        },
        {
          "indexed": false,
          "internalType": "uint256",
          "name": "threshold",
          "type": "uint256"
        }
      ],
      "name": "DelayThresholdUpdated",
      "type": "event"
    },
    {
      "anonymous": false,
      "inputs": [
        {
          "indexed": false,
          "internalType": "bytes32",
          "name": "id",
          "type": "bytes32"
        }
      ],
      "name": "DelayedTransferAdded",
      "type": "event"
    },
    {
      "anonymous": false,
      "inputs": [
        {
          "indexed": false,
          "internalType": "bytes32",
          "name": "id",
          "type": "bytes32"
        },
        {
          "indexed": false,
          "internalType": "address",
          "name": "receiver",
          "type": "address"
        },
        {
          "indexed": false,
          "internalType": "address",
          "name": "token",
          "type": "address"
        },
        {
          "indexed": false,
          "internalType": "uint256",
          "name": "amount",
          "type": "uint256"
        }
      ],
      "name": "DelayedTransferExecuted",
      "type": "event"
    },
    {
      "anonymous": false,
      "inputs": [
        {
          "indexed": false,
          "internalType": "uint256",
          "name": "length",
          "type": "uint256"
        }
      ],
      "name": "EpochLengthUpdated",
      "type": "event"
    },
    {
      "anonymous": false,
      "inputs": [
        {
          "indexed": false,
          "internalType": "address",
          "name": "token",
          "type": "address"
        },
        {
          "indexed": false,
          "internalType": "uint256",
          "name": "cap",
          "type": "uint256"
        }
      ],
      "name": "EpochVolumeUpdated",
      "type": "event"
    },
    {
      "anonymous": false,
      "inputs": [
        {
          "indexed": false,
          "internalType": "address",
          "name": "account",
          "type": "address"
        }
      ],
      "name": "GovernorAdded",
      "type": "event"
    },
    {
      "anonymous": false,
      "inputs": [
        {
          "indexed": false,
          "internalType": "address",
          "name": "account",
          "type": "address"
        }
      ],
      "name": "GovernorRemoved",
      "type": "event"
    },
    {
      "anonymous": false,
      "inputs": [
        {
          "indexed": false,
          "internalType": "address",
          "name": "token",
          "type": "address"
        },
        {
          "indexed": false,
          "internalType": "uint256",
          "name": "amount",
          "type": "uint256"
        }
      ],
      "name": "MaxBurnUpdated",
      "type": "event"
    },
    {
      "anonymous": false,
      "inputs": [
        {
          "indexed": false,
          "internalType": "address",
          "name": "token",
          "type": "address"
        },
        {
          "indexed": false,
          "internalType": "uint256",
          "name": "amount",
          "type": "uint256"
        }
      ],
      "name": "MinBurnUpdated",
      "type": "event"
    },
    {
      "anonymous": false,
      "inputs": [
        {
          "indexed": false,
          "internalType": "bytes32",
          "name": "mintId",
          "type": "bytes32"
        },
        {
          "indexed": false,
          "internalType": "address",
          "name": "token",
          "type": "address"
        },
        {
          "indexed": false,
          "internalType": "address",
          "name": "account",
          "type": "address"
        },
        {
          "indexed": false,
          "internalType": "uint256",
          "name": "amount",
          "type": "uint256"
        },
        {
          "indexed": false,
          "internalType": "uint64",
          "name": "refChainId",
          "type": "uint64"
        },
        {
          "indexed": false,
          "internalType": "bytes32",
          "name": "refId",
          "type": "bytes32"
        },
        {
          "indexed": false,
          "internalType": "address",
          "name": "depositor",
          "type": "address"
        }
      ],
      "name": "Mint",
      "type": "event"
    },
    {
      "anonymous": false,
      "inputs": [
        {
          "indexed": true,
          "internalType": "address",
          "name": "previousOwner",
          "type": "address"
        },
        {
          "indexed": true,
          "internalType": "address",
          "name": "newOwner",
          "type": "address"
        }
      ],
      "name": "OwnershipTransferred",
      "type": "event"
    },
    {
      "anonymous": false,
      "inputs": [
        {
          "indexed": false,
          "internalType": "address",
          "name": "account",
          "type": "address"
        }
      ],
      "name": "Paused",
      "type": "event"
    },
    {
      "anonymous": false,
      "inputs": [
        {
          "indexed": false,
          "internalType": "address",
          "name": "account",
          "type": "address"
        }
      ],
      "name": "PauserAdded",
      "type": "event"
    },
    {
      "anonymous": false,
      "inputs": [
        {
          "indexed": false,
          "internalType": "address",
          "name": "account",
          "type": "address"
        }
      ],
      "name": "PauserRemoved",
      "type": "event"
    },
    {
      "anonymous": false,
      "inputs": [
        {
          "indexed": false,
          "internalType": "address",
          "name": "account",
          "type": "address"
        }
      ],
      "name": "Unpaused",
      "type": "event"
    },
    {
      "inputs": [
        {
          "internalType": "address",
          "name": "_account",
          "type": "address"
        }
      ],
      "name": "addGovernor",
      "outputs": [],
      "stateMutability": "nonpayable",
      "type": "function"
    },
    {
      "inputs": [
        {
          "internalType": "address",
          "name": "account",
          "type": "address"
        }
      ],
      "name": "addPauser",
      "outputs": [],
      "stateMutability": "nonpayable",
      "type": "function"
    },
    {
      "inputs": [
        {
          "internalType": "address",
          "name": "_token",
          "type": "address"
        },
        {
          "internalType": "uint256",
          "name": "_amount",
          "type": "uint256"
        },
        {
          "internalType": "address",
          "name": "_withdrawAccount",
          "type": "address"
        },
        {
          "internalType": "uint64",
          "name": "_nonce",
          "type": "uint64"
        }
      ],
      "name": "burn",
      "outputs": [],
      "stateMutability": "nonpayable",
      "type": "function"
    },
    {
      "inputs": [],
      "name": "chainId",
      "outputs": [
        {
          "internalType": "uint256",
          "name": "",
          "type": "uint256"
        }
      ],
      "stateMutability": "view",
      "type": "function"
    },
    {
      "inputs": [],
      "name": "delayPeriod",
      "outputs": [
        {
          "internalType": "uint256",
          "name": "",
          "type": "uint256"
        }
      ],
      "stateMutability": "view",
      "type": "function"
    },
    {
      "inputs": [
        {
          "internalType": "address",
          "name": "",
          "type": "address"
        }
      ],
      "name": "delayThresholds",
      "outputs": [
        {
          "internalType": "uint256",
          "name": "",
          "type": "uint256"
        }
      ],
      "stateMutability": "view",
      "type": "function"
    },
    {
      "inputs": [
        {
          "internalType": "bytes32",
          "name": "",
          "type": "bytes32"
        }
      ],
      "name": "delayedTransfers",
      "outputs": [
        {
          "internalType": "address",
          "name": "receiver",
          "type": "address"
        },
        {
          "internalType": "address",
          "name": "token",
          "type": "address"
        },
        {
          "internalType": "uint256",
          "name": "amount",
          "type": "uint256"
        },
        {
          "internalType": "uint256",
          "name": "timestamp",
          "type": "uint256"
        }
      ],
      "stateMutability": "view",
      "type": "function"
    },
    {
      "inputs": [],
      "name": "epochLength",
      "outputs": [
        {
          "internalType": "uint256",
          "name": "",
          "type": "uint256"
        }
      ],
      "stateMutability": "view",
      "type": "function"
    },
    {
      "inputs": [
        {
          "internalType": "address",
          "name": "",
          "type": "address"
        }
      ],
      "name": "epochVolumeCaps",
      "outputs": [
        {
          "internalType": "uint256",
          "name": "",
          "type": "uint256"
        }
      ],
      "stateMutability": "view",
      "type": "function"
    },
    {
      "inputs": [
        {
          "internalType": "address",
          "name": "",
          "type": "address"
        }
      ],
      "name": "epochVolumes",
      "outputs": [
        {
          "internalType": "uint256",
          "name": "",
          "type": "uint256"
        }
      ],
      "stateMutability": "view",
      "type": "function"
    },
    {
      "inputs": [
        {
          "internalType": "bytes32",
          "name": "id",
          "type": "bytes32"
        }
      ],
      "name": "executeDelayedTransfer",
      "outputs": [],
      "stateMutability": "nonpayable",
      "type": "function"
    },
    {
      "inputs": [
        {
          "internalType": "address",
          "name": "",
          "type": "address"
        }
      ],
      "name": "governors",
      "outputs": [
        {
          "internalType": "bool",
          "name": "",
          "type": "bool"
        }
      ],
      "stateMutability": "view",
      "type": "function"
    },
    {
      "inputs": [
        {
          "internalType": "address",
          "name": "_account",
          "type": "address"
        }
      ],
      "name": "isGovernor",
      "outputs": [
        {
          "internalType": "bool",
          "name": "",
          "type": "bool"
        }
      ],
      "stateMutability": "view",
      "type": "function"
    },
    {
      "inputs": [
        {
          "internalType": "address",
          "name": "account",
          "type": "address"
        }
      ],
      "name": "isPauser",
      "outputs": [
        {
          "internalType": "bool",
          "name": "",
          "type": "bool"
        }
      ],
      "stateMutability": "view",
      "type": "function"
    },
    {
      "inputs": [
        {
          "internalType": "address",
          "name": "",
          "type": "address"
        }
      ],
      "name": "lastOpTimestamps",
      "outputs": [
        {
          "internalType": "uint256",
          "name": "",
          "type": "uint256"
        }
      ],
      "stateMutability": "view",
      "type": "function"
    },
    {
      "inputs": [
        {
          "internalType": "address",
          "name": "",
          "type": "address"
        }
      ],
      "name": "maxBurn",
      "outputs": [
        {
          "internalType": "uint256",
          "name": "",
          "type": "uint256"
        }
      ],
      "stateMutability": "view",
      "type": "function"
    },
    {
      "inputs": [
        {
          "internalType": "address",
          "name": "",
          "type": "address"
        }
      ],
      "name": "minBurn",
      "outputs": [
        {
          "internalType": "uint256",
          "name": "",
          "type": "uint256"
        }
      ],
      "stateMutability": "view",
      "type": "function"
    },
    {
      "inputs": [
        {
          "internalType": "bytes",
          "name": "_request",
          "type": "bytes"
        },
        {
          "internalType": "bytes[]",
          "name": "_sigs",
          "type": "bytes[]"
        },
        {
          "internalType": "address[]",
          "name": "_signers",
          "type": "address[]"
        },
        {
          "internalType": "uint256[]",
          "name": "_powers",
          "type": "uint256[]"
        }
      ],
      "name": "mint",
      "outputs": [],
      "stateMutability": "nonpayable",
      "type": "function"
    },
    {
      "inputs": [],
      "name": "owner",
      "outputs": [
        {
          "internalType": "address",
          "name": "",
          "type": "address"
        }
      ],
      "stateMutability": "view",
      "type": "function"
    },
    {
      "inputs": [],
      "name": "pause",
      "outputs": [],
      "stateMutability": "nonpayable",
      "type": "function"
    },
    {
      "inputs": [],
      "name": "paused",
      "outputs": [
        {
          "internalType": "bool",
          "name": "",
          "type": "bool"
        }
      ],
      "stateMutability": "view",
      "type": "function"
    },
    {
      "inputs": [
        {
          "internalType": "address",
          "name": "",
          "type": "address"
        }
      ],
      "name": "pausers",
      "outputs": [
        {
          "internalType": "bool",
          "name": "",
          "type": "bool"
        }
      ],
      "stateMutability": "view",
      "type": "function"
    },
    {
      "inputs": [
        {
          "internalType": "bytes32",
          "name": "",
          "type": "bytes32"
        }
      ],
      "name": "records",
      "outputs": [
        {
          "internalType": "bool",
          "name": "",
          "type": "bool"
        }
      ],
      "stateMutability": "view",
      "type": "function"
    },
    {
      "inputs": [
        {
          "internalType": "address",
          "name": "_account",
          "type": "address"
        }
      ],
      "name": "removeGovernor",
      "outputs": [],
      "stateMutability": "nonpayable",
      "type": "function"
    },
    {
      "inputs": [
        {
          "internalType": "address",
          "name": "account",
          "type": "address"
        }
      ],
      "name": "removePauser",
      "outputs": [],
      "stateMutability": "nonpayable",
      "type": "function"
    },
    {
      "inputs": [],
      "name": "renounceGovernor",
      "outputs": [],
      "stateMutability": "nonpayable",
      "type": "function"
    },
    {
      "inputs": [],
      "name": "renounceOwnership",
      "outputs": [],
      "stateMutability": "nonpayable",
      "type": "function"
    },
    {
      "inputs": [],
      "name": "renouncePauser",
      "outputs": [],
      "stateMutability": "nonpayable",
      "type": "function"
    },
    {
      "inputs": [
        {
          "internalType": "uint256",
          "name": "_period",
          "type": "uint256"
        }
      ],
      "name": "setDelayPeriod",
      "outputs": [],
      "stateMutability": "nonpayable",
      "type": "function"
    },
    {
      "inputs": [
        {
          "internalType": "address[]",
          "name": "_tokens",
          "type": "address[]"
        },
        {
          "internalType": "uint256[]",
          "name": "_thresholds",
          "type": "uint256[]"
        }
      ],
      "name": "setDelayThresholds",
      "outputs": [],
      "stateMutability": "nonpayable",
      "type": "function"
    },
    {
      "inputs": [
        {
          "internalType": "uint256",
          "name": "_length",
          "type": "uint256"
        }
      ],
      "name": "setEpochLength",
      "outputs": [],
      "stateMutability": "nonpayable",
      "type": "function"
    },
    {
      "inputs": [
        {
          "internalType": "address[]",
          "name": "_tokens",
          "type": "address[]"
        },
        {
          "internalType": "uint256[]",
          "name": "_caps",
          "type": "uint256[]"
        }
      ],
      "name": "setEpochVolumeCaps",
      "outputs": [],
      "stateMutability": "nonpayable",
      "type": "function"
    },
    {
      "inputs": [
        {
          "internalType": "address[]",
          "name": "_tokens",
          "type": "address[]"
        },
        {
          "internalType": "uint256[]",
          "name": "_amounts",
          "type": "uint256[]"
        }
      ],
      "name": "setMaxBurn",
      "outputs": [],
      "stateMutability": "nonpayable",
      "type": "function"
    },
    {
      "inputs": [
        {
          "internalType": "address[]",
          "name": "_tokens",
          "type": "address[]"
        },
        {
          "internalType": "uint256[]",
          "name": "_amounts",
          "type": "uint256[]"
        }
      ],
      "name": "setMinBurn",
      "outputs": [],
      "stateMutability": "nonpayable",
      "type": "function"
    },
    {
      "inputs": [],
      "name": "sigsVerifier",
      "outputs": [
        {
          "internalType": "contract ISigsVerifier",
          "name": "",
          "type": "address"
        }
      ],
      "stateMutability": "view",
      "type": "function"
    },
    {
      "inputs": [
        {
          "internalType": "address",
          "name": "newOwner",
          "type": "address"
        }
      ],
      "name": "transferOwnership",
      "outputs": [],
      "stateMutability": "nonpayable",
      "type": "function"
    },
    {
      "inputs": [],
      "name": "unpause",
      "outputs": [],
      "stateMutability": "nonpayable",
      "type": "function"
    }
  ],
  "transactionHash": "0x964e9802e9fb37dc16d8b578df80002966f654f803526e56af958bacc00361b5",
  "args": [
    "0xBf2B2757F0B2a2f70136C4A6627e99d8ec5cC7b9",
    "210425"
  ],
  "numDeployments": 1,
  "solcInputHash": "7b347ef6706b220dea162e6b434f6b0a",
  "bytecode": "0x60c06040523480156200001157600080fd5b5060405162002e3438038062002e34833981016040819052620000349162000254565b6200003f3362000079565b6000805460ff60a01b191690556200005733620000c9565b620000623362000194565b6001600160a01b0390911660805260a05262000290565b600080546001600160a01b038381166001600160a01b0319831681178455604051919092169283917f8be0079c531659141344cd1fd0a4f28419497f9722a3daafe3b4186f6b6457e09190a35050565b6001600160a01b03811660009081526001602052604090205460ff1615620001385760405162461bcd60e51b815260206004820152601960248201527f4163636f756e7420697320616c7265616479207061757365720000000000000060448201526064015b60405180910390fd5b6001600160a01b038116600081815260016020818152604092839020805460ff191690921790915590519182527f6719d08c1888103bea251a4ed56406bd0c3e69723c8a1686e017e7bbe159b6f891015b60405180910390a150565b6001600160a01b03811660009081526002602052604090205460ff1615620001ff5760405162461bcd60e51b815260206004820152601b60248201527f4163636f756e7420697320616c726561647920676f7665726e6f72000000000060448201526064016200012f565b6001600160a01b038116600081815260026020908152604091829020805460ff1916600117905590519182527fdc5a48d79e2e147530ff63ecdbed5a5a66adb9d5cf339384d5d076da197c40b5910162000189565b600080604083850312156200026857600080fd5b82516001600160a01b03811681146200028057600080fd5b6020939093015192949293505050565b60805160a051612b69620002cb6000396000818161047d0152818161111d015261142501526000818161056001526114980152612b696000f3fe608060405234801561001057600080fd5b50600436106102775760003560e01c806382dc1ec411610160578063ccf2683b116100d8578063eecdac881161008c578063f832138311610071578063f832138314610612578063f873430214610632578063f9a8ea081461064557600080fd5b8063eecdac88146105ec578063f2fde38b146105ff57600080fd5b8063e026049c116100bd578063e026049c14610595578063e3eece261461059d578063e43581b8146105c057600080fd5b8063ccf2683b1461055b578063de790c7e1461058257600080fd5b80639e25fc5c1161012f578063b1c94d9411610114578063b1c94d941461051f578063b5f2bc4714610528578063bf4816f01461054857600080fd5b80639e25fc5c1461049f578063adc0d57f146104b257600080fd5b806382dc1ec4146104385780638456cb591461044b5780638da5cb5b146104535780639a8a05921461047857600080fd5b806354eea796116101f35780636b2c0f55116101c2578063715018a6116101a7578063715018a6146103ed5780637f856013146103f557806380f51c121461041557600080fd5b80636b2c0f55146103d25780636ef8d66d146103e557600080fd5b806354eea7961461038457806357d775f8146103975780635c975abb146103a057806360216b00146103b257600080fd5b80633f4ba83a1161024a57806347b16c6c1161022f57806347b16c6c14610323578063497bf3b21461033657806352532faa1461036457600080fd5b80633f4ba83a146102ef57806346fbf68e146102f757600080fd5b806301e647251461027c57806317bdbae5146102b45780633c4a25d0146102c95780633d572107146102dc575b600080fd5b61029f61028a3660046125f0565b600a6020526000908152604090205460ff1681565b60405190151581526020015b60405180910390f35b6102c76102c2366004612655565b610658565b005b6102c76102d73660046126dd565b6107fb565b6102c76102ea3660046125f0565b610861565b6102c76108f5565b61029f6103053660046126dd565b6001600160a01b031660009081526001602052604090205460ff1690565b6102c7610331366004612655565b61095e565b6103566103443660046126dd565b600c6020526000908152604090205481565b6040519081526020016102ab565b6103566103723660046126dd565b60086020526000908152604090205481565b6102c76103923660046125f0565b610af5565b61035660035481565b600054600160a01b900460ff1661029f565b6103566103c03660046126dd565b60046020526000908152604090205481565b6102c76103e03660046126dd565b610b82565b6102c7610be5565b6102c7610bee565b6103566104033660046126dd565b600b6020526000908152604090205481565b61029f6104233660046126dd565b60016020526000908152604090205460ff1681565b6102c76104463660046126dd565b610c52565b6102c7610cb5565b6000546001600160a01b03165b6040516001600160a01b0390911681526020016102ab565b6103567f000000000000000000000000000000000000000000000000000000000000000081565b6102c76104ad3660046125f0565b610d1c565b6104f46104c03660046125f0565b60076020526000908152604090208054600182015460028301546003909301546001600160a01b0392831693919092169184565b604080516001600160a01b0395861681529490931660208501529183015260608201526080016102ab565b61035660095481565b6103566105363660046126dd565b60056020526000908152604090205481565b6102c7610556366004612655565b610de9565b6104607f000000000000000000000000000000000000000000000000000000000000000081565b6102c76105903660046126ff565b610f80565b6102c7611289565b61029f6105ab3660046126dd565b60026020526000908152604090205460ff1681565b61029f6105ce3660046126dd565b6001600160a01b031660009081526002602052604090205460ff1690565b6102c76105fa3660046126dd565b611292565b6102c761060d3660046126dd565b6112f5565b6103566106203660046126dd565b60066020526000908152604090205481565b6102c761064036600461275b565b6113d4565b6102c7610653366004612655565b6117fd565b3360009081526002602052604090205460ff166106b55760405162461bcd60e51b815260206004820152601660248201527521b0b63632b91034b9903737ba1033b7bb32b93737b960511b60448201526064015b60405180910390fd5b8281146106f65760405162461bcd60e51b815260206004820152600f60248201526e0d8cadccee8d040dad2e6dac2e8c6d608b1b60448201526064016106ac565b60005b838110156107f4578282828181106107135761071361284a565b90506020020135600860008787858181106107305761073061284a565b905060200201602081019061074591906126dd565b6001600160a01b031681526020810191909152604001600020557fceaad6533bfb481492fb3e08ef19297f46611b8fa9de5ef4cf8dc23a56ad09ce8585838181106107925761079261284a565b90506020020160208101906107a791906126dd565b8484848181106107b9576107b961284a565b604080516001600160a01b0390951685526020918202939093013590840152500160405180910390a1806107ec81612876565b9150506106f9565b5050505050565b6000546001600160a01b031633146108555760405162461bcd60e51b815260206004820181905260248201527f4f776e61626c653a2063616c6c6572206973206e6f7420746865206f776e657260448201526064016106ac565b61085e81611994565b50565b3360009081526002602052604090205460ff166108b95760405162461bcd60e51b815260206004820152601660248201527521b0b63632b91034b9903737ba1033b7bb32b93737b960511b60448201526064016106ac565b60098190556040518181527fc0a39f234199b125fb93713c4d067bdcebbf691087f87b79c0feb92b156ba8b6906020015b60405180910390a150565b3360009081526001602052604090205460ff166109545760405162461bcd60e51b815260206004820152601460248201527f43616c6c6572206973206e6f742070617573657200000000000000000000000060448201526064016106ac565b61095c611a51565b565b3360009081526002602052604090205460ff166109b65760405162461bcd60e51b815260206004820152601660248201527521b0b63632b91034b9903737ba1033b7bb32b93737b960511b60448201526064016106ac565b8281146109f75760405162461bcd60e51b815260206004820152600f60248201526e0d8cadccee8d040dad2e6dac2e8c6d608b1b60448201526064016106ac565b60005b838110156107f457828282818110610a1457610a1461284a565b9050602002013560056000878785818110610a3157610a3161284a565b9050602002016020810190610a4691906126dd565b6001600160a01b031681526020810191909152604001600020557f608e49c22994f20b5d3496dca088b88dfd81b4a3e8cc3809ea1e10a320107e89858583818110610a9357610a9361284a565b9050602002016020810190610aa891906126dd565b848484818110610aba57610aba61284a565b604080516001600160a01b0390951685526020918202939093013590840152500160405180910390a180610aed81612876565b9150506109fa565b3360009081526002602052604090205460ff16610b4d5760405162461bcd60e51b815260206004820152601660248201527521b0b63632b91034b9903737ba1033b7bb32b93737b960511b60448201526064016106ac565b60038190556040518181527f2664fec2ff76486ac58ed087310855b648b15b9d19f3de8529e95f7c46b7d6b3906020016108ea565b6000546001600160a01b03163314610bdc5760405162461bcd60e51b815260206004820181905260248201527f4f776e61626c653a2063616c6c6572206973206e6f7420746865206f776e657260448201526064016106ac565b61085e81611af7565b61095c33611af7565b6000546001600160a01b03163314610c485760405162461bcd60e51b815260206004820181905260248201527f4f776e61626c653a2063616c6c6572206973206e6f7420746865206f776e657260448201526064016106ac565b61095c6000611bb0565b6000546001600160a01b03163314610cac5760405162461bcd60e51b815260206004820181905260248201527f4f776e61626c653a2063616c6c6572206973206e6f7420746865206f776e657260448201526064016106ac565b61085e81611c0d565b3360009081526001602052604090205460ff16610d145760405162461bcd60e51b815260206004820152601460248201527f43616c6c6572206973206e6f742070617573657200000000000000000000000060448201526064016106ac565b61095c611ccb565b600054600160a01b900460ff1615610d695760405162461bcd60e51b815260206004820152601060248201526f14185d5cd8589b194e881c185d5cd95960821b60448201526064016106ac565b6000610d7482611d53565b6020810151815160408084015190516340c10f1960e01b81526001600160a01b039283166004820152602481019190915292935016906340c10f1990604401600060405180830381600087803b158015610dcd57600080fd5b505af1158015610de1573d6000803e3d6000fd5b505050505050565b3360009081526002602052604090205460ff16610e415760405162461bcd60e51b815260206004820152601660248201527521b0b63632b91034b9903737ba1033b7bb32b93737b960511b60448201526064016106ac565b828114610e825760405162461bcd60e51b815260206004820152600f60248201526e0d8cadccee8d040dad2e6dac2e8c6d608b1b60448201526064016106ac565b60005b838110156107f457828282818110610e9f57610e9f61284a565b90506020020135600b6000878785818110610ebc57610ebc61284a565b9050602002016020810190610ed191906126dd565b6001600160a01b031681526020810191909152604001600020557f3796cd0b17a8734f8da819920625598e9a18be490f686725282e5383f1d06683858583818110610f1e57610f1e61284a565b9050602002016020810190610f3391906126dd565b848484818110610f4557610f4561284a565b604080516001600160a01b0390951685526020918202939093013590840152500160405180910390a180610f7881612876565b915050610e85565b600054600160a01b900460ff1615610fcd5760405162461bcd60e51b815260206004820152601060248201526f14185d5cd8589b194e881c185d5cd95960821b60448201526064016106ac565b6001600160a01b0384166000908152600b602052604090205483116110345760405162461bcd60e51b815260206004820152601060248201527f616d6f756e7420746f6f20736d616c6c0000000000000000000000000000000060448201526064016106ac565b6001600160a01b0384166000908152600c6020526040902054158061107157506001600160a01b0384166000908152600c60205260409020548311155b6110bd5760405162461bcd60e51b815260206004820152601060248201527f616d6f756e7420746f6f206c617267650000000000000000000000000000000060448201526064016106ac565b6040516bffffffffffffffffffffffff1933606090811b8216602084015286811b821660348401526048830186905284901b16606882015277ffffffffffffffffffffffffffffffffffffffffffffffff1960c083811b8216607c8401527f0000000000000000000000000000000000000000000000000000000000000000901b166084820152600090608c0160408051601f1981840301815291815281516020928301206000818152600a90935291205490915060ff16156111b25760405162461bcd60e51b815260206004820152600d60248201526c7265636f72642065786973747360981b60448201526064016106ac565b6000818152600a602052604090819020805460ff1916600117905551632770a7eb60e21b8152336004820152602481018590526001600160a01b03861690639dc29fac90604401600060405180830381600087803b15801561121357600080fd5b505af1158015611227573d6000803e3d6000fd5b5050604080518481526001600160a01b0389811660208301523382840152606082018990528716608082015290517f75f1bf55bb1de41b63a775dc7d4500f01114ee62b688a6b11d34f4692c1f3d4393509081900360a0019150a15050505050565b61095c33611f25565b6000546001600160a01b031633146112ec5760405162461bcd60e51b815260206004820181905260248201527f4f776e61626c653a2063616c6c6572206973206e6f7420746865206f776e657260448201526064016106ac565b61085e81611f25565b6000546001600160a01b0316331461134f5760405162461bcd60e51b815260206004820181905260248201527f4f776e61626c653a2063616c6c6572206973206e6f7420746865206f776e657260448201526064016106ac565b6001600160a01b0381166113cb5760405162461bcd60e51b815260206004820152602660248201527f4f776e61626c653a206e6577206f776e657220697320746865207a65726f206160448201527f646472657373000000000000000000000000000000000000000000000000000060648201526084016106ac565b61085e81611bb0565b600054600160a01b900460ff16156114215760405162461bcd60e51b815260206004820152601060248201526f14185d5cd8589b194e881c185d5cd95960821b60448201526064016106ac565b60007f00000000000000000000000000000000000000000000000000000000000000003060405160200161147e92919091825260601b6bffffffffffffffffffffffff1916602082015263135a5b9d60e21b603482015260380190565b6040516020818303038152906040528051906020012090507f00000000000000000000000000000000000000000000000000000000000000006001600160a01b031663682dbc22828b8b6040516020016114da93929190612891565b6040516020818303038152906040528989898989896040518863ffffffff1660e01b815260040161151197969594939291906129fb565b60006040518083038186803b15801561152957600080fd5b505afa15801561153d573d6000803e3d6000fd5b5050505060006115828a8a8080601f016020809104026020016040519081016040528093929190818152602001838380828437600092019190915250611fde92505050565b6020818101518251604080850151606080870151608088015160a0890151855197841b6bffffffffffffffffffffffff19908116898b015296841b871660348901526048880194909452911b909316606885015260c09290921b77ffffffffffffffffffffffffffffffffffffffffffffffff1916607c8401526084808401929092528051808403909201825260a490920182528051908301206000818152600a9093529120549192509060ff161561166d5760405162461bcd60e51b815260206004820152600d60248201526c7265636f72642065786973747360981b60448201526064016106ac565b6000818152600a602052604090819020805460ff191660011790558251908301516116989190612140565b81516001600160a01b031660009081526008602052604090205480158015906116c45750808360400151115b156116e6576116e182846020015185600001518660400151612258565b611756565b8251602084015160408086015190516340c10f1960e01b81526001600160a01b03928316600482015260248101919091529116906340c10f1990604401600060405180830381600087803b15801561173d57600080fd5b505af1158015611751573d6000803e3d6000fd5b505050505b7f5bc84ecccfced5bb04bfc7f3efcdbe7f5cd21949ef146811b4d1967fe41f777a8284600001518560200151866040015187608001518860a0015189606001516040516117e797969594939291909687526001600160a01b0395861660208801529385166040870152606086019290925267ffffffffffffffff16608085015260a08401521660c082015260e00190565b60405180910390a1505050505050505050505050565b3360009081526002602052604090205460ff166118555760405162461bcd60e51b815260206004820152601660248201527521b0b63632b91034b9903737ba1033b7bb32b93737b960511b60448201526064016106ac565b8281146118965760405162461bcd60e51b815260206004820152600f60248201526e0d8cadccee8d040dad2e6dac2e8c6d608b1b60448201526064016106ac565b60005b838110156107f4578282828181106118b3576118b361284a565b90506020020135600c60008787858181106118d0576118d061284a565b90506020020160208101906118e591906126dd565b6001600160a01b031681526020810191909152604001600020557fa3181379f6db47d9037efc6b6e8e3efe8c55ddb090b4f0512c152f97c4e47da58585838181106119325761193261284a565b905060200201602081019061194791906126dd565b8484848181106119595761195961284a565b604080516001600160a01b0390951685526020918202939093013590840152500160405180910390a18061198c81612876565b915050611899565b6001600160a01b03811660009081526002602052604090205460ff16156119fd5760405162461bcd60e51b815260206004820152601b60248201527f4163636f756e7420697320616c726561647920676f7665726e6f72000000000060448201526064016106ac565b6001600160a01b038116600081815260026020908152604091829020805460ff1916600117905590519182527fdc5a48d79e2e147530ff63ecdbed5a5a66adb9d5cf339384d5d076da197c40b591016108ea565b600054600160a01b900460ff16611aaa5760405162461bcd60e51b815260206004820152601460248201527f5061757361626c653a206e6f742070617573656400000000000000000000000060448201526064016106ac565b6000805460ff60a01b191690557f5db9ee0a495bf2e6ff9c91a7834c1ba4fdd244a5e8aa4e537bd38aeae4b073aa335b6040516001600160a01b03909116815260200160405180910390a1565b6001600160a01b03811660009081526001602052604090205460ff16611b5f5760405162461bcd60e51b815260206004820152601560248201527f4163636f756e74206973206e6f7420706175736572000000000000000000000060448201526064016106ac565b6001600160a01b038116600081815260016020908152604091829020805460ff1916905590519182527fcd265ebaf09df2871cc7bd4133404a235ba12eff2041bb89d9c714a2621c7c7e91016108ea565b600080546001600160a01b0383811673ffffffffffffffffffffffffffffffffffffffff19831681178455604051919092169283917f8be0079c531659141344cd1fd0a4f28419497f9722a3daafe3b4186f6b6457e09190a35050565b6001600160a01b03811660009081526001602052604090205460ff1615611c765760405162461bcd60e51b815260206004820152601960248201527f4163636f756e7420697320616c7265616479207061757365720000000000000060448201526064016106ac565b6001600160a01b038116600081815260016020818152604092839020805460ff191690921790915590519182527f6719d08c1888103bea251a4ed56406bd0c3e69723c8a1686e017e7bbe159b6f891016108ea565b600054600160a01b900460ff1615611d185760405162461bcd60e51b815260206004820152601060248201526f14185d5cd8589b194e881c185d5cd95960821b60448201526064016106ac565b6000805460ff60a01b1916600160a01b1790557f62e78cea01bee320cd4e420270b5ea74000d11b0c9f74754ebdbfc544b05a258611ada3390565b604080516080810182526000808252602082018190529181018290526060810191909152600082815260076020908152604091829020825160808101845281546001600160a01b0390811682526001830154169281019290925260028101549282019290925260039091015460608201819052611e125760405162461bcd60e51b815260206004820152601a60248201527f64656c61796564207472616e73666572206e6f7420657869737400000000000060448201526064016106ac565b6009548160600151611e249190612a97565b4211611e725760405162461bcd60e51b815260206004820152601d60248201527f64656c61796564207472616e73666572207374696c6c206c6f636b656400000060448201526064016106ac565b6000838152600760209081526040808320805473ffffffffffffffffffffffffffffffffffffffff199081168255600182018054909116905560028101849055600301929092558251908301518383015192517f3b40e5089937425d14cdd96947e5661868357e224af59bd8b24a4b8a330d442693611f1793889390929091909384526001600160a01b03928316602085015291166040830152606082015260800190565b60405180910390a192915050565b6001600160a01b03811660009081526002602052604090205460ff16611f8d5760405162461bcd60e51b815260206004820152601760248201527f4163636f756e74206973206e6f7420676f7665726e6f7200000000000000000060448201526064016106ac565b6001600160a01b038116600081815260026020908152604091829020805460ff1916905590519182527f1ebe834e73d60a5fec822c1e1727d34bc79f2ad977ed504581cc1822fe20fb5b91016108ea565b6040805160c08101825260008082526020808301829052828401829052606083018290526080830182905260a0830182905283518085019094528184528301849052909190805b602083015151835110156121385761203c83612378565b9092509050816001141561206b5761205b612056846123b2565b61246f565b6001600160a01b03168452612025565b816002141561209357612080612056846123b2565b6001600160a01b03166020850152612025565b81600314156120b7576120ad6120a8846123b2565b612480565b6040850152612025565b81600414156120df576120cc612056846123b2565b6001600160a01b03166060850152612025565b8160051415612105576120f1836124b7565b67ffffffffffffffff166080850152612025565b81600614156121295761211f61211a846123b2565b612539565b60a0850152612025565b6121338382612551565b612025565b505050919050565b60035461214b575050565b6001600160a01b0382166000908152600560205260409020548061216e57505050565b6001600160a01b038316600090815260046020526040812054600354909142916121988184612aaf565b6121a29190612ad1565b6001600160a01b0387166000908152600660205260409020549091508111156121cd578492506121da565b6121d78584612a97565b92505b8383111561222a5760405162461bcd60e51b815260206004820152601260248201527f766f6c756d65206578636565647320636170000000000000000000000000000060448201526064016106ac565b506001600160a01b039094166000908152600460209081526040808320939093556006905220929092555050565b600084815260076020526040902060030154156122b75760405162461bcd60e51b815260206004820152601f60248201527f64656c61796564207472616e7366657220616c7265616479206578697374730060448201526064016106ac565b604080516080810182526001600160a01b0380861682528481166020808401918252838501868152426060860190815260008b81526007909352918690209451855490851673ffffffffffffffffffffffffffffffffffffffff1991821617865592516001860180549190951693169290921790925551600283015551600390910155517fcbcfffe5102114216a85d3aceb14ad4b81a3935b1b5c468fadf3889eb9c5dce69061236a9086815260200190565b60405180910390a150505050565b6000806000612386846124b7565b9050612393600882612aaf565b92508060071660058111156123aa576123aa612af0565b915050915091565b606060006123bf836124b7565b905060008184600001516123d39190612a97565b90508360200151518111156123e757600080fd5b8167ffffffffffffffff81111561240057612400612b06565b6040519080825280601f01601f19166020018201604052801561242a576020820181803683370190505b50602080860151865192955091818601919083010160005b8581101561246457818101518382015261245d602082612a97565b9050612442565b505050935250919050565b600061247a826125c8565b92915050565b600060208251111561249157600080fd5b60208201519050815160206124a69190612b1c565b6124b1906008612ad1565b1c919050565b602080820151825181019091015160009182805b600a8110156125335783811a91506124e4816007612ad1565b82607f16901b85179450816080166000141561252157612505816001612a97565b86518790612514908390612a97565b9052509395945050505050565b8061252b81612876565b9150506124cb565b50600080fd5b6000815160201461254957600080fd5b506020015190565b600081600581111561256557612565612af0565b141561257957612574826124b7565b505050565b600281600581111561258d5761258d612af0565b141561027757600061259e836124b7565b905080836000018181516125b29190612a97565b9052506020830151518351111561257457600080fd5b600081516014146125d857600080fd5b50602001516c01000000000000000000000000900490565b60006020828403121561260257600080fd5b5035919050565b60008083601f84011261261b57600080fd5b50813567ffffffffffffffff81111561263357600080fd5b6020830191508360208260051b850101111561264e57600080fd5b9250929050565b6000806000806040858703121561266b57600080fd5b843567ffffffffffffffff8082111561268357600080fd5b61268f88838901612609565b909650945060208701359150808211156126a857600080fd5b506126b587828801612609565b95989497509550505050565b80356001600160a01b03811681146126d857600080fd5b919050565b6000602082840312156126ef57600080fd5b6126f8826126c1565b9392505050565b6000806000806080858703121561271557600080fd5b61271e856126c1565b935060208501359250612733604086016126c1565b9150606085013567ffffffffffffffff8116811461275057600080fd5b939692955090935050565b6000806000806000806000806080898b03121561277757600080fd5b883567ffffffffffffffff8082111561278f57600080fd5b818b0191508b601f8301126127a357600080fd5b8135818111156127b257600080fd5b8c60208285010111156127c457600080fd5b60209283019a509850908a013590808211156127df57600080fd5b6127eb8c838d01612609565b909850965060408b013591508082111561280457600080fd5b6128108c838d01612609565b909650945060608b013591508082111561282957600080fd5b506128368b828c01612609565b999c989b5096995094979396929594505050565b634e487b7160e01b600052603260045260246000fd5b634e487b7160e01b600052601160045260246000fd5b600060001982141561288a5761288a612860565b5060010190565b838152818360208301376000910160200190815292915050565b81835281816020850137506000828201602090810191909152601f909101601f19169091010190565b81835260006020808501808196508560051b810191508460005b878110156129585782840389528135601e1988360301811261290f57600080fd5b8701803567ffffffffffffffff81111561292857600080fd5b80360389131561293757600080fd5b61294486828985016128ab565b9a87019a95505050908401906001016128ee565b5091979650505050505050565b8183526000602080850194508260005b858110156129a1576001600160a01b0361298e836126c1565b1687529582019590820190600101612975565b509495945050505050565b81835260007f07ffffffffffffffffffffffffffffffffffffffffffffffffffffffffffffff8311156129de57600080fd5b8260051b8083602087013760009401602001938452509192915050565b608081526000885180608084015260005b81811015612a29576020818c0181015160a0868401015201612a0c565b81811115612a3b57600060a083860101525b50601f01601f1916820182810360a09081016020850152612a5f908201898b6128d4565b90508281036040840152612a74818789612965565b90508281036060840152612a898185876129ac565b9a9950505050505050505050565b60008219821115612aaa57612aaa612860565b500190565b600082612acc57634e487b7160e01b600052601260045260246000fd5b500490565b6000816000190483118215151615612aeb57612aeb612860565b500290565b634e487b7160e01b600052602160045260246000fd5b634e487b7160e01b600052604160045260246000fd5b600082821015612b2e57612b2e612860565b50039056fea2646970667358221220732ac7d11068ab1acc031c2cf9b7edfdb0e490114de0ea531f1f0da75ad8e4cc64736f6c63430008090033",
  "devdoc": {
    "details": "Work together with OriginalTokenVault deployed at remote chains.",
    "kind": "dev",
    "methods": {
      "burn(address,uint256,address,uint64)": {
        "params": {
          "_amount": "The amount to burn.",
          "_nonce": "A number to guarantee unique depositId. Can be timestamp in practice.",
          "_token": "The pegged token address.",
          "_withdrawAccount": "The account to receive the original tokens withdrawn on the remote chain."
        }
      },
      "mint(bytes,bytes[],address[],uint256[])": {
        "params": {
          "_powers": "The signing powers of the signers.",
          "_request": "The serialized Mint protobuf.",
          "_signers": "The sorted list of signers.",
          "_sigs": "The list of signatures sorted by signing addresses in ascending order. A relay must be signed-off by +2/3 of the sigsVerifier's current signing power to be delivered."
        }
      },
      "owner()": {
        "details": "Returns the address of the current owner."
      },
      "paused()": {
        "details": "Returns true if the contract is paused, and false otherwise."
      },
      "renounceOwnership()": {
        "details": "Leaves the contract without owner. It will not be possible to call `onlyOwner` functions anymore. Can only be called by the current owner. NOTE: Renouncing ownership will leave the contract without an owner, thereby removing any functionality that is only available to the owner."
      },
      "transferOwnership(address)": {
        "details": "Transfers ownership of the contract to a new account (`newOwner`). Can only be called by the current owner."
      }
    },
    "title": "The bridge contract to mint and burn pegged tokens",
    "version": 1
  },
  "userdoc": {
    "kind": "user",
    "methods": {
      "burn(address,uint256,address,uint64)": {
        "notice": "Burn pegged tokens to trigger a cross-chain withdrawal of the original tokens at a remote chain's OriginalTokenVault. NOTE: This function DOES NOT SUPPORT fee-on-transfer / rebasing tokens."
      },
      "mint(bytes,bytes[],address[],uint256[])": {
        "notice": "Mint tokens triggered by deposit at a remote chain's OriginalTokenVault."
      }
    },
    "version": 1
  },
  "storageLayout": {
    "storage": [
      {
        "astId": 7,
        "contract": "contracts/pegged-bridge/PeggedTokenBridge.sol:PeggedTokenBridge",
        "label": "_owner",
        "offset": 0,
        "slot": "0",
        "type": "t_address"
      },
      {
        "astId": 122,
        "contract": "contracts/pegged-bridge/PeggedTokenBridge.sol:PeggedTokenBridge",
        "label": "_paused",
        "offset": 20,
        "slot": "0",
        "type": "t_bool"
      },
      {
        "astId": 20054,
        "contract": "contracts/pegged-bridge/PeggedTokenBridge.sol:PeggedTokenBridge",
        "label": "pausers",
        "offset": 0,
        "slot": "1",
        "type": "t_mapping(t_address,t_bool)"
      },
      {
        "astId": 19813,
        "contract": "contracts/pegged-bridge/PeggedTokenBridge.sol:PeggedTokenBridge",
        "label": "governors",
        "offset": 0,
        "slot": "2",
        "type": "t_mapping(t_address,t_bool)"
      },
      {
        "astId": 20201,
        "contract": "contracts/pegged-bridge/PeggedTokenBridge.sol:PeggedTokenBridge",
        "label": "epochLength",
        "offset": 0,
        "slot": "3",
        "type": "t_uint256"
      },
      {
        "astId": 20205,
        "contract": "contracts/pegged-bridge/PeggedTokenBridge.sol:PeggedTokenBridge",
        "label": "epochVolumes",
        "offset": 0,
        "slot": "4",
        "type": "t_mapping(t_address,t_uint256)"
      },
      {
        "astId": 20209,
        "contract": "contracts/pegged-bridge/PeggedTokenBridge.sol:PeggedTokenBridge",
        "label": "epochVolumeCaps",
        "offset": 0,
        "slot": "5",
        "type": "t_mapping(t_address,t_uint256)"
      },
      {
        "astId": 20213,
        "contract": "contracts/pegged-bridge/PeggedTokenBridge.sol:PeggedTokenBridge",
        "label": "lastOpTimestamps",
        "offset": 0,
        "slot": "6",
        "type": "t_mapping(t_address,t_uint256)"
      },
      {
        "astId": 19614,
        "contract": "contracts/pegged-bridge/PeggedTokenBridge.sol:PeggedTokenBridge",
        "label": "delayedTransfers",
        "offset": 0,
        "slot": "7",
        "type": "t_mapping(t_bytes32,t_struct(delayedTransfer)19609_storage)"
      },
      {
        "astId": 19618,
        "contract": "contracts/pegged-bridge/PeggedTokenBridge.sol:PeggedTokenBridge",
        "label": "delayThresholds",
        "offset": 0,
        "slot": "8",
        "type": "t_mapping(t_address,t_uint256)"
      },
      {
        "astId": 19620,
        "contract": "contracts/pegged-bridge/PeggedTokenBridge.sol:PeggedTokenBridge",
        "label": "delayPeriod",
        "offset": 0,
        "slot": "9",
        "type": "t_uint256"
      },
      {
        "astId": 16857,
        "contract": "contracts/pegged-bridge/PeggedTokenBridge.sol:PeggedTokenBridge",
        "label": "records",
        "offset": 0,
        "slot": "10",
        "type": "t_mapping(t_bytes32,t_bool)"
      },
      {
        "astId": 16861,
        "contract": "contracts/pegged-bridge/PeggedTokenBridge.sol:PeggedTokenBridge",
        "label": "minBurn",
        "offset": 0,
        "slot": "11",
        "type": "t_mapping(t_address,t_uint256)"
      },
      {
        "astId": 16865,
        "contract": "contracts/pegged-bridge/PeggedTokenBridge.sol:PeggedTokenBridge",
        "label": "maxBurn",
        "offset": 0,
        "slot": "12",
        "type": "t_mapping(t_address,t_uint256)"
      }
    ],
    "types": {
      "t_address": {
        "encoding": "inplace",
        "label": "address",
        "numberOfBytes": "20"
      },
      "t_bool": {
        "encoding": "inplace",
        "label": "bool",
        "numberOfBytes": "1"
      },
      "t_bytes32": {
        "encoding": "inplace",
        "label": "bytes32",
        "numberOfBytes": "32"
      },
      "t_mapping(t_address,t_bool)": {
        "encoding": "mapping",
        "key": "t_address",
        "label": "mapping(address => bool)",
        "numberOfBytes": "32",
        "value": "t_bool"
      },
      "t_mapping(t_address,t_uint256)": {
        "encoding": "mapping",
        "key": "t_address",
        "label": "mapping(address => uint256)",
        "numberOfBytes": "32",
        "value": "t_uint256"
      },
      "t_mapping(t_bytes32,t_bool)": {
        "encoding": "mapping",
        "key": "t_bytes32",
        "label": "mapping(bytes32 => bool)",
        "numberOfBytes": "32",
        "value": "t_bool"
      },
      "t_mapping(t_bytes32,t_struct(delayedTransfer)19609_storage)": {
        "encoding": "mapping",
        "key": "t_bytes32",
        "label": "mapping(bytes32 => struct DelayedTransfer.delayedTransfer)",
        "numberOfBytes": "32",
        "value": "t_struct(delayedTransfer)19609_storage"
      },
      "t_struct(delayedTransfer)19609_storage": {
        "encoding": "inplace",
        "label": "struct DelayedTransfer.delayedTransfer",
        "members": [
          {
            "astId": 19602,
            "contract": "contracts/pegged-bridge/PeggedTokenBridge.sol:PeggedTokenBridge",
            "label": "receiver",
            "offset": 0,
            "slot": "0",
            "type": "t_address"
          },
          {
            "astId": 19604,
            "contract": "contracts/pegged-bridge/PeggedTokenBridge.sol:PeggedTokenBridge",
            "label": "token",
            "offset": 0,
            "slot": "1",
            "type": "t_address"
          },
          {
            "astId": 19606,
            "contract": "contracts/pegged-bridge/PeggedTokenBridge.sol:PeggedTokenBridge",
            "label": "amount",
            "offset": 0,
            "slot": "2",
            "type": "t_uint256"
          },
          {
            "astId": 19608,
            "contract": "contracts/pegged-bridge/PeggedTokenBridge.sol:PeggedTokenBridge",
            "label": "timestamp",
            "offset": 0,
            "slot": "3",
            "type": "t_uint256"
          }
        ],
        "numberOfBytes": "128"
      },
      "t_uint256": {
        "encoding": "inplace",
        "label": "uint256",
        "numberOfBytes": "32"
      }
    }
  }
}