{
  "address": "0xF03928DDc5e5Fa43c7f0cc94aB5adB76D25C79a6",
  "abi": [
    {
      "inputs": [
        {
          "internalType": "address",
          "name": "_initializer",
          "type": "address"
        }
      ],
      "stateMutability": "nonpayable",
      "type": "constructor"
    },
    {
      "anonymous": false,
      "inputs": [
        {
          "indexed": false,
          "internalType": "uint256",
          "name": "proposalId",
          "type": "uint256"
        },
        {
          "indexed": false,
          "internalType": "address",
          "name": "target",
          "type": "address"
        },
        {
          "indexed": false,
          "internalType": "address",
          "name": "proxy",
          "type": "address"
        },
        {
          "indexed": false,
          "internalType": "address",
          "name": "newAdmin",
          "type": "address"
        }
      ],
      "name": "ChangeProxyAdminProposalCreated",
      "type": "event"
    },
    {
      "anonymous": false,
      "inputs": [
        {
          "indexed": false,
          "internalType": "uint256",
          "name": "proposalId",
          "type": "uint256"
        },
        {
          "indexed": false,
          "internalType": "address",
          "name": "target",
          "type": "address"
        },
        {
          "indexed": false,
          "internalType": "address",
          "name": "token",
          "type": "address"
        },
        {
          "indexed": false,
          "internalType": "uint256",
          "name": "amount",
          "type": "uint256"
        }
      ],
      "name": "DrainTokenProposalCreated",
      "type": "event"
    },
    {
      "anonymous": false,
      "inputs": [
        {
          "indexed": false,
          "internalType": "uint256",
          "name": "proposalId",
          "type": "uint256"
        },
        {
          "indexed": false,
          "internalType": "address",
          "name": "target",
          "type": "address"
        },
        {
          "indexed": false,
          "internalType": "uint256",
          "name": "period",
          "type": "uint256"
        }
      ],
      "name": "IncreaseNoticePeriodProposalCreated",
      "type": "event"
    },
    {
      "anonymous": false,
      "inputs": [
        {
          "indexed": false,
          "internalType": "uint256",
          "name": "proposalId",
          "type": "uint256"
        },
        {
          "indexed": false,
          "internalType": "address",
          "name": "target",
          "type": "address"
        }
      ],
      "name": "NotifyResetSignersProposalCreated",
      "type": "event"
    },
    {
      "anonymous": false,
      "inputs": [
        {
          "indexed": false,
          "internalType": "uint256",
          "name": "proposalId",
          "type": "uint256"
        },
        {
          "indexed": false,
          "internalType": "address",
          "name": "target",
          "type": "address"
        },
        {
          "indexed": false,
          "internalType": "address[]",
          "name": "signers",
          "type": "address[]"
        },
        {
          "indexed": false,
          "internalType": "uint256[]",
          "name": "powers",
          "type": "uint256[]"
        }
      ],
      "name": "ResetSignersProposalCreated",
      "type": "event"
    },
    {
      "anonymous": false,
      "inputs": [
        {
          "indexed": false,
          "internalType": "uint256",
          "name": "proposalId",
          "type": "uint256"
        },
        {
          "indexed": false,
          "internalType": "address",
          "name": "target",
          "type": "address"
        },
        {
          "indexed": false,
          "internalType": "enum OwnerDataTypes.BridgeType",
          "name": "bridgeType",
          "type": "uint8"
        },
        {
          "indexed": false,
          "internalType": "address",
          "name": "bridgeAddr",
          "type": "address"
        }
      ],
      "name": "SetBridgeAddressProposalCreated",
      "type": "event"
    },
    {
      "anonymous": false,
      "inputs": [
        {
          "indexed": false,
          "internalType": "uint256",
          "name": "proposalId",
          "type": "uint256"
        },
        {
          "indexed": false,
          "internalType": "address",
          "name": "target",
          "type": "address"
        },
        {
          "indexed": false,
          "internalType": "address",
          "name": "bridgeToken",
          "type": "address"
        },
        {
          "indexed": false,
          "internalType": "uint256",
          "name": "cap",
          "type": "uint256"
        }
      ],
      "name": "SetBridgeTokenSwapCapProposalCreated",
      "type": "event"
    },
    {
      "anonymous": false,
      "inputs": [
        {
          "indexed": false,
          "internalType": "uint256",
          "name": "proposalId",
          "type": "uint256"
        },
        {
          "indexed": false,
          "internalType": "address",
          "name": "target",
          "type": "address"
        },
        {
          "indexed": false,
          "internalType": "address",
          "name": "addr",
          "type": "address"
        }
      ],
      "name": "SetGovContractProposalCreated",
      "type": "event"
    },
    {
      "anonymous": false,
      "inputs": [
        {
          "indexed": false,
          "internalType": "uint256",
          "name": "proposalId",
          "type": "uint256"
        },
        {
          "indexed": false,
          "internalType": "address",
          "name": "target",
          "type": "address"
        },
        {
          "indexed": false,
          "internalType": "uint256",
          "name": "maxSlashFactor",
          "type": "uint256"
        }
      ],
      "name": "SetMaxSlashFactorProposalCreated",
      "type": "event"
    },
    {
      "anonymous": false,
      "inputs": [
        {
          "indexed": false,
          "internalType": "uint256",
          "name": "proposalId",
          "type": "uint256"
        },
        {
          "indexed": false,
          "internalType": "address",
          "name": "target",
          "type": "address"
        },
        {
          "indexed": false,
          "internalType": "enum OwnerDataTypes.MsgFeeType",
          "name": "feeType",
          "type": "uint8"
        },
        {
          "indexed": false,
          "internalType": "uint256",
          "name": "fee",
          "type": "uint256"
        }
      ],
      "name": "SetMsgFeeProposalCreated",
      "type": "event"
    },
    {
      "anonymous": false,
      "inputs": [
        {
          "indexed": false,
          "internalType": "uint256",
          "name": "proposalId",
          "type": "uint256"
        },
        {
          "indexed": false,
          "internalType": "address",
          "name": "target",
          "type": "address"
        },
        {
          "indexed": false,
          "internalType": "address",
          "name": "token",
          "type": "address"
        }
      ],
      "name": "SetNativeWrapProposalCreated",
      "type": "event"
    },
    {
      "anonymous": false,
      "inputs": [
        {
          "indexed": false,
          "internalType": "uint256",
          "name": "proposalId",
          "type": "uint256"
        },
        {
          "indexed": false,
          "internalType": "address",
          "name": "target",
          "type": "address"
        },
        {
          "indexed": false,
          "internalType": "uint256",
          "name": "usage",
          "type": "uint256"
        }
      ],
      "name": "SetPreExecuteMessageGasUsageProposalCreated",
      "type": "event"
    },
    {
      "anonymous": false,
      "inputs": [
        {
          "indexed": false,
          "internalType": "uint256",
          "name": "proposalId",
          "type": "uint256"
        },
        {
          "indexed": false,
          "internalType": "address",
          "name": "target",
          "type": "address"
        },
        {
          "indexed": false,
          "internalType": "address",
          "name": "addr",
          "type": "address"
        }
      ],
      "name": "SetRewardContractProposalCreated",
      "type": "event"
    },
    {
      "anonymous": false,
      "inputs": [
        {
          "indexed": false,
          "internalType": "uint256",
          "name": "proposalId",
          "type": "uint256"
        },
        {
          "indexed": false,
          "internalType": "address",
          "name": "target",
          "type": "address"
        },
        {
          "indexed": false,
          "internalType": "bool",
          "name": "enabled",
          "type": "bool"
        }
      ],
      "name": "SetWhitelistEnableProposalCreated",
      "type": "event"
    },
    {
      "anonymous": false,
      "inputs": [
        {
          "indexed": false,
          "internalType": "uint256",
          "name": "proposalId",
          "type": "uint256"
        },
        {
          "indexed": false,
          "internalType": "address",
          "name": "target",
          "type": "address"
        },
        {
          "indexed": false,
          "internalType": "uint256",
          "name": "newOwner",
          "type": "uint256"
        }
      ],
      "name": "TransferOwnershipProposalCreated",
      "type": "event"
    },
    {
      "anonymous": false,
      "inputs": [
        {
          "indexed": false,
          "internalType": "uint256",
          "name": "proposalId",
          "type": "uint256"
        },
        {
          "indexed": false,
          "internalType": "address",
          "name": "target",
          "type": "address"
        },
        {
          "indexed": false,
          "internalType": "address",
          "name": "bridgeAddr",
          "type": "address"
        }
      ],
      "name": "UpdateBridgeProposalCreated",
      "type": "event"
    },
    {
      "anonymous": false,
      "inputs": [
        {
          "indexed": false,
          "internalType": "uint256",
          "name": "proposalId",
          "type": "uint256"
        },
        {
          "indexed": false,
          "internalType": "address",
          "name": "target",
          "type": "address"
        },
        {
          "indexed": false,
          "internalType": "address",
          "name": "bridge",
          "type": "address"
        },
        {
          "indexed": false,
          "internalType": "uint256",
          "name": "cap",
          "type": "uint256"
        }
      ],
      "name": "UpdateBridgeSupplyCapProposalCreated",
      "type": "event"
    },
    {
      "anonymous": false,
      "inputs": [
        {
          "indexed": false,
          "internalType": "uint256",
          "name": "proposalId",
          "type": "uint256"
        },
        {
          "indexed": false,
          "internalType": "address",
          "name": "target",
          "type": "address"
        },
        {
          "indexed": false,
          "internalType": "enum OwnerDataTypes.Action",
          "name": "action",
          "type": "uint8"
        },
        {
          "indexed": false,
          "internalType": "address",
          "name": "account",
          "type": "address"
        }
      ],
      "name": "UpdateGovernorProposalCreated",
      "type": "event"
    },
    {
      "anonymous": false,
      "inputs": [
        {
          "indexed": false,
          "internalType": "uint256",
          "name": "proposalId",
          "type": "uint256"
        },
        {
          "indexed": false,
          "internalType": "address",
          "name": "target",
          "type": "address"
        },
        {
          "indexed": false,
          "internalType": "enum OwnerDataTypes.Action",
          "name": "action",
          "type": "uint8"
        },
        {
          "indexed": false,
          "internalType": "address",
          "name": "account",
          "type": "address"
        }
      ],
      "name": "UpdatePauserProposalCreated",
      "type": "event"
    },
    {
      "anonymous": false,
      "inputs": [
        {
          "indexed": false,
          "internalType": "uint256",
          "name": "proposalId",
          "type": "uint256"
        },
        {
          "indexed": false,
          "internalType": "address",
          "name": "target",
          "type": "address"
        },
        {
          "indexed": false,
          "internalType": "enum OwnerDataTypes.Action",
          "name": "action",
          "type": "uint8"
        },
        {
          "indexed": false,
          "internalType": "address",
          "name": "token",
          "type": "address"
        },
        {
          "indexed": false,
          "internalType": "uint256",
          "name": "supply",
          "type": "uint256"
        }
      ],
      "name": "UpdateSupplyProposalCreated",
      "type": "event"
    },
    {
      "anonymous": false,
      "inputs": [
        {
          "indexed": false,
          "internalType": "uint256",
          "name": "proposalId",
          "type": "uint256"
        },
        {
          "indexed": false,
          "internalType": "address",
          "name": "target",
          "type": "address"
        },
        {
          "indexed": false,
          "internalType": "enum OwnerDataTypes.Action",
          "name": "action",
          "type": "uint8"
        },
        {
          "indexed": false,
          "internalType": "address",
          "name": "account",
          "type": "address"
        }
      ],
      "name": "UpdateWhitelistedProposalCreated",
      "type": "event"
    },
    {
      "anonymous": false,
      "inputs": [
        {
          "indexed": false,
          "internalType": "uint256",
          "name": "proposalId",
          "type": "uint256"
        },
        {
          "indexed": false,
          "internalType": "address",
          "name": "target",
          "type": "address"
        },
        {
          "indexed": false,
          "internalType": "address",
          "name": "proxy",
          "type": "address"
        },
        {
          "indexed": false,
          "internalType": "address",
          "name": "implementation",
          "type": "address"
        },
        {
          "indexed": false,
          "internalType": "bytes",
          "name": "data",
          "type": "bytes"
        }
      ],
      "name": "UpgradeAndCallProposalCreated",
      "type": "event"
    },
    {
      "anonymous": false,
      "inputs": [
        {
          "indexed": false,
          "internalType": "uint256",
          "name": "proposalId",
          "type": "uint256"
        },
        {
          "indexed": false,
          "internalType": "address",
          "name": "target",
          "type": "address"
        },
        {
          "indexed": false,
          "internalType": "address",
          "name": "proxy",
          "type": "address"
        },
        {
          "indexed": false,
          "internalType": "address",
          "name": "implementation",
          "type": "address"
        }
      ],
      "name": "UpgradeProposalCreated",
      "type": "event"
    },
    {
      "anonymous": false,
      "inputs": [
        {
          "indexed": false,
          "internalType": "uint256",
          "name": "proposalId",
          "type": "uint256"
        },
        {
          "indexed": false,
          "internalType": "address",
          "name": "target",
          "type": "address"
        },
        {
          "indexed": false,
          "internalType": "address",
          "name": "implementation",
          "type": "address"
        },
        {
          "indexed": false,
          "internalType": "bytes",
          "name": "data",
          "type": "bytes"
        }
      ],
      "name": "UpgradeToAndCallProposalCreated",
      "type": "event"
    },
    {
      "anonymous": false,
      "inputs": [
        {
          "indexed": false,
          "internalType": "uint256",
          "name": "proposalId",
          "type": "uint256"
        },
        {
          "indexed": false,
          "internalType": "address",
          "name": "target",
          "type": "address"
        },
        {
          "indexed": false,
          "internalType": "address",
          "name": "implementation",
          "type": "address"
        }
      ],
      "name": "UpgradeToProposalCreated",
      "type": "event"
    },
    {
      "inputs": [],
      "name": "gov",
      "outputs": [
        {
          "internalType": "contract SimpleGovernance",
          "name": "",
          "type": "address"
        }
      ],
      "stateMutability": "view",
      "type": "function"
    },
    {
      "inputs": [
        {
          "internalType": "contract SimpleGovernance",
          "name": "_gov",
          "type": "address"
        }
      ],
      "name": "initGov",
      "outputs": [],
      "stateMutability": "nonpayable",
      "type": "function"
    },
    {
      "inputs": [
        {
          "internalType": "address",
          "name": "_target",
          "type": "address"
        },
        {
          "internalType": "address",
          "name": "_proxy",
          "type": "address"
        },
        {
          "internalType": "address",
          "name": "_newAdmin",
          "type": "address"
        }
      ],
      "name": "proposeChangeProxyAdmin",
      "outputs": [],
      "stateMutability": "nonpayable",
      "type": "function"
    },
    {
      "inputs": [
        {
          "internalType": "address",
          "name": "_target",
          "type": "address"
        },
        {
          "internalType": "address",
          "name": "_token",
          "type": "address"
        },
        {
          "internalType": "uint256",
          "name": "_amount",
          "type": "uint256"
        }
      ],
      "name": "proposeDrainToken",
      "outputs": [],
      "stateMutability": "nonpayable",
      "type": "function"
    },
    {
      "inputs": [
        {
          "internalType": "address",
          "name": "_target",
          "type": "address"
        },
        {
          "internalType": "uint256",
          "name": "_period",
          "type": "uint256"
        }
      ],
      "name": "proposeIncreaseNoticePeriod",
      "outputs": [],
      "stateMutability": "nonpayable",
      "type": "function"
    },
    {
      "inputs": [
        {
          "internalType": "address",
          "name": "_target",
          "type": "address"
        }
      ],
      "name": "proposeNotifyResetSigners",
      "outputs": [],
      "stateMutability": "nonpayable",
      "type": "function"
    },
    {
      "inputs": [
        {
          "internalType": "address",
          "name": "_target",
          "type": "address"
        },
        {
          "internalType": "address[]",
          "name": "_signers",
          "type": "address[]"
        },
        {
          "internalType": "uint256[]",
          "name": "_powers",
          "type": "uint256[]"
        }
      ],
      "name": "proposeResetSigners",
      "outputs": [],
      "stateMutability": "nonpayable",
      "type": "function"
    },
    {
      "inputs": [
        {
          "internalType": "address",
          "name": "_target",
          "type": "address"
        },
        {
          "internalType": "enum OwnerDataTypes.BridgeType",
          "name": "_bridgeType",
          "type": "uint8"
        },
        {
          "internalType": "address",
          "name": "_bridgeAddr",
          "type": "address"
        }
      ],
      "name": "proposeSetBridgeAddress",
      "outputs": [],
      "stateMutability": "nonpayable",
      "type": "function"
    },
    {
      "inputs": [
        {
          "internalType": "address",
          "name": "_target",
          "type": "address"
        },
        {
          "internalType": "address",
          "name": "_bridgeToken",
          "type": "address"
        },
        {
          "internalType": "uint256",
          "name": "_swapCap",
          "type": "uint256"
        }
      ],
      "name": "proposeSetBridgeTokenSwapCap",
      "outputs": [],
      "stateMutability": "nonpayable",
      "type": "function"
    },
    {
      "inputs": [
        {
          "internalType": "address",
          "name": "_target",
          "type": "address"
        },
        {
          "internalType": "address",
          "name": "_addr",
          "type": "address"
        }
      ],
      "name": "proposeSetGovContract",
      "outputs": [],
      "stateMutability": "nonpayable",
      "type": "function"
    },
    {
      "inputs": [
        {
          "internalType": "address",
          "name": "_target",
          "type": "address"
        },
        {
          "internalType": "uint256",
          "name": "_maxSlashFactor",
          "type": "uint256"
        }
      ],
      "name": "proposeSetMaxSlashFactor",
      "outputs": [],
      "stateMutability": "nonpayable",
      "type": "function"
    },
    {
      "inputs": [
        {
          "internalType": "address",
          "name": "_target",
          "type": "address"
        },
        {
          "internalType": "enum OwnerDataTypes.MsgFeeType",
          "name": "_feeType",
          "type": "uint8"
        },
        {
          "internalType": "uint256",
          "name": "_fee",
          "type": "uint256"
        }
      ],
      "name": "proposeSetMsgFee",
      "outputs": [],
      "stateMutability": "nonpayable",
      "type": "function"
    },
    {
      "inputs": [
        {
          "internalType": "address",
          "name": "_target",
          "type": "address"
        },
        {
          "internalType": "address",
          "name": "_token",
          "type": "address"
        }
      ],
      "name": "proposeSetNativeWrap",
      "outputs": [],
      "stateMutability": "nonpayable",
      "type": "function"
    },
    {
      "inputs": [
        {
          "internalType": "address",
          "name": "_target",
          "type": "address"
        },
        {
          "internalType": "uint256",
          "name": "_usage",
          "type": "uint256"
        }
      ],
      "name": "proposeSetPreExecuteMessageGasUsage",
      "outputs": [],
      "stateMutability": "nonpayable",
      "type": "function"
    },
    {
      "inputs": [
        {
          "internalType": "address",
          "name": "_target",
          "type": "address"
        },
        {
          "internalType": "address",
          "name": "_addr",
          "type": "address"
        }
      ],
      "name": "proposeSetRewardContract",
      "outputs": [],
      "stateMutability": "nonpayable",
      "type": "function"
    },
    {
      "inputs": [
        {
          "internalType": "address",
          "name": "_target",
          "type": "address"
        },
        {
          "internalType": "bool",
          "name": "_enable",
          "type": "bool"
        }
      ],
      "name": "proposeSetWhitelistEnable",
      "outputs": [],
      "stateMutability": "nonpayable",
      "type": "function"
    },
    {
      "inputs": [
        {
          "internalType": "address",
          "name": "_target",
          "type": "address"
        },
        {
          "internalType": "uint256",
          "name": "_newOwner",
          "type": "uint256"
        }
      ],
      "name": "proposeTransferOwnership",
      "outputs": [],
      "stateMutability": "nonpayable",
      "type": "function"
    },
    {
      "inputs": [
        {
          "internalType": "address",
          "name": "_target",
          "type": "address"
        },
        {
          "internalType": "address",
          "name": "_bridge",
          "type": "address"
        },
        {
          "internalType": "uint256",
          "name": "_cap",
          "type": "uint256"
        }
      ],
      "name": "proposeUpdateBridgeSupplyCap",
      "outputs": [],
      "stateMutability": "nonpayable",
      "type": "function"
    },
    {
      "inputs": [
        {
          "internalType": "address",
          "name": "_target",
          "type": "address"
        },
        {
          "internalType": "enum OwnerDataTypes.Action",
          "name": "_action",
          "type": "uint8"
        },
        {
          "internalType": "address",
          "name": "_account",
          "type": "address"
        }
      ],
      "name": "proposeUpdateGovernor",
      "outputs": [],
      "stateMutability": "nonpayable",
      "type": "function"
    },
    {
      "inputs": [
        {
          "internalType": "address",
          "name": "_target",
          "type": "address"
        },
        {
          "internalType": "enum OwnerDataTypes.Action",
          "name": "_action",
          "type": "uint8"
        },
        {
          "internalType": "address",
          "name": "_account",
          "type": "address"
        }
      ],
      "name": "proposeUpdatePauser",
      "outputs": [],
      "stateMutability": "nonpayable",
      "type": "function"
    },
    {
      "inputs": [
        {
          "internalType": "address",
          "name": "_target",
          "type": "address"
        },
        {
          "internalType": "enum OwnerDataTypes.Action",
          "name": "_action",
          "type": "uint8"
        },
        {
          "internalType": "address",
          "name": "_token",
          "type": "address"
        },
        {
          "internalType": "uint256",
          "name": "_supply",
          "type": "uint256"
        }
      ],
      "name": "proposeUpdateSupply",
      "outputs": [],
      "stateMutability": "nonpayable",
      "type": "function"
    },
    {
      "inputs": [
        {
          "internalType": "address",
          "name": "_target",
          "type": "address"
        },
        {
          "internalType": "enum OwnerDataTypes.Action",
          "name": "_action",
          "type": "uint8"
        },
        {
          "internalType": "address",
          "name": "_account",
          "type": "address"
        }
      ],
      "name": "proposeUpdateWhitelisted",
      "outputs": [],
      "stateMutability": "nonpayable",
      "type": "function"
    },
    {
      "inputs": [
        {
          "internalType": "address",
          "name": "_target",
          "type": "address"
        },
        {
          "internalType": "address",
          "name": "_proxy",
          "type": "address"
        },
        {
          "internalType": "address",
          "name": "_implementation",
          "type": "address"
        }
      ],
      "name": "proposeUpgrade",
      "outputs": [],
      "stateMutability": "nonpayable",
      "type": "function"
    },
    {
      "inputs": [
        {
          "internalType": "address",
          "name": "_target",
          "type": "address"
        },
        {
          "internalType": "address",
          "name": "_proxy",
          "type": "address"
        },
        {
          "internalType": "address",
          "name": "_implementation",
          "type": "address"
        },
        {
          "internalType": "bytes",
          "name": "_data",
          "type": "bytes"
        }
      ],
      "name": "proposeUpgradeAndCall",
      "outputs": [],
      "stateMutability": "nonpayable",
      "type": "function"
    },
    {
      "inputs": [
        {
          "internalType": "address",
          "name": "_target",
          "type": "address"
        },
        {
          "internalType": "address",
          "name": "_implementation",
          "type": "address"
        }
      ],
      "name": "proposeUpgradeTo",
      "outputs": [],
      "stateMutability": "nonpayable",
      "type": "function"
    },
    {
      "inputs": [
        {
          "internalType": "address",
          "name": "_target",
          "type": "address"
        },
        {
          "internalType": "address",
          "name": "_implementation",
          "type": "address"
        },
        {
          "internalType": "bytes",
          "name": "_data",
          "type": "bytes"
        }
      ],
      "name": "proposeUpgradeToAndCall",
      "outputs": [],
      "stateMutability": "nonpayable",
      "type": "function"
    }
  ],
  "transactionHash": "0x8065f88ba8f38fe4e335050bde5a8f4e29c02425c0831ff2e44835c709665d72",
  "args": [
    "0x1b9dFC56e38b0F92448659C114e2347Bd803911c"
  ],
  "numDeployments": 2,
  "solcInputHash": "7271e9e763da6a4b7be6e607eb5c194d",
  "bytecode": "0x60806040523480156200001157600080fd5b5060405162002b8338038062002b8383398101604081905262000034916200005a565b600180546001600160a01b0319166001600160a01b03929092169190911790556200008c565b6000602082840312156200006d57600080fd5b81516001600160a01b03811681146200008557600080fd5b9392505050565b612ae7806200009c6000396000f3fe608060405234801561001057600080fd5b50600436106101ad5760003560e01c806377e96d21116100ee578063a71ac5f011610097578063adf43efb11610071578063adf43efb14610372578063bcf612fc14610385578063d19bf98b14610398578063dc797ce3146103ab57600080fd5b8063a71ac5f014610339578063a9ed9d161461034c578063aa9f79431461035f57600080fd5b806382887e02116100c857806382887e02146103005780639f492e7c14610313578063a2ac8d861461032657600080fd5b806377e96d21146102c757806378a4f076146102da5780637f1f1990146102ed57600080fd5b8063224468a81161015b57806339acf6951161013557806339acf6951461027b57806339f2b6511461028e578063656fe066146102a15780636a5c9358146102b457600080fd5b8063224468a8146102425780632ef754af1461025557806338cd4d091461026857600080fd5b8063173a06f91161018c578063173a06f9146102095780631a6ca6da1461021c5780631de8a0161461022f57600080fd5b8062395f11146101b25780630de54802146101c757806312d43a51146101da575b600080fd5b6101c56101c03660046122c4565b6103be565b005b6101c56101d53660046122f0565b6104d4565b6000546101ed906001600160a01b031681565b6040516001600160a01b03909116815260200160405180910390f35b6101c5610217366004612375565b6105e7565b6101c561022a3660046122f0565b610710565b6101c561023d3660046123f8565b610823565b6101c56102503660046122f0565b610952565b6101c5610263366004612457565b610a65565b6101c56102763660046122c4565b610c32565b6101c56102893660046124e8565b610d3e565b6101c561029c3660046122c4565b610e62565b6101c56102af36600461254d565b610f6e565b6101c56102c23660046122c4565b611111565b6101c56102d5366004612592565b61121d565b6101c56102e83660046125c2565b61133b565b6101c56102fb3660046125f0565b611497565b6101c561030e366004612624565b6116b5565b6101c56103213660046125c2565b6117c9565b6101c5610334366004612657565b611925565b6101c561034736600461267b565b611a22565b6101c561035a366004612657565b611b3a565b6101c561036d3660046123f8565b611c27565b6101c56103803660046125c2565b611d4b565b6101c56103933660046122f0565b611ea7565b6101c56103a6366004612592565b611fba565b6101c56103b9366004612592565b61218e565b60408051602480820184905282518083039091018152604490910182526020810180516001600160e01b0316631a20325760e01b179052600080549251633f52009d60e21b8152919290916001600160a01b039091169063fd4802749061042f903390889087908790600401612710565b602060405180830381600087803b15801561044957600080fd5b505af115801561045d573d6000803e3d6000fd5b505050506040513d601f19601f820116820180604052508101906104819190612790565b604080518281526001600160a01b03871660208201529081018590529091507f170cfbd4ca14e4c07750912ad957e666499c81fdfef63021cde154c6ffaac2d7906060015b60405180910390a150505050565b604080516001600160a01b0383811660248084019190915283518084039091018152604490920183526020820180516001600160e01b0316631a1c1b9560e21b179052600080549351633f52009d60e21b81529293909291169063fd48027490610548903390889087908790600401612710565b602060405180830381600087803b15801561056257600080fd5b505af1158015610576573d6000803e3d6000fd5b505050506040513d601f19601f8201168201806040525081019061059a9190612790565b604080518281526001600160a01b0380881660208301528616918101919091529091507f0440d8b8371306b54b33893631962ccab8e82436d91eb4a2c481454cc2ed4781906060016104c6565b600063a7bdf45a60e01b858585856040516024016106089493929190612841565b60408051601f198184030181529181526020820180516001600160e01b03166001600160e01b031990941693909317909252600080549251633f52009d60e21b8152919350916001600160a01b03169063fd480274906106729033908b9087908790600401612710565b602060405180830381600087803b15801561068c57600080fd5b505af11580156106a0573d6000803e3d6000fd5b505050506040513d601f19601f820116820180604052508101906106c49190612790565b90507f4c42642dbb775b1ef06ad1492581510de04ccfb5ad078338d6ae369b56f356a08188888888886040516106ff96959493929190612873565b60405180910390a150505050505050565b604080516001600160a01b0383811660248084019190915283518084039091018152604490920183526020820180516001600160e01b0316631b2ce7f360e11b179052600080549351633f52009d60e21b81529293909291169063fd48027490610784903390889087908790600401612710565b602060405180830381600087803b15801561079e57600080fd5b505af11580156107b2573d6000803e3d6000fd5b505050506040513d601f19601f820116820180604052508101906107d69190612790565b604080518281526001600160a01b0380881660208301528616918101919091529091507f322efec8297181586148e7711ed39e230b706795edf152fd4e3a3a8fc009d33b906060016104c6565b604080516001600160a01b03848116602483015283811660448084019190915283518084039091018152606490920183526020820180516001600160e01b0316633f7f93af60e11b179052600080549351633f52009d60e21b81529293909291169063fd4802749061089f903390899087908790600401612710565b602060405180830381600087803b1580156108b957600080fd5b505af11580156108cd573d6000803e3d6000fd5b505050506040513d601f19601f820116820180604052508101906108f19190612790565b604080518281526001600160a01b0380891660208301528088169282019290925290851660608201529091507f892ed68a932643ffae382937ae40947f858726f5014c80e6612255d981508090906080015b60405180910390a15050505050565b604080516001600160a01b0383811660248084019190915283518084039091018152604490920183526020820180516001600160e01b0316634ffc800d60e11b179052600080549351633f52009d60e21b81529293909291169063fd480274906109c6903390889087908790600401612710565b602060405180830381600087803b1580156109e057600080fd5b505af11580156109f4573d6000803e3d6000fd5b505050506040513d601f19601f82011682018060405250810190610a189190612790565b604080518281526001600160a01b0380881660208301528616918101919091529091507f0691c48365957fae1547e6922078da4127a4ec5beedd4aca7b80a5c793722556906060016104c6565b600080846002811115610a7a57610a7a6126e6565b1415610a8e5750632d3633b760e21b610b2b565b6001846002811115610aa257610aa26126e6565b1415610ab65750633cfe6c7760e11b610b2b565b6002846002811115610aca57610aca6126e6565b1415610ade575063057425d760e21b610b2b565b60405162461bcd60e51b815260206004820152600e60248201527f696e76616c696420616374696f6e00000000000000000000000000000000000060448201526064015b60405180910390fd5b604080516001600160a01b038581166024830152604480830186905283518084039091018152606490920183526020820180516001600160e01b03166001600160e01b03198616179052600080549351633f52009d60e21b81529293909291169063fd48027490610ba79033908b908790600190600401612710565b602060405180830381600087803b158015610bc157600080fd5b505af1158015610bd5573d6000803e3d6000fd5b505050506040513d601f19601f82011682018060405250810190610bf99190612790565b90507f68a1245119792f0c0b4396c9d85ed7e432c53279527235d14c64bc4e801d2bb081888888886040516106ff9594939291906128cc565b60408051602480820184905282518083039091018152604490910182526020810180516001600160e01b0316634586f33160e01b179052600080549251633f52009d60e21b8152919290916001600160a01b039091169063fd48027490610ca3903390889087908790600401612710565b602060405180830381600087803b158015610cbd57600080fd5b505af1158015610cd1573d6000803e3d6000fd5b505050506040513d601f19601f82011682018060405250810190610cf59190612790565b604080518281526001600160a01b03871660208201529081018590529091507fa140c5e7d56a62eaaaa3aeb3b9d49c5fc85004d8d25920be0bce5e08a0b7ec9b906060016104c6565b6000634f1ef28660e01b848484604051602401610d5d9392919061292e565b60408051601f198184030181529181526020820180516001600160e01b03166001600160e01b031990941693909317909252600080549251633f52009d60e21b8152919350916001600160a01b03169063fd48027490610dc79033908a9087908790600401612710565b602060405180830381600087803b158015610de157600080fd5b505af1158015610df5573d6000803e3d6000fd5b505050506040513d601f19601f82011682018060405250810190610e199190612790565b90507f7936bef0e4e9424795215dbcddd145b5f6ccbe6d35ed9ceacc3c9cec1b1a1ed18187878787604051610e52959493929190612951565b60405180910390a1505050505050565b60408051602480820184905282518083039091018152604490910182526020810180516001600160e01b0316637906491560e11b179052600080549251633f52009d60e21b8152919290916001600160a01b039091169063fd48027490610ed3903390889087908790600401612710565b602060405180830381600087803b158015610eed57600080fd5b505af1158015610f01573d6000803e3d6000fd5b505050506040513d601f19601f82011682018060405250810190610f259190612790565b604080518281526001600160a01b03871660208201529081018590529091507f27cc981a956034897b297d307eaa4e907654717913a238daf3e32a5bd0e18aea906060016104c6565b600080836001811115610f8357610f836126e6565b1415610f97575063e2c1ed2560e01b611007565b6001836001811115610fab57610fab6126e6565b1415610fbf575063036145eb60e11b611007565b60405162461bcd60e51b815260206004820152601060248201527f696e76616c6964206665652074797065000000000000000000000000000000006044820152606401610b22565b6000818360405160240161101d91815260200190565b60408051601f198184030181529181526020820180516001600160e01b03166001600160e01b031990941693909317909252600080549251633f52009d60e21b8152919350916001600160a01b03169063fd480274906110889033908a908790600190600401612710565b602060405180830381600087803b1580156110a257600080fd5b505af11580156110b6573d6000803e3d6000fd5b505050506040513d601f19601f820116820180604052508101906110da9190612790565b90507f924ed1dc9162d297ef826f4eb457b22796e62033fea2fb6f201c13661d04c64181878787604051610e529493929190612984565b60408051602480820184905282518083039091018152604490910182526020810180516001600160e01b031663f2fde38b60e01b179052600080549251633f52009d60e21b8152919290916001600160a01b039091169063fd48027490611182903390889087908790600401612710565b602060405180830381600087803b15801561119c57600080fd5b505af11580156111b0573d6000803e3d6000fd5b505050506040513d601f19601f820116820180604052508101906111d49190612790565b604080518281526001600160a01b03871660208201529081018590529091507f2e7f126e99465c6c540098e0eca13d2fc8d71908debbf31d908bee17e2866d0c906060016104c6565b604080516001600160a01b038481166024830152604480830185905283518084039091018152606490920183526020820180516001600160e01b031663cd04611960e01b179052600080549351633f52009d60e21b81529293909291169063fd48027490611295903390899087908790600401612710565b602060405180830381600087803b1580156112af57600080fd5b505af11580156112c3573d6000803e3d6000fd5b505050506040513d601f19601f820116820180604052508101906112e79190612790565b604080518281526001600160a01b038089166020830152871691810191909152606081018590529091507fbbf294b7b2aadbd73c0198ccea847bbc640871eb1ad2a0b01ac080d077f088e790608001610943565b60006001836002811115611351576113516126e6565b141561136557506320b707b160e21b611389565b6002836002811115611379576113796126e6565b1415610ade5750636b2c0f5560e01b5b6040516001600160a01b0383166024820152600090829060440160408051601f198184030181529181526020820180516001600160e01b03166001600160e01b031990941693909317909252600080549251633f52009d60e21b8152919350916001600160a01b03169063fd4802749061140e9033908a908790600190600401612710565b602060405180830381600087803b15801561142857600080fd5b505af115801561143c573d6000803e3d6000fd5b505050506040513d601f19601f820116820180604052508101906114609190612790565b90507f9fe02e73a05d9dc9d3f3cb9423f6531a055a6083c43978dc2b64d6e505e4366581878787604051610e5294939291906129bc565b6000808360048111156114ac576114ac6126e6565b14156114c0575063588be02b60e01b6115a8565b60018360048111156114d4576114d46126e6565b14156114e857506301e5ff3360e11b6115a8565b60028360048111156114fc576114fc6126e6565b14156115105750639b05a77560e01b6115a8565b6003836004811115611524576115246126e6565b14156115385750634177ea8160e11b6115a8565b600483600481111561154c5761154c6126e6565b1415611560575063f83b0fb960e01b6115a8565b60405162461bcd60e51b815260206004820152601360248201527f696e76616c6964206272696467652074797065000000000000000000000000006044820152606401610b22565b6040516001600160a01b0383166024820152600090829060440160408051601f198184030181529181526020820180516001600160e01b03166001600160e01b031990941693909317909252600080549251633f52009d60e21b8152919350916001600160a01b03169063fd4802749061162c9033908a9087908790600401612710565b602060405180830381600087803b15801561164657600080fd5b505af115801561165a573d6000803e3d6000fd5b505050506040513d601f19601f8201168201806040525081019061167e9190612790565b90507f1605f3e8c96ab34dc0790b6937e2f0c59bb340db6e689a77bc500789d32314f881878787604051610e5294939291906129f3565b6040805182151560248083019190915282518083039091018152604490910182526020810180516001600160e01b0316630296cf3f60e11b179052600080549251633f52009d60e21b8152919290916001600160a01b039091169063fd4802749061172a903390889087908790600401612710565b602060405180830381600087803b15801561174457600080fd5b505af1158015611758573d6000803e3d6000fd5b505050506040513d601f19601f8201168201806040525081019061177c9190612790565b604080518281526001600160a01b0387166020820152851515918101919091529091507fb415e98e9740cf326dbeb0b43f0fa7d742ab13c6c2fc4e0042b6289cca074526906060016104c6565b600060018360028111156117df576117df6126e6565b14156117f357506310154bad60e01b611817565b6002836002811115611807576118076126e6565b1415610ade575063291d954960e01b5b6040516001600160a01b0383166024820152600090829060440160408051601f198184030181529181526020820180516001600160e01b03166001600160e01b031990941693909317909252600080549251633f52009d60e21b8152919350916001600160a01b03169063fd4802749061189c9033908a908790600190600401612710565b602060405180830381600087803b1580156118b657600080fd5b505af11580156118ca573d6000803e3d6000fd5b505050506040513d601f19601f820116820180604052508101906118ee9190612790565b90507f4336c9be2e5abfad187a39a7f7346158c644f54824688bb5a5b335f9306fb9bb81878787604051610e5294939291906129bc565b6040805160048082526024820183526020820180516001600160e01b03166325c38b9f60e01b179052600080549351633f52009d60e21b8152929390926001600160a01b039091169163fd480274916119879133918891889160019101612710565b602060405180830381600087803b1580156119a157600080fd5b505af11580156119b5573d6000803e3d6000fd5b505050506040513d601f19601f820116820180604052508101906119d99190612790565b604080518281526001600160a01b03861660208201529192507f149a32d950b4bc0cb34725d5a842addc6f3e428807357a578301e078cc644357910160405180910390a1505050565b6000639623609d60e01b85858585604051602401611a439493929190612a33565b60408051601f198184030181529181526020820180516001600160e01b03166001600160e01b031990941693909317909252600080549251633f52009d60e21b8152919350916001600160a01b03169063fd48027490611aad9033908b9087908790600401612710565b602060405180830381600087803b158015611ac757600080fd5b505af1158015611adb573d6000803e3d6000fd5b505050506040513d601f19601f82011682018060405250810190611aff9190612790565b90507ff6b46465ce70c6b53ccde6e33cdd45c1906ded1e8553ff64ebdadf97d3ac29518188888888886040516106ff96959493929190612a6a565b6001546001600160a01b03163314611b945760405162461bcd60e51b815260206004820152601960248201527f6f6e6c7920696e697469616c697a65722063616e20696e6974000000000000006044820152606401610b22565b6000546001600160a01b031615611bed5760405162461bcd60e51b815260206004820152601460248201527f676f76206164647220616c7265616479207365740000000000000000000000006044820152606401610b22565b600080547fffffffffffffffffffffffff0000000000000000000000000000000000000000166001600160a01b0392909216919091179055565b604080516001600160a01b03848116602483015283811660448084019190915283518084039091018152606490920183526020820180516001600160e01b031663266a23b160e21b179052600080549351633f52009d60e21b81529293909291169063fd48027490611ca3903390899087908790600401612710565b602060405180830381600087803b158015611cbd57600080fd5b505af1158015611cd1573d6000803e3d6000fd5b505050506040513d601f19601f82011682018060405250810190611cf59190612790565b604080518281526001600160a01b0380891660208301528088169282019290925290851660608201529091507fc1dead51ac2e9fa286784eeefebacaf915332934c6d6fd290ec2c8de51c7863290608001610943565b60006001836002811115611d6157611d616126e6565b1415611d7557506303c4a25d60e41b611d99565b6002836002811115611d8957611d896126e6565b1415610ade5750631dd9b59160e31b5b6040516001600160a01b0383166024820152600090829060440160408051601f198184030181529181526020820180516001600160e01b03166001600160e01b031990941693909317909252600080549251633f52009d60e21b8152919350916001600160a01b03169063fd48027490611e1e9033908a908790600190600401612710565b602060405180830381600087803b158015611e3857600080fd5b505af1158015611e4c573d6000803e3d6000fd5b505050506040513d601f19601f82011682018060405250810190611e709190612790565b90507f725ab9c9498b34fa1336448b0dc8dfb419461e03707ace510d44e8bb63d8485181878787604051610e5294939291906129bc565b604080516001600160a01b0383811660248084019190915283518084039091018152604490920183526020820180516001600160e01b03166328a8478560e11b179052600080549351633f52009d60e21b81529293909291169063fd48027490611f1b903390889087908790600401612710565b602060405180830381600087803b158015611f3557600080fd5b505af1158015611f49573d6000803e3d6000fd5b505050506040513d601f19601f82011682018060405250810190611f6d9190612790565b604080518281526001600160a01b0380881660208301528616918101919091529091507f8aaee1ae0ee9b8019d672115e172cd8fd03686f0f117ce65aa0ed224ca6d12b3906060016104c6565b60606001600160a01b0383166120385750604080518082018252601281527f647261696e546f6b656e2875696e74323536000000000000000000000000000060209182015281516024808201859052835180830390910181526044909101909252810180516001600160e01b031663a76cd1bb60e01b1790526120b1565b50604080518082018252601a81527f647261696e546f6b656e28616464726573732c75696e7432353600000000000060209182015281516001600160a01b03851660248201526044808201859052835180830390910181526064909101909252810180516001600160e01b0316634dd256db60e11b1790525b60008054604051633f52009d60e21b81526001600160a01b039091169063fd480274906120e8903390899087908790600401612710565b602060405180830381600087803b15801561210257600080fd5b505af1158015612116573d6000803e3d6000fd5b505050506040513d601f19601f8201168201806040525081019061213a9190612790565b604080518281526001600160a01b038089166020830152871691810191909152606081018590529091507f07315b20d3a4862680a34cedf6a8b62bd45bdf98fa602f664417d8a84d47c1bc90608001610943565b604080516001600160a01b038481166024830152604480830185905283518084039091018152606490920183526020820180516001600160e01b03166326717b8d60e11b179052600080549351633f52009d60e21b81529293909291169063fd48027490612206903390899087908790600401612710565b602060405180830381600087803b15801561222057600080fd5b505af1158015612234573d6000803e3d6000fd5b505050506040513d601f19601f820116820180604052508101906122589190612790565b604080518281526001600160a01b038089166020830152871691810191909152606081018590529091507fdf93094bf7ed4f11758b798f8463ab250ae3db9edc392c26b92443f3cf73100490608001610943565b6001600160a01b03811681146122c157600080fd5b50565b600080604083850312156122d757600080fd5b82356122e2816122ac565b946020939093013593505050565b6000806040838503121561230357600080fd5b823561230e816122ac565b9150602083013561231e816122ac565b809150509250929050565b60008083601f84011261233b57600080fd5b50813567ffffffffffffffff81111561235357600080fd5b6020830191508360208260051b850101111561236e57600080fd5b9250929050565b60008060008060006060868803121561238d57600080fd5b8535612398816122ac565b9450602086013567ffffffffffffffff808211156123b557600080fd5b6123c189838a01612329565b909650945060408801359150808211156123da57600080fd5b506123e788828901612329565b969995985093965092949392505050565b60008060006060848603121561240d57600080fd5b8335612418816122ac565b92506020840135612428816122ac565b91506040840135612438816122ac565b809150509250925092565b80356003811061245257600080fd5b919050565b6000806000806080858703121561246d57600080fd5b8435612478816122ac565b935061248660208601612443565b92506040850135612496816122ac565b9396929550929360600135925050565b60008083601f8401126124b857600080fd5b50813567ffffffffffffffff8111156124d057600080fd5b60208301915083602082850101111561236e57600080fd5b600080600080606085870312156124fe57600080fd5b8435612509816122ac565b93506020850135612519816122ac565b9250604085013567ffffffffffffffff81111561253557600080fd5b612541878288016124a6565b95989497509550505050565b60008060006060848603121561256257600080fd5b833561256d816122ac565b925060208401356002811061258157600080fd5b929592945050506040919091013590565b6000806000606084860312156125a757600080fd5b83356125b2816122ac565b92506020840135612581816122ac565b6000806000606084860312156125d757600080fd5b83356125e2816122ac565b925061242860208501612443565b60008060006060848603121561260557600080fd5b8335612610816122ac565b925060208401356005811061242857600080fd5b6000806040838503121561263757600080fd5b8235612642816122ac565b91506020830135801515811461231e57600080fd5b60006020828403121561266957600080fd5b8135612674816122ac565b9392505050565b60008060008060006080868803121561269357600080fd5b853561269e816122ac565b945060208601356126ae816122ac565b935060408601356126be816122ac565b9250606086013567ffffffffffffffff8111156126da57600080fd5b6123e7888289016124a6565b634e487b7160e01b600052602160045260246000fd5b6006811061270c5761270c6126e6565b9052565b60006001600160a01b038087168352602081871681850152608060408501528551915081608085015260005b828110156127585786810182015185820160a00152810161273c565b8281111561276a57600060a084870101525b5050601f01601f1916820160a001905061278760608301846126fc565b95945050505050565b6000602082840312156127a257600080fd5b5051919050565b8183526000602080850194508260005b858110156127e75781356127cc816122ac565b6001600160a01b0316875295820195908201906001016127b9565b509495945050505050565b81835260007f07ffffffffffffffffffffffffffffffffffffffffffffffffffffffffffffff83111561282457600080fd5b8260051b8083602087013760009401602001938452509192915050565b6040815260006128556040830186886127a9565b82810360208401526128688185876127f2565b979650505050505050565b8681526001600160a01b038616602082015260806040820152600061289c6080830186886127a9565b82810360608401526128af8185876127f2565b9998505050505050505050565b6003811061270c5761270c6126e6565b8581526001600160a01b03858116602083015260a08201906128f160408401876128bc565b939093166060820152608001529392505050565b81835281816020850137506000828201602090810191909152601f909101601f19169091010190565b6001600160a01b0384168152604060208201526000612787604083018486612905565b85815260006001600160a01b03808716602084015280861660408401525060806060830152612868608083018486612905565b8481526001600160a01b038416602082015260808101600284106129aa576129aa6126e6565b60408201939093526060015292915050565b8481526001600160a01b03848116602083015260808201906129e160408401866128bc565b80841660608401525095945050505050565b8481526001600160a01b038481166020830152608082019060058510612a1b57612a1b6126e6565b84604084015280841660608401525095945050505050565b60006001600160a01b03808716835280861660208401525060606040830152612a60606083018486612905565b9695505050505050565b86815260006001600160a01b038088166020840152808716604084015280861660608401525060a06080830152612aa560a083018486612905565b9897505050505050505056fea2646970667358221220cd73b65b509940334bb91e620ef353f932d88894ac4721bdf2c9427782c3ed2664736f6c63430008090033",
  "devdoc": {
    "kind": "dev",
    "methods": {},
    "version": 1
  },
  "userdoc": {
    "kind": "user",
    "methods": {},
    "version": 1
  },
  "storageLayout": {
    "storage": [
      {
        "astId": 6255,
        "contract": "contracts/governed-owner/GovernedOwnerProxy.sol:GovernedOwnerProxy",
        "label": "gov",
        "offset": 0,
        "slot": "0",
        "type": "t_contract(SimpleGovernance)5131"
      },
      {
        "astId": 6257,
        "contract": "contracts/governed-owner/GovernedOwnerProxy.sol:GovernedOwnerProxy",
        "label": "initializer",
        "offset": 0,
        "slot": "1",
        "type": "t_address"
      }
    ],
    "types": {
      "t_address": {
        "encoding": "inplace",
        "label": "address",
        "numberOfBytes": "20"
      },
      "t_contract(SimpleGovernance)5131": {
        "encoding": "inplace",
        "label": "contract SimpleGovernance",
        "numberOfBytes": "20"
      }
    }
  }
}