{
  "address": "0xaF2438C82578Cc1065661Dc7AC8173382F600279",
  "abi": [
    {
      "anonymous": false,
      "inputs": [
        {
          "indexed": false,
          "internalType": "address",
          "name": "depositor",
          "type": "address"
        },
        {
          "indexed": false,
          "internalType": "address",
          "name": "token",
          "type": "address"
        },
        {
          "indexed": false,
          "internalType": "uint256",
          "name": "amount",
          "type": "uint256"
        }
      ],
      "name": "Deposited",
      "type": "event"
    },
    {
      "anonymous": false,
      "inputs": [
        {
          "indexed": false,
          "internalType": "address",
          "name": "liquidityBridge",
          "type": "address"
        }
      ],
      "name": "LiquidityBridgeUpdated",
      "type": "event"
    },
    {
      "anonymous": false,
      "inputs": [
        {
          "indexed": true,
          "internalType": "address",
          "name": "previousOwner",
          "type": "address"
        },
        {
          "indexed": true,
          "internalType": "address",
          "name": "newOwner",
          "type": "address"
        }
      ],
      "name": "OwnershipTransferred",
      "type": "event"
    },
    {
      "anonymous": false,
      "inputs": [
        {
          "indexed": false,
          "internalType": "address",
          "name": "account",
          "type": "address"
        }
      ],
      "name": "Paused",
      "type": "event"
    },
    {
      "anonymous": false,
      "inputs": [
        {
          "indexed": false,
          "internalType": "address",
          "name": "account",
          "type": "address"
        }
      ],
      "name": "PauserAdded",
      "type": "event"
    },
    {
      "anonymous": false,
      "inputs": [
        {
          "indexed": false,
          "internalType": "address",
          "name": "account",
          "type": "address"
        }
      ],
      "name": "PauserRemoved",
      "type": "event"
    },
    {
      "anonymous": false,
      "inputs": [
        {
          "indexed": false,
          "internalType": "address",
          "name": "pegBridge",
          "type": "address"
        }
      ],
      "name": "PegBridgeUpdated",
      "type": "event"
    },
    {
      "anonymous": false,
      "inputs": [
        {
          "indexed": false,
          "internalType": "address",
          "name": "pegBridgeV2",
          "type": "address"
        }
      ],
      "name": "PegBridgeV2Updated",
      "type": "event"
    },
    {
      "anonymous": false,
      "inputs": [
        {
          "indexed": false,
          "internalType": "address",
          "name": "pegVault",
          "type": "address"
        }
      ],
      "name": "PegVaultUpdated",
      "type": "event"
    },
    {
      "anonymous": false,
      "inputs": [
        {
          "indexed": false,
          "internalType": "address",
          "name": "pegVaultV2",
          "type": "address"
        }
      ],
      "name": "PegVaultV2Updated",
      "type": "event"
    },
    {
      "anonymous": false,
      "inputs": [
        {
          "indexed": false,
          "internalType": "address",
          "name": "account",
          "type": "address"
        }
      ],
      "name": "Unpaused",
      "type": "event"
    },
    {
      "inputs": [
        {
          "internalType": "address",
          "name": "account",
          "type": "address"
        }
      ],
      "name": "addPauser",
      "outputs": [],
      "stateMutability": "nonpayable",
      "type": "function"
    },
    {
      "inputs": [
        {
          "internalType": "enum BridgeSenderLib.BridgeType",
          "name": "",
          "type": "uint8"
        }
      ],
      "name": "bridges",
      "outputs": [
        {
          "internalType": "address",
          "name": "",
          "type": "address"
        }
      ],
      "stateMutability": "view",
      "type": "function"
    },
    {
      "inputs": [
        {
          "internalType": "address",
          "name": "_token",
          "type": "address"
        },
        {
          "internalType": "uint256",
          "name": "_amount",
          "type": "uint256"
        }
      ],
      "name": "deposit",
      "outputs": [],
      "stateMutability": "nonpayable",
      "type": "function"
    },
    {
      "inputs": [
        {
          "internalType": "address",
          "name": "account",
          "type": "address"
        }
      ],
      "name": "isPauser",
      "outputs": [
        {
          "internalType": "bool",
          "name": "",
          "type": "bool"
        }
      ],
      "stateMutability": "view",
      "type": "function"
    },
    {
      "inputs": [],
      "name": "owner",
      "outputs": [
        {
          "internalType": "address",
          "name": "",
          "type": "address"
        }
      ],
      "stateMutability": "view",
      "type": "function"
    },
    {
      "inputs": [],
      "name": "pause",
      "outputs": [],
      "stateMutability": "nonpayable",
      "type": "function"
    },
    {
      "inputs": [],
      "name": "paused",
      "outputs": [
        {
          "internalType": "bool",
          "name": "",
          "type": "bool"
        }
      ],
      "stateMutability": "view",
      "type": "function"
    },
    {
      "inputs": [
        {
          "internalType": "address",
          "name": "",
          "type": "address"
        }
      ],
      "name": "pausers",
      "outputs": [
        {
          "internalType": "bool",
          "name": "",
          "type": "bool"
        }
      ],
      "stateMutability": "view",
      "type": "function"
    },
    {
      "inputs": [
        {
          "internalType": "bytes32",
          "name": "",
          "type": "bytes32"
        }
      ],
      "name": "records",
      "outputs": [
        {
          "internalType": "address",
          "name": "",
          "type": "address"
        }
      ],
      "stateMutability": "view",
      "type": "function"
    },
    {
      "inputs": [
        {
          "internalType": "bytes",
          "name": "_request",
          "type": "bytes"
        },
        {
          "internalType": "bytes[]",
          "name": "_sigs",
          "type": "bytes[]"
        },
        {
          "internalType": "address[]",
          "name": "_signers",
          "type": "address[]"
        },
        {
          "internalType": "uint256[]",
          "name": "_powers",
          "type": "uint256[]"
        },
        {
          "internalType": "enum BridgeSenderLib.BridgeType",
          "name": "_bridgeType",
          "type": "uint8"
        }
      ],
      "name": "refund",
      "outputs": [
        {
          "internalType": "bytes32",
          "name": "",
          "type": "bytes32"
        }
      ],
      "stateMutability": "nonpayable",
      "type": "function"
    },
    {
      "inputs": [
        {
          "internalType": "address",
          "name": "account",
          "type": "address"
        }
      ],
      "name": "removePauser",
      "outputs": [],
      "stateMutability": "nonpayable",
      "type": "function"
    },
    {
      "inputs": [],
      "name": "renounceOwnership",
      "outputs": [],
      "stateMutability": "nonpayable",
      "type": "function"
    },
    {
      "inputs": [],
      "name": "renouncePauser",
      "outputs": [],
      "stateMutability": "nonpayable",
      "type": "function"
    },
    {
      "inputs": [
        {
          "internalType": "address",
          "name": "_addr",
          "type": "address"
        }
      ],
      "name": "setLiquidityBridge",
      "outputs": [],
      "stateMutability": "nonpayable",
      "type": "function"
    },
    {
      "inputs": [
        {
          "internalType": "address",
          "name": "_addr",
          "type": "address"
        }
      ],
      "name": "setPegBridge",
      "outputs": [],
      "stateMutability": "nonpayable",
      "type": "function"
    },
    {
      "inputs": [
        {
          "internalType": "address",
          "name": "_addr",
          "type": "address"
        }
      ],
      "name": "setPegBridgeV2",
      "outputs": [],
      "stateMutability": "nonpayable",
      "type": "function"
    },
    {
      "inputs": [
        {
          "internalType": "address",
          "name": "_addr",
          "type": "address"
        }
      ],
      "name": "setPegVault",
      "outputs": [],
      "stateMutability": "nonpayable",
      "type": "function"
    },
    {
      "inputs": [
        {
          "internalType": "address",
          "name": "_addr",
          "type": "address"
        }
      ],
      "name": "setPegVaultV2",
      "outputs": [],
      "stateMutability": "nonpayable",
      "type": "function"
    },
    {
      "inputs": [
        {
          "internalType": "address",
          "name": "_receiver",
          "type": "address"
        },
        {
          "internalType": "address",
          "name": "_token",
          "type": "address"
        },
        {
          "internalType": "uint256",
          "name": "_amount",
          "type": "uint256"
        },
        {
          "internalType": "uint64",
          "name": "_dstChainId",
          "type": "uint64"
        },
        {
          "internalType": "uint64",
          "name": "_nonce",
          "type": "uint64"
        },
        {
          "internalType": "uint32",
          "name": "_maxSlippage",
          "type": "uint32"
        },
        {
          "internalType": "enum BridgeSenderLib.BridgeType",
          "name": "_bridgeType",
          "type": "uint8"
        }
      ],
      "name": "transfer",
      "outputs": [
        {
          "internalType": "bytes32",
          "name": "",
          "type": "bytes32"
        }
      ],
      "stateMutability": "nonpayable",
      "type": "function"
    },
    {
      "inputs": [
        {
          "internalType": "address",
          "name": "newOwner",
          "type": "address"
        }
      ],
      "name": "transferOwnership",
      "outputs": [],
      "stateMutability": "nonpayable",
      "type": "function"
    },
    {
      "inputs": [],
      "name": "unpause",
      "outputs": [],
      "stateMutability": "nonpayable",
      "type": "function"
    }
  ],
  "transactionHash": "0xc54a67bf52898ba17ded644a97d18d9d5c3ced2ba9c6d19fbca46d7ea8705614",
  "args": [],
  "solcInputHash": "9d4b58abe3a79af5bf76169071b93aa8",
  "bytecode": "0x60806040523480156200001157600080fd5b506001600055620000223362000040565b6001805460ff60a01b191690556200003a3362000092565b6200015a565b600180546001600160a01b038381166001600160a01b0319831681179093556040519116919082907f8be0079c531659141344cd1fd0a4f28419497f9722a3daafe3b4186f6b6457e090600090a35050565b6001600160a01b03811660009081526002602052604090205460ff1615620001005760405162461bcd60e51b815260206004820152601960248201527f4163636f756e7420697320616c72656164792070617573657200000000000000604482015260640160405180910390fd5b6001600160a01b038116600081815260026020908152604091829020805460ff1916600117905590519182527f6719d08c1888103bea251a4ed56406bd0c3e69723c8a1686e017e7bbe159b6f8910160405180910390a150565b6135be806200016a6000396000f3fe608060405234801561001057600080fd5b50600436106101775760003560e01c80636ef8d66d116100d857806382efd5021161008c5780639b05a775116100665780639b05a77514610335578063f2fde38b14610348578063f83b0fb91461035b57600080fd5b806382efd502146103095780638456cb591461031c5780638da5cb5b1461032457600080fd5b806380f51c12116100bd57806380f51c12146102c057806381cc8677146102e357806382dc1ec4146102f657600080fd5b80636ef8d66d146102b0578063715018a6146102b857600080fd5b806347e7ef241161012f5780635c975abb116101145780635c975abb1461026257806365d67c33146102745780636b2c0f551461029d57600080fd5b806347e7ef241461023c578063588be02b1461024f57600080fd5b80631edeeb23116101605780631edeeb23146101d75780633f4ba83a146101f857806346fbf68e1461020057600080fd5b806301e647251461017c57806303cbfe66146101c2575b600080fd5b6101a561018a366004612fb3565b6004602052600090815260409020546001600160a01b031681565b6040516001600160a01b0390911681526020015b60405180910390f35b6101d56101d0366004612fe8565b61036e565b005b6101ea6101e536600461305e565b610481565b6040519081526020016101b9565b6101d56107a9565b61022c61020e366004612fe8565b6001600160a01b031660009081526002602052604090205460ff1690565b60405190151581526020016101b9565b6101d561024a36600461315d565b610812565b6101d561025d366004612fe8565b610966565b600154600160a01b900460ff1661022c565b6101a5610282366004613187565b6003602052600090815260409020546001600160a01b031681565b6101d56102ab366004612fe8565b610a6d565b6101d5610ac1565b6101d5610aca565b61022c6102ce366004612fe8565b60026020526000908152604090205460ff1681565b6101ea6102f13660046131ba565b610b1c565b6101d5610304366004612fe8565b610d48565b6101d5610317366004612fe8565b610d99565b6101d5610ea0565b6001546001600160a01b03166101a5565b6101d5610343366004612fe8565b610f07565b6101d5610356366004612fe8565b61100e565b6101d5610369366004612fe8565b6110db565b6001546001600160a01b031633146103bb5760405162461bcd60e51b8152602060048201819052602482015260008051602061356983398151915260448201526064015b60405180910390fd5b6001600160a01b0381166104035760405162461bcd60e51b815260206004820152600f60248201526e696e76616c6964206164647265737360881b60448201526064016103b2565b6003600081905260209081527fcbc4e5fb02c3d1de23a9f1e014b4d2ee5aeaea9505df5e855c9210bf472495af80546001600160a01b0319166001600160a01b0384169081179091556040519081527fd60e9ceb4f54f1bfb1741a4b35fc9d806d7ed48200b523203b92248ea38fa17d91015b60405180910390a150565b6000600260005414156104d65760405162461bcd60e51b815260206004820152601f60248201527f5265656e7472616e637947756172643a207265656e7472616e742063616c6c0060448201526064016103b2565b6002600055600154600160a01b900460ff16156105285760405162461bcd60e51b815260206004820152601060248201526f14185d5cd8589b194e881c185d5cd95960821b60448201526064016103b2565b6001546001600160a01b031633146105705760405162461bcd60e51b8152602060048201819052602482015260008051602061356983398151915260448201526064016103b2565b60006003600084600581111561058857610588613244565b600581111561059957610599613244565b81526020810191909152604001600020546001600160a01b03169050806106025760405162461bcd60e51b815260206004820152601360248201527f756e6b6e6f776e2062726964676520747970650000000000000000000000000060448201526064016103b2565b60006106168c8c8c8c8c8c8c8c8c8b6111e2565b60208101519091506001600160a01b031630146106755760405162461bcd60e51b815260206004820152600e60248201527f696e76616c696420726566756e6400000000000000000000000000000000000060448201526064016103b2565b60808101516000908152600460205260409020546001600160a01b0316156106df5760405162461bcd60e51b815260206004820152601060248201527f616c726561647920726566756e6465640000000000000000000000000000000060448201526064016103b2565b80516000908152600460205260409020546001600160a01b0316806107465760405162461bcd60e51b815260206004820152601360248201527f756e6b6e6f776e207472616e736665722069640000000000000000000000000060448201526064016103b2565b60808201516000908152600460205260409081902080546001600160a01b0319166001600160a01b0384811691909117909155606084015191840151610790929116908390611341565b506080015160016000559b9a5050505050505050505050565b3360009081526002602052604090205460ff166108085760405162461bcd60e51b815260206004820152601460248201527f43616c6c6572206973206e6f742070617573657200000000000000000000000060448201526064016103b2565b6108106113d6565b565b600260005414156108655760405162461bcd60e51b815260206004820152601f60248201527f5265656e7472616e637947756172643a207265656e7472616e742063616c6c0060448201526064016103b2565b6002600055600154600160a01b900460ff16156108b75760405162461bcd60e51b815260206004820152601060248201526f14185d5cd8589b194e881c185d5cd95960821b60448201526064016103b2565b6001546001600160a01b031633146108ff5760405162461bcd60e51b8152602060048201819052602482015260008051602061356983398151915260448201526064016103b2565b6109146001600160a01b03831633308461147c565b604080513381526001600160a01b03841660208201529081018290527f8752a472e571a816aea92eec8dae9baf628e840f4929fbcc2d155e6233ff68a79060600160405180910390a150506001600055565b6001546001600160a01b031633146109ae5760405162461bcd60e51b8152602060048201819052602482015260008051602061356983398151915260448201526064016103b2565b6001600160a01b0381166109f65760405162461bcd60e51b815260206004820152600f60248201526e696e76616c6964206164647265737360881b60448201526064016103b2565b6001600052600360209081527fa15bc60c955c405d20d9149c709e2460f1c2d9a497496a7f46004d1772c3054c80546001600160a01b0319166001600160a01b0384169081179091556040519081527fbf9977180dc6e6cff25598c8e59150cecd7f8e448e092633d38ab7ee223ae0589101610476565b6001546001600160a01b03163314610ab55760405162461bcd60e51b8152602060048201819052602482015260008051602061356983398151915260448201526064016103b2565b610abe816114ba565b50565b610810336114ba565b6001546001600160a01b03163314610b125760405162461bcd60e51b8152602060048201819052602482015260008051602061356983398151915260448201526064016103b2565b6108106000611573565b600060026000541415610b715760405162461bcd60e51b815260206004820152601f60248201527f5265656e7472616e637947756172643a207265656e7472616e742063616c6c0060448201526064016103b2565b6002600055600154600160a01b900460ff1615610bc35760405162461bcd60e51b815260206004820152601060248201526f14185d5cd8589b194e881c185d5cd95960821b60448201526064016103b2565b6001546001600160a01b03163314610c0b5760405162461bcd60e51b8152602060048201819052602482015260008051602061356983398151915260448201526064016103b2565b600060036000846005811115610c2357610c23613244565b6005811115610c3457610c34613244565b81526020810191909152604001600020546001600160a01b0316905080610c9d5760405162461bcd60e51b815260206004820152601360248201527f756e6b6e6f776e2062726964676520747970650000000000000000000000000060448201526064016103b2565b6000610caf8a8a8a8a8a8a8a896115c5565b6000818152600460205260409020549091506001600160a01b031615610d175760405162461bcd60e51b815260206004820152600d60248201527f7265636f7264206578697374730000000000000000000000000000000000000060448201526064016103b2565b600081815260046020526040902080546001600160a01b031916331790559150506001600055979650505050505050565b6001546001600160a01b03163314610d905760405162461bcd60e51b8152602060048201819052602482015260008051602061356983398151915260448201526064016103b2565b610abe81611a81565b6001546001600160a01b03163314610de15760405162461bcd60e51b8152602060048201819052602482015260008051602061356983398151915260448201526064016103b2565b6001600160a01b038116610e295760405162461bcd60e51b815260206004820152600f60248201526e696e76616c6964206164647265737360881b60448201526064016103b2565b6005600052600360209081527f405aad32e1adbac89bb7f176e338b8fc6e994ca210c9bb7bdca249b46594225080546001600160a01b0319166001600160a01b0384169081179091556040519081527ffb337a6c76476534518d5816caeb86263972470fedccfd047a35eb1825eaa9e89101610476565b3360009081526002602052604090205460ff16610eff5760405162461bcd60e51b815260206004820152601460248201527f43616c6c6572206973206e6f742070617573657200000000000000000000000060448201526064016103b2565b610810611b3e565b6001546001600160a01b03163314610f4f5760405162461bcd60e51b8152602060048201819052602482015260008051602061356983398151915260448201526064016103b2565b6001600160a01b038116610f975760405162461bcd60e51b815260206004820152600f60248201526e696e76616c6964206164647265737360881b60448201526064016103b2565b6002600052600360209081527fc3a24b0501bd2c13a7e57f2db4369ec4c223447539fc0724a9d55ac4a06ebd4d80546001600160a01b0319166001600160a01b0384169081179091556040519081527fa9db0c32d9c6c2f75f3b95047a9e67cc1c010eab792a4e6ca777ce918ad94aad9101610476565b6001546001600160a01b031633146110565760405162461bcd60e51b8152602060048201819052602482015260008051602061356983398151915260448201526064016103b2565b6001600160a01b0381166110d25760405162461bcd60e51b815260206004820152602660248201527f4f776e61626c653a206e6577206f776e657220697320746865207a65726f206160448201527f646472657373000000000000000000000000000000000000000000000000000060648201526084016103b2565b610abe81611573565b6001546001600160a01b031633146111235760405162461bcd60e51b8152602060048201819052602482015260008051602061356983398151915260448201526064016103b2565b6001600160a01b03811661116b5760405162461bcd60e51b815260206004820152600f60248201526e696e76616c6964206164647265737360881b60448201526064016103b2565b6004600052600360209081527f83ec6a1f0257b830b5e016457c9cf1435391bf56cc98f369a58a54fe9377246580546001600160a01b0319166001600160a01b0384169081179091556040519081527f918a691a2a82482a10e11f43d7b627b2ba220dd08f251cb61933c42560f6fcb59101610476565b6040805160a081018252600080825260208201819052918101829052606081018290526080810191909152600183600581111561122157611221613244565b141561123f576112388b8b8b8b8b8b8b8b8a611bc6565b9050611333565b600283600581111561125357611253613244565b141561126a576112388b8b8b8b8b8b8b8b8a611e11565b600383600581111561127e5761127e613244565b1415611295576112388b8b8b8b8b8b8b8b8a611f90565b60048360058111156112a9576112a9613244565b14156112c0576112388b8b8b8b8b8b8b8b8a61219d565b60058360058111156112d4576112d4613244565b14156112eb576112388b8b8b8b8b8b8b8b8a612433565b60405162461bcd60e51b815260206004820152601960248201527f6272696467652074797065206e6f7420737570706f727465640000000000000060448201526064016103b2565b9a9950505050505050505050565b6040516001600160a01b0383166024820152604481018290526113d190849063a9059cbb60e01b906064015b60408051601f198184030181529190526020810180517bffffffffffffffffffffffffffffffffffffffffffffffffffffffff167fffffffff0000000000000000000000000000000000000000000000000000000090931692909217909152612613565b505050565b600154600160a01b900460ff1661142f5760405162461bcd60e51b815260206004820152601460248201527f5061757361626c653a206e6f742070617573656400000000000000000000000060448201526064016103b2565b6001805460ff60a01b191690557f5db9ee0a495bf2e6ff9c91a7834c1ba4fdd244a5e8aa4e537bd38aeae4b073aa335b6040516001600160a01b03909116815260200160405180910390a1565b6040516001600160a01b03808516602483015283166044820152606481018290526114b49085906323b872dd60e01b9060840161136d565b50505050565b6001600160a01b03811660009081526002602052604090205460ff166115225760405162461bcd60e51b815260206004820152601560248201527f4163636f756e74206973206e6f7420706175736572000000000000000000000060448201526064016103b2565b6001600160a01b038116600081815260026020908152604091829020805460ff1916905590519182527fcd265ebaf09df2871cc7bd4133404a235ba12eff2041bb89d9c714a2621c7c7e9101610476565b600180546001600160a01b038381166001600160a01b0319831681179093556040519116919082907f8be0079c531659141344cd1fd0a4f28419497f9722a3daafe3b4186f6b6457e090600090a35050565b60008060018460058111156115dc576115dc613244565b141561170b576115f66001600160a01b038a16848a6126f8565b60405163a5977fbb60e01b81526001600160a01b038b811660048301528a81166024830152604482018a905267ffffffffffffffff808a1660648401528816608483015263ffffffff871660a483015284169063a5977fbb9060c401600060405180830381600087803b15801561166c57600080fd5b505af1158015611680573d6000803e3d6000fd5b50506040516bffffffffffffffffffffffff1930606090811b821660208401528e811b821660348401528d901b166048820152605c81018b90526001600160c01b031960c08b811b8216607c8401528a811b8216608484015246901b16608c82015260940191506116ee9050565b604051602081830303815290604052805190602001209050611a74565b600284600581111561171f5761171f613244565b1415611839576117396001600160a01b038a16848a6126f8565b6040516308d18d8960e21b81526001600160a01b038a81166004830152602482018a905267ffffffffffffffff808a1660448401528c821660648401528816608483015284169063234636249060a401600060405180830381600087803b1580156117a357600080fd5b505af11580156117b7573d6000803e3d6000fd5b50505050308989898d8a466040516020016116ee9796959493929190606097881b6bffffffffffffffffffffffff19908116825296881b87166014820152602881019590955260c093841b6001600160c01b031990811660488701529290961b909416605084015292811b831660648301529290921b16606c82015260740190565b600384600581111561184d5761184d613244565b141561192d57604051636f3c863f60e11b81526001600160a01b038a81166004830152602482018a90528b8116604483015267ffffffffffffffff8816606483015284169063de790c7e90608401600060405180830381600087803b1580156118b557600080fd5b505af11580156118c9573d6000803e3d6000fd5b50506040516bffffffffffffffffffffffff1930606090811b821660208401528d811b82166034840152604883018d90528e901b1660688201526001600160c01b031960c08a811b8216607c84015246901b166084820152608c0191506116ee9050565b600484600581111561194157611941613244565b1415611a055761195b6001600160a01b038a16848a6126f8565b6040516308d18d8960e21b81526001600160a01b038a81166004830152602482018a905267ffffffffffffffff808a1660448401528c821660648401528816608483015284169063234636249060a4015b602060405180830381600087803b1580156119c657600080fd5b505af11580156119da573d6000803e3d6000fd5b505050506040513d601f19601f820116820180604052508101906119fe919061325a565b9050611a74565b6005846005811115611a1957611a19613244565b14156112eb5760405163a002930160e01b81526001600160a01b038a81166004830152602482018a905267ffffffffffffffff808a1660448401528c821660648401528816608483015284169063a00293019060a4016119ac565b9998505050505050505050565b6001600160a01b03811660009081526002602052604090205460ff1615611aea5760405162461bcd60e51b815260206004820152601960248201527f4163636f756e7420697320616c7265616479207061757365720000000000000060448201526064016103b2565b6001600160a01b038116600081815260026020908152604091829020805460ff1916600117905590519182527f6719d08c1888103bea251a4ed56406bd0c3e69723c8a1686e017e7bbe159b6f89101610476565b600154600160a01b900460ff1615611b8b5760405162461bcd60e51b815260206004820152601060248201526f14185d5cd8589b194e881c185d5cd95960821b60448201526064016103b2565b6001805460ff60a01b1916600160a01b1790557f62e78cea01bee320cd4e420270b5ea74000d11b0c9f74754ebdbfc544b05a25861145f3390565b6040805160a0810182526000808252602082018190529181018290526060810182905260808101919091526040805160a0810182526000808252602082018190529181018290526060810182905260808101919091526000611c5d8c8c8080601f0160208091040260200160405190810160405280939291908181526020018383808284376000920191909152506127b992505050565b8051602080830151604080850151606080870151608088015193516001600160c01b031960c098891b8116978201979097529490961b90941660288401526bffffffffffffffffffffffff1990841b811660308401529390921b9092166044830152605882015290915060780160408051601f198184030181529181528151602092830120608080860182905260a08501518652848301516001600160a01b039081169487019490945260608086015185168785015290850151908601529051631c13568560e31b81529186169163e09ab42891611d419160040190815260200190565b60206040518083038186803b158015611d5957600080fd5b505afa158015611d6d573d6000803e3d6000fd5b505050506040513d601f19601f82011682018060405250810190611d919190613273565b611e0257604051630144352560e71b81526001600160a01b0385169063a21a928090611dcf908f908f908f908f908f908f908f908f90600401613354565b600060405180830381600087803b158015611de957600080fd5b505af1158015611dfd573d6000803e3d6000fd5b505050505b509a9950505050505050505050565b6040805160a0810182526000808252602082018190529181018290526060810182905260808101919091526040805160a0810182526000808252602082018190529181018290526060810182905260808101919091526000611ea88c8c8080601f01602080910402602001604051908101604052809392919081815260200183838082843760009201919091525061291992505050565b6020808201518251604080850151606080870151608088015160a089015194516bffffffffffffffffffffffff1997841b88169881019890985294821b8616603488015260488701929092521b90921660688401526001600160c01b031960c09190911b16607c830152608482015290915060a40160408051601f1981840301815291815281516020928301206080850181905260a08401518552838301516001600160a01b0390811693860193909352835183168583015283820151606086015290516301e6472560e01b8152918616916301e6472591611d419160040190815260200190565b6040805160a0810182526000808252602082018190529181018290526060810182905260808101919091526040805160a08101825260008082526020820181905291810182905260608101829052608081019190915260006120278c8c8080601f016020809104026020016040519081016040528093929190818152602001838380828437600092019190915250612a6492505050565b6020808201518251604080850151606080870151608088015160a089015194516bffffffffffffffffffffffff1997841b88169881019890985294821b8616603488015260488701929092521b90921660688401526001600160c01b031960c09190911b16607c830152608482015290915060a40160408051601f1981840301815291815281516020928301206080850181905260a08401518552838301516001600160a01b0390811693860193909352835183168583015283820151606086015290516301e6472560e01b8152918616916301e647259161210f9160040190815260200190565b60206040518083038186803b15801561212757600080fd5b505afa15801561213b573d6000803e3d6000fd5b505050506040513d601f19601f8201168201806040525081019061215f9190613273565b611e0257604051637c39a18160e11b81526001600160a01b0385169063f873430290611dcf908f908f908f908f908f908f908f908f90600401613354565b6040805160a0810182526000808252602082018190529181018290526060810182905260808101919091526040805160a08101825260008082526020820181905291810182905260608101829052608081019190915260006122348c8c8080601f01602080910402602001604051908101604052809392919081815260200183838082843760009201919091525061291992505050565b60a08101516040516301e6472560e01b81529192506001600160a01b038616916301e647259161226a9160040190815260200190565b60206040518083038186803b15801561228257600080fd5b505afa158015612296573d6000803e3d6000fd5b505050506040513d601f19601f820116820180604052508101906122ba9190613273565b15612361576020808201518251604080850151606080870151608088015160a089015194516bffffffffffffffffffffffff1997841b88169881019890985294821b86166034880152604887019290925290811b841660688601526001600160c01b031960c09390931b92909216607c850152608484015286901b1660a482015260b8015b60408051601f19818403018152919052805160209091012060808301526123f3565b604051630144352560e71b81526001600160a01b0385169063a21a92809061239b908f908f908f908f908f908f908f908f90600401613354565b602060405180830381600087803b1580156123b557600080fd5b505af11580156123c9573d6000803e3d6000fd5b505050506040513d601f19601f820116820180604052508101906123ed919061325a565b60808301525b60a081015182526020808201516001600160a01b0390811691840191909152815116604080840191909152015160608201529a9950505050505050505050565b6040805160a0810182526000808252602082018190529181018290526060810182905260808101919091526040805160a08101825260008082526020820181905291810182905260608101829052608081019190915260006124ca8c8c8080601f016020809104026020016040519081016040528093929190818152602001838380828437600092019190915250612a6492505050565b60a08101516040516301e6472560e01b81529192506001600160a01b038616916301e64725916125009160040190815260200190565b60206040518083038186803b15801561251857600080fd5b505afa15801561252c573d6000803e3d6000fd5b505050506040513d601f19601f820116820180604052508101906125509190613273565b156125d9576020808201518251604080850151606080870151608088015160a089015194516bffffffffffffffffffffffff1997841b88169881019890985294821b86166034880152604887019290925290811b841660688601526001600160c01b031960c09390931b92909216607c850152608484015286901b1660a482015260b80161233f565b604051637c39a18160e11b81526001600160a01b0385169063f87343029061239b908f908f908f908f908f908f908f908f90600401613354565b6000612668826040518060400160405280602081526020017f5361666545524332303a206c6f772d6c6576656c2063616c6c206661696c6564815250856001600160a01b0316612baf9092919063ffffffff16565b8051909150156113d157808060200190518101906126869190613273565b6113d15760405162461bcd60e51b815260206004820152602a60248201527f5361666545524332303a204552433230206f7065726174696f6e20646964206e60448201527f6f7420737563636565640000000000000000000000000000000000000000000060648201526084016103b2565b604051636eb1769f60e11b81523060048201526001600160a01b038381166024830152600091839186169063dd62ed3e9060440160206040518083038186803b15801561274457600080fd5b505afa158015612758573d6000803e3d6000fd5b505050506040513d601f19601f8201168201806040525081019061277c919061325a565b612786919061344c565b6040516001600160a01b0385166024820152604481018290529091506114b490859063095ea7b360e01b9060640161136d565b6040805160c08101825260008082526020808301829052828401829052606083018290526080830182905260a0830182905283518085019094528184528301849052909190805b602083015151835110156129115761281783612bc8565b9092509050816001141561283f5761282e83612c02565b67ffffffffffffffff168452612800565b81600214156128655761285183612c02565b67ffffffffffffffff166020850152612800565b81600314156128925761287f61287a84612c84565b612d41565b6001600160a01b03166040850152612800565b81600414156128ba576128a761287a84612c84565b6001600160a01b03166060850152612800565b81600514156128de576128d46128cf84612c84565b612d52565b6080850152612800565b8160061415612902576128f86128f384612c84565b612d89565b60a0850152612800565b61290c8382612da1565b612800565b505050919050565b6040805160c08101825260008082526020808301829052828401829052606083018290526080830182905260a0830182905283518085019094528184528301849052909190805b602083015151835110156129115761297783612bc8565b909250905081600114156129a15761299161287a84612c84565b6001600160a01b03168452612960565b81600214156129c9576129b661287a84612c84565b6001600160a01b03166020850152612960565b81600314156129e8576129de6128cf84612c84565b6040850152612960565b8160041415612a10576129fd61287a84612c84565b6001600160a01b03166060850152612960565b8160051415612a3657612a2283612c02565b67ffffffffffffffff166080850152612960565b8160061415612a5557612a4b6128f384612c84565b60a0850152612960565b612a5f8382612da1565b612960565b6040805160c08101825260008082526020808301829052828401829052606083018290526080830182905260a0830182905283518085019094528184528301849052909190805b6020830151518351101561291157612ac283612bc8565b90925090508160011415612aec57612adc61287a84612c84565b6001600160a01b03168452612aab565b8160021415612b1457612b0161287a84612c84565b6001600160a01b03166020850152612aab565b8160031415612b3357612b296128cf84612c84565b6040850152612aab565b8160041415612b5b57612b4861287a84612c84565b6001600160a01b03166060850152612aab565b8160051415612b8157612b6d83612c02565b67ffffffffffffffff166080850152612aab565b8160061415612ba057612b966128f384612c84565b60a0850152612aab565b612baa8382612da1565b612aab565b6060612bbe8484600085612e13565b90505b9392505050565b6000806000612bd684612c02565b9050612be3600882613464565b9250806007166005811115612bfa57612bfa613244565b915050915091565b602080820151825181019091015160009182805b600a811015612c7e5783811a9150612c2f816007613486565b82607f16901b851794508160801660001415612c6c57612c5081600161344c565b86518790612c5f90839061344c565b9052509395945050505050565b80612c76816134a5565b915050612c16565b50600080fd5b60606000612c9183612c02565b90506000818460000151612ca5919061344c565b9050836020015151811115612cb957600080fd5b8167ffffffffffffffff811115612cd257612cd26134c0565b6040519080825280601f01601f191660200182016040528015612cfc576020820181803683370190505b50602080860151865192955091818601919083010160005b85811015612d36578181015183820152612d2f60208261344c565b9050612d14565b505050935250919050565b6000612d4c82612f52565b92915050565b6000602082511115612d6357600080fd5b6020820151905081516020612d7891906134d6565b612d83906008613486565b1c919050565b60008151602014612d9957600080fd5b506020015190565b6000816005811115612db557612db5613244565b1415612dc4576113d182612c02565b6002816005811115612dd857612dd8613244565b1415610177576000612de983612c02565b90508083600001818151612dfd919061344c565b905250602083015151835111156113d157600080fd5b606082471015612e8b5760405162461bcd60e51b815260206004820152602660248201527f416464726573733a20696e73756666696369656e742062616c616e636520666f60448201527f722063616c6c000000000000000000000000000000000000000000000000000060648201526084016103b2565b843b612ed95760405162461bcd60e51b815260206004820152601d60248201527f416464726573733a2063616c6c20746f206e6f6e2d636f6e747261637400000060448201526064016103b2565b600080866001600160a01b03168587604051612ef59190613519565b60006040518083038185875af1925050503d8060008114612f32576040519150601f19603f3d011682016040523d82523d6000602084013e612f37565b606091505b5091509150612f47828286612f7a565b979650505050505050565b60008151601414612f6257600080fd5b50602001516c01000000000000000000000000900490565b60608315612f89575081612bc1565b825115612f995782518084602001fd5b8160405162461bcd60e51b81526004016103b29190613535565b600060208284031215612fc557600080fd5b5035919050565b80356001600160a01b0381168114612fe357600080fd5b919050565b600060208284031215612ffa57600080fd5b612bc182612fcc565b60008083601f84011261301557600080fd5b50813567ffffffffffffffff81111561302d57600080fd5b6020830191508360208260051b850101111561304857600080fd5b9250929050565b803560068110612fe357600080fd5b600080600080600080600080600060a08a8c03121561307c57600080fd5b893567ffffffffffffffff8082111561309457600080fd5b818c0191508c601f8301126130a857600080fd5b8135818111156130b757600080fd5b8d60208285010111156130c957600080fd5b60209283019b509950908b013590808211156130e457600080fd5b6130f08d838e01613003565b909950975060408c013591508082111561310957600080fd5b6131158d838e01613003565b909750955060608c013591508082111561312e57600080fd5b5061313b8c828d01613003565b909450925061314e905060808b0161304f565b90509295985092959850929598565b6000806040838503121561317057600080fd5b61317983612fcc565b946020939093013593505050565b60006020828403121561319957600080fd5b612bc18261304f565b803567ffffffffffffffff81168114612fe357600080fd5b600080600080600080600060e0888a0312156131d557600080fd5b6131de88612fcc565b96506131ec60208901612fcc565b955060408801359450613201606089016131a2565b935061320f608089016131a2565b925060a088013563ffffffff8116811461322857600080fd5b915061323660c0890161304f565b905092959891949750929550565b634e487b7160e01b600052602160045260246000fd5b60006020828403121561326c57600080fd5b5051919050565b60006020828403121561328557600080fd5b81518015158114612bc157600080fd5b81835281816020850137506000828201602090810191909152601f909101601f19169091010190565b8183526000602080850194508260005b858110156132fa576001600160a01b036132e783612fcc565b16875295820195908201906001016132ce565b509495945050505050565b81835260007f07ffffffffffffffffffffffffffffffffffffffffffffffffffffffffffffff83111561333757600080fd5b8260051b8083602087013760009401602001938452509192915050565b608081526000613368608083018a8c613295565b82810360208401528088825260208201905060208960051b8301018a60005b8b8110156133fb57848303601f190184528135368e9003601e190181126133ad57600080fd5b8d01803567ffffffffffffffff8111156133c657600080fd5b8036038f13156133d557600080fd5b6133e3858260208501613295565b60209687019690955093909301925050600101613387565b5050848103604086015261341081898b6132be565b925050508281036060840152613427818587613305565b9b9a5050505050505050505050565b634e487b7160e01b600052601160045260246000fd5b6000821982111561345f5761345f613436565b500190565b60008261348157634e487b7160e01b600052601260045260246000fd5b500490565b60008160001904831182151516156134a0576134a0613436565b500290565b60006000198214156134b9576134b9613436565b5060010190565b634e487b7160e01b600052604160045260246000fd5b6000828210156134e8576134e8613436565b500390565b60005b838110156135085781810151838201526020016134f0565b838111156114b45750506000910152565b6000825161352b8184602087016134ed565b9190910192915050565b60208152600082518060208401526135548160408501602087016134ed565b601f01601f1916919091016040019291505056fe4f776e61626c653a2063616c6c6572206973206e6f7420746865206f776e6572a2646970667358221220deece9ed5e1e3b07639bfc80364df904e1f85f16f97a8bdde3c5bffe82640a5f64736f6c63430008090033",
  "devdoc": {
    "kind": "dev",
    "methods": {
      "deposit(address,uint256)": {
        "params": {
          "_amount": "The amount to deposit.",
          "_token": "The deposited token address."
        }
      },
      "owner()": {
        "details": "Returns the address of the current owner."
      },
      "paused()": {
        "details": "Returns true if the contract is paused, and false otherwise."
      },
      "refund(bytes,bytes[],address[],uint256[],uint8)": {
        "params": {
          "_bridgeType": "The type of bridge used by this failed transfer. One of the {BridgeType} enum.",
          "_powers": "The signing powers of the signers.",
          "_request": "The serialized request protobuf.",
          "_signers": "The sorted list of signers.",
          "_sigs": "The list of signatures sorted by signing addresses in ascending order. A request must be signed-off by +2/3 of the bridge's current signing power to be delivered."
        }
      },
      "renounceOwnership()": {
        "details": "Leaves the contract without owner. It will not be possible to call `onlyOwner` functions anymore. Can only be called by the current owner. NOTE: Renouncing ownership will leave the contract without an owner, thereby removing any functionality that is only available to the owner."
      },
      "transfer(address,address,uint256,uint64,uint64,uint32,uint8)": {
        "params": {
          "_amount": "The amount of the transfer.",
          "_bridgeType": "The type of bridge used by this transfer. One of the {BridgeType} enum.",
          "_dstChainId": "The destination chain ID.",
          "_maxSlippage": "(optional, only used for transfer via liquidity pool-based bridge) The max slippage accepted, given as percentage in point (pip). Eg. 5000 means 0.5%. Must be greater than minimalMaxSlippage. Receiver is guaranteed to receive at least (100% - max slippage percentage) * amount or the transfer can be refunded.",
          "_nonce": "A number input to guarantee uniqueness of transferId. Can be timestamp in practice.",
          "_receiver": "The address of the receiver.",
          "_token": "The address of the token."
        }
      },
      "transferOwnership(address)": {
        "details": "Transfers ownership of the contract to a new account (`newOwner`). Can only be called by the current owner."
      }
    },
    "version": 1
  },
  "userdoc": {
    "kind": "user",
    "methods": {
      "deposit(address,uint256)": {
        "notice": "Lock tokens."
      },
      "refund(bytes,bytes[],address[],uint256[],uint8)": {
        "notice": "Refund a failed cross-chain transfer."
      },
      "transfer(address,address,uint256,uint64,uint64,uint32,uint8)": {
        "notice": "Send a cross-chain transfer either via liquidity pool-based bridge or in form of mint/burn."
      }
    },
    "version": 1
  },
  "storageLayout": {
    "storage": [
      {
        "astId": 206,
        "contract": "contracts/test-helpers/ContractAsSender.sol:ContractAsSender",
        "label": "_status",
        "offset": 0,
        "slot": "0",
        "type": "t_uint256"
      },
      {
        "astId": 7,
        "contract": "contracts/test-helpers/ContractAsSender.sol:ContractAsSender",
        "label": "_owner",
        "offset": 0,
        "slot": "1",
        "type": "t_address"
      },
      {
        "astId": 121,
        "contract": "contracts/test-helpers/ContractAsSender.sol:ContractAsSender",
        "label": "_paused",
        "offset": 20,
        "slot": "1",
        "type": "t_bool"
      },
      {
        "astId": 20499,
        "contract": "contracts/test-helpers/ContractAsSender.sol:ContractAsSender",
        "label": "pausers",
        "offset": 0,
        "slot": "2",
        "type": "t_mapping(t_address,t_bool)"
      },
      {
        "astId": 21117,
        "contract": "contracts/test-helpers/ContractAsSender.sol:ContractAsSender",
        "label": "bridges",
        "offset": 0,
        "slot": "3",
        "type": "t_mapping(t_enum(BridgeType)8464,t_address)"
      },
      {
        "astId": 21121,
        "contract": "contracts/test-helpers/ContractAsSender.sol:ContractAsSender",
        "label": "records",
        "offset": 0,
        "slot": "4",
        "type": "t_mapping(t_bytes32,t_address)"
      }
    ],
    "types": {
      "t_address": {
        "encoding": "inplace",
        "label": "address",
        "numberOfBytes": "20"
      },
      "t_bool": {
        "encoding": "inplace",
        "label": "bool",
        "numberOfBytes": "1"
      },
      "t_bytes32": {
        "encoding": "inplace",
        "label": "bytes32",
        "numberOfBytes": "32"
      },
      "t_enum(BridgeType)8464": {
        "encoding": "inplace",
        "label": "enum BridgeSenderLib.BridgeType",
        "numberOfBytes": "1"
      },
      "t_mapping(t_address,t_bool)": {
        "encoding": "mapping",
        "key": "t_address",
        "label": "mapping(address => bool)",
        "numberOfBytes": "32",
        "value": "t_bool"
      },
      "t_mapping(t_bytes32,t_address)": {
        "encoding": "mapping",
        "key": "t_bytes32",
        "label": "mapping(bytes32 => address)",
        "numberOfBytes": "32",
        "value": "t_address"
      },
      "t_mapping(t_enum(BridgeType)8464,t_address)": {
        "encoding": "mapping",
        "key": "t_enum(BridgeType)8464",
        "label": "mapping(enum BridgeSenderLib.BridgeType => address)",
        "numberOfBytes": "32",
        "value": "t_address"
      },
      "t_uint256": {
        "encoding": "inplace",
        "label": "uint256",
        "numberOfBytes": "32"
      }
    }
  }
}