{
  "address": "0x57d2D079Bd94c00CA8b68c2A1F611e8bC7540669",
  "abi": [
    {
      "inputs": [
        {
          "internalType": "contract ISigsVerifier",
          "name": "_sigsVerifier",
          "type": "address"
        }
      ],
      "stateMutability": "nonpayable",
      "type": "constructor"
    },
    {
      "anonymous": false,
      "inputs": [
        {
          "indexed": true,
          "internalType": "address",
          "name": "recipient",
          "type": "address"
        },
        {
          "indexed": true,
          "internalType": "address",
          "name": "token",
          "type": "address"
        },
        {
          "indexed": false,
          "internalType": "uint256",
          "name": "reward",
          "type": "uint256"
        }
      ],
      "name": "FarmingRewardClaimed",
      "type": "event"
    },
    {
      "anonymous": false,
      "inputs": [
        {
          "indexed": true,
          "internalType": "address",
          "name": "contributor",
          "type": "address"
        },
        {
          "indexed": true,
          "internalType": "address",
          "name": "token",
          "type": "address"
        },
        {
          "indexed": false,
          "internalType": "uint256",
          "name": "contribution",
          "type": "uint256"
        }
      ],
      "name": "FarmingRewardContributed",
      "type": "event"
    },
    {
      "anonymous": false,
      "inputs": [
        {
          "indexed": true,
          "internalType": "address",
          "name": "previousOwner",
          "type": "address"
        },
        {
          "indexed": true,
          "internalType": "address",
          "name": "newOwner",
          "type": "address"
        }
      ],
      "name": "OwnershipTransferred",
      "type": "event"
    },
    {
      "anonymous": false,
      "inputs": [
        {
          "indexed": false,
          "internalType": "address",
          "name": "account",
          "type": "address"
        }
      ],
      "name": "Paused",
      "type": "event"
    },
    {
      "anonymous": false,
      "inputs": [
        {
          "indexed": false,
          "internalType": "address",
          "name": "account",
          "type": "address"
        }
      ],
      "name": "PauserAdded",
      "type": "event"
    },
    {
      "anonymous": false,
      "inputs": [
        {
          "indexed": false,
          "internalType": "address",
          "name": "account",
          "type": "address"
        }
      ],
      "name": "PauserRemoved",
      "type": "event"
    },
    {
      "anonymous": false,
      "inputs": [
        {
          "indexed": false,
          "internalType": "address",
          "name": "account",
          "type": "address"
        }
      ],
      "name": "Unpaused",
      "type": "event"
    },
    {
      "inputs": [
        {
          "internalType": "address",
          "name": "account",
          "type": "address"
        }
      ],
      "name": "addPauser",
      "outputs": [],
      "stateMutability": "nonpayable",
      "type": "function"
    },
    {
      "inputs": [
        {
          "internalType": "bytes",
          "name": "_rewardsRequest",
          "type": "bytes"
        },
        {
          "internalType": "bytes[]",
          "name": "_sigs",
          "type": "bytes[]"
        },
        {
          "internalType": "address[]",
          "name": "_signers",
          "type": "address[]"
        },
        {
          "internalType": "uint256[]",
          "name": "_powers",
          "type": "uint256[]"
        }
      ],
      "name": "claimRewards",
      "outputs": [],
      "stateMutability": "nonpayable",
      "type": "function"
    },
    {
      "inputs": [
        {
          "internalType": "address",
          "name": "",
          "type": "address"
        },
        {
          "internalType": "address",
          "name": "",
          "type": "address"
        }
      ],
      "name": "claimedRewardAmounts",
      "outputs": [
        {
          "internalType": "uint256",
          "name": "",
          "type": "uint256"
        }
      ],
      "stateMutability": "view",
      "type": "function"
    },
    {
      "inputs": [
        {
          "internalType": "address",
          "name": "_token",
          "type": "address"
        },
        {
          "internalType": "uint256",
          "name": "_amount",
          "type": "uint256"
        }
      ],
      "name": "contributeToRewardPool",
      "outputs": [],
      "stateMutability": "nonpayable",
      "type": "function"
    },
    {
      "inputs": [
        {
          "internalType": "address",
          "name": "_token",
          "type": "address"
        },
        {
          "internalType": "uint256",
          "name": "_amount",
          "type": "uint256"
        }
      ],
      "name": "drainToken",
      "outputs": [],
      "stateMutability": "nonpayable",
      "type": "function"
    },
    {
      "inputs": [
        {
          "internalType": "address",
          "name": "account",
          "type": "address"
        }
      ],
      "name": "isPauser",
      "outputs": [
        {
          "internalType": "bool",
          "name": "",
          "type": "bool"
        }
      ],
      "stateMutability": "view",
      "type": "function"
    },
    {
      "inputs": [],
      "name": "owner",
      "outputs": [
        {
          "internalType": "address",
          "name": "",
          "type": "address"
        }
      ],
      "stateMutability": "view",
      "type": "function"
    },
    {
      "inputs": [],
      "name": "pause",
      "outputs": [],
      "stateMutability": "nonpayable",
      "type": "function"
    },
    {
      "inputs": [],
      "name": "paused",
      "outputs": [
        {
          "internalType": "bool",
          "name": "",
          "type": "bool"
        }
      ],
      "stateMutability": "view",
      "type": "function"
    },
    {
      "inputs": [
        {
          "internalType": "address",
          "name": "",
          "type": "address"
        }
      ],
      "name": "pausers",
      "outputs": [
        {
          "internalType": "bool",
          "name": "",
          "type": "bool"
        }
      ],
      "stateMutability": "view",
      "type": "function"
    },
    {
      "inputs": [
        {
          "internalType": "address",
          "name": "account",
          "type": "address"
        }
      ],
      "name": "removePauser",
      "outputs": [],
      "stateMutability": "nonpayable",
      "type": "function"
    },
    {
      "inputs": [],
      "name": "renouncePauser",
      "outputs": [],
      "stateMutability": "nonpayable",
      "type": "function"
    },
    {
      "inputs": [],
      "name": "sigsVerifier",
      "outputs": [
        {
          "internalType": "contract ISigsVerifier",
          "name": "",
          "type": "address"
        }
      ],
      "stateMutability": "view",
      "type": "function"
    },
    {
      "inputs": [
        {
          "internalType": "address",
          "name": "newOwner",
          "type": "address"
        }
      ],
      "name": "transferOwnership",
      "outputs": [],
      "stateMutability": "nonpayable",
      "type": "function"
    },
    {
      "inputs": [],
      "name": "unpause",
      "outputs": [],
      "stateMutability": "nonpayable",
      "type": "function"
    }
  ],
  "transactionHash": "0xd987223718d6ab9adb151b5e14bab0c558392935506789798b7a87e079cd5702",
  "args": [
    "0xf89354F314faF344Abd754924438bA798E306DF2"
  ],
  "numDeployments": 1,
  "solcInputHash": "322a61bf4ad8fb9b885ee9f725844bc6",
  "bytecode": "0x60a06040523480156200001157600080fd5b5060405162001d4a38038062001d4a833981016040819052620000349162000182565b6200003f3362000069565b6000805460ff60a01b191690556200005733620000b9565b6001600160a01b0316608052620001b4565b600080546001600160a01b038381166001600160a01b0319831681178455604051919092169283917f8be0079c531659141344cd1fd0a4f28419497f9722a3daafe3b4186f6b6457e09190a35050565b6001600160a01b03811660009081526001602052604090205460ff1615620001275760405162461bcd60e51b815260206004820152601960248201527f4163636f756e7420697320616c72656164792070617573657200000000000000604482015260640160405180910390fd5b6001600160a01b038116600081815260016020818152604092839020805460ff191690921790915590519182527f6719d08c1888103bea251a4ed56406bd0c3e69723c8a1686e017e7bbe159b6f8910160405180910390a150565b6000602082840312156200019557600080fd5b81516001600160a01b0381168114620001ad57600080fd5b9392505050565b608051611b73620001d76000396000818161024c01526104210152611b736000f3fe608060405234801561001057600080fd5b50600436106100f55760003560e01c806380f51c12116100975780638da5cb5b116100665780638da5cb5b1461020f5780639d4323be14610234578063ccf2683b14610247578063f2fde38b1461026e57600080fd5b806380f51c12146101be578063825168ff146101e157806382dc1ec4146101f45780638456cb591461020757600080fd5b80635c975abb116100d35780635c975abb1461017e5780636b2c0f55146101905780636b5d21e9146101a35780636ef8d66d146101b657600080fd5b80631744092e146100fa5780633f4ba83a1461013857806346fbf68e14610142575b600080fd5b610125610108366004611645565b600260209081526000928352604080842090915290825290205481565b6040519081526020015b60405180910390f35b610140610281565b005b61016e610150366004611678565b6001600160a01b031660009081526001602052604090205460ff1690565b604051901515815260200161012f565b600054600160a01b900460ff1661016e565b61014061019e366004611678565b6102ef565b6101406101b13660046116df565b610364565b610140610693565b61016e6101cc366004611678565b60016020526000908152604090205460ff1681565b6101406101ef3660046117ce565b61069c565b610140610202366004611678565b610751565b6101406107c3565b6000546001600160a01b03165b6040516001600160a01b03909116815260200161012f565b6101406102423660046117ce565b61082a565b61021c7f000000000000000000000000000000000000000000000000000000000000000081565b61014061027c366004611678565b610904565b3360009081526001602052604090205460ff166102e55760405162461bcd60e51b815260206004820152601460248201527f43616c6c6572206973206e6f742070617573657200000000000000000000000060448201526064015b60405180910390fd5b6102ed6109f2565b565b336103026000546001600160a01b031690565b6001600160a01b0316146103585760405162461bcd60e51b815260206004820181905260248201527f4f776e61626c653a2063616c6c6572206973206e6f7420746865206f776e657260448201526064016102dc565b61036181610a98565b50565b600054600160a01b900460ff16156103b15760405162461bcd60e51b815260206004820152601060248201526f14185d5cd8589b194e881c185d5cd95960821b60448201526064016102dc565b6000463060405160200161040792919091825260601b6bffffffffffffffffffffffff191660208201527f4661726d696e6752657761726473000000000000000000000000000000000000603482015260420190565b6040516020818303038152906040528051906020012090507f00000000000000000000000000000000000000000000000000000000000000006001600160a01b031663682dbc22828b8b604051602001610463939291906117f8565b6040516020818303038152906040528989898989896040518863ffffffff1660e01b815260040161049a9796959493929190611929565b60006040518083038186803b1580156104b257600080fd5b505afa1580156104c6573d6000803e3d6000fd5b50505050600061050b8a8a8080601f016020809104026020016040519081016040528093929190818152602001838380828437600092019190915250610b5892505050565b90506000805b8260200151518110156106385760008360200151828151811061053657610536611a09565b6020026020010151905060008460400151838151811061055857610558611a09565b60209081029190910181015186516001600160a01b0390811660009081526002845260408082209287168252919093528220549092506105989083611a35565b905080156106225785516001600160a01b0390811660009081526002602090815260408083209387168084529390915290208390558651600196506105de919083610e14565b85516040518281526001600160a01b038086169216907f97e6c3172350795e26977663112f38653689372e771e85bad9fbadb1af0e98b29060200160405180910390a35b505050808061063090611a4c565b915050610511565b50806106865760405162461bcd60e51b815260206004820152600d60248201527f4e6f206e6577207265776172640000000000000000000000000000000000000060448201526064016102dc565b5050505050505050505050565b6102ed33610a98565b600054600160a01b900460ff16156106e95760405162461bcd60e51b815260206004820152601060248201526f14185d5cd8589b194e881c185d5cd95960821b60448201526064016102dc565b336106ff6001600160a01b038416823085610ea9565b826001600160a01b0316816001600160a01b03167f40aa1b9a9157bc37a09a78d5a46e53087b82ee0034ebe896d4d1a52f31b333d48460405161074491815260200190565b60405180910390a3505050565b336107646000546001600160a01b031690565b6001600160a01b0316146107ba5760405162461bcd60e51b815260206004820181905260248201527f4f776e61626c653a2063616c6c6572206973206e6f7420746865206f776e657260448201526064016102dc565b61036181610ee7565b3360009081526001602052604090205460ff166108225760405162461bcd60e51b815260206004820152601460248201527f43616c6c6572206973206e6f742070617573657200000000000000000000000060448201526064016102dc565b6102ed610fa5565b600054600160a01b900460ff166108835760405162461bcd60e51b815260206004820152601460248201527f5061757361626c653a206e6f742070617573656400000000000000000000000060448201526064016102dc565b336108966000546001600160a01b031690565b6001600160a01b0316146108ec5760405162461bcd60e51b815260206004820181905260248201527f4f776e61626c653a2063616c6c6572206973206e6f7420746865206f776e657260448201526064016102dc565b6109006001600160a01b0383163383610e14565b5050565b336109176000546001600160a01b031690565b6001600160a01b03161461096d5760405162461bcd60e51b815260206004820181905260248201527f4f776e61626c653a2063616c6c6572206973206e6f7420746865206f776e657260448201526064016102dc565b6001600160a01b0381166109e95760405162461bcd60e51b815260206004820152602660248201527f4f776e61626c653a206e6577206f776e657220697320746865207a65726f206160448201527f646472657373000000000000000000000000000000000000000000000000000060648201526084016102dc565b6103618161102d565b600054600160a01b900460ff16610a4b5760405162461bcd60e51b815260206004820152601460248201527f5061757361626c653a206e6f742070617573656400000000000000000000000060448201526064016102dc565b6000805460ff60a01b191690557f5db9ee0a495bf2e6ff9c91a7834c1ba4fdd244a5e8aa4e537bd38aeae4b073aa335b6040516001600160a01b03909116815260200160405180910390a1565b6001600160a01b03811660009081526001602052604090205460ff16610b005760405162461bcd60e51b815260206004820152601560248201527f4163636f756e74206973206e6f7420706175736572000000000000000000000060448201526064016102dc565b6001600160a01b038116600081815260016020908152604091829020805460ff1916905590519182527fcd265ebaf09df2871cc7bd4133404a235ba12eff2041bb89d9c714a2621c7c7e91015b60405180910390a150565b610b85604051806060016040528060006001600160a01b0316815260200160608152602001606081525090565b60408051808201909152600080825260208201849052610ba6826003611095565b905080600281518110610bbb57610bbb611a09565b602002602001015167ffffffffffffffff811115610bdb57610bdb611a67565b604051908082528060200260200182016040528015610c04578160200160208202803683370190505b508360200181905250600081600281518110610c2257610c22611a09565b60200260200101818152505080600381518110610c4157610c41611a09565b602002602001015167ffffffffffffffff811115610c6157610c61611a67565b604051908082528060200260200182016040528015610c8a578160200160208202803683370190505b508360400181905250600081600381518110610ca857610ca8611a09565b6020026020010181815250506000805b60208401515184511015610e0b57610ccf8461114f565b90925090508160011415610cfe57610cee610ce985611189565b611246565b6001600160a01b03168552610cb8565b8160021415610d9357610d13610ce985611189565b856020015184600281518110610d2b57610d2b611a09565b602002602001015181518110610d4357610d43611a09565b60200260200101906001600160a01b031690816001600160a01b03168152505082600281518110610d7657610d76611a09565b602002602001018051809190610d8b90611a4c565b905250610cb8565b8160031415610dfc57610dad610da885611189565b611257565b856040015184600381518110610dc557610dc5611a09565b602002602001015181518110610ddd57610ddd611a09565b60200260200101818152505082600381518110610d7657610d76611a09565b610e06848261128e565b610cb8565b50505050919050565b6040516001600160a01b038316602482015260448101829052610ea490849063a9059cbb60e01b906064015b60408051601f198184030181529190526020810180517bffffffffffffffffffffffffffffffffffffffffffffffffffffffff167fffffffff0000000000000000000000000000000000000000000000000000000090931692909217909152611300565b505050565b6040516001600160a01b0380851660248301528316604482015260648101829052610ee19085906323b872dd60e01b90608401610e40565b50505050565b6001600160a01b03811660009081526001602052604090205460ff1615610f505760405162461bcd60e51b815260206004820152601960248201527f4163636f756e7420697320616c7265616479207061757365720000000000000060448201526064016102dc565b6001600160a01b038116600081815260016020818152604092839020805460ff191690921790915590519182527f6719d08c1888103bea251a4ed56406bd0c3e69723c8a1686e017e7bbe159b6f89101610b4d565b600054600160a01b900460ff1615610ff25760405162461bcd60e51b815260206004820152601060248201526f14185d5cd8589b194e881c185d5cd95960821b60448201526064016102dc565b6000805460ff60a01b1916600160a01b1790557f62e78cea01bee320cd4e420270b5ea74000d11b0c9f74754ebdbfc544b05a258610a7b3390565b600080546001600160a01b038381167fffffffffffffffffffffffff0000000000000000000000000000000000000000831681178455604051919092169283917f8be0079c531659141344cd1fd0a4f28419497f9722a3daafe3b4186f6b6457e09190a35050565b81516060906110a5836001611a7d565b67ffffffffffffffff8111156110bd576110bd611a67565b6040519080825280602002602001820160405280156110e6578160200160208202803683370190505b5091506000805b60208601515186511015611146576111048661114f565b8092508193505050600184838151811061112057611120611a09565b602002602001018181516111349190611a7d565b905250611141868261128e565b6110ed565b50509092525090565b600080600061115d846113e5565b905061116a600882611a95565b925080600716600581111561118157611181611ab7565b915050915091565b60606000611196836113e5565b905060008184600001516111aa9190611a7d565b90508360200151518111156111be57600080fd5b8167ffffffffffffffff8111156111d7576111d7611a67565b6040519080825280601f01601f191660200182016040528015611201576020820181803683370190505b50602080860151865192955091818601919083010160005b8581101561123b578181015183820152611234602082611a7d565b9050611219565b505050935250919050565b600061125182611467565b92915050565b600060208251111561126857600080fd5b602082015190508151602061127d9190611a35565b611288906008611acd565b1c919050565b60008160058111156112a2576112a2611ab7565b14156112b157610ea4826113e5565b60028160058111156112c5576112c5611ab7565b14156100f55760006112d6836113e5565b905080836000018181516112ea9190611a7d565b90525060208301515183511115610ea457600080fd5b6000611355826040518060400160405280602081526020017f5361666545524332303a206c6f772d6c6576656c2063616c6c206661696c6564815250856001600160a01b031661148f9092919063ffffffff16565b805190915015610ea457808060200190518101906113739190611aec565b610ea45760405162461bcd60e51b815260206004820152602a60248201527f5361666545524332303a204552433230206f7065726174696f6e20646964206e60448201527f6f7420737563636565640000000000000000000000000000000000000000000060648201526084016102dc565b602080820151825181019091015160009182805b600a8110156114615783811a9150611412816007611acd565b82607f16901b85179450816080166000141561144f57611433816001611a7d565b86518790611442908390611a7d565b9052509395945050505050565b8061145981611a4c565b9150506113f9565b50600080fd5b6000815160141461147757600080fd5b50602001516c01000000000000000000000000900490565b606061149e84846000856114a8565b90505b9392505050565b6060824710156115205760405162461bcd60e51b815260206004820152602660248201527f416464726573733a20696e73756666696369656e742062616c616e636520666f60448201527f722063616c6c000000000000000000000000000000000000000000000000000060648201526084016102dc565b6001600160a01b0385163b6115775760405162461bcd60e51b815260206004820152601d60248201527f416464726573733a2063616c6c20746f206e6f6e2d636f6e747261637400000060448201526064016102dc565b600080866001600160a01b031685876040516115939190611b0e565b60006040518083038185875af1925050503d80600081146115d0576040519150601f19603f3d011682016040523d82523d6000602084013e6115d5565b606091505b50915091506115e58282866115f0565b979650505050505050565b606083156115ff5750816114a1565b82511561160f5782518084602001fd5b8160405162461bcd60e51b81526004016102dc9190611b2a565b80356001600160a01b038116811461164057600080fd5b919050565b6000806040838503121561165857600080fd5b61166183611629565b915061166f60208401611629565b90509250929050565b60006020828403121561168a57600080fd5b6114a182611629565b60008083601f8401126116a557600080fd5b50813567ffffffffffffffff8111156116bd57600080fd5b6020830191508360208260051b85010111156116d857600080fd5b9250929050565b6000806000806000806000806080898b0312156116fb57600080fd5b883567ffffffffffffffff8082111561171357600080fd5b818b0191508b601f83011261172757600080fd5b81358181111561173657600080fd5b8c602082850101111561174857600080fd5b60209283019a509850908a0135908082111561176357600080fd5b61176f8c838d01611693565b909850965060408b013591508082111561178857600080fd5b6117948c838d01611693565b909650945060608b01359150808211156117ad57600080fd5b506117ba8b828c01611693565b999c989b5096995094979396929594505050565b600080604083850312156117e157600080fd5b6117ea83611629565b946020939093013593505050565b838152818360208301376000910160200190815292915050565b60005b8381101561182d578181015183820152602001611815565b83811115610ee15750506000910152565b60008151808452611856816020860160208601611812565b601f01601f19169290920160200192915050565b81835281816020850137506000828201602090810191909152601f909101601f19169091010190565b8183526000602080850194508260005b858110156118cf576001600160a01b036118bc83611629565b16875295820195908201906001016118a3565b509495945050505050565b81835260007f07ffffffffffffffffffffffffffffffffffffffffffffffffffffffffffffff83111561190c57600080fd5b8260051b8083602087013760009401602001938452509192915050565b60808152600061193c608083018a61183e565b82810360208401528088825260208201905060208960051b8301018a60005b8b8110156119cf57848303601f190184528135368e9003601e1901811261198157600080fd5b8d01803567ffffffffffffffff81111561199a57600080fd5b8036038f13156119a957600080fd5b6119b785826020850161186a565b6020968701969095509390930192505060010161195b565b505084810360408601526119e481898b611893565b9250505082810360608401526119fb8185876118da565b9a9950505050505050505050565b634e487b7160e01b600052603260045260246000fd5b634e487b7160e01b600052601160045260246000fd5b600082821015611a4757611a47611a1f565b500390565b6000600019821415611a6057611a60611a1f565b5060010190565b634e487b7160e01b600052604160045260246000fd5b60008219821115611a9057611a90611a1f565b500190565b600082611ab257634e487b7160e01b600052601260045260246000fd5b500490565b634e487b7160e01b600052602160045260246000fd5b6000816000190483118215151615611ae757611ae7611a1f565b500290565b600060208284031215611afe57600080fd5b815180151581146114a157600080fd5b60008251611b20818460208701611812565b9190910192915050565b6020815260006114a1602083018461183e56fea264697066735822122072935896d9ad87098e46c9c5b0fc70aaaad60ca4bde8fd70b97819dbd6baf82a64736f6c63430008090033",
  "devdoc": {
    "kind": "dev",
    "methods": {
      "claimRewards(bytes,bytes[],address[],uint256[])": {
        "details": "Here we use cumulative reward to make claim process idempotent",
        "params": {
          "_powers": "powers of current signers",
          "_rewardsRequest": "rewards request bytes coded in protobuf",
          "_signers": "sorted list of current signers",
          "_sigs": "list of signatures sorted by signer addresses in ascending order"
        }
      },
      "contributeToRewardPool(address,uint256)": {
        "params": {
          "_amount": "the amount of the token to contribute",
          "_token": "the address of the token to contribute"
        }
      },
      "drainToken(address,uint256)": {
        "details": "emergency use only",
        "params": {
          "_amount": "drained token amount",
          "_token": "the address of the token to drain"
        }
      },
      "owner()": {
        "details": "Returns the address of the current owner."
      },
      "paused()": {
        "details": "Returns true if the contract is paused, and false otherwise."
      },
      "transferOwnership(address)": {
        "details": "Transfers ownership of the contract to a new account (`newOwner`). Can only be called by the current owner."
      }
    },
    "title": "A contract to hold and distribute farming rewards.",
    "version": 1
  },
  "userdoc": {
    "kind": "user",
    "methods": {
      "claimRewards(bytes,bytes[],address[],uint256[])": {
        "notice": "Claim rewards"
      },
      "contributeToRewardPool(address,uint256)": {
        "notice": "Contribute reward tokens to the reward pool"
      },
      "drainToken(address,uint256)": {
        "notice": "Owner drains tokens when the contract is paused"
      }
    },
    "version": 1
  },
  "storageLayout": {
    "storage": [
      {
        "astId": 24141,
        "contract": "contracts/liquidity-bridge/FarmingRewards.sol:FarmingRewards",
        "label": "_owner",
        "offset": 0,
        "slot": "0",
        "type": "t_address"
      },
      {
        "astId": 122,
        "contract": "contracts/liquidity-bridge/FarmingRewards.sol:FarmingRewards",
        "label": "_paused",
        "offset": 20,
        "slot": "0",
        "type": "t_bool"
      },
      {
        "astId": 24255,
        "contract": "contracts/liquidity-bridge/FarmingRewards.sol:FarmingRewards",
        "label": "pausers",
        "offset": 0,
        "slot": "1",
        "type": "t_mapping(t_address,t_bool)"
      },
      {
        "astId": 11222,
        "contract": "contracts/liquidity-bridge/FarmingRewards.sol:FarmingRewards",
        "label": "claimedRewardAmounts",
        "offset": 0,
        "slot": "2",
        "type": "t_mapping(t_address,t_mapping(t_address,t_uint256))"
      }
    ],
    "types": {
      "t_address": {
        "encoding": "inplace",
        "label": "address",
        "numberOfBytes": "20"
      },
      "t_bool": {
        "encoding": "inplace",
        "label": "bool",
        "numberOfBytes": "1"
      },
      "t_mapping(t_address,t_bool)": {
        "encoding": "mapping",
        "key": "t_address",
        "label": "mapping(address => bool)",
        "numberOfBytes": "32",
        "value": "t_bool"
      },
      "t_mapping(t_address,t_mapping(t_address,t_uint256))": {
        "encoding": "mapping",
        "key": "t_address",
        "label": "mapping(address => mapping(address => uint256))",
        "numberOfBytes": "32",
        "value": "t_mapping(t_address,t_uint256)"
      },
      "t_mapping(t_address,t_uint256)": {
        "encoding": "mapping",
        "key": "t_address",
        "label": "mapping(address => uint256)",
        "numberOfBytes": "32",
        "value": "t_uint256"
      },
      "t_uint256": {
        "encoding": "inplace",
        "label": "uint256",
        "numberOfBytes": "32"
      }
    }
  }
}