{
  "address": "0x3fAa3C8A33b03566901Ae34F4534dAc8e9846A29",
  "abi": [
    {
      "inputs": [
        {
          "internalType": "contract ISigsVerifier",
          "name": "_sigsVerifier",
          "type": "address"
        },
        {
          "internalType": "address",
          "name": "_liquidityBridge",
          "type": "address"
        },
        {
          "internalType": "address",
          "name": "_pegBridge",
          "type": "address"
        },
        {
          "internalType": "address",
          "name": "_pegVault",
          "type": "address"
        },
        {
          "internalType": "address",
          "name": "_pegBridgeV2",
          "type": "address"
        },
        {
          "internalType": "address",
          "name": "_pegVaultV2",
          "type": "address"
        }
      ],
      "stateMutability": "nonpayable",
      "type": "constructor"
    },
    {
      "anonymous": false,
      "inputs": [
        {
          "indexed": false,
          "internalType": "string",
          "name": "reason",
          "type": "string"
        }
      ],
      "name": "CallReverted",
      "type": "event"
    },
    {
      "anonymous": false,
      "inputs": [
        {
          "indexed": false,
          "internalType": "enum MsgDataTypes.MsgType",
          "name": "msgType",
          "type": "uint8"
        },
        {
          "indexed": false,
          "internalType": "bytes32",
          "name": "msgId",
          "type": "bytes32"
        },
        {
          "indexed": false,
          "internalType": "enum MsgDataTypes.TxStatus",
          "name": "status",
          "type": "uint8"
        },
        {
          "indexed": true,
          "internalType": "address",
          "name": "receiver",
          "type": "address"
        },
        {
          "indexed": false,
          "internalType": "uint64",
          "name": "srcChainId",
          "type": "uint64"
        },
        {
          "indexed": false,
          "internalType": "bytes32",
          "name": "srcTxHash",
          "type": "bytes32"
        }
      ],
      "name": "Executed",
      "type": "event"
    },
    {
      "anonymous": false,
      "inputs": [
        {
          "indexed": false,
          "internalType": "uint256",
          "name": "feeBase",
          "type": "uint256"
        }
      ],
      "name": "FeeBaseUpdated",
      "type": "event"
    },
    {
      "anonymous": false,
      "inputs": [
        {
          "indexed": false,
          "internalType": "uint256",
          "name": "feePerByte",
          "type": "uint256"
        }
      ],
      "name": "FeePerByteUpdated",
      "type": "event"
    },
    {
      "anonymous": false,
      "inputs": [
        {
          "indexed": false,
          "internalType": "address",
          "name": "receiver",
          "type": "address"
        },
        {
          "indexed": false,
          "internalType": "uint256",
          "name": "amount",
          "type": "uint256"
        }
      ],
      "name": "FeeWithdrawn",
      "type": "event"
    },
    {
      "anonymous": false,
      "inputs": [
        {
          "indexed": false,
          "internalType": "address",
          "name": "liquidityBridge",
          "type": "address"
        }
      ],
      "name": "LiquidityBridgeUpdated",
      "type": "event"
    },
    {
      "anonymous": false,
      "inputs": [
        {
          "indexed": true,
          "internalType": "address",
          "name": "sender",
          "type": "address"
        },
        {
          "indexed": false,
          "internalType": "address",
          "name": "receiver",
          "type": "address"
        },
        {
          "indexed": false,
          "internalType": "uint256",
          "name": "dstChainId",
          "type": "uint256"
        },
        {
          "indexed": false,
          "internalType": "bytes",
          "name": "message",
          "type": "bytes"
        },
        {
          "indexed": false,
          "internalType": "uint256",
          "name": "fee",
          "type": "uint256"
        }
      ],
      "name": "Message",
      "type": "event"
    },
    {
      "anonymous": false,
      "inputs": [
        {
          "indexed": true,
          "internalType": "address",
          "name": "sender",
          "type": "address"
        },
        {
          "indexed": false,
          "internalType": "bytes",
          "name": "receiver",
          "type": "bytes"
        },
        {
          "indexed": false,
          "internalType": "uint256",
          "name": "dstChainId",
          "type": "uint256"
        },
        {
          "indexed": false,
          "internalType": "bytes",
          "name": "message",
          "type": "bytes"
        },
        {
          "indexed": false,
          "internalType": "uint256",
          "name": "fee",
          "type": "uint256"
        }
      ],
      "name": "Message2",
      "type": "event"
    },
    {
      "anonymous": false,
      "inputs": [
        {
          "indexed": true,
          "internalType": "address",
          "name": "sender",
          "type": "address"
        },
        {
          "indexed": false,
          "internalType": "address",
          "name": "receiver",
          "type": "address"
        },
        {
          "indexed": false,
          "internalType": "uint256",
          "name": "dstChainId",
          "type": "uint256"
        },
        {
          "indexed": false,
          "internalType": "address",
          "name": "bridge",
          "type": "address"
        },
        {
          "indexed": false,
          "internalType": "bytes32",
          "name": "srcTransferId",
          "type": "bytes32"
        },
        {
          "indexed": false,
          "internalType": "bytes",
          "name": "message",
          "type": "bytes"
        },
        {
          "indexed": false,
          "internalType": "uint256",
          "name": "fee",
          "type": "uint256"
        }
      ],
      "name": "MessageWithTransfer",
      "type": "event"
    },
    {
      "anonymous": false,
      "inputs": [
        {
          "indexed": false,
          "internalType": "enum MsgDataTypes.MsgType",
          "name": "msgType",
          "type": "uint8"
        },
        {
          "indexed": false,
          "internalType": "bytes32",
          "name": "msgId",
          "type": "bytes32"
        },
        {
          "indexed": false,
          "internalType": "uint64",
          "name": "srcChainId",
          "type": "uint64"
        },
        {
          "indexed": false,
          "internalType": "bytes32",
          "name": "srcTxHash",
          "type": "bytes32"
        }
      ],
      "name": "NeedRetry",
      "type": "event"
    },
    {
      "anonymous": false,
      "inputs": [
        {
          "indexed": true,
          "internalType": "address",
          "name": "previousOwner",
          "type": "address"
        },
        {
          "indexed": true,
          "internalType": "address",
          "name": "newOwner",
          "type": "address"
        }
      ],
      "name": "OwnershipTransferred",
      "type": "event"
    },
    {
      "anonymous": false,
      "inputs": [
        {
          "indexed": false,
          "internalType": "address",
          "name": "pegBridge",
          "type": "address"
        }
      ],
      "name": "PegBridgeUpdated",
      "type": "event"
    },
    {
      "anonymous": false,
      "inputs": [
        {
          "indexed": false,
          "internalType": "address",
          "name": "pegBridgeV2",
          "type": "address"
        }
      ],
      "name": "PegBridgeV2Updated",
      "type": "event"
    },
    {
      "anonymous": false,
      "inputs": [
        {
          "indexed": false,
          "internalType": "address",
          "name": "pegVault",
          "type": "address"
        }
      ],
      "name": "PegVaultUpdated",
      "type": "event"
    },
    {
      "anonymous": false,
      "inputs": [
        {
          "indexed": false,
          "internalType": "address",
          "name": "pegVaultV2",
          "type": "address"
        }
      ],
      "name": "PegVaultV2Updated",
      "type": "event"
    },
    {
      "inputs": [
        {
          "internalType": "bytes",
          "name": "_message",
          "type": "bytes"
        }
      ],
      "name": "calcFee",
      "outputs": [
        {
          "internalType": "uint256",
          "name": "",
          "type": "uint256"
        }
      ],
      "stateMutability": "view",
      "type": "function"
    },
    {
      "inputs": [
        {
          "internalType": "bytes",
          "name": "_message",
          "type": "bytes"
        },
        {
          "components": [
            {
              "internalType": "address",
              "name": "sender",
              "type": "address"
            },
            {
              "internalType": "address",
              "name": "receiver",
              "type": "address"
            },
            {
              "internalType": "uint64",
              "name": "srcChainId",
              "type": "uint64"
            },
            {
              "internalType": "bytes32",
              "name": "srcTxHash",
              "type": "bytes32"
            }
          ],
          "internalType": "struct MsgDataTypes.RouteInfo",
          "name": "_route",
          "type": "tuple"
        },
        {
          "internalType": "bytes[]",
          "name": "_sigs",
          "type": "bytes[]"
        },
        {
          "internalType": "address[]",
          "name": "_signers",
          "type": "address[]"
        },
        {
          "internalType": "uint256[]",
          "name": "_powers",
          "type": "uint256[]"
        }
      ],
      "name": "executeMessage",
      "outputs": [],
      "stateMutability": "payable",
      "type": "function"
    },
    {
      "inputs": [
        {
          "internalType": "bytes",
          "name": "_message",
          "type": "bytes"
        },
        {
          "components": [
            {
              "internalType": "bytes",
              "name": "sender",
              "type": "bytes"
            },
            {
              "internalType": "address",
              "name": "receiver",
              "type": "address"
            },
            {
              "internalType": "uint64",
              "name": "srcChainId",
              "type": "uint64"
            },
            {
              "internalType": "bytes32",
              "name": "srcTxHash",
              "type": "bytes32"
            }
          ],
          "internalType": "struct MsgDataTypes.RouteInfo2",
          "name": "_route",
          "type": "tuple"
        },
        {
          "internalType": "bytes[]",
          "name": "_sigs",
          "type": "bytes[]"
        },
        {
          "internalType": "address[]",
          "name": "_signers",
          "type": "address[]"
        },
        {
          "internalType": "uint256[]",
          "name": "_powers",
          "type": "uint256[]"
        }
      ],
      "name": "executeMessage",
      "outputs": [],
      "stateMutability": "payable",
      "type": "function"
    },
    {
      "inputs": [
        {
          "internalType": "bytes",
          "name": "_message",
          "type": "bytes"
        },
        {
          "components": [
            {
              "internalType": "enum MsgDataTypes.TransferType",
              "name": "t",
              "type": "uint8"
            },
            {
              "internalType": "address",
              "name": "sender",
              "type": "address"
            },
            {
              "internalType": "address",
              "name": "receiver",
              "type": "address"
            },
            {
              "internalType": "address",
              "name": "token",
              "type": "address"
            },
            {
              "internalType": "uint256",
              "name": "amount",
              "type": "uint256"
            },
            {
              "internalType": "uint64",
              "name": "wdseq",
              "type": "uint64"
            },
            {
              "internalType": "uint64",
              "name": "srcChainId",
              "type": "uint64"
            },
            {
              "internalType": "bytes32",
              "name": "refId",
              "type": "bytes32"
            },
            {
              "internalType": "bytes32",
              "name": "srcTxHash",
              "type": "bytes32"
            }
          ],
          "internalType": "struct MsgDataTypes.TransferInfo",
          "name": "_transfer",
          "type": "tuple"
        },
        {
          "internalType": "bytes[]",
          "name": "_sigs",
          "type": "bytes[]"
        },
        {
          "internalType": "address[]",
          "name": "_signers",
          "type": "address[]"
        },
        {
          "internalType": "uint256[]",
          "name": "_powers",
          "type": "uint256[]"
        }
      ],
      "name": "executeMessageWithTransfer",
      "outputs": [],
      "stateMutability": "payable",
      "type": "function"
    },
    {
      "inputs": [
        {
          "internalType": "bytes",
          "name": "_message",
          "type": "bytes"
        },
        {
          "components": [
            {
              "internalType": "enum MsgDataTypes.TransferType",
              "name": "t",
              "type": "uint8"
            },
            {
              "internalType": "address",
              "name": "sender",
              "type": "address"
            },
            {
              "internalType": "address",
              "name": "receiver",
              "type": "address"
            },
            {
              "internalType": "address",
              "name": "token",
              "type": "address"
            },
            {
              "internalType": "uint256",
              "name": "amount",
              "type": "uint256"
            },
            {
              "internalType": "uint64",
              "name": "wdseq",
              "type": "uint64"
            },
            {
              "internalType": "uint64",
              "name": "srcChainId",
              "type": "uint64"
            },
            {
              "internalType": "bytes32",
              "name": "refId",
              "type": "bytes32"
            },
            {
              "internalType": "bytes32",
              "name": "srcTxHash",
              "type": "bytes32"
            }
          ],
          "internalType": "struct MsgDataTypes.TransferInfo",
          "name": "_transfer",
          "type": "tuple"
        },
        {
          "internalType": "bytes[]",
          "name": "_sigs",
          "type": "bytes[]"
        },
        {
          "internalType": "address[]",
          "name": "_signers",
          "type": "address[]"
        },
        {
          "internalType": "uint256[]",
          "name": "_powers",
          "type": "uint256[]"
        }
      ],
      "name": "executeMessageWithTransferRefund",
      "outputs": [],
      "stateMutability": "payable",
      "type": "function"
    },
    {
      "inputs": [
        {
          "internalType": "bytes32",
          "name": "",
          "type": "bytes32"
        }
      ],
      "name": "executedMessages",
      "outputs": [
        {
          "internalType": "enum MsgDataTypes.TxStatus",
          "name": "",
          "type": "uint8"
        }
      ],
      "stateMutability": "view",
      "type": "function"
    },
    {
      "inputs": [],
      "name": "feeBase",
      "outputs": [
        {
          "internalType": "uint256",
          "name": "",
          "type": "uint256"
        }
      ],
      "stateMutability": "view",
      "type": "function"
    },
    {
      "inputs": [],
      "name": "feePerByte",
      "outputs": [
        {
          "internalType": "uint256",
          "name": "",
          "type": "uint256"
        }
      ],
      "stateMutability": "view",
      "type": "function"
    },
    {
      "inputs": [
        {
          "internalType": "address",
          "name": "_liquidityBridge",
          "type": "address"
        },
        {
          "internalType": "address",
          "name": "_pegBridge",
          "type": "address"
        },
        {
          "internalType": "address",
          "name": "_pegVault",
          "type": "address"
        },
        {
          "internalType": "address",
          "name": "_pegBridgeV2",
          "type": "address"
        },
        {
          "internalType": "address",
          "name": "_pegVaultV2",
          "type": "address"
        }
      ],
      "name": "init",
      "outputs": [],
      "stateMutability": "nonpayable",
      "type": "function"
    },
    {
      "inputs": [],
      "name": "liquidityBridge",
      "outputs": [
        {
          "internalType": "address",
          "name": "",
          "type": "address"
        }
      ],
      "stateMutability": "view",
      "type": "function"
    },
    {
      "inputs": [],
      "name": "owner",
      "outputs": [
        {
          "internalType": "address",
          "name": "",
          "type": "address"
        }
      ],
      "stateMutability": "view",
      "type": "function"
    },
    {
      "inputs": [],
      "name": "pegBridge",
      "outputs": [
        {
          "internalType": "address",
          "name": "",
          "type": "address"
        }
      ],
      "stateMutability": "view",
      "type": "function"
    },
    {
      "inputs": [],
      "name": "pegBridgeV2",
      "outputs": [
        {
          "internalType": "address",
          "name": "",
          "type": "address"
        }
      ],
      "stateMutability": "view",
      "type": "function"
    },
    {
      "inputs": [],
      "name": "pegVault",
      "outputs": [
        {
          "internalType": "address",
          "name": "",
          "type": "address"
        }
      ],
      "stateMutability": "view",
      "type": "function"
    },
    {
      "inputs": [],
      "name": "pegVaultV2",
      "outputs": [
        {
          "internalType": "address",
          "name": "",
          "type": "address"
        }
      ],
      "stateMutability": "view",
      "type": "function"
    },
    {
      "inputs": [],
      "name": "preExecuteMessageGasUsage",
      "outputs": [
        {
          "internalType": "uint256",
          "name": "",
          "type": "uint256"
        }
      ],
      "stateMutability": "view",
      "type": "function"
    },
    {
      "inputs": [
        {
          "components": [
            {
              "internalType": "bytes",
              "name": "request",
              "type": "bytes"
            },
            {
              "internalType": "bytes[]",
              "name": "sigs",
              "type": "bytes[]"
            },
            {
              "internalType": "address[]",
              "name": "signers",
              "type": "address[]"
            },
            {
              "internalType": "uint256[]",
              "name": "powers",
              "type": "uint256[]"
            }
          ],
          "internalType": "struct MsgDataTypes.BridgeTransferParams",
          "name": "_transferParams",
          "type": "tuple"
        },
        {
          "components": [
            {
              "internalType": "bytes",
              "name": "message",
              "type": "bytes"
            },
            {
              "components": [
                {
                  "internalType": "enum MsgDataTypes.TransferType",
                  "name": "t",
                  "type": "uint8"
                },
                {
                  "internalType": "address",
                  "name": "sender",
                  "type": "address"
                },
                {
                  "internalType": "address",
                  "name": "receiver",
                  "type": "address"
                },
                {
                  "internalType": "address",
                  "name": "token",
                  "type": "address"
                },
                {
                  "internalType": "uint256",
                  "name": "amount",
                  "type": "uint256"
                },
                {
                  "internalType": "uint64",
                  "name": "wdseq",
                  "type": "uint64"
                },
                {
                  "internalType": "uint64",
                  "name": "srcChainId",
                  "type": "uint64"
                },
                {
                  "internalType": "bytes32",
                  "name": "refId",
                  "type": "bytes32"
                },
                {
                  "internalType": "bytes32",
                  "name": "srcTxHash",
                  "type": "bytes32"
                }
              ],
              "internalType": "struct MsgDataTypes.TransferInfo",
              "name": "transfer",
              "type": "tuple"
            },
            {
              "internalType": "bytes[]",
              "name": "sigs",
              "type": "bytes[]"
            },
            {
              "internalType": "address[]",
              "name": "signers",
              "type": "address[]"
            },
            {
              "internalType": "uint256[]",
              "name": "powers",
              "type": "uint256[]"
            }
          ],
          "internalType": "struct MsgDataTypes.MsgWithTransferExecutionParams",
          "name": "_msgParams",
          "type": "tuple"
        }
      ],
      "name": "refundAndExecuteMsg",
      "outputs": [],
      "stateMutability": "nonpayable",
      "type": "function"
    },
    {
      "inputs": [
        {
          "internalType": "bytes",
          "name": "_receiver",
          "type": "bytes"
        },
        {
          "internalType": "uint256",
          "name": "_dstChainId",
          "type": "uint256"
        },
        {
          "internalType": "bytes",
          "name": "_message",
          "type": "bytes"
        }
      ],
      "name": "sendMessage",
      "outputs": [],
      "stateMutability": "payable",
      "type": "function"
    },
    {
      "inputs": [
        {
          "internalType": "address",
          "name": "_receiver",
          "type": "address"
        },
        {
          "internalType": "uint256",
          "name": "_dstChainId",
          "type": "uint256"
        },
        {
          "internalType": "bytes",
          "name": "_message",
          "type": "bytes"
        }
      ],
      "name": "sendMessage",
      "outputs": [],
      "stateMutability": "payable",
      "type": "function"
    },
    {
      "inputs": [
        {
          "internalType": "address",
          "name": "_receiver",
          "type": "address"
        },
        {
          "internalType": "uint256",
          "name": "_dstChainId",
          "type": "uint256"
        },
        {
          "internalType": "address",
          "name": "_srcBridge",
          "type": "address"
        },
        {
          "internalType": "bytes32",
          "name": "_srcTransferId",
          "type": "bytes32"
        },
        {
          "internalType": "bytes",
          "name": "_message",
          "type": "bytes"
        }
      ],
      "name": "sendMessageWithTransfer",
      "outputs": [],
      "stateMutability": "payable",
      "type": "function"
    },
    {
      "inputs": [
        {
          "internalType": "uint256",
          "name": "_fee",
          "type": "uint256"
        }
      ],
      "name": "setFeeBase",
      "outputs": [],
      "stateMutability": "nonpayable",
      "type": "function"
    },
    {
      "inputs": [
        {
          "internalType": "uint256",
          "name": "_fee",
          "type": "uint256"
        }
      ],
      "name": "setFeePerByte",
      "outputs": [],
      "stateMutability": "nonpayable",
      "type": "function"
    },
    {
      "inputs": [
        {
          "internalType": "address",
          "name": "_addr",
          "type": "address"
        }
      ],
      "name": "setLiquidityBridge",
      "outputs": [],
      "stateMutability": "nonpayable",
      "type": "function"
    },
    {
      "inputs": [
        {
          "internalType": "address",
          "name": "_addr",
          "type": "address"
        }
      ],
      "name": "setPegBridge",
      "outputs": [],
      "stateMutability": "nonpayable",
      "type": "function"
    },
    {
      "inputs": [
        {
          "internalType": "address",
          "name": "_addr",
          "type": "address"
        }
      ],
      "name": "setPegBridgeV2",
      "outputs": [],
      "stateMutability": "nonpayable",
      "type": "function"
    },
    {
      "inputs": [
        {
          "internalType": "address",
          "name": "_addr",
          "type": "address"
        }
      ],
      "name": "setPegVault",
      "outputs": [],
      "stateMutability": "nonpayable",
      "type": "function"
    },
    {
      "inputs": [
        {
          "internalType": "address",
          "name": "_addr",
          "type": "address"
        }
      ],
      "name": "setPegVaultV2",
      "outputs": [],
      "stateMutability": "nonpayable",
      "type": "function"
    },
    {
      "inputs": [
        {
          "internalType": "uint256",
          "name": "_usage",
          "type": "uint256"
        }
      ],
      "name": "setPreExecuteMessageGasUsage",
      "outputs": [],
      "stateMutability": "nonpayable",
      "type": "function"
    },
    {
      "inputs": [],
      "name": "sigsVerifier",
      "outputs": [
        {
          "internalType": "contract ISigsVerifier",
          "name": "",
          "type": "address"
        }
      ],
      "stateMutability": "view",
      "type": "function"
    },
    {
      "inputs": [
        {
          "components": [
            {
              "internalType": "bytes",
              "name": "request",
              "type": "bytes"
            },
            {
              "internalType": "bytes[]",
              "name": "sigs",
              "type": "bytes[]"
            },
            {
              "internalType": "address[]",
              "name": "signers",
              "type": "address[]"
            },
            {
              "internalType": "uint256[]",
              "name": "powers",
              "type": "uint256[]"
            }
          ],
          "internalType": "struct MsgDataTypes.BridgeTransferParams",
          "name": "_transferParams",
          "type": "tuple"
        },
        {
          "components": [
            {
              "internalType": "bytes",
              "name": "message",
              "type": "bytes"
            },
            {
              "components": [
                {
                  "internalType": "enum MsgDataTypes.TransferType",
                  "name": "t",
                  "type": "uint8"
                },
                {
                  "internalType": "address",
                  "name": "sender",
                  "type": "address"
                },
                {
                  "internalType": "address",
                  "name": "receiver",
                  "type": "address"
                },
                {
                  "internalType": "address",
                  "name": "token",
                  "type": "address"
                },
                {
                  "internalType": "uint256",
                  "name": "amount",
                  "type": "uint256"
                },
                {
                  "internalType": "uint64",
                  "name": "wdseq",
                  "type": "uint64"
                },
                {
                  "internalType": "uint64",
                  "name": "srcChainId",
                  "type": "uint64"
                },
                {
                  "internalType": "bytes32",
                  "name": "refId",
                  "type": "bytes32"
                },
                {
                  "internalType": "bytes32",
                  "name": "srcTxHash",
                  "type": "bytes32"
                }
              ],
              "internalType": "struct MsgDataTypes.TransferInfo",
              "name": "transfer",
              "type": "tuple"
            },
            {
              "internalType": "bytes[]",
              "name": "sigs",
              "type": "bytes[]"
            },
            {
              "internalType": "address[]",
              "name": "signers",
              "type": "address[]"
            },
            {
              "internalType": "uint256[]",
              "name": "powers",
              "type": "uint256[]"
            }
          ],
          "internalType": "struct MsgDataTypes.MsgWithTransferExecutionParams",
          "name": "_msgParams",
          "type": "tuple"
        }
      ],
      "name": "transferAndExecuteMsg",
      "outputs": [],
      "stateMutability": "nonpayable",
      "type": "function"
    },
    {
      "inputs": [
        {
          "internalType": "address",
          "name": "newOwner",
          "type": "address"
        }
      ],
      "name": "transferOwnership",
      "outputs": [],
      "stateMutability": "nonpayable",
      "type": "function"
    },
    {
      "inputs": [
        {
          "internalType": "address",
          "name": "_account",
          "type": "address"
        },
        {
          "internalType": "uint256",
          "name": "_cumulativeFee",
          "type": "uint256"
        },
        {
          "internalType": "bytes[]",
          "name": "_sigs",
          "type": "bytes[]"
        },
        {
          "internalType": "address[]",
          "name": "_signers",
          "type": "address[]"
        },
        {
          "internalType": "uint256[]",
          "name": "_powers",
          "type": "uint256[]"
        }
      ],
      "name": "withdrawFee",
      "outputs": [],
      "stateMutability": "nonpayable",
      "type": "function"
    },
    {
      "inputs": [
        {
          "internalType": "address",
          "name": "",
          "type": "address"
        }
      ],
      "name": "withdrawnFees",
      "outputs": [
        {
          "internalType": "uint256",
          "name": "",
          "type": "uint256"
        }
      ],
      "stateMutability": "view",
      "type": "function"
    }
  ],
  "transactionHash": "0xe2499b4fe6f1058f1ba3a56f72b8e6f0661f807153bf338bcc1cd59c0e4eee14",
  "args": [
    "0xf89354F314faF344Abd754924438bA798E306DF2",
    "0xf89354F314faF344Abd754924438bA798E306DF2",
    "0xcb1dB69399755Cf8A9EbE8A3033f3082793b67eB",
    "0xf763c9ec62a9ff998da4c205c0f78b7024c66b68",
    "0xc1895c53b949203cb67d55bc25508436c67434bc",
    "0x62d06e1e3c6C202B60BE4c0E03ea8d6fcA88165f"
  ],
  "numDeployments": 2,
  "solcInputHash": "9598db387be7e2e599d0bf4d9ee72a01",
  "bytecode": "0x60a06040523480156200001157600080fd5b50604051620041263803806200412683398101604081905262000034916200011d565b84848484848a6200004533620000b4565b6001600160a01b03908116608052600580546001600160a01b0319908116978316979097179055600680548716958216959095179094556007805486169385169390931790925560088054851691841691909117905560098054909316911617905550620001b1945050505050565b600080546001600160a01b038381166001600160a01b0319831681178455604051919092169283917f8be0079c531659141344cd1fd0a4f28419497f9722a3daafe3b4186f6b6457e09190a35050565b6001600160a01b03811681146200011a57600080fd5b50565b60008060008060008060c087890312156200013757600080fd5b8651620001448162000104565b6020880151909650620001578162000104565b60408801519095506200016a8162000104565b60608801519094506200017d8162000104565b6080880151909350620001908162000104565b60a0880151909250620001a38162000104565b809150509295509295509295565b608051613f52620001d4600039600081816104eb01526108430152613f526000f3fe6080604052600436106101fe5760003560e01c806382980dc41161011d578063ccf2683b116100b0578063dfa2dbaf1161007f578063f2fde38b11610064578063f2fde38b146105bd578063f60bbe2a146105dd578063f83b0fb9146105f357600080fd5b8063dfa2dbaf1461057d578063e2c1ed251461059d57600080fd5b8063ccf2683b146104d9578063cd2abd661461050d578063d8257d171461054a578063db2c20c81461056a57600080fd5b806395e911a8116100ec57806395e911a8146104705780639b05a775146104865780639f3ce55a146104a6578063c66a9c5a146104b957600080fd5b806382980dc4146103da57806382efd502146104125780638da5cb5b1461043257806395b12c271461045057600080fd5b8063468a2d04116101955780635b3e5f50116101645780635b3e5f5014610367578063723d0a9d146103945780637b80ab20146103b45780637d7a101d146103c757600080fd5b8063468a2d04146102eb5780635335dca2146102fe578063584e45e114610331578063588be02b1461034757600080fd5b80633f395aff116101d15780633f395aff1461028557806340d0d026146102985780634289fbb3146102b85780634586f331146102cb57600080fd5b806303cbfe661461020357806306c28bd6146102255780632ff4c41114610245578063359ef75b14610265575b600080fd5b34801561020f57600080fd5b5061022361021e366004612f61565b610613565b005b34801561023157600080fd5b50610223610240366004612f7c565b61070c565b34801561025157600080fd5b50610223610260366004612fe1565b610798565b34801561027157600080fd5b50610223610280366004613095565b610a33565b61022361029336600461313c565b610a4f565b3480156102a457600080fd5b506102236102b3366004613245565b610d42565b6102236102c63660046132b1565b610d9a565b3480156102d757600080fd5b506102236102e6366004612f7c565b610e83565b6102236102f9366004613329565b610edf565b34801561030a57600080fd5b5061031e6103193660046133ee565b610f3f565b6040519081526020015b60405180910390f35b34801561033d57600080fd5b5061031e600a5481565b34801561035357600080fd5b50610223610362366004612f61565b610f65565b34801561037357600080fd5b5061031e610382366004612f61565b60036020526000908152604090205481565b3480156103a057600080fd5b506102236103af366004613245565b611052565b6102236103c236600461313c565b6110a0565b6102236103d5366004613430565b6112af565b3480156103e657600080fd5b506005546103fa906001600160a01b031681565b6040516001600160a01b039091168152602001610328565b34801561041e57600080fd5b5061022361042d366004612f61565b61130c565b34801561043e57600080fd5b506000546001600160a01b03166103fa565b34801561045c57600080fd5b506008546103fa906001600160a01b031681565b34801561047c57600080fd5b5061031e60015481565b34801561049257600080fd5b506102236104a1366004612f61565b6113f9565b6102236104b43660046134aa565b6114e6565b3480156104c557600080fd5b506009546103fa906001600160a01b031681565b3480156104e557600080fd5b506103fa7f000000000000000000000000000000000000000000000000000000000000000081565b34801561051957600080fd5b5061053d610528366004612f7c565b60046020526000908152604090205460ff1681565b604051610328919061352e565b34801561055657600080fd5b506007546103fa906001600160a01b031681565b61022361057836600461353c565b611540565b34801561058957600080fd5b506006546103fa906001600160a01b031681565b3480156105a957600080fd5b506102236105b8366004612f7c565b611594565b3480156105c957600080fd5b506102236105d8366004612f61565b611620565b3480156105e957600080fd5b5061031e60025481565b3480156105ff57600080fd5b5061022361060e366004612f61565b6116ff565b336106266000546001600160a01b031690565b6001600160a01b03161461066f5760405162461bcd60e51b81526020600482018190526024820152600080516020613ed183398151915260448201526064015b60405180910390fd5b6001600160a01b0381166106b75760405162461bcd60e51b815260206004820152600f60248201526e696e76616c6964206164647265737360881b6044820152606401610666565b600680546001600160a01b0319166001600160a01b0383169081179091556040519081527fd60e9ceb4f54f1bfb1741a4b35fc9d806d7ed48200b523203b92248ea38fa17d906020015b60405180910390a150565b3361071f6000546001600160a01b031690565b6001600160a01b0316146107635760405162461bcd60e51b81526020600482018190526024820152600080516020613ed18339815191526044820152606401610666565b60018190556040518181527f892dfdc99ecd3bb4f2f2cb118dca02f0bd16640ff156d3c6459d4282e336a5f290602001610701565b600046306040516020016107e992919091825260601b6001600160601b03191660208201527f77697468647261774665650000000000000000000000000000000000000000006034820152603f0190565b60408051808303601f19018152828252805160209182012090830181905260608c901b6001600160601b0319168383015260548084018c9052825180850390910181526074840192839052633416de1160e11b90925292507f00000000000000000000000000000000000000000000000000000000000000006001600160a01b03169163682dbc229161088a918b908b908b908b908b908b906078016137ab565b60006040518083038186803b1580156108a257600080fd5b505afa1580156108b6573d6000803e3d6000fd5b505050506001600160a01b0389166000908152600360205260408120546108dd908a61381f565b90506000811161092f5760405162461bcd60e51b815260206004820152601960248201527f4e6f206e657720616d6f756e7420746f207769746864726177000000000000006044820152606401610666565b6001600160a01b038a166000818152600360205260408082208c90555190919061c35090849084818181858888f193505050503d806000811461098e576040519150601f19603f3d011682016040523d82523d6000602084013e610993565b606091505b50509050806109e45760405162461bcd60e51b815260206004820152601660248201527f6661696c656420746f20776974686472617720666565000000000000000000006044820152606401610666565b604080516001600160a01b038d168152602081018490527f78473f3f373f7673597f4f0fa5873cb4d375fea6d4339ad6b56dbd411513cb3f910160405180910390a15050505050505050505050565b610a3b6117ec565b610a488585858585611850565b5050505050565b6000610a5a88611908565b90506000808281526004602081905260409091205460ff1690811115610a8257610a82613504565b14610acf5760405162461bcd60e51b815260206004820152601960248201527f7472616e7366657220616c7265616479206578656375746564000000000000006044820152606401610666565b6000818152600460208181526040808420805460ff1916909317909255815146918101919091526001600160601b03193060601b16918101919091527f4d657373616765576974685472616e73666572000000000000000000000000006054820152606701604051602081830303815290604052805190602001209050600560009054906101000a90046001600160a01b03166001600160a01b031663682dbc2282848e8e8e6101000135604051602001610b8e959493929190613836565b6040516020818303038152906040528a8a8a8a8a8a6040518863ffffffff1660e01b8152600401610bc597969594939291906137ab565b60006040518083038186803b158015610bdd57600080fd5b505afa158015610bf1573d6000803e3d6000fd5b50505050600080610c038b8e8e6121c1565b90506001816002811115610c1957610c19613504565b1415610c285760019150610cf2565b6002816002811115610c3c57610c3c613504565b1415610cbd576000848152600460205260408120805460ff19166001835b02179055507fe49c2c954d381d1448cf824743aeff9da7a1d82078a7c9e5817269cc359bd26c6000858d60c0016020810190610c969190613858565b8e6101000135604051610cac9493929190613892565b60405180910390a150505050610d37565b610cc88b8e8e6122fc565b90506001816002811115610cde57610cde613504565b1415610ced5760039150610cf2565b600291505b60008481526004602081905260409091208054849260ff19909116906001908490811115610d2257610d22613504565b0217905550610d3284838d612337565b505050505b505050505050505050565b610d5b610d5560408301602084016138c5565b836123a9565b610d96610d6882806138e6565b60208401610d7a61014086018661392d565b610d8861016088018861392d565b6103c26101808a018a61392d565b5050565b46851415610ddc5760405162461bcd60e51b815260206004820152600f60248201526e125b9d985b1a590818da185a5b9259608a1b6044820152606401610666565b6000610de88383610f3f565b905080341015610e2d5760405162461bcd60e51b815260206004820152601060248201526f496e73756666696369656e742066656560801b6044820152606401610666565b336001600160a01b03167f172762498a59a3bc4fed3f2b63f94f17ea0193cffdc304fe7d3eaf4d342d2f6688888888888834604051610e729796959493929190613977565b60405180910390a250505050505050565b33610e966000546001600160a01b031690565b6001600160a01b031614610eda5760405162461bcd60e51b81526020600482018190526024820152600080516020613ed18339815191526044820152606401610666565b600a55565b6000610eea88612608565b9050610f338a8a838a8a8a8a8a8a6040518060400160405280600781526020017f4d657373616765000000000000000000000000000000000000000000000000008152506126bf565b50505050505050505050565b600254600090610f4f90836139c4565b600154610f5c91906139e3565b90505b92915050565b33610f786000546001600160a01b031690565b6001600160a01b031614610fbc5760405162461bcd60e51b81526020600482018190526024820152600080516020613ed18339815191526044820152606401610666565b6001600160a01b0381166110045760405162461bcd60e51b815260206004820152600f60248201526e696e76616c6964206164647265737360881b6044820152606401610666565b600580546001600160a01b0319166001600160a01b0383169081179091556040519081527fbf9977180dc6e6cff25598c8e59150cecd7f8e448e092633d38ab7ee223ae05890602001610701565b611065610d5560408301602084016138c5565b610d9661107282806138e6565b6020840161108461014086018661392d565b61109261016088018861392d565b6102936101808a018a61392d565b60006110ab88611908565b90506000808281526004602081905260409091205460ff16908111156110d3576110d3613504565b146111205760405162461bcd60e51b815260206004820152601960248201527f7472616e7366657220616c7265616479206578656375746564000000000000006044820152606401610666565b6000818152600460208181526040808420805460ff1916909317909255815146918101919091526001600160601b03193060601b16918101919091527f4d657373616765576974685472616e73666572526566756e64000000000000006054820152606d01604051602081830303815290604052805190602001209050600560009054906101000a90046001600160a01b03166001600160a01b031663682dbc2282848e8e8e61010001356040516020016111df959493929190613836565b6040516020818303038152906040528a8a8a8a8a8a6040518863ffffffff1660e01b815260040161121697969594939291906137ab565b60006040518083038186803b15801561122e57600080fd5b505afa158015611242573d6000803e3d6000fd5b505050506000806112548b8e8e612915565b9050600181600281111561126a5761126a613504565b14156112795760019150610cf2565b600281600281111561128d5761128d613504565b1415610ced576000848152600460205260408120805460ff1916600183610c5a565b6112ba83838361296c565b336001600160a01b03167fe66fbe37d84ca73c589f782ac278844918ea6c56a4917f58707f715588080df28686868686346040516112fd969594939291906139fb565b60405180910390a25050505050565b3361131f6000546001600160a01b031690565b6001600160a01b0316146113635760405162461bcd60e51b81526020600482018190526024820152600080516020613ed18339815191526044820152606401610666565b6001600160a01b0381166113ab5760405162461bcd60e51b815260206004820152600f60248201526e696e76616c6964206164647265737360881b6044820152606401610666565b600880546001600160a01b0319166001600160a01b0383169081179091556040519081527ffb337a6c76476534518d5816caeb86263972470fedccfd047a35eb1825eaa9e890602001610701565b3361140c6000546001600160a01b031690565b6001600160a01b0316146114505760405162461bcd60e51b81526020600482018190526024820152600080516020613ed18339815191526044820152606401610666565b6001600160a01b0381166114985760405162461bcd60e51b815260206004820152600f60248201526e696e76616c6964206164647265737360881b6044820152606401610666565b600780546001600160a01b0319166001600160a01b0383169081179091556040519081527fa9db0c32d9c6c2f75f3b95047a9e67cc1c010eab792a4e6ca777ce918ad94aad90602001610701565b6114f183838361296c565b336001600160a01b03167fce3972bfffe49d317e1d128047a97a3d86b25c94f6f04409f988ef854d25e0e48585858534604051611532959493929190613a3c565b60405180910390a250505050565b600061154b88612a05565b9050610f338a8a838a8a8a8a8a8a6040518060400160405280600881526020017f4d657373616765320000000000000000000000000000000000000000000000008152506126bf565b336115a76000546001600160a01b031690565b6001600160a01b0316146115eb5760405162461bcd60e51b81526020600482018190526024820152600080516020613ed18339815191526044820152606401610666565b60028190556040518181527f210d4d5d2d36d571207dac98e383e2441c684684c885fb2d7c54f8d24422074c90602001610701565b336116336000546001600160a01b031690565b6001600160a01b0316146116775760405162461bcd60e51b81526020600482018190526024820152600080516020613ed18339815191526044820152606401610666565b6001600160a01b0381166116f35760405162461bcd60e51b815260206004820152602660248201527f4f776e61626c653a206e6577206f776e657220697320746865207a65726f206160448201527f64647265737300000000000000000000000000000000000000000000000000006064820152608401610666565b6116fc81612a9b565b50565b336117126000546001600160a01b031690565b6001600160a01b0316146117565760405162461bcd60e51b81526020600482018190526024820152600080516020613ed18339815191526044820152606401610666565b6001600160a01b03811661179e5760405162461bcd60e51b815260206004820152600f60248201526e696e76616c6964206164647265737360881b6044820152606401610666565b600980546001600160a01b0319166001600160a01b0383169081179091556040519081527f918a691a2a82482a10e11f43d7b627b2ba220dd08f251cb61933c42560f6fcb590602001610701565b6000546001600160a01b0316156118455760405162461bcd60e51b815260206004820152601160248201527f6f776e657220616c7265616479207365740000000000000000000000000000006044820152606401610666565b61184e33612a9b565b565b6005546001600160a01b0316156118a95760405162461bcd60e51b815260206004820152601b60248201527f6c697175696469747942726964676520616c72656164792073657400000000006044820152606401610666565b600580546001600160a01b03199081166001600160a01b03978816179091556006805482169587169590951790945560078054851693861693909317909255600880548416918516919091179055600980549092169216919091179055565b60008080600161191b60208601866138c5565b600681111561192c5761192c613504565b1415611ac7576119426040850160208601612f61565b6119526060860160408701612f61565b6119626080870160608801612f61565b608087013561197760e0890160c08a01613858565b6040516001600160601b0319606096871b8116602083015294861b851660348201529290941b9092166048820152605c8101919091526001600160c01b031960c092831b8116607c8301524690921b909116608482015260e0850135608c82015260ac0160408051808303601f19018152908290528051602090910120600554633c64f04b60e01b8352600483018290529093506001600160a01b031691508190633c64f04b9060240160206040518083038186803b158015611a3957600080fd5b505afa158015611a4d573d6000803e3d6000fd5b505050506040513d601f19601f82011682018060405250810190611a719190613a77565b1515600114611ac25760405162461bcd60e51b815260206004820152601660248201527f6272696467652072656c6179206e6f74206578697374000000000000000000006044820152606401610666565b61218c565b6002611ad660208601866138c5565b6006811115611ae757611ae7613504565b1415611c545746611afe60c0860160a08701613858565b611b0e6060870160408801612f61565b611b1e6080880160608901612f61565b6040516001600160c01b031960c095861b811660208301529390941b90921660288401526001600160601b0319606091821b8116603085015291901b1660448201526080850135605882015260780160408051808303601f19018152908290528051602090910120600554631c13568560e31b8352600483018290529093506001600160a01b03169150819063e09ab4289060240160206040518083038186803b158015611bcb57600080fd5b505afa158015611bdf573d6000803e3d6000fd5b505050506040513d601f19601f82011682018060405250810190611c039190613a77565b1515600114611ac25760405162461bcd60e51b815260206004820152601960248201527f627269646765207769746864726177206e6f74206578697374000000000000006044820152606401610666565b6003611c6360208601866138c5565b6006811115611c7457611c74613504565b1480611c9d57506004611c8a60208601866138c5565b6006811115611c9b57611c9b613504565b145b15611f1f57611cb26060850160408601612f61565b611cc26080860160608701612f61565b6080860135611cd76040880160208901612f61565b611ce760e0890160c08a01613858565b604051606095861b6001600160601b0319908116602083015294861b851660348201526048810193909352931b909116606882015260c09190911b6001600160c01b031916607c82015260e0850135608482015260a40160408051601f19818403018152919052805160209091012091506003611d6760208601866138c5565b6006811115611d7857611d78613504565b1415611e4f57506006546040516301e6472560e01b8152600481018390526001600160a01b039091169081906301e64725906024015b60206040518083038186803b158015611dc657600080fd5b505afa158015611dda573d6000803e3d6000fd5b505050506040513d601f19601f82011682018060405250810190611dfe9190613a77565b1515600114611ac25760405162461bcd60e51b815260206004820152601560248201527f6d696e74207265636f7264206e6f7420657869737400000000000000000000006044820152606401610666565b506007546040516301e6472560e01b8152600481018390526001600160a01b039091169081906301e647259060240160206040518083038186803b158015611e9657600080fd5b505afa158015611eaa573d6000803e3d6000fd5b505050506040513d601f19601f82011682018060405250810190611ece9190613a77565b1515600114611ac25760405162461bcd60e51b815260206004820152601960248201527f7769746864726177207265636f7264206e6f74206578697374000000000000006044820152606401610666565b6005611f2e60208601866138c5565b6006811115611f3f57611f3f613504565b1480611f6857506006611f5560208601866138c5565b6006811115611f6657611f66613504565b145b1561218c576005611f7c60208601866138c5565b6006811115611f8d57611f8d613504565b1415611fa557506008546001600160a01b0316611fb3565b506009546001600160a01b03165b611fc36060850160408601612f61565b611fd36080860160608701612f61565b6080860135611fe86040880160208901612f61565b611ff860e0890160c08a01613858565b604051606095861b6001600160601b0319908116602083015294861b85166034820152604881019390935290841b8316606883015260c01b6001600160c01b031916607c82015260e087013560848201529183901b1660a482015260b80160408051601f1981840301815291905280516020909101209150600561207f60208601866138c5565b600681111561209057612090613504565b14156120c3576040516301e6472560e01b8152600481018390526001600160a01b038216906301e6472590602401611dae565b6040516301e6472560e01b8152600481018390526001600160a01b038216906301e647259060240160206040518083038186803b15801561210357600080fd5b505afa158015612117573d6000803e3d6000fd5b505050506040513d601f19601f8201168201806040525081019061213b9190613a77565b151560011461218c5760405162461bcd60e51b815260206004820152601960248201527f7769746864726177207265636f7264206e6f74206578697374000000000000006044820152606401610666565b600081836040516020016121a293929190613ab0565b6040516020818303038152906040528051906020012092505050919050565b6000805a90506000806121da6060880160408901612f61565b6001600160a01b031634631f34afff60e21b6121fc60408b0160208c01612f61565b61220c60808c0160608d01612f61565b60808c013561222160e08e0160c08f01613858565b8c8c3360405160240161223a9796959493929190613adc565b60408051601f198184030181529181526020820180516001600160e01b03166001600160e01b03199094169390931790925290516122789190613b35565b60006040518083038185875af1925050503d80600081146122b5576040519150601f19603f3d011682016040523d82523d6000602084013e6122ba565b606091505b509150915081156122e357808060200190518101906122d99190613b51565b93505050506122f5565b6122ed8382612aeb565b600093505050505b9392505050565b6000805a90506000806123156060880160408901612f61565b6001600160a01b031634632d5bd7e360e11b6121fc60408b0160208c01612f61565b6123476060820160408301612f61565b6001600160a01b03167fa635eb05143f74743822bbd96428928de4c8ee8cc578299749be9425c17bb34d6000858561238560e0870160c08801613858565b86610100013560405161239c959493929190613b72565b60405180910390a2505050565b60018260068111156123bd576123bd613504565b141561245e576005546001600160a01b031663cdd1b25d6123de83806138e6565b6123eb602086018661392d565b6123f8604088018861392d565b61240560608a018a61392d565b6040518963ffffffff1660e01b8152600401612428989796959493929190613bb0565b600060405180830381600087803b15801561244257600080fd5b505af1158015612456573d6000803e3d6000fd5b505050505050565b600282600681111561247257612472613504565b1415612493576005546001600160a01b031663a21a92806123de83806138e6565b60038260068111156124a7576124a7613504565b14156124c8576006546001600160a01b031663f87343026123de83806138e6565b60058260068111156124dc576124dc613504565b141561259e576008546001600160a01b031663f87343026124fd83806138e6565b61250a602086018661392d565b612517604088018861392d565b61252460608a018a61392d565b6040518963ffffffff1660e01b8152600401612547989796959493929190613bb0565b602060405180830381600087803b15801561256157600080fd5b505af1158015612575573d6000803e3d6000fd5b505050506040513d601f19601f820116820180604052508101906125999190613c10565b505050565b60048260068111156125b2576125b2613504565b14156125d3576007546001600160a01b031663a21a92806123de83806138e6565b60068260068111156125e7576125e7613504565b1415610d96576009546001600160a01b031663a21a92806124fd83806138e6565b6040805160a081018252600080825260606020830181905292820181905291810182905260808101919091526040805160a081019091528061264d6020850185612f61565b6001600160a01b031681526020016040518060200160405280600081525081526020018360200160208101906126839190612f61565b6001600160a01b031681526020016126a16060850160408601613858565b67ffffffffffffffff16815260200183606001358152509050919050565b60006126cc898c8c612bf8565b90506000808281526004602081905260409091205460ff16908111156126f4576126f4613504565b146127415760405162461bcd60e51b815260206004820152601860248201527f6d65737361676520616c726561647920657865637574656400000000000000006044820152606401610666565b6000818152600460208181526040808420805460ff191690931790925590516127709146913091879101613c29565b60408051601f1981840301815282825280516020918201206005549184018190528383018690528251808503840181526060850193849052633416de1160e11b90935293506001600160a01b03169163682dbc22916127dd918d908d908d908d908d908d906064016137ab565b60006040518083038186803b1580156127f557600080fd5b505afa158015612809573d6000803e3d6000fd5b5050505060008061281b8c8f8f612c8a565b9050600181600281111561283157612831613504565b141561284057600191506128c5565b600281600281111561285457612854613504565b14156128c05760008481526004602052604090819020805460ff1916905560608d015160808e015191517fe49c2c954d381d1448cf824743aeff9da7a1d82078a7c9e5817269cc359bd26c926128af92600192899290613892565b60405180910390a150505050610f33565b600291505b60008481526004602081905260409091208054849260ff199091169060019084908111156128f5576128f5613504565b021790555061290584838e612e6c565b5050505050505050505050505050565b6000805a905060008061292e6060880160408901612f61565b6001600160a01b0316346305e5a4c160e11b61295060808b0160608c01612f61565b8a608001358a8a3360405160240161223a959493929190613c68565b468314156129ae5760405162461bcd60e51b815260206004820152600f60248201526e125b9d985b1a590818da185a5b9259608a1b6044820152606401610666565b60006129ba8383610f3f565b9050803410156129ff5760405162461bcd60e51b815260206004820152601060248201526f496e73756666696369656e742066656560801b6044820152606401610666565b50505050565b6040805160a081018252600080825260606020830181905292820181905291810182905260808101919091526040805160a081019091526000815260208101612a4e84806138e6565b8080601f0160208091040260200160405190810160405280939291908181526020018383808284376000920191909152505050908252506020908101906126839060408601908601612f61565b600080546001600160a01b038381166001600160a01b0319831681178455604051919092169283917f8be0079c531659141344cd1fd0a4f28419497f9722a3daafe3b4186f6b6457e09190a35050565b60005a90506000600a5445612b00919061381f565b90508084108015612b1b5750612b17604085613ca7565b8211155b15612b2257fe5b6000612b2d84612eba565b9050612b6e816040518060400160405280600e81526020017f4d53474255533a3a524556455254000000000000000000000000000000000000815250612f19565b612bba5760405162461bcd60e51b815260206004820152601060248201527f657865637574696f6e20726576657274000000000000000000000000000000006044820152606401610666565b7fffdd6142bbb721f3400e3908b04b86f60649b2e4d191e3f4c50c32c3e6471d2f81604051612be99190613cc9565b60405180910390a15050505050565b6020830151805160009190612c3e578451604051612c2c919060200160609190911b6001600160601b031916815260140190565b60405160208183030381529060405290505b600181866040015187606001518860800151468989604051602001612c6a989796959493929190613cdc565b604051602081830303815290604052805190602001209150509392505050565b6000805a90506000606086602001515160001415612d7b5786604001516001600160a01b0316346040518060600160405280602c8152602001613ef1602c91398051602090910120895160608b0151604051612cf09291908c908c903390602401613d5d565b60408051601f198184030181529181526020820180516001600160e01b03166001600160e01b0319909416939093179092529051612d2e9190613b35565b60006040518083038185875af1925050503d8060008114612d6b576040519150601f19603f3d011682016040523d82523d6000602084013e612d70565b606091505b509092509050612e52565b86604001516001600160a01b0316346040518060600160405280602a8152602001613ea7602a91398051906020012089602001518a606001518a8a33604051602401612dcb959493929190613d91565b60408051601f198184030181529181526020820180516001600160e01b03166001600160e01b0319909416939093179092529051612e099190613b35565b60006040518083038185875af1925050503d8060008114612e46576040519150601f19603f3d011682016040523d82523d6000602084013e612e4b565b606091505b5090925090505b81156122e357808060200190518101906122d99190613b51565b80604001516001600160a01b03167fa635eb05143f74743822bbd96428928de4c8ee8cc578299749be9425c17bb34d600185858560600151866080015160405161239c959493929190613b72565b6060604482511015612eff57505060408051808201909152601d81527f5472616e73616374696f6e2072657665727465642073696c656e746c79000000602082015290565b60048201915081806020019051810190610f5f9190613df9565b6000610f5c8383600081518351148015610f5c5750508051602091820120825192909101919091201490565b80356001600160a01b0381168114612f5c57600080fd5b919050565b600060208284031215612f7357600080fd5b610f5c82612f45565b600060208284031215612f8e57600080fd5b5035919050565b60008083601f840112612fa757600080fd5b50813567ffffffffffffffff811115612fbf57600080fd5b6020830191508360208260051b8501011115612fda57600080fd5b9250929050565b60008060008060008060008060a0898b031215612ffd57600080fd5b61300689612f45565b975060208901359650604089013567ffffffffffffffff8082111561302a57600080fd5b6130368c838d01612f95565b909850965060608b013591508082111561304f57600080fd5b61305b8c838d01612f95565b909650945060808b013591508082111561307457600080fd5b506130818b828c01612f95565b999c989b5096995094979396929594505050565b600080600080600060a086880312156130ad57600080fd5b6130b686612f45565b94506130c460208701612f45565b93506130d260408701612f45565b92506130e060608701612f45565b91506130ee60808701612f45565b90509295509295909350565b60008083601f84011261310c57600080fd5b50813567ffffffffffffffff81111561312457600080fd5b602083019150836020828501011115612fda57600080fd5b6000806000806000806000806000898b036101a081121561315c57600080fd5b8a3567ffffffffffffffff8082111561317457600080fd5b6131808e838f016130fa565b909c509a508a9150610120601f198401121561319b57600080fd5b60208d0199506101408d01359250808311156131b657600080fd5b6131c28e848f01612f95565b90995097506101608d01359250889150808311156131df57600080fd5b6131eb8e848f01612f95565b90975095506101808d013592508691508083111561320857600080fd5b50506132168c828d01612f95565b915080935050809150509295985092959850929598565b60006080828403121561323f57600080fd5b50919050565b6000806040838503121561325857600080fd5b823567ffffffffffffffff8082111561327057600080fd5b61327c8683870161322d565b9350602085013591508082111561329257600080fd5b5083016101a081860312156132a657600080fd5b809150509250929050565b60008060008060008060a087890312156132ca57600080fd5b6132d387612f45565b9550602087013594506132e860408801612f45565b935060608701359250608087013567ffffffffffffffff81111561330b57600080fd5b61331789828a016130fa565b979a9699509497509295939492505050565b60008060008060008060008060006101008a8c03121561334857600080fd5b893567ffffffffffffffff8082111561336057600080fd5b61336c8d838e016130fa565b909b5099508991506133818d60208e0161322d565b985060a08c013591508082111561339757600080fd5b6133a38d838e01612f95565b909850965060c08c01359150808211156133bc57600080fd5b6133c88d838e01612f95565b909650945060e08c01359150808211156133e157600080fd5b506132168c828d01612f95565b6000806020838503121561340157600080fd5b823567ffffffffffffffff81111561341857600080fd5b613424858286016130fa565b90969095509350505050565b60008060008060006060868803121561344857600080fd5b853567ffffffffffffffff8082111561346057600080fd5b61346c89838a016130fa565b909750955060208801359450604088013591508082111561348c57600080fd5b50613499888289016130fa565b969995985093965092949392505050565b600080600080606085870312156134c057600080fd5b6134c985612f45565b935060208501359250604085013567ffffffffffffffff8111156134ec57600080fd5b6134f8878288016130fa565b95989497509550505050565b634e487b7160e01b600052602160045260246000fd5b6005811061352a5761352a613504565b9052565b60208101610f5f828461351a565b600080600080600080600080600060a08a8c03121561355a57600080fd5b893567ffffffffffffffff8082111561357257600080fd5b61357e8d838e016130fa565b909b50995060208c013591508082111561359757600080fd5b6135a38d838e0161322d565b985060408c01359150808211156135b957600080fd5b6135c58d838e01612f95565b909850965060608c01359150808211156135de57600080fd5b6135ea8d838e01612f95565b909650945060808c01359150808211156133e157600080fd5b60005b8381101561361e578181015183820152602001613606565b838111156129ff5750506000910152565b60008151808452613647816020860160208601613603565b601f01601f19169290920160200192915050565b81835281816020850137506000828201602090810191909152601f909101601f19169091010190565b81835260006020808501808196508560051b810191508460005b878110156137085782840389528135601e198836030181126136bf57600080fd5b8701803567ffffffffffffffff8111156136d857600080fd5b8036038913156136e757600080fd5b6136f4868289850161365b565b9a87019a955050509084019060010161369e565b5091979650505050505050565b8183526000602080850194508260005b85811015613751576001600160a01b0361373e83612f45565b1687529582019590820190600101613725565b509495945050505050565b81835260007f07ffffffffffffffffffffffffffffffffffffffffffffffffffffffffffffff83111561378e57600080fd5b8260051b8083602087013760009401602001938452509192915050565b6080815260006137be608083018a61362f565b82810360208401526137d181898b613684565b905082810360408401526137e6818789613715565b905082810360608401526137fb81858761375c565b9a9950505050505050505050565b634e487b7160e01b600052601160045260246000fd5b60008282101561383157613831613809565b500390565b8581528460208201528284604083013760409201918201526060019392505050565b60006020828403121561386a57600080fd5b813567ffffffffffffffff811681146122f557600080fd5b6002811061352a5761352a613504565b608081016138a08287613882565b84602083015267ffffffffffffffff8416604083015282606083015295945050505050565b6000602082840312156138d757600080fd5b8135600781106122f557600080fd5b6000808335601e198436030181126138fd57600080fd5b83018035915067ffffffffffffffff82111561391857600080fd5b602001915036819003821315612fda57600080fd5b6000808335601e1984360301811261394457600080fd5b83018035915067ffffffffffffffff82111561395f57600080fd5b6020019150600581901b3603821315612fda57600080fd5b60006001600160a01b03808a16835288602084015280881660408401525085606083015260c060808301526139b060c08301858761365b565b90508260a083015298975050505050505050565b60008160001904831182151516156139de576139de613809565b500290565b600082198211156139f6576139f6613809565b500190565b608081526000613a0f60808301888a61365b565b8660208401528281036040840152613a2881868861365b565b915050826060830152979650505050505050565b6001600160a01b0386168152846020820152608060408201526000613a6560808301858761365b565b90508260608301529695505050505050565b600060208284031215613a8957600080fd5b815180151581146122f557600080fd5b60028110613aa957613aa9613504565b60f81b9052565b613aba8185613a99565b60609290921b6001600160601b03191660018301526015820152603501919050565b60006001600160a01b03808a168352808916602084015287604084015267ffffffffffffffff8716606084015260c06080840152613b1e60c08401868861365b565b915080841660a08401525098975050505050505050565b60008251613b47818460208701613603565b9190910192915050565b600060208284031215613b6357600080fd5b8151600381106122f557600080fd5b60a08101613b808288613882565b856020830152613b93604083018661351a565b67ffffffffffffffff939093166060820152608001529392505050565b608081526000613bc4608083018a8c61365b565b8281036020840152613bd781898b613684565b90508281036040840152613bec818789613715565b90508281036060840152613c0181858761375c565b9b9a5050505050505050505050565b600060208284031215613c2257600080fd5b5051919050565b8381526bffffffffffffffffffffffff198360601b16602082015260008251613c59816034850160208701613603565b91909101603401949350505050565b60006001600160a01b03808816835286602084015260806040840152613c9260808401868861365b565b91508084166060840152509695505050505050565b600082613cc457634e487b7160e01b600052601260045260246000fd5b500490565b602081526000610f5c602083018461362f565b613ce6818a613a99565b60008851613cfb816001850160208d01613603565b80830190506bffffffffffffffffffffffff198960601b1660018201526001600160c01b0319808960c01b16601583015287601d830152808760c01b16603d830152508385604583013760009301604501928352509098975050505050505050565b60006001600160a01b03808816835267ffffffffffffffff8716602084015260806040840152613c9260808401868861365b565b608081526000613da4608083018861362f565b67ffffffffffffffff871660208401528281036040840152613dc781868861365b565b9150506001600160a01b03831660608301529695505050505050565b634e487b7160e01b600052604160045260246000fd5b600060208284031215613e0b57600080fd5b815167ffffffffffffffff80821115613e2357600080fd5b818401915084601f830112613e3757600080fd5b815181811115613e4957613e49613de3565b604051601f8201601f19908116603f01168101908382118183101715613e7157613e71613de3565b81604052828152876020848701011115613e8a57600080fd5b613e9b836020830160208801613603565b97965050505050505056fe657865637574654d6573736167652862797465732c75696e7436342c62797465732c61646472657373294f776e61626c653a2063616c6c6572206973206e6f7420746865206f776e6572657865637574654d65737361676528616464726573732c75696e7436342c62797465732c6164647265737329a26469706673582212209996fe92836accb8acc2a27115fca6308da4dd3b768fc5dfb98b67ee299c09c264736f6c63430008090033",
  "devdoc": {
    "kind": "dev",
    "methods": {
      "calcFee(bytes)": {
        "params": {
          "_message": "Arbitrary message bytes to be decoded by the destination app contract. @return The required fee."
        }
      },
      "executeMessage(bytes,(address,address,uint64,bytes32),bytes[],address[],uint256[])": {
        "params": {
          "_message": "Arbitrary message bytes originated from and encoded by the source app contract",
          "_powers": "The signing powers of the signers.",
          "_route": "The info about the sender and the receiver.",
          "_signers": "The sorted list of signers.",
          "_sigs": "The list of signatures sorted by signing addresses in ascending order. A relay must be signed-off by +2/3 of the sigsVerifier's current signing power to be delivered."
        }
      },
      "executeMessageWithTransfer(bytes,(uint8,address,address,address,uint256,uint64,uint64,bytes32,bytes32),bytes[],address[],uint256[])": {
        "params": {
          "_message": "Arbitrary message bytes originated from and encoded by the source app contract",
          "_powers": "The signing powers of the signers.",
          "_signers": "The sorted list of signers.",
          "_sigs": "The list of signatures sorted by signing addresses in ascending order. A relay must be signed-off by +2/3 of the sigsVerifier's current signing power to be delivered.",
          "_transfer": "The transfer info."
        }
      },
      "executeMessageWithTransferRefund(bytes,(uint8,address,address,address,uint256,uint64,uint64,bytes32,bytes32),bytes[],address[],uint256[])": {
        "params": {
          "_message": "Arbitrary message bytes originated from and encoded by the source app contract",
          "_powers": "The signing powers of the signers.",
          "_signers": "The sorted list of signers.",
          "_sigs": "The list of signatures sorted by signing addresses in ascending order. A relay must be signed-off by +2/3 of the sigsVerifier's current signing power to be delivered.",
          "_transfer": "The transfer info."
        }
      },
      "owner()": {
        "details": "Returns the address of the current owner."
      },
      "refundAndExecuteMsg((bytes,bytes[],address[],uint256[]),(bytes,(uint8,address,address,address,uint256,uint64,uint64,bytes32,bytes32),bytes[],address[],uint256[]))": {
        "details": "caller needs to get the required input params from SGN",
        "params": {
          "_msgParams": "params to execute message for refund",
          "_transferParams": "params to call bridge transfer for refund"
        }
      },
      "sendMessage(address,uint256,bytes)": {
        "params": {
          "_dstChainId": "The destination chain ID.",
          "_message": "Arbitrary message bytes to be decoded by the destination app contract.",
          "_receiver": "The address of the destination app contract."
        }
      },
      "sendMessageWithTransfer(address,uint256,address,bytes32,bytes)": {
        "params": {
          "_dstChainId": "The destination chain ID.",
          "_message": "Arbitrary message bytes to be decoded by the destination app contract.",
          "_receiver": "The address of the destination app contract.",
          "_srcBridge": "The bridge contract to send the transfer with.",
          "_srcTransferId": "The transfer ID."
        }
      },
      "transferAndExecuteMsg((bytes,bytes[],address[],uint256[]),(bytes,(uint8,address,address,address,uint256,uint64,uint64,bytes32,bytes32),bytes[],address[],uint256[]))": {
        "details": "caller needs to get the required input params from SGN",
        "params": {
          "_msgParams": "params to execute message",
          "_transferParams": "params to call bridge transfer"
        }
      },
      "transferOwnership(address)": {
        "details": "Transfers ownership of the contract to a new account (`newOwner`). Can only be called by the current owner."
      },
      "withdrawFee(address,uint256,bytes[],address[],uint256[])": {
        "params": {
          "_account": "The address receiving the fee.",
          "_cumulativeFee": "The cumulative fee credited to the account. Tracked by SGN.",
          "_powers": "The signing powers of the signers.",
          "_signers": "The sorted list of signers.",
          "_sigs": "The list of signatures sorted by signing addresses in ascending order. A withdrawal must be signed-off by +2/3 of the sigsVerifier's current signing power to be delivered."
        }
      }
    },
    "version": 1
  },
  "userdoc": {
    "kind": "user",
    "methods": {
      "calcFee(bytes)": {
        "notice": "Calculates the required fee for the message."
      },
      "executeMessage(bytes,(address,address,uint64,bytes32),bytes[],address[],uint256[])": {
        "notice": "Execute a message not associated with a transfer."
      },
      "executeMessageWithTransfer(bytes,(uint8,address,address,address,uint256,uint64,uint64,bytes32,bytes32),bytes[],address[],uint256[])": {
        "notice": "Execute a message with a successful transfer."
      },
      "executeMessageWithTransferRefund(bytes,(uint8,address,address,address,uint256,uint64,uint64,bytes32,bytes32),bytes[],address[],uint256[])": {
        "notice": "Execute a message with a refunded transfer."
      },
      "refundAndExecuteMsg((bytes,bytes[],address[],uint256[]),(bytes,(uint8,address,address,address,uint256,uint64,uint64,bytes32,bytes32),bytes[],address[],uint256[]))": {
        "notice": "combine bridge refund and msg execution calls into a single tx"
      },
      "sendMessage(address,uint256,bytes)": {
        "notice": "Sends a message to a contract on another chain. Sender needs to make sure the uniqueness of the message Id, which is computed as hash(type.MessageOnly, sender, receiver, srcChainId, srcTxHash, dstChainId, message). If messages with the same Id are sent, only one of them will succeed at dst chain. A fee is charged in the native gas token."
      },
      "sendMessageWithTransfer(address,uint256,address,bytes32,bytes)": {
        "notice": "Sends a message associated with a transfer to a contract on another chain. If messages with the same srcTransferId are sent, only one of them will succeed. A fee is charged in the native token."
      },
      "transferAndExecuteMsg((bytes,bytes[],address[],uint256[]),(bytes,(uint8,address,address,address,uint256,uint64,uint64,bytes32,bytes32),bytes[],address[],uint256[]))": {
        "notice": "combine bridge transfer and msg execution calls into a single tx"
      },
      "withdrawFee(address,uint256,bytes[],address[],uint256[])": {
        "notice": "Withdraws message fee in the form of native gas token."
      }
    },
    "version": 1
  },
  "storageLayout": {
    "storage": [
      {
        "astId": 28388,
        "contract": "contracts/message/messagebus/MessageBus.sol:MessageBus",
        "label": "_owner",
        "offset": 0,
        "slot": "0",
        "type": "t_address"
      },
      {
        "astId": 22284,
        "contract": "contracts/message/messagebus/MessageBus.sol:MessageBus",
        "label": "feeBase",
        "offset": 0,
        "slot": "1",
        "type": "t_uint256"
      },
      {
        "astId": 22286,
        "contract": "contracts/message/messagebus/MessageBus.sol:MessageBus",
        "label": "feePerByte",
        "offset": 0,
        "slot": "2",
        "type": "t_uint256"
      },
      {
        "astId": 22290,
        "contract": "contracts/message/messagebus/MessageBus.sol:MessageBus",
        "label": "withdrawnFees",
        "offset": 0,
        "slot": "3",
        "type": "t_mapping(t_address,t_uint256)"
      },
      {
        "astId": 20362,
        "contract": "contracts/message/messagebus/MessageBus.sol:MessageBus",
        "label": "executedMessages",
        "offset": 0,
        "slot": "4",
        "type": "t_mapping(t_bytes32,t_enum(TxStatus)20207)"
      },
      {
        "astId": 20364,
        "contract": "contracts/message/messagebus/MessageBus.sol:MessageBus",
        "label": "liquidityBridge",
        "offset": 0,
        "slot": "5",
        "type": "t_address"
      },
      {
        "astId": 20366,
        "contract": "contracts/message/messagebus/MessageBus.sol:MessageBus",
        "label": "pegBridge",
        "offset": 0,
        "slot": "6",
        "type": "t_address"
      },
      {
        "astId": 20368,
        "contract": "contracts/message/messagebus/MessageBus.sol:MessageBus",
        "label": "pegVault",
        "offset": 0,
        "slot": "7",
        "type": "t_address"
      },
      {
        "astId": 20370,
        "contract": "contracts/message/messagebus/MessageBus.sol:MessageBus",
        "label": "pegBridgeV2",
        "offset": 0,
        "slot": "8",
        "type": "t_address"
      },
      {
        "astId": 20372,
        "contract": "contracts/message/messagebus/MessageBus.sol:MessageBus",
        "label": "pegVaultV2",
        "offset": 0,
        "slot": "9",
        "type": "t_address"
      },
      {
        "astId": 20374,
        "contract": "contracts/message/messagebus/MessageBus.sol:MessageBus",
        "label": "preExecuteMessageGasUsage",
        "offset": 0,
        "slot": "10",
        "type": "t_uint256"
      }
    ],
    "types": {
      "t_address": {
        "encoding": "inplace",
        "label": "address",
        "numberOfBytes": "20"
      },
      "t_bytes32": {
        "encoding": "inplace",
        "label": "bytes32",
        "numberOfBytes": "32"
      },
      "t_enum(TxStatus)20207": {
        "encoding": "inplace",
        "label": "enum MsgDataTypes.TxStatus",
        "numberOfBytes": "1"
      },
      "t_mapping(t_address,t_uint256)": {
        "encoding": "mapping",
        "key": "t_address",
        "label": "mapping(address => uint256)",
        "numberOfBytes": "32",
        "value": "t_uint256"
      },
      "t_mapping(t_bytes32,t_enum(TxStatus)20207)": {
        "encoding": "mapping",
        "key": "t_bytes32",
        "label": "mapping(bytes32 => enum MsgDataTypes.TxStatus)",
        "numberOfBytes": "32",
        "value": "t_enum(TxStatus)20207"
      },
      "t_uint256": {
        "encoding": "inplace",
        "label": "uint256",
        "numberOfBytes": "32"
      }
    }
  }
}