{
  "address": "0x7593F754E98210f6e6aCC456724ed5F4bef0c9f8",
  "abi": [
    {
      "inputs": [
        {
          "internalType": "address",
          "name": "_messageBus",
          "type": "address"
        }
      ],
      "stateMutability": "nonpayable",
      "type": "constructor"
    },
    {
      "anonymous": false,
      "inputs": [
        {
          "indexed": false,
          "internalType": "bytes",
          "name": "sender",
          "type": "bytes"
        },
        {
          "indexed": false,
          "internalType": "uint64",
          "name": "srcChainId",
          "type": "uint64"
        },
        {
          "indexed": false,
          "internalType": "uint64",
          "name": "nonce",
          "type": "uint64"
        },
        {
          "indexed": false,
          "internalType": "bytes",
          "name": "message",
          "type": "bytes"
        }
      ],
      "name": "Message2Received",
      "type": "event"
    },
    {
      "anonymous": false,
      "inputs": [
        {
          "indexed": false,
          "internalType": "address",
          "name": "messageBus",
          "type": "address"
        }
      ],
      "name": "MessageBusUpdated",
      "type": "event"
    },
    {
      "anonymous": false,
      "inputs": [
        {
          "indexed": false,
          "internalType": "address",
          "name": "sender",
          "type": "address"
        },
        {
          "indexed": false,
          "internalType": "uint64",
          "name": "srcChainId",
          "type": "uint64"
        },
        {
          "indexed": false,
          "internalType": "uint64",
          "name": "nonce",
          "type": "uint64"
        },
        {
          "indexed": false,
          "internalType": "bytes",
          "name": "message",
          "type": "bytes"
        }
      ],
      "name": "MessageReceived",
      "type": "event"
    },
    {
      "anonymous": false,
      "inputs": [
        {
          "indexed": false,
          "internalType": "address",
          "name": "token",
          "type": "address"
        },
        {
          "indexed": false,
          "internalType": "uint256",
          "name": "amount",
          "type": "uint256"
        },
        {
          "indexed": false,
          "internalType": "address",
          "name": "sender",
          "type": "address"
        },
        {
          "indexed": false,
          "internalType": "uint64",
          "name": "srcChainId",
          "type": "uint64"
        },
        {
          "indexed": false,
          "internalType": "address",
          "name": "receiver",
          "type": "address"
        },
        {
          "indexed": false,
          "internalType": "bytes",
          "name": "message",
          "type": "bytes"
        }
      ],
      "name": "MessageReceivedWithTransfer",
      "type": "event"
    },
    {
      "anonymous": false,
      "inputs": [
        {
          "indexed": true,
          "internalType": "address",
          "name": "previousOwner",
          "type": "address"
        },
        {
          "indexed": true,
          "internalType": "address",
          "name": "newOwner",
          "type": "address"
        }
      ],
      "name": "OwnershipTransferred",
      "type": "event"
    },
    {
      "anonymous": false,
      "inputs": [
        {
          "indexed": false,
          "internalType": "address",
          "name": "receiver",
          "type": "address"
        },
        {
          "indexed": false,
          "internalType": "address",
          "name": "token",
          "type": "address"
        },
        {
          "indexed": false,
          "internalType": "uint256",
          "name": "amount",
          "type": "uint256"
        },
        {
          "indexed": false,
          "internalType": "bytes",
          "name": "message",
          "type": "bytes"
        }
      ],
      "name": "Refunded",
      "type": "event"
    },
    {
      "inputs": [
        {
          "internalType": "address",
          "name": "_token",
          "type": "address"
        },
        {
          "internalType": "uint256",
          "name": "_amount",
          "type": "uint256"
        }
      ],
      "name": "drainToken",
      "outputs": [],
      "stateMutability": "nonpayable",
      "type": "function"
    },
    {
      "inputs": [
        {
          "internalType": "bytes",
          "name": "_sender",
          "type": "bytes"
        },
        {
          "internalType": "uint64",
          "name": "_srcChainId",
          "type": "uint64"
        },
        {
          "internalType": "bytes",
          "name": "_message",
          "type": "bytes"
        },
        {
          "internalType": "address",
          "name": "",
          "type": "address"
        }
      ],
      "name": "executeMessage",
      "outputs": [
        {
          "internalType": "enum IMessageReceiverApp.ExecutionStatus",
          "name": "",
          "type": "uint8"
        }
      ],
      "stateMutability": "payable",
      "type": "function"
    },
    {
      "inputs": [
        {
          "internalType": "address",
          "name": "_sender",
          "type": "address"
        },
        {
          "internalType": "uint64",
          "name": "_srcChainId",
          "type": "uint64"
        },
        {
          "internalType": "bytes",
          "name": "_message",
          "type": "bytes"
        },
        {
          "internalType": "address",
          "name": "",
          "type": "address"
        }
      ],
      "name": "executeMessage",
      "outputs": [
        {
          "internalType": "enum IMessageReceiverApp.ExecutionStatus",
          "name": "",
          "type": "uint8"
        }
      ],
      "stateMutability": "payable",
      "type": "function"
    },
    {
      "inputs": [
        {
          "internalType": "address",
          "name": "_sender",
          "type": "address"
        },
        {
          "internalType": "address",
          "name": "_token",
          "type": "address"
        },
        {
          "internalType": "uint256",
          "name": "_amount",
          "type": "uint256"
        },
        {
          "internalType": "uint64",
          "name": "_srcChainId",
          "type": "uint64"
        },
        {
          "internalType": "bytes",
          "name": "_message",
          "type": "bytes"
        },
        {
          "internalType": "address",
          "name": "",
          "type": "address"
        }
      ],
      "name": "executeMessageWithTransfer",
      "outputs": [
        {
          "internalType": "enum IMessageReceiverApp.ExecutionStatus",
          "name": "",
          "type": "uint8"
        }
      ],
      "stateMutability": "payable",
      "type": "function"
    },
    {
      "inputs": [
        {
          "internalType": "address",
          "name": "_sender",
          "type": "address"
        },
        {
          "internalType": "address",
          "name": "_token",
          "type": "address"
        },
        {
          "internalType": "uint256",
          "name": "_amount",
          "type": "uint256"
        },
        {
          "internalType": "uint64",
          "name": "_srcChainId",
          "type": "uint64"
        },
        {
          "internalType": "bytes",
          "name": "_message",
          "type": "bytes"
        },
        {
          "internalType": "address",
          "name": "_executor",
          "type": "address"
        }
      ],
      "name": "executeMessageWithTransferFallback",
      "outputs": [
        {
          "internalType": "enum IMessageReceiverApp.ExecutionStatus",
          "name": "",
          "type": "uint8"
        }
      ],
      "stateMutability": "payable",
      "type": "function"
    },
    {
      "inputs": [
        {
          "internalType": "address",
          "name": "_token",
          "type": "address"
        },
        {
          "internalType": "uint256",
          "name": "_amount",
          "type": "uint256"
        },
        {
          "internalType": "bytes",
          "name": "_message",
          "type": "bytes"
        },
        {
          "internalType": "address",
          "name": "",
          "type": "address"
        }
      ],
      "name": "executeMessageWithTransferRefund",
      "outputs": [
        {
          "internalType": "enum IMessageReceiverApp.ExecutionStatus",
          "name": "",
          "type": "uint8"
        }
      ],
      "stateMutability": "payable",
      "type": "function"
    },
    {
      "inputs": [],
      "name": "messageBus",
      "outputs": [
        {
          "internalType": "address",
          "name": "",
          "type": "address"
        }
      ],
      "stateMutability": "view",
      "type": "function"
    },
    {
      "inputs": [],
      "name": "owner",
      "outputs": [
        {
          "internalType": "address",
          "name": "",
          "type": "address"
        }
      ],
      "stateMutability": "view",
      "type": "function"
    },
    {
      "inputs": [
        {
          "internalType": "bytes",
          "name": "_receiver",
          "type": "bytes"
        },
        {
          "internalType": "uint64",
          "name": "_dstChainId",
          "type": "uint64"
        },
        {
          "internalType": "bytes",
          "name": "_message",
          "type": "bytes"
        }
      ],
      "name": "sendMessage",
      "outputs": [],
      "stateMutability": "payable",
      "type": "function"
    },
    {
      "inputs": [
        {
          "internalType": "address",
          "name": "_receiver",
          "type": "address"
        },
        {
          "internalType": "uint64",
          "name": "_dstChainId",
          "type": "uint64"
        }
      ],
      "name": "sendMessage",
      "outputs": [],
      "stateMutability": "payable",
      "type": "function"
    },
    {
      "inputs": [
        {
          "internalType": "address",
          "name": "_receiver",
          "type": "address"
        },
        {
          "internalType": "uint64",
          "name": "_dstChainId",
          "type": "uint64"
        },
        {
          "internalType": "bytes",
          "name": "_message",
          "type": "bytes"
        },
        {
          "internalType": "uint64",
          "name": "_nonce",
          "type": "uint64"
        }
      ],
      "name": "sendMessageWithNonce",
      "outputs": [],
      "stateMutability": "payable",
      "type": "function"
    },
    {
      "inputs": [
        {
          "internalType": "address",
          "name": "_receiver",
          "type": "address"
        },
        {
          "internalType": "address",
          "name": "_token",
          "type": "address"
        },
        {
          "internalType": "uint256",
          "name": "_amount",
          "type": "uint256"
        },
        {
          "internalType": "uint64",
          "name": "_dstChainId",
          "type": "uint64"
        },
        {
          "internalType": "uint32",
          "name": "_maxSlippage",
          "type": "uint32"
        },
        {
          "internalType": "bytes",
          "name": "_message",
          "type": "bytes"
        },
        {
          "internalType": "enum MsgDataTypes.BridgeSendType",
          "name": "_bridgeSendType",
          "type": "uint8"
        }
      ],
      "name": "sendMessageWithTransfer",
      "outputs": [],
      "stateMutability": "payable",
      "type": "function"
    },
    {
      "inputs": [
        {
          "internalType": "address",
          "name": "_receiver",
          "type": "address"
        },
        {
          "internalType": "uint64",
          "name": "_dstChainId",
          "type": "uint64"
        },
        {
          "internalType": "bytes[]",
          "name": "_messages",
          "type": "bytes[]"
        },
        {
          "internalType": "uint256[]",
          "name": "_fees",
          "type": "uint256[]"
        }
      ],
      "name": "sendMessages",
      "outputs": [],
      "stateMutability": "payable",
      "type": "function"
    },
    {
      "inputs": [
        {
          "internalType": "address",
          "name": "_messageBus",
          "type": "address"
        }
      ],
      "name": "setMessageBus",
      "outputs": [],
      "stateMutability": "nonpayable",
      "type": "function"
    },
    {
      "inputs": [
        {
          "internalType": "address",
          "name": "newOwner",
          "type": "address"
        }
      ],
      "name": "transferOwnership",
      "outputs": [],
      "stateMutability": "nonpayable",
      "type": "function"
    }
  ],
  "transactionHash": "0x30c4e0c538b0c4f39dbf6a30b00ffbe1168b3c6cb064cb2b92cc47014fe2d90c",
  "args": [
    "0xAd204986D6cB67A5Bc76a3CB8974823F43Cb9AAA"
  ],
  "numDeployments": 2,
  "solcInputHash": "9598db387be7e2e599d0bf4d9ee72a01",
  "bytecode": "0x60806040523480156200001157600080fd5b50604051620029e5380380620029e58339810160408190526200003491620000b7565b80620000403362000067565b600180546001600160a01b0319166001600160a01b039290921691909117905550620000e9565b600080546001600160a01b038381166001600160a01b0319831681178455604051919092169283917f8be0079c531659141344cd1fd0a4f28419497f9722a3daafe3b4186f6b6457e09190a35050565b600060208284031215620000ca57600080fd5b81516001600160a01b0381168114620000e257600080fd5b9392505050565b6128ec80620000f96000396000f3fe6080604052600436106100e85760003560e01c80637cd2bffc1161008a5780639d4323be116100595780639d4323be14610202578063a1a227fa14610222578063aa14a1b714610242578063f2fde38b1461025557600080fd5b80637cd2bffc1461019757806386dfc3c8146101aa5780638da5cb5b146101bd5780639c649fdf146101ef57600080fd5b8063547cad12116100c6578063547cad121461013e5780635ab7afc61461015e5780637767b8d7146101715780637bcf9fe11461018457600080fd5b8063063ce4e5146100ed5780630bcb4982146101165780633c8790d714610129575b600080fd5b6101006100fb366004611d64565b610275565b60405161010d9190611e0f565b60405180910390f35b610100610124366004611e37565b6103d4565b61013c610137366004611eee565b6104a6565b005b34801561014a57600080fd5b5061013c610159366004611f80565b610596565b61010061016c366004611f9d565b610660565b61013c61017f366004612033565b6106c8565b61013c6101923660046120e8565b61077c565b6101006101a5366004612222565b6107b8565b61013c6101b83660046122a3565b61087e565b3480156101c957600080fd5b506000546001600160a01b03165b6040516001600160a01b03909116815260200161010d565b6101006101fd366004612326565b610910565b34801561020e57600080fd5b5061013c61021d366004612372565b610a52565b34801561022e57600080fd5b506001546101d7906001600160a01b031681565b61013c61025036600461239e565b610ad3565b34801561026157600080fd5b5061013c610270366004611f80565b610b86565b6001546000906001600160a01b031633146102d75760405162461bcd60e51b815260206004820152601960248201527f63616c6c6572206973206e6f74206d657373616765206275730000000000000060448201526064015b60405180910390fd5b6000806102e6858701876123d3565b60408051808201825260078152667465737431303160c81b6020918201528251818401208251808401909352600e83527f4d53474255533a3a52455645525400000000000000000000000000000000000091830191909152929450909250907f349f8fa98046fcdeae68ccc83d31794ca6de1f29a609c7f8806e4ab17b57a35214156103855760405162461bcd60e51b81526004016102ce9190612478565b507f93bff870467428ead6659a7a554cb75cc2ca56d416714397a31d7dd90fdf3b9c89898985856040516103bd9594939291906124b4565b60405180910390a150600198975050505050505050565b6001546000906001600160a01b031633146104315760405162461bcd60e51b815260206004820152601960248201527f63616c6c6572206973206e6f74206d657373616765206275730000000000000060448201526064016102ce565b600080610440858701876124fd565b90925090506104596001600160a01b0389168389610c77565b7f28b3e4c963e8ed6cdcdd38aa916a725939823a99bbfa73fe91297cbd65076ebd8289898460405161048e949392919061251b565b60405180910390a16001925050505b95945050505050565b60005b8381101561058d57600154600090600160a01b90046001600160401b03168686848181106104d9576104d9612557565b90506020028101906104eb919061256d565b6040516020016104fd939291906125b3565b60408051808303601f1901815291905260018054919250600160a01b9091046001600160401b0316906014610531836125ec565b91906101000a8154816001600160401b0302191690836001600160401b031602179055505061057a88888387878781811061056e5761056e612557565b90506020020135610d07565b508061058581612613565b9150506104a9565b50505050505050565b336105a96000546001600160a01b031690565b6001600160a01b0316146105ff5760405162461bcd60e51b815260206004820181905260248201527f4f776e61626c653a2063616c6c6572206973206e6f7420746865206f776e657260448201526064016102ce565b6001805473ffffffffffffffffffffffffffffffffffffffff19166001600160a01b0383169081179091556040519081527f3f8223bcd8b3b875473e9f9e14e1ad075451a2b5ffd31591655da9a01516bf5e9060200160405180910390a150565b6001546000906001600160a01b031633146106bd5760405162461bcd60e51b815260206004820152601960248201527f63616c6c6572206973206e6f74206d657373616765206275730000000000000060448201526064016102ce565b979650505050505050565b6106dd6001600160a01b038816333089610d29565b60003384846040516020016106f49392919061262e565b604051602081830303815290604052905061072b89898989600160149054906101000a90046001600160401b03168a878934610d61565b5060018054600160a01b90046001600160401b031690601461074c836125ec565b91906101000a8154816001600160401b0302191690836001600160401b0316021790555050505050505050505050565b6000818484604051602001610793939291906125b3565b60405160208183030381529060405290506107b086868334610d07565b505050505050565b6001546000906001600160a01b031633146108155760405162461bcd60e51b815260206004820152601960248201527f63616c6c6572206973206e6f74206d657373616765206275730000000000000060448201526064016102ce565b6000808480602001905181019061082c9190612651565b90925090506108456001600160a01b0389168389610c77565b7f853d38177348cfc87290e96c941a5fb96dc3da8a07c31163ddffe4da6661b76f88888b8986866040516103bd969594939291906126dd565b6000600160149054906101000a90046001600160401b031683836040516020016108aa939291906125b3565b60408051808303601f1901815291905260018054919250600160a01b9091046001600160401b03169060146108de836125ec565b91906101000a8154816001600160401b0302191690836001600160401b03160217905550506107b08686868434610d98565b6001546000906001600160a01b0316331461096d5760405162461bcd60e51b815260206004820152601960248201527f63616c6c6572206973206e6f74206d657373616765206275730000000000000060448201526064016102ce565b60008061097c858701876123d3565b91509150816001600160401b0316655af3107a400114156109df5760405162461bcd60e51b815260206004820152600d60248201527f696e76616c6964206e6f6e63650000000000000000000000000000000000000060448201526064016102ce565b816001600160401b0316655af3107a400214156109fb57600080fd5b816001600160401b0316655af3107a40031415610a1d5760029250505061049d565b7f2bc20c63cdcc1b0e6aeb64fcaaf7ea3c8b999228a4a9ed2a2df1d2e17dd125208888848460405161048e9493929190612726565b33610a656000546001600160a01b031690565b6001600160a01b031614610abb5760405162461bcd60e51b815260206004820181905260248201527f4f776e61626c653a2063616c6c6572206973206e6f7420746865206f776e657260448201526064016102ce565b610acf6001600160a01b0383163383610c77565b5050565b6000600160149054906101000a90046001600160401b0316604051806040016040528060078152602001667465737431303160c81b815250604051602001610b1c929190612761565b60408051808303601f1901815291905260018054919250600160a01b9091046001600160401b0316906014610b50836125ec565b91906101000a8154816001600160401b0302191690836001600160401b0316021790555050610b8183838334610d07565b505050565b33610b996000546001600160a01b031690565b6001600160a01b031614610bef5760405162461bcd60e51b815260206004820181905260248201527f4f776e61626c653a2063616c6c6572206973206e6f7420746865206f776e657260448201526064016102ce565b6001600160a01b038116610c6b5760405162461bcd60e51b815260206004820152602660248201527f4f776e61626c653a206e6577206f776e657220697320746865207a65726f206160448201527f646472657373000000000000000000000000000000000000000000000000000060648201526084016102ce565b610c7481610dbd565b50565b6040516001600160a01b038316602482015260448101829052610b8190849063a9059cbb60e01b906064015b60408051601f198184030181529190526020810180517bffffffffffffffffffffffffffffffffffffffffffffffffffffffff167fffffffff0000000000000000000000000000000000000000000000000000000090931692909217909152610e1a565b600154610d23908590859085906001600160a01b031685610eff565b50505050565b6040516001600160a01b0380851660248301528316604482015260648101829052610d239085906323b872dd60e01b90608401610ca3565b6000610d8a8a8a8a8a8a8a8a8a600160009054906101000a90046001600160a01b03168b610f6a565b9a9950505050505050505050565b600154610db69086908690869086906001600160a01b031686611003565b5050505050565b600080546001600160a01b0383811673ffffffffffffffffffffffffffffffffffffffff19831681178455604051919092169283917f8be0079c531659141344cd1fd0a4f28419497f9722a3daafe3b4186f6b6457e09190a35050565b6000610e6f826040518060400160405280602081526020017f5361666545524332303a206c6f772d6c6576656c2063616c6c206661696c6564815250856001600160a01b03166110719092919063ffffffff16565b805190915015610b815780806020019051810190610e8d9190612783565b610b815760405162461bcd60e51b815260206004820152602a60248201527f5361666545524332303a204552433230206f7065726174696f6e20646964206e60448201527f6f7420737563636565640000000000000000000000000000000000000000000060648201526084016102ce565b604051634f9e72ad60e11b81526001600160a01b03831690639f3ce55a908390610f31908990899089906004016127a5565b6000604051808303818588803b158015610f4a57600080fd5b505af1158015610f5e573d6000803e3d6000fd5b50505050505050505050565b6000806000610f7f8d8d8d8d8d8d8c8c61108a565b8851919350915015610ff357846001600160a01b0316634289fbb3858f8d85878d6040518763ffffffff1660e01b8152600401610fc09594939291906127d6565b6000604051808303818588803b158015610fd957600080fd5b505af1158015610fed573d6000803e3d6000fd5b50505050505b509b9a5050505050505050505050565b604051637d7a101d60e01b81526001600160a01b03831690637d7a101d908390611037908a908a908a908a90600401612817565b6000604051808303818588803b15801561105057600080fd5b505af1158015611064573d6000803e3d6000fd5b5050505050505050505050565b60606110808484600085611893565b90505b9392505050565b60008060018460068111156110a1576110a1611df9565b14156111cf57826001600160a01b03166382980dc46040518163ffffffff1660e01b815260040160206040518083038186803b1580156110e057600080fd5b505afa1580156110f4573d6000803e3d6000fd5b505050506040513d601f19601f82011682018060405250810190611118919061284c565b905061112e6001600160a01b038a16828a6119d0565b60405163a5977fbb60e01b81526001600160a01b038b811660048301528a81166024830152604482018a90526001600160401b03808a1660648401528816608483015263ffffffff871660a483015282169063a5977fbb9060c401600060405180830381600087803b1580156111a357600080fd5b505af11580156111b7573d6000803e3d6000fd5b505050506111c88a8a8a8a8a611a91565b9150611886565b60028460068111156111e3576111e3611df9565b14156112fe57826001600160a01b031663d8257d176040518163ffffffff1660e01b815260040160206040518083038186803b15801561122257600080fd5b505afa158015611236573d6000803e3d6000fd5b505050506040513d601f19601f8201168201806040525081019061125a919061284c565b90506112706001600160a01b038a16828a6119d0565b6040516308d18d8960e21b81526001600160a01b038a81166004830152602482018a90526001600160401b03808a1660448401528c821660648401528816608483015282169063234636249060a401600060405180830381600087803b1580156112d957600080fd5b505af11580156112ed573d6000803e3d6000fd5b505050506111c88a8a8a8a8a611b19565b600384600681111561131257611312611df9565b14156114a857826001600160a01b031663dfa2dbaf6040518163ffffffff1660e01b815260040160206040518083038186803b15801561135157600080fd5b505afa158015611365573d6000803e3d6000fd5b505050506040513d601f19601f82011682018060405250810190611389919061284c565b905061139f6001600160a01b038a16828a6119d0565b604051636f3c863f60e11b81526001600160a01b038a81166004830152602482018a90528b811660448301526001600160401b038816606483015282169063de790c7e90608401600060405180830381600087803b15801561140057600080fd5b505af1158015611414573d6000803e3d6000fd5b5061142e925050506001600160a01b038a16826000611b87565b604080516bffffffffffffffffffffffff1930606090811b82166020808501919091528d821b83166034850152604884018d9052908e901b90911660688301526001600160c01b031960c08a811b8216607c85015246901b1660848301528251808303606c018152608c90920190925280519101206111c8565b60048460068111156114bc576114bc611df9565b14156115ea57826001600160a01b031663c66a9c5a6040518163ffffffff1660e01b815260040160206040518083038186803b1580156114fb57600080fd5b505afa15801561150f573d6000803e3d6000fd5b505050506040513d601f19601f82011682018060405250810190611533919061284c565b90506115496001600160a01b038a16828a6119d0565b6040516308d18d8960e21b81526001600160a01b038a81166004830152602482018a90526001600160401b03808a1660448401528c821660648401528816608483015282169063234636249060a401602060405180830381600087803b1580156115b257600080fd5b505af11580156115c6573d6000803e3d6000fd5b505050506040513d601f19601f820116820180604052508101906111c89190612869565b60058460068111156115fe576115fe611df9565b141561174957826001600160a01b03166395b12c276040518163ffffffff1660e01b815260040160206040518083038186803b15801561163d57600080fd5b505afa158015611651573d6000803e3d6000fd5b505050506040513d601f19601f82011682018060405250810190611675919061284c565b905061168b6001600160a01b038a16828a6119d0565b60405163a002930160e01b81526001600160a01b038a81166004830152602482018a90526001600160401b03808a1660448401528c821660648401528816608483015282169063a00293019060a4015b602060405180830381600087803b1580156116f557600080fd5b505af1158015611709573d6000803e3d6000fd5b505050506040513d601f19601f8201168201806040525081019061172d9190612869565b91506117446001600160a01b038a16826000611b87565b611886565b600684600681111561175d5761175d611df9565b141561183e57826001600160a01b03166395b12c276040518163ffffffff1660e01b815260040160206040518083038186803b15801561179c57600080fd5b505afa1580156117b0573d6000803e3d6000fd5b505050506040513d601f19601f820116820180604052508101906117d4919061284c565b90506117ea6001600160a01b038a16828a6119d0565b604051639e422c3360e01b81526001600160a01b038a81166004830152602482018a90526001600160401b03808a1660448401528c8216606484015288166084830152821690639e422c339060a4016116db565b60405162461bcd60e51b815260206004820152601960248201527f6272696467652074797065206e6f7420737570706f727465640000000000000060448201526064016102ce565b9850989650505050505050565b60608247101561190b5760405162461bcd60e51b815260206004820152602660248201527f416464726573733a20696e73756666696369656e742062616c616e636520666f60448201527f722063616c6c000000000000000000000000000000000000000000000000000060648201526084016102ce565b6001600160a01b0385163b6119625760405162461bcd60e51b815260206004820152601d60248201527f416464726573733a2063616c6c20746f206e6f6e2d636f6e747261637400000060448201526064016102ce565b600080866001600160a01b0316858760405161197e9190612882565b60006040518083038185875af1925050503d80600081146119bb576040519150601f19603f3d011682016040523d82523d6000602084013e6119c0565b606091505b50915091506106bd828286611cb2565b604051636eb1769f60e11b81523060048201526001600160a01b038381166024830152600091839186169063dd62ed3e9060440160206040518083038186803b158015611a1c57600080fd5b505afa158015611a30573d6000803e3d6000fd5b505050506040513d601f19601f82011682018060405250810190611a549190612869565b611a5e919061289e565b6040516001600160a01b038516602482015260448101829052909150610d2390859063095ea7b360e01b90606401610ca3565b6040516bffffffffffffffffffffffff1930606090811b8216602084015287811b8216603484015286901b166048820152605c81018490526001600160c01b031960c084811b8216607c84015283811b8216608484015246901b16608c8201526000906094015b60405160208183030381529060405280519060200120905095945050505050565b6040516bffffffffffffffffffffffff1930606090811b8216602084015286811b82166034840152604883018690526001600160c01b031960c086811b821660688601529189901b909216607084015283811b8216608484015246901b16608c820152600090609401611af8565b801580611c105750604051636eb1769f60e11b81523060048201526001600160a01b03838116602483015284169063dd62ed3e9060440160206040518083038186803b158015611bd657600080fd5b505afa158015611bea573d6000803e3d6000fd5b505050506040513d601f19601f82011682018060405250810190611c0e9190612869565b155b611c825760405162461bcd60e51b815260206004820152603660248201527f5361666545524332303a20617070726f76652066726f6d206e6f6e2d7a65726f60448201527f20746f206e6f6e2d7a65726f20616c6c6f77616e63650000000000000000000060648201526084016102ce565b6040516001600160a01b038316602482015260448101829052610b8190849063095ea7b360e01b90606401610ca3565b60608315611cc1575081611083565b825115611cd15782518084602001fd5b8160405162461bcd60e51b81526004016102ce9190612478565b60008083601f840112611cfd57600080fd5b5081356001600160401b03811115611d1457600080fd5b602083019150836020828501011115611d2c57600080fd5b9250929050565b80356001600160401b0381168114611d4a57600080fd5b919050565b6001600160a01b0381168114610c7457600080fd5b60008060008060008060808789031215611d7d57600080fd5b86356001600160401b0380821115611d9457600080fd5b611da08a838b01611ceb565b9098509650869150611db460208a01611d33565b95506040890135915080821115611dca57600080fd5b50611dd789828a01611ceb565b9094509250506060870135611deb81611d4f565b809150509295509295509295565b634e487b7160e01b600052602160045260246000fd5b6020810160038310611e3157634e487b7160e01b600052602160045260246000fd5b91905290565b600080600080600060808688031215611e4f57600080fd5b8535611e5a81611d4f565b94506020860135935060408601356001600160401b03811115611e7c57600080fd5b611e8888828901611ceb565b9094509250506060860135611e9c81611d4f565b809150509295509295909350565b60008083601f840112611ebc57600080fd5b5081356001600160401b03811115611ed357600080fd5b6020830191508360208260051b8501011115611d2c57600080fd5b60008060008060008060808789031215611f0757600080fd5b8635611f1281611d4f565b9550611f2060208801611d33565b945060408701356001600160401b0380821115611f3c57600080fd5b611f488a838b01611eaa565b90965094506060890135915080821115611f6157600080fd5b50611f6e89828a01611eaa565b979a9699509497509295939492505050565b600060208284031215611f9257600080fd5b813561108381611d4f565b600080600080600080600060c0888a031215611fb857600080fd5b8735611fc381611d4f565b96506020880135611fd381611d4f565b955060408801359450611fe860608901611d33565b935060808801356001600160401b0381111561200357600080fd5b61200f8a828b01611ceb565b90945092505060a088013561202381611d4f565b8091505092959891949750929550565b60008060008060008060008060e0898b03121561204f57600080fd5b883561205a81611d4f565b9750602089013561206a81611d4f565b96506040890135955061207f60608a01611d33565b9450608089013563ffffffff8116811461209857600080fd5b935060a08901356001600160401b038111156120b357600080fd5b6120bf8b828c01611ceb565b90945092505060c0890135600781106120d757600080fd5b809150509295985092959890939650565b60008060008060006080868803121561210057600080fd5b853561210b81611d4f565b945061211960208701611d33565b935060408601356001600160401b0381111561213457600080fd5b61214088828901611ceb565b9094509250612153905060608701611d33565b90509295509295909350565b634e487b7160e01b600052604160045260246000fd5b604051601f8201601f191681016001600160401b038111828210171561219d5761219d61215f565b604052919050565b60006001600160401b038211156121be576121be61215f565b50601f01601f191660200190565b600082601f8301126121dd57600080fd5b81356121f06121eb826121a5565b612175565b81815284602083860101111561220557600080fd5b816020850160208301376000918101602001919091529392505050565b60008060008060008060c0878903121561223b57600080fd5b863561224681611d4f565b9550602087013561225681611d4f565b94506040870135935061226b60608801611d33565b925060808701356001600160401b0381111561228657600080fd5b61229289828a016121cc565b92505060a0870135611deb81611d4f565b6000806000806000606086880312156122bb57600080fd5b85356001600160401b03808211156122d257600080fd5b6122de89838a01611ceb565b90975095508591506122f260208901611d33565b9450604088013591508082111561230857600080fd5b5061231588828901611ceb565b969995985093965092949392505050565b60008060008060006080868803121561233e57600080fd5b853561234981611d4f565b945061235760208701611d33565b935060408601356001600160401b03811115611e7c57600080fd5b6000806040838503121561238557600080fd5b823561239081611d4f565b946020939093013593505050565b600080604083850312156123b157600080fd5b82356123bc81611d4f565b91506123ca60208401611d33565b90509250929050565b600080604083850312156123e657600080fd5b6123ef83611d33565b915060208301356001600160401b0381111561240a57600080fd5b612416858286016121cc565b9150509250929050565b60005b8381101561243b578181015183820152602001612423565b83811115610d235750506000910152565b60008151808452612464816020860160208601612420565b601f01601f19169290920160200192915050565b602081526000611083602083018461244c565b81835281816020850137506000828201602090810191909152601f909101601f19169091010190565b6080815260006124c860808301878961248b565b6001600160401b0386811660208501528516604084015282810360608401526124f1818561244c565b98975050505050505050565b6000806040838503121561251057600080fd5b82356123ef81611d4f565b60006001600160a01b0380871683528086166020840152508360408301526080606083015261254d608083018461244c565b9695505050505050565b634e487b7160e01b600052603260045260246000fd5b6000808335601e1984360301811261258457600080fd5b8301803591506001600160401b0382111561259e57600080fd5b602001915036819003821315611d2c57600080fd5b6001600160401b038416815260406020820152600061049d60408301848661248b565b634e487b7160e01b600052601160045260246000fd5b60006001600160401b0380831681811415612609576126096125d6565b6001019392505050565b6000600019821415612627576126276125d6565b5060010190565b6001600160a01b038416815260406020820152600061049d60408301848661248b565b6000806040838503121561266457600080fd5b825161266f81611d4f565b60208401519092506001600160401b0381111561268b57600080fd5b8301601f8101851361269c57600080fd5b80516126aa6121eb826121a5565b8181528660208385010111156126bf57600080fd5b6126d0826020830160208601612420565b8093505050509250929050565b60006001600160a01b03808916835287602084015280871660408401526001600160401b038616606084015280851660808401525060c060a08301526124f160c083018461244c565b6001600160a01b038516815260006001600160401b0380861660208401528085166040840152506080606083015261254d608083018461244c565b6001600160401b0383168152604060208201526000611080604083018461244c565b60006020828403121561279557600080fd5b8151801515811461108357600080fd5b6001600160a01b03841681526001600160401b038316602082015260606040820152600061049d606083018461244c565b60006001600160a01b0380881683526001600160401b038716602084015280861660408401525083606083015260a060808301526106bd60a083018461244c565b60608152600061282b60608301868861248b565b6001600160401b038516602084015282810360408401526106bd818561244c565b60006020828403121561285e57600080fd5b815161108381611d4f565b60006020828403121561287b57600080fd5b5051919050565b60008251612894818460208701612420565b9190910192915050565b600082198211156128b1576128b16125d6565b50019056fea264697066735822122028848c77fdff8deb781f1739ebf6b024bb5aecba047a266b84d7f2969f5d924c64736f6c63430008090033",
  "devdoc": {
    "kind": "dev",
    "methods": {
      "executeMessageWithTransferFallback(address,address,uint256,uint64,bytes,address)": {
        "params": {
          "_amount": "The amount of tokens received at this contract through the cross-chain bridge.",
          "_executor": "Address who called the MessageBus execution function",
          "_message": "Arbitrary message bytes originated from and encoded by the source app contract",
          "_sender": "The address of the source app contract",
          "_srcChainId": "The source chain ID where the transfer is originated from",
          "_token": "The address of the token that comes out of the bridge"
        }
      },
      "owner()": {
        "details": "Returns the address of the current owner."
      },
      "transferOwnership(address)": {
        "details": "Transfers ownership of the contract to a new account (`newOwner`). Can only be called by the current owner."
      }
    },
    "title": "Application to test message with transfer refund flow ",
    "version": 1
  },
  "userdoc": {
    "kind": "user",
    "methods": {
      "executeMessageWithTransferFallback(address,address,uint256,uint64,bytes,address)": {
        "notice": "Only called by MessageBus if         1. executeMessageWithTransfer reverts, or         2. executeMessageWithTransfer returns ExecutionStatus.Fail The contract is guaranteed to have received the right amount of tokens before this function is called."
      }
    },
    "version": 1
  },
  "storageLayout": {
    "storage": [
      {
        "astId": 28388,
        "contract": "contracts/message/apps/examples/MsgTest.sol:MsgTest",
        "label": "_owner",
        "offset": 0,
        "slot": "0",
        "type": "t_address"
      },
      {
        "astId": 19141,
        "contract": "contracts/message/apps/examples/MsgTest.sol:MsgTest",
        "label": "messageBus",
        "offset": 0,
        "slot": "1",
        "type": "t_address"
      },
      {
        "astId": 15843,
        "contract": "contracts/message/apps/examples/MsgTest.sol:MsgTest",
        "label": "nonce",
        "offset": 20,
        "slot": "1",
        "type": "t_uint64"
      }
    ],
    "types": {
      "t_address": {
        "encoding": "inplace",
        "label": "address",
        "numberOfBytes": "20"
      },
      "t_uint64": {
        "encoding": "inplace",
        "label": "uint64",
        "numberOfBytes": "8"
      }
    }
  }
}