{
  "address": "0x61fc4d40D313Eb01483F537A6db2B29fB38aEa8d",
  "abi": [
    {
      "inputs": [
        {
          "internalType": "contract ISigsVerifier",
          "name": "_sigsVerifier",
          "type": "address"
        }
      ],
      "stateMutability": "nonpayable",
      "type": "constructor"
    },
    {
      "anonymous": false,
      "inputs": [
        {
          "indexed": false,
          "internalType": "enum PeggedTokenBridge.Action",
          "name": "action",
          "type": "uint8"
        },
        {
          "indexed": false,
          "internalType": "address",
          "name": "token",
          "type": "address"
        },
        {
          "indexed": false,
          "internalType": "address",
          "name": "account",
          "type": "address"
        },
        {
          "indexed": false,
          "internalType": "uint256",
          "name": "amount",
          "type": "uint256"
        },
        {
          "indexed": false,
          "internalType": "uint64",
          "name": "nonce",
          "type": "uint64"
        }
      ],
      "name": "LogRecord",
      "type": "event"
    },
    {
      "inputs": [
        {
          "internalType": "address",
          "name": "_token",
          "type": "address"
        },
        {
          "internalType": "uint256",
          "name": "_amount",
          "type": "uint256"
        },
        {
          "internalType": "uint64",
          "name": "_nonce",
          "type": "uint64"
        }
      ],
      "name": "burn",
      "outputs": [],
      "stateMutability": "nonpayable",
      "type": "function"
    },
    {
      "inputs": [
        {
          "internalType": "bytes",
          "name": "_request",
          "type": "bytes"
        },
        {
          "internalType": "bytes[]",
          "name": "_sigs",
          "type": "bytes[]"
        },
        {
          "internalType": "address[]",
          "name": "_signers",
          "type": "address[]"
        },
        {
          "internalType": "uint256[]",
          "name": "_powers",
          "type": "uint256[]"
        }
      ],
      "name": "mint",
      "outputs": [],
      "stateMutability": "nonpayable",
      "type": "function"
    },
    {
      "inputs": [
        {
          "internalType": "bytes32",
          "name": "",
          "type": "bytes32"
        }
      ],
      "name": "records",
      "outputs": [
        {
          "internalType": "bool",
          "name": "",
          "type": "bool"
        }
      ],
      "stateMutability": "view",
      "type": "function"
    },
    {
      "inputs": [],
      "name": "sigsVerifier",
      "outputs": [
        {
          "internalType": "contract ISigsVerifier",
          "name": "",
          "type": "address"
        }
      ],
      "stateMutability": "view",
      "type": "function"
    }
  ],
  "transactionHash": "0xa4d045384935615693d593125b7f72bd34aa5e018f5a80bd95eab2e6f7331fda",
  "args": [
    "0x50B96c4374EFeEA0C183D06679A14e951E33B4Dd"
  ],
  "solcInputHash": "ec8aeef17b677112d267cdf57a172412",
  "bytecode": "0x60a060405234801561001057600080fd5b50604051610ea4380380610ea483398101604081905261002f91610040565b6001600160a01b0316608052610070565b60006020828403121561005257600080fd5b81516001600160a01b038116811461006957600080fd5b9392505050565b608051610e136100916000396000818160a301526102d70152610e136000f3fe608060405234801561001057600080fd5b506004361061004c5760003560e01c806301e6472514610051578063be22b62d14610089578063ccf2683b1461009e578063f8734302146100dd575b600080fd5b61007461005f3660046108f5565b60006020819052908152604090205460ff1681565b60405190151581526020015b60405180910390f35b61009c61009736600461092a565b6100f0565b005b6100c57f000000000000000000000000000000000000000000000000000000000000000081565b6040516001600160a01b039091168152602001610080565b61009c6100eb3660046109c3565b610280565b60405163313ab93760e11b60208201526bffffffffffffffffffffffff19606085811b8216602484015233901b166038820152604c810183905277ffffffffffffffffffffffffffffffffffffffffffffffff1960c083901b16606c82015260009060740160408051601f19818403018152918152815160209283012060008181529283905291205490915060ff16156101c15760405162461bcd60e51b815260206004820152600d60248201526c7265636f72642065786973747360981b60448201526064015b60405180910390fd5b60008181526020819052604090819020805460ff1916600117905551632770a7eb60e21b8152336004820152602481018490526001600160a01b03851690639dc29fac90604401600060405180830381600087803b15801561022257600080fd5b505af1158015610236573d6000803e3d6000fd5b505050507ff0ce70b0a9e7a7ceeffb6ab06fe3cb96d45cecab4929343d5c2d2e2f27fe2c3b600185338686604051610272959493929190610ac8565b60405180910390a150505050565b600046306040516020016102bd92919091825260601b6bffffffffffffffffffffffff1916602082015263135a5b9d60e21b603482015260380190565b6040516020818303038152906040528051906020012090507f00000000000000000000000000000000000000000000000000000000000000006001600160a01b031663682dbc22828b8b60405160200161031993929190610b20565b6040516020818303038152906040528989898989896040518863ffffffff1660e01b81526004016103509796959493929190610c8a565b60006040518083038186803b15801561036857600080fd5b505afa15801561037c573d6000803e3d6000fd5b5050505060006103c18a8a8080601f01602080910402602001604051908101604052809392919081815260200183838082843760009201919091525061058d92505050565b9050600081600001518260200151836040015184606001516040516020016104469493929190631b5a5b9d60e21b8152606094851b6bffffffffffffffffffffffff1990811660048301529390941b9092166018840152602c83015260c01b77ffffffffffffffffffffffffffffffffffffffffffffffff1916604c82015260540190565b60408051601f19818403018152918152815160209283012060008181529283905291205490915060ff16156104ad5760405162461bcd60e51b815260206004820152600d60248201526c7265636f72642065786973747360981b60448201526064016101b8565b60008181526020818152604091829020805460ff191660011790558351908401518483015192516340c10f1960e01b81526001600160a01b039182166004820152602481019390935216906340c10f1990604401600060405180830381600087803b15801561051b57600080fd5b505af115801561052f573d6000803e3d6000fd5b505083516020850151604080870151606088015191517ff0ce70b0a9e7a7ceeffb6ab06fe3cb96d45cecab4929343d5c2d2e2f27fe2c3b96506105789550600094939290610ac8565b60405180910390a15050505050505050505050565b60408051608081018252600080825260208083018290528284018290526060830182905283518085019094528184528301849052909190805b6020830151518351101561068d576105dd83610695565b9092509050816001141561060c576105fc6105f7846106cf565b61078c565b6001600160a01b031684526105c6565b8160021415610634576106216105f7846106cf565b6001600160a01b031660208501526105c6565b81600314156106585761064e610649846106cf565b61079d565b60408501526105c6565b816004141561067e5761066a836107d4565b67ffffffffffffffff1660608501526105c6565b6106888382610856565b6105c6565b505050919050565b60008060006106a3846107d4565b90506106b0600882610d3c565b92508060071660058111156106c7576106c7610ab2565b915050915091565b606060006106dc836107d4565b905060008184600001516106f09190610d5e565b905083602001515181111561070457600080fd5b8167ffffffffffffffff81111561071d5761071d610d76565b6040519080825280601f01601f191660200182016040528015610747576020820181803683370190505b50602080860151865192955091818601919083010160005b8581101561078157818101518382015261077a602082610d5e565b905061075f565b505050935250919050565b6000610797826108cd565b92915050565b60006020825111156107ae57600080fd5b60208201519050815160206107c39190610d8c565b6107ce906008610da3565b1c919050565b602080820151825181019091015160009182805b600a8110156108505783811a9150610801816007610da3565b82607f16901b85179450816080166000141561083e57610822816001610d5e565b86518790610831908390610d5e565b9052509395945050505050565b8061084881610dc2565b9150506107e8565b50600080fd5b600081600581111561086a5761086a610ab2565b141561087e57610879826107d4565b505050565b600281600581111561089257610892610ab2565b141561004c5760006108a3836107d4565b905080836000018181516108b79190610d5e565b9052506020830151518351111561087957600080fd5b600081516014146108dd57600080fd5b50602001516c01000000000000000000000000900490565b60006020828403121561090757600080fd5b5035919050565b80356001600160a01b038116811461092557600080fd5b919050565b60008060006060848603121561093f57600080fd5b6109488461090e565b925060208401359150604084013567ffffffffffffffff8116811461096c57600080fd5b809150509250925092565b60008083601f84011261098957600080fd5b50813567ffffffffffffffff8111156109a157600080fd5b6020830191508360208260051b85010111156109bc57600080fd5b9250929050565b6000806000806000806000806080898b0312156109df57600080fd5b883567ffffffffffffffff808211156109f757600080fd5b818b0191508b601f830112610a0b57600080fd5b813581811115610a1a57600080fd5b8c6020828501011115610a2c57600080fd5b60209283019a509850908a01359080821115610a4757600080fd5b610a538c838d01610977565b909850965060408b0135915080821115610a6c57600080fd5b610a788c838d01610977565b909650945060608b0135915080821115610a9157600080fd5b50610a9e8b828c01610977565b999c989b5096995094979396929594505050565b634e487b7160e01b600052602160045260246000fd5b60a0810160028710610aea57634e487b7160e01b600052602160045260246000fd5b9581526001600160a01b039485166020820152929093166040830152606082015267ffffffffffffffff90911660809091015290565b838152818360208301376000910160200190815292915050565b81835281816020850137506000828201602090810191909152601f909101601f19169091010190565b81835260006020808501808196508560051b810191508460005b87811015610be75782840389528135601e19883603018112610b9e57600080fd5b8701803567ffffffffffffffff811115610bb757600080fd5b803603891315610bc657600080fd5b610bd38682898501610b3a565b9a87019a9550505090840190600101610b7d565b5091979650505050505050565b8183526000602080850194508260005b85811015610c30576001600160a01b03610c1d8361090e565b1687529582019590820190600101610c04565b509495945050505050565b81835260007f07ffffffffffffffffffffffffffffffffffffffffffffffffffffffffffffff831115610c6d57600080fd5b8260051b8083602087013760009401602001938452509192915050565b608081526000885180608084015260005b81811015610cb8576020818c0181015160a0868401015201610c9b565b81811115610cca57600060a083860101525b50601f01601f1916820182810360a09081016020850152610cee908201898b610b63565b90508281036040840152610d03818789610bf4565b90508281036060840152610d18818587610c3b565b9a9950505050505050505050565b634e487b7160e01b600052601160045260246000fd5b600082610d5957634e487b7160e01b600052601260045260246000fd5b500490565b60008219821115610d7157610d71610d26565b500190565b634e487b7160e01b600052604160045260246000fd5b600082821015610d9e57610d9e610d26565b500390565b6000816000190483118215151615610dbd57610dbd610d26565b500290565b6000600019821415610dd657610dd6610d26565b506001019056fea26469706673582212201133ab9fcd9e34aa70636c71c012fa1b367f2699be5ec7aa1f679dcbeff876ae64736f6c63430008090033",
  "devdoc": {
    "kind": "dev",
    "methods": {},
    "title": "The bridge to mint and burn pegged tokens at this chain",
    "version": 1
  },
  "userdoc": {
    "kind": "user",
    "methods": {
      "burn(address,uint256,uint64)": {
        "notice": "burn tokens to trigger withdrawal of locked tokens at the remote chain"
      },
      "mint(bytes,bytes[],address[],uint256[])": {
        "notice": "Mint tokens triggered by token deposit at a remote chain"
      }
    },
    "version": 1
  },
  "storageLayout": {
    "storage": [
      {
        "astId": 10926,
        "contract": "contracts/pegged/PeggedTokenBridge.sol:PeggedTokenBridge",
        "label": "records",
        "offset": 0,
        "slot": "0",
        "type": "t_mapping(t_bytes32,t_bool)"
      }
    ],
    "types": {
      "t_bool": {
        "encoding": "inplace",
        "label": "bool",
        "numberOfBytes": "1"
      },
      "t_bytes32": {
        "encoding": "inplace",
        "label": "bytes32",
        "numberOfBytes": "32"
      },
      "t_mapping(t_bytes32,t_bool)": {
        "encoding": "mapping",
        "key": "t_bytes32",
        "label": "mapping(bytes32 => bool)",
        "numberOfBytes": "32",
        "value": "t_bool"
      }
    }
  }
}