{
  "address": "0x38fA604606D3ecad8e2082B1E8A281ED41360456",
  "abi": [
    {
      "inputs": [
        {
          "internalType": "address",
          "name": "_messageBus",
          "type": "address"
        }
      ],
      "stateMutability": "nonpayable",
      "type": "constructor"
    },
    {
      "anonymous": false,
      "inputs": [
        {
          "indexed": false,
          "internalType": "address",
          "name": "receiver",
          "type": "address"
        },
        {
          "indexed": false,
          "internalType": "uint64",
          "name": "dstChainId",
          "type": "uint64"
        },
        {
          "indexed": false,
          "internalType": "bytes",
          "name": "message",
          "type": "bytes"
        }
      ],
      "name": "MessageReceived",
      "type": "event"
    },
    {
      "anonymous": false,
      "inputs": [
        {
          "indexed": false,
          "internalType": "address",
          "name": "token",
          "type": "address"
        },
        {
          "indexed": false,
          "internalType": "uint256",
          "name": "amount",
          "type": "uint256"
        },
        {
          "indexed": false,
          "internalType": "bytes",
          "name": "message",
          "type": "bytes"
        },
        {
          "indexed": false,
          "internalType": "address",
          "name": "sender",
          "type": "address"
        },
        {
          "indexed": false,
          "internalType": "uint64",
          "name": "srcChainId",
          "type": "uint64"
        }
      ],
      "name": "MessageReceivedWithTransfer",
      "type": "event"
    },
    {
      "anonymous": false,
      "inputs": [
        {
          "indexed": true,
          "internalType": "address",
          "name": "previousOwner",
          "type": "address"
        },
        {
          "indexed": true,
          "internalType": "address",
          "name": "newOwner",
          "type": "address"
        }
      ],
      "name": "OwnershipTransferred",
      "type": "event"
    },
    {
      "anonymous": false,
      "inputs": [
        {
          "indexed": false,
          "internalType": "address",
          "name": "token",
          "type": "address"
        },
        {
          "indexed": false,
          "internalType": "uint256",
          "name": "amount",
          "type": "uint256"
        },
        {
          "indexed": false,
          "internalType": "bytes",
          "name": "message",
          "type": "bytes"
        }
      ],
      "name": "Refunded",
      "type": "event"
    },
    {
      "inputs": [
        {
          "internalType": "address",
          "name": "_receiver",
          "type": "address"
        },
        {
          "internalType": "uint64",
          "name": "_dstChainId",
          "type": "uint64"
        },
        {
          "internalType": "bytes",
          "name": "_message",
          "type": "bytes"
        }
      ],
      "name": "executeMessage",
      "outputs": [
        {
          "internalType": "bool",
          "name": "",
          "type": "bool"
        }
      ],
      "stateMutability": "payable",
      "type": "function"
    },
    {
      "inputs": [
        {
          "internalType": "address",
          "name": "_sender",
          "type": "address"
        },
        {
          "internalType": "address",
          "name": "_token",
          "type": "address"
        },
        {
          "internalType": "uint256",
          "name": "_amount",
          "type": "uint256"
        },
        {
          "internalType": "uint64",
          "name": "_srcChainId",
          "type": "uint64"
        },
        {
          "internalType": "bytes",
          "name": "_message",
          "type": "bytes"
        }
      ],
      "name": "executeMessageWithTransfer",
      "outputs": [
        {
          "internalType": "bool",
          "name": "",
          "type": "bool"
        }
      ],
      "stateMutability": "payable",
      "type": "function"
    },
    {
      "inputs": [
        {
          "internalType": "address",
          "name": "_sender",
          "type": "address"
        },
        {
          "internalType": "address",
          "name": "_token",
          "type": "address"
        },
        {
          "internalType": "uint256",
          "name": "_amount",
          "type": "uint256"
        },
        {
          "internalType": "uint64",
          "name": "_srcChainId",
          "type": "uint64"
        },
        {
          "internalType": "bytes",
          "name": "_message",
          "type": "bytes"
        }
      ],
      "name": "executeMessageWithTransferFallback",
      "outputs": [
        {
          "internalType": "bool",
          "name": "",
          "type": "bool"
        }
      ],
      "stateMutability": "payable",
      "type": "function"
    },
    {
      "inputs": [
        {
          "internalType": "address",
          "name": "_token",
          "type": "address"
        },
        {
          "internalType": "uint256",
          "name": "_amount",
          "type": "uint256"
        },
        {
          "internalType": "bytes",
          "name": "_message",
          "type": "bytes"
        }
      ],
      "name": "executeMessageWithTransferRefund",
      "outputs": [
        {
          "internalType": "bool",
          "name": "",
          "type": "bool"
        }
      ],
      "stateMutability": "payable",
      "type": "function"
    },
    {
      "inputs": [],
      "name": "messageBus",
      "outputs": [
        {
          "internalType": "address",
          "name": "",
          "type": "address"
        }
      ],
      "stateMutability": "view",
      "type": "function"
    },
    {
      "inputs": [],
      "name": "owner",
      "outputs": [
        {
          "internalType": "address",
          "name": "",
          "type": "address"
        }
      ],
      "stateMutability": "view",
      "type": "function"
    },
    {
      "inputs": [
        {
          "internalType": "address",
          "name": "_receiver",
          "type": "address"
        },
        {
          "internalType": "uint64",
          "name": "_dstChainId",
          "type": "uint64"
        },
        {
          "internalType": "bool",
          "name": "_success",
          "type": "bool"
        }
      ],
      "name": "send",
      "outputs": [],
      "stateMutability": "payable",
      "type": "function"
    },
    {
      "inputs": [
        {
          "internalType": "address",
          "name": "_receiver",
          "type": "address"
        },
        {
          "internalType": "address",
          "name": "_token",
          "type": "address"
        },
        {
          "internalType": "uint256",
          "name": "_amount",
          "type": "uint256"
        },
        {
          "internalType": "uint64",
          "name": "_dstChainId",
          "type": "uint64"
        },
        {
          "internalType": "uint64",
          "name": "_nonce",
          "type": "uint64"
        },
        {
          "internalType": "uint32",
          "name": "_maxSlippage",
          "type": "uint32"
        },
        {
          "internalType": "enum MessageSenderLib.BridgeType",
          "name": "_bridgeType",
          "type": "uint8"
        }
      ],
      "name": "sendWithTransfer",
      "outputs": [],
      "stateMutability": "payable",
      "type": "function"
    },
    {
      "inputs": [
        {
          "internalType": "address",
          "name": "_messageBus",
          "type": "address"
        }
      ],
      "name": "setMessageBus",
      "outputs": [],
      "stateMutability": "nonpayable",
      "type": "function"
    },
    {
      "inputs": [
        {
          "internalType": "address",
          "name": "newOwner",
          "type": "address"
        }
      ],
      "name": "transferOwnership",
      "outputs": [],
      "stateMutability": "nonpayable",
      "type": "function"
    }
  ],
  "transactionHash": "0x13d037c4b69be0967d15852ebe6d648bd4920cdbd6f6e2f16958262dcce40fe5",
  "args": [
    "0x942E8e0e4b021F55b89660c886146e0Ec57F4b5B"
  ],
  "solcInputHash": "71c8a1d84e8c8a042b2e39c06d7fed71",
  "bytecode": "0x608060405234801561001057600080fd5b5060405161196938038061196983398101604081905261002f916100ad565b6100383361005d565b600180546001600160a01b0319166001600160a01b03929092169190911790556100dd565b600080546001600160a01b038381166001600160a01b0319831681178455604051919092169283917f8be0079c531659141344cd1fd0a4f28419497f9722a3daafe3b4186f6b6457e09190a35050565b6000602082840312156100bf57600080fd5b81516001600160a01b03811681146100d657600080fd5b9392505050565b61187d806100ec6000396000f3fe6080604052600436106100b15760003560e01c80638da5cb5b11610069578063ce35dd9a1161004e578063ce35dd9a1461018b578063f00f39ce1461019e578063f2fde38b146101b157600080fd5b80638da5cb5b14610139578063a1a227fa1461016b57600080fd5b8063547cad121161009a578063547cad12146100f157806355b9f7f7146101135780637ee1bd4a1461012657600080fd5b80631599d265146100b657806320be95f2146100de575b600080fd5b6100c96100c436600461128c565b6101d1565b60405190151581526020015b60405180910390f35b6100c96100ec3660046112ef565b610289565b3480156100fd57600080fd5b5061011161010c366004611333565b610353565b005b61011161012136600461135e565b6103eb565b6101116101343660046113a7565b61041f565b34801561014557600080fd5b506000546001600160a01b03165b6040516001600160a01b0390911681526020016100d5565b34801561017757600080fd5b50600154610153906001600160a01b031681565b6100c9610199366004611453565b610479565b6100c96101ac366004611544565b61054e565b3480156101bd57600080fd5b506101116101cc366004611333565b6105b5565b6001546000906001600160a01b031633146102335760405162461bcd60e51b815260206004820152601960248201527f63616c6c6572206973206e6f74206d657373616765206275730000000000000060448201526064015b60405180910390fd5b6000610241838501856115c7565b90507f0993eabb2ce4a554387afd1dd46cad1404aaf34ad41bba845836cb43105862a886868686604051610278949392919061160d565b60405180910390a195945050505050565b6001546000906001600160a01b031633146102e65760405162461bcd60e51b815260206004820152601960248201527f63616c6c6572206973206e6f74206d6573736167652062757300000000000000604482015260640161022a565b7fee93b3d90bf7307985573224b309958a34f05c4bc6e541d3c2a9f903651cb3b68585858560405161031b9493929190611640565b60405180910390a1600061033183850185611333565b90506103476001600160a01b03871682876106a6565b50600195945050505050565b336103666000546001600160a01b031690565b6001600160a01b0316146103bc5760405162461bcd60e51b815260206004820181905260248201527f4f776e61626c653a2063616c6c6572206973206e6f7420746865206f776e6572604482015260640161022a565b6001805473ffffffffffffffffffffffffffffffffffffffff19166001600160a01b0392909216919091179055565b604080518215156020820152600091016040516020818303038152906040529050610419848483600061073b565b50505050565b6104346001600160a01b038716333088610757565b604080516001600160a01b038916602082015260009101604051602081830303815290604052905061046e8888888888888789600061078f565b505050505050505050565b6001546000906001600160a01b031633146104d65760405162461bcd60e51b815260206004820152601960248201527f63616c6c6572206973206e6f74206d6573736167652062757300000000000000604482015260640161022a565b6000828060200190518101906104ec9190611669565b90506105026001600160a01b03871682876106a6565b7f6d93ac0161970e4a38513a159b2a5a056f09ea9e98b35d7a259513d95ea565448686858a886040516105399594939291906116de565b60405180910390a15060019695505050505050565b6001546000906001600160a01b031633146105ab5760405162461bcd60e51b815260206004820152601960248201527f63616c6c6572206973206e6f74206d6573736167652062757300000000000000604482015260640161022a565b9695505050505050565b336105c86000546001600160a01b031690565b6001600160a01b03161461061e5760405162461bcd60e51b815260206004820181905260248201527f4f776e61626c653a2063616c6c6572206973206e6f7420746865206f776e6572604482015260640161022a565b6001600160a01b03811661069a5760405162461bcd60e51b815260206004820152602660248201527f4f776e61626c653a206e6577206f776e657220697320746865207a65726f206160448201527f6464726573730000000000000000000000000000000000000000000000000000606482015260840161022a565b6106a3816107c6565b50565b6040516001600160a01b03831660248201526044810182905261073690849063a9059cbb60e01b906064015b60408051601f198184030181529190526020810180517bffffffffffffffffffffffffffffffffffffffffffffffffffffffff167fffffffff0000000000000000000000000000000000000000000000000000000090931692909217909152610823565b505050565b600154610419908590859085906001600160a01b031685610908565b6040516001600160a01b03808516602483015283166044820152606481018290526104199085906323b872dd60e01b906084016106d2565b60006107b88a8a8a8a8a8a8a8a600160009054906101000a90046001600160a01b03168b610973565b9a9950505050505050505050565b600080546001600160a01b0383811673ffffffffffffffffffffffffffffffffffffffff19831681178455604051919092169283917f8be0079c531659141344cd1fd0a4f28419497f9722a3daafe3b4186f6b6457e09190a35050565b6000610878826040518060400160405280602081526020017f5361666545524332303a206c6f772d6c6576656c2063616c6c206661696c6564815250856001600160a01b0316610a439092919063ffffffff16565b80519091501561073657808060200190518101906108969190611729565b6107365760405162461bcd60e51b815260206004820152602a60248201527f5361666545524332303a204552433230206f7065726174696f6e20646964206e60448201527f6f74207375636365656400000000000000000000000000000000000000000000606482015260840161022a565b604051634f9e72ad60e11b81526001600160a01b03831690639f3ce55a90839061093a90899089908990600401611746565b6000604051808303818588803b15801561095357600080fd5b505af1158015610967573d6000803e3d6000fd5b50505050505050505050565b6000600184600381111561098957610989611781565b14156109a7576109a08b8b8b8b8b8b8b8a8a610a5c565b90506107b8565b60028460038111156109bb576109bb611781565b14156109d1576109a08b8b8b8b8b8a8989610c6a565b60038460038111156109e5576109e5611781565b14156109fb576109a08b8b8b8b8b8a8989610e84565b60405162461bcd60e51b815260206004820152601960248201527f6272696467652074797065206e6f7420737570706f7274656400000000000000604482015260640161022a565b6060610a528484600085610fd8565b90505b9392505050565b600080836001600160a01b03166382980dc46040518163ffffffff1660e01b815260040160206040518083038186803b158015610a9857600080fd5b505afa158015610aac573d6000803e3d6000fd5b505050506040513d601f19601f82011682018060405250810190610ad09190611669565b9050610ae66001600160a01b038b16828b611117565b60405163a5977fbb60e01b81526001600160a01b038c811660048301528b81166024830152604482018b905267ffffffffffffffff808b1660648401528916608483015263ffffffff881660a483015282169063a5977fbb9060c401600060405180830381600087803b158015610b5c57600080fd5b505af1158015610b70573d6000803e3d6000fd5b50506040516bffffffffffffffffffffffff1930606090811b821660208401528f811b821660348401528e901b166048820152605c81018c90526001600160c01b031960c08c811b8216607c8401528b811b8216608484015246901b16608c820152600092506094019050604051602081830303815290604052805190602001209050846001600160a01b0316634289fbb3858e8c86868c6040518763ffffffff1660e01b8152600401610c28959493929190611797565b6000604051808303818588803b158015610c4157600080fd5b505af1158015610c55573d6000803e3d6000fd5b50939f9e505050505050505050505050505050565b600080836001600160a01b031663d8257d176040518163ffffffff1660e01b815260040160206040518083038186803b158015610ca657600080fd5b505afa158015610cba573d6000803e3d6000fd5b505050506040513d601f19601f82011682018060405250810190610cde9190611669565b9050610cf46001600160a01b038a16828a611117565b6040516308d18d8960e21b81526001600160a01b038a81166004830152602482018a905267ffffffffffffffff808a1660448401528c821660648401528816608483015282169063234636249060a401600060405180830381600087803b158015610d5e57600080fd5b505af1158015610d72573d6000803e3d6000fd5b505050506000308a8a8a8e8b46604051602001610df69796959493929190606097881b6bffffffffffffffffffffffff19908116825296881b87166014820152602881019590955260c093841b6001600160c01b031990811660488701529290961b909416605084015292811b831660648301529290921b16606c82015260740190565b604051602081830303815290604052805190602001209050846001600160a01b0316634289fbb3858d8b86868c6040518763ffffffff1660e01b8152600401610e43959493929190611797565b6000604051808303818588803b158015610e5c57600080fd5b505af1158015610e70573d6000803e3d6000fd5b50939e9d5050505050505050505050505050565b600080836001600160a01b031663dfa2dbaf6040518163ffffffff1660e01b815260040160206040518083038186803b158015610ec057600080fd5b505afa158015610ed4573d6000803e3d6000fd5b505050506040513d601f19601f82011682018060405250810190610ef89190611669565b604051636f3c863f60e11b81526001600160a01b038b81166004830152602482018b90528c8116604483015267ffffffffffffffff891660648301529192509082169063de790c7e90608401600060405180830381600087803b158015610f5e57600080fd5b505af1158015610f72573d6000803e3d6000fd5b50506040516bffffffffffffffffffffffff1930606090811b821660208401528d811b82166034840152604883018d90528e901b1660688201526001600160c01b031960c08a811b8216607c84015246901b16608482015260009250608c019050610df6565b6060824710156110505760405162461bcd60e51b815260206004820152602660248201527f416464726573733a20696e73756666696369656e742062616c616e636520666f60448201527f722063616c6c0000000000000000000000000000000000000000000000000000606482015260840161022a565b843b61109e5760405162461bcd60e51b815260206004820152601d60248201527f416464726573733a2063616c6c20746f206e6f6e2d636f6e7472616374000000604482015260640161022a565b600080866001600160a01b031685876040516110ba91906117d9565b60006040518083038185875af1925050503d80600081146110f7576040519150601f19603f3d011682016040523d82523d6000602084013e6110fc565b606091505b509150915061110c8282866111d8565b979650505050505050565b604051636eb1769f60e11b81523060048201526001600160a01b038381166024830152600091839186169063dd62ed3e9060440160206040518083038186803b15801561116357600080fd5b505afa158015611177573d6000803e3d6000fd5b505050506040513d601f19601f8201168201806040525081019061119b91906117f5565b6111a5919061180e565b6040516001600160a01b03851660248201526044810182905290915061041990859063095ea7b360e01b906064016106d2565b606083156111e7575081610a55565b8251156111f75782518084602001fd5b8160405162461bcd60e51b815260040161022a9190611834565b6001600160a01b03811681146106a357600080fd5b803567ffffffffffffffff8116811461123e57600080fd5b919050565b60008083601f84011261125557600080fd5b50813567ffffffffffffffff81111561126d57600080fd5b60208301915083602082850101111561128557600080fd5b9250929050565b600080600080606085870312156112a257600080fd5b84356112ad81611211565b93506112bb60208601611226565b9250604085013567ffffffffffffffff8111156112d757600080fd5b6112e387828801611243565b95989497509550505050565b6000806000806060858703121561130557600080fd5b843561131081611211565b935060208501359250604085013567ffffffffffffffff8111156112d757600080fd5b60006020828403121561134557600080fd5b8135610a5581611211565b80151581146106a357600080fd5b60008060006060848603121561137357600080fd5b833561137e81611211565b925061138c60208501611226565b9150604084013561139c81611350565b809150509250925092565b600080600080600080600060e0888a0312156113c257600080fd5b87356113cd81611211565b965060208801356113dd81611211565b9550604088013594506113f260608901611226565b935061140060808901611226565b925060a088013563ffffffff8116811461141957600080fd5b915060c08801356004811061142d57600080fd5b8091505092959891949750929550565b634e487b7160e01b600052604160045260246000fd5b600080600080600060a0868803121561146b57600080fd5b853561147681611211565b9450602086013561148681611211565b93506040860135925061149b60608701611226565b9150608086013567ffffffffffffffff808211156114b857600080fd5b818801915088601f8301126114cc57600080fd5b8135818111156114de576114de61143d565b604051601f8201601f19908116603f011681019083821181831017156115065761150661143d565b816040528281528b602084870101111561151f57600080fd5b8260208601602083013760006020848301015280955050505050509295509295909350565b60008060008060008060a0878903121561155d57600080fd5b863561156881611211565b9550602087013561157881611211565b94506040870135935061158d60608801611226565b9250608087013567ffffffffffffffff8111156115a957600080fd5b6115b589828a01611243565b979a9699509497509295939492505050565b6000602082840312156115d957600080fd5b8135610a5581611350565b81835281816020850137506000828201602090810191909152601f909101601f19169091010190565b6001600160a01b038516815267ffffffffffffffff841660208201526060604082015260006105ab6060830184866115e4565b6001600160a01b03851681528360208201526060604082015260006105ab6060830184866115e4565b60006020828403121561167b57600080fd5b8151610a5581611211565b60005b838110156116a1578181015183820152602001611689565b838111156104195750506000910152565b600081518084526116ca816020860160208601611686565b601f01601f19169290920160200192915050565b60006001600160a01b03808816835286602084015260a0604084015261170760a08401876116b2565b941660608301525067ffffffffffffffff919091166080909101529392505050565b60006020828403121561173b57600080fd5b8151610a5581611350565b6001600160a01b038416815267ffffffffffffffff8316602082015260606040820152600061177860608301846116b2565b95945050505050565b634e487b7160e01b600052602160045260246000fd5b60006001600160a01b03808816835267ffffffffffffffff8716602084015280861660408401525083606083015260a0608083015261110c60a08301846116b2565b600082516117eb818460208701611686565b9190910192915050565b60006020828403121561180757600080fd5b5051919050565b6000821982111561182f57634e487b7160e01b600052601160045260246000fd5b500190565b602081526000610a5560208301846116b256fea2646970667358221220cc643402015ed108e055231bb97006ebd4672807c9a42b79231774abab3e4de064736f6c63430008090033",
  "devdoc": {
    "kind": "dev",
    "methods": {
      "executeMessageWithTransfer(address,address,uint256,uint64,bytes)": {
        "params": {
          "_amount": "The amount of tokens received at this contract through the cross-chain bridge.        the contract that implements this contract can safely assume that the tokens will arrive before this        function is called.",
          "_message": "Arbitrary message bytes originated from and encoded by the source app contract",
          "_sender": "The address of the source app contract",
          "_srcChainId": "The source chain ID where the transfer is originated from",
          "_token": "The address of the token that comes out of the bridge"
        }
      },
      "executeMessageWithTransferFallback(address,address,uint256,uint64,bytes)": {
        "params": {
          "_amount": "The amount of tokens received at this contract through the cross-chain bridge.        the contract that implements this contract can safely assume that the tokens will arrive before this        function is called.",
          "_message": "Arbitrary message bytes originated from and encoded by the source app contract",
          "_sender": "The address of the source app contract",
          "_srcChainId": "The source chain ID where the transfer is originated from",
          "_token": "The address of the token that comes out of the bridge"
        }
      },
      "executeMessageWithTransferRefund(address,uint256,bytes)": {
        "params": {
          "_amount": "The amount of the original transfer",
          "_message": "The same message associated with the original transfer",
          "_token": "The token address of the original transfer"
        }
      },
      "owner()": {
        "details": "Returns the address of the current owner."
      },
      "transferOwnership(address)": {
        "details": "Transfers ownership of the contract to a new account (`newOwner`). Can only be called by the current owner."
      }
    },
    "title": "Application to test message with transfer refund flow ",
    "version": 1
  },
  "userdoc": {
    "kind": "user",
    "methods": {
      "executeMessageWithTransfer(address,address,uint256,uint64,bytes)": {
        "notice": "Called by MessageBus (MessageBusReceiver) if the process is originated from MessageBus (MessageBusSender)'s         sendMessageWithTransfer it is only called when the tokens are checked to be arrived at this contract's address."
      },
      "executeMessageWithTransferFallback(address,address,uint256,uint64,bytes)": {
        "notice": "Only called by MessageBus (MessageBusReceiver) if         1. executeMessageWithTransfer reverts, or         2. executeMessageWithTransfer returns false"
      },
      "executeMessageWithTransferRefund(address,uint256,bytes)": {
        "notice": "Called by MessageBus (MessageBusReceiver) to process refund of the original transfer from this contract"
      }
    },
    "version": 1
  },
  "storageLayout": {
    "storage": [
      {
        "astId": 17363,
        "contract": "contracts/message/apps/TestRefund.sol:TestRefund",
        "label": "_owner",
        "offset": 0,
        "slot": "0",
        "type": "t_address"
      },
      {
        "astId": 12338,
        "contract": "contracts/message/apps/TestRefund.sol:TestRefund",
        "label": "messageBus",
        "offset": 0,
        "slot": "1",
        "type": "t_address"
      }
    ],
    "types": {
      "t_address": {
        "encoding": "inplace",
        "label": "address",
        "numberOfBytes": "20"
      }
    }
  }
}