{
  "address": "0x5471ea8f739dd37E9B81Be9c5c77754D8AA953E4",
  "abi": [
    {
      "inputs": [
        {
          "internalType": "string",
          "name": "name_",
          "type": "string"
        },
        {
          "internalType": "string",
          "name": "symbol_",
          "type": "string"
        },
        {
          "internalType": "uint8",
          "name": "decimals_",
          "type": "uint8"
        }
      ],
      "stateMutability": "nonpayable",
      "type": "constructor"
    },
    {
      "anonymous": false,
      "inputs": [
        {
          "indexed": true,
          "internalType": "address",
          "name": "owner",
          "type": "address"
        },
        {
          "indexed": true,
          "internalType": "address",
          "name": "spender",
          "type": "address"
        },
        {
          "indexed": false,
          "internalType": "uint256",
          "name": "value",
          "type": "uint256"
        }
      ],
      "name": "Approval",
      "type": "event"
    },
    {
      "anonymous": false,
      "inputs": [
        {
          "indexed": false,
          "internalType": "address",
          "name": "bridge",
          "type": "address"
        },
        {
          "indexed": false,
          "internalType": "uint256",
          "name": "supplyCap",
          "type": "uint256"
        }
      ],
      "name": "BridgeSupplyCapUpdated",
      "type": "event"
    },
    {
      "anonymous": false,
      "inputs": [
        {
          "indexed": true,
          "internalType": "address",
          "name": "previousOwner",
          "type": "address"
        },
        {
          "indexed": true,
          "internalType": "address",
          "name": "newOwner",
          "type": "address"
        }
      ],
      "name": "OwnershipTransferred",
      "type": "event"
    },
    {
      "anonymous": false,
      "inputs": [
        {
          "indexed": true,
          "internalType": "address",
          "name": "from",
          "type": "address"
        },
        {
          "indexed": true,
          "internalType": "address",
          "name": "to",
          "type": "address"
        },
        {
          "indexed": false,
          "internalType": "uint256",
          "name": "value",
          "type": "uint256"
        }
      ],
      "name": "Transfer",
      "type": "event"
    },
    {
      "inputs": [
        {
          "internalType": "address",
          "name": "owner",
          "type": "address"
        },
        {
          "internalType": "address",
          "name": "spender",
          "type": "address"
        }
      ],
      "name": "allowance",
      "outputs": [
        {
          "internalType": "uint256",
          "name": "",
          "type": "uint256"
        }
      ],
      "stateMutability": "view",
      "type": "function"
    },
    {
      "inputs": [
        {
          "internalType": "address",
          "name": "spender",
          "type": "address"
        },
        {
          "internalType": "uint256",
          "name": "amount",
          "type": "uint256"
        }
      ],
      "name": "approve",
      "outputs": [
        {
          "internalType": "bool",
          "name": "",
          "type": "bool"
        }
      ],
      "stateMutability": "nonpayable",
      "type": "function"
    },
    {
      "inputs": [
        {
          "internalType": "address",
          "name": "account",
          "type": "address"
        }
      ],
      "name": "balanceOf",
      "outputs": [
        {
          "internalType": "uint256",
          "name": "",
          "type": "uint256"
        }
      ],
      "stateMutability": "view",
      "type": "function"
    },
    {
      "inputs": [
        {
          "internalType": "address",
          "name": "",
          "type": "address"
        }
      ],
      "name": "bridges",
      "outputs": [
        {
          "internalType": "uint256",
          "name": "cap",
          "type": "uint256"
        },
        {
          "internalType": "uint256",
          "name": "total",
          "type": "uint256"
        }
      ],
      "stateMutability": "view",
      "type": "function"
    },
    {
      "inputs": [
        {
          "internalType": "uint256",
          "name": "_amount",
          "type": "uint256"
        }
      ],
      "name": "burn",
      "outputs": [
        {
          "internalType": "bool",
          "name": "",
          "type": "bool"
        }
      ],
      "stateMutability": "nonpayable",
      "type": "function"
    },
    {
      "inputs": [
        {
          "internalType": "address",
          "name": "_from",
          "type": "address"
        },
        {
          "internalType": "uint256",
          "name": "_amount",
          "type": "uint256"
        }
      ],
      "name": "burn",
      "outputs": [
        {
          "internalType": "bool",
          "name": "",
          "type": "bool"
        }
      ],
      "stateMutability": "nonpayable",
      "type": "function"
    },
    {
      "inputs": [
        {
          "internalType": "address",
          "name": "_from",
          "type": "address"
        },
        {
          "internalType": "uint256",
          "name": "_amount",
          "type": "uint256"
        }
      ],
      "name": "burnFrom",
      "outputs": [
        {
          "internalType": "bool",
          "name": "",
          "type": "bool"
        }
      ],
      "stateMutability": "nonpayable",
      "type": "function"
    },
    {
      "inputs": [],
      "name": "decimals",
      "outputs": [
        {
          "internalType": "uint8",
          "name": "",
          "type": "uint8"
        }
      ],
      "stateMutability": "view",
      "type": "function"
    },
    {
      "inputs": [
        {
          "internalType": "address",
          "name": "spender",
          "type": "address"
        },
        {
          "internalType": "uint256",
          "name": "subtractedValue",
          "type": "uint256"
        }
      ],
      "name": "decreaseAllowance",
      "outputs": [
        {
          "internalType": "bool",
          "name": "",
          "type": "bool"
        }
      ],
      "stateMutability": "nonpayable",
      "type": "function"
    },
    {
      "inputs": [],
      "name": "getOwner",
      "outputs": [
        {
          "internalType": "address",
          "name": "",
          "type": "address"
        }
      ],
      "stateMutability": "view",
      "type": "function"
    },
    {
      "inputs": [
        {
          "internalType": "address",
          "name": "spender",
          "type": "address"
        },
        {
          "internalType": "uint256",
          "name": "addedValue",
          "type": "uint256"
        }
      ],
      "name": "increaseAllowance",
      "outputs": [
        {
          "internalType": "bool",
          "name": "",
          "type": "bool"
        }
      ],
      "stateMutability": "nonpayable",
      "type": "function"
    },
    {
      "inputs": [
        {
          "internalType": "address",
          "name": "_to",
          "type": "address"
        },
        {
          "internalType": "uint256",
          "name": "_amount",
          "type": "uint256"
        }
      ],
      "name": "mint",
      "outputs": [
        {
          "internalType": "bool",
          "name": "",
          "type": "bool"
        }
      ],
      "stateMutability": "nonpayable",
      "type": "function"
    },
    {
      "inputs": [],
      "name": "name",
      "outputs": [
        {
          "internalType": "string",
          "name": "",
          "type": "string"
        }
      ],
      "stateMutability": "view",
      "type": "function"
    },
    {
      "inputs": [],
      "name": "owner",
      "outputs": [
        {
          "internalType": "address",
          "name": "",
          "type": "address"
        }
      ],
      "stateMutability": "view",
      "type": "function"
    },
    {
      "inputs": [],
      "name": "symbol",
      "outputs": [
        {
          "internalType": "string",
          "name": "",
          "type": "string"
        }
      ],
      "stateMutability": "view",
      "type": "function"
    },
    {
      "inputs": [],
      "name": "totalSupply",
      "outputs": [
        {
          "internalType": "uint256",
          "name": "",
          "type": "uint256"
        }
      ],
      "stateMutability": "view",
      "type": "function"
    },
    {
      "inputs": [
        {
          "internalType": "address",
          "name": "to",
          "type": "address"
        },
        {
          "internalType": "uint256",
          "name": "amount",
          "type": "uint256"
        }
      ],
      "name": "transfer",
      "outputs": [
        {
          "internalType": "bool",
          "name": "",
          "type": "bool"
        }
      ],
      "stateMutability": "nonpayable",
      "type": "function"
    },
    {
      "inputs": [
        {
          "internalType": "address",
          "name": "from",
          "type": "address"
        },
        {
          "internalType": "address",
          "name": "to",
          "type": "address"
        },
        {
          "internalType": "uint256",
          "name": "amount",
          "type": "uint256"
        }
      ],
      "name": "transferFrom",
      "outputs": [
        {
          "internalType": "bool",
          "name": "",
          "type": "bool"
        }
      ],
      "stateMutability": "nonpayable",
      "type": "function"
    },
    {
      "inputs": [
        {
          "internalType": "address",
          "name": "newOwner",
          "type": "address"
        }
      ],
      "name": "transferOwnership",
      "outputs": [],
      "stateMutability": "nonpayable",
      "type": "function"
    },
    {
      "inputs": [
        {
          "internalType": "address",
          "name": "_bridge",
          "type": "address"
        },
        {
          "internalType": "uint256",
          "name": "_cap",
          "type": "uint256"
        }
      ],
      "name": "updateBridgeSupplyCap",
      "outputs": [],
      "stateMutability": "nonpayable",
      "type": "function"
    }
  ],
  "transactionHash": "0xe9a44b4e5d157482872618bc552cd89694e649a243d96b3b31bc95ab426dc978",
  "args": [
    "Matic Token",
    "MATIC",
    "18"
  ],
  "numDeployments": 3,
  "solcInputHash": "4aebeced31bf6943f4297d6ba2523769",
  "bytecode": "0x60a06040523480156200001157600080fd5b50604051620014663803806200146683398101604081905262000034916200018d565b82826003620000448382620002a1565b506004620000538282620002a1565b50505062000067336200007660201b60201c565b60ff16608052506200036d9050565b600580546001600160a01b038381166001600160a01b0319831681179093556040519116919082907f8be0079c531659141344cd1fd0a4f28419497f9722a3daafe3b4186f6b6457e090600090a35050565b634e487b7160e01b600052604160045260246000fd5b600082601f830112620000f057600080fd5b81516001600160401b03808211156200010d576200010d620000c8565b604051601f8301601f19908116603f01168101908282118183101715620001385762000138620000c8565b816040528381526020925086838588010111156200015557600080fd5b600091505b838210156200017957858201830151818301840152908201906200015a565b600093810190920192909252949350505050565b600080600060608486031215620001a357600080fd5b83516001600160401b0380821115620001bb57600080fd5b620001c987838801620000de565b94506020860151915080821115620001e057600080fd5b50620001ef86828701620000de565b925050604084015160ff811681146200020757600080fd5b809150509250925092565b600181811c908216806200022757607f821691505b6020821081036200024857634e487b7160e01b600052602260045260246000fd5b50919050565b601f8211156200029c57600081815260208120601f850160051c81016020861015620002775750805b601f850160051c820191505b81811015620002985782815560010162000283565b5050505b505050565b81516001600160401b03811115620002bd57620002bd620000c8565b620002d581620002ce845462000212565b846200024e565b602080601f8311600181146200030d5760008415620002f45750858301515b600019600386901b1c1916600185901b17855562000298565b600085815260208120601f198616915b828110156200033e578886015182559484019460019091019084016200031d565b50858210156200035d5787850151600019600388901b60f8161c191681555b5050505050600190811b01905550565b6080516110dd6200038960003960006101de01526110dd6000f3fe608060405234801561001057600080fd5b506004361061016c5760003560e01c806379cc6790116100cd578063a457c2d711610081578063ced67f0c11610066578063ced67f0c146102f1578063dd62ed3e1461032d578063f2fde38b1461036657600080fd5b8063a457c2d7146102cb578063a9059cbb146102de57600080fd5b80638da5cb5b116100b25780638da5cb5b146102b257806395d89b41146102c35780639dc29fac1461027f57600080fd5b806379cc67901461027f578063893d20e81461029257600080fd5b8063395093511161012457806342966c681161010957806342966c681461022e5780634ce2f71a1461024157806370a082311461025657600080fd5b8063395093511461020857806340c10f191461021b57600080fd5b806318160ddd1161015557806318160ddd146101b257806323b872dd146101c4578063313ce567146101d757600080fd5b806306fdde0314610171578063095ea7b31461018f575b600080fd5b610179610379565b6040516101869190610efa565b60405180910390f35b6101a261019d366004610f64565b61040b565b6040519015158152602001610186565b6002545b604051908152602001610186565b6101a26101d2366004610f8e565b610425565b60405160ff7f0000000000000000000000000000000000000000000000000000000000000000168152602001610186565b6101a2610216366004610f64565b610449565b6101a2610229366004610f64565b610488565b6101a261023c366004610fca565b610562565b61025461024f366004610f64565b610576565b005b6101b6610264366004610fe3565b6001600160a01b031660009081526020819052604090205490565b6101a261028d366004610f64565b610637565b61029a61064a565b6040516001600160a01b039091168152602001610186565b6005546001600160a01b031661029a565b610179610663565b6101a26102d9366004610f64565b610672565b6101a26102ec366004610f64565b61071c565b6103186102ff366004610fe3565b6006602052600090815260409020805460019091015482565b60408051928352602083019190915201610186565b6101b661033b366004610ffe565b6001600160a01b03918216600090815260016020908152604080832093909416825291909152205490565b610254610374366004610fe3565b61072a565b60606003805461038890611031565b80601f01602080910402602001604051908101604052809291908181526020018280546103b490611031565b80156104015780601f106103d657610100808354040283529160200191610401565b820191906000526020600020905b8154815290600101906020018083116103e457829003601f168201915b5050505050905090565b60003361041981858561081b565b60019150505b92915050565b600033610433858285610940565b61043e8585856109d2565b506001949350505050565b3360008181526001602090815260408083206001600160a01b03871684529091528120549091906104199082908690610483908790611081565b61081b565b33600090815260066020526040812080546104ea5760405162461bcd60e51b815260206004820152600e60248201527f696e76616c69642063616c6c657200000000000000000000000000000000000060448201526064015b60405180910390fd5b828160010160008282546104fe9190611081565b90915550508054600182015411156105585760405162461bcd60e51b815260206004820152601960248201527f657863656564732062726964676520737570706c79206361700000000000000060448201526064016104e1565b6104198484610bcf565b600061056e3383610cae565b506001919050565b336105896005546001600160a01b031690565b6001600160a01b0316146105df5760405162461bcd60e51b815260206004820181905260248201527f4f776e61626c653a2063616c6c6572206973206e6f7420746865206f776e657260448201526064016104e1565b6001600160a01b038216600081815260066020908152604091829020849055815192835282018390527f59e1e4348943de408b89af8ab71e502ea722dd41efd1ff4a3548c60e83e91c60910160405180910390a15050565b60006106438383610df4565b9392505050565b600061065e6005546001600160a01b031690565b905090565b60606004805461038890611031565b3360008181526001602090815260408083206001600160a01b03871684529091528120549091908381101561070f5760405162461bcd60e51b815260206004820152602560248201527f45524332303a2064656372656173656420616c6c6f77616e63652062656c6f7760448201527f207a65726f00000000000000000000000000000000000000000000000000000060648201526084016104e1565b61043e828686840361081b565b6000336104198185856109d2565b3361073d6005546001600160a01b031690565b6001600160a01b0316146107935760405162461bcd60e51b815260206004820181905260248201527f4f776e61626c653a2063616c6c6572206973206e6f7420746865206f776e657260448201526064016104e1565b6001600160a01b03811661080f5760405162461bcd60e51b815260206004820152602660248201527f4f776e61626c653a206e6577206f776e657220697320746865207a65726f206160448201527f646472657373000000000000000000000000000000000000000000000000000060648201526084016104e1565b61081881610e90565b50565b6001600160a01b03831661087d5760405162461bcd60e51b8152602060048201526024808201527f45524332303a20617070726f76652066726f6d20746865207a65726f206164646044820152637265737360e01b60648201526084016104e1565b6001600160a01b0382166108de5760405162461bcd60e51b815260206004820152602260248201527f45524332303a20617070726f766520746f20746865207a65726f206164647265604482015261737360f01b60648201526084016104e1565b6001600160a01b0383811660008181526001602090815260408083209487168084529482529182902085905590518481527f8c5be1e5ebec7d5bd14f71427d1e84f3dd0314c0f7b2291e5b200ac8c7c3b92591015b60405180910390a3505050565b6001600160a01b0383811660009081526001602090815260408083209386168352929052205460001981146109cc57818110156109bf5760405162461bcd60e51b815260206004820152601d60248201527f45524332303a20696e73756666696369656e7420616c6c6f77616e636500000060448201526064016104e1565b6109cc848484840361081b565b50505050565b6001600160a01b038316610a4e5760405162461bcd60e51b815260206004820152602560248201527f45524332303a207472616e736665722066726f6d20746865207a65726f20616460448201527f647265737300000000000000000000000000000000000000000000000000000060648201526084016104e1565b6001600160a01b038216610ab05760405162461bcd60e51b815260206004820152602360248201527f45524332303a207472616e7366657220746f20746865207a65726f206164647260448201526265737360e81b60648201526084016104e1565b6001600160a01b03831660009081526020819052604090205481811015610b3f5760405162461bcd60e51b815260206004820152602660248201527f45524332303a207472616e7366657220616d6f756e742065786365656473206260448201527f616c616e6365000000000000000000000000000000000000000000000000000060648201526084016104e1565b6001600160a01b03808516600090815260208190526040808220858503905591851681529081208054849290610b76908490611081565b92505081905550826001600160a01b0316846001600160a01b03167fddf252ad1be2c89b69c2b068fc378daa952ba7f163c4a11628f55a4df523b3ef84604051610bc291815260200190565b60405180910390a36109cc565b6001600160a01b038216610c255760405162461bcd60e51b815260206004820152601f60248201527f45524332303a206d696e7420746f20746865207a65726f20616464726573730060448201526064016104e1565b8060026000828254610c379190611081565b90915550506001600160a01b03821660009081526020819052604081208054839290610c64908490611081565b90915550506040518181526001600160a01b038316906000907fddf252ad1be2c89b69c2b068fc378daa952ba7f163c4a11628f55a4df523b3ef9060200160405180910390a35050565b6001600160a01b038216610d0e5760405162461bcd60e51b815260206004820152602160248201527f45524332303a206275726e2066726f6d20746865207a65726f206164647265736044820152607360f81b60648201526084016104e1565b6001600160a01b03821660009081526020819052604090205481811015610d825760405162461bcd60e51b815260206004820152602260248201527f45524332303a206275726e20616d6f756e7420657863656564732062616c616e604482015261636560f01b60648201526084016104e1565b6001600160a01b0383166000908152602081905260408120838303905560028054849290610db1908490611094565b90915550506040518281526000906001600160a01b038516907fddf252ad1be2c89b69c2b068fc378daa952ba7f163c4a11628f55a4df523b3ef90602001610933565b3360009081526006602052604081208054151580610e16575060008160010154115b15610e7b578281600101541015610e6f5760405162461bcd60e51b815260206004820152601c60248201527f6578636565647320627269646765206d696e74656420616d6f756e740000000060448201526064016104e1565b60018101805484900390555b610e86843385610940565b6104198484610cae565b600580546001600160a01b038381167fffffffffffffffffffffffff0000000000000000000000000000000000000000831681179093556040519116919082907f8be0079c531659141344cd1fd0a4f28419497f9722a3daafe3b4186f6b6457e090600090a35050565b600060208083528351808285015260005b81811015610f2757858101830151858201604001528201610f0b565b506000604082860101526040601f19601f8301168501019250505092915050565b80356001600160a01b0381168114610f5f57600080fd5b919050565b60008060408385031215610f7757600080fd5b610f8083610f48565b946020939093013593505050565b600080600060608486031215610fa357600080fd5b610fac84610f48565b9250610fba60208501610f48565b9150604084013590509250925092565b600060208284031215610fdc57600080fd5b5035919050565b600060208284031215610ff557600080fd5b61064382610f48565b6000806040838503121561101157600080fd5b61101a83610f48565b915061102860208401610f48565b90509250929050565b600181811c9082168061104557607f821691505b60208210810361106557634e487b7160e01b600052602260045260246000fd5b50919050565b634e487b7160e01b600052601160045260246000fd5b8082018082111561041f5761041f61106b565b8181038181111561041f5761041f61106b56fea2646970667358221220f0061d6652c3cdec3d7ea07b04ec46693ddd7cf01d385cc2b9bcb27f6f7c5f5164736f6c63430008110033",
  "devdoc": {
    "kind": "dev",
    "methods": {
      "allowance(address,address)": {
        "details": "See {IERC20-allowance}."
      },
      "approve(address,uint256)": {
        "details": "See {IERC20-approve}. NOTE: If `amount` is the maximum `uint256`, the allowance is not updated on `transferFrom`. This is semantically equivalent to an infinite approval. Requirements: - `spender` cannot be the zero address."
      },
      "balanceOf(address)": {
        "details": "See {IERC20-balanceOf}."
      },
      "burn(address,uint256)": {
        "params": {
          "_amount": "The amount to burn.",
          "_from": "The address to burn tokens from."
        }
      },
      "burn(uint256)": {
        "params": {
          "_amount": "The amount to burn."
        }
      },
      "burnFrom(address,uint256)": {
        "params": {
          "_amount": "The amount to burn.",
          "_from": "The address to burn tokens from."
        }
      },
      "decreaseAllowance(address,uint256)": {
        "details": "Atomically decreases the allowance granted to `spender` by the caller. This is an alternative to {approve} that can be used as a mitigation for problems described in {IERC20-approve}. Emits an {Approval} event indicating the updated allowance. Requirements: - `spender` cannot be the zero address. - `spender` must have allowance for the caller of at least `subtractedValue`."
      },
      "increaseAllowance(address,uint256)": {
        "details": "Atomically increases the allowance granted to `spender` by the caller. This is an alternative to {approve} that can be used as a mitigation for problems described in {IERC20-approve}. Emits an {Approval} event indicating the updated allowance. Requirements: - `spender` cannot be the zero address."
      },
      "mint(address,uint256)": {
        "params": {
          "_amount": "The amount to mint.",
          "_to": "The address to mint tokens to."
        }
      },
      "name()": {
        "details": "Returns the name of the token."
      },
      "owner()": {
        "details": "Returns the address of the current owner."
      },
      "symbol()": {
        "details": "Returns the symbol of the token, usually a shorter version of the name."
      },
      "totalSupply()": {
        "details": "See {IERC20-totalSupply}."
      },
      "transfer(address,uint256)": {
        "details": "See {IERC20-transfer}. Requirements: - `to` cannot be the zero address. - the caller must have a balance of at least `amount`."
      },
      "transferFrom(address,address,uint256)": {
        "details": "See {IERC20-transferFrom}. Emits an {Approval} event indicating the updated allowance. This is not required by the EIP. See the note at the beginning of {ERC20}. NOTE: Does not update the allowance if the current allowance is the maximum `uint256`. Requirements: - `from` and `to` cannot be the zero address. - `from` must have a balance of at least `amount`. - the caller must have allowance for ``from``'s tokens of at least `amount`."
      },
      "transferOwnership(address)": {
        "details": "Transfers ownership of the contract to a new account (`newOwner`). Can only be called by the current owner."
      },
      "updateBridgeSupplyCap(address,uint256)": {
        "params": {
          "_bridge": "The bridge address.",
          "_cap": "The new supply cap."
        }
      }
    },
    "title": "Example Multi-Bridge Pegged ERC20 token",
    "version": 1
  },
  "userdoc": {
    "kind": "user",
    "methods": {
      "burn(address,uint256)": {
        "notice": "Burns tokens from an address. Decreases total amount minted if called by a bridge. Alternative to {burnFrom} for compatibility with some bridge implementations. See {_burnFrom}."
      },
      "burn(uint256)": {
        "notice": "Burns tokens for msg.sender."
      },
      "burnFrom(address,uint256)": {
        "notice": "Burns tokens from an address. Decreases total amount minted if called by a bridge. See {_burnFrom}."
      },
      "decimals()": {
        "notice": "Returns the decimals of the token."
      },
      "getOwner()": {
        "notice": "Returns the owner address. Required by BEP20."
      },
      "mint(address,uint256)": {
        "notice": "Mints tokens to an address. Increases total amount minted by the calling bridge."
      },
      "updateBridgeSupplyCap(address,uint256)": {
        "notice": "Updates the supply cap for a bridge."
      }
    },
    "version": 1
  },
  "storageLayout": {
    "storage": [
      {
        "astId": 1684,
        "contract": "contracts/pegged-bridge/tokens/MultiBridgeToken.sol:MultiBridgeToken",
        "label": "_balances",
        "offset": 0,
        "slot": "0",
        "type": "t_mapping(t_address,t_uint256)"
      },
      {
        "astId": 1690,
        "contract": "contracts/pegged-bridge/tokens/MultiBridgeToken.sol:MultiBridgeToken",
        "label": "_allowances",
        "offset": 0,
        "slot": "1",
        "type": "t_mapping(t_address,t_mapping(t_address,t_uint256))"
      },
      {
        "astId": 1692,
        "contract": "contracts/pegged-bridge/tokens/MultiBridgeToken.sol:MultiBridgeToken",
        "label": "_totalSupply",
        "offset": 0,
        "slot": "2",
        "type": "t_uint256"
      },
      {
        "astId": 1694,
        "contract": "contracts/pegged-bridge/tokens/MultiBridgeToken.sol:MultiBridgeToken",
        "label": "_name",
        "offset": 0,
        "slot": "3",
        "type": "t_string_storage"
      },
      {
        "astId": 1696,
        "contract": "contracts/pegged-bridge/tokens/MultiBridgeToken.sol:MultiBridgeToken",
        "label": "_symbol",
        "offset": 0,
        "slot": "4",
        "type": "t_string_storage"
      },
      {
        "astId": 34421,
        "contract": "contracts/pegged-bridge/tokens/MultiBridgeToken.sol:MultiBridgeToken",
        "label": "_owner",
        "offset": 0,
        "slot": "5",
        "type": "t_address"
      },
      {
        "astId": 30941,
        "contract": "contracts/pegged-bridge/tokens/MultiBridgeToken.sol:MultiBridgeToken",
        "label": "bridges",
        "offset": 0,
        "slot": "6",
        "type": "t_mapping(t_address,t_struct(Supply)30936_storage)"
      }
    ],
    "types": {
      "t_address": {
        "encoding": "inplace",
        "label": "address",
        "numberOfBytes": "20"
      },
      "t_mapping(t_address,t_mapping(t_address,t_uint256))": {
        "encoding": "mapping",
        "key": "t_address",
        "label": "mapping(address => mapping(address => uint256))",
        "numberOfBytes": "32",
        "value": "t_mapping(t_address,t_uint256)"
      },
      "t_mapping(t_address,t_struct(Supply)30936_storage)": {
        "encoding": "mapping",
        "key": "t_address",
        "label": "mapping(address => struct MultiBridgeToken.Supply)",
        "numberOfBytes": "32",
        "value": "t_struct(Supply)30936_storage"
      },
      "t_mapping(t_address,t_uint256)": {
        "encoding": "mapping",
        "key": "t_address",
        "label": "mapping(address => uint256)",
        "numberOfBytes": "32",
        "value": "t_uint256"
      },
      "t_string_storage": {
        "encoding": "bytes",
        "label": "string",
        "numberOfBytes": "32"
      },
      "t_struct(Supply)30936_storage": {
        "encoding": "inplace",
        "label": "struct MultiBridgeToken.Supply",
        "members": [
          {
            "astId": 30933,
            "contract": "contracts/pegged-bridge/tokens/MultiBridgeToken.sol:MultiBridgeToken",
            "label": "cap",
            "offset": 0,
            "slot": "0",
            "type": "t_uint256"
          },
          {
            "astId": 30935,
            "contract": "contracts/pegged-bridge/tokens/MultiBridgeToken.sol:MultiBridgeToken",
            "label": "total",
            "offset": 0,
            "slot": "1",
            "type": "t_uint256"
          }
        ],
        "numberOfBytes": "64"
      },
      "t_uint256": {
        "encoding": "inplace",
        "label": "uint256",
        "numberOfBytes": "32"
      }
    }
  }
}