{
  "address": "0x0a98B1d10a7B226b7742B3E345fDF45fb04A196E",
  "abi": [
    {
      "inputs": [
        {
          "internalType": "string",
          "name": "name_",
          "type": "string"
        },
        {
          "internalType": "string",
          "name": "symbol_",
          "type": "string"
        },
        {
          "internalType": "uint8",
          "name": "decimals_",
          "type": "uint8"
        }
      ],
      "stateMutability": "nonpayable",
      "type": "constructor"
    },
    {
      "anonymous": false,
      "inputs": [
        {
          "indexed": true,
          "internalType": "address",
          "name": "owner",
          "type": "address"
        },
        {
          "indexed": true,
          "internalType": "address",
          "name": "spender",
          "type": "address"
        },
        {
          "indexed": false,
          "internalType": "uint256",
          "name": "value",
          "type": "uint256"
        }
      ],
      "name": "Approval",
      "type": "event"
    },
    {
      "anonymous": false,
      "inputs": [
        {
          "indexed": false,
          "internalType": "address",
          "name": "bridge",
          "type": "address"
        },
        {
          "indexed": false,
          "internalType": "uint256",
          "name": "supplyCap",
          "type": "uint256"
        }
      ],
      "name": "BridgeSupplyCapUpdated",
      "type": "event"
    },
    {
      "anonymous": false,
      "inputs": [
        {
          "indexed": true,
          "internalType": "address",
          "name": "previousOwner",
          "type": "address"
        },
        {
          "indexed": true,
          "internalType": "address",
          "name": "newOwner",
          "type": "address"
        }
      ],
      "name": "OwnershipTransferred",
      "type": "event"
    },
    {
      "anonymous": false,
      "inputs": [
        {
          "indexed": false,
          "internalType": "address",
          "name": "token",
          "type": "address"
        },
        {
          "indexed": false,
          "internalType": "uint256",
          "name": "cap",
          "type": "uint256"
        }
      ],
      "name": "TokenSwapCapUpdated",
      "type": "event"
    },
    {
      "anonymous": false,
      "inputs": [
        {
          "indexed": true,
          "internalType": "address",
          "name": "from",
          "type": "address"
        },
        {
          "indexed": true,
          "internalType": "address",
          "name": "to",
          "type": "address"
        },
        {
          "indexed": false,
          "internalType": "uint256",
          "name": "value",
          "type": "uint256"
        }
      ],
      "name": "Transfer",
      "type": "event"
    },
    {
      "inputs": [
        {
          "internalType": "address",
          "name": "owner",
          "type": "address"
        },
        {
          "internalType": "address",
          "name": "spender",
          "type": "address"
        }
      ],
      "name": "allowance",
      "outputs": [
        {
          "internalType": "uint256",
          "name": "",
          "type": "uint256"
        }
      ],
      "stateMutability": "view",
      "type": "function"
    },
    {
      "inputs": [
        {
          "internalType": "address",
          "name": "spender",
          "type": "address"
        },
        {
          "internalType": "uint256",
          "name": "amount",
          "type": "uint256"
        }
      ],
      "name": "approve",
      "outputs": [
        {
          "internalType": "bool",
          "name": "",
          "type": "bool"
        }
      ],
      "stateMutability": "nonpayable",
      "type": "function"
    },
    {
      "inputs": [
        {
          "internalType": "address",
          "name": "account",
          "type": "address"
        }
      ],
      "name": "balanceOf",
      "outputs": [
        {
          "internalType": "uint256",
          "name": "",
          "type": "uint256"
        }
      ],
      "stateMutability": "view",
      "type": "function"
    },
    {
      "inputs": [
        {
          "internalType": "address",
          "name": "",
          "type": "address"
        }
      ],
      "name": "bridges",
      "outputs": [
        {
          "internalType": "uint256",
          "name": "cap",
          "type": "uint256"
        },
        {
          "internalType": "uint256",
          "name": "total",
          "type": "uint256"
        }
      ],
      "stateMutability": "view",
      "type": "function"
    },
    {
      "inputs": [
        {
          "internalType": "address",
          "name": "_from",
          "type": "address"
        },
        {
          "internalType": "uint256",
          "name": "_amount",
          "type": "uint256"
        }
      ],
      "name": "burn",
      "outputs": [
        {
          "internalType": "bool",
          "name": "",
          "type": "bool"
        }
      ],
      "stateMutability": "nonpayable",
      "type": "function"
    },
    {
      "inputs": [],
      "name": "decimals",
      "outputs": [
        {
          "internalType": "uint8",
          "name": "",
          "type": "uint8"
        }
      ],
      "stateMutability": "view",
      "type": "function"
    },
    {
      "inputs": [
        {
          "internalType": "address",
          "name": "spender",
          "type": "address"
        },
        {
          "internalType": "uint256",
          "name": "subtractedValue",
          "type": "uint256"
        }
      ],
      "name": "decreaseAllowance",
      "outputs": [
        {
          "internalType": "bool",
          "name": "",
          "type": "bool"
        }
      ],
      "stateMutability": "nonpayable",
      "type": "function"
    },
    {
      "inputs": [],
      "name": "getOwner",
      "outputs": [
        {
          "internalType": "address",
          "name": "",
          "type": "address"
        }
      ],
      "stateMutability": "view",
      "type": "function"
    },
    {
      "inputs": [
        {
          "internalType": "address",
          "name": "spender",
          "type": "address"
        },
        {
          "internalType": "uint256",
          "name": "addedValue",
          "type": "uint256"
        }
      ],
      "name": "increaseAllowance",
      "outputs": [
        {
          "internalType": "bool",
          "name": "",
          "type": "bool"
        }
      ],
      "stateMutability": "nonpayable",
      "type": "function"
    },
    {
      "inputs": [
        {
          "internalType": "string",
          "name": "name_",
          "type": "string"
        },
        {
          "internalType": "string",
          "name": "symbol_",
          "type": "string"
        }
      ],
      "name": "init",
      "outputs": [],
      "stateMutability": "nonpayable",
      "type": "function"
    },
    {
      "inputs": [
        {
          "internalType": "address",
          "name": "_to",
          "type": "address"
        },
        {
          "internalType": "uint256",
          "name": "_amount",
          "type": "uint256"
        }
      ],
      "name": "mint",
      "outputs": [
        {
          "internalType": "bool",
          "name": "",
          "type": "bool"
        }
      ],
      "stateMutability": "nonpayable",
      "type": "function"
    },
    {
      "inputs": [],
      "name": "name",
      "outputs": [
        {
          "internalType": "string",
          "name": "",
          "type": "string"
        }
      ],
      "stateMutability": "view",
      "type": "function"
    },
    {
      "inputs": [],
      "name": "owner",
      "outputs": [
        {
          "internalType": "address",
          "name": "",
          "type": "address"
        }
      ],
      "stateMutability": "view",
      "type": "function"
    },
    {
      "inputs": [
        {
          "internalType": "address",
          "name": "_bridgeToken",
          "type": "address"
        },
        {
          "internalType": "uint256",
          "name": "_swapCap",
          "type": "uint256"
        }
      ],
      "name": "setBridgeTokenSwapCap",
      "outputs": [],
      "stateMutability": "nonpayable",
      "type": "function"
    },
    {
      "inputs": [
        {
          "internalType": "address",
          "name": "_bridgeToken",
          "type": "address"
        },
        {
          "internalType": "uint256",
          "name": "_amount",
          "type": "uint256"
        }
      ],
      "name": "swapBridgeForCanonical",
      "outputs": [
        {
          "internalType": "uint256",
          "name": "",
          "type": "uint256"
        }
      ],
      "stateMutability": "nonpayable",
      "type": "function"
    },
    {
      "inputs": [
        {
          "internalType": "address",
          "name": "_bridgeToken",
          "type": "address"
        },
        {
          "internalType": "uint256",
          "name": "_amount",
          "type": "uint256"
        }
      ],
      "name": "swapCanonicalForBridge",
      "outputs": [
        {
          "internalType": "uint256",
          "name": "",
          "type": "uint256"
        }
      ],
      "stateMutability": "nonpayable",
      "type": "function"
    },
    {
      "inputs": [
        {
          "internalType": "address",
          "name": "",
          "type": "address"
        }
      ],
      "name": "swapSupplies",
      "outputs": [
        {
          "internalType": "uint256",
          "name": "cap",
          "type": "uint256"
        },
        {
          "internalType": "uint256",
          "name": "total",
          "type": "uint256"
        }
      ],
      "stateMutability": "view",
      "type": "function"
    },
    {
      "inputs": [],
      "name": "symbol",
      "outputs": [
        {
          "internalType": "string",
          "name": "",
          "type": "string"
        }
      ],
      "stateMutability": "view",
      "type": "function"
    },
    {
      "inputs": [],
      "name": "totalSupply",
      "outputs": [
        {
          "internalType": "uint256",
          "name": "",
          "type": "uint256"
        }
      ],
      "stateMutability": "view",
      "type": "function"
    },
    {
      "inputs": [
        {
          "internalType": "address",
          "name": "recipient",
          "type": "address"
        },
        {
          "internalType": "uint256",
          "name": "amount",
          "type": "uint256"
        }
      ],
      "name": "transfer",
      "outputs": [
        {
          "internalType": "bool",
          "name": "",
          "type": "bool"
        }
      ],
      "stateMutability": "nonpayable",
      "type": "function"
    },
    {
      "inputs": [
        {
          "internalType": "address",
          "name": "sender",
          "type": "address"
        },
        {
          "internalType": "address",
          "name": "recipient",
          "type": "address"
        },
        {
          "internalType": "uint256",
          "name": "amount",
          "type": "uint256"
        }
      ],
      "name": "transferFrom",
      "outputs": [
        {
          "internalType": "bool",
          "name": "",
          "type": "bool"
        }
      ],
      "stateMutability": "nonpayable",
      "type": "function"
    },
    {
      "inputs": [
        {
          "internalType": "address",
          "name": "newOwner",
          "type": "address"
        }
      ],
      "name": "transferOwnership",
      "outputs": [],
      "stateMutability": "nonpayable",
      "type": "function"
    },
    {
      "inputs": [
        {
          "internalType": "address",
          "name": "_bridge",
          "type": "address"
        },
        {
          "internalType": "uint256",
          "name": "_cap",
          "type": "uint256"
        }
      ],
      "name": "updateBridgeSupplyCap",
      "outputs": [],
      "stateMutability": "nonpayable",
      "type": "function"
    }
  ],
  "transactionHash": "0xb8770a111a547b213cf3984ba2c251f2d93688e25c98c42b13fc0f294f2c3118",
  "args": [
    "Test Upgradable Token",
    "TUT",
    "18"
  ],
  "solcInputHash": "4a64c0183f7c023f18c16c773acefff1",
  "bytecode": "0x60a06040523480156200001157600080fd5b5060405162001c5e38038062001c5e833981016040819052620000349162000258565b8282828282828282816003908051906020019062000054929190620000e5565b5080516200006a906004906020840190620000e5565b5050506200007e336200009360201b60201c565b60ff16608052506200031a9650505050505050565b600580546001600160a01b038381166001600160a01b0319831681179093556040519116919082907f8be0079c531659141344cd1fd0a4f28419497f9722a3daafe3b4186f6b6457e090600090a35050565b828054620000f390620002dd565b90600052602060002090601f01602090048101928262000117576000855562000162565b82601f106200013257805160ff191683800117855562000162565b8280016001018555821562000162579182015b828111156200016257825182559160200191906001019062000145565b506200017092915062000174565b5090565b5b8082111562000170576000815560010162000175565b634e487b7160e01b600052604160045260246000fd5b600082601f830112620001b357600080fd5b81516001600160401b0380821115620001d057620001d06200018b565b604051601f8301601f19908116603f01168101908282118183101715620001fb57620001fb6200018b565b816040528381526020925086838588010111156200021857600080fd5b600091505b838210156200023c57858201830151818301840152908201906200021d565b838211156200024e5760008385830101525b9695505050505050565b6000806000606084860312156200026e57600080fd5b83516001600160401b03808211156200028657600080fd5b6200029487838801620001a1565b94506020860151915080821115620002ab57600080fd5b50620002ba86828701620001a1565b925050604084015160ff81168114620002d257600080fd5b809150509250925092565b600181811c90821680620002f257607f821691505b602082108114156200031457634e487b7160e01b600052602260045260246000fd5b50919050565b60805161192862000336600039600061021601526119286000f3fe608060405234801561001057600080fd5b506004361061018d5760003560e01c806370a08231116100e3578063a9059cbb1161008c578063dd62ed3e11610066578063dd62ed3e1461039f578063f2fde38b146103d8578063f716932e146103eb57600080fd5b8063a9059cbb14610352578063cd04611914610365578063ced67f0c1461037857600080fd5b806395d89b41116100bd57806395d89b41146103245780639dc29fac1461032c578063a457c2d71461033f57600080fd5b806370a08231146102ca578063893d20e8146102f35780638da5cb5b1461031357600080fd5b8063313ce5671161014557806340c10f191161011f57806340c10f191461028f5780634ce2f71a146102a25780637029144c146102b757600080fd5b8063313ce5671461020f57806334faea1b14610240578063395093511461027c57600080fd5b806313f1a4a41161017657806313f1a4a4146101d357806318160ddd146101f457806323b872dd146101fc57600080fd5b806306fdde0314610192578063095ea7b3146101b0575b600080fd5b61019a6103fe565b6040516101a7919061162a565b60405180910390f35b6101c36101be366004611679565b610490565b60405190151581526020016101a7565b6101e66101e1366004611679565b6104a6565b6040519081526020016101a7565b6002546101e6565b6101c361020a3660046116a3565b610551565b60405160ff7f00000000000000000000000000000000000000000000000000000000000000001681526020016101a7565b61026761024e3660046116df565b6007602052600090815260409020805460019091015482565b604080519283526020830191909152016101a7565b6101c361028a366004611679565b610612565b6101c361029d366004611679565b61064e565b6102b56102b0366004611679565b61071e565b005b6102b56102c536600461179d565b6107e0565b6101e66102d83660046116df565b6001600160a01b031660009081526020819052604090205490565b6102fb610814565b6040516001600160a01b0390911681526020016101a7565b6005546001600160a01b03166102fb565b61019a61082d565b6101c361033a366004611679565b61083c565b6101c361034d366004611679565b6108ae565b6101c3610360366004611679565b610955565b6102b5610373366004611679565b610962565b6102676103863660046116df565b6006602052600090815260409020805460019091015482565b6101e66103ad366004611801565b6001600160a01b03918216600090815260016020908152604080832093909416825291909152205490565b6102b56103e63660046116df565b610a1c565b6101e66103f9366004611679565b610b0d565b60606008805461040d90611834565b80601f016020809104026020016040519081016040528092919081815260200182805461043990611834565b80156104865780601f1061045b57610100808354040283529160200191610486565b820191906000526020600020905b81548152906001019060200180831161046957829003601f168201915b5050505050905090565b600061049d338484610c0b565b50600192915050565b6001600160a01b038216600090815260076020526040812080546105115760405162461bcd60e51b815260206004820152601460248201527f696e76616c69642062726964676520746f6b656e00000000000000000000000060448201526064015b60405180910390fd5b828160010160008282546105259190611885565b9091555061053590503384610d2f565b6105496001600160a01b0385163385610e7d565b509092915050565b600061055e848484610f0d565b6001600160a01b0384166000908152600160209081526040808320338452909152902054828110156105f85760405162461bcd60e51b815260206004820152602860248201527f45524332303a207472616e7366657220616d6f756e742065786365656473206160448201527f6c6c6f77616e63650000000000000000000000000000000000000000000000006064820152608401610508565b6106058533858403610c0b565b60019150505b9392505050565b3360008181526001602090815260408083206001600160a01b0387168452909152812054909161049d91859061064990869061189c565b610c0b565b336000908152600660205260408120805461069c5760405162461bcd60e51b815260206004820152600e60248201526d34b73b30b634b21031b0b63632b960911b6044820152606401610508565b828160010160008282546106b0919061189c565b909155505080546001820154111561070a5760405162461bcd60e51b815260206004820152601960248201527f657863656564732062726964676520737570706c7920636170000000000000006044820152606401610508565b610714848461110c565b5060019392505050565b336107316005546001600160a01b031690565b6001600160a01b0316146107875760405162461bcd60e51b815260206004820181905260248201527f4f776e61626c653a2063616c6c6572206973206e6f7420746865206f776e65726044820152606401610508565b6001600160a01b038216600081815260066020908152604091829020849055815192835282018390527f59e1e4348943de408b89af8ab71e502ea722dd41efd1ff4a3548c60e83e91c6091015b60405180910390a15050565b6107e86111eb565b81516107fb906008906020850190611565565b50805161080f906009906020840190611565565b505050565b60006108286005546001600160a01b031690565b905090565b60606009805461040d90611834565b336000908152600660205260408120805461088a5760405162461bcd60e51b815260206004820152600e60248201526d34b73b30b634b21031b0b63632b960911b6044820152606401610508565b8281600101600082825461089e9190611885565b9091555061071490508484610d2f565b3360009081526001602090815260408083206001600160a01b0386168452909152812054828110156109485760405162461bcd60e51b815260206004820152602560248201527f45524332303a2064656372656173656420616c6c6f77616e63652062656c6f7760448201527f207a65726f0000000000000000000000000000000000000000000000000000006064820152608401610508565b6107143385858403610c0b565b600061049d338484610f0d565b336109756005546001600160a01b031690565b6001600160a01b0316146109cb5760405162461bcd60e51b815260206004820181905260248201527f4f776e61626c653a2063616c6c6572206973206e6f7420746865206f776e65726044820152606401610508565b6001600160a01b038216600081815260076020908152604091829020849055815192835282018390527f51c7b3899924578d835c066303e3f765c25fea17d7b18840cd109a90f5c5601f91016107d4565b33610a2f6005546001600160a01b031690565b6001600160a01b031614610a855760405162461bcd60e51b815260206004820181905260248201527f4f776e61626c653a2063616c6c6572206973206e6f7420746865206f776e65726044820152606401610508565b6001600160a01b038116610b015760405162461bcd60e51b815260206004820152602660248201527f4f776e61626c653a206e6577206f776e657220697320746865207a65726f206160448201527f64647265737300000000000000000000000000000000000000000000000000006064820152608401610508565b610b0a8161124f565b50565b6001600160a01b03821660009081526007602052604081208054610b735760405162461bcd60e51b815260206004820152601460248201527f696e76616c69642062726964676520746f6b656e0000000000000000000000006044820152606401610508565b80546001820154610b8590859061189c565b10610bd25760405162461bcd60e51b815260206004820152600f60248201527f65786365656420737761702063617000000000000000000000000000000000006044820152606401610508565b82816001016000828254610be6919061189c565b90915550610bf69050338461110c565b6105496001600160a01b0385163330866112b9565b6001600160a01b038316610c6d5760405162461bcd60e51b8152602060048201526024808201527f45524332303a20617070726f76652066726f6d20746865207a65726f206164646044820152637265737360e01b6064820152608401610508565b6001600160a01b038216610cce5760405162461bcd60e51b815260206004820152602260248201527f45524332303a20617070726f766520746f20746865207a65726f206164647265604482015261737360f01b6064820152608401610508565b6001600160a01b0383811660008181526001602090815260408083209487168084529482529182902085905590518481527f8c5be1e5ebec7d5bd14f71427d1e84f3dd0314c0f7b2291e5b200ac8c7c3b925910160405180910390a3505050565b6001600160a01b038216610d8f5760405162461bcd60e51b815260206004820152602160248201527f45524332303a206275726e2066726f6d20746865207a65726f206164647265736044820152607360f81b6064820152608401610508565b6001600160a01b03821660009081526020819052604090205481811015610e035760405162461bcd60e51b815260206004820152602260248201527f45524332303a206275726e20616d6f756e7420657863656564732062616c616e604482015261636560f01b6064820152608401610508565b6001600160a01b0383166000908152602081905260408120838303905560028054849290610e32908490611885565b90915550506040518281526000906001600160a01b038516907fddf252ad1be2c89b69c2b068fc378daa952ba7f163c4a11628f55a4df523b3ef9060200160405180910390a3505050565b6040516001600160a01b03831660248201526044810182905261080f90849063a9059cbb60e01b906064015b60408051601f198184030181529190526020810180517bffffffffffffffffffffffffffffffffffffffffffffffffffffffff167fffffffff00000000000000000000000000000000000000000000000000000000909316929092179091526112f1565b6001600160a01b038316610f895760405162461bcd60e51b815260206004820152602560248201527f45524332303a207472616e736665722066726f6d20746865207a65726f20616460448201527f64726573730000000000000000000000000000000000000000000000000000006064820152608401610508565b6001600160a01b038216610feb5760405162461bcd60e51b815260206004820152602360248201527f45524332303a207472616e7366657220746f20746865207a65726f206164647260448201526265737360e81b6064820152608401610508565b6001600160a01b0383166000908152602081905260409020548181101561107a5760405162461bcd60e51b815260206004820152602660248201527f45524332303a207472616e7366657220616d6f756e742065786365656473206260448201527f616c616e636500000000000000000000000000000000000000000000000000006064820152608401610508565b6001600160a01b038085166000908152602081905260408082208585039055918516815290812080548492906110b190849061189c565b92505081905550826001600160a01b0316846001600160a01b03167fddf252ad1be2c89b69c2b068fc378daa952ba7f163c4a11628f55a4df523b3ef846040516110fd91815260200190565b60405180910390a35b50505050565b6001600160a01b0382166111625760405162461bcd60e51b815260206004820152601f60248201527f45524332303a206d696e7420746f20746865207a65726f2061646472657373006044820152606401610508565b8060026000828254611174919061189c565b90915550506001600160a01b038216600090815260208190526040812080548392906111a190849061189c565b90915550506040518181526001600160a01b038316906000907fddf252ad1be2c89b69c2b068fc378daa952ba7f163c4a11628f55a4df523b3ef9060200160405180910390a35050565b6005546001600160a01b0316156112445760405162461bcd60e51b815260206004820152601160248201527f6f776e657220616c7265616479207365740000000000000000000000000000006044820152606401610508565b61124d3361124f565b565b600580546001600160a01b038381167fffffffffffffffffffffffff0000000000000000000000000000000000000000831681179093556040519116919082907f8be0079c531659141344cd1fd0a4f28419497f9722a3daafe3b4186f6b6457e090600090a35050565b6040516001600160a01b03808516602483015283166044820152606481018290526111069085906323b872dd60e01b90608401610ea9565b6000611346826040518060400160405280602081526020017f5361666545524332303a206c6f772d6c6576656c2063616c6c206661696c6564815250856001600160a01b03166113d69092919063ffffffff16565b80519091501561080f578080602001905181019061136491906118b4565b61080f5760405162461bcd60e51b815260206004820152602a60248201527f5361666545524332303a204552433230206f7065726174696f6e20646964206e60448201527f6f742073756363656564000000000000000000000000000000000000000000006064820152608401610508565b60606113e584846000856113ed565b949350505050565b6060824710156114655760405162461bcd60e51b815260206004820152602660248201527f416464726573733a20696e73756666696369656e742062616c616e636520666f60448201527f722063616c6c00000000000000000000000000000000000000000000000000006064820152608401610508565b843b6114b35760405162461bcd60e51b815260206004820152601d60248201527f416464726573733a2063616c6c20746f206e6f6e2d636f6e74726163740000006044820152606401610508565b600080866001600160a01b031685876040516114cf91906118d6565b60006040518083038185875af1925050503d806000811461150c576040519150601f19603f3d011682016040523d82523d6000602084013e611511565b606091505b509150915061152182828661152c565b979650505050505050565b6060831561153b57508161060b565b82511561154b5782518084602001fd5b8160405162461bcd60e51b8152600401610508919061162a565b82805461157190611834565b90600052602060002090601f01602090048101928261159357600085556115d9565b82601f106115ac57805160ff19168380011785556115d9565b828001600101855582156115d9579182015b828111156115d95782518255916020019190600101906115be565b506115e59291506115e9565b5090565b5b808211156115e557600081556001016115ea565b60005b83811015611619578181015183820152602001611601565b838111156111065750506000910152565b60208152600082518060208401526116498160408501602087016115fe565b601f01601f19169190910160400192915050565b80356001600160a01b038116811461167457600080fd5b919050565b6000806040838503121561168c57600080fd5b6116958361165d565b946020939093013593505050565b6000806000606084860312156116b857600080fd5b6116c18461165d565b92506116cf6020850161165d565b9150604084013590509250925092565b6000602082840312156116f157600080fd5b61060b8261165d565b634e487b7160e01b600052604160045260246000fd5b600082601f83011261172157600080fd5b813567ffffffffffffffff8082111561173c5761173c6116fa565b604051601f8301601f19908116603f01168101908282118183101715611764576117646116fa565b8160405283815286602085880101111561177d57600080fd5b836020870160208301376000602085830101528094505050505092915050565b600080604083850312156117b057600080fd5b823567ffffffffffffffff808211156117c857600080fd5b6117d486838701611710565b935060208501359150808211156117ea57600080fd5b506117f785828601611710565b9150509250929050565b6000806040838503121561181457600080fd5b61181d8361165d565b915061182b6020840161165d565b90509250929050565b600181811c9082168061184857607f821691505b6020821081141561186957634e487b7160e01b600052602260045260246000fd5b50919050565b634e487b7160e01b600052601160045260246000fd5b6000828210156118975761189761186f565b500390565b600082198211156118af576118af61186f565b500190565b6000602082840312156118c657600080fd5b8151801515811461060b57600080fd5b600082516118e88184602087016115fe565b919091019291505056fea26469706673582212200dc1cbc8b6b6e83ad0b97ba0e9b2664c58f697b5ae046270e6a15549489b737864736f6c63430008090033",
  "devdoc": {
    "kind": "dev",
    "methods": {
      "allowance(address,address)": {
        "details": "See {IERC20-allowance}."
      },
      "approve(address,uint256)": {
        "details": "See {IERC20-approve}. Requirements: - `spender` cannot be the zero address."
      },
      "balanceOf(address)": {
        "details": "See {IERC20-balanceOf}."
      },
      "decimals()": {
        "details": "Returns the number of decimals used to get its user representation. For example, if `decimals` equals `2`, a balance of `505` tokens should be displayed to a user as `5,05` (`505 / 10 ** 2`). Tokens usually opt for a value of 18, imitating the relationship between Ether and Wei. This is the value {ERC20} uses, unless this function is overridden; NOTE: This information is only used for _display_ purposes: it in no way affects any of the arithmetic of the contract, including {IERC20-balanceOf} and {IERC20-transfer}."
      },
      "decreaseAllowance(address,uint256)": {
        "details": "Atomically decreases the allowance granted to `spender` by the caller. This is an alternative to {approve} that can be used as a mitigation for problems described in {IERC20-approve}. Emits an {Approval} event indicating the updated allowance. Requirements: - `spender` cannot be the zero address. - `spender` must have allowance for the caller of at least `subtractedValue`."
      },
      "increaseAllowance(address,uint256)": {
        "details": "Atomically increases the allowance granted to `spender` by the caller. This is an alternative to {approve} that can be used as a mitigation for problems described in {IERC20-approve}. Emits an {Approval} event indicating the updated allowance. Requirements: - `spender` cannot be the zero address."
      },
      "name()": {
        "details": "Returns the name of the token."
      },
      "owner()": {
        "details": "Returns the address of the current owner."
      },
      "setBridgeTokenSwapCap(address,uint256)": {
        "details": "Update existing bridge token swap cap or add a new bridge token with swap cap. Setting cap to 0 will disable the bridge token.",
        "params": {
          "_bridgeToken": "The intermediary token address for a particular bridge.",
          "_swapCap": "The new swap cap."
        }
      },
      "swapBridgeForCanonical(address,uint256)": {
        "params": {
          "_amount": "The amount.",
          "_bridgeToken": "The intermediary token address for a particular bridge."
        }
      },
      "swapCanonicalForBridge(address,uint256)": {
        "params": {
          "_amount": "The amount.",
          "_bridgeToken": "The intermediary token address for a particular bridge."
        }
      },
      "symbol()": {
        "details": "Returns the symbol of the token, usually a shorter version of the name."
      },
      "totalSupply()": {
        "details": "See {IERC20-totalSupply}."
      },
      "transfer(address,uint256)": {
        "details": "See {IERC20-transfer}. Requirements: - `recipient` cannot be the zero address. - the caller must have a balance of at least `amount`."
      },
      "transferFrom(address,address,uint256)": {
        "details": "See {IERC20-transferFrom}. Emits an {Approval} event indicating the updated allowance. This is not required by the EIP. See the note at the beginning of {ERC20}. Requirements: - `sender` and `recipient` cannot be the zero address. - `sender` must have a balance of at least `amount`. - the caller must have allowance for ``sender``'s tokens of at least `amount`."
      },
      "transferOwnership(address)": {
        "details": "Transfers ownership of the contract to a new account (`newOwner`). Can only be called by the current owner."
      }
    },
    "title": "Upgradable canonical token that supports multi-bridge minter and multi-token swap",
    "version": 1
  },
  "userdoc": {
    "kind": "user",
    "methods": {
      "swapBridgeForCanonical(address,uint256)": {
        "notice": "msg.sender has bridge token and wants to get canonical token."
      },
      "swapCanonicalForBridge(address,uint256)": {
        "notice": "msg.sender has canonical token and wants to get bridge token (eg. for cross chain burn)."
      }
    },
    "version": 1
  },
  "storageLayout": {
    "storage": [
      {
        "astId": 251,
        "contract": "contracts/pegged/tokens/MintSwapCanonicalTokenUpgradable.sol:MintSwapCanonicalTokenUpgradable",
        "label": "_balances",
        "offset": 0,
        "slot": "0",
        "type": "t_mapping(t_address,t_uint256)"
      },
      {
        "astId": 257,
        "contract": "contracts/pegged/tokens/MintSwapCanonicalTokenUpgradable.sol:MintSwapCanonicalTokenUpgradable",
        "label": "_allowances",
        "offset": 0,
        "slot": "1",
        "type": "t_mapping(t_address,t_mapping(t_address,t_uint256))"
      },
      {
        "astId": 259,
        "contract": "contracts/pegged/tokens/MintSwapCanonicalTokenUpgradable.sol:MintSwapCanonicalTokenUpgradable",
        "label": "_totalSupply",
        "offset": 0,
        "slot": "2",
        "type": "t_uint256"
      },
      {
        "astId": 261,
        "contract": "contracts/pegged/tokens/MintSwapCanonicalTokenUpgradable.sol:MintSwapCanonicalTokenUpgradable",
        "label": "_name",
        "offset": 0,
        "slot": "3",
        "type": "t_string_storage"
      },
      {
        "astId": 263,
        "contract": "contracts/pegged/tokens/MintSwapCanonicalTokenUpgradable.sol:MintSwapCanonicalTokenUpgradable",
        "label": "_symbol",
        "offset": 0,
        "slot": "4",
        "type": "t_string_storage"
      },
      {
        "astId": 17254,
        "contract": "contracts/pegged/tokens/MintSwapCanonicalTokenUpgradable.sol:MintSwapCanonicalTokenUpgradable",
        "label": "_owner",
        "offset": 0,
        "slot": "5",
        "type": "t_address"
      },
      {
        "astId": 15938,
        "contract": "contracts/pegged/tokens/MintSwapCanonicalTokenUpgradable.sol:MintSwapCanonicalTokenUpgradable",
        "label": "bridges",
        "offset": 0,
        "slot": "6",
        "type": "t_mapping(t_address,t_struct(Supply)15933_storage)"
      },
      {
        "astId": 15698,
        "contract": "contracts/pegged/tokens/MintSwapCanonicalTokenUpgradable.sol:MintSwapCanonicalTokenUpgradable",
        "label": "swapSupplies",
        "offset": 0,
        "slot": "7",
        "type": "t_mapping(t_address,t_struct(Supply)15933_storage)"
      },
      {
        "astId": 15864,
        "contract": "contracts/pegged/tokens/MintSwapCanonicalTokenUpgradable.sol:MintSwapCanonicalTokenUpgradable",
        "label": "_name",
        "offset": 0,
        "slot": "8",
        "type": "t_string_storage"
      },
      {
        "astId": 15866,
        "contract": "contracts/pegged/tokens/MintSwapCanonicalTokenUpgradable.sol:MintSwapCanonicalTokenUpgradable",
        "label": "_symbol",
        "offset": 0,
        "slot": "9",
        "type": "t_string_storage"
      }
    ],
    "types": {
      "t_address": {
        "encoding": "inplace",
        "label": "address",
        "numberOfBytes": "20"
      },
      "t_mapping(t_address,t_mapping(t_address,t_uint256))": {
        "encoding": "mapping",
        "key": "t_address",
        "label": "mapping(address => mapping(address => uint256))",
        "numberOfBytes": "32",
        "value": "t_mapping(t_address,t_uint256)"
      },
      "t_mapping(t_address,t_struct(Supply)15933_storage)": {
        "encoding": "mapping",
        "key": "t_address",
        "label": "mapping(address => struct MultiBridgeToken.Supply)",
        "numberOfBytes": "32",
        "value": "t_struct(Supply)15933_storage"
      },
      "t_mapping(t_address,t_uint256)": {
        "encoding": "mapping",
        "key": "t_address",
        "label": "mapping(address => uint256)",
        "numberOfBytes": "32",
        "value": "t_uint256"
      },
      "t_string_storage": {
        "encoding": "bytes",
        "label": "string",
        "numberOfBytes": "32"
      },
      "t_struct(Supply)15933_storage": {
        "encoding": "inplace",
        "label": "struct MultiBridgeToken.Supply",
        "members": [
          {
            "astId": 15930,
            "contract": "contracts/pegged/tokens/MintSwapCanonicalTokenUpgradable.sol:MintSwapCanonicalTokenUpgradable",
            "label": "cap",
            "offset": 0,
            "slot": "0",
            "type": "t_uint256"
          },
          {
            "astId": 15932,
            "contract": "contracts/pegged/tokens/MintSwapCanonicalTokenUpgradable.sol:MintSwapCanonicalTokenUpgradable",
            "label": "total",
            "offset": 0,
            "slot": "1",
            "type": "t_uint256"
          }
        ],
        "numberOfBytes": "64"
      },
      "t_uint256": {
        "encoding": "inplace",
        "label": "uint256",
        "numberOfBytes": "32"
      }
    }
  }
}