{
  "address": "0x4F55446C580E776d57b7bBDE3d2c300587e62A96",
  "abi": [
    {
      "inputs": [],
      "stateMutability": "nonpayable",
      "type": "constructor"
    },
    {
      "inputs": [],
      "name": "AdminBadRole",
      "type": "error"
    },
    {
      "inputs": [],
      "name": "CallerBadRole",
      "type": "error"
    },
    {
      "anonymous": false,
      "inputs": [
        {
          "indexed": true,
          "internalType": "bytes32",
          "name": "role",
          "type": "bytes32"
        },
        {
          "indexed": true,
          "internalType": "bytes32",
          "name": "previousAdminRole",
          "type": "bytes32"
        },
        {
          "indexed": true,
          "internalType": "bytes32",
          "name": "newAdminRole",
          "type": "bytes32"
        }
      ],
      "name": "RoleAdminChanged",
      "type": "event"
    },
    {
      "anonymous": false,
      "inputs": [
        {
          "indexed": true,
          "internalType": "bytes32",
          "name": "role",
          "type": "bytes32"
        },
        {
          "indexed": true,
          "internalType": "address",
          "name": "account",
          "type": "address"
        },
        {
          "indexed": true,
          "internalType": "address",
          "name": "sender",
          "type": "address"
        }
      ],
      "name": "RoleGranted",
      "type": "event"
    },
    {
      "anonymous": false,
      "inputs": [
        {
          "indexed": true,
          "internalType": "bytes32",
          "name": "role",
          "type": "bytes32"
        },
        {
          "indexed": true,
          "internalType": "address",
          "name": "account",
          "type": "address"
        },
        {
          "indexed": true,
          "internalType": "address",
          "name": "sender",
          "type": "address"
        }
      ],
      "name": "RoleRevoked",
      "type": "event"
    },
    {
      "inputs": [],
      "name": "CALLER_ROLE",
      "outputs": [
        {
          "internalType": "bytes32",
          "name": "",
          "type": "bytes32"
        }
      ],
      "stateMutability": "view",
      "type": "function"
    },
    {
      "inputs": [],
      "name": "DEFAULT_ADMIN_ROLE",
      "outputs": [
        {
          "internalType": "bytes32",
          "name": "",
          "type": "bytes32"
        }
      ],
      "stateMutability": "view",
      "type": "function"
    },
    {
      "inputs": [
        {
          "internalType": "address[]",
          "name": "_senderAdapters",
          "type": "address[]"
        }
      ],
      "name": "addSenderAdapters",
      "outputs": [],
      "stateMutability": "nonpayable",
      "type": "function"
    },
    {
      "inputs": [],
      "name": "bridgeSender",
      "outputs": [
        {
          "internalType": "contract MultiBridgeSender",
          "name": "",
          "type": "address"
        }
      ],
      "stateMutability": "view",
      "type": "function"
    },
    {
      "inputs": [],
      "name": "drainNativeToken",
      "outputs": [],
      "stateMutability": "nonpayable",
      "type": "function"
    },
    {
      "inputs": [
        {
          "internalType": "bytes32",
          "name": "role",
          "type": "bytes32"
        }
      ],
      "name": "getRoleAdmin",
      "outputs": [
        {
          "internalType": "bytes32",
          "name": "",
          "type": "bytes32"
        }
      ],
      "stateMutability": "view",
      "type": "function"
    },
    {
      "inputs": [
        {
          "internalType": "bytes32",
          "name": "role",
          "type": "bytes32"
        },
        {
          "internalType": "address",
          "name": "account",
          "type": "address"
        }
      ],
      "name": "grantRole",
      "outputs": [],
      "stateMutability": "nonpayable",
      "type": "function"
    },
    {
      "inputs": [
        {
          "internalType": "bytes32",
          "name": "role",
          "type": "bytes32"
        },
        {
          "internalType": "address",
          "name": "account",
          "type": "address"
        }
      ],
      "name": "hasRole",
      "outputs": [
        {
          "internalType": "bool",
          "name": "",
          "type": "bool"
        }
      ],
      "stateMutability": "view",
      "type": "function"
    },
    {
      "inputs": [
        {
          "internalType": "uint64",
          "name": "_dstChainId",
          "type": "uint64"
        },
        {
          "internalType": "address",
          "name": "_multiBridgeReceiver",
          "type": "address"
        },
        {
          "internalType": "address",
          "name": "_target",
          "type": "address"
        },
        {
          "internalType": "bytes",
          "name": "_callData",
          "type": "bytes"
        }
      ],
      "name": "remoteCall",
      "outputs": [],
      "stateMutability": "payable",
      "type": "function"
    },
    {
      "inputs": [
        {
          "internalType": "address[]",
          "name": "_senderAdapters",
          "type": "address[]"
        }
      ],
      "name": "removeSenderAdapters",
      "outputs": [],
      "stateMutability": "nonpayable",
      "type": "function"
    },
    {
      "inputs": [
        {
          "internalType": "bytes32",
          "name": "role",
          "type": "bytes32"
        },
        {
          "internalType": "address",
          "name": "account",
          "type": "address"
        }
      ],
      "name": "renounceRole",
      "outputs": [],
      "stateMutability": "nonpayable",
      "type": "function"
    },
    {
      "inputs": [
        {
          "internalType": "bytes32",
          "name": "role",
          "type": "bytes32"
        },
        {
          "internalType": "address",
          "name": "account",
          "type": "address"
        }
      ],
      "name": "revokeRole",
      "outputs": [],
      "stateMutability": "nonpayable",
      "type": "function"
    },
    {
      "inputs": [
        {
          "internalType": "contract MultiBridgeSender",
          "name": "_bridgeSender",
          "type": "address"
        }
      ],
      "name": "setMultiBridgeSender",
      "outputs": [],
      "stateMutability": "nonpayable",
      "type": "function"
    },
    {
      "inputs": [
        {
          "internalType": "bytes4",
          "name": "interfaceId",
          "type": "bytes4"
        }
      ],
      "name": "supportsInterface",
      "outputs": [
        {
          "internalType": "bool",
          "name": "",
          "type": "bool"
        }
      ],
      "stateMutability": "view",
      "type": "function"
    },
    {
      "stateMutability": "payable",
      "type": "receive"
    }
  ],
  "transactionHash": "0x0e9dfb78f3fb10fe126b1f85dca35f1760a2edf0cf17783e5c579eb605531111",
  "args": [],
  "numDeployments": 1,
  "solcInputHash": "f0ff772b27e18f703fe2c68e46ad4021",
  "bytecode": "0x608060405234801561001057600080fd5b5061001c600033610021565b6100cd565b61002b828261002f565b5050565b6000828152602081815260408083206001600160a01b038516845290915290205460ff1661002b576000828152602081815260408083206001600160a01b03851684529091529020805460ff191660011790556100893390565b6001600160a01b0316816001600160a01b0316837f2f8788117e7eff1d82e926ec794901d17c78024a50270940304540a733656f0d60405160405180910390a45050565b610f1b806100dc6000396000f3fe6080604052600436106100e15760003560e01c8063a217fddf1161007f578063cd38868511610059578063cd3886851461029c578063d547741f146102bc578063e016caa5146102dc578063fa76cce5146102ef57600080fd5b8063a217fddf14610252578063b222117814610267578063cbf61e2b1461028757600080fd5b806336568abe116100bb57806336568abe14610182578063774237fc146101a25780638bd43d98146101d657806391d148541461020e57600080fd5b806301ffc9a7146100ed578063248a9ca3146101225780632f2ff15d1461016057600080fd5b366100e857005b600080fd5b3480156100f957600080fd5b5061010d610108366004610af8565b61030f565b60405190151581526020015b60405180910390f35b34801561012e57600080fd5b5061015261013d366004610b22565b60009081526020819052604090206001015490565b604051908152602001610119565b34801561016c57600080fd5b5061018061017b366004610b50565b610346565b005b34801561018e57600080fd5b5061018061019d366004610b50565b610371565b3480156101ae57600080fd5b506101527f69fb73f918fab3af495c0a457de635771a39f3d6cfedc797ae0b5bb56c83c6f781565b3480156101e257600080fd5b506001546101f6906001600160a01b031681565b6040516001600160a01b039091168152602001610119565b34801561021a57600080fd5b5061010d610229366004610b50565b6000918252602082815260408084206001600160a01b0393909316845291905290205460ff1690565b34801561025e57600080fd5b50610152600081565b34801561027357600080fd5b50610180610282366004610b80565b610402565b34801561029357600080fd5b506101806104b9565b3480156102a857600080fd5b506101806102b7366004610b80565b61053f565b3480156102c857600080fd5b506101806102d7366004610b50565b6105c0565b6101806102ea366004610bf5565b6105e6565b3480156102fb57600080fd5b5061018061030a366004610ca8565b610724565b60006001600160e01b03198216637965db0b60e01b148061034057506301ffc9a760e01b6001600160e01b03198316145b92915050565b60008281526020819052604090206001015461036281336107ad565b61036c838361082b565b505050565b6001600160a01b03811633146103f45760405162461bcd60e51b815260206004820152602f60248201527f416363657373436f6e74726f6c3a2063616e206f6e6c792072656e6f756e636560448201527f20726f6c657320666f722073656c66000000000000000000000000000000000060648201526084015b60405180910390fd5b6103fe82826108c9565b5050565b3360009081527fad3228b676f7d3cd4284a5443f17f1962b36e491b30a40b2405849e597ba5fb5602052604090205460ff1661045157604051636f4720fd60e11b815260040160405180910390fd5b600154604051631644422f60e31b81526001600160a01b039091169063b2221178906104839085908590600401610cc5565b600060405180830381600087803b15801561049d57600080fd5b505af11580156104b1573d6000803e3d6000fd5b505050505050565b3360009081527fad3228b676f7d3cd4284a5443f17f1962b36e491b30a40b2405849e597ba5fb5602052604090205460ff1661050857604051636f4720fd60e11b815260040160405180910390fd5b47801561053c57604051339082156108fc029083906000818181858888f193505050501580156103fe573d6000803e3d6000fd5b50565b3360009081527fad3228b676f7d3cd4284a5443f17f1962b36e491b30a40b2405849e597ba5fb5602052604090205460ff1661058e57604051636f4720fd60e11b815260040160405180910390fd5b60015460405163cd38868560e01b81526001600160a01b039091169063cd388685906104839085908590600401610cc5565b6000828152602081905260409020600101546105dc81336107ad565b61036c83836108c9565b3360009081527fce550891d8fbd07b3740664744f0575ce8e499e096270da08af978e7985fbe38602052604090205460ff16610635576040516378d62e2f60e01b815260040160405180910390fd5b60015460405163e113782f60e01b81526000916001600160a01b03169063e113782f9061066e9089908990899089908990600401610d13565b602060405180830381865afa15801561068b573d6000803e3d6000fd5b505050506040513d601f19601f820116820180604052508101906106af9190610d71565b60015460405163e016caa560e01b81529192506001600160a01b03169063e016caa59083906106ea908a908a908a908a908a90600401610d13565b6000604051808303818588803b15801561070357600080fd5b505af1158015610717573d6000803e3d6000fd5b5050505050505050505050565b3360009081527fad3228b676f7d3cd4284a5443f17f1962b36e491b30a40b2405849e597ba5fb5602052604090205460ff1661077357604051636f4720fd60e11b815260040160405180910390fd5b600180547fffffffffffffffffffffffff0000000000000000000000000000000000000000166001600160a01b0392909216919091179055565b6000828152602081815260408083206001600160a01b038516845290915290205460ff166103fe576107e9816001600160a01b03166014610948565b6107f4836020610948565b604051602001610805929190610dae565b60408051601f198184030181529082905262461bcd60e51b82526103eb91600401610e2f565b6000828152602081815260408083206001600160a01b038516845290915290205460ff166103fe576000828152602081815260408083206001600160a01b03851684529091529020805460ff191660011790556108853390565b6001600160a01b0316816001600160a01b0316837f2f8788117e7eff1d82e926ec794901d17c78024a50270940304540a733656f0d60405160405180910390a45050565b6000828152602081815260408083206001600160a01b038516845290915290205460ff16156103fe576000828152602081815260408083206001600160a01b0385168085529252808320805460ff1916905551339285917ff6391f5c32d9c69d2a47ea670b442974b53935d1edc7fd64eb21e047a839171b9190a45050565b60606000610957836002610e78565b610962906002610e8f565b67ffffffffffffffff81111561097a5761097a610ea2565b6040519080825280601f01601f1916602001820160405280156109a4576020820181803683370190505b509050600360fc1b816000815181106109bf576109bf610eb8565b60200101906001600160f81b031916908160001a905350600f60fb1b816001815181106109ee576109ee610eb8565b60200101906001600160f81b031916908160001a9053506000610a12846002610e78565b610a1d906001610e8f565b90505b6001811115610aa2577f303132333435363738396162636465660000000000000000000000000000000085600f1660108110610a5e57610a5e610eb8565b1a60f81b828281518110610a7457610a74610eb8565b60200101906001600160f81b031916908160001a90535060049490941c93610a9b81610ece565b9050610a20565b508315610af15760405162461bcd60e51b815260206004820181905260248201527f537472696e67733a20686578206c656e67746820696e73756666696369656e7460448201526064016103eb565b9392505050565b600060208284031215610b0a57600080fd5b81356001600160e01b031981168114610af157600080fd5b600060208284031215610b3457600080fd5b5035919050565b6001600160a01b038116811461053c57600080fd5b60008060408385031215610b6357600080fd5b823591506020830135610b7581610b3b565b809150509250929050565b60008060208385031215610b9357600080fd5b823567ffffffffffffffff80821115610bab57600080fd5b818501915085601f830112610bbf57600080fd5b813581811115610bce57600080fd5b8660208260051b8501011115610be357600080fd5b60209290920196919550909350505050565b600080600080600060808688031215610c0d57600080fd5b853567ffffffffffffffff8082168214610c2657600080fd5b909550602087013590610c3882610b3b565b909450604087013590610c4a82610b3b565b90935060608701359080821115610c6057600080fd5b818801915088601f830112610c7457600080fd5b813581811115610c8357600080fd5b896020828501011115610c9557600080fd5b9699959850939650602001949392505050565b600060208284031215610cba57600080fd5b8135610af181610b3b565b60208082528181018390526000908460408401835b86811015610d08578235610ced81610b3b565b6001600160a01b031682529183019190830190600101610cda565b509695505050505050565b67ffffffffffffffff8616815260006001600160a01b03808716602084015280861660408401525060806060830152826080830152828460a0840137600060a0848401015260a0601f19601f85011683010190509695505050505050565b600060208284031215610d8357600080fd5b5051919050565b60005b83811015610da5578181015183820152602001610d8d565b50506000910152565b7f416363657373436f6e74726f6c3a206163636f756e7420000000000000000000815260008351610de6816017850160208801610d8a565b7f206973206d697373696e6720726f6c65200000000000000000000000000000006017918401918201528351610e23816028840160208801610d8a565b01602801949350505050565b6020815260008251806020840152610e4e816040850160208701610d8a565b601f01601f19169190910160400192915050565b634e487b7160e01b600052601160045260246000fd5b808202811582820484141761034057610340610e62565b8082018082111561034057610340610e62565b634e487b7160e01b600052604160045260246000fd5b634e487b7160e01b600052603260045260246000fd5b600081610edd57610edd610e62565b50600019019056fea2646970667358221220b49e1e52b902ead7975802a218cf6f294ae70f86fc175e3c5f913bb42b3873dc64736f6c63430008110033",
  "devdoc": {
    "kind": "dev",
    "methods": {
      "getRoleAdmin(bytes32)": {
        "details": "Returns the admin role that controls `role`. See {grantRole} and {revokeRole}. To change a role's admin, use {_setRoleAdmin}."
      },
      "grantRole(bytes32,address)": {
        "details": "Grants `role` to `account`. If `account` had not been already granted `role`, emits a {RoleGranted} event. Requirements: - the caller must have ``role``'s admin role."
      },
      "hasRole(bytes32,address)": {
        "details": "Returns `true` if `account` has been granted `role`."
      },
      "renounceRole(bytes32,address)": {
        "details": "Revokes `role` from the calling account. Roles are often managed via {grantRole} and {revokeRole}: this function's purpose is to provide a mechanism for accounts to lose their privileges if they are compromised (such as when a trusted device is misplaced). If the calling account had been revoked `role`, emits a {RoleRevoked} event. Requirements: - the caller must be `account`."
      },
      "revokeRole(bytes32,address)": {
        "details": "Revokes `role` from `account`. If `account` had been granted `role`, emits a {RoleRevoked} event. Requirements: - the caller must have ``role``'s admin role."
      },
      "supportsInterface(bytes4)": {
        "details": "See {IERC165-supportsInterface}."
      }
    },
    "version": 1
  },
  "userdoc": {
    "kind": "user",
    "methods": {},
    "version": 1
  },
  "storageLayout": {
    "storage": [
      {
        "astId": 24,
        "contract": "contracts/message/apps/multibridge/mock/MockCaller.sol:MockCaller",
        "label": "_roles",
        "offset": 0,
        "slot": "0",
        "type": "t_mapping(t_bytes32,t_struct(RoleData)19_storage)"
      },
      {
        "astId": 23125,
        "contract": "contracts/message/apps/multibridge/mock/MockCaller.sol:MockCaller",
        "label": "bridgeSender",
        "offset": 0,
        "slot": "1",
        "type": "t_contract(MultiBridgeSender)19999"
      }
    ],
    "types": {
      "t_address": {
        "encoding": "inplace",
        "label": "address",
        "numberOfBytes": "20"
      },
      "t_bool": {
        "encoding": "inplace",
        "label": "bool",
        "numberOfBytes": "1"
      },
      "t_bytes32": {
        "encoding": "inplace",
        "label": "bytes32",
        "numberOfBytes": "32"
      },
      "t_contract(MultiBridgeSender)19999": {
        "encoding": "inplace",
        "label": "contract MultiBridgeSender",
        "numberOfBytes": "20"
      },
      "t_mapping(t_address,t_bool)": {
        "encoding": "mapping",
        "key": "t_address",
        "label": "mapping(address => bool)",
        "numberOfBytes": "32",
        "value": "t_bool"
      },
      "t_mapping(t_bytes32,t_struct(RoleData)19_storage)": {
        "encoding": "mapping",
        "key": "t_bytes32",
        "label": "mapping(bytes32 => struct AccessControl.RoleData)",
        "numberOfBytes": "32",
        "value": "t_struct(RoleData)19_storage"
      },
      "t_struct(RoleData)19_storage": {
        "encoding": "inplace",
        "label": "struct AccessControl.RoleData",
        "members": [
          {
            "astId": 16,
            "contract": "contracts/message/apps/multibridge/mock/MockCaller.sol:MockCaller",
            "label": "members",
            "offset": 0,
            "slot": "0",
            "type": "t_mapping(t_address,t_bool)"
          },
          {
            "astId": 18,
            "contract": "contracts/message/apps/multibridge/mock/MockCaller.sol:MockCaller",
            "label": "adminRole",
            "offset": 0,
            "slot": "1",
            "type": "t_bytes32"
          }
        ],
        "numberOfBytes": "64"
      }
    }
  }
}