{
  "address": "0xe134059918851f5Ffcbf29ED71ea942D0A4f2995",
  "abi": [
    {
      "inputs": [
        {
          "internalType": "address",
          "name": "_routerGateway",
          "type": "address"
        }
      ],
      "stateMutability": "nonpayable",
      "type": "constructor"
    },
    {
      "inputs": [
        {
          "internalType": "bytes32",
          "name": "messageId",
          "type": "bytes32"
        },
        {
          "internalType": "uint256",
          "name": "messageIndex",
          "type": "uint256"
        },
        {
          "internalType": "bytes",
          "name": "errorData",
          "type": "bytes"
        }
      ],
      "name": "MessageBatchFailure",
      "type": "error"
    },
    {
      "inputs": [
        {
          "internalType": "bytes32",
          "name": "messageId",
          "type": "bytes32"
        },
        {
          "internalType": "bytes",
          "name": "errorData",
          "type": "bytes"
        }
      ],
      "name": "MessageFailure",
      "type": "error"
    },
    {
      "inputs": [
        {
          "internalType": "bytes32",
          "name": "messageId",
          "type": "bytes32"
        }
      ],
      "name": "MessageIdAlreadyExecuted",
      "type": "error"
    },
    {
      "anonymous": false,
      "inputs": [
        {
          "indexed": true,
          "internalType": "uint256",
          "name": "fromChainId",
          "type": "uint256"
        },
        {
          "indexed": true,
          "internalType": "bytes32",
          "name": "messageId",
          "type": "bytes32"
        }
      ],
      "name": "MessageIdExecuted",
      "type": "event"
    },
    {
      "anonymous": false,
      "inputs": [
        {
          "indexed": true,
          "internalType": "address",
          "name": "previousOwner",
          "type": "address"
        },
        {
          "indexed": true,
          "internalType": "address",
          "name": "newOwner",
          "type": "address"
        }
      ],
      "name": "OwnershipTransferred",
      "type": "event"
    },
    {
      "anonymous": false,
      "inputs": [
        {
          "indexed": false,
          "internalType": "address",
          "name": "account",
          "type": "address"
        }
      ],
      "name": "Paused",
      "type": "event"
    },
    {
      "anonymous": false,
      "inputs": [
        {
          "indexed": false,
          "internalType": "address",
          "name": "account",
          "type": "address"
        }
      ],
      "name": "Unpaused",
      "type": "event"
    },
    {
      "inputs": [
        {
          "internalType": "bytes32",
          "name": "",
          "type": "bytes32"
        }
      ],
      "name": "executedMessages",
      "outputs": [
        {
          "internalType": "bool",
          "name": "",
          "type": "bool"
        }
      ],
      "stateMutability": "view",
      "type": "function"
    },
    {
      "inputs": [
        {
          "internalType": "bytes",
          "name": "srcContractAddress",
          "type": "bytes"
        },
        {
          "internalType": "bytes",
          "name": "payload",
          "type": "bytes"
        },
        {
          "internalType": "string",
          "name": "srcChainId",
          "type": "string"
        },
        {
          "internalType": "uint64",
          "name": "",
          "type": "uint64"
        }
      ],
      "name": "handleRequestFromSource",
      "outputs": [
        {
          "internalType": "bytes",
          "name": "",
          "type": "bytes"
        }
      ],
      "stateMutability": "nonpayable",
      "type": "function"
    },
    {
      "inputs": [],
      "name": "owner",
      "outputs": [
        {
          "internalType": "address",
          "name": "",
          "type": "address"
        }
      ],
      "stateMutability": "view",
      "type": "function"
    },
    {
      "inputs": [],
      "name": "pause",
      "outputs": [],
      "stateMutability": "nonpayable",
      "type": "function"
    },
    {
      "inputs": [],
      "name": "paused",
      "outputs": [
        {
          "internalType": "bool",
          "name": "",
          "type": "bool"
        }
      ],
      "stateMutability": "view",
      "type": "function"
    },
    {
      "inputs": [],
      "name": "renounceOwnership",
      "outputs": [],
      "stateMutability": "nonpayable",
      "type": "function"
    },
    {
      "inputs": [],
      "name": "routerGateway",
      "outputs": [
        {
          "internalType": "contract IRouterGateway",
          "name": "",
          "type": "address"
        }
      ],
      "stateMutability": "view",
      "type": "function"
    },
    {
      "inputs": [
        {
          "internalType": "uint256",
          "name": "",
          "type": "uint256"
        }
      ],
      "name": "senderAdapters",
      "outputs": [
        {
          "internalType": "address",
          "name": "",
          "type": "address"
        }
      ],
      "stateMutability": "view",
      "type": "function"
    },
    {
      "inputs": [
        {
          "internalType": "address",
          "name": "newOwner",
          "type": "address"
        }
      ],
      "name": "transferOwnership",
      "outputs": [],
      "stateMutability": "nonpayable",
      "type": "function"
    },
    {
      "inputs": [],
      "name": "unpause",
      "outputs": [],
      "stateMutability": "nonpayable",
      "type": "function"
    },
    {
      "inputs": [
        {
          "internalType": "uint256[]",
          "name": "_srcChainIds",
          "type": "uint256[]"
        },
        {
          "internalType": "address[]",
          "name": "_senderAdapters",
          "type": "address[]"
        }
      ],
      "name": "updateSenderAdapter",
      "outputs": [],
      "stateMutability": "nonpayable",
      "type": "function"
    }
  ],
  "transactionHash": "0x7b631dbeedba86c5a00c7c63339d0e41710ac54f6b7786518014ed761429deae",
  "args": [
    "0x12C9A8B2e3Db12ddC411a64D6a75f47E6642f026"
  ],
  "numDeployments": 1,
  "solcInputHash": "46132a29aa96b93c49969ec147396cf5",
  "bytecode": "0x60a060405234801561001057600080fd5b5060405161110938038061110983398101604081905261002f916100ac565b6000805460ff1916905561004233610053565b6001600160a01b03166080526100dc565b600080546001600160a01b03838116610100818102610100600160a81b0319851617855560405193049190911692909183917f8be0079c531659141344cd1fd0a4f28419497f9722a3daafe3b4186f6b6457e091a35050565b6000602082840312156100be57600080fd5b81516001600160a01b03811681146100d557600080fd5b9392505050565b60805161100b6100fe60003960008181610146015261047f015261100b6000f3fe608060405234801561001057600080fd5b50600436106100c95760003560e01c80638da5cb5b11610081578063cd2abd661161005b578063cd2abd6614610188578063d2776627146101ab578063f2fde38b146101d457600080fd5b80638da5cb5b1461011757806396732ea214610141578063c8e1eaca1461016857600080fd5b80635c975abb116100b25780635c975abb146100eb578063715018a6146101075780638456cb591461010f57600080fd5b80633f4ba83a146100ce57806343d61f31146100d8575b600080fd5b6100d66101e7565b005b6100d66100e6366004610a93565b610256565b60005460ff165b60405190151581526020015b60405180910390f35b6100d66103a0565b6100d661040a565b60005461010090046001600160a01b03165b6040516001600160a01b0390911681526020016100fe565b6101297f000000000000000000000000000000000000000000000000000000000000000081565b61017b610176366004610bd3565b610472565b6040516100fe9190610cdb565b6100f2610196366004610cee565b60026020526000908152604090205460ff1681565b6101296101b9366004610cee565b6001602052600090815260409020546001600160a01b031681565b6100d66101e2366004610d1c565b61071c565b6000546001600160a01b0361010090910416331461024c5760405162461bcd60e51b815260206004820181905260248201527f4f776e61626c653a2063616c6c6572206973206e6f7420746865206f776e657260448201526064015b60405180910390fd5b610254610804565b565b6000546001600160a01b036101009091041633146102b65760405162461bcd60e51b815260206004820181905260248201527f4f776e61626c653a2063616c6c6572206973206e6f7420746865206f776e65726044820152606401610243565b8281146103055760405162461bcd60e51b815260206004820152600f60248201527f6d69736d61746368206c656e67746800000000000000000000000000000000006044820152606401610243565b60005b838110156103995782828281811061032257610322610d39565b90506020020160208101906103379190610d1c565b6001600087878581811061034d5761034d610d39565b90506020020135815260200190815260200160002060006101000a8154816001600160a01b0302191690836001600160a01b03160217905550808061039190610d65565b915050610308565b5050505050565b6000546001600160a01b036101009091041633146104005760405162461bcd60e51b815260206004820181905260248201527f4f776e61626c653a2063616c6c6572206973206e6f7420746865206f776e65726044820152606401610243565b61025460006108a0565b6000546001600160a01b0361010090910416331461046a5760405162461bcd60e51b815260206004820181905260248201527f4f776e61626c653a2063616c6c6572206973206e6f7420746865206f776e65726044820152606401610243565b610254610910565b6060336001600160a01b037f000000000000000000000000000000000000000000000000000000000000000016146104ec5760405162461bcd60e51b815260206004820152601c60248201527f63616c6c6572206973206e6f7420726f757465722067617465776179000000006044820152606401610243565b60005460ff16156105325760405162461bcd60e51b815260206004820152601060248201526f14185d5cd8589b194e881c185d5cd95960821b6044820152606401610243565b6000806000808780602001905181019061054c9190610d7e565b9350935093509350600061055f8861098b565b6000818152600160205260409020549091506001600160a01b03166105888b6020015160601c90565b6001600160a01b0316146105de5760405162461bcd60e51b815260206004820152601a60248201527f6e6f7420616c6c6f776564206d6573736167652073656e6465720000000000006044820152606401610243565b60008281526002602052604090205460ff16156106115760405163153bf81360e31b815260048101839052602401610243565b6000828152600260205260409020805460ff19166001179055600080856001600160a01b03168585858a60405160200161064e9493929190610e24565b60408051601f198184030181529082905261066891610e65565b6000604051808303816000865af19150503d80600081146106a5576040519150601f19603f3d011682016040523d82523d6000602084013e6106aa565b606091505b5091509150816106d1578381604051632f9c844f60e21b8152600401610243929190610e81565b604051849084907e769f3f82cb2a521c5b72f211aff687dae3cebd0b4631790417d1b17e15689a90600090a350506040805160208101909152600081529a9950505050505050505050565b6000546001600160a01b0361010090910416331461077c5760405162461bcd60e51b815260206004820181905260248201527f4f776e61626c653a2063616c6c6572206973206e6f7420746865206f776e65726044820152606401610243565b6001600160a01b0381166107f85760405162461bcd60e51b815260206004820152602660248201527f4f776e61626c653a206e6577206f776e657220697320746865207a65726f206160448201527f64647265737300000000000000000000000000000000000000000000000000006064820152608401610243565b610801816108a0565b50565b60005460ff166108565760405162461bcd60e51b815260206004820152601460248201527f5061757361626c653a206e6f74207061757365640000000000000000000000006044820152606401610243565b6000805460ff191690557f5db9ee0a495bf2e6ff9c91a7834c1ba4fdd244a5e8aa4e537bd38aeae4b073aa335b6040516001600160a01b03909116815260200160405180910390a1565b600080546001600160a01b038381166101008181027fffffffffffffffffffffff0000000000000000000000000000000000000000ff851617855560405193049190911692909183917f8be0079c531659141344cd1fd0a4f28419497f9722a3daafe3b4186f6b6457e091a35050565b60005460ff16156109565760405162461bcd60e51b815260206004820152601060248201526f14185d5cd8589b194e881c185d5cd95960821b6044820152606401610243565b6000805460ff191660011790557f62e78cea01bee320cd4e420270b5ea74000d11b0c9f74754ebdbfc544b05a2586108833390565b60008082815b8151811015610a3e5760008183516109a99190610ea2565b905060008383815181106109bf576109bf610d39565b01602001517fff000000000000000000000000000000000000000000000000000000000000008116915060f81c60006109f9603083610ea2565b9050610a06600185610ea2565b610a1190600a610f9f565b610a1b9082610fab565b610a259088610fc2565b9650505050508080610a3690610d65565b915050610991565b50909392505050565b60008083601f840112610a5957600080fd5b50813567ffffffffffffffff811115610a7157600080fd5b6020830191508360208260051b8501011115610a8c57600080fd5b9250929050565b60008060008060408587031215610aa957600080fd5b843567ffffffffffffffff80821115610ac157600080fd5b610acd88838901610a47565b90965094506020870135915080821115610ae657600080fd5b50610af387828801610a47565b95989497509550505050565b634e487b7160e01b600052604160045260246000fd5b604051601f8201601f1916810167ffffffffffffffff81118282101715610b3e57610b3e610aff565b604052919050565b600067ffffffffffffffff821115610b6057610b60610aff565b50601f01601f191660200190565b6000610b81610b7c84610b46565b610b15565b9050828152838383011115610b9557600080fd5b828260208301376000602084830101529392505050565b600082601f830112610bbd57600080fd5b610bcc83833560208501610b6e565b9392505050565b60008060008060808587031215610be957600080fd5b843567ffffffffffffffff80821115610c0157600080fd5b610c0d88838901610bac565b95506020870135915080821115610c2357600080fd5b610c2f88838901610bac565b94506040870135915080821115610c4557600080fd5b818701915087601f830112610c5957600080fd5b610c6888833560208501610b6e565b9350606087013591508082168214610c7f57600080fd5b50939692955090935050565b60005b83811015610ca6578181015183820152602001610c8e565b50506000910152565b60008151808452610cc7816020860160208601610c8b565b601f01601f19169290920160200192915050565b602081526000610bcc6020830184610caf565b600060208284031215610d0057600080fd5b5035919050565b6001600160a01b038116811461080157600080fd5b600060208284031215610d2e57600080fd5b8135610bcc81610d07565b634e487b7160e01b600052603260045260246000fd5b634e487b7160e01b600052601160045260246000fd5b600060018201610d7757610d77610d4f565b5060010190565b60008060008060808587031215610d9457600080fd5b8451610d9f81610d07565b6020860151909450610db081610d07565b604086015190935067ffffffffffffffff811115610dcd57600080fd5b8501601f81018713610dde57600080fd5b8051610dec610b7c82610b46565b818152886020838501011115610e0157600080fd5b610e12826020830160208601610c8b565b60609790970151959894975050505050565b60008551610e36818460208a01610c8b565b9190910193845250602083019190915260601b6bffffffffffffffffffffffff19166040820152605401919050565b60008251610e77818460208701610c8b565b9190910192915050565b828152604060208201526000610e9a6040830184610caf565b949350505050565b81810381811115610eb557610eb5610d4f565b92915050565b600181815b80851115610ef6578160001904821115610edc57610edc610d4f565b80851615610ee957918102915b93841c9390800290610ec0565b509250929050565b600082610f0d57506001610eb5565b81610f1a57506000610eb5565b8160018114610f305760028114610f3a57610f56565b6001915050610eb5565b60ff841115610f4b57610f4b610d4f565b50506001821b610eb5565b5060208310610133831016604e8410600b8410161715610f79575081810a610eb5565b610f838383610ebb565b8060001904821115610f9757610f97610d4f565b029392505050565b6000610bcc8383610efe565b8082028115828204841417610eb557610eb5610d4f565b80820180821115610eb557610eb5610d4f56fea2646970667358221220d79b29f77bfae45c88765c0d1723a40557d4abee6ebaa45f8236e8d623cb00a864736f6c63430008110033",
  "devdoc": {
    "errors": {
      "MessageBatchFailure(bytes32,uint256,bytes)": [
        {
          "details": "MessageExecutor MUST revert the entire batch if any message in a batch fails and SHOULD emit a MessageBatchFailure custom error."
        }
      ],
      "MessageFailure(bytes32,bytes)": [
        {
          "details": "MessageExecutor MUST revert if an individual message fails and SHOULD emit a MessageFailure custom error."
        }
      ],
      "MessageIdAlreadyExecuted(bytes32)": [
        {
          "details": "MessageExecutor MUST revert if a messageId has already been executed and SHOULD emit a MessageIdAlreadyExecuted custom error."
        }
      ]
    },
    "kind": "dev",
    "methods": {
      "owner()": {
        "details": "Returns the address of the current owner."
      },
      "paused()": {
        "details": "Returns true if the contract is paused, and false otherwise."
      },
      "renounceOwnership()": {
        "details": "Leaves the contract without owner. It will not be possible to call `onlyOwner` functions anymore. Can only be called by the current owner. NOTE: Renouncing ownership will leave the contract without an owner, thereby removing any functionality that is only available to the owner."
      },
      "transferOwnership(address)": {
        "details": "Transfers ownership of the contract to a new account (`newOwner`). Can only be called by the current owner."
      },
      "updateSenderAdapter(uint256[],address[])": {
        "details": "Owner update sender adapter address on src chain."
      }
    },
    "version": 1
  },
  "userdoc": {
    "kind": "user",
    "methods": {},
    "version": 1
  },
  "storageLayout": {
    "storage": [
      {
        "astId": 654,
        "contract": "contracts/message/apps/multibridge/adapters/router/RouterReceiverAdapter.sol:RouterReceiverAdapter",
        "label": "_paused",
        "offset": 0,
        "slot": "0",
        "type": "t_bool"
      },
      {
        "astId": 539,
        "contract": "contracts/message/apps/multibridge/adapters/router/RouterReceiverAdapter.sol:RouterReceiverAdapter",
        "label": "_owner",
        "offset": 1,
        "slot": "0",
        "type": "t_address"
      },
      {
        "astId": 21404,
        "contract": "contracts/message/apps/multibridge/adapters/router/RouterReceiverAdapter.sol:RouterReceiverAdapter",
        "label": "senderAdapters",
        "offset": 0,
        "slot": "1",
        "type": "t_mapping(t_uint256,t_address)"
      },
      {
        "astId": 21411,
        "contract": "contracts/message/apps/multibridge/adapters/router/RouterReceiverAdapter.sol:RouterReceiverAdapter",
        "label": "executedMessages",
        "offset": 0,
        "slot": "2",
        "type": "t_mapping(t_bytes32,t_bool)"
      }
    ],
    "types": {
      "t_address": {
        "encoding": "inplace",
        "label": "address",
        "numberOfBytes": "20"
      },
      "t_bool": {
        "encoding": "inplace",
        "label": "bool",
        "numberOfBytes": "1"
      },
      "t_bytes32": {
        "encoding": "inplace",
        "label": "bytes32",
        "numberOfBytes": "32"
      },
      "t_mapping(t_bytes32,t_bool)": {
        "encoding": "mapping",
        "key": "t_bytes32",
        "label": "mapping(bytes32 => bool)",
        "numberOfBytes": "32",
        "value": "t_bool"
      },
      "t_mapping(t_uint256,t_address)": {
        "encoding": "mapping",
        "key": "t_uint256",
        "label": "mapping(uint256 => address)",
        "numberOfBytes": "32",
        "value": "t_address"
      },
      "t_uint256": {
        "encoding": "inplace",
        "label": "uint256",
        "numberOfBytes": "32"
      }
    }
  }
}