{
  "address": "0x25310B667f9b28c5cd0c616E00C8decECFD204bB",
  "abi": [
    {
      "anonymous": false,
      "inputs": [
        {
          "indexed": false,
          "internalType": "address",
          "name": "messageBus",
          "type": "address"
        }
      ],
      "name": "MessageBusUpdated",
      "type": "event"
    },
    {
      "anonymous": false,
      "inputs": [
        {
          "indexed": true,
          "internalType": "address",
          "name": "previousOwner",
          "type": "address"
        },
        {
          "indexed": true,
          "internalType": "address",
          "name": "newOwner",
          "type": "address"
        }
      ],
      "name": "OwnershipTransferred",
      "type": "event"
    },
    {
      "inputs": [
        {
          "internalType": "address",
          "name": "_sender",
          "type": "address"
        },
        {
          "internalType": "uint64",
          "name": "_srcChainId",
          "type": "uint64"
        },
        {
          "internalType": "bytes",
          "name": "_message",
          "type": "bytes"
        },
        {
          "internalType": "address",
          "name": "_executor",
          "type": "address"
        }
      ],
      "name": "executeMessage",
      "outputs": [
        {
          "internalType": "enum IMessageReceiverApp.ExecutionStatus",
          "name": "",
          "type": "uint8"
        }
      ],
      "stateMutability": "payable",
      "type": "function"
    },
    {
      "inputs": [
        {
          "internalType": "address",
          "name": "",
          "type": "address"
        },
        {
          "internalType": "address",
          "name": "_token",
          "type": "address"
        },
        {
          "internalType": "uint256",
          "name": "_amount",
          "type": "uint256"
        },
        {
          "internalType": "uint64",
          "name": "_srcChainId",
          "type": "uint64"
        },
        {
          "internalType": "bytes",
          "name": "_message",
          "type": "bytes"
        },
        {
          "internalType": "address",
          "name": "",
          "type": "address"
        }
      ],
      "name": "executeMessageWithTransfer",
      "outputs": [
        {
          "internalType": "enum IMessageReceiverApp.ExecutionStatus",
          "name": "",
          "type": "uint8"
        }
      ],
      "stateMutability": "payable",
      "type": "function"
    },
    {
      "inputs": [
        {
          "internalType": "address",
          "name": "_sender",
          "type": "address"
        },
        {
          "internalType": "address",
          "name": "_token",
          "type": "address"
        },
        {
          "internalType": "uint256",
          "name": "_amount",
          "type": "uint256"
        },
        {
          "internalType": "uint64",
          "name": "_srcChainId",
          "type": "uint64"
        },
        {
          "internalType": "bytes",
          "name": "_message",
          "type": "bytes"
        },
        {
          "internalType": "address",
          "name": "_executor",
          "type": "address"
        }
      ],
      "name": "executeMessageWithTransferFallback",
      "outputs": [
        {
          "internalType": "enum IMessageReceiverApp.ExecutionStatus",
          "name": "",
          "type": "uint8"
        }
      ],
      "stateMutability": "payable",
      "type": "function"
    },
    {
      "inputs": [
        {
          "internalType": "address",
          "name": "_token",
          "type": "address"
        },
        {
          "internalType": "uint256",
          "name": "_amount",
          "type": "uint256"
        },
        {
          "internalType": "bytes",
          "name": "_message",
          "type": "bytes"
        },
        {
          "internalType": "address",
          "name": "_executor",
          "type": "address"
        }
      ],
      "name": "executeMessageWithTransferRefund",
      "outputs": [
        {
          "internalType": "enum IMessageReceiverApp.ExecutionStatus",
          "name": "",
          "type": "uint8"
        }
      ],
      "stateMutability": "payable",
      "type": "function"
    },
    {
      "inputs": [],
      "name": "messageBus",
      "outputs": [
        {
          "internalType": "address",
          "name": "",
          "type": "address"
        }
      ],
      "stateMutability": "view",
      "type": "function"
    },
    {
      "inputs": [],
      "name": "owner",
      "outputs": [
        {
          "internalType": "address",
          "name": "",
          "type": "address"
        }
      ],
      "stateMutability": "view",
      "type": "function"
    },
    {
      "inputs": [
        {
          "internalType": "address",
          "name": "_messageBus",
          "type": "address"
        }
      ],
      "name": "setMessageBus",
      "outputs": [],
      "stateMutability": "nonpayable",
      "type": "function"
    },
    {
      "inputs": [
        {
          "internalType": "address",
          "name": "_receiver",
          "type": "address"
        },
        {
          "internalType": "address",
          "name": "_token",
          "type": "address"
        },
        {
          "internalType": "uint256",
          "name": "_amount",
          "type": "uint256"
        },
        {
          "internalType": "uint64",
          "name": "_dstChainId",
          "type": "uint64"
        },
        {
          "internalType": "uint32",
          "name": "_maxSlippage",
          "type": "uint32"
        }
      ],
      "name": "startTest",
      "outputs": [],
      "stateMutability": "payable",
      "type": "function"
    },
    {
      "inputs": [
        {
          "internalType": "address",
          "name": "newOwner",
          "type": "address"
        }
      ],
      "name": "transferOwnership",
      "outputs": [],
      "stateMutability": "nonpayable",
      "type": "function"
    }
  ],
  "transactionHash": "0xa91e2cab782d764bc03968a77fb795b2f5c09b65f2552b9e992a37a3a1d52f27",
  "args": [],
  "numDeployments": 1,
  "solcInputHash": "1244edd768d2f513591840d66d9d64a2",
  "bytecode": "0x608060405234801561001057600080fd5b5061001a3361001f565b61006f565b600080546001600160a01b038381166001600160a01b0319831681178455604051919092169283917f8be0079c531659141344cd1fd0a4f28419497f9722a3daafe3b4186f6b6457e09190a35050565b611ab68061007e6000396000f3fe6080604052600436106100965760003560e01c80638da5cb5b11610069578063a1a227fa1161004e578063a1a227fa1461014c578063f2fde38b1461016c578063f34c8a2c1461018c57600080fd5b80638da5cb5b1461010c5780639c649fdf1461013e57600080fd5b80630bcb49821461009b578063547cad12146100c45780635ab7afc6146100e65780637cd2bffc146100f9575b600080fd5b6100ae6100a93660046115a1565b61019f565b6040516100bb919061162b565b60405180910390f35b3480156100d057600080fd5b506100e46100df366004611653565b61020a565b005b6100ae6100f4366004611688565b6102d4565b6100ae610107366004611735565b61033c565b34801561011857600080fd5b506000546001600160a01b03165b6040516001600160a01b0390911681526020016100bb565b6100ae6100a9366004611835565b34801561015857600080fd5b50600154610126906001600160a01b031681565b34801561017857600080fd5b506100e4610187366004611653565b6103a6565b6100e461019a366004611882565b610497565b6001546000906001600160a01b031633146102015760405162461bcd60e51b815260206004820152601960248201527f63616c6c6572206973206e6f74206d657373616765206275730000000000000060448201526064015b60405180910390fd5b95945050505050565b3361021d6000546001600160a01b031690565b6001600160a01b0316146102735760405162461bcd60e51b815260206004820181905260248201527f4f776e61626c653a2063616c6c6572206973206e6f7420746865206f776e657260448201526064016101f8565b6001805473ffffffffffffffffffffffffffffffffffffffff19166001600160a01b0383169081179091556040519081527f3f8223bcd8b3b875473e9f9e14e1ad075451a2b5ffd31591655da9a01516bf5e9060200160405180910390a150565b6001546000906001600160a01b031633146103315760405162461bcd60e51b815260206004820152601960248201527f63616c6c6572206973206e6f74206d657373616765206275730000000000000060448201526064016101f8565b979650505050505050565b6001546000906001600160a01b031633146103995760405162461bcd60e51b815260206004820152601960248201527f63616c6c6572206973206e6f74206d657373616765206275730000000000000060448201526064016101f8565b5060019695505050505050565b336103b96000546001600160a01b031690565b6001600160a01b03161461040f5760405162461bcd60e51b815260206004820181905260248201527f4f776e61626c653a2063616c6c6572206973206e6f7420746865206f776e657260448201526064016101f8565b6001600160a01b03811661048b5760405162461bcd60e51b815260206004820152602660248201527f4f776e61626c653a206e6577206f776e657220697320746865207a65726f206160448201527f646472657373000000000000000000000000000000000000000000000000000060648201526084016101f8565b610494816105fe565b50565b6104ac6001600160a01b03851633308661065b565b60408051808201909152600581527f61626364650000000000000000000000000000000000000000000000000000006020820152600180548190601490610505908390600160a01b900467ffffffffffffffff166118f9565b92506101000a81548167ffffffffffffffff021916908367ffffffffffffffff16021790555061055f868660028761053d9190611925565b86600160149054906101000a900467ffffffffffffffff1687876001346106f9565b50600180548190601490610585908390600160a01b900467ffffffffffffffff166118f9565b92506101000a81548167ffffffffffffffff021916908367ffffffffffffffff1602179055506040518060400160405280600781526020017f313233343536370000000000000000000000000000000000000000000000000081525090506105f5868660028761053d9190611925565b50505050505050565b600080546001600160a01b0383811673ffffffffffffffffffffffffffffffffffffffff19831681178455604051919092169283917f8be0079c531659141344cd1fd0a4f28419497f9722a3daafe3b4186f6b6457e09190a35050565b6040516001600160a01b03808516602483015283166044820152606481018290526106f39085906323b872dd60e01b906084015b60408051601f198184030181529190526020810180517bffffffffffffffffffffffffffffffffffffffffffffffffffffffff167fffffffff0000000000000000000000000000000000000000000000000000000090931692909217909152610730565b50505050565b60006107228a8a8a8a8a8a8a8a600160009054906101000a90046001600160a01b03168b61081a565b9a9950505050505050505050565b6000610785826040518060400160405280602081526020017f5361666545524332303a206c6f772d6c6576656c2063616c6c206661696c6564815250856001600160a01b03166108b39092919063ffffffff16565b80519091501561081557808060200190518101906107a39190611947565b6108155760405162461bcd60e51b815260206004820152602a60248201527f5361666545524332303a204552433230206f7065726174696f6e20646964206e60448201527f6f7420737563636565640000000000000000000000000000000000000000000060648201526084016101f8565b505050565b600080600061082f8d8d8d8d8d8d8c8c6108cc565b88519193509150156108a357846001600160a01b0316634289fbb3858f8d85878d6040518763ffffffff1660e01b81526004016108709594939291906119c1565b6000604051808303818588803b15801561088957600080fd5b505af115801561089d573d6000803e3d6000fd5b50505050505b509b9a5050505050505050505050565b60606108c284846000856110db565b90505b9392505050565b60008060018460068111156108e3576108e3611615565b1415610a1257826001600160a01b03166382980dc46040518163ffffffff1660e01b815260040160206040518083038186803b15801561092257600080fd5b505afa158015610936573d6000803e3d6000fd5b505050506040513d601f19601f8201168201806040525081019061095a9190611a03565b90506109706001600160a01b038a16828a611218565b60405163a5977fbb60e01b81526001600160a01b038b811660048301528a81166024830152604482018a905267ffffffffffffffff808a1660648401528816608483015263ffffffff871660a483015282169063a5977fbb9060c401600060405180830381600087803b1580156109e657600080fd5b505af11580156109fa573d6000803e3d6000fd5b50505050610a0b8a8a8a8a8a6112d9565b91506110ce565b6002846006811115610a2657610a26611615565b1415610b4257826001600160a01b031663d8257d176040518163ffffffff1660e01b815260040160206040518083038186803b158015610a6557600080fd5b505afa158015610a79573d6000803e3d6000fd5b505050506040513d601f19601f82011682018060405250810190610a9d9190611a03565b9050610ab36001600160a01b038a16828a611218565b6040516308d18d8960e21b81526001600160a01b038a81166004830152602482018a905267ffffffffffffffff808a1660448401528c821660648401528816608483015282169063234636249060a401600060405180830381600087803b158015610b1d57600080fd5b505af1158015610b31573d6000803e3d6000fd5b50505050610a0b8a8a8a8a8a611361565b6003846006811115610b5657610b56611615565b1415610ced57826001600160a01b031663dfa2dbaf6040518163ffffffff1660e01b815260040160206040518083038186803b158015610b9557600080fd5b505afa158015610ba9573d6000803e3d6000fd5b505050506040513d601f19601f82011682018060405250810190610bcd9190611a03565b9050610be36001600160a01b038a16828a611218565b604051636f3c863f60e11b81526001600160a01b038a81166004830152602482018a90528b8116604483015267ffffffffffffffff8816606483015282169063de790c7e90608401600060405180830381600087803b158015610c4557600080fd5b505af1158015610c59573d6000803e3d6000fd5b50610c73925050506001600160a01b038a168260006113cf565b604080516bffffffffffffffffffffffff1930606090811b82166020808501919091528d821b83166034850152604884018d9052908e901b90911660688301526001600160c01b031960c08a811b8216607c85015246901b1660848301528251808303606c018152608c9092019092528051910120610a0b565b6004846006811115610d0157610d01611615565b1415610e3057826001600160a01b031663c66a9c5a6040518163ffffffff1660e01b815260040160206040518083038186803b158015610d4057600080fd5b505afa158015610d54573d6000803e3d6000fd5b505050506040513d601f19601f82011682018060405250810190610d789190611a03565b9050610d8e6001600160a01b038a16828a611218565b6040516308d18d8960e21b81526001600160a01b038a81166004830152602482018a905267ffffffffffffffff808a1660448401528c821660648401528816608483015282169063234636249060a401602060405180830381600087803b158015610df857600080fd5b505af1158015610e0c573d6000803e3d6000fd5b505050506040513d601f19601f82011682018060405250810190610a0b9190611a20565b6005846006811115610e4457610e44611615565b1415610f9057826001600160a01b03166395b12c276040518163ffffffff1660e01b815260040160206040518083038186803b158015610e8357600080fd5b505afa158015610e97573d6000803e3d6000fd5b505050506040513d601f19601f82011682018060405250810190610ebb9190611a03565b9050610ed16001600160a01b038a16828a611218565b60405163a002930160e01b81526001600160a01b038a81166004830152602482018a905267ffffffffffffffff808a1660448401528c821660648401528816608483015282169063a00293019060a4015b602060405180830381600087803b158015610f3c57600080fd5b505af1158015610f50573d6000803e3d6000fd5b505050506040513d601f19601f82011682018060405250810190610f749190611a20565b9150610f8b6001600160a01b038a168260006113cf565b6110ce565b6006846006811115610fa457610fa4611615565b141561108657826001600160a01b03166395b12c276040518163ffffffff1660e01b815260040160206040518083038186803b158015610fe357600080fd5b505afa158015610ff7573d6000803e3d6000fd5b505050506040513d601f19601f8201168201806040525081019061101b9190611a03565b90506110316001600160a01b038a16828a611218565b604051639e422c3360e01b81526001600160a01b038a81166004830152602482018a905267ffffffffffffffff808a1660448401528c8216606484015288166084830152821690639e422c339060a401610f22565b60405162461bcd60e51b815260206004820152601960248201527f6272696467652074797065206e6f7420737570706f727465640000000000000060448201526064016101f8565b9850989650505050505050565b6060824710156111535760405162461bcd60e51b815260206004820152602660248201527f416464726573733a20696e73756666696369656e742062616c616e636520666f60448201527f722063616c6c000000000000000000000000000000000000000000000000000060648201526084016101f8565b6001600160a01b0385163b6111aa5760405162461bcd60e51b815260206004820152601d60248201527f416464726573733a2063616c6c20746f206e6f6e2d636f6e747261637400000060448201526064016101f8565b600080866001600160a01b031685876040516111c69190611a39565b60006040518083038185875af1925050503d8060008114611203576040519150601f19603f3d011682016040523d82523d6000602084013e611208565b606091505b50915091506103318282866114fa565b604051636eb1769f60e11b81523060048201526001600160a01b038381166024830152600091839186169063dd62ed3e9060440160206040518083038186803b15801561126457600080fd5b505afa158015611278573d6000803e3d6000fd5b505050506040513d601f19601f8201168201806040525081019061129c9190611a20565b6112a69190611a55565b6040516001600160a01b0385166024820152604481018290529091506106f390859063095ea7b360e01b9060640161068f565b6040516bffffffffffffffffffffffff1930606090811b8216602084015287811b8216603484015286901b166048820152605c81018490526001600160c01b031960c084811b8216607c84015283811b8216608484015246901b16608c8201526000906094015b60405160208183030381529060405280519060200120905095945050505050565b6040516bffffffffffffffffffffffff1930606090811b8216602084015286811b82166034840152604883018690526001600160c01b031960c086811b821660688601529189901b909216607084015283811b8216608484015246901b16608c820152600090609401611340565b8015806114585750604051636eb1769f60e11b81523060048201526001600160a01b03838116602483015284169063dd62ed3e9060440160206040518083038186803b15801561141e57600080fd5b505afa158015611432573d6000803e3d6000fd5b505050506040513d601f19601f820116820180604052508101906114569190611a20565b155b6114ca5760405162461bcd60e51b815260206004820152603660248201527f5361666545524332303a20617070726f76652066726f6d206e6f6e2d7a65726f60448201527f20746f206e6f6e2d7a65726f20616c6c6f77616e63650000000000000000000060648201526084016101f8565b6040516001600160a01b03831660248201526044810182905261081590849063095ea7b360e01b9060640161068f565b606083156115095750816108c5565b8251156115195782518084602001fd5b8160405162461bcd60e51b81526004016101f89190611a6d565b6001600160a01b038116811461049457600080fd5b803561155381611533565b919050565b60008083601f84011261156a57600080fd5b50813567ffffffffffffffff81111561158257600080fd5b60208301915083602082850101111561159a57600080fd5b9250929050565b6000806000806000608086880312156115b957600080fd5b85356115c481611533565b945060208601359350604086013567ffffffffffffffff8111156115e757600080fd5b6115f388828901611558565b909450925050606086013561160781611533565b809150509295509295909350565b634e487b7160e01b600052602160045260246000fd5b602081016003831061164d57634e487b7160e01b600052602160045260246000fd5b91905290565b60006020828403121561166557600080fd5b81356108c581611533565b803567ffffffffffffffff8116811461155357600080fd5b600080600080600080600060c0888a0312156116a357600080fd5b87356116ae81611533565b965060208801356116be81611533565b9550604088013594506116d360608901611670565b9350608088013567ffffffffffffffff8111156116ef57600080fd5b6116fb8a828b01611558565b90945092505060a088013561170f81611533565b8091505092959891949750929550565b634e487b7160e01b600052604160045260246000fd5b60008060008060008060c0878903121561174e57600080fd5b863561175981611533565b9550602087013561176981611533565b94506040870135935061177e60608801611670565b9250608087013567ffffffffffffffff8082111561179b57600080fd5b818901915089601f8301126117af57600080fd5b8135818111156117c1576117c161171f565b604051601f8201601f19908116603f011681019083821181831017156117e9576117e961171f565b816040528281528c602084870101111561180257600080fd5b82602086016020830137600060208483010152809650505050505061182960a08801611548565b90509295509295509295565b60008060008060006080868803121561184d57600080fd5b853561185881611533565b945061186660208701611670565b9350604086013567ffffffffffffffff8111156115e757600080fd5b600080600080600060a0868803121561189a57600080fd5b85356118a581611533565b945060208601356118b581611533565b9350604086013592506118ca60608701611670565b9150608086013563ffffffff8116811461160757600080fd5b634e487b7160e01b600052601160045260246000fd5b600067ffffffffffffffff80831681851680830382111561191c5761191c6118e3565b01949350505050565b60008261194257634e487b7160e01b600052601260045260246000fd5b500490565b60006020828403121561195957600080fd5b815180151581146108c557600080fd5b60005b8381101561198457818101518382015260200161196c565b838111156106f35750506000910152565b600081518084526119ad816020860160208601611969565b601f01601f19169290920160200192915050565b60006001600160a01b03808816835267ffffffffffffffff8716602084015280861660408401525083606083015260a0608083015261033160a0830184611995565b600060208284031215611a1557600080fd5b81516108c581611533565b600060208284031215611a3257600080fd5b5051919050565b60008251611a4b818460208701611969565b9190910192915050565b60008219821115611a6857611a686118e3565b500190565b6020815260006108c5602083018461199556fea264697066735822122012379f4d313e751f55bd3448e4b119098235c3ff6ee95e28617aa3b09acd252864736f6c63430008090033",
  "devdoc": {
    "kind": "dev",
    "methods": {
      "executeMessage(address,uint64,bytes,address)": {
        "params": {
          "_executor": "Address who called the MessageBus execution function",
          "_message": "Arbitrary message bytes originated from and encoded by the source app contract",
          "_sender": "The address of the source app contract",
          "_srcChainId": "The source chain ID where the transfer is originated from"
        }
      },
      "executeMessageWithTransferFallback(address,address,uint256,uint64,bytes,address)": {
        "params": {
          "_amount": "The amount of tokens received at this contract through the cross-chain bridge.        the contract that implements this contract can safely assume that the tokens will arrive before this        function is called.",
          "_executor": "Address who called the MessageBus execution function",
          "_message": "Arbitrary message bytes originated from and encoded by the source app contract",
          "_sender": "The address of the source app contract",
          "_srcChainId": "The source chain ID where the transfer is originated from",
          "_token": "The address of the token that comes out of the bridge"
        }
      },
      "executeMessageWithTransferRefund(address,uint256,bytes,address)": {
        "params": {
          "_amount": "The amount of the original transfer",
          "_executor": "Address who called the MessageBus execution function",
          "_message": "The same message associated with the original transfer",
          "_token": "The token address of the original transfer"
        }
      },
      "owner()": {
        "details": "Returns the address of the current owner."
      },
      "transferOwnership(address)": {
        "details": "Transfers ownership of the contract to a new account (`newOwner`). Can only be called by the current owner."
      }
    },
    "version": 1
  },
  "userdoc": {
    "kind": "user",
    "methods": {
      "executeMessage(address,uint64,bytes,address)": {
        "notice": "Called by MessageBus (MessageBusReceiver)"
      },
      "executeMessageWithTransferFallback(address,address,uint256,uint64,bytes,address)": {
        "notice": "Only called by MessageBus (MessageBusReceiver) if         1. executeMessageWithTransfer reverts, or         2. executeMessageWithTransfer returns ExecutionStatus.Fail"
      },
      "executeMessageWithTransferRefund(address,uint256,bytes,address)": {
        "notice": "Called by MessageBus (MessageBusReceiver) to process refund of the original transfer from this contract"
      }
    },
    "version": 1
  },
  "storageLayout": {
    "storage": [
      {
        "astId": 24960,
        "contract": "contracts/message/apps/TransferMultiTest.sol:TransferMultiTest",
        "label": "_owner",
        "offset": 0,
        "slot": "0",
        "type": "t_address"
      },
      {
        "astId": 16390,
        "contract": "contracts/message/apps/TransferMultiTest.sol:TransferMultiTest",
        "label": "messageBus",
        "offset": 0,
        "slot": "1",
        "type": "t_address"
      },
      {
        "astId": 15078,
        "contract": "contracts/message/apps/TransferMultiTest.sol:TransferMultiTest",
        "label": "nonce",
        "offset": 20,
        "slot": "1",
        "type": "t_uint64"
      }
    ],
    "types": {
      "t_address": {
        "encoding": "inplace",
        "label": "address",
        "numberOfBytes": "20"
      },
      "t_uint64": {
        "encoding": "inplace",
        "label": "uint64",
        "numberOfBytes": "8"
      }
    }
  }
}