{
  "address": "0xe134059918851f5Ffcbf29ED71ea942D0A4f2995",
  "abi": [
    {
      "inputs": [
        {
          "internalType": "address",
          "name": "_routerGateway",
          "type": "address"
        }
      ],
      "stateMutability": "nonpayable",
      "type": "constructor"
    },
    {
      "anonymous": false,
      "inputs": [
        {
          "indexed": true,
          "internalType": "bytes32",
          "name": "messageId",
          "type": "bytes32"
        },
        {
          "indexed": true,
          "internalType": "address",
          "name": "from",
          "type": "address"
        },
        {
          "indexed": true,
          "internalType": "uint256",
          "name": "toChainId",
          "type": "uint256"
        },
        {
          "indexed": false,
          "internalType": "address",
          "name": "to",
          "type": "address"
        },
        {
          "indexed": false,
          "internalType": "bytes",
          "name": "data",
          "type": "bytes"
        }
      ],
      "name": "MessageDispatched",
      "type": "event"
    },
    {
      "anonymous": false,
      "inputs": [
        {
          "indexed": true,
          "internalType": "address",
          "name": "previousOwner",
          "type": "address"
        },
        {
          "indexed": true,
          "internalType": "address",
          "name": "newOwner",
          "type": "address"
        }
      ],
      "name": "OwnershipTransferred",
      "type": "event"
    },
    {
      "inputs": [
        {
          "internalType": "uint256",
          "name": "_toChainId",
          "type": "uint256"
        },
        {
          "internalType": "address",
          "name": "_to",
          "type": "address"
        },
        {
          "internalType": "bytes",
          "name": "_data",
          "type": "bytes"
        }
      ],
      "name": "dispatchMessage",
      "outputs": [
        {
          "internalType": "bytes32",
          "name": "",
          "type": "bytes32"
        }
      ],
      "stateMutability": "payable",
      "type": "function"
    },
    {
      "inputs": [
        {
          "internalType": "uint256",
          "name": "",
          "type": "uint256"
        },
        {
          "internalType": "address",
          "name": "",
          "type": "address"
        },
        {
          "internalType": "bytes",
          "name": "",
          "type": "bytes"
        }
      ],
      "name": "getMessageFee",
      "outputs": [
        {
          "internalType": "uint256",
          "name": "",
          "type": "uint256"
        }
      ],
      "stateMutability": "view",
      "type": "function"
    },
    {
      "inputs": [],
      "name": "multiBridgeSender",
      "outputs": [
        {
          "internalType": "address",
          "name": "",
          "type": "address"
        }
      ],
      "stateMutability": "view",
      "type": "function"
    },
    {
      "inputs": [],
      "name": "name",
      "outputs": [
        {
          "internalType": "string",
          "name": "",
          "type": "string"
        }
      ],
      "stateMutability": "view",
      "type": "function"
    },
    {
      "inputs": [],
      "name": "nonce",
      "outputs": [
        {
          "internalType": "uint32",
          "name": "",
          "type": "uint32"
        }
      ],
      "stateMutability": "view",
      "type": "function"
    },
    {
      "inputs": [],
      "name": "owner",
      "outputs": [
        {
          "internalType": "address",
          "name": "",
          "type": "address"
        }
      ],
      "stateMutability": "view",
      "type": "function"
    },
    {
      "inputs": [
        {
          "internalType": "uint256",
          "name": "",
          "type": "uint256"
        }
      ],
      "name": "receiverAdapters",
      "outputs": [
        {
          "internalType": "address",
          "name": "",
          "type": "address"
        }
      ],
      "stateMutability": "view",
      "type": "function"
    },
    {
      "inputs": [],
      "name": "renounceOwnership",
      "outputs": [],
      "stateMutability": "nonpayable",
      "type": "function"
    },
    {
      "inputs": [],
      "name": "routerGateway",
      "outputs": [
        {
          "internalType": "contract IRouterGateway",
          "name": "",
          "type": "address"
        }
      ],
      "stateMutability": "view",
      "type": "function"
    },
    {
      "inputs": [
        {
          "internalType": "address",
          "name": "_multiBridgeSender",
          "type": "address"
        }
      ],
      "name": "setMultiBridgeSender",
      "outputs": [],
      "stateMutability": "nonpayable",
      "type": "function"
    },
    {
      "inputs": [
        {
          "internalType": "address",
          "name": "a",
          "type": "address"
        }
      ],
      "name": "toBytes",
      "outputs": [
        {
          "internalType": "bytes",
          "name": "b",
          "type": "bytes"
        }
      ],
      "stateMutability": "pure",
      "type": "function"
    },
    {
      "inputs": [
        {
          "internalType": "address",
          "name": "newOwner",
          "type": "address"
        }
      ],
      "name": "transferOwnership",
      "outputs": [],
      "stateMutability": "nonpayable",
      "type": "function"
    },
    {
      "inputs": [
        {
          "internalType": "uint256[]",
          "name": "_dstChainIds",
          "type": "uint256[]"
        },
        {
          "internalType": "address[]",
          "name": "_receiverAdapters",
          "type": "address[]"
        }
      ],
      "name": "updateReceiverAdapter",
      "outputs": [],
      "stateMutability": "nonpayable",
      "type": "function"
    }
  ],
  "transactionHash": "0x521eb8c57375b47c2e38a560a100351222350f26ccc57e615435e5f88a9f8cc6",
  "args": [
    "0xB139915AE11f6f0ACd05C8dB85E8ED1bE1c7c17d"
  ],
  "numDeployments": 1,
  "solcInputHash": "f0ff772b27e18f703fe2c68e46ad4021",
  "bytecode": "0x60a060405234801561001057600080fd5b5060405161117a38038061117a83398101604081905261002f91610099565b61003833610049565b6001600160a01b03166080526100c9565b600080546001600160a01b038381166001600160a01b0319831681178455604051919092169283917f8be0079c531659141344cd1fd0a4f28419497f9722a3daafe3b4186f6b6457e09190a35050565b6000602082840312156100ab57600080fd5b81516001600160a01b03811681146100c257600080fd5b9392505050565b6080516110886100f26000396000818161022a015281816104d9015261092901526110886000f3fe6080604052600436106100d25760003560e01c806396732ea21161007f578063c730269611610059578063c7302696146102a5578063f2fde38b146102d3578063fa76cce5146102f3578063fe39827b1461031357600080fd5b806396732ea214610218578063affed0e01461024c578063bbec993c1461028557600080fd5b8063715018a6116100b0578063715018a6146101c3578063755926e9146101da5780638da5cb5b146101fa57600080fd5b806306fdde03146100d75780630b3dfc6714610136578063593b79fe14610184575b600080fd5b3480156100e357600080fd5b506101206040518060400160405280600681526020017f726f75746572000000000000000000000000000000000000000000000000000081525081565b60405161012d9190610bb6565b60405180910390f35b34801561014257600080fd5b5061016c610151366004610bd0565b6002602052600090815260409020546001600160a01b031681565b6040516001600160a01b03909116815260200161012d565b34801561019057600080fd5b5061012061019f366004610c05565b604080516001600160a01b0392909216600560a21b18601483015260348201905290565b3480156101cf57600080fd5b506101d8610326565b005b3480156101e657600080fd5b5060015461016c906001600160a01b031681565b34801561020657600080fd5b506000546001600160a01b031661016c565b34801561022457600080fd5b5061016c7f000000000000000000000000000000000000000000000000000000000000000081565b34801561025857600080fd5b5060015461027090600160a01b900463ffffffff1681565b60405163ffffffff909116815260200161012d565b34801561029157600080fd5b506101d86102a0366004610c6c565b610391565b3480156102b157600080fd5b506102c56102c0366004610cd8565b6104d5565b60405190815260200161012d565b3480156102df57600080fd5b506101d86102ee366004610c05565b610562565b3480156102ff57600080fd5b506101d861030e366004610c05565b610644565b6102c5610321366004610cd8565b6106cd565b6000546001600160a01b031633146103855760405162461bcd60e51b815260206004820181905260248201527f4f776e61626c653a2063616c6c6572206973206e6f7420746865206f776e657260448201526064015b60405180910390fd5b61038f60006109f2565b565b6000546001600160a01b031633146103eb5760405162461bcd60e51b815260206004820181905260248201527f4f776e61626c653a2063616c6c6572206973206e6f7420746865206f776e6572604482015260640161037c565b82811461043a5760405162461bcd60e51b815260206004820152600f60248201527f6d69736d61746368206c656e6774680000000000000000000000000000000000604482015260640161037c565b60005b838110156104ce5782828281811061045757610457610d5f565b905060200201602081019061046c9190610c05565b6002600087878581811061048257610482610d5f565b90506020020135815260200190815260200160002060006101000a8154816001600160a01b0302191690836001600160a01b0316021790555080806104c690610d8b565b91505061043d565b5050505050565b60007f00000000000000000000000000000000000000000000000000000000000000006001600160a01b0316633827bf8b6040518163ffffffff1660e01b8152600401602060405180830381865afa158015610535573d6000803e3d6000fd5b505050506040513d601f19601f820116820180604052508101906105599190610da4565b95945050505050565b6000546001600160a01b031633146105bc5760405162461bcd60e51b815260206004820181905260248201527f4f776e61626c653a2063616c6c6572206973206e6f7420746865206f776e6572604482015260640161037c565b6001600160a01b0381166106385760405162461bcd60e51b815260206004820152602660248201527f4f776e61626c653a206e6577206f776e657220697320746865207a65726f206160448201527f6464726573730000000000000000000000000000000000000000000000000000606482015260840161037c565b610641816109f2565b50565b6000546001600160a01b0316331461069e5760405162461bcd60e51b815260206004820181905260248201527f4f776e61626c653a2063616c6c6572206973206e6f7420746865206f776e6572604482015260640161037c565b6001805473ffffffffffffffffffffffffffffffffffffffff19166001600160a01b0392909216919091179055565b6001546000906001600160a01b0316331461072a5760405162461bcd60e51b815260206004820152601b60248201527f6e6f74206d756c74692d627269646765206d73672073656e6465720000000000604482015260640161037c565b6000858152600260205260409020546001600160a01b031661078e5760405162461bcd60e51b815260206004820152601360248201527f6e6f207265636569766572206164617074657200000000000000000000000000604482015260640161037c565b6001546040805160608101825267ffffffffffffffff8152600060208201819052600160a01b90930463ffffffff16929181018290526040805160808101825262055730815260006020820181905291810182905291925090606081016107f48a610a4f565b905260408051600180825281830190925291925060009190816020015b60608152602001906001900390816108115790505090503388888887604051602001610841959493929190610de9565b6040516020818303038152906040528160008151811061086357610863610d5f565b6020908102919091010152604080516001808252818301909252600091816020015b60608152602001906001900390816108855790505060008b815260026020526040908190205481516001600160a01b03909116600560a21b18601482015260348101909152909150816000815181106108e0576108e0610d5f565b602090810291909101810191909152604080518082018252600080825281840181905282518084018452868152938401859052915163fac1f4af60e01b81526001600160a01b037f0000000000000000000000000000000000000000000000000000000000000000169363fac1f4af933493610962938b938b91600401610f03565b60206040518083038185885af1158015610980573d6000803e3d6000fd5b50505050506040513d601f19601f820116820180604052508101906109a59190610f9b565b5060018054600160a01b900463ffffffff169060146109c383610fc5565b91906101000a81548163ffffffff021916908363ffffffff160217905550508495505050505050949350505050565b600080546001600160a01b0383811673ffffffffffffffffffffffffffffffffffffffff19831681178455604051919092169283917f8be0079c531659141344cd1fd0a4f28419497f9722a3daafe3b4186f6b6457e09190a35050565b606081600003610a765750506040805180820190915260018152600360fc1b602082015290565b8160005b8115610aa05780610a8a81610d8b565b9150610a999050600a83610ffe565b9150610a7a565b60008167ffffffffffffffff811115610abb57610abb610dd3565b6040519080825280601f01601f191660200182016040528015610ae5576020820181803683370190505b5090505b8415610b6857610afa600183611012565b9150610b07600a8661102b565b610b1290603061103f565b60f81b818381518110610b2757610b27610d5f565b60200101907effffffffffffffffffffffffffffffffffffffffffffffffffffffffffffff1916908160001a905350610b61600a86610ffe565b9450610ae9565b949350505050565b6000815180845260005b81811015610b9657602081850181015186830182015201610b7a565b506000602082860101526020601f19601f83011685010191505092915050565b602081526000610bc96020830184610b70565b9392505050565b600060208284031215610be257600080fd5b5035919050565b80356001600160a01b0381168114610c0057600080fd5b919050565b600060208284031215610c1757600080fd5b610bc982610be9565b60008083601f840112610c3257600080fd5b50813567ffffffffffffffff811115610c4a57600080fd5b6020830191508360208260051b8501011115610c6557600080fd5b9250929050565b60008060008060408587031215610c8257600080fd5b843567ffffffffffffffff80821115610c9a57600080fd5b610ca688838901610c20565b90965094506020870135915080821115610cbf57600080fd5b50610ccc87828801610c20565b95989497509550505050565b60008060008060608587031215610cee57600080fd5b84359350610cfe60208601610be9565b9250604085013567ffffffffffffffff80821115610d1b57600080fd5b818701915087601f830112610d2f57600080fd5b813581811115610d3e57600080fd5b886020828501011115610d5057600080fd5b95989497505060200194505050565b634e487b7160e01b600052603260045260246000fd5b634e487b7160e01b600052601160045260246000fd5b600060018201610d9d57610d9d610d75565b5060010190565b600060208284031215610db657600080fd5b5051919050565b634e487b7160e01b600052602160045260246000fd5b634e487b7160e01b600052604160045260246000fd5b60006001600160a01b03808816835280871660208401525060806040830152836080830152838560a0840137600060a0858401015260a0601f19601f86011683010190508260608301529695505050505050565b600067ffffffffffffffff80835116845280602084015116602085015280604084015116604085015250606082015160806060850152610b686080850182610b70565b600081518084526020808501808196508360051b8101915082860160005b85811015610ec8578284038952610eb6848351610b70565b98850198935090840190600101610e9e565b5091979650505050505050565b6000815160408452610eea6040850182610e80565b9050602083015184820360208601526105598282610e80565b600061010067ffffffffffffffff808951168452602089015115156020850152604089015160038110610f3857610f38610dbd565b604085015260048810610f4d57610f4d610dbd565b8760608501528087511660808501528060208801511660a0850152508060c0840152610f7b81840186610e3d565b905082810360e0840152610f8f8185610ed5565b98975050505050505050565b600060208284031215610fad57600080fd5b815167ffffffffffffffff81168114610bc957600080fd5b600063ffffffff808316818103610fde57610fde610d75565b6001019392505050565b634e487b7160e01b600052601260045260246000fd5b60008261100d5761100d610fe8565b500490565b8181038181111561102557611025610d75565b92915050565b60008261103a5761103a610fe8565b500690565b8082018082111561102557611025610d7556fea26469706673582212207bf9d04a0c7f3a6f62723d63ae69037ca5c65ec1852ea6323fca19d4eb4488ce64736f6c63430008110033",
  "devdoc": {
    "kind": "dev",
    "methods": {
      "owner()": {
        "details": "Returns the address of the current owner."
      },
      "renounceOwnership()": {
        "details": "Leaves the contract without owner. It will not be possible to call `onlyOwner` functions anymore. Can only be called by the current owner. NOTE: Renouncing ownership will leave the contract without an owner, thereby removing any functionality that is only available to the owner."
      },
      "setMultiBridgeSender(address)": {
        "details": "Owner setup MultiBridgeSender."
      },
      "transferOwnership(address)": {
        "details": "Transfers ownership of the contract to a new account (`newOwner`). Can only be called by the current owner."
      },
      "updateReceiverAdapter(uint256[],address[])": {
        "details": "Owner update receiver adapter address on dst chain."
      }
    },
    "stateVariables": {
      "name": {
        "details": "Return name of this message bridge."
      }
    },
    "version": 1
  },
  "userdoc": {
    "kind": "user",
    "methods": {},
    "version": 1
  },
  "storageLayout": {
    "storage": [
      {
        "astId": 539,
        "contract": "contracts/message/apps/multibridge/adapters/router/RouterSenderAdapter.sol:RouterSenderAdapter",
        "label": "_owner",
        "offset": 0,
        "slot": "0",
        "type": "t_address"
      },
      {
        "astId": 21642,
        "contract": "contracts/message/apps/multibridge/adapters/router/RouterSenderAdapter.sol:RouterSenderAdapter",
        "label": "multiBridgeSender",
        "offset": 0,
        "slot": "1",
        "type": "t_address"
      },
      {
        "astId": 21647,
        "contract": "contracts/message/apps/multibridge/adapters/router/RouterSenderAdapter.sol:RouterSenderAdapter",
        "label": "nonce",
        "offset": 20,
        "slot": "1",
        "type": "t_uint32"
      },
      {
        "astId": 21651,
        "contract": "contracts/message/apps/multibridge/adapters/router/RouterSenderAdapter.sol:RouterSenderAdapter",
        "label": "receiverAdapters",
        "offset": 0,
        "slot": "2",
        "type": "t_mapping(t_uint256,t_address)"
      }
    ],
    "types": {
      "t_address": {
        "encoding": "inplace",
        "label": "address",
        "numberOfBytes": "20"
      },
      "t_mapping(t_uint256,t_address)": {
        "encoding": "mapping",
        "key": "t_uint256",
        "label": "mapping(uint256 => address)",
        "numberOfBytes": "32",
        "value": "t_address"
      },
      "t_uint256": {
        "encoding": "inplace",
        "label": "uint256",
        "numberOfBytes": "32"
      },
      "t_uint32": {
        "encoding": "inplace",
        "label": "uint32",
        "numberOfBytes": "4"
      }
    }
  }
}